{
	"Contracts/moreModifiers.sol": {
		"moreModifiers": {
			"abi": [
				{
					"inputs": [],
					"name": "count",
					"outputs": [
						{
							"internalType": "uint256",
							"name": "",
							"type": "uint256"
						}
					],
					"stateMutability": "view",
					"type": "function"
				},
				{
					"inputs": [],
					"name": "increment",
					"outputs": [],
					"stateMutability": "nonpayable",
					"type": "function"
				},
				{
					"inputs": [],
					"name": "paused",
					"outputs": [
						{
							"internalType": "bool",
							"name": "",
							"type": "bool"
						}
					],
					"stateMutability": "view",
					"type": "function"
				},
				{
					"inputs": [
						{
							"internalType": "bool",
							"name": "_paused",
							"type": "bool"
						}
					],
					"name": "setPause",
					"outputs": [],
					"stateMutability": "nonpayable",
					"type": "function"
				}
			],
			"devdoc": {
				"kind": "dev",
				"methods": {},
				"version": 1
			},
			"evm": {
				"assembly": "    /* \"Contracts/moreModifiers.sol\":35:335  contract moreModifiers{\r... */\n  mstore(0x40, 0x80)\n  callvalue\n  dup1\n  iszero\n  tag_1\n  jumpi\n  0x00\n  dup1\n  revert\ntag_1:\n  pop\n  dataSize(sub_0)\n  dup1\n  dataOffset(sub_0)\n  0x00\n  codecopy\n  0x00\n  return\nstop\n\nsub_0: assembly {\n        /* \"Contracts/moreModifiers.sol\":35:335  contract moreModifiers{\r... */\n      mstore(0x40, 0x80)\n      callvalue\n      dup1\n      iszero\n      tag_1\n      jumpi\n      0x00\n      dup1\n      revert\n    tag_1:\n      pop\n      jumpi(tag_2, lt(calldatasize, 0x04))\n      shr(0xe0, calldataload(0x00))\n      dup1\n      0x06661abd\n      eq\n      tag_3\n      jumpi\n      dup1\n      0x5c975abb\n      eq\n      tag_4\n      jumpi\n      dup1\n      0xbedb86fb\n      eq\n      tag_5\n      jumpi\n      dup1\n      0xd09de08a\n      eq\n      tag_6\n      jumpi\n    tag_2:\n      0x00\n      dup1\n      revert\n        /* \"Contracts/moreModifiers.sol\":87:104  uint public count */\n    tag_3:\n      tag_7\n      tag_8\n      jump\t// in\n    tag_7:\n      mload(0x40)\n      tag_9\n      swap2\n      swap1\n      tag_10\n      jump\t// in\n    tag_9:\n      mload(0x40)\n      dup1\n      swap2\n      sub\n      swap1\n      return\n        /* \"Contracts/moreModifiers.sol\":66:84  bool public paused */\n    tag_4:\n      tag_11\n      tag_12\n      jump\t// in\n    tag_11:\n      mload(0x40)\n      tag_13\n      swap2\n      swap1\n      tag_14\n      jump\t// in\n    tag_13:\n      mload(0x40)\n      dup1\n      swap2\n      sub\n      swap1\n      return\n        /* \"Contracts/moreModifiers.sol\":109:177  function setPause(bool _paused)  external{\r... */\n    tag_5:\n      tag_15\n      0x04\n      dup1\n      calldatasize\n      sub\n      dup2\n      add\n      swap1\n      tag_16\n      swap2\n      swap1\n      tag_17\n      jump\t// in\n    tag_16:\n      tag_18\n      jump\t// in\n    tag_15:\n      stop\n        /* \"Contracts/moreModifiers.sol\":250:332  function increment() external WhenNotPaused{\r... */\n    tag_6:\n      tag_19\n      tag_20\n      jump\t// in\n    tag_19:\n      stop\n        /* \"Contracts/moreModifiers.sol\":87:104  uint public count */\n    tag_8:\n      sload(0x01)\n      dup2\n      jump\t// out\n        /* \"Contracts/moreModifiers.sol\":66:84  bool public paused */\n    tag_12:\n      0x00\n      dup1\n      sload\n      swap1\n      0x0100\n      exp\n      swap1\n      div\n      0xff\n      and\n      dup2\n      jump\t// out\n        /* \"Contracts/moreModifiers.sol\":109:177  function setPause(bool _paused)  external{\r... */\n    tag_18:\n        /* \"Contracts/moreModifiers.sol\":166:173  _paused */\n      dup1\n        /* \"Contracts/moreModifiers.sol\":157:163  paused */\n      0x00\n      dup1\n        /* \"Contracts/moreModifiers.sol\":157:173  paused = _paused */\n      0x0100\n      exp\n      dup2\n      sload\n      dup2\n      0xff\n      mul\n      not\n      and\n      swap1\n      dup4\n      iszero\n      iszero\n      mul\n      or\n      swap1\n      sstore\n      pop\n        /* \"Contracts/moreModifiers.sol\":109:177  function setPause(bool _paused)  external{\r... */\n      pop\n      jump\t// out\n        /* \"Contracts/moreModifiers.sol\":250:332  function increment() external WhenNotPaused{\r... */\n    tag_20:\n        /* \"Contracts/moreModifiers.sol\":219:225  paused */\n      0x00\n      dup1\n      sload\n      swap1\n      0x0100\n      exp\n      swap1\n      div\n      0xff\n      and\n        /* \"Contracts/moreModifiers.sol\":218:225  !paused */\n      iszero\n        /* \"Contracts/moreModifiers.sol\":210:236  require(!paused, \"paused\") */\n      tag_23\n      jumpi\n      mload(0x40)\n      0x08c379a000000000000000000000000000000000000000000000000000000000\n      dup2\n      mstore\n      0x04\n      add\n      tag_24\n      swap1\n      tag_25\n      jump\t// in\n    tag_24:\n      mload(0x40)\n      dup1\n      swap2\n      sub\n      swap1\n      revert\n    tag_23:\n        /* \"Contracts/moreModifiers.sol\":309:314  false */\n      0x00\n        /* \"Contracts/moreModifiers.sol\":300:306  paused */\n      dup1\n      0x00\n        /* \"Contracts/moreModifiers.sol\":300:314  paused = false */\n      0x0100\n      exp\n      dup2\n      sload\n      dup2\n      0xff\n      mul\n      not\n      and\n      swap1\n      dup4\n      iszero\n      iszero\n      mul\n      or\n      swap1\n      sstore\n      pop\n        /* \"Contracts/moreModifiers.sol\":321:326  count */\n      0x01\n      0x00\n        /* \"Contracts/moreModifiers.sol\":321:328  count++ */\n      dup2\n      sload\n      dup1\n      swap3\n      swap2\n      swap1\n      tag_27\n      swap1\n      tag_28\n      jump\t// in\n    tag_27:\n      swap2\n      swap1\n      pop\n      sstore\n      pop\n        /* \"Contracts/moreModifiers.sol\":250:332  function increment() external WhenNotPaused{\r... */\n      jump\t// out\n        /* \"#utility.yul\":7:140   */\n    tag_30:\n        /* \"#utility.yul\":50:55   */\n      0x00\n        /* \"#utility.yul\":88:94   */\n      dup2\n        /* \"#utility.yul\":75:95   */\n      calldataload\n        /* \"#utility.yul\":66:95   */\n      swap1\n      pop\n        /* \"#utility.yul\":104:134   */\n      tag_32\n        /* \"#utility.yul\":128:133   */\n      dup2\n        /* \"#utility.yul\":104:134   */\n      tag_33\n      jump\t// in\n    tag_32:\n        /* \"#utility.yul\":7:140   */\n      swap3\n      swap2\n      pop\n      pop\n      jump\t// out\n        /* \"#utility.yul\":146:469   */\n    tag_17:\n        /* \"#utility.yul\":202:208   */\n      0x00\n        /* \"#utility.yul\":251:253   */\n      0x20\n        /* \"#utility.yul\":239:248   */\n      dup3\n        /* \"#utility.yul\":230:237   */\n      dup5\n        /* \"#utility.yul\":226:249   */\n      sub\n        /* \"#utility.yul\":222:254   */\n      slt\n        /* \"#utility.yul\":219:338   */\n      iszero\n      tag_35\n      jumpi\n        /* \"#utility.yul\":257:336   */\n      tag_36\n      tag_37\n      jump\t// in\n    tag_36:\n        /* \"#utility.yul\":219:338   */\n    tag_35:\n        /* \"#utility.yul\":377:378   */\n      0x00\n        /* \"#utility.yul\":402:452   */\n      tag_38\n        /* \"#utility.yul\":444:451   */\n      dup5\n        /* \"#utility.yul\":435:441   */\n      dup3\n        /* \"#utility.yul\":424:433   */\n      dup6\n        /* \"#utility.yul\":420:442   */\n      add\n        /* \"#utility.yul\":402:452   */\n      tag_30\n      jump\t// in\n    tag_38:\n        /* \"#utility.yul\":392:452   */\n      swap2\n      pop\n        /* \"#utility.yul\":348:462   */\n      pop\n        /* \"#utility.yul\":146:469   */\n      swap3\n      swap2\n      pop\n      pop\n      jump\t// out\n        /* \"#utility.yul\":475:584   */\n    tag_39:\n        /* \"#utility.yul\":556:577   */\n      tag_41\n        /* \"#utility.yul\":571:576   */\n      dup2\n        /* \"#utility.yul\":556:577   */\n      tag_42\n      jump\t// in\n    tag_41:\n        /* \"#utility.yul\":551:554   */\n      dup3\n        /* \"#utility.yul\":544:578   */\n      mstore\n        /* \"#utility.yul\":475:584   */\n      pop\n      pop\n      jump\t// out\n        /* \"#utility.yul\":590:955   */\n    tag_43:\n        /* \"#utility.yul\":732:735   */\n      0x00\n        /* \"#utility.yul\":753:819   */\n      tag_45\n        /* \"#utility.yul\":817:818   */\n      0x06\n        /* \"#utility.yul\":812:815   */\n      dup4\n        /* \"#utility.yul\":753:819   */\n      tag_46\n      jump\t// in\n    tag_45:\n        /* \"#utility.yul\":746:819   */\n      swap2\n      pop\n        /* \"#utility.yul\":828:921   */\n      tag_47\n        /* \"#utility.yul\":917:920   */\n      dup3\n        /* \"#utility.yul\":828:921   */\n      tag_48\n      jump\t// in\n    tag_47:\n        /* \"#utility.yul\":946:948   */\n      0x20\n        /* \"#utility.yul\":941:944   */\n      dup3\n        /* \"#utility.yul\":937:949   */\n      add\n        /* \"#utility.yul\":930:949   */\n      swap1\n      pop\n        /* \"#utility.yul\":590:955   */\n      swap2\n      swap1\n      pop\n      jump\t// out\n        /* \"#utility.yul\":961:1079   */\n    tag_49:\n        /* \"#utility.yul\":1048:1072   */\n      tag_51\n        /* \"#utility.yul\":1066:1071   */\n      dup2\n        /* \"#utility.yul\":1048:1072   */\n      tag_52\n      jump\t// in\n    tag_51:\n        /* \"#utility.yul\":1043:1046   */\n      dup3\n        /* \"#utility.yul\":1036:1073   */\n      mstore\n        /* \"#utility.yul\":961:1079   */\n      pop\n      pop\n      jump\t// out\n        /* \"#utility.yul\":1085:1295   */\n    tag_14:\n        /* \"#utility.yul\":1172:1176   */\n      0x00\n        /* \"#utility.yul\":1210:1212   */\n      0x20\n        /* \"#utility.yul\":1199:1208   */\n      dup3\n        /* \"#utility.yul\":1195:1213   */\n      add\n        /* \"#utility.yul\":1187:1213   */\n      swap1\n      pop\n        /* \"#utility.yul\":1223:1288   */\n      tag_54\n        /* \"#utility.yul\":1285:1286   */\n      0x00\n        /* \"#utility.yul\":1274:1283   */\n      dup4\n        /* \"#utility.yul\":1270:1287   */\n      add\n        /* \"#utility.yul\":1261:1267   */\n      dup5\n        /* \"#utility.yul\":1223:1288   */\n      tag_39\n      jump\t// in\n    tag_54:\n        /* \"#utility.yul\":1085:1295   */\n      swap3\n      swap2\n      pop\n      pop\n      jump\t// out\n        /* \"#utility.yul\":1301:1720   */\n    tag_25:\n        /* \"#utility.yul\":1467:1471   */\n      0x00\n        /* \"#utility.yul\":1505:1507   */\n      0x20\n        /* \"#utility.yul\":1494:1503   */\n      dup3\n        /* \"#utility.yul\":1490:1508   */\n      add\n        /* \"#utility.yul\":1482:1508   */\n      swap1\n      pop\n        /* \"#utility.yul\":1554:1563   */\n      dup2\n        /* \"#utility.yul\":1548:1552   */\n      dup2\n        /* \"#utility.yul\":1544:1564   */\n      sub\n        /* \"#utility.yul\":1540:1541   */\n      0x00\n        /* \"#utility.yul\":1529:1538   */\n      dup4\n        /* \"#utility.yul\":1525:1542   */\n      add\n        /* \"#utility.yul\":1518:1565   */\n      mstore\n        /* \"#utility.yul\":1582:1713   */\n      tag_56\n        /* \"#utility.yul\":1708:1712   */\n      dup2\n        /* \"#utility.yul\":1582:1713   */\n      tag_43\n      jump\t// in\n    tag_56:\n        /* \"#utility.yul\":1574:1713   */\n      swap1\n      pop\n        /* \"#utility.yul\":1301:1720   */\n      swap2\n      swap1\n      pop\n      jump\t// out\n        /* \"#utility.yul\":1726:1948   */\n    tag_10:\n        /* \"#utility.yul\":1819:1823   */\n      0x00\n        /* \"#utility.yul\":1857:1859   */\n      0x20\n        /* \"#utility.yul\":1846:1855   */\n      dup3\n        /* \"#utility.yul\":1842:1860   */\n      add\n        /* \"#utility.yul\":1834:1860   */\n      swap1\n      pop\n        /* \"#utility.yul\":1870:1941   */\n      tag_58\n        /* \"#utility.yul\":1938:1939   */\n      0x00\n        /* \"#utility.yul\":1927:1936   */\n      dup4\n        /* \"#utility.yul\":1923:1940   */\n      add\n        /* \"#utility.yul\":1914:1920   */\n      dup5\n        /* \"#utility.yul\":1870:1941   */\n      tag_49\n      jump\t// in\n    tag_58:\n        /* \"#utility.yul\":1726:1948   */\n      swap3\n      swap2\n      pop\n      pop\n      jump\t// out\n        /* \"#utility.yul\":2035:2204   */\n    tag_46:\n        /* \"#utility.yul\":2119:2130   */\n      0x00\n        /* \"#utility.yul\":2153:2159   */\n      dup3\n        /* \"#utility.yul\":2148:2151   */\n      dup3\n        /* \"#utility.yul\":2141:2160   */\n      mstore\n        /* \"#utility.yul\":2193:2197   */\n      0x20\n        /* \"#utility.yul\":2188:2191   */\n      dup3\n        /* \"#utility.yul\":2184:2198   */\n      add\n        /* \"#utility.yul\":2169:2198   */\n      swap1\n      pop\n        /* \"#utility.yul\":2035:2204   */\n      swap3\n      swap2\n      pop\n      pop\n      jump\t// out\n        /* \"#utility.yul\":2210:2300   */\n    tag_42:\n        /* \"#utility.yul\":2244:2251   */\n      0x00\n        /* \"#utility.yul\":2287:2292   */\n      dup2\n        /* \"#utility.yul\":2280:2293   */\n      iszero\n        /* \"#utility.yul\":2273:2294   */\n      iszero\n        /* \"#utility.yul\":2262:2294   */\n      swap1\n      pop\n        /* \"#utility.yul\":2210:2300   */\n      swap2\n      swap1\n      pop\n      jump\t// out\n        /* \"#utility.yul\":2306:2383   */\n    tag_52:\n        /* \"#utility.yul\":2343:2350   */\n      0x00\n        /* \"#utility.yul\":2372:2377   */\n      dup2\n        /* \"#utility.yul\":2361:2377   */\n      swap1\n      pop\n        /* \"#utility.yul\":2306:2383   */\n      swap2\n      swap1\n      pop\n      jump\t// out\n        /* \"#utility.yul\":2389:2622   */\n    tag_28:\n        /* \"#utility.yul\":2428:2431   */\n      0x00\n        /* \"#utility.yul\":2451:2475   */\n      tag_65\n        /* \"#utility.yul\":2469:2474   */\n      dup3\n        /* \"#utility.yul\":2451:2475   */\n      tag_52\n      jump\t// in\n    tag_65:\n        /* \"#utility.yul\":2442:2475   */\n      swap2\n      pop\n        /* \"#utility.yul\":2497:2563   */\n      0xffffffffffffffffffffffffffffffffffffffffffffffffffffffffffffffff\n        /* \"#utility.yul\":2490:2495   */\n      dup3\n        /* \"#utility.yul\":2487:2564   */\n      eq\n        /* \"#utility.yul\":2484:2587   */\n      iszero\n      tag_66\n      jumpi\n        /* \"#utility.yul\":2567:2585   */\n      tag_67\n      tag_68\n      jump\t// in\n    tag_67:\n        /* \"#utility.yul\":2484:2587   */\n    tag_66:\n        /* \"#utility.yul\":2614:2615   */\n      0x01\n        /* \"#utility.yul\":2607:2612   */\n      dup3\n        /* \"#utility.yul\":2603:2616   */\n      add\n        /* \"#utility.yul\":2596:2616   */\n      swap1\n      pop\n        /* \"#utility.yul\":2389:2622   */\n      swap2\n      swap1\n      pop\n      jump\t// out\n        /* \"#utility.yul\":2628:2808   */\n    tag_68:\n        /* \"#utility.yul\":2676:2753   */\n      0x4e487b7100000000000000000000000000000000000000000000000000000000\n        /* \"#utility.yul\":2673:2674   */\n      0x00\n        /* \"#utility.yul\":2666:2754   */\n      mstore\n        /* \"#utility.yul\":2773:2777   */\n      0x11\n        /* \"#utility.yul\":2770:2771   */\n      0x04\n        /* \"#utility.yul\":2763:2778   */\n      mstore\n        /* \"#utility.yul\":2797:2801   */\n      0x24\n        /* \"#utility.yul\":2794:2795   */\n      0x00\n        /* \"#utility.yul\":2787:2802   */\n      revert\n        /* \"#utility.yul\":2937:3054   */\n    tag_37:\n        /* \"#utility.yul\":3046:3047   */\n      0x00\n        /* \"#utility.yul\":3043:3044   */\n      dup1\n        /* \"#utility.yul\":3036:3048   */\n      revert\n        /* \"#utility.yul\":3060:3216   */\n    tag_48:\n        /* \"#utility.yul\":3200:3208   */\n      0x7061757365640000000000000000000000000000000000000000000000000000\n        /* \"#utility.yul\":3196:3197   */\n      0x00\n        /* \"#utility.yul\":3188:3194   */\n      dup3\n        /* \"#utility.yul\":3184:3198   */\n      add\n        /* \"#utility.yul\":3177:3209   */\n      mstore\n        /* \"#utility.yul\":3060:3216   */\n      pop\n      jump\t// out\n        /* \"#utility.yul\":3222:3338   */\n    tag_33:\n        /* \"#utility.yul\":3292:3313   */\n      tag_75\n        /* \"#utility.yul\":3307:3312   */\n      dup2\n        /* \"#utility.yul\":3292:3313   */\n      tag_42\n      jump\t// in\n    tag_75:\n        /* \"#utility.yul\":3285:3290   */\n      dup2\n        /* \"#utility.yul\":3282:3314   */\n      eq\n        /* \"#utility.yul\":3272:3332   */\n      tag_76\n      jumpi\n        /* \"#utility.yul\":3328:3329   */\n      0x00\n        /* \"#utility.yul\":3325:3326   */\n      dup1\n        /* \"#utility.yul\":3318:3330   */\n      revert\n        /* \"#utility.yul\":3272:3332   */\n    tag_76:\n        /* \"#utility.yul\":3222:3338   */\n      pop\n      jump\t// out\n\n    auxdata: 0xa264697066735822122056f039cab507ed7942f92a3f6244d4932e395a7e7fa64556e1fbadfb22af152064736f6c63430008070033\n}\n",
				"bytecode": {
					"linkReferences": {},
					"object": "608060405234801561001057600080fd5b5061035b806100206000396000f3fe608060405234801561001057600080fd5b506004361061004c5760003560e01c806306661abd146100515780635c975abb1461006f578063bedb86fb1461008d578063d09de08a146100a9575b600080fd5b6100596100b3565b6040516100669190610226565b60405180910390f35b6100776100b9565b60405161008491906101eb565b60405180910390f35b6100a760048036038101906100a2919061017d565b6100ca565b005b6100b16100e6565b005b60015481565b60008054906101000a900460ff1681565b806000806101000a81548160ff02191690831515021790555050565b60008054906101000a900460ff1615610134576040517f08c379a000000000000000000000000000000000000000000000000000000000815260040161012b90610206565b60405180910390fd5b60008060006101000a81548160ff0219169083151502179055506001600081548092919061016190610268565b9190505550565b6000813590506101778161030e565b92915050565b600060208284031215610193576101926102e0565b5b60006101a184828501610168565b91505092915050565b6101b381610252565b82525050565b60006101c6600683610241565b91506101d1826102e5565b602082019050919050565b6101e58161025e565b82525050565b600060208201905061020060008301846101aa565b92915050565b6000602082019050818103600083015261021f816101b9565b9050919050565b600060208201905061023b60008301846101dc565b92915050565b600082825260208201905092915050565b60008115159050919050565b6000819050919050565b60006102738261025e565b91507fffffffffffffffffffffffffffffffffffffffffffffffffffffffffffffffff8214156102a6576102a56102b1565b5b600182019050919050565b7f4e487b7100000000000000000000000000000000000000000000000000000000600052601160045260246000fd5b600080fd5b7f7061757365640000000000000000000000000000000000000000000000000000600082015250565b61031781610252565b811461032257600080fd5b5056fea264697066735822122056f039cab507ed7942f92a3f6244d4932e395a7e7fa64556e1fbadfb22af152064736f6c63430008070033",
					"opcodes": "PUSH1 0x80 PUSH1 0x40 MSTORE CALLVALUE DUP1 ISZERO PUSH2 0x10 JUMPI PUSH1 0x0 DUP1 REVERT JUMPDEST POP PUSH2 0x35B DUP1 PUSH2 0x20 PUSH1 0x0 CODECOPY PUSH1 0x0 RETURN INVALID PUSH1 0x80 PUSH1 0x40 MSTORE CALLVALUE DUP1 ISZERO PUSH2 0x10 JUMPI PUSH1 0x0 DUP1 REVERT JUMPDEST POP PUSH1 0x4 CALLDATASIZE LT PUSH2 0x4C JUMPI PUSH1 0x0 CALLDATALOAD PUSH1 0xE0 SHR DUP1 PUSH4 0x6661ABD EQ PUSH2 0x51 JUMPI DUP1 PUSH4 0x5C975ABB EQ PUSH2 0x6F JUMPI DUP1 PUSH4 0xBEDB86FB EQ PUSH2 0x8D JUMPI DUP1 PUSH4 0xD09DE08A EQ PUSH2 0xA9 JUMPI JUMPDEST PUSH1 0x0 DUP1 REVERT JUMPDEST PUSH2 0x59 PUSH2 0xB3 JUMP JUMPDEST PUSH1 0x40 MLOAD PUSH2 0x66 SWAP2 SWAP1 PUSH2 0x226 JUMP JUMPDEST PUSH1 0x40 MLOAD DUP1 SWAP2 SUB SWAP1 RETURN JUMPDEST PUSH2 0x77 PUSH2 0xB9 JUMP JUMPDEST PUSH1 0x40 MLOAD PUSH2 0x84 SWAP2 SWAP1 PUSH2 0x1EB JUMP JUMPDEST PUSH1 0x40 MLOAD DUP1 SWAP2 SUB SWAP1 RETURN JUMPDEST PUSH2 0xA7 PUSH1 0x4 DUP1 CALLDATASIZE SUB DUP2 ADD SWAP1 PUSH2 0xA2 SWAP2 SWAP1 PUSH2 0x17D JUMP JUMPDEST PUSH2 0xCA JUMP JUMPDEST STOP JUMPDEST PUSH2 0xB1 PUSH2 0xE6 JUMP JUMPDEST STOP JUMPDEST PUSH1 0x1 SLOAD DUP2 JUMP JUMPDEST PUSH1 0x0 DUP1 SLOAD SWAP1 PUSH2 0x100 EXP SWAP1 DIV PUSH1 0xFF AND DUP2 JUMP JUMPDEST DUP1 PUSH1 0x0 DUP1 PUSH2 0x100 EXP DUP2 SLOAD DUP2 PUSH1 0xFF MUL NOT AND SWAP1 DUP4 ISZERO ISZERO MUL OR SWAP1 SSTORE POP POP JUMP JUMPDEST PUSH1 0x0 DUP1 SLOAD SWAP1 PUSH2 0x100 EXP SWAP1 DIV PUSH1 0xFF AND ISZERO PUSH2 0x134 JUMPI PUSH1 0x40 MLOAD PUSH32 0x8C379A000000000000000000000000000000000000000000000000000000000 DUP2 MSTORE PUSH1 0x4 ADD PUSH2 0x12B SWAP1 PUSH2 0x206 JUMP JUMPDEST PUSH1 0x40 MLOAD DUP1 SWAP2 SUB SWAP1 REVERT JUMPDEST PUSH1 0x0 DUP1 PUSH1 0x0 PUSH2 0x100 EXP DUP2 SLOAD DUP2 PUSH1 0xFF MUL NOT AND SWAP1 DUP4 ISZERO ISZERO MUL OR SWAP1 SSTORE POP PUSH1 0x1 PUSH1 0x0 DUP2 SLOAD DUP1 SWAP3 SWAP2 SWAP1 PUSH2 0x161 SWAP1 PUSH2 0x268 JUMP JUMPDEST SWAP2 SWAP1 POP SSTORE POP JUMP JUMPDEST PUSH1 0x0 DUP2 CALLDATALOAD SWAP1 POP PUSH2 0x177 DUP2 PUSH2 0x30E JUMP JUMPDEST SWAP3 SWAP2 POP POP JUMP JUMPDEST PUSH1 0x0 PUSH1 0x20 DUP3 DUP5 SUB SLT ISZERO PUSH2 0x193 JUMPI PUSH2 0x192 PUSH2 0x2E0 JUMP JUMPDEST JUMPDEST PUSH1 0x0 PUSH2 0x1A1 DUP5 DUP3 DUP6 ADD PUSH2 0x168 JUMP JUMPDEST SWAP2 POP POP SWAP3 SWAP2 POP POP JUMP JUMPDEST PUSH2 0x1B3 DUP2 PUSH2 0x252 JUMP JUMPDEST DUP3 MSTORE POP POP JUMP JUMPDEST PUSH1 0x0 PUSH2 0x1C6 PUSH1 0x6 DUP4 PUSH2 0x241 JUMP JUMPDEST SWAP2 POP PUSH2 0x1D1 DUP3 PUSH2 0x2E5 JUMP JUMPDEST PUSH1 0x20 DUP3 ADD SWAP1 POP SWAP2 SWAP1 POP JUMP JUMPDEST PUSH2 0x1E5 DUP2 PUSH2 0x25E JUMP JUMPDEST DUP3 MSTORE POP POP JUMP JUMPDEST PUSH1 0x0 PUSH1 0x20 DUP3 ADD SWAP1 POP PUSH2 0x200 PUSH1 0x0 DUP4 ADD DUP5 PUSH2 0x1AA JUMP JUMPDEST SWAP3 SWAP2 POP POP JUMP JUMPDEST PUSH1 0x0 PUSH1 0x20 DUP3 ADD SWAP1 POP DUP2 DUP2 SUB PUSH1 0x0 DUP4 ADD MSTORE PUSH2 0x21F DUP2 PUSH2 0x1B9 JUMP JUMPDEST SWAP1 POP SWAP2 SWAP1 POP JUMP JUMPDEST PUSH1 0x0 PUSH1 0x20 DUP3 ADD SWAP1 POP PUSH2 0x23B PUSH1 0x0 DUP4 ADD DUP5 PUSH2 0x1DC JUMP JUMPDEST SWAP3 SWAP2 POP POP JUMP JUMPDEST PUSH1 0x0 DUP3 DUP3 MSTORE PUSH1 0x20 DUP3 ADD SWAP1 POP SWAP3 SWAP2 POP POP JUMP JUMPDEST PUSH1 0x0 DUP2 ISZERO ISZERO SWAP1 POP SWAP2 SWAP1 POP JUMP JUMPDEST PUSH1 0x0 DUP2 SWAP1 POP SWAP2 SWAP1 POP JUMP JUMPDEST PUSH1 0x0 PUSH2 0x273 DUP3 PUSH2 0x25E JUMP JUMPDEST SWAP2 POP PUSH32 0xFFFFFFFFFFFFFFFFFFFFFFFFFFFFFFFFFFFFFFFFFFFFFFFFFFFFFFFFFFFFFFFF DUP3 EQ ISZERO PUSH2 0x2A6 JUMPI PUSH2 0x2A5 PUSH2 0x2B1 JUMP JUMPDEST JUMPDEST PUSH1 0x1 DUP3 ADD SWAP1 POP SWAP2 SWAP1 POP JUMP JUMPDEST PUSH32 0x4E487B7100000000000000000000000000000000000000000000000000000000 PUSH1 0x0 MSTORE PUSH1 0x11 PUSH1 0x4 MSTORE PUSH1 0x24 PUSH1 0x0 REVERT JUMPDEST PUSH1 0x0 DUP1 REVERT JUMPDEST PUSH32 0x7061757365640000000000000000000000000000000000000000000000000000 PUSH1 0x0 DUP3 ADD MSTORE POP JUMP JUMPDEST PUSH2 0x317 DUP2 PUSH2 0x252 JUMP JUMPDEST DUP2 EQ PUSH2 0x322 JUMPI PUSH1 0x0 DUP1 REVERT JUMPDEST POP JUMP INVALID LOG2 PUSH5 0x6970667358 0x22 SLT KECCAK256 JUMP CREATE CODECOPY 0xCA 0xB5 SMOD 0xED PUSH26 0x42F92A3F6244D4932E395A7E7FA64556E1FBADFB22AF15206473 PUSH16 0x6C634300080700330000000000000000 "
				},
				"gasEstimates": {
					"creation": {
						"codeDepositCost": "171800",
						"executionCost": "214",
						"totalCost": "172014"
					},
					"external": {
						"count()": "2407",
						"increment()": "50968",
						"paused()": "2468",
						"setPause(bool)": "24701"
					}
				},
				"methodIdentifiers": {
					"count()": "06661abd",
					"increment()": "d09de08a",
					"paused()": "5c975abb",
					"setPause(bool)": "bedb86fb"
				}
			},
			"storageLayout": {
				"storage": [
					{
						"astId": 3,
						"contract": "Contracts/moreModifiers.sol:moreModifiers",
						"label": "paused",
						"offset": 0,
						"slot": "0",
						"type": "t_bool"
					},
					{
						"astId": 5,
						"contract": "Contracts/moreModifiers.sol:moreModifiers",
						"label": "count",
						"offset": 0,
						"slot": "1",
						"type": "t_uint256"
					}
				],
				"types": {
					"t_bool": {
						"encoding": "inplace",
						"label": "bool",
						"numberOfBytes": "1"
					},
					"t_uint256": {
						"encoding": "inplace",
						"label": "uint256",
						"numberOfBytes": "32"
					}
				}
			},
			"userdoc": {
				"kind": "user",
				"methods": {},
				"version": 1
			}
		}
	}
}