{
	"Contracts/usingMappings.sol": {
		"usingMappings": {
			"abi": [
				{
					"inputs": [
						{
							"internalType": "string",
							"name": "_firstName",
							"type": "string"
						},
						{
							"internalType": "string",
							"name": "_lastName",
							"type": "string"
						}
					],
					"name": "addPersons",
					"outputs": [],
					"stateMutability": "nonpayable",
					"type": "function"
				},
				{
					"inputs": [],
					"name": "peopleCount",
					"outputs": [
						{
							"internalType": "uint256",
							"name": "",
							"type": "uint256"
						}
					],
					"stateMutability": "view",
					"type": "function"
				},
				{
					"inputs": [
						{
							"internalType": "uint256",
							"name": "",
							"type": "uint256"
						}
					],
					"name": "person",
					"outputs": [
						{
							"internalType": "uint256",
							"name": "_id",
							"type": "uint256"
						},
						{
							"internalType": "string",
							"name": "_firstName",
							"type": "string"
						},
						{
							"internalType": "string",
							"name": "_lastName",
							"type": "string"
						}
					],
					"stateMutability": "view",
					"type": "function"
				}
			],
			"devdoc": {
				"kind": "dev",
				"methods": {},
				"version": 1
			},
			"evm": {
				"assembly": "    /* \"Contracts/usingMappings.sol\":35:436  contract usingMappings{\r... */\n  mstore(0x40, 0x80)\n  callvalue\n  dup1\n  iszero\n  tag_1\n  jumpi\n  0x00\n  dup1\n  revert\ntag_1:\n  pop\n  dataSize(sub_0)\n  dup1\n  dataOffset(sub_0)\n  0x00\n  codecopy\n  0x00\n  return\nstop\n\nsub_0: assembly {\n        /* \"Contracts/usingMappings.sol\":35:436  contract usingMappings{\r... */\n      mstore(0x40, 0x80)\n      callvalue\n      dup1\n      iszero\n      tag_1\n      jumpi\n      0x00\n      dup1\n      revert\n    tag_1:\n      pop\n      jumpi(tag_2, lt(calldatasize, 0x04))\n      shr(0xe0, calldataload(0x00))\n      dup1\n      0x092a1820\n      eq\n      tag_3\n      jumpi\n      dup1\n      0x267c68e0\n      eq\n      tag_4\n      jumpi\n      dup1\n      0xc7854823\n      eq\n      tag_5\n      jumpi\n    tag_2:\n      0x00\n      dup1\n      revert\n        /* \"Contracts/usingMappings.sol\":99:136  mapping(uint => People) public person */\n    tag_3:\n      tag_6\n      0x04\n      dup1\n      calldatasize\n      sub\n      dup2\n      add\n      swap1\n      tag_7\n      swap2\n      swap1\n      tag_8\n      jump\t// in\n    tag_7:\n      tag_9\n      jump\t// in\n    tag_6:\n      mload(0x40)\n      tag_10\n      swap4\n      swap3\n      swap2\n      swap1\n      tag_11\n      jump\t// in\n    tag_10:\n      mload(0x40)\n      dup1\n      swap2\n      sub\n      swap1\n      return\n        /* \"Contracts/usingMappings.sol\":64:90  uint256 public peopleCount */\n    tag_4:\n      tag_12\n      tag_13\n      jump\t// in\n    tag_12:\n      mload(0x40)\n      tag_14\n      swap2\n      swap1\n      tag_15\n      jump\t// in\n    tag_14:\n      mload(0x40)\n      dup1\n      swap2\n      sub\n      swap1\n      return\n        /* \"Contracts/usingMappings.sol\":245:433  function addPersons(string memory _firstName, string memory _lastName) public {\r... */\n    tag_5:\n      tag_16\n      0x04\n      dup1\n      calldatasize\n      sub\n      dup2\n      add\n      swap1\n      tag_17\n      swap2\n      swap1\n      tag_18\n      jump\t// in\n    tag_17:\n      tag_19\n      jump\t// in\n    tag_16:\n      stop\n        /* \"Contracts/usingMappings.sol\":99:136  mapping(uint => People) public person */\n    tag_9:\n      mstore(0x20, 0x01)\n      dup1\n      0x00\n      mstore\n      keccak256(0x00, 0x40)\n      0x00\n      swap2\n      pop\n      swap1\n      pop\n      dup1\n      0x00\n      add\n      sload\n      swap1\n      dup1\n      0x01\n      add\n      dup1\n      sload\n      tag_20\n      swap1\n      tag_21\n      jump\t// in\n    tag_20:\n      dup1\n      0x1f\n      add\n      0x20\n      dup1\n      swap2\n      div\n      mul\n      0x20\n      add\n      mload(0x40)\n      swap1\n      dup2\n      add\n      0x40\n      mstore\n      dup1\n      swap3\n      swap2\n      swap1\n      dup2\n      dup2\n      mstore\n      0x20\n      add\n      dup3\n      dup1\n      sload\n      tag_22\n      swap1\n      tag_21\n      jump\t// in\n    tag_22:\n      dup1\n      iszero\n      tag_23\n      jumpi\n      dup1\n      0x1f\n      lt\n      tag_24\n      jumpi\n      0x0100\n      dup1\n      dup4\n      sload\n      div\n      mul\n      dup4\n      mstore\n      swap2\n      0x20\n      add\n      swap2\n      jump(tag_23)\n    tag_24:\n      dup3\n      add\n      swap2\n      swap1\n      0x00\n      mstore\n      keccak256(0x00, 0x20)\n      swap1\n    tag_25:\n      dup2\n      sload\n      dup2\n      mstore\n      swap1\n      0x01\n      add\n      swap1\n      0x20\n      add\n      dup1\n      dup4\n      gt\n      tag_25\n      jumpi\n      dup3\n      swap1\n      sub\n      0x1f\n      and\n      dup3\n      add\n      swap2\n    tag_23:\n      pop\n      pop\n      pop\n      pop\n      pop\n      swap1\n      dup1\n      0x02\n      add\n      dup1\n      sload\n      tag_26\n      swap1\n      tag_21\n      jump\t// in\n    tag_26:\n      dup1\n      0x1f\n      add\n      0x20\n      dup1\n      swap2\n      div\n      mul\n      0x20\n      add\n      mload(0x40)\n      swap1\n      dup2\n      add\n      0x40\n      mstore\n      dup1\n      swap3\n      swap2\n      swap1\n      dup2\n      dup2\n      mstore\n      0x20\n      add\n      dup3\n      dup1\n      sload\n      tag_27\n      swap1\n      tag_21\n      jump\t// in\n    tag_27:\n      dup1\n      iszero\n      tag_28\n      jumpi\n      dup1\n      0x1f\n      lt\n      tag_29\n      jumpi\n      0x0100\n      dup1\n      dup4\n      sload\n      div\n      mul\n      dup4\n      mstore\n      swap2\n      0x20\n      add\n      swap2\n      jump(tag_28)\n    tag_29:\n      dup3\n      add\n      swap2\n      swap1\n      0x00\n      mstore\n      keccak256(0x00, 0x20)\n      swap1\n    tag_30:\n      dup2\n      sload\n      dup2\n      mstore\n      swap1\n      0x01\n      add\n      swap1\n      0x20\n      add\n      dup1\n      dup4\n      gt\n      tag_30\n      jumpi\n      dup3\n      swap1\n      sub\n      0x1f\n      and\n      dup3\n      add\n      swap2\n    tag_28:\n      pop\n      pop\n      pop\n      pop\n      pop\n      swap1\n      pop\n      dup4\n      jump\t// out\n        /* \"Contracts/usingMappings.sol\":64:90  uint256 public peopleCount */\n    tag_13:\n      sload(0x00)\n      dup2\n      jump\t// out\n        /* \"Contracts/usingMappings.sol\":245:433  function addPersons(string memory _firstName, string memory _lastName) public {\r... */\n    tag_19:\n        /* \"Contracts/usingMappings.sol\":349:350  1 */\n      0x01\n        /* \"Contracts/usingMappings.sol\":334:345  peopleCount */\n      0x00\n      dup1\n        /* \"Contracts/usingMappings.sol\":334:350  peopleCount += 1 */\n      dup3\n      dup3\n      sload\n      tag_32\n      swap2\n      swap1\n      tag_33\n      jump\t// in\n    tag_32:\n      swap3\n      pop\n      pop\n      dup2\n      swap1\n      sstore\n      pop\n        /* \"Contracts/usingMappings.sol\":383:425  People(peopleCount, _firstName, _lastName) */\n      mload(0x40)\n      dup1\n      0x60\n      add\n      0x40\n      mstore\n      dup1\n        /* \"Contracts/usingMappings.sol\":390:401  peopleCount */\n      sload(0x00)\n        /* \"Contracts/usingMappings.sol\":383:425  People(peopleCount, _firstName, _lastName) */\n      dup2\n      mstore\n      0x20\n      add\n        /* \"Contracts/usingMappings.sol\":403:413  _firstName */\n      dup4\n        /* \"Contracts/usingMappings.sol\":383:425  People(peopleCount, _firstName, _lastName) */\n      dup2\n      mstore\n      0x20\n      add\n        /* \"Contracts/usingMappings.sol\":415:424  _lastName */\n      dup3\n        /* \"Contracts/usingMappings.sol\":383:425  People(peopleCount, _firstName, _lastName) */\n      dup2\n      mstore\n      pop\n        /* \"Contracts/usingMappings.sol\":361:367  person */\n      0x01\n        /* \"Contracts/usingMappings.sol\":361:380  person[peopleCount] */\n      0x00\n        /* \"Contracts/usingMappings.sol\":368:379  peopleCount */\n      dup1\n      sload\n        /* \"Contracts/usingMappings.sol\":361:380  person[peopleCount] */\n      dup2\n      mstore\n      0x20\n      add\n      swap1\n      dup2\n      mstore\n      0x20\n      add\n      0x00\n      keccak256\n        /* \"Contracts/usingMappings.sol\":361:425  person[peopleCount] = People(peopleCount, _firstName, _lastName) */\n      0x00\n      dup3\n      add\n      mload\n      dup2\n      0x00\n      add\n      sstore\n      0x20\n      dup3\n      add\n      mload\n      dup2\n      0x01\n      add\n      swap1\n      dup1\n      mload\n      swap1\n      0x20\n      add\n      swap1\n      tag_34\n      swap3\n      swap2\n      swap1\n      tag_35\n      jump\t// in\n    tag_34:\n      pop\n      0x40\n      dup3\n      add\n      mload\n      dup2\n      0x02\n      add\n      swap1\n      dup1\n      mload\n      swap1\n      0x20\n      add\n      swap1\n      tag_36\n      swap3\n      swap2\n      swap1\n      tag_35\n      jump\t// in\n    tag_36:\n      pop\n      swap1\n      pop\n      pop\n        /* \"Contracts/usingMappings.sol\":245:433  function addPersons(string memory _firstName, string memory _lastName) public {\r... */\n      pop\n      pop\n      jump\t// out\n    tag_35:\n      dup3\n      dup1\n      sload\n      tag_37\n      swap1\n      tag_21\n      jump\t// in\n    tag_37:\n      swap1\n      0x00\n      mstore\n      keccak256(0x00, 0x20)\n      swap1\n      0x1f\n      add\n      0x20\n      swap1\n      div\n      dup2\n      add\n      swap3\n      dup3\n      tag_39\n      jumpi\n      0x00\n      dup6\n      sstore\n      jump(tag_38)\n    tag_39:\n      dup3\n      0x1f\n      lt\n      tag_40\n      jumpi\n      dup1\n      mload\n      not(0xff)\n      and\n      dup4\n      dup1\n      add\n      or\n      dup6\n      sstore\n      jump(tag_38)\n    tag_40:\n      dup3\n      dup1\n      add\n      0x01\n      add\n      dup6\n      sstore\n      dup3\n      iszero\n      tag_38\n      jumpi\n      swap2\n      dup3\n      add\n    tag_41:\n      dup3\n      dup2\n      gt\n      iszero\n      tag_42\n      jumpi\n      dup3\n      mload\n      dup3\n      sstore\n      swap2\n      0x20\n      add\n      swap2\n      swap1\n      0x01\n      add\n      swap1\n      jump(tag_41)\n    tag_42:\n    tag_38:\n      pop\n      swap1\n      pop\n      tag_43\n      swap2\n      swap1\n      tag_44\n      jump\t// in\n    tag_43:\n      pop\n      swap1\n      jump\t// out\n    tag_44:\n    tag_45:\n      dup1\n      dup3\n      gt\n      iszero\n      tag_46\n      jumpi\n      0x00\n      dup2\n      0x00\n      swap1\n      sstore\n      pop\n      0x01\n      add\n      jump(tag_45)\n    tag_46:\n      pop\n      swap1\n      jump\t// out\n        /* \"#utility.yul\":7:419   */\n    tag_48:\n        /* \"#utility.yul\":85:90   */\n      0x00\n        /* \"#utility.yul\":110:176   */\n      tag_50\n        /* \"#utility.yul\":126:175   */\n      tag_51\n        /* \"#utility.yul\":168:174   */\n      dup5\n        /* \"#utility.yul\":126:175   */\n      tag_52\n      jump\t// in\n    tag_51:\n        /* \"#utility.yul\":110:176   */\n      tag_53\n      jump\t// in\n    tag_50:\n        /* \"#utility.yul\":101:176   */\n      swap1\n      pop\n        /* \"#utility.yul\":199:205   */\n      dup3\n        /* \"#utility.yul\":192:197   */\n      dup2\n        /* \"#utility.yul\":185:206   */\n      mstore\n        /* \"#utility.yul\":237:241   */\n      0x20\n        /* \"#utility.yul\":230:235   */\n      dup2\n        /* \"#utility.yul\":226:242   */\n      add\n        /* \"#utility.yul\":275:278   */\n      dup5\n        /* \"#utility.yul\":266:272   */\n      dup5\n        /* \"#utility.yul\":261:264   */\n      dup5\n        /* \"#utility.yul\":257:273   */\n      add\n        /* \"#utility.yul\":254:279   */\n      gt\n        /* \"#utility.yul\":251:363   */\n      iszero\n      tag_54\n      jumpi\n        /* \"#utility.yul\":282:361   */\n      tag_55\n      tag_56\n      jump\t// in\n    tag_55:\n        /* \"#utility.yul\":251:363   */\n    tag_54:\n        /* \"#utility.yul\":372:413   */\n      tag_57\n        /* \"#utility.yul\":406:412   */\n      dup5\n        /* \"#utility.yul\":401:404   */\n      dup3\n        /* \"#utility.yul\":396:399   */\n      dup6\n        /* \"#utility.yul\":372:413   */\n      tag_58\n      jump\t// in\n    tag_57:\n        /* \"#utility.yul\":91:419   */\n      pop\n        /* \"#utility.yul\":7:419   */\n      swap4\n      swap3\n      pop\n      pop\n      pop\n      jump\t// out\n        /* \"#utility.yul\":439:779   */\n    tag_59:\n        /* \"#utility.yul\":495:500   */\n      0x00\n        /* \"#utility.yul\":544:547   */\n      dup3\n        /* \"#utility.yul\":537:541   */\n      0x1f\n        /* \"#utility.yul\":529:535   */\n      dup4\n        /* \"#utility.yul\":525:542   */\n      add\n        /* \"#utility.yul\":521:548   */\n      slt\n        /* \"#utility.yul\":511:633   */\n      tag_61\n      jumpi\n        /* \"#utility.yul\":552:631   */\n      tag_62\n      tag_63\n      jump\t// in\n    tag_62:\n        /* \"#utility.yul\":511:633   */\n    tag_61:\n        /* \"#utility.yul\":669:675   */\n      dup2\n        /* \"#utility.yul\":656:676   */\n      calldataload\n        /* \"#utility.yul\":694:773   */\n      tag_64\n        /* \"#utility.yul\":769:772   */\n      dup5\n        /* \"#utility.yul\":761:767   */\n      dup3\n        /* \"#utility.yul\":754:758   */\n      0x20\n        /* \"#utility.yul\":746:752   */\n      dup7\n        /* \"#utility.yul\":742:759   */\n      add\n        /* \"#utility.yul\":694:773   */\n      tag_48\n      jump\t// in\n    tag_64:\n        /* \"#utility.yul\":685:773   */\n      swap2\n      pop\n        /* \"#utility.yul\":501:779   */\n      pop\n        /* \"#utility.yul\":439:779   */\n      swap3\n      swap2\n      pop\n      pop\n      jump\t// out\n        /* \"#utility.yul\":785:924   */\n    tag_65:\n        /* \"#utility.yul\":831:836   */\n      0x00\n        /* \"#utility.yul\":869:875   */\n      dup2\n        /* \"#utility.yul\":856:876   */\n      calldataload\n        /* \"#utility.yul\":847:876   */\n      swap1\n      pop\n        /* \"#utility.yul\":885:918   */\n      tag_67\n        /* \"#utility.yul\":912:917   */\n      dup2\n        /* \"#utility.yul\":885:918   */\n      tag_68\n      jump\t// in\n    tag_67:\n        /* \"#utility.yul\":785:924   */\n      swap3\n      swap2\n      pop\n      pop\n      jump\t// out\n        /* \"#utility.yul\":930:1764   */\n    tag_18:\n        /* \"#utility.yul\":1018:1024   */\n      0x00\n        /* \"#utility.yul\":1026:1032   */\n      dup1\n        /* \"#utility.yul\":1075:1077   */\n      0x40\n        /* \"#utility.yul\":1063:1072   */\n      dup4\n        /* \"#utility.yul\":1054:1061   */\n      dup6\n        /* \"#utility.yul\":1050:1073   */\n      sub\n        /* \"#utility.yul\":1046:1078   */\n      slt\n        /* \"#utility.yul\":1043:1162   */\n      iszero\n      tag_70\n      jumpi\n        /* \"#utility.yul\":1081:1160   */\n      tag_71\n      tag_72\n      jump\t// in\n    tag_71:\n        /* \"#utility.yul\":1043:1162   */\n    tag_70:\n        /* \"#utility.yul\":1229:1230   */\n      0x00\n        /* \"#utility.yul\":1218:1227   */\n      dup4\n        /* \"#utility.yul\":1214:1231   */\n      add\n        /* \"#utility.yul\":1201:1232   */\n      calldataload\n        /* \"#utility.yul\":1259:1277   */\n      0xffffffffffffffff\n        /* \"#utility.yul\":1251:1257   */\n      dup2\n        /* \"#utility.yul\":1248:1278   */\n      gt\n        /* \"#utility.yul\":1245:1362   */\n      iszero\n      tag_73\n      jumpi\n        /* \"#utility.yul\":1281:1360   */\n      tag_74\n      tag_75\n      jump\t// in\n    tag_74:\n        /* \"#utility.yul\":1245:1362   */\n    tag_73:\n        /* \"#utility.yul\":1386:1449   */\n      tag_76\n        /* \"#utility.yul\":1441:1448   */\n      dup6\n        /* \"#utility.yul\":1432:1438   */\n      dup3\n        /* \"#utility.yul\":1421:1430   */\n      dup7\n        /* \"#utility.yul\":1417:1439   */\n      add\n        /* \"#utility.yul\":1386:1449   */\n      tag_59\n      jump\t// in\n    tag_76:\n        /* \"#utility.yul\":1376:1449   */\n      swap3\n      pop\n        /* \"#utility.yul\":1172:1459   */\n      pop\n        /* \"#utility.yul\":1526:1528   */\n      0x20\n        /* \"#utility.yul\":1515:1524   */\n      dup4\n        /* \"#utility.yul\":1511:1529   */\n      add\n        /* \"#utility.yul\":1498:1530   */\n      calldataload\n        /* \"#utility.yul\":1557:1575   */\n      0xffffffffffffffff\n        /* \"#utility.yul\":1549:1555   */\n      dup2\n        /* \"#utility.yul\":1546:1576   */\n      gt\n        /* \"#utility.yul\":1543:1660   */\n      iszero\n      tag_77\n      jumpi\n        /* \"#utility.yul\":1579:1658   */\n      tag_78\n      tag_75\n      jump\t// in\n    tag_78:\n        /* \"#utility.yul\":1543:1660   */\n    tag_77:\n        /* \"#utility.yul\":1684:1747   */\n      tag_79\n        /* \"#utility.yul\":1739:1746   */\n      dup6\n        /* \"#utility.yul\":1730:1736   */\n      dup3\n        /* \"#utility.yul\":1719:1728   */\n      dup7\n        /* \"#utility.yul\":1715:1737   */\n      add\n        /* \"#utility.yul\":1684:1747   */\n      tag_59\n      jump\t// in\n    tag_79:\n        /* \"#utility.yul\":1674:1747   */\n      swap2\n      pop\n        /* \"#utility.yul\":1469:1757   */\n      pop\n        /* \"#utility.yul\":930:1764   */\n      swap3\n      pop\n      swap3\n      swap1\n      pop\n      jump\t// out\n        /* \"#utility.yul\":1770:2099   */\n    tag_8:\n        /* \"#utility.yul\":1829:1835   */\n      0x00\n        /* \"#utility.yul\":1878:1880   */\n      0x20\n        /* \"#utility.yul\":1866:1875   */\n      dup3\n        /* \"#utility.yul\":1857:1864   */\n      dup5\n        /* \"#utility.yul\":1853:1876   */\n      sub\n        /* \"#utility.yul\":1849:1881   */\n      slt\n        /* \"#utility.yul\":1846:1965   */\n      iszero\n      tag_81\n      jumpi\n        /* \"#utility.yul\":1884:1963   */\n      tag_82\n      tag_72\n      jump\t// in\n    tag_82:\n        /* \"#utility.yul\":1846:1965   */\n    tag_81:\n        /* \"#utility.yul\":2004:2005   */\n      0x00\n        /* \"#utility.yul\":2029:2082   */\n      tag_83\n        /* \"#utility.yul\":2074:2081   */\n      dup5\n        /* \"#utility.yul\":2065:2071   */\n      dup3\n        /* \"#utility.yul\":2054:2063   */\n      dup6\n        /* \"#utility.yul\":2050:2072   */\n      add\n        /* \"#utility.yul\":2029:2082   */\n      tag_65\n      jump\t// in\n    tag_83:\n        /* \"#utility.yul\":2019:2082   */\n      swap2\n      pop\n        /* \"#utility.yul\":1975:2092   */\n      pop\n        /* \"#utility.yul\":1770:2099   */\n      swap3\n      swap2\n      pop\n      pop\n      jump\t// out\n        /* \"#utility.yul\":2105:2469   */\n    tag_84:\n        /* \"#utility.yul\":2193:2196   */\n      0x00\n        /* \"#utility.yul\":2221:2260   */\n      tag_86\n        /* \"#utility.yul\":2254:2259   */\n      dup3\n        /* \"#utility.yul\":2221:2260   */\n      tag_87\n      jump\t// in\n    tag_86:\n        /* \"#utility.yul\":2276:2347   */\n      tag_88\n        /* \"#utility.yul\":2340:2346   */\n      dup2\n        /* \"#utility.yul\":2335:2338   */\n      dup6\n        /* \"#utility.yul\":2276:2347   */\n      tag_89\n      jump\t// in\n    tag_88:\n        /* \"#utility.yul\":2269:2347   */\n      swap4\n      pop\n        /* \"#utility.yul\":2356:2408   */\n      tag_90\n        /* \"#utility.yul\":2401:2407   */\n      dup2\n        /* \"#utility.yul\":2396:2399   */\n      dup6\n        /* \"#utility.yul\":2389:2393   */\n      0x20\n        /* \"#utility.yul\":2382:2387   */\n      dup7\n        /* \"#utility.yul\":2378:2394   */\n      add\n        /* \"#utility.yul\":2356:2408   */\n      tag_91\n      jump\t// in\n    tag_90:\n        /* \"#utility.yul\":2433:2462   */\n      tag_92\n        /* \"#utility.yul\":2455:2461   */\n      dup2\n        /* \"#utility.yul\":2433:2462   */\n      tag_93\n      jump\t// in\n    tag_92:\n        /* \"#utility.yul\":2428:2431   */\n      dup5\n        /* \"#utility.yul\":2424:2463   */\n      add\n        /* \"#utility.yul\":2417:2463   */\n      swap2\n      pop\n        /* \"#utility.yul\":2197:2469   */\n      pop\n        /* \"#utility.yul\":2105:2469   */\n      swap3\n      swap2\n      pop\n      pop\n      jump\t// out\n        /* \"#utility.yul\":2475:2593   */\n    tag_94:\n        /* \"#utility.yul\":2562:2586   */\n      tag_96\n        /* \"#utility.yul\":2580:2585   */\n      dup2\n        /* \"#utility.yul\":2562:2586   */\n      tag_97\n      jump\t// in\n    tag_96:\n        /* \"#utility.yul\":2557:2560   */\n      dup3\n        /* \"#utility.yul\":2550:2587   */\n      mstore\n        /* \"#utility.yul\":2475:2593   */\n      pop\n      pop\n      jump\t// out\n        /* \"#utility.yul\":2599:2821   */\n    tag_15:\n        /* \"#utility.yul\":2692:2696   */\n      0x00\n        /* \"#utility.yul\":2730:2732   */\n      0x20\n        /* \"#utility.yul\":2719:2728   */\n      dup3\n        /* \"#utility.yul\":2715:2733   */\n      add\n        /* \"#utility.yul\":2707:2733   */\n      swap1\n      pop\n        /* \"#utility.yul\":2743:2814   */\n      tag_99\n        /* \"#utility.yul\":2811:2812   */\n      0x00\n        /* \"#utility.yul\":2800:2809   */\n      dup4\n        /* \"#utility.yul\":2796:2813   */\n      add\n        /* \"#utility.yul\":2787:2793   */\n      dup5\n        /* \"#utility.yul\":2743:2814   */\n      tag_94\n      jump\t// in\n    tag_99:\n        /* \"#utility.yul\":2599:2821   */\n      swap3\n      swap2\n      pop\n      pop\n      jump\t// out\n        /* \"#utility.yul\":2827:3451   */\n    tag_11:\n        /* \"#utility.yul\":3016:3020   */\n      0x00\n        /* \"#utility.yul\":3054:3056   */\n      0x60\n        /* \"#utility.yul\":3043:3052   */\n      dup3\n        /* \"#utility.yul\":3039:3057   */\n      add\n        /* \"#utility.yul\":3031:3057   */\n      swap1\n      pop\n        /* \"#utility.yul\":3067:3138   */\n      tag_101\n        /* \"#utility.yul\":3135:3136   */\n      0x00\n        /* \"#utility.yul\":3124:3133   */\n      dup4\n        /* \"#utility.yul\":3120:3137   */\n      add\n        /* \"#utility.yul\":3111:3117   */\n      dup7\n        /* \"#utility.yul\":3067:3138   */\n      tag_94\n      jump\t// in\n    tag_101:\n        /* \"#utility.yul\":3185:3194   */\n      dup2\n        /* \"#utility.yul\":3179:3183   */\n      dup2\n        /* \"#utility.yul\":3175:3195   */\n      sub\n        /* \"#utility.yul\":3170:3172   */\n      0x20\n        /* \"#utility.yul\":3159:3168   */\n      dup4\n        /* \"#utility.yul\":3155:3173   */\n      add\n        /* \"#utility.yul\":3148:3196   */\n      mstore\n        /* \"#utility.yul\":3213:3291   */\n      tag_102\n        /* \"#utility.yul\":3286:3290   */\n      dup2\n        /* \"#utility.yul\":3277:3283   */\n      dup6\n        /* \"#utility.yul\":3213:3291   */\n      tag_84\n      jump\t// in\n    tag_102:\n        /* \"#utility.yul\":3205:3291   */\n      swap1\n      pop\n        /* \"#utility.yul\":3338:3347   */\n      dup2\n        /* \"#utility.yul\":3332:3336   */\n      dup2\n        /* \"#utility.yul\":3328:3348   */\n      sub\n        /* \"#utility.yul\":3323:3325   */\n      0x40\n        /* \"#utility.yul\":3312:3321   */\n      dup4\n        /* \"#utility.yul\":3308:3326   */\n      add\n        /* \"#utility.yul\":3301:3349   */\n      mstore\n        /* \"#utility.yul\":3366:3444   */\n      tag_103\n        /* \"#utility.yul\":3439:3443   */\n      dup2\n        /* \"#utility.yul\":3430:3436   */\n      dup5\n        /* \"#utility.yul\":3366:3444   */\n      tag_84\n      jump\t// in\n    tag_103:\n        /* \"#utility.yul\":3358:3444   */\n      swap1\n      pop\n        /* \"#utility.yul\":2827:3451   */\n      swap5\n      swap4\n      pop\n      pop\n      pop\n      pop\n      jump\t// out\n        /* \"#utility.yul\":3457:3586   */\n    tag_53:\n        /* \"#utility.yul\":3491:3497   */\n      0x00\n        /* \"#utility.yul\":3518:3538   */\n      tag_105\n      tag_106\n      jump\t// in\n    tag_105:\n        /* \"#utility.yul\":3508:3538   */\n      swap1\n      pop\n        /* \"#utility.yul\":3547:3580   */\n      tag_107\n        /* \"#utility.yul\":3575:3579   */\n      dup3\n        /* \"#utility.yul\":3567:3573   */\n      dup3\n        /* \"#utility.yul\":3547:3580   */\n      tag_108\n      jump\t// in\n    tag_107:\n        /* \"#utility.yul\":3457:3586   */\n      swap2\n      swap1\n      pop\n      jump\t// out\n        /* \"#utility.yul\":3592:3667   */\n    tag_106:\n        /* \"#utility.yul\":3625:3631   */\n      0x00\n        /* \"#utility.yul\":3658:3660   */\n      0x40\n        /* \"#utility.yul\":3652:3661   */\n      mload\n        /* \"#utility.yul\":3642:3661   */\n      swap1\n      pop\n        /* \"#utility.yul\":3592:3667   */\n      swap1\n      jump\t// out\n        /* \"#utility.yul\":3673:3981   */\n    tag_52:\n        /* \"#utility.yul\":3735:3739   */\n      0x00\n        /* \"#utility.yul\":3825:3843   */\n      0xffffffffffffffff\n        /* \"#utility.yul\":3817:3823   */\n      dup3\n        /* \"#utility.yul\":3814:3844   */\n      gt\n        /* \"#utility.yul\":3811:3867   */\n      iszero\n      tag_111\n      jumpi\n        /* \"#utility.yul\":3847:3865   */\n      tag_112\n      tag_113\n      jump\t// in\n    tag_112:\n        /* \"#utility.yul\":3811:3867   */\n    tag_111:\n        /* \"#utility.yul\":3885:3914   */\n      tag_114\n        /* \"#utility.yul\":3907:3913   */\n      dup3\n        /* \"#utility.yul\":3885:3914   */\n      tag_93\n      jump\t// in\n    tag_114:\n        /* \"#utility.yul\":3877:3914   */\n      swap1\n      pop\n        /* \"#utility.yul\":3969:3973   */\n      0x20\n        /* \"#utility.yul\":3963:3967   */\n      dup2\n        /* \"#utility.yul\":3959:3974   */\n      add\n        /* \"#utility.yul\":3951:3974   */\n      swap1\n      pop\n        /* \"#utility.yul\":3673:3981   */\n      swap2\n      swap1\n      pop\n      jump\t// out\n        /* \"#utility.yul\":3987:4086   */\n    tag_87:\n        /* \"#utility.yul\":4039:4045   */\n      0x00\n        /* \"#utility.yul\":4073:4078   */\n      dup2\n        /* \"#utility.yul\":4067:4079   */\n      mload\n        /* \"#utility.yul\":4057:4079   */\n      swap1\n      pop\n        /* \"#utility.yul\":3987:4086   */\n      swap2\n      swap1\n      pop\n      jump\t// out\n        /* \"#utility.yul\":4092:4261   */\n    tag_89:\n        /* \"#utility.yul\":4176:4187   */\n      0x00\n        /* \"#utility.yul\":4210:4216   */\n      dup3\n        /* \"#utility.yul\":4205:4208   */\n      dup3\n        /* \"#utility.yul\":4198:4217   */\n      mstore\n        /* \"#utility.yul\":4250:4254   */\n      0x20\n        /* \"#utility.yul\":4245:4248   */\n      dup3\n        /* \"#utility.yul\":4241:4255   */\n      add\n        /* \"#utility.yul\":4226:4255   */\n      swap1\n      pop\n        /* \"#utility.yul\":4092:4261   */\n      swap3\n      swap2\n      pop\n      pop\n      jump\t// out\n        /* \"#utility.yul\":4267:4572   */\n    tag_33:\n        /* \"#utility.yul\":4307:4310   */\n      0x00\n        /* \"#utility.yul\":4326:4346   */\n      tag_118\n        /* \"#utility.yul\":4344:4345   */\n      dup3\n        /* \"#utility.yul\":4326:4346   */\n      tag_97\n      jump\t// in\n    tag_118:\n        /* \"#utility.yul\":4321:4346   */\n      swap2\n      pop\n        /* \"#utility.yul\":4360:4380   */\n      tag_119\n        /* \"#utility.yul\":4378:4379   */\n      dup4\n        /* \"#utility.yul\":4360:4380   */\n      tag_97\n      jump\t// in\n    tag_119:\n        /* \"#utility.yul\":4355:4380   */\n      swap3\n      pop\n        /* \"#utility.yul\":4514:4515   */\n      dup3\n        /* \"#utility.yul\":4446:4512   */\n      0xffffffffffffffffffffffffffffffffffffffffffffffffffffffffffffffff\n        /* \"#utility.yul\":4442:4516   */\n      sub\n        /* \"#utility.yul\":4439:4440   */\n      dup3\n        /* \"#utility.yul\":4436:4517   */\n      gt\n        /* \"#utility.yul\":4433:4540   */\n      iszero\n      tag_120\n      jumpi\n        /* \"#utility.yul\":4520:4538   */\n      tag_121\n      tag_122\n      jump\t// in\n    tag_121:\n        /* \"#utility.yul\":4433:4540   */\n    tag_120:\n        /* \"#utility.yul\":4564:4565   */\n      dup3\n        /* \"#utility.yul\":4561:4562   */\n      dup3\n        /* \"#utility.yul\":4557:4566   */\n      add\n        /* \"#utility.yul\":4550:4566   */\n      swap1\n      pop\n        /* \"#utility.yul\":4267:4572   */\n      swap3\n      swap2\n      pop\n      pop\n      jump\t// out\n        /* \"#utility.yul\":4578:4655   */\n    tag_97:\n        /* \"#utility.yul\":4615:4622   */\n      0x00\n        /* \"#utility.yul\":4644:4649   */\n      dup2\n        /* \"#utility.yul\":4633:4649   */\n      swap1\n      pop\n        /* \"#utility.yul\":4578:4655   */\n      swap2\n      swap1\n      pop\n      jump\t// out\n        /* \"#utility.yul\":4661:4815   */\n    tag_58:\n        /* \"#utility.yul\":4745:4751   */\n      dup3\n        /* \"#utility.yul\":4740:4743   */\n      dup2\n        /* \"#utility.yul\":4735:4738   */\n      dup4\n        /* \"#utility.yul\":4722:4752   */\n      calldatacopy\n        /* \"#utility.yul\":4807:4808   */\n      0x00\n        /* \"#utility.yul\":4798:4804   */\n      dup4\n        /* \"#utility.yul\":4793:4796   */\n      dup4\n        /* \"#utility.yul\":4789:4805   */\n      add\n        /* \"#utility.yul\":4782:4809   */\n      mstore\n        /* \"#utility.yul\":4661:4815   */\n      pop\n      pop\n      pop\n      jump\t// out\n        /* \"#utility.yul\":4821:5128   */\n    tag_91:\n        /* \"#utility.yul\":4889:4890   */\n      0x00\n        /* \"#utility.yul\":4899:5012   */\n    tag_126:\n        /* \"#utility.yul\":4913:4919   */\n      dup4\n        /* \"#utility.yul\":4910:4911   */\n      dup2\n        /* \"#utility.yul\":4907:4920   */\n      lt\n        /* \"#utility.yul\":4899:5012   */\n      iszero\n      tag_128\n      jumpi\n        /* \"#utility.yul\":4998:4999   */\n      dup1\n        /* \"#utility.yul\":4993:4996   */\n      dup3\n        /* \"#utility.yul\":4989:5000   */\n      add\n        /* \"#utility.yul\":4983:5001   */\n      mload\n        /* \"#utility.yul\":4979:4980   */\n      dup2\n        /* \"#utility.yul\":4974:4977   */\n      dup5\n        /* \"#utility.yul\":4970:4981   */\n      add\n        /* \"#utility.yul\":4963:5002   */\n      mstore\n        /* \"#utility.yul\":4935:4937   */\n      0x20\n        /* \"#utility.yul\":4932:4933   */\n      dup2\n        /* \"#utility.yul\":4928:4938   */\n      add\n        /* \"#utility.yul\":4923:4938   */\n      swap1\n      pop\n        /* \"#utility.yul\":4899:5012   */\n      jump(tag_126)\n    tag_128:\n        /* \"#utility.yul\":5030:5036   */\n      dup4\n        /* \"#utility.yul\":5027:5028   */\n      dup2\n        /* \"#utility.yul\":5024:5037   */\n      gt\n        /* \"#utility.yul\":5021:5122   */\n      iszero\n      tag_129\n      jumpi\n        /* \"#utility.yul\":5110:5111   */\n      0x00\n        /* \"#utility.yul\":5101:5107   */\n      dup5\n        /* \"#utility.yul\":5096:5099   */\n      dup5\n        /* \"#utility.yul\":5092:5108   */\n      add\n        /* \"#utility.yul\":5085:5112   */\n      mstore\n        /* \"#utility.yul\":5021:5122   */\n    tag_129:\n        /* \"#utility.yul\":4870:5128   */\n      pop\n        /* \"#utility.yul\":4821:5128   */\n      pop\n      pop\n      pop\n      jump\t// out\n        /* \"#utility.yul\":5134:5454   */\n    tag_21:\n        /* \"#utility.yul\":5178:5184   */\n      0x00\n        /* \"#utility.yul\":5215:5216   */\n      0x02\n        /* \"#utility.yul\":5209:5213   */\n      dup3\n        /* \"#utility.yul\":5205:5217   */\n      div\n        /* \"#utility.yul\":5195:5217   */\n      swap1\n      pop\n        /* \"#utility.yul\":5262:5263   */\n      0x01\n        /* \"#utility.yul\":5256:5260   */\n      dup3\n        /* \"#utility.yul\":5252:5264   */\n      and\n        /* \"#utility.yul\":5283:5301   */\n      dup1\n        /* \"#utility.yul\":5273:5354   */\n      tag_131\n      jumpi\n        /* \"#utility.yul\":5339:5343   */\n      0x7f\n        /* \"#utility.yul\":5331:5337   */\n      dup3\n        /* \"#utility.yul\":5327:5344   */\n      and\n        /* \"#utility.yul\":5317:5344   */\n      swap2\n      pop\n        /* \"#utility.yul\":5273:5354   */\n    tag_131:\n        /* \"#utility.yul\":5401:5403   */\n      0x20\n        /* \"#utility.yul\":5393:5399   */\n      dup3\n        /* \"#utility.yul\":5390:5404   */\n      lt\n        /* \"#utility.yul\":5370:5388   */\n      dup2\n        /* \"#utility.yul\":5367:5405   */\n      eq\n        /* \"#utility.yul\":5364:5448   */\n      iszero\n      tag_132\n      jumpi\n        /* \"#utility.yul\":5420:5438   */\n      tag_133\n      tag_134\n      jump\t// in\n    tag_133:\n        /* \"#utility.yul\":5364:5448   */\n    tag_132:\n        /* \"#utility.yul\":5185:5454   */\n      pop\n        /* \"#utility.yul\":5134:5454   */\n      swap2\n      swap1\n      pop\n      jump\t// out\n        /* \"#utility.yul\":5460:5741   */\n    tag_108:\n        /* \"#utility.yul\":5543:5570   */\n      tag_136\n        /* \"#utility.yul\":5565:5569   */\n      dup3\n        /* \"#utility.yul\":5543:5570   */\n      tag_93\n      jump\t// in\n    tag_136:\n        /* \"#utility.yul\":5535:5541   */\n      dup2\n        /* \"#utility.yul\":5531:5571   */\n      add\n        /* \"#utility.yul\":5673:5679   */\n      dup2\n        /* \"#utility.yul\":5661:5671   */\n      dup2\n        /* \"#utility.yul\":5658:5680   */\n      lt\n        /* \"#utility.yul\":5637:5655   */\n      0xffffffffffffffff\n        /* \"#utility.yul\":5625:5635   */\n      dup3\n        /* \"#utility.yul\":5622:5656   */\n      gt\n        /* \"#utility.yul\":5619:5681   */\n      or\n        /* \"#utility.yul\":5616:5704   */\n      iszero\n      tag_137\n      jumpi\n        /* \"#utility.yul\":5684:5702   */\n      tag_138\n      tag_113\n      jump\t// in\n    tag_138:\n        /* \"#utility.yul\":5616:5704   */\n    tag_137:\n        /* \"#utility.yul\":5724:5734   */\n      dup1\n        /* \"#utility.yul\":5720:5722   */\n      0x40\n        /* \"#utility.yul\":5713:5735   */\n      mstore\n        /* \"#utility.yul\":5503:5741   */\n      pop\n        /* \"#utility.yul\":5460:5741   */\n      pop\n      pop\n      jump\t// out\n        /* \"#utility.yul\":5747:5927   */\n    tag_122:\n        /* \"#utility.yul\":5795:5872   */\n      0x4e487b7100000000000000000000000000000000000000000000000000000000\n        /* \"#utility.yul\":5792:5793   */\n      0x00\n        /* \"#utility.yul\":5785:5873   */\n      mstore\n        /* \"#utility.yul\":5892:5896   */\n      0x11\n        /* \"#utility.yul\":5889:5890   */\n      0x04\n        /* \"#utility.yul\":5882:5897   */\n      mstore\n        /* \"#utility.yul\":5916:5920   */\n      0x24\n        /* \"#utility.yul\":5913:5914   */\n      0x00\n        /* \"#utility.yul\":5906:5921   */\n      revert\n        /* \"#utility.yul\":5933:6113   */\n    tag_134:\n        /* \"#utility.yul\":5981:6058   */\n      0x4e487b7100000000000000000000000000000000000000000000000000000000\n        /* \"#utility.yul\":5978:5979   */\n      0x00\n        /* \"#utility.yul\":5971:6059   */\n      mstore\n        /* \"#utility.yul\":6078:6082   */\n      0x22\n        /* \"#utility.yul\":6075:6076   */\n      0x04\n        /* \"#utility.yul\":6068:6083   */\n      mstore\n        /* \"#utility.yul\":6102:6106   */\n      0x24\n        /* \"#utility.yul\":6099:6100   */\n      0x00\n        /* \"#utility.yul\":6092:6107   */\n      revert\n        /* \"#utility.yul\":6119:6299   */\n    tag_113:\n        /* \"#utility.yul\":6167:6244   */\n      0x4e487b7100000000000000000000000000000000000000000000000000000000\n        /* \"#utility.yul\":6164:6165   */\n      0x00\n        /* \"#utility.yul\":6157:6245   */\n      mstore\n        /* \"#utility.yul\":6264:6268   */\n      0x41\n        /* \"#utility.yul\":6261:6262   */\n      0x04\n        /* \"#utility.yul\":6254:6269   */\n      mstore\n        /* \"#utility.yul\":6288:6292   */\n      0x24\n        /* \"#utility.yul\":6285:6286   */\n      0x00\n        /* \"#utility.yul\":6278:6293   */\n      revert\n        /* \"#utility.yul\":6305:6422   */\n    tag_63:\n        /* \"#utility.yul\":6414:6415   */\n      0x00\n        /* \"#utility.yul\":6411:6412   */\n      dup1\n        /* \"#utility.yul\":6404:6416   */\n      revert\n        /* \"#utility.yul\":6428:6545   */\n    tag_56:\n        /* \"#utility.yul\":6537:6538   */\n      0x00\n        /* \"#utility.yul\":6534:6535   */\n      dup1\n        /* \"#utility.yul\":6527:6539   */\n      revert\n        /* \"#utility.yul\":6551:6668   */\n    tag_75:\n        /* \"#utility.yul\":6660:6661   */\n      0x00\n        /* \"#utility.yul\":6657:6658   */\n      dup1\n        /* \"#utility.yul\":6650:6662   */\n      revert\n        /* \"#utility.yul\":6674:6791   */\n    tag_72:\n        /* \"#utility.yul\":6783:6784   */\n      0x00\n        /* \"#utility.yul\":6780:6781   */\n      dup1\n        /* \"#utility.yul\":6773:6785   */\n      revert\n        /* \"#utility.yul\":6797:6899   */\n    tag_93:\n        /* \"#utility.yul\":6838:6844   */\n      0x00\n        /* \"#utility.yul\":6889:6891   */\n      0x1f\n        /* \"#utility.yul\":6885:6892   */\n      not\n        /* \"#utility.yul\":6880:6882   */\n      0x1f\n        /* \"#utility.yul\":6873:6878   */\n      dup4\n        /* \"#utility.yul\":6869:6883   */\n      add\n        /* \"#utility.yul\":6865:6893   */\n      and\n        /* \"#utility.yul\":6855:6893   */\n      swap1\n      pop\n        /* \"#utility.yul\":6797:6899   */\n      swap2\n      swap1\n      pop\n      jump\t// out\n        /* \"#utility.yul\":6905:7027   */\n    tag_68:\n        /* \"#utility.yul\":6978:7002   */\n      tag_148\n        /* \"#utility.yul\":6996:7001   */\n      dup2\n        /* \"#utility.yul\":6978:7002   */\n      tag_97\n      jump\t// in\n    tag_148:\n        /* \"#utility.yul\":6971:6976   */\n      dup2\n        /* \"#utility.yul\":6968:7003   */\n      eq\n        /* \"#utility.yul\":6958:7021   */\n      tag_149\n      jumpi\n        /* \"#utility.yul\":7017:7018   */\n      0x00\n        /* \"#utility.yul\":7014:7015   */\n      dup1\n        /* \"#utility.yul\":7007:7019   */\n      revert\n        /* \"#utility.yul\":6958:7021   */\n    tag_149:\n        /* \"#utility.yul\":6905:7027   */\n      pop\n      jump\t// out\n\n    auxdata: 0xa2646970667358221220a335bc3677ef55a742d1efadb79b916e3ad34801dc2095149658543246e09dc164736f6c63430008070033\n}\n",
				"bytecode": {
					"linkReferences": {},
					"object": "608060405234801561001057600080fd5b50610772806100206000396000f3fe608060405234801561001057600080fd5b50600436106100415760003560e01c8063092a182014610046578063267c68e014610078578063c785482314610096575b600080fd5b610060600480360381019061005b9190610427565b6100b2565b60405161006f939291906104b7565b60405180910390f35b6100806101ec565b60405161008d919061049c565b60405180910390f35b6100b060048036038101906100ab91906103af565b6101f2565b005b60016020528060005260406000206000915090508060000154908060010180546100db90610610565b80601f016020809104026020016040519081016040528092919081815260200182805461010790610610565b80156101545780601f1061012957610100808354040283529160200191610154565b820191906000526020600020905b81548152906001019060200180831161013757829003601f168201915b50505050509080600201805461016990610610565b80601f016020809104026020016040519081016040528092919081815260200182805461019590610610565b80156101e25780601f106101b7576101008083540402835291602001916101e2565b820191906000526020600020905b8154815290600101906020018083116101c557829003601f168201915b5050505050905083565b60005481565b6001600080828254610204919061056e565b9250508190555060405180606001604052806000548152602001838152602001828152506001600080548152602001908152602001600020600082015181600001556020820151816001019080519060200190610262929190610287565b50604082015181600201908051906020019061027f929190610287565b509050505050565b82805461029390610610565b90600052602060002090601f0160209004810192826102b557600085556102fc565b82601f106102ce57805160ff19168380011785556102fc565b828001600101855582156102fc579182015b828111156102fb5782518255916020019190600101906102e0565b5b509050610309919061030d565b5090565b5b8082111561032657600081600090555060010161030e565b5090565b600061033d61033884610521565b6104fc565b90508281526020810184848401111561035957610358610705565b5b6103648482856105ce565b509392505050565b600082601f83011261038157610380610700565b5b813561039184826020860161032a565b91505092915050565b6000813590506103a981610725565b92915050565b600080604083850312156103c6576103c561070f565b5b600083013567ffffffffffffffff8111156103e4576103e361070a565b5b6103f08582860161036c565b925050602083013567ffffffffffffffff8111156104115761041061070a565b5b61041d8582860161036c565b9150509250929050565b60006020828403121561043d5761043c61070f565b5b600061044b8482850161039a565b91505092915050565b600061045f82610552565b610469818561055d565b93506104798185602086016105dd565b61048281610714565b840191505092915050565b610496816105c4565b82525050565b60006020820190506104b1600083018461048d565b92915050565b60006060820190506104cc600083018661048d565b81810360208301526104de8185610454565b905081810360408301526104f28184610454565b9050949350505050565b6000610506610517565b90506105128282610642565b919050565b6000604051905090565b600067ffffffffffffffff82111561053c5761053b6106d1565b5b61054582610714565b9050602081019050919050565b600081519050919050565b600082825260208201905092915050565b6000610579826105c4565b9150610584836105c4565b9250827fffffffffffffffffffffffffffffffffffffffffffffffffffffffffffffffff038211156105b9576105b8610673565b5b828201905092915050565b6000819050919050565b82818337600083830152505050565b60005b838110156105fb5780820151818401526020810190506105e0565b8381111561060a576000848401525b50505050565b6000600282049050600182168061062857607f821691505b6020821081141561063c5761063b6106a2565b5b50919050565b61064b82610714565b810181811067ffffffffffffffff8211171561066a576106696106d1565b5b80604052505050565b7f4e487b7100000000000000000000000000000000000000000000000000000000600052601160045260246000fd5b7f4e487b7100000000000000000000000000000000000000000000000000000000600052602260045260246000fd5b7f4e487b7100000000000000000000000000000000000000000000000000000000600052604160045260246000fd5b600080fd5b600080fd5b600080fd5b600080fd5b6000601f19601f8301169050919050565b61072e816105c4565b811461073957600080fd5b5056fea2646970667358221220a335bc3677ef55a742d1efadb79b916e3ad34801dc2095149658543246e09dc164736f6c63430008070033",
					"opcodes": "PUSH1 0x80 PUSH1 0x40 MSTORE CALLVALUE DUP1 ISZERO PUSH2 0x10 JUMPI PUSH1 0x0 DUP1 REVERT JUMPDEST POP PUSH2 0x772 DUP1 PUSH2 0x20 PUSH1 0x0 CODECOPY PUSH1 0x0 RETURN INVALID PUSH1 0x80 PUSH1 0x40 MSTORE CALLVALUE DUP1 ISZERO PUSH2 0x10 JUMPI PUSH1 0x0 DUP1 REVERT JUMPDEST POP PUSH1 0x4 CALLDATASIZE LT PUSH2 0x41 JUMPI PUSH1 0x0 CALLDATALOAD PUSH1 0xE0 SHR DUP1 PUSH4 0x92A1820 EQ PUSH2 0x46 JUMPI DUP1 PUSH4 0x267C68E0 EQ PUSH2 0x78 JUMPI DUP1 PUSH4 0xC7854823 EQ PUSH2 0x96 JUMPI JUMPDEST PUSH1 0x0 DUP1 REVERT JUMPDEST PUSH2 0x60 PUSH1 0x4 DUP1 CALLDATASIZE SUB DUP2 ADD SWAP1 PUSH2 0x5B SWAP2 SWAP1 PUSH2 0x427 JUMP JUMPDEST PUSH2 0xB2 JUMP JUMPDEST PUSH1 0x40 MLOAD PUSH2 0x6F SWAP4 SWAP3 SWAP2 SWAP1 PUSH2 0x4B7 JUMP JUMPDEST PUSH1 0x40 MLOAD DUP1 SWAP2 SUB SWAP1 RETURN JUMPDEST PUSH2 0x80 PUSH2 0x1EC JUMP JUMPDEST PUSH1 0x40 MLOAD PUSH2 0x8D SWAP2 SWAP1 PUSH2 0x49C JUMP JUMPDEST PUSH1 0x40 MLOAD DUP1 SWAP2 SUB SWAP1 RETURN JUMPDEST PUSH2 0xB0 PUSH1 0x4 DUP1 CALLDATASIZE SUB DUP2 ADD SWAP1 PUSH2 0xAB SWAP2 SWAP1 PUSH2 0x3AF JUMP JUMPDEST PUSH2 0x1F2 JUMP JUMPDEST STOP JUMPDEST PUSH1 0x1 PUSH1 0x20 MSTORE DUP1 PUSH1 0x0 MSTORE PUSH1 0x40 PUSH1 0x0 KECCAK256 PUSH1 0x0 SWAP2 POP SWAP1 POP DUP1 PUSH1 0x0 ADD SLOAD SWAP1 DUP1 PUSH1 0x1 ADD DUP1 SLOAD PUSH2 0xDB SWAP1 PUSH2 0x610 JUMP JUMPDEST DUP1 PUSH1 0x1F ADD PUSH1 0x20 DUP1 SWAP2 DIV MUL PUSH1 0x20 ADD PUSH1 0x40 MLOAD SWAP1 DUP2 ADD PUSH1 0x40 MSTORE DUP1 SWAP3 SWAP2 SWAP1 DUP2 DUP2 MSTORE PUSH1 0x20 ADD DUP3 DUP1 SLOAD PUSH2 0x107 SWAP1 PUSH2 0x610 JUMP JUMPDEST DUP1 ISZERO PUSH2 0x154 JUMPI DUP1 PUSH1 0x1F LT PUSH2 0x129 JUMPI PUSH2 0x100 DUP1 DUP4 SLOAD DIV MUL DUP4 MSTORE SWAP2 PUSH1 0x20 ADD SWAP2 PUSH2 0x154 JUMP JUMPDEST DUP3 ADD SWAP2 SWAP1 PUSH1 0x0 MSTORE PUSH1 0x20 PUSH1 0x0 KECCAK256 SWAP1 JUMPDEST DUP2 SLOAD DUP2 MSTORE SWAP1 PUSH1 0x1 ADD SWAP1 PUSH1 0x20 ADD DUP1 DUP4 GT PUSH2 0x137 JUMPI DUP3 SWAP1 SUB PUSH1 0x1F AND DUP3 ADD SWAP2 JUMPDEST POP POP POP POP POP SWAP1 DUP1 PUSH1 0x2 ADD DUP1 SLOAD PUSH2 0x169 SWAP1 PUSH2 0x610 JUMP JUMPDEST DUP1 PUSH1 0x1F ADD PUSH1 0x20 DUP1 SWAP2 DIV MUL PUSH1 0x20 ADD PUSH1 0x40 MLOAD SWAP1 DUP2 ADD PUSH1 0x40 MSTORE DUP1 SWAP3 SWAP2 SWAP1 DUP2 DUP2 MSTORE PUSH1 0x20 ADD DUP3 DUP1 SLOAD PUSH2 0x195 SWAP1 PUSH2 0x610 JUMP JUMPDEST DUP1 ISZERO PUSH2 0x1E2 JUMPI DUP1 PUSH1 0x1F LT PUSH2 0x1B7 JUMPI PUSH2 0x100 DUP1 DUP4 SLOAD DIV MUL DUP4 MSTORE SWAP2 PUSH1 0x20 ADD SWAP2 PUSH2 0x1E2 JUMP JUMPDEST DUP3 ADD SWAP2 SWAP1 PUSH1 0x0 MSTORE PUSH1 0x20 PUSH1 0x0 KECCAK256 SWAP1 JUMPDEST DUP2 SLOAD DUP2 MSTORE SWAP1 PUSH1 0x1 ADD SWAP1 PUSH1 0x20 ADD DUP1 DUP4 GT PUSH2 0x1C5 JUMPI DUP3 SWAP1 SUB PUSH1 0x1F AND DUP3 ADD SWAP2 JUMPDEST POP POP POP POP POP SWAP1 POP DUP4 JUMP JUMPDEST PUSH1 0x0 SLOAD DUP2 JUMP JUMPDEST PUSH1 0x1 PUSH1 0x0 DUP1 DUP3 DUP3 SLOAD PUSH2 0x204 SWAP2 SWAP1 PUSH2 0x56E JUMP JUMPDEST SWAP3 POP POP DUP2 SWAP1 SSTORE POP PUSH1 0x40 MLOAD DUP1 PUSH1 0x60 ADD PUSH1 0x40 MSTORE DUP1 PUSH1 0x0 SLOAD DUP2 MSTORE PUSH1 0x20 ADD DUP4 DUP2 MSTORE PUSH1 0x20 ADD DUP3 DUP2 MSTORE POP PUSH1 0x1 PUSH1 0x0 DUP1 SLOAD DUP2 MSTORE PUSH1 0x20 ADD SWAP1 DUP2 MSTORE PUSH1 0x20 ADD PUSH1 0x0 KECCAK256 PUSH1 0x0 DUP3 ADD MLOAD DUP2 PUSH1 0x0 ADD SSTORE PUSH1 0x20 DUP3 ADD MLOAD DUP2 PUSH1 0x1 ADD SWAP1 DUP1 MLOAD SWAP1 PUSH1 0x20 ADD SWAP1 PUSH2 0x262 SWAP3 SWAP2 SWAP1 PUSH2 0x287 JUMP JUMPDEST POP PUSH1 0x40 DUP3 ADD MLOAD DUP2 PUSH1 0x2 ADD SWAP1 DUP1 MLOAD SWAP1 PUSH1 0x20 ADD SWAP1 PUSH2 0x27F SWAP3 SWAP2 SWAP1 PUSH2 0x287 JUMP JUMPDEST POP SWAP1 POP POP POP POP JUMP JUMPDEST DUP3 DUP1 SLOAD PUSH2 0x293 SWAP1 PUSH2 0x610 JUMP JUMPDEST SWAP1 PUSH1 0x0 MSTORE PUSH1 0x20 PUSH1 0x0 KECCAK256 SWAP1 PUSH1 0x1F ADD PUSH1 0x20 SWAP1 DIV DUP2 ADD SWAP3 DUP3 PUSH2 0x2B5 JUMPI PUSH1 0x0 DUP6 SSTORE PUSH2 0x2FC JUMP JUMPDEST DUP3 PUSH1 0x1F LT PUSH2 0x2CE JUMPI DUP1 MLOAD PUSH1 0xFF NOT AND DUP4 DUP1 ADD OR DUP6 SSTORE PUSH2 0x2FC JUMP JUMPDEST DUP3 DUP1 ADD PUSH1 0x1 ADD DUP6 SSTORE DUP3 ISZERO PUSH2 0x2FC JUMPI SWAP2 DUP3 ADD JUMPDEST DUP3 DUP2 GT ISZERO PUSH2 0x2FB JUMPI DUP3 MLOAD DUP3 SSTORE SWAP2 PUSH1 0x20 ADD SWAP2 SWAP1 PUSH1 0x1 ADD SWAP1 PUSH2 0x2E0 JUMP JUMPDEST JUMPDEST POP SWAP1 POP PUSH2 0x309 SWAP2 SWAP1 PUSH2 0x30D JUMP JUMPDEST POP SWAP1 JUMP JUMPDEST JUMPDEST DUP1 DUP3 GT ISZERO PUSH2 0x326 JUMPI PUSH1 0x0 DUP2 PUSH1 0x0 SWAP1 SSTORE POP PUSH1 0x1 ADD PUSH2 0x30E JUMP JUMPDEST POP SWAP1 JUMP JUMPDEST PUSH1 0x0 PUSH2 0x33D PUSH2 0x338 DUP5 PUSH2 0x521 JUMP JUMPDEST PUSH2 0x4FC JUMP JUMPDEST SWAP1 POP DUP3 DUP2 MSTORE PUSH1 0x20 DUP2 ADD DUP5 DUP5 DUP5 ADD GT ISZERO PUSH2 0x359 JUMPI PUSH2 0x358 PUSH2 0x705 JUMP JUMPDEST JUMPDEST PUSH2 0x364 DUP5 DUP3 DUP6 PUSH2 0x5CE JUMP JUMPDEST POP SWAP4 SWAP3 POP POP POP JUMP JUMPDEST PUSH1 0x0 DUP3 PUSH1 0x1F DUP4 ADD SLT PUSH2 0x381 JUMPI PUSH2 0x380 PUSH2 0x700 JUMP JUMPDEST JUMPDEST DUP2 CALLDATALOAD PUSH2 0x391 DUP5 DUP3 PUSH1 0x20 DUP7 ADD PUSH2 0x32A JUMP JUMPDEST SWAP2 POP POP SWAP3 SWAP2 POP POP JUMP JUMPDEST PUSH1 0x0 DUP2 CALLDATALOAD SWAP1 POP PUSH2 0x3A9 DUP2 PUSH2 0x725 JUMP JUMPDEST SWAP3 SWAP2 POP POP JUMP JUMPDEST PUSH1 0x0 DUP1 PUSH1 0x40 DUP4 DUP6 SUB SLT ISZERO PUSH2 0x3C6 JUMPI PUSH2 0x3C5 PUSH2 0x70F JUMP JUMPDEST JUMPDEST PUSH1 0x0 DUP4 ADD CALLDATALOAD PUSH8 0xFFFFFFFFFFFFFFFF DUP2 GT ISZERO PUSH2 0x3E4 JUMPI PUSH2 0x3E3 PUSH2 0x70A JUMP JUMPDEST JUMPDEST PUSH2 0x3F0 DUP6 DUP3 DUP7 ADD PUSH2 0x36C JUMP JUMPDEST SWAP3 POP POP PUSH1 0x20 DUP4 ADD CALLDATALOAD PUSH8 0xFFFFFFFFFFFFFFFF DUP2 GT ISZERO PUSH2 0x411 JUMPI PUSH2 0x410 PUSH2 0x70A JUMP JUMPDEST JUMPDEST PUSH2 0x41D DUP6 DUP3 DUP7 ADD PUSH2 0x36C JUMP JUMPDEST SWAP2 POP POP SWAP3 POP SWAP3 SWAP1 POP JUMP JUMPDEST PUSH1 0x0 PUSH1 0x20 DUP3 DUP5 SUB SLT ISZERO PUSH2 0x43D JUMPI PUSH2 0x43C PUSH2 0x70F JUMP JUMPDEST JUMPDEST PUSH1 0x0 PUSH2 0x44B DUP5 DUP3 DUP6 ADD PUSH2 0x39A JUMP JUMPDEST SWAP2 POP POP SWAP3 SWAP2 POP POP JUMP JUMPDEST PUSH1 0x0 PUSH2 0x45F DUP3 PUSH2 0x552 JUMP JUMPDEST PUSH2 0x469 DUP2 DUP6 PUSH2 0x55D JUMP JUMPDEST SWAP4 POP PUSH2 0x479 DUP2 DUP6 PUSH1 0x20 DUP7 ADD PUSH2 0x5DD JUMP JUMPDEST PUSH2 0x482 DUP2 PUSH2 0x714 JUMP JUMPDEST DUP5 ADD SWAP2 POP POP SWAP3 SWAP2 POP POP JUMP JUMPDEST PUSH2 0x496 DUP2 PUSH2 0x5C4 JUMP JUMPDEST DUP3 MSTORE POP POP JUMP JUMPDEST PUSH1 0x0 PUSH1 0x20 DUP3 ADD SWAP1 POP PUSH2 0x4B1 PUSH1 0x0 DUP4 ADD DUP5 PUSH2 0x48D JUMP JUMPDEST SWAP3 SWAP2 POP POP JUMP JUMPDEST PUSH1 0x0 PUSH1 0x60 DUP3 ADD SWAP1 POP PUSH2 0x4CC PUSH1 0x0 DUP4 ADD DUP7 PUSH2 0x48D JUMP JUMPDEST DUP2 DUP2 SUB PUSH1 0x20 DUP4 ADD MSTORE PUSH2 0x4DE DUP2 DUP6 PUSH2 0x454 JUMP JUMPDEST SWAP1 POP DUP2 DUP2 SUB PUSH1 0x40 DUP4 ADD MSTORE PUSH2 0x4F2 DUP2 DUP5 PUSH2 0x454 JUMP JUMPDEST SWAP1 POP SWAP5 SWAP4 POP POP POP POP JUMP JUMPDEST PUSH1 0x0 PUSH2 0x506 PUSH2 0x517 JUMP JUMPDEST SWAP1 POP PUSH2 0x512 DUP3 DUP3 PUSH2 0x642 JUMP JUMPDEST SWAP2 SWAP1 POP JUMP JUMPDEST PUSH1 0x0 PUSH1 0x40 MLOAD SWAP1 POP SWAP1 JUMP JUMPDEST PUSH1 0x0 PUSH8 0xFFFFFFFFFFFFFFFF DUP3 GT ISZERO PUSH2 0x53C JUMPI PUSH2 0x53B PUSH2 0x6D1 JUMP JUMPDEST JUMPDEST PUSH2 0x545 DUP3 PUSH2 0x714 JUMP JUMPDEST SWAP1 POP PUSH1 0x20 DUP2 ADD SWAP1 POP SWAP2 SWAP1 POP JUMP JUMPDEST PUSH1 0x0 DUP2 MLOAD SWAP1 POP SWAP2 SWAP1 POP JUMP JUMPDEST PUSH1 0x0 DUP3 DUP3 MSTORE PUSH1 0x20 DUP3 ADD SWAP1 POP SWAP3 SWAP2 POP POP JUMP JUMPDEST PUSH1 0x0 PUSH2 0x579 DUP3 PUSH2 0x5C4 JUMP JUMPDEST SWAP2 POP PUSH2 0x584 DUP4 PUSH2 0x5C4 JUMP JUMPDEST SWAP3 POP DUP3 PUSH32 0xFFFFFFFFFFFFFFFFFFFFFFFFFFFFFFFFFFFFFFFFFFFFFFFFFFFFFFFFFFFFFFFF SUB DUP3 GT ISZERO PUSH2 0x5B9 JUMPI PUSH2 0x5B8 PUSH2 0x673 JUMP JUMPDEST JUMPDEST DUP3 DUP3 ADD SWAP1 POP SWAP3 SWAP2 POP POP JUMP JUMPDEST PUSH1 0x0 DUP2 SWAP1 POP SWAP2 SWAP1 POP JUMP JUMPDEST DUP3 DUP2 DUP4 CALLDATACOPY PUSH1 0x0 DUP4 DUP4 ADD MSTORE POP POP POP JUMP JUMPDEST PUSH1 0x0 JUMPDEST DUP4 DUP2 LT ISZERO PUSH2 0x5FB JUMPI DUP1 DUP3 ADD MLOAD DUP2 DUP5 ADD MSTORE PUSH1 0x20 DUP2 ADD SWAP1 POP PUSH2 0x5E0 JUMP JUMPDEST DUP4 DUP2 GT ISZERO PUSH2 0x60A JUMPI PUSH1 0x0 DUP5 DUP5 ADD MSTORE JUMPDEST POP POP POP POP JUMP JUMPDEST PUSH1 0x0 PUSH1 0x2 DUP3 DIV SWAP1 POP PUSH1 0x1 DUP3 AND DUP1 PUSH2 0x628 JUMPI PUSH1 0x7F DUP3 AND SWAP2 POP JUMPDEST PUSH1 0x20 DUP3 LT DUP2 EQ ISZERO PUSH2 0x63C JUMPI PUSH2 0x63B PUSH2 0x6A2 JUMP JUMPDEST JUMPDEST POP SWAP2 SWAP1 POP JUMP JUMPDEST PUSH2 0x64B DUP3 PUSH2 0x714 JUMP JUMPDEST DUP2 ADD DUP2 DUP2 LT PUSH8 0xFFFFFFFFFFFFFFFF DUP3 GT OR ISZERO PUSH2 0x66A JUMPI PUSH2 0x669 PUSH2 0x6D1 JUMP JUMPDEST JUMPDEST DUP1 PUSH1 0x40 MSTORE POP POP POP JUMP JUMPDEST PUSH32 0x4E487B7100000000000000000000000000000000000000000000000000000000 PUSH1 0x0 MSTORE PUSH1 0x11 PUSH1 0x4 MSTORE PUSH1 0x24 PUSH1 0x0 REVERT JUMPDEST PUSH32 0x4E487B7100000000000000000000000000000000000000000000000000000000 PUSH1 0x0 MSTORE PUSH1 0x22 PUSH1 0x4 MSTORE PUSH1 0x24 PUSH1 0x0 REVERT JUMPDEST PUSH32 0x4E487B7100000000000000000000000000000000000000000000000000000000 PUSH1 0x0 MSTORE PUSH1 0x41 PUSH1 0x4 MSTORE PUSH1 0x24 PUSH1 0x0 REVERT JUMPDEST PUSH1 0x0 DUP1 REVERT JUMPDEST PUSH1 0x0 DUP1 REVERT JUMPDEST PUSH1 0x0 DUP1 REVERT JUMPDEST PUSH1 0x0 DUP1 REVERT JUMPDEST PUSH1 0x0 PUSH1 0x1F NOT PUSH1 0x1F DUP4 ADD AND SWAP1 POP SWAP2 SWAP1 POP JUMP JUMPDEST PUSH2 0x72E DUP2 PUSH2 0x5C4 JUMP JUMPDEST DUP2 EQ PUSH2 0x739 JUMPI PUSH1 0x0 DUP1 REVERT JUMPDEST POP JUMP INVALID LOG2 PUSH5 0x6970667358 0x22 SLT KECCAK256 LOG3 CALLDATALOAD 0xBC CALLDATASIZE PUSH24 0xEF55A742D1EFADB79B916E3AD34801DC2095149658543246 0xE0 SWAP14 0xC1 PUSH5 0x736F6C6343 STOP ADDMOD SMOD STOP CALLER "
				},
				"gasEstimates": {
					"creation": {
						"codeDepositCost": "381200",
						"executionCost": "418",
						"totalCost": "381618"
					},
					"external": {
						"addPersons(string,string)": "infinite",
						"peopleCount()": "2429",
						"person(uint256)": "infinite"
					}
				},
				"methodIdentifiers": {
					"addPersons(string,string)": "c7854823",
					"peopleCount()": "267c68e0",
					"person(uint256)": "092a1820"
				}
			},
			"storageLayout": {
				"storage": [
					{
						"astId": 3,
						"contract": "Contracts/usingMappings.sol:usingMappings",
						"label": "peopleCount",
						"offset": 0,
						"slot": "0",
						"type": "t_uint256"
					},
					{
						"astId": 8,
						"contract": "Contracts/usingMappings.sol:usingMappings",
						"label": "person",
						"offset": 0,
						"slot": "1",
						"type": "t_mapping(t_uint256,t_struct(People)15_storage)"
					}
				],
				"types": {
					"t_mapping(t_uint256,t_struct(People)15_storage)": {
						"encoding": "mapping",
						"key": "t_uint256",
						"label": "mapping(uint256 => struct usingMappings.People)",
						"numberOfBytes": "32",
						"value": "t_struct(People)15_storage"
					},
					"t_string_storage": {
						"encoding": "bytes",
						"label": "string",
						"numberOfBytes": "32"
					},
					"t_struct(People)15_storage": {
						"encoding": "inplace",
						"label": "struct usingMappings.People",
						"members": [
							{
								"astId": 10,
								"contract": "Contracts/usingMappings.sol:usingMappings",
								"label": "_id",
								"offset": 0,
								"slot": "0",
								"type": "t_uint256"
							},
							{
								"astId": 12,
								"contract": "Contracts/usingMappings.sol:usingMappings",
								"label": "_firstName",
								"offset": 0,
								"slot": "1",
								"type": "t_string_storage"
							},
							{
								"astId": 14,
								"contract": "Contracts/usingMappings.sol:usingMappings",
								"label": "_lastName",
								"offset": 0,
								"slot": "2",
								"type": "t_string_storage"
							}
						],
						"numberOfBytes": "96"
					},
					"t_uint256": {
						"encoding": "inplace",
						"label": "uint256",
						"numberOfBytes": "32"
					}
				}
			},
			"userdoc": {
				"kind": "user",
				"methods": {},
				"version": 1
			}
		}
	}
}