{
	"Contracts/carAuction.sol": {
		"carDutchAuction": {
			"abi": [
				{
					"inputs": [
						{
							"internalType": "uint256",
							"name": "_startingPrice",
							"type": "uint256"
						},
						{
							"internalType": "uint256",
							"name": "_discountRate",
							"type": "uint256"
						},
						{
							"internalType": "address",
							"name": "_nft",
							"type": "address"
						},
						{
							"internalType": "uint256",
							"name": "_nftId",
							"type": "uint256"
						}
					],
					"stateMutability": "nonpayable",
					"type": "constructor"
				},
				{
					"inputs": [],
					"name": "buy",
					"outputs": [],
					"stateMutability": "payable",
					"type": "function"
				},
				{
					"inputs": [],
					"name": "discountRate",
					"outputs": [
						{
							"internalType": "uint256",
							"name": "",
							"type": "uint256"
						}
					],
					"stateMutability": "view",
					"type": "function"
				},
				{
					"inputs": [],
					"name": "endsAt",
					"outputs": [
						{
							"internalType": "uint256",
							"name": "",
							"type": "uint256"
						}
					],
					"stateMutability": "view",
					"type": "function"
				},
				{
					"inputs": [],
					"name": "getPrice",
					"outputs": [
						{
							"internalType": "uint256",
							"name": "",
							"type": "uint256"
						}
					],
					"stateMutability": "view",
					"type": "function"
				},
				{
					"inputs": [],
					"name": "nft",
					"outputs": [
						{
							"internalType": "contract IERC721",
							"name": "",
							"type": "address"
						}
					],
					"stateMutability": "view",
					"type": "function"
				},
				{
					"inputs": [],
					"name": "nftId",
					"outputs": [
						{
							"internalType": "uint256",
							"name": "",
							"type": "uint256"
						}
					],
					"stateMutability": "view",
					"type": "function"
				},
				{
					"inputs": [],
					"name": "seller",
					"outputs": [
						{
							"internalType": "address payable",
							"name": "",
							"type": "address"
						}
					],
					"stateMutability": "view",
					"type": "function"
				},
				{
					"inputs": [],
					"name": "startAt",
					"outputs": [
						{
							"internalType": "uint256",
							"name": "",
							"type": "uint256"
						}
					],
					"stateMutability": "view",
					"type": "function"
				},
				{
					"inputs": [],
					"name": "startingPrice",
					"outputs": [
						{
							"internalType": "uint256",
							"name": "",
							"type": "uint256"
						}
					],
					"stateMutability": "view",
					"type": "function"
				}
			],
			"devdoc": {
				"kind": "dev",
				"methods": {},
				"version": 1
			},
			"evm": {
				"assembly": "    /* \"Contracts/carAuction.sol\":140:1590  contract carDutchAuction{\r... */\n  mstore(0x40, 0x0120)\n    /* \"Contracts/carAuction.sol\":471:952  constructor( \r... */\n  callvalue\n  dup1\n  iszero\n  tag_1\n  jumpi\n  0x00\n  dup1\n  revert\ntag_1:\n  pop\n  mload(0x40)\n  sub(codesize, bytecodeSize)\n  dup1\n  bytecodeSize\n  dup4\n  codecopy\n  dup2\n  dup2\n  add\n  0x40\n  mstore\n  dup2\n  add\n  swap1\n  tag_2\n  swap2\n  swap1\n  tag_3\n  jump\t// in\ntag_2:\n    /* \"Contracts/carAuction.sol\":624:634  msg.sender */\n  caller\n    /* \"Contracts/carAuction.sol\":607:635  seller = payable(msg.sender) */\n  0xffffffffffffffffffffffffffffffffffffffff\n  and\n  0xc0\n  dup2\n  0xffffffffffffffffffffffffffffffffffffffff\n  and\n  0x60\n  shl\n  dup2\n  mstore\n  pop\n  pop\n    /* \"Contracts/carAuction.sol\":662:676  _startingPrice */\n  dup4\n    /* \"Contracts/carAuction.sol\":646:659  startingPrice */\n  0x00\n    /* \"Contracts/carAuction.sol\":646:676  startingPrice = _startingPrice */\n  dup2\n  swap1\n  sstore\n  pop\n    /* \"Contracts/carAuction.sol\":702:715  _discountRate */\n  dup3\n    /* \"Contracts/carAuction.sol\":687:699  discountRate */\n  0x01\n    /* \"Contracts/carAuction.sol\":687:715  discountRate = _discountRate */\n  dup2\n  swap1\n  sstore\n  pop\n    /* \"Contracts/carAuction.sol\":736:751  block.timestamp */\n  timestamp\n    /* \"Contracts/carAuction.sol\":726:751  startAt = block.timestamp */\n  0xe0\n  dup2\n  dup2\n  mstore\n  pop\n  pop\n    /* \"Contracts/carAuction.sol\":204:210  7 days */\n  0x093a80\n    /* \"Contracts/carAuction.sol\":771:786  block.timestamp */\n  timestamp\n    /* \"Contracts/carAuction.sol\":771:797  block.timestamp + duration */\n  tag_6\n  swap2\n  swap1\n  tag_7\n  jump\t// in\ntag_6:\n    /* \"Contracts/carAuction.sol\":762:797  endsAt = block.timestamp + duration */\n  0x0100\n  dup2\n  dup2\n  mstore\n  pop\n  pop\n    /* \"Contracts/carAuction.sol\":204:210  7 days */\n  0x093a80\n    /* \"Contracts/carAuction.sol\":836:848  discountRate */\n  sload(0x01)\n    /* \"Contracts/carAuction.sol\":836:859  discountRate * duration */\n  tag_8\n  swap2\n  swap1\n  tag_9\n  jump\t// in\ntag_8:\n    /* \"Contracts/carAuction.sol\":818:832  _startingPrice */\n  dup5\n    /* \"Contracts/carAuction.sol\":818:859  _startingPrice >= discountRate * duration */\n  lt\n  iszero\n    /* \"Contracts/carAuction.sol\":810:889  require(_startingPrice >= discountRate * duration, \"Starting price is too low\") */\n  tag_10\n  jumpi\n  mload(0x40)\n  0x08c379a000000000000000000000000000000000000000000000000000000000\n  dup2\n  mstore\n  0x04\n  add\n  tag_11\n  swap1\n  tag_12\n  jump\t// in\ntag_11:\n  mload(0x40)\n  dup1\n  swap2\n  sub\n  swap1\n  revert\ntag_10:\n    /* \"Contracts/carAuction.sol\":908:914  _nftId */\n  dup1\n    /* \"Contracts/carAuction.sol\":900:914  nftId = _nftId */\n  0xa0\n  dup2\n  dup2\n  mstore\n  pop\n  pop\n    /* \"Contracts/carAuction.sol\":939:943  _nft */\n  dup2\n    /* \"Contracts/carAuction.sol\":925:944  nft = IERC721(_nft) */\n  0xffffffffffffffffffffffffffffffffffffffff\n  and\n  0x80\n  dup2\n  0xffffffffffffffffffffffffffffffffffffffff\n  and\n  0x60\n  shl\n  dup2\n  mstore\n  pop\n  pop\n    /* \"Contracts/carAuction.sol\":471:952  constructor( \r... */\n  pop\n  pop\n  pop\n  pop\n    /* \"Contracts/carAuction.sol\":140:1590  contract carDutchAuction{\r... */\n  jump(tag_13)\n    /* \"#utility.yul\":7:150   */\ntag_15:\n    /* \"#utility.yul\":64:69   */\n  0x00\n    /* \"#utility.yul\":95:101   */\n  dup2\n    /* \"#utility.yul\":89:102   */\n  mload\n    /* \"#utility.yul\":80:102   */\n  swap1\n  pop\n    /* \"#utility.yul\":111:144   */\n  tag_17\n    /* \"#utility.yul\":138:143   */\n  dup2\n    /* \"#utility.yul\":111:144   */\n  tag_18\n  jump\t// in\ntag_17:\n    /* \"#utility.yul\":7:150   */\n  swap3\n  swap2\n  pop\n  pop\n  jump\t// out\n    /* \"#utility.yul\":156:299   */\ntag_19:\n    /* \"#utility.yul\":213:218   */\n  0x00\n    /* \"#utility.yul\":244:250   */\n  dup2\n    /* \"#utility.yul\":238:251   */\n  mload\n    /* \"#utility.yul\":229:251   */\n  swap1\n  pop\n    /* \"#utility.yul\":260:293   */\n  tag_21\n    /* \"#utility.yul\":287:292   */\n  dup2\n    /* \"#utility.yul\":260:293   */\n  tag_22\n  jump\t// in\ntag_21:\n    /* \"#utility.yul\":156:299   */\n  swap3\n  swap2\n  pop\n  pop\n  jump\t// out\n    /* \"#utility.yul\":305:1125   */\ntag_3:\n    /* \"#utility.yul\":402:408   */\n  0x00\n    /* \"#utility.yul\":410:416   */\n  dup1\n    /* \"#utility.yul\":418:424   */\n  0x00\n    /* \"#utility.yul\":426:432   */\n  dup1\n    /* \"#utility.yul\":475:478   */\n  0x80\n    /* \"#utility.yul\":463:472   */\n  dup6\n    /* \"#utility.yul\":454:461   */\n  dup8\n    /* \"#utility.yul\":450:473   */\n  sub\n    /* \"#utility.yul\":446:479   */\n  slt\n    /* \"#utility.yul\":443:563   */\n  iszero\n  tag_24\n  jumpi\n    /* \"#utility.yul\":482:561   */\n  tag_25\n  tag_26\n  jump\t// in\ntag_25:\n    /* \"#utility.yul\":443:563   */\ntag_24:\n    /* \"#utility.yul\":602:603   */\n  0x00\n    /* \"#utility.yul\":627:691   */\n  tag_27\n    /* \"#utility.yul\":683:690   */\n  dup8\n    /* \"#utility.yul\":674:680   */\n  dup3\n    /* \"#utility.yul\":663:672   */\n  dup9\n    /* \"#utility.yul\":659:681   */\n  add\n    /* \"#utility.yul\":627:691   */\n  tag_19\n  jump\t// in\ntag_27:\n    /* \"#utility.yul\":617:691   */\n  swap5\n  pop\n    /* \"#utility.yul\":573:701   */\n  pop\n    /* \"#utility.yul\":740:742   */\n  0x20\n    /* \"#utility.yul\":766:830   */\n  tag_28\n    /* \"#utility.yul\":822:829   */\n  dup8\n    /* \"#utility.yul\":813:819   */\n  dup3\n    /* \"#utility.yul\":802:811   */\n  dup9\n    /* \"#utility.yul\":798:820   */\n  add\n    /* \"#utility.yul\":766:830   */\n  tag_19\n  jump\t// in\ntag_28:\n    /* \"#utility.yul\":756:830   */\n  swap4\n  pop\n    /* \"#utility.yul\":711:840   */\n  pop\n    /* \"#utility.yul\":879:881   */\n  0x40\n    /* \"#utility.yul\":905:969   */\n  tag_29\n    /* \"#utility.yul\":961:968   */\n  dup8\n    /* \"#utility.yul\":952:958   */\n  dup3\n    /* \"#utility.yul\":941:950   */\n  dup9\n    /* \"#utility.yul\":937:959   */\n  add\n    /* \"#utility.yul\":905:969   */\n  tag_15\n  jump\t// in\ntag_29:\n    /* \"#utility.yul\":895:969   */\n  swap3\n  pop\n    /* \"#utility.yul\":850:979   */\n  pop\n    /* \"#utility.yul\":1018:1020   */\n  0x60\n    /* \"#utility.yul\":1044:1108   */\n  tag_30\n    /* \"#utility.yul\":1100:1107   */\n  dup8\n    /* \"#utility.yul\":1091:1097   */\n  dup3\n    /* \"#utility.yul\":1080:1089   */\n  dup9\n    /* \"#utility.yul\":1076:1098   */\n  add\n    /* \"#utility.yul\":1044:1108   */\n  tag_19\n  jump\t// in\ntag_30:\n    /* \"#utility.yul\":1034:1108   */\n  swap2\n  pop\n    /* \"#utility.yul\":989:1118   */\n  pop\n    /* \"#utility.yul\":305:1125   */\n  swap3\n  swap6\n  swap2\n  swap5\n  pop\n  swap3\n  pop\n  jump\t// out\n    /* \"#utility.yul\":1131:1497   */\ntag_31:\n    /* \"#utility.yul\":1273:1276   */\n  0x00\n    /* \"#utility.yul\":1294:1361   */\n  tag_33\n    /* \"#utility.yul\":1358:1360   */\n  0x19\n    /* \"#utility.yul\":1353:1356   */\n  dup4\n    /* \"#utility.yul\":1294:1361   */\n  tag_34\n  jump\t// in\ntag_33:\n    /* \"#utility.yul\":1287:1361   */\n  swap2\n  pop\n    /* \"#utility.yul\":1370:1463   */\n  tag_35\n    /* \"#utility.yul\":1459:1462   */\n  dup3\n    /* \"#utility.yul\":1370:1463   */\n  tag_36\n  jump\t// in\ntag_35:\n    /* \"#utility.yul\":1488:1490   */\n  0x20\n    /* \"#utility.yul\":1483:1486   */\n  dup3\n    /* \"#utility.yul\":1479:1491   */\n  add\n    /* \"#utility.yul\":1472:1491   */\n  swap1\n  pop\n    /* \"#utility.yul\":1131:1497   */\n  swap2\n  swap1\n  pop\n  jump\t// out\n    /* \"#utility.yul\":1503:1922   */\ntag_12:\n    /* \"#utility.yul\":1669:1673   */\n  0x00\n    /* \"#utility.yul\":1707:1709   */\n  0x20\n    /* \"#utility.yul\":1696:1705   */\n  dup3\n    /* \"#utility.yul\":1692:1710   */\n  add\n    /* \"#utility.yul\":1684:1710   */\n  swap1\n  pop\n    /* \"#utility.yul\":1756:1765   */\n  dup2\n    /* \"#utility.yul\":1750:1754   */\n  dup2\n    /* \"#utility.yul\":1746:1766   */\n  sub\n    /* \"#utility.yul\":1742:1743   */\n  0x00\n    /* \"#utility.yul\":1731:1740   */\n  dup4\n    /* \"#utility.yul\":1727:1744   */\n  add\n    /* \"#utility.yul\":1720:1767   */\n  mstore\n    /* \"#utility.yul\":1784:1915   */\n  tag_38\n    /* \"#utility.yul\":1910:1914   */\n  dup2\n    /* \"#utility.yul\":1784:1915   */\n  tag_31\n  jump\t// in\ntag_38:\n    /* \"#utility.yul\":1776:1915   */\n  swap1\n  pop\n    /* \"#utility.yul\":1503:1922   */\n  swap2\n  swap1\n  pop\n  jump\t// out\n    /* \"#utility.yul\":2009:2178   */\ntag_34:\n    /* \"#utility.yul\":2093:2104   */\n  0x00\n    /* \"#utility.yul\":2127:2133   */\n  dup3\n    /* \"#utility.yul\":2122:2125   */\n  dup3\n    /* \"#utility.yul\":2115:2134   */\n  mstore\n    /* \"#utility.yul\":2167:2171   */\n  0x20\n    /* \"#utility.yul\":2162:2165   */\n  dup3\n    /* \"#utility.yul\":2158:2172   */\n  add\n    /* \"#utility.yul\":2143:2172   */\n  swap1\n  pop\n    /* \"#utility.yul\":2009:2178   */\n  swap3\n  swap2\n  pop\n  pop\n  jump\t// out\n    /* \"#utility.yul\":2184:2489   */\ntag_7:\n    /* \"#utility.yul\":2224:2227   */\n  0x00\n    /* \"#utility.yul\":2243:2263   */\n  tag_43\n    /* \"#utility.yul\":2261:2262   */\n  dup3\n    /* \"#utility.yul\":2243:2263   */\n  tag_44\n  jump\t// in\ntag_43:\n    /* \"#utility.yul\":2238:2263   */\n  swap2\n  pop\n    /* \"#utility.yul\":2277:2297   */\n  tag_45\n    /* \"#utility.yul\":2295:2296   */\n  dup4\n    /* \"#utility.yul\":2277:2297   */\n  tag_44\n  jump\t// in\ntag_45:\n    /* \"#utility.yul\":2272:2297   */\n  swap3\n  pop\n    /* \"#utility.yul\":2431:2432   */\n  dup3\n    /* \"#utility.yul\":2363:2429   */\n  0xffffffffffffffffffffffffffffffffffffffffffffffffffffffffffffffff\n    /* \"#utility.yul\":2359:2433   */\n  sub\n    /* \"#utility.yul\":2356:2357   */\n  dup3\n    /* \"#utility.yul\":2353:2434   */\n  gt\n    /* \"#utility.yul\":2350:2457   */\n  iszero\n  tag_46\n  jumpi\n    /* \"#utility.yul\":2437:2455   */\n  tag_47\n  tag_48\n  jump\t// in\ntag_47:\n    /* \"#utility.yul\":2350:2457   */\ntag_46:\n    /* \"#utility.yul\":2481:2482   */\n  dup3\n    /* \"#utility.yul\":2478:2479   */\n  dup3\n    /* \"#utility.yul\":2474:2483   */\n  add\n    /* \"#utility.yul\":2467:2483   */\n  swap1\n  pop\n    /* \"#utility.yul\":2184:2489   */\n  swap3\n  swap2\n  pop\n  pop\n  jump\t// out\n    /* \"#utility.yul\":2495:2843   */\ntag_9:\n    /* \"#utility.yul\":2535:2542   */\n  0x00\n    /* \"#utility.yul\":2558:2578   */\n  tag_50\n    /* \"#utility.yul\":2576:2577   */\n  dup3\n    /* \"#utility.yul\":2558:2578   */\n  tag_44\n  jump\t// in\ntag_50:\n    /* \"#utility.yul\":2553:2578   */\n  swap2\n  pop\n    /* \"#utility.yul\":2592:2612   */\n  tag_51\n    /* \"#utility.yul\":2610:2611   */\n  dup4\n    /* \"#utility.yul\":2592:2612   */\n  tag_44\n  jump\t// in\ntag_51:\n    /* \"#utility.yul\":2587:2612   */\n  swap3\n  pop\n    /* \"#utility.yul\":2780:2781   */\n  dup2\n    /* \"#utility.yul\":2712:2778   */\n  0xffffffffffffffffffffffffffffffffffffffffffffffffffffffffffffffff\n    /* \"#utility.yul\":2708:2782   */\n  div\n    /* \"#utility.yul\":2705:2706   */\n  dup4\n    /* \"#utility.yul\":2702:2783   */\n  gt\n    /* \"#utility.yul\":2697:2698   */\n  dup3\n    /* \"#utility.yul\":2690:2699   */\n  iszero\n    /* \"#utility.yul\":2683:2700   */\n  iszero\n    /* \"#utility.yul\":2679:2784   */\n  and\n    /* \"#utility.yul\":2676:2807   */\n  iszero\n  tag_52\n  jumpi\n    /* \"#utility.yul\":2787:2805   */\n  tag_53\n  tag_48\n  jump\t// in\ntag_53:\n    /* \"#utility.yul\":2676:2807   */\ntag_52:\n    /* \"#utility.yul\":2835:2836   */\n  dup3\n    /* \"#utility.yul\":2832:2833   */\n  dup3\n    /* \"#utility.yul\":2828:2837   */\n  mul\n    /* \"#utility.yul\":2817:2837   */\n  swap1\n  pop\n    /* \"#utility.yul\":2495:2843   */\n  swap3\n  swap2\n  pop\n  pop\n  jump\t// out\n    /* \"#utility.yul\":2849:2945   */\ntag_54:\n    /* \"#utility.yul\":2886:2893   */\n  0x00\n    /* \"#utility.yul\":2915:2939   */\n  tag_56\n    /* \"#utility.yul\":2933:2938   */\n  dup3\n    /* \"#utility.yul\":2915:2939   */\n  tag_57\n  jump\t// in\ntag_56:\n    /* \"#utility.yul\":2904:2939   */\n  swap1\n  pop\n    /* \"#utility.yul\":2849:2945   */\n  swap2\n  swap1\n  pop\n  jump\t// out\n    /* \"#utility.yul\":2951:3077   */\ntag_57:\n    /* \"#utility.yul\":2988:2995   */\n  0x00\n    /* \"#utility.yul\":3028:3070   */\n  0xffffffffffffffffffffffffffffffffffffffff\n    /* \"#utility.yul\":3021:3026   */\n  dup3\n    /* \"#utility.yul\":3017:3071   */\n  and\n    /* \"#utility.yul\":3006:3071   */\n  swap1\n  pop\n    /* \"#utility.yul\":2951:3077   */\n  swap2\n  swap1\n  pop\n  jump\t// out\n    /* \"#utility.yul\":3083:3160   */\ntag_44:\n    /* \"#utility.yul\":3120:3127   */\n  0x00\n    /* \"#utility.yul\":3149:3154   */\n  dup2\n    /* \"#utility.yul\":3138:3154   */\n  swap1\n  pop\n    /* \"#utility.yul\":3083:3160   */\n  swap2\n  swap1\n  pop\n  jump\t// out\n    /* \"#utility.yul\":3166:3346   */\ntag_48:\n    /* \"#utility.yul\":3214:3291   */\n  0x4e487b7100000000000000000000000000000000000000000000000000000000\n    /* \"#utility.yul\":3211:3212   */\n  0x00\n    /* \"#utility.yul\":3204:3292   */\n  mstore\n    /* \"#utility.yul\":3311:3315   */\n  0x11\n    /* \"#utility.yul\":3308:3309   */\n  0x04\n    /* \"#utility.yul\":3301:3316   */\n  mstore\n    /* \"#utility.yul\":3335:3339   */\n  0x24\n    /* \"#utility.yul\":3332:3333   */\n  0x00\n    /* \"#utility.yul\":3325:3340   */\n  revert\n    /* \"#utility.yul\":3475:3592   */\ntag_26:\n    /* \"#utility.yul\":3584:3585   */\n  0x00\n    /* \"#utility.yul\":3581:3582   */\n  dup1\n    /* \"#utility.yul\":3574:3586   */\n  revert\n    /* \"#utility.yul\":3598:3773   */\ntag_36:\n    /* \"#utility.yul\":3738:3765   */\n  0x5374617274696e6720707269636520697320746f6f206c6f7700000000000000\n    /* \"#utility.yul\":3734:3735   */\n  0x00\n    /* \"#utility.yul\":3726:3732   */\n  dup3\n    /* \"#utility.yul\":3722:3736   */\n  add\n    /* \"#utility.yul\":3715:3766   */\n  mstore\n    /* \"#utility.yul\":3598:3773   */\n  pop\n  jump\t// out\n    /* \"#utility.yul\":3779:3901   */\ntag_18:\n    /* \"#utility.yul\":3852:3876   */\n  tag_66\n    /* \"#utility.yul\":3870:3875   */\n  dup2\n    /* \"#utility.yul\":3852:3876   */\n  tag_54\n  jump\t// in\ntag_66:\n    /* \"#utility.yul\":3845:3850   */\n  dup2\n    /* \"#utility.yul\":3842:3877   */\n  eq\n    /* \"#utility.yul\":3832:3895   */\n  tag_67\n  jumpi\n    /* \"#utility.yul\":3891:3892   */\n  0x00\n    /* \"#utility.yul\":3888:3889   */\n  dup1\n    /* \"#utility.yul\":3881:3893   */\n  revert\n    /* \"#utility.yul\":3832:3895   */\ntag_67:\n    /* \"#utility.yul\":3779:3901   */\n  pop\n  jump\t// out\n    /* \"#utility.yul\":3907:4029   */\ntag_22:\n    /* \"#utility.yul\":3980:4004   */\n  tag_69\n    /* \"#utility.yul\":3998:4003   */\n  dup2\n    /* \"#utility.yul\":3980:4004   */\n  tag_44\n  jump\t// in\ntag_69:\n    /* \"#utility.yul\":3973:3978   */\n  dup2\n    /* \"#utility.yul\":3970:4005   */\n  eq\n    /* \"#utility.yul\":3960:4023   */\n  tag_70\n  jumpi\n    /* \"#utility.yul\":4019:4020   */\n  0x00\n    /* \"#utility.yul\":4016:4017   */\n  dup1\n    /* \"#utility.yul\":4009:4021   */\n  revert\n    /* \"#utility.yul\":3960:4023   */\ntag_70:\n    /* \"#utility.yul\":3907:4029   */\n  pop\n  jump\t// out\n    /* \"Contracts/carAuction.sol\":140:1590  contract carDutchAuction{\r... */\ntag_13:\n  shr(0x60, mload(0x80))\n  mload(0xa0)\n  shr(0x60, mload(0xc0))\n  mload(0xe0)\n  mload(0x0100)\n  codecopy(0x00, dataOffset(sub_0), dataSize(sub_0))\n  0x00\n  assignImmutable(\"0x58a280f74f57bf051c40f060139dc747e015be52f68c57e2c4ab2e4bd4146f43\")\n  0x00\n  assignImmutable(\"0x81e080ffc23e8b8d44dd829bc823229e92b893eb1d8f624419d3f5682eb97fc3\")\n  0x00\n  assignImmutable(\"0xf4c2b5de886427473655d4c904c743576dc2d53249b7535d96c06cc97ae7216b\")\n  0x00\n  assignImmutable(\"0x939eb54753ed0cc7e2272bfb34cbe098308c93936ed54d79078f76ade0b2e789\")\n  0x00\n  assignImmutable(\"0x8e8fab5f003314da8d1873ea7720e8d9f47650136d916064d1edb8a11d682624\")\n  return(0x00, dataSize(sub_0))\nstop\n\nsub_0: assembly {\n        /* \"Contracts/carAuction.sol\":140:1590  contract carDutchAuction{\r... */\n      mstore(0x40, 0x80)\n      jumpi(tag_1, lt(calldatasize, 0x04))\n      shr(0xe0, calldataload(0x00))\n      dup1\n      0xa6f2ae3a\n      gt\n      tag_11\n      jumpi\n      dup1\n      0xa6f2ae3a\n      eq\n      tag_6\n      jumpi\n      dup1\n      0xc6bc5182\n      eq\n      tag_7\n      jumpi\n      dup1\n      0xc7446565\n      eq\n      tag_8\n      jumpi\n      dup1\n      0xd6fbf202\n      eq\n      tag_9\n      jumpi\n      dup1\n      0xe6c0e6d5\n      eq\n      tag_10\n      jumpi\n      jump(tag_1)\n    tag_11:\n      dup1\n      0x08551a53\n      eq\n      tag_2\n      jumpi\n      dup1\n      0x0a09284a\n      eq\n      tag_3\n      jumpi\n      dup1\n      0x47ccca02\n      eq\n      tag_4\n      jumpi\n      dup1\n      0x98d5fdca\n      eq\n      tag_5\n      jumpi\n    tag_1:\n      0x00\n      dup1\n      revert\n        /* \"Contracts/carAuction.sol\":286:325  address payable public immutable seller */\n    tag_2:\n      callvalue\n      dup1\n      iszero\n      tag_12\n      jumpi\n      0x00\n      dup1\n      revert\n    tag_12:\n      pop\n      tag_13\n      tag_14\n      jump\t// in\n    tag_13:\n      mload(0x40)\n      tag_15\n      swap2\n      swap1\n      tag_16\n      jump\t// in\n    tag_15:\n      mload(0x40)\n      dup1\n      swap2\n      sub\n      swap1\n      return\n        /* \"Contracts/carAuction.sol\":401:429  uint immutable public endsAt */\n    tag_3:\n      callvalue\n      dup1\n      iszero\n      tag_17\n      jumpi\n      0x00\n      dup1\n      revert\n    tag_17:\n      pop\n      tag_18\n      tag_19\n      jump\t// in\n    tag_18:\n      mload(0x40)\n      tag_20\n      swap2\n      swap1\n      tag_21\n      jump\t// in\n    tag_20:\n      mload(0x40)\n      dup1\n      swap2\n      sub\n      swap1\n      return\n        /* \"Contracts/carAuction.sol\":217:245  IERC721 public immutable nft */\n    tag_4:\n      callvalue\n      dup1\n      iszero\n      tag_22\n      jumpi\n      0x00\n      dup1\n      revert\n    tag_22:\n      pop\n      tag_23\n      tag_24\n      jump\t// in\n    tag_23:\n      mload(0x40)\n      tag_25\n      swap2\n      swap1\n      tag_26\n      jump\t// in\n    tag_25:\n      mload(0x40)\n      dup1\n      swap2\n      sub\n      swap1\n      return\n        /* \"Contracts/carAuction.sol\":958:1164  function getPrice() external view returns(uint) {\r... */\n    tag_5:\n      callvalue\n      dup1\n      iszero\n      tag_27\n      jumpi\n      0x00\n      dup1\n      revert\n    tag_27:\n      pop\n      tag_28\n      tag_29\n      jump\t// in\n    tag_28:\n      mload(0x40)\n      tag_30\n      swap2\n      swap1\n      tag_21\n      jump\t// in\n    tag_30:\n      mload(0x40)\n      dup1\n      swap2\n      sub\n      swap1\n      return\n        /* \"Contracts/carAuction.sol\":1172:1582  function buy() payable external{\r... */\n    tag_6:\n      tag_31\n      tag_32\n      jump\t// in\n    tag_31:\n      stop\n        /* \"Contracts/carAuction.sol\":252:279  uint public immutable nftId */\n    tag_7:\n      callvalue\n      dup1\n      iszero\n      tag_33\n      jumpi\n      0x00\n      dup1\n      revert\n    tag_33:\n      pop\n      tag_34\n      tag_35\n      jump\t// in\n    tag_34:\n      mload(0x40)\n      tag_36\n      swap2\n      swap1\n      tag_21\n      jump\t// in\n    tag_36:\n      mload(0x40)\n      dup1\n      swap2\n      sub\n      swap1\n      return\n        /* \"Contracts/carAuction.sol\":365:394  uint immutable public startAt */\n    tag_8:\n      callvalue\n      dup1\n      iszero\n      tag_37\n      jumpi\n      0x00\n      dup1\n      revert\n    tag_37:\n      pop\n      tag_38\n      tag_39\n      jump\t// in\n    tag_38:\n      mload(0x40)\n      tag_40\n      swap2\n      swap1\n      tag_21\n      jump\t// in\n    tag_40:\n      mload(0x40)\n      dup1\n      swap2\n      sub\n      swap1\n      return\n        /* \"Contracts/carAuction.sol\":332:358  uint  public startingPrice */\n    tag_9:\n      callvalue\n      dup1\n      iszero\n      tag_41\n      jumpi\n      0x00\n      dup1\n      revert\n    tag_41:\n      pop\n      tag_42\n      tag_43\n      jump\t// in\n    tag_42:\n      mload(0x40)\n      tag_44\n      swap2\n      swap1\n      tag_21\n      jump\t// in\n    tag_44:\n      mload(0x40)\n      dup1\n      swap2\n      sub\n      swap1\n      return\n        /* \"Contracts/carAuction.sol\":436:462  uint  public  discountRate */\n    tag_10:\n      callvalue\n      dup1\n      iszero\n      tag_45\n      jumpi\n      0x00\n      dup1\n      revert\n    tag_45:\n      pop\n      tag_46\n      tag_47\n      jump\t// in\n    tag_46:\n      mload(0x40)\n      tag_48\n      swap2\n      swap1\n      tag_21\n      jump\t// in\n    tag_48:\n      mload(0x40)\n      dup1\n      swap2\n      sub\n      swap1\n      return\n        /* \"Contracts/carAuction.sol\":286:325  address payable public immutable seller */\n    tag_14:\n      immutable(\"0xf4c2b5de886427473655d4c904c743576dc2d53249b7535d96c06cc97ae7216b\")\n      dup2\n      jump\t// out\n        /* \"Contracts/carAuction.sol\":401:429  uint immutable public endsAt */\n    tag_19:\n      immutable(\"0x58a280f74f57bf051c40f060139dc747e015be52f68c57e2c4ab2e4bd4146f43\")\n      dup2\n      jump\t// out\n        /* \"Contracts/carAuction.sol\":217:245  IERC721 public immutable nft */\n    tag_24:\n      immutable(\"0x8e8fab5f003314da8d1873ea7720e8d9f47650136d916064d1edb8a11d682624\")\n      dup2\n      jump\t// out\n        /* \"Contracts/carAuction.sol\":958:1164  function getPrice() external view returns(uint) {\r... */\n    tag_29:\n        /* \"Contracts/carAuction.sol\":1000:1004  uint */\n      0x00\n        /* \"Contracts/carAuction.sol\":1017:1033  uint timeElapsed */\n      dup1\n        /* \"Contracts/carAuction.sol\":1054:1061  startAt */\n      immutable(\"0x81e080ffc23e8b8d44dd829bc823229e92b893eb1d8f624419d3f5682eb97fc3\")\n        /* \"Contracts/carAuction.sol\":1036:1051  block.timestamp */\n      timestamp\n        /* \"Contracts/carAuction.sol\":1036:1061  block.timestamp - startAt */\n      tag_50\n      swap2\n      swap1\n      tag_51\n      jump\t// in\n    tag_50:\n        /* \"Contracts/carAuction.sol\":1017:1061  uint timeElapsed = block.timestamp - startAt */\n      swap1\n      pop\n        /* \"Contracts/carAuction.sol\":1072:1085  uint discount */\n      0x00\n        /* \"Contracts/carAuction.sol\":1103:1114  timeElapsed */\n      dup2\n        /* \"Contracts/carAuction.sol\":1088:1100  discountRate */\n      sload(0x01)\n        /* \"Contracts/carAuction.sol\":1088:1114  discountRate * timeElapsed */\n      tag_52\n      swap2\n      swap1\n      tag_53\n      jump\t// in\n    tag_52:\n        /* \"Contracts/carAuction.sol\":1072:1114  uint discount = discountRate * timeElapsed */\n      swap1\n      pop\n        /* \"Contracts/carAuction.sol\":1148:1156  discount */\n      dup1\n        /* \"Contracts/carAuction.sol\":1132:1145  startingPrice */\n      sload(0x00)\n        /* \"Contracts/carAuction.sol\":1132:1156  startingPrice - discount */\n      tag_54\n      swap2\n      swap1\n      tag_51\n      jump\t// in\n    tag_54:\n        /* \"Contracts/carAuction.sol\":1125:1156  return startingPrice - discount */\n      swap3\n      pop\n      pop\n      pop\n        /* \"Contracts/carAuction.sol\":958:1164  function getPrice() external view returns(uint) {\r... */\n      swap1\n      jump\t// out\n        /* \"Contracts/carAuction.sol\":1172:1582  function buy() payable external{\r... */\n    tag_32:\n        /* \"Contracts/carAuction.sol\":1240:1246  endsAt */\n      immutable(\"0x58a280f74f57bf051c40f060139dc747e015be52f68c57e2c4ab2e4bd4146f43\")\n        /* \"Contracts/carAuction.sol\":1222:1237  block.timestamp */\n      timestamp\n        /* \"Contracts/carAuction.sol\":1222:1246  block.timestamp < endsAt */\n      lt\n        /* \"Contracts/carAuction.sol\":1214:1266  require(block.timestamp < endsAt, \"auction expired\") */\n      tag_56\n      jumpi\n      mload(0x40)\n      0x08c379a000000000000000000000000000000000000000000000000000000000\n      dup2\n      mstore\n      0x04\n      add\n      tag_57\n      swap1\n      tag_58\n      jump\t// in\n    tag_57:\n      mload(0x40)\n      dup1\n      swap2\n      sub\n      swap1\n      revert\n    tag_56:\n        /* \"Contracts/carAuction.sol\":1277:1287  uint price */\n      0x00\n        /* \"Contracts/carAuction.sol\":1291:1295  this */\n      address\n        /* \"Contracts/carAuction.sol\":1290:1305  (this).getPrice */\n      0xffffffffffffffffffffffffffffffffffffffff\n      and\n      0x98d5fdca\n        /* \"Contracts/carAuction.sol\":1290:1307  (this).getPrice() */\n      mload(0x40)\n      dup2\n      0xffffffff\n      and\n      0xe0\n      shl\n      dup2\n      mstore\n      0x04\n      add\n      0x20\n      mload(0x40)\n      dup1\n      dup4\n      sub\n      dup2\n      dup7\n      dup1\n      extcodesize\n      iszero\n      dup1\n      iszero\n      tag_59\n      jumpi\n      0x00\n      dup1\n      revert\n    tag_59:\n      pop\n      gas\n      staticcall\n      iszero\n      dup1\n      iszero\n      tag_61\n      jumpi\n      returndatasize\n      0x00\n      dup1\n      returndatacopy\n      revert(0x00, returndatasize)\n    tag_61:\n      pop\n      pop\n      pop\n      pop\n      mload(0x40)\n      returndatasize\n      not(0x1f)\n      0x1f\n      dup3\n      add\n      and\n      dup3\n      add\n      dup1\n      0x40\n      mstore\n      pop\n      dup2\n      add\n      swap1\n      tag_62\n      swap2\n      swap1\n      tag_63\n      jump\t// in\n    tag_62:\n        /* \"Contracts/carAuction.sol\":1277:1307  uint price = (this).getPrice() */\n      swap1\n      pop\n        /* \"Contracts/carAuction.sol\":1339:1344  price */\n      dup1\n        /* \"Contracts/carAuction.sol\":1326:1335  msg.value */\n      callvalue\n        /* \"Contracts/carAuction.sol\":1326:1344  msg.value >= price */\n      lt\n      iszero\n        /* \"Contracts/carAuction.sol\":1318:1349  require(msg.value >= price, \"\") */\n      tag_64\n      jumpi\n      mload(0x40)\n      0x08c379a000000000000000000000000000000000000000000000000000000000\n      dup2\n      mstore\n      0x04\n      add\n      tag_65\n      swap1\n      tag_66\n      jump\t// in\n    tag_65:\n      mload(0x40)\n      dup1\n      swap2\n      sub\n      swap1\n      revert\n    tag_64:\n        /* \"Contracts/carAuction.sol\":1360:1363  nft */\n      immutable(\"0x8e8fab5f003314da8d1873ea7720e8d9f47650136d916064d1edb8a11d682624\")\n        /* \"Contracts/carAuction.sol\":1360:1376  nft.transferFrom */\n      0xffffffffffffffffffffffffffffffffffffffff\n      and\n      0x23b872dd\n        /* \"Contracts/carAuction.sol\":1377:1383  seller */\n      immutable(\"0xf4c2b5de886427473655d4c904c743576dc2d53249b7535d96c06cc97ae7216b\")\n        /* \"Contracts/carAuction.sol\":1393:1403  msg.sender */\n      caller\n        /* \"Contracts/carAuction.sol\":1406:1411  nftId */\n      immutable(\"0x939eb54753ed0cc7e2272bfb34cbe098308c93936ed54d79078f76ade0b2e789\")\n        /* \"Contracts/carAuction.sol\":1360:1412  nft.transferFrom(seller, payable(msg.sender), nftId) */\n      mload(0x40)\n      dup5\n      0xffffffff\n      and\n      0xe0\n      shl\n      dup2\n      mstore\n      0x04\n      add\n      tag_67\n      swap4\n      swap3\n      swap2\n      swap1\n      tag_68\n      jump\t// in\n    tag_67:\n      0x00\n      mload(0x40)\n      dup1\n      dup4\n      sub\n      dup2\n      0x00\n      dup8\n      dup1\n      extcodesize\n      iszero\n      dup1\n      iszero\n      tag_69\n      jumpi\n      0x00\n      dup1\n      revert\n    tag_69:\n      pop\n      gas\n      call\n      iszero\n      dup1\n      iszero\n      tag_71\n      jumpi\n      returndatasize\n      0x00\n      dup1\n      returndatacopy\n      revert(0x00, returndatasize)\n    tag_71:\n      pop\n      pop\n      pop\n      pop\n        /* \"Contracts/carAuction.sol\":1423:1434  uint refund */\n      0x00\n        /* \"Contracts/carAuction.sol\":1449:1454  price */\n      dup2\n        /* \"Contracts/carAuction.sol\":1437:1446  msg.value */\n      callvalue\n        /* \"Contracts/carAuction.sol\":1437:1454  msg.value - price */\n      tag_72\n      swap2\n      swap1\n      tag_51\n      jump\t// in\n    tag_72:\n        /* \"Contracts/carAuction.sol\":1423:1454  uint refund = msg.value - price */\n      swap1\n      pop\n        /* \"Contracts/carAuction.sol\":1478:1479  0 */\n      0x00\n        /* \"Contracts/carAuction.sol\":1469:1475  refund */\n      dup2\n        /* \"Contracts/carAuction.sol\":1469:1479  refund > 0 */\n      gt\n        /* \"Contracts/carAuction.sol\":1465:1544  if (refund > 0){\r... */\n      iszero\n      tag_73\n      jumpi\n        /* \"Contracts/carAuction.sol\":1503:1513  msg.sender */\n      caller\n        /* \"Contracts/carAuction.sol\":1495:1523  payable(msg.sender).transfer */\n      0xffffffffffffffffffffffffffffffffffffffff\n      and\n        /* \"Contracts/carAuction.sol\":1495:1531  payable(msg.sender).transfer(refund) */\n      0x08fc\n        /* \"Contracts/carAuction.sol\":1524:1530  refund */\n      dup3\n        /* \"Contracts/carAuction.sol\":1495:1531  payable(msg.sender).transfer(refund) */\n      swap1\n      dup2\n      iszero\n      mul\n      swap1\n      mload(0x40)\n      0x00\n      mload(0x40)\n      dup1\n      dup4\n      sub\n      dup2\n      dup6\n      dup9\n      dup9\n      call\n      swap4\n      pop\n      pop\n      pop\n      pop\n      iszero\n      dup1\n      iszero\n      tag_75\n      jumpi\n      returndatasize\n      0x00\n      dup1\n      returndatacopy\n      revert(0x00, returndatasize)\n    tag_75:\n      pop\n        /* \"Contracts/carAuction.sol\":1465:1544  if (refund > 0){\r... */\n    tag_73:\n        /* \"Contracts/carAuction.sol\":1567:1573  seller */\n      immutable(\"0xf4c2b5de886427473655d4c904c743576dc2d53249b7535d96c06cc97ae7216b\")\n        /* \"Contracts/carAuction.sol\":1554:1574  selfdestruct(seller) */\n      0xffffffffffffffffffffffffffffffffffffffff\n      and\n      selfdestruct\n        /* \"Contracts/carAuction.sol\":252:279  uint public immutable nftId */\n    tag_35:\n      immutable(\"0x939eb54753ed0cc7e2272bfb34cbe098308c93936ed54d79078f76ade0b2e789\")\n      dup2\n      jump\t// out\n        /* \"Contracts/carAuction.sol\":365:394  uint immutable public startAt */\n    tag_39:\n      immutable(\"0x81e080ffc23e8b8d44dd829bc823229e92b893eb1d8f624419d3f5682eb97fc3\")\n      dup2\n      jump\t// out\n        /* \"Contracts/carAuction.sol\":332:358  uint  public startingPrice */\n    tag_43:\n      sload(0x00)\n      dup2\n      jump\t// out\n        /* \"Contracts/carAuction.sol\":436:462  uint  public  discountRate */\n    tag_47:\n      sload(0x01)\n      dup2\n      jump\t// out\n        /* \"#utility.yul\":7:150   */\n    tag_77:\n        /* \"#utility.yul\":64:69   */\n      0x00\n        /* \"#utility.yul\":95:101   */\n      dup2\n        /* \"#utility.yul\":89:102   */\n      mload\n        /* \"#utility.yul\":80:102   */\n      swap1\n      pop\n        /* \"#utility.yul\":111:144   */\n      tag_79\n        /* \"#utility.yul\":138:143   */\n      dup2\n        /* \"#utility.yul\":111:144   */\n      tag_80\n      jump\t// in\n    tag_79:\n        /* \"#utility.yul\":7:150   */\n      swap3\n      swap2\n      pop\n      pop\n      jump\t// out\n        /* \"#utility.yul\":156:507   */\n    tag_63:\n        /* \"#utility.yul\":226:232   */\n      0x00\n        /* \"#utility.yul\":275:277   */\n      0x20\n        /* \"#utility.yul\":263:272   */\n      dup3\n        /* \"#utility.yul\":254:261   */\n      dup5\n        /* \"#utility.yul\":250:273   */\n      sub\n        /* \"#utility.yul\":246:278   */\n      slt\n        /* \"#utility.yul\":243:362   */\n      iszero\n      tag_82\n      jumpi\n        /* \"#utility.yul\":281:360   */\n      tag_83\n      tag_84\n      jump\t// in\n    tag_83:\n        /* \"#utility.yul\":243:362   */\n    tag_82:\n        /* \"#utility.yul\":401:402   */\n      0x00\n        /* \"#utility.yul\":426:490   */\n      tag_85\n        /* \"#utility.yul\":482:489   */\n      dup5\n        /* \"#utility.yul\":473:479   */\n      dup3\n        /* \"#utility.yul\":462:471   */\n      dup6\n        /* \"#utility.yul\":458:480   */\n      add\n        /* \"#utility.yul\":426:490   */\n      tag_77\n      jump\t// in\n    tag_85:\n        /* \"#utility.yul\":416:490   */\n      swap2\n      pop\n        /* \"#utility.yul\":372:500   */\n      pop\n        /* \"#utility.yul\":156:507   */\n      swap3\n      swap2\n      pop\n      pop\n      jump\t// out\n        /* \"#utility.yul\":513:660   */\n    tag_86:\n        /* \"#utility.yul\":608:653   */\n      tag_88\n        /* \"#utility.yul\":647:652   */\n      dup2\n        /* \"#utility.yul\":608:653   */\n      tag_89\n      jump\t// in\n    tag_88:\n        /* \"#utility.yul\":603:606   */\n      dup3\n        /* \"#utility.yul\":596:654   */\n      mstore\n        /* \"#utility.yul\":513:660   */\n      pop\n      pop\n      jump\t// out\n        /* \"#utility.yul\":666:808   */\n    tag_90:\n        /* \"#utility.yul\":769:801   */\n      tag_92\n        /* \"#utility.yul\":795:800   */\n      dup2\n        /* \"#utility.yul\":769:801   */\n      tag_93\n      jump\t// in\n    tag_92:\n        /* \"#utility.yul\":764:767   */\n      dup3\n        /* \"#utility.yul\":757:802   */\n      mstore\n        /* \"#utility.yul\":666:808   */\n      pop\n      pop\n      jump\t// out\n        /* \"#utility.yul\":814:973   */\n    tag_94:\n        /* \"#utility.yul\":915:966   */\n      tag_96\n        /* \"#utility.yul\":960:965   */\n      dup2\n        /* \"#utility.yul\":915:966   */\n      tag_97\n      jump\t// in\n    tag_96:\n        /* \"#utility.yul\":910:913   */\n      dup3\n        /* \"#utility.yul\":903:967   */\n      mstore\n        /* \"#utility.yul\":814:973   */\n      pop\n      pop\n      jump\t// out\n        /* \"#utility.yul\":979:1343   */\n    tag_98:\n        /* \"#utility.yul\":1121:1124   */\n      0x00\n        /* \"#utility.yul\":1142:1208   */\n      tag_100\n        /* \"#utility.yul\":1206:1207   */\n      0x00\n        /* \"#utility.yul\":1201:1204   */\n      dup4\n        /* \"#utility.yul\":1142:1208   */\n      tag_101\n      jump\t// in\n    tag_100:\n        /* \"#utility.yul\":1135:1208   */\n      swap2\n      pop\n        /* \"#utility.yul\":1217:1310   */\n      tag_102\n        /* \"#utility.yul\":1306:1309   */\n      dup3\n        /* \"#utility.yul\":1217:1310   */\n      tag_103\n      jump\t// in\n    tag_102:\n        /* \"#utility.yul\":1335:1336   */\n      0x00\n        /* \"#utility.yul\":1330:1333   */\n      dup3\n        /* \"#utility.yul\":1326:1337   */\n      add\n        /* \"#utility.yul\":1319:1337   */\n      swap1\n      pop\n        /* \"#utility.yul\":979:1343   */\n      swap2\n      swap1\n      pop\n      jump\t// out\n        /* \"#utility.yul\":1349:1715   */\n    tag_104:\n        /* \"#utility.yul\":1491:1494   */\n      0x00\n        /* \"#utility.yul\":1512:1579   */\n      tag_106\n        /* \"#utility.yul\":1576:1578   */\n      0x0f\n        /* \"#utility.yul\":1571:1574   */\n      dup4\n        /* \"#utility.yul\":1512:1579   */\n      tag_101\n      jump\t// in\n    tag_106:\n        /* \"#utility.yul\":1505:1579   */\n      swap2\n      pop\n        /* \"#utility.yul\":1588:1681   */\n      tag_107\n        /* \"#utility.yul\":1677:1680   */\n      dup3\n        /* \"#utility.yul\":1588:1681   */\n      tag_108\n      jump\t// in\n    tag_107:\n        /* \"#utility.yul\":1706:1708   */\n      0x20\n        /* \"#utility.yul\":1701:1704   */\n      dup3\n        /* \"#utility.yul\":1697:1709   */\n      add\n        /* \"#utility.yul\":1690:1709   */\n      swap1\n      pop\n        /* \"#utility.yul\":1349:1715   */\n      swap2\n      swap1\n      pop\n      jump\t// out\n        /* \"#utility.yul\":1721:1839   */\n    tag_109:\n        /* \"#utility.yul\":1808:1832   */\n      tag_111\n        /* \"#utility.yul\":1826:1831   */\n      dup2\n        /* \"#utility.yul\":1808:1832   */\n      tag_112\n      jump\t// in\n    tag_111:\n        /* \"#utility.yul\":1803:1806   */\n      dup3\n        /* \"#utility.yul\":1796:1833   */\n      mstore\n        /* \"#utility.yul\":1721:1839   */\n      pop\n      pop\n      jump\t// out\n        /* \"#utility.yul\":1845:2099   */\n    tag_16:\n        /* \"#utility.yul\":1954:1958   */\n      0x00\n        /* \"#utility.yul\":1992:1994   */\n      0x20\n        /* \"#utility.yul\":1981:1990   */\n      dup3\n        /* \"#utility.yul\":1977:1995   */\n      add\n        /* \"#utility.yul\":1969:1995   */\n      swap1\n      pop\n        /* \"#utility.yul\":2005:2092   */\n      tag_114\n        /* \"#utility.yul\":2089:2090   */\n      0x00\n        /* \"#utility.yul\":2078:2087   */\n      dup4\n        /* \"#utility.yul\":2074:2091   */\n      add\n        /* \"#utility.yul\":2065:2071   */\n      dup5\n        /* \"#utility.yul\":2005:2092   */\n      tag_90\n      jump\t// in\n    tag_114:\n        /* \"#utility.yul\":1845:2099   */\n      swap3\n      swap2\n      pop\n      pop\n      jump\t// out\n        /* \"#utility.yul\":2105:2579   */\n    tag_68:\n        /* \"#utility.yul\":2270:2274   */\n      0x00\n        /* \"#utility.yul\":2308:2310   */\n      0x60\n        /* \"#utility.yul\":2297:2306   */\n      dup3\n        /* \"#utility.yul\":2293:2311   */\n      add\n        /* \"#utility.yul\":2285:2311   */\n      swap1\n      pop\n        /* \"#utility.yul\":2321:2400   */\n      tag_116\n        /* \"#utility.yul\":2397:2398   */\n      0x00\n        /* \"#utility.yul\":2386:2395   */\n      dup4\n        /* \"#utility.yul\":2382:2399   */\n      add\n        /* \"#utility.yul\":2373:2379   */\n      dup7\n        /* \"#utility.yul\":2321:2400   */\n      tag_86\n      jump\t// in\n    tag_116:\n        /* \"#utility.yul\":2410:2490   */\n      tag_117\n        /* \"#utility.yul\":2486:2488   */\n      0x20\n        /* \"#utility.yul\":2475:2484   */\n      dup4\n        /* \"#utility.yul\":2471:2489   */\n      add\n        /* \"#utility.yul\":2462:2468   */\n      dup6\n        /* \"#utility.yul\":2410:2490   */\n      tag_86\n      jump\t// in\n    tag_117:\n        /* \"#utility.yul\":2500:2572   */\n      tag_118\n        /* \"#utility.yul\":2568:2570   */\n      0x40\n        /* \"#utility.yul\":2557:2566   */\n      dup4\n        /* \"#utility.yul\":2553:2571   */\n      add\n        /* \"#utility.yul\":2544:2550   */\n      dup5\n        /* \"#utility.yul\":2500:2572   */\n      tag_109\n      jump\t// in\n    tag_118:\n        /* \"#utility.yul\":2105:2579   */\n      swap5\n      swap4\n      pop\n      pop\n      pop\n      pop\n      jump\t// out\n        /* \"#utility.yul\":2585:2835   */\n    tag_26:\n        /* \"#utility.yul\":2692:2696   */\n      0x00\n        /* \"#utility.yul\":2730:2732   */\n      0x20\n        /* \"#utility.yul\":2719:2728   */\n      dup3\n        /* \"#utility.yul\":2715:2733   */\n      add\n        /* \"#utility.yul\":2707:2733   */\n      swap1\n      pop\n        /* \"#utility.yul\":2743:2828   */\n      tag_120\n        /* \"#utility.yul\":2825:2826   */\n      0x00\n        /* \"#utility.yul\":2814:2823   */\n      dup4\n        /* \"#utility.yul\":2810:2827   */\n      add\n        /* \"#utility.yul\":2801:2807   */\n      dup5\n        /* \"#utility.yul\":2743:2828   */\n      tag_94\n      jump\t// in\n    tag_120:\n        /* \"#utility.yul\":2585:2835   */\n      swap3\n      swap2\n      pop\n      pop\n      jump\t// out\n        /* \"#utility.yul\":2841:3260   */\n    tag_66:\n        /* \"#utility.yul\":3007:3011   */\n      0x00\n        /* \"#utility.yul\":3045:3047   */\n      0x20\n        /* \"#utility.yul\":3034:3043   */\n      dup3\n        /* \"#utility.yul\":3030:3048   */\n      add\n        /* \"#utility.yul\":3022:3048   */\n      swap1\n      pop\n        /* \"#utility.yul\":3094:3103   */\n      dup2\n        /* \"#utility.yul\":3088:3092   */\n      dup2\n        /* \"#utility.yul\":3084:3104   */\n      sub\n        /* \"#utility.yul\":3080:3081   */\n      0x00\n        /* \"#utility.yul\":3069:3078   */\n      dup4\n        /* \"#utility.yul\":3065:3082   */\n      add\n        /* \"#utility.yul\":3058:3105   */\n      mstore\n        /* \"#utility.yul\":3122:3253   */\n      tag_122\n        /* \"#utility.yul\":3248:3252   */\n      dup2\n        /* \"#utility.yul\":3122:3253   */\n      tag_98\n      jump\t// in\n    tag_122:\n        /* \"#utility.yul\":3114:3253   */\n      swap1\n      pop\n        /* \"#utility.yul\":2841:3260   */\n      swap2\n      swap1\n      pop\n      jump\t// out\n        /* \"#utility.yul\":3266:3685   */\n    tag_58:\n        /* \"#utility.yul\":3432:3436   */\n      0x00\n        /* \"#utility.yul\":3470:3472   */\n      0x20\n        /* \"#utility.yul\":3459:3468   */\n      dup3\n        /* \"#utility.yul\":3455:3473   */\n      add\n        /* \"#utility.yul\":3447:3473   */\n      swap1\n      pop\n        /* \"#utility.yul\":3519:3528   */\n      dup2\n        /* \"#utility.yul\":3513:3517   */\n      dup2\n        /* \"#utility.yul\":3509:3529   */\n      sub\n        /* \"#utility.yul\":3505:3506   */\n      0x00\n        /* \"#utility.yul\":3494:3503   */\n      dup4\n        /* \"#utility.yul\":3490:3507   */\n      add\n        /* \"#utility.yul\":3483:3530   */\n      mstore\n        /* \"#utility.yul\":3547:3678   */\n      tag_124\n        /* \"#utility.yul\":3673:3677   */\n      dup2\n        /* \"#utility.yul\":3547:3678   */\n      tag_104\n      jump\t// in\n    tag_124:\n        /* \"#utility.yul\":3539:3678   */\n      swap1\n      pop\n        /* \"#utility.yul\":3266:3685   */\n      swap2\n      swap1\n      pop\n      jump\t// out\n        /* \"#utility.yul\":3691:3913   */\n    tag_21:\n        /* \"#utility.yul\":3784:3788   */\n      0x00\n        /* \"#utility.yul\":3822:3824   */\n      0x20\n        /* \"#utility.yul\":3811:3820   */\n      dup3\n        /* \"#utility.yul\":3807:3825   */\n      add\n        /* \"#utility.yul\":3799:3825   */\n      swap1\n      pop\n        /* \"#utility.yul\":3835:3906   */\n      tag_126\n        /* \"#utility.yul\":3903:3904   */\n      0x00\n        /* \"#utility.yul\":3892:3901   */\n      dup4\n        /* \"#utility.yul\":3888:3905   */\n      add\n        /* \"#utility.yul\":3879:3885   */\n      dup5\n        /* \"#utility.yul\":3835:3906   */\n      tag_109\n      jump\t// in\n    tag_126:\n        /* \"#utility.yul\":3691:3913   */\n      swap3\n      swap2\n      pop\n      pop\n      jump\t// out\n        /* \"#utility.yul\":4000:4169   */\n    tag_101:\n        /* \"#utility.yul\":4084:4095   */\n      0x00\n        /* \"#utility.yul\":4118:4124   */\n      dup3\n        /* \"#utility.yul\":4113:4116   */\n      dup3\n        /* \"#utility.yul\":4106:4125   */\n      mstore\n        /* \"#utility.yul\":4158:4162   */\n      0x20\n        /* \"#utility.yul\":4153:4156   */\n      dup3\n        /* \"#utility.yul\":4149:4163   */\n      add\n        /* \"#utility.yul\":4134:4163   */\n      swap1\n      pop\n        /* \"#utility.yul\":4000:4169   */\n      swap3\n      swap2\n      pop\n      pop\n      jump\t// out\n        /* \"#utility.yul\":4175:4523   */\n    tag_53:\n        /* \"#utility.yul\":4215:4222   */\n      0x00\n        /* \"#utility.yul\":4238:4258   */\n      tag_131\n        /* \"#utility.yul\":4256:4257   */\n      dup3\n        /* \"#utility.yul\":4238:4258   */\n      tag_112\n      jump\t// in\n    tag_131:\n        /* \"#utility.yul\":4233:4258   */\n      swap2\n      pop\n        /* \"#utility.yul\":4272:4292   */\n      tag_132\n        /* \"#utility.yul\":4290:4291   */\n      dup4\n        /* \"#utility.yul\":4272:4292   */\n      tag_112\n      jump\t// in\n    tag_132:\n        /* \"#utility.yul\":4267:4292   */\n      swap3\n      pop\n        /* \"#utility.yul\":4460:4461   */\n      dup2\n        /* \"#utility.yul\":4392:4458   */\n      0xffffffffffffffffffffffffffffffffffffffffffffffffffffffffffffffff\n        /* \"#utility.yul\":4388:4462   */\n      div\n        /* \"#utility.yul\":4385:4386   */\n      dup4\n        /* \"#utility.yul\":4382:4463   */\n      gt\n        /* \"#utility.yul\":4377:4378   */\n      dup3\n        /* \"#utility.yul\":4370:4379   */\n      iszero\n        /* \"#utility.yul\":4363:4380   */\n      iszero\n        /* \"#utility.yul\":4359:4464   */\n      and\n        /* \"#utility.yul\":4356:4487   */\n      iszero\n      tag_133\n      jumpi\n        /* \"#utility.yul\":4467:4485   */\n      tag_134\n      tag_135\n      jump\t// in\n    tag_134:\n        /* \"#utility.yul\":4356:4487   */\n    tag_133:\n        /* \"#utility.yul\":4515:4516   */\n      dup3\n        /* \"#utility.yul\":4512:4513   */\n      dup3\n        /* \"#utility.yul\":4508:4517   */\n      mul\n        /* \"#utility.yul\":4497:4517   */\n      swap1\n      pop\n        /* \"#utility.yul\":4175:4523   */\n      swap3\n      swap2\n      pop\n      pop\n      jump\t// out\n        /* \"#utility.yul\":4529:4720   */\n    tag_51:\n        /* \"#utility.yul\":4569:4573   */\n      0x00\n        /* \"#utility.yul\":4589:4609   */\n      tag_137\n        /* \"#utility.yul\":4607:4608   */\n      dup3\n        /* \"#utility.yul\":4589:4609   */\n      tag_112\n      jump\t// in\n    tag_137:\n        /* \"#utility.yul\":4584:4609   */\n      swap2\n      pop\n        /* \"#utility.yul\":4623:4643   */\n      tag_138\n        /* \"#utility.yul\":4641:4642   */\n      dup4\n        /* \"#utility.yul\":4623:4643   */\n      tag_112\n      jump\t// in\n    tag_138:\n        /* \"#utility.yul\":4618:4643   */\n      swap3\n      pop\n        /* \"#utility.yul\":4662:4663   */\n      dup3\n        /* \"#utility.yul\":4659:4660   */\n      dup3\n        /* \"#utility.yul\":4656:4664   */\n      lt\n        /* \"#utility.yul\":4653:4687   */\n      iszero\n      tag_139\n      jumpi\n        /* \"#utility.yul\":4667:4685   */\n      tag_140\n      tag_135\n      jump\t// in\n    tag_140:\n        /* \"#utility.yul\":4653:4687   */\n    tag_139:\n        /* \"#utility.yul\":4712:4713   */\n      dup3\n        /* \"#utility.yul\":4709:4710   */\n      dup3\n        /* \"#utility.yul\":4705:4714   */\n      sub\n        /* \"#utility.yul\":4697:4714   */\n      swap1\n      pop\n        /* \"#utility.yul\":4529:4720   */\n      swap3\n      swap2\n      pop\n      pop\n      jump\t// out\n        /* \"#utility.yul\":4726:4830   */\n    tag_93:\n        /* \"#utility.yul\":4771:4778   */\n      0x00\n        /* \"#utility.yul\":4800:4824   */\n      tag_142\n        /* \"#utility.yul\":4818:4823   */\n      dup3\n        /* \"#utility.yul\":4800:4824   */\n      tag_143\n      jump\t// in\n    tag_142:\n        /* \"#utility.yul\":4789:4824   */\n      swap1\n      pop\n        /* \"#utility.yul\":4726:4830   */\n      swap2\n      swap1\n      pop\n      jump\t// out\n        /* \"#utility.yul\":4836:4962   */\n    tag_143:\n        /* \"#utility.yul\":4873:4880   */\n      0x00\n        /* \"#utility.yul\":4913:4955   */\n      0xffffffffffffffffffffffffffffffffffffffff\n        /* \"#utility.yul\":4906:4911   */\n      dup3\n        /* \"#utility.yul\":4902:4956   */\n      and\n        /* \"#utility.yul\":4891:4956   */\n      swap1\n      pop\n        /* \"#utility.yul\":4836:4962   */\n      swap2\n      swap1\n      pop\n      jump\t// out\n        /* \"#utility.yul\":4968:5045   */\n    tag_112:\n        /* \"#utility.yul\":5005:5012   */\n      0x00\n        /* \"#utility.yul\":5034:5039   */\n      dup2\n        /* \"#utility.yul\":5023:5039   */\n      swap1\n      pop\n        /* \"#utility.yul\":4968:5045   */\n      swap2\n      swap1\n      pop\n      jump\t// out\n        /* \"#utility.yul\":5051:5185   */\n    tag_89:\n        /* \"#utility.yul\":5109:5118   */\n      0x00\n        /* \"#utility.yul\":5142:5179   */\n      tag_147\n        /* \"#utility.yul\":5173:5178   */\n      dup3\n        /* \"#utility.yul\":5142:5179   */\n      tag_148\n      jump\t// in\n    tag_147:\n        /* \"#utility.yul\":5129:5179   */\n      swap1\n      pop\n        /* \"#utility.yul\":5051:5185   */\n      swap2\n      swap1\n      pop\n      jump\t// out\n        /* \"#utility.yul\":5191:5331   */\n    tag_97:\n        /* \"#utility.yul\":5255:5264   */\n      0x00\n        /* \"#utility.yul\":5288:5325   */\n      tag_150\n        /* \"#utility.yul\":5319:5324   */\n      dup3\n        /* \"#utility.yul\":5288:5325   */\n      tag_148\n      jump\t// in\n    tag_150:\n        /* \"#utility.yul\":5275:5325   */\n      swap1\n      pop\n        /* \"#utility.yul\":5191:5331   */\n      swap2\n      swap1\n      pop\n      jump\t// out\n        /* \"#utility.yul\":5337:5463   */\n    tag_148:\n        /* \"#utility.yul\":5387:5396   */\n      0x00\n        /* \"#utility.yul\":5420:5457   */\n      tag_152\n        /* \"#utility.yul\":5451:5456   */\n      dup3\n        /* \"#utility.yul\":5420:5457   */\n      tag_153\n      jump\t// in\n    tag_152:\n        /* \"#utility.yul\":5407:5457   */\n      swap1\n      pop\n        /* \"#utility.yul\":5337:5463   */\n      swap2\n      swap1\n      pop\n      jump\t// out\n        /* \"#utility.yul\":5469:5582   */\n    tag_153:\n        /* \"#utility.yul\":5519:5528   */\n      0x00\n        /* \"#utility.yul\":5552:5576   */\n      tag_155\n        /* \"#utility.yul\":5570:5575   */\n      dup3\n        /* \"#utility.yul\":5552:5576   */\n      tag_143\n      jump\t// in\n    tag_155:\n        /* \"#utility.yul\":5539:5576   */\n      swap1\n      pop\n        /* \"#utility.yul\":5469:5582   */\n      swap2\n      swap1\n      pop\n      jump\t// out\n        /* \"#utility.yul\":5588:5768   */\n    tag_135:\n        /* \"#utility.yul\":5636:5713   */\n      0x4e487b7100000000000000000000000000000000000000000000000000000000\n        /* \"#utility.yul\":5633:5634   */\n      0x00\n        /* \"#utility.yul\":5626:5714   */\n      mstore\n        /* \"#utility.yul\":5733:5737   */\n      0x11\n        /* \"#utility.yul\":5730:5731   */\n      0x04\n        /* \"#utility.yul\":5723:5738   */\n      mstore\n        /* \"#utility.yul\":5757:5761   */\n      0x24\n        /* \"#utility.yul\":5754:5755   */\n      0x00\n        /* \"#utility.yul\":5747:5762   */\n      revert\n        /* \"#utility.yul\":5897:6014   */\n    tag_84:\n        /* \"#utility.yul\":6006:6007   */\n      0x00\n        /* \"#utility.yul\":6003:6004   */\n      dup1\n        /* \"#utility.yul\":5996:6008   */\n      revert\n        /* \"#utility.yul\":6020:6134   */\n    tag_103:\n      pop\n      jump\t// out\n        /* \"#utility.yul\":6140:6305   */\n    tag_108:\n        /* \"#utility.yul\":6280:6297   */\n      0x61756374696f6e20657870697265640000000000000000000000000000000000\n        /* \"#utility.yul\":6276:6277   */\n      0x00\n        /* \"#utility.yul\":6268:6274   */\n      dup3\n        /* \"#utility.yul\":6264:6278   */\n      add\n        /* \"#utility.yul\":6257:6298   */\n      mstore\n        /* \"#utility.yul\":6140:6305   */\n      pop\n      jump\t// out\n        /* \"#utility.yul\":6311:6433   */\n    tag_80:\n        /* \"#utility.yul\":6384:6408   */\n      tag_163\n        /* \"#utility.yul\":6402:6407   */\n      dup2\n        /* \"#utility.yul\":6384:6408   */\n      tag_112\n      jump\t// in\n    tag_163:\n        /* \"#utility.yul\":6377:6382   */\n      dup2\n        /* \"#utility.yul\":6374:6409   */\n      eq\n        /* \"#utility.yul\":6364:6427   */\n      tag_164\n      jumpi\n        /* \"#utility.yul\":6423:6424   */\n      0x00\n        /* \"#utility.yul\":6420:6421   */\n      dup1\n        /* \"#utility.yul\":6413:6425   */\n      revert\n        /* \"#utility.yul\":6364:6427   */\n    tag_164:\n        /* \"#utility.yul\":6311:6433   */\n      pop\n      jump\t// out\n\n    auxdata: 0xa2646970667358221220b44be33b960dd6f8db1f72326c5702f956dc018c40eb0cc61da81ae6010848da64736f6c63430008070033\n}\n",
				"bytecode": {
					"linkReferences": {},
					"object": "6101206040523480156200001257600080fd5b5060405162000d2c38038062000d2c83398181016040528101906200003891906200016d565b3373ffffffffffffffffffffffffffffffffffffffff1660c08173ffffffffffffffffffffffffffffffffffffffff1660601b8152505083600081905550826001819055504260e0818152505062093a804262000096919062000239565b610100818152505062093a80600154620000b1919062000296565b841015620000f6576040517f08c379a0000000000000000000000000000000000000000000000000000000008152600401620000ed9062000206565b60405180910390fd5b8060a081815250508173ffffffffffffffffffffffffffffffffffffffff1660808173ffffffffffffffffffffffffffffffffffffffff1660601b8152505050505050620003c6565b600081519050620001508162000392565b92915050565b6000815190506200016781620003ac565b92915050565b600080600080608085870312156200018a576200018962000364565b5b60006200019a8782880162000156565b9450506020620001ad8782880162000156565b9350506040620001c0878288016200013f565b9250506060620001d38782880162000156565b91505092959194509250565b6000620001ee60198362000228565b9150620001fb8262000369565b602082019050919050565b600060208201905081810360008301526200022181620001df565b9050919050565b600082825260208201905092915050565b600062000246826200032b565b915062000253836200032b565b9250827fffffffffffffffffffffffffffffffffffffffffffffffffffffffffffffffff038211156200028b576200028a62000335565b5b828201905092915050565b6000620002a3826200032b565b9150620002b0836200032b565b9250817fffffffffffffffffffffffffffffffffffffffffffffffffffffffffffffffff0483118215151615620002ec57620002eb62000335565b5b828202905092915050565b600062000304826200030b565b9050919050565b600073ffffffffffffffffffffffffffffffffffffffff82169050919050565b6000819050919050565b7f4e487b7100000000000000000000000000000000000000000000000000000000600052601160045260246000fd5b600080fd5b7f5374617274696e6720707269636520697320746f6f206c6f7700000000000000600082015250565b6200039d81620002f7565b8114620003a957600080fd5b50565b620003b7816200032b565b8114620003c357600080fd5b50565b60805160601c60a05160c05160601c60e051610100516108f16200043b6000396000818161021301526102b301526000818161025e01526105670152600081816101ef01528181610416015261050a015260008181610438015261054301526000818161023701526103da01526108f16000f3fe6080604052600436106100865760003560e01c8063a6f2ae3a11610059578063a6f2ae3a14610137578063c6bc518214610141578063c74465651461016c578063d6fbf20214610197578063e6c0e6d5146101c257610086565b806308551a531461008b5780630a09284a146100b657806347ccca02146100e157806398d5fdca1461010c575b600080fd5b34801561009757600080fd5b506100a06101ed565b6040516100ad9190610659565b60405180910390f35b3480156100c257600080fd5b506100cb610211565b6040516100d89190610706565b60405180910390f35b3480156100ed57600080fd5b506100f6610235565b60405161010391906106ab565b60405180910390f35b34801561011857600080fd5b50610121610259565b60405161012e9190610706565b60405180910390f35b61013f6102b1565b005b34801561014d57600080fd5b50610156610541565b6040516101639190610706565b60405180910390f35b34801561017857600080fd5b50610181610565565b60405161018e9190610706565b60405180910390f35b3480156101a357600080fd5b506101ac610589565b6040516101b99190610706565b60405180910390f35b3480156101ce57600080fd5b506101d761058f565b6040516101e49190610706565b60405180910390f35b7f000000000000000000000000000000000000000000000000000000000000000081565b7f000000000000000000000000000000000000000000000000000000000000000081565b7f000000000000000000000000000000000000000000000000000000000000000081565b6000807f000000000000000000000000000000000000000000000000000000000000000042610288919061078c565b905060008160015461029a9190610732565b9050806000546102aa919061078c565b9250505090565b7f00000000000000000000000000000000000000000000000000000000000000004210610313576040517f08c379a000000000000000000000000000000000000000000000000000000000815260040161030a906106e6565b60405180910390fd5b60003073ffffffffffffffffffffffffffffffffffffffff166398d5fdca6040518163ffffffff1660e01b815260040160206040518083038186803b15801561035b57600080fd5b505afa15801561036f573d6000803e3d6000fd5b505050506040513d601f19601f8201168201806040525081019061039391906105aa565b9050803410156103d8576040517f08c379a00000000000000000000000000000000000000000000000000000000081526004016103cf906106c6565b60405180910390fd5b7f000000000000000000000000000000000000000000000000000000000000000073ffffffffffffffffffffffffffffffffffffffff166323b872dd7f0000000000000000000000000000000000000000000000000000000000000000337f00000000000000000000000000000000000000000000000000000000000000006040518463ffffffff1660e01b815260040161047593929190610674565b600060405180830381600087803b15801561048f57600080fd5b505af11580156104a3573d6000803e3d6000fd5b50505050600081346104b5919061078c565b90506000811115610508573373ffffffffffffffffffffffffffffffffffffffff166108fc829081150290604051600060405180830381858888f19350505050158015610506573d6000803e3d6000fd5b505b7f000000000000000000000000000000000000000000000000000000000000000073ffffffffffffffffffffffffffffffffffffffff16ff5b7f000000000000000000000000000000000000000000000000000000000000000081565b7f000000000000000000000000000000000000000000000000000000000000000081565b60005481565b60015481565b6000815190506105a4816108a4565b92915050565b6000602082840312156105c0576105bf610873565b5b60006105ce84828501610595565b91505092915050565b6105e0816107fc565b82525050565b6105ef816107c0565b82525050565b6105fe8161080e565b82525050565b6000610611600083610721565b915061061c82610878565b600082019050919050565b6000610634600f83610721565b915061063f8261087b565b602082019050919050565b610653816107f2565b82525050565b600060208201905061066e60008301846105e6565b92915050565b600060608201905061068960008301866105d7565b61069660208301856105d7565b6106a3604083018461064a565b949350505050565b60006020820190506106c060008301846105f5565b92915050565b600060208201905081810360008301526106df81610604565b9050919050565b600060208201905081810360008301526106ff81610627565b9050919050565b600060208201905061071b600083018461064a565b92915050565b600082825260208201905092915050565b600061073d826107f2565b9150610748836107f2565b9250817fffffffffffffffffffffffffffffffffffffffffffffffffffffffffffffffff048311821515161561078157610780610844565b5b828202905092915050565b6000610797826107f2565b91506107a2836107f2565b9250828210156107b5576107b4610844565b5b828203905092915050565b60006107cb826107d2565b9050919050565b600073ffffffffffffffffffffffffffffffffffffffff82169050919050565b6000819050919050565b600061080782610820565b9050919050565b600061081982610820565b9050919050565b600061082b82610832565b9050919050565b600061083d826107d2565b9050919050565b7f4e487b7100000000000000000000000000000000000000000000000000000000600052601160045260246000fd5b600080fd5b50565b7f61756374696f6e20657870697265640000000000000000000000000000000000600082015250565b6108ad816107f2565b81146108b857600080fd5b5056fea2646970667358221220b44be33b960dd6f8db1f72326c5702f956dc018c40eb0cc61da81ae6010848da64736f6c63430008070033",
					"opcodes": "PUSH2 0x120 PUSH1 0x40 MSTORE CALLVALUE DUP1 ISZERO PUSH3 0x12 JUMPI PUSH1 0x0 DUP1 REVERT JUMPDEST POP PUSH1 0x40 MLOAD PUSH3 0xD2C CODESIZE SUB DUP1 PUSH3 0xD2C DUP4 CODECOPY DUP2 DUP2 ADD PUSH1 0x40 MSTORE DUP2 ADD SWAP1 PUSH3 0x38 SWAP2 SWAP1 PUSH3 0x16D JUMP JUMPDEST CALLER PUSH20 0xFFFFFFFFFFFFFFFFFFFFFFFFFFFFFFFFFFFFFFFF AND PUSH1 0xC0 DUP2 PUSH20 0xFFFFFFFFFFFFFFFFFFFFFFFFFFFFFFFFFFFFFFFF AND PUSH1 0x60 SHL DUP2 MSTORE POP POP DUP4 PUSH1 0x0 DUP2 SWAP1 SSTORE POP DUP3 PUSH1 0x1 DUP2 SWAP1 SSTORE POP TIMESTAMP PUSH1 0xE0 DUP2 DUP2 MSTORE POP POP PUSH3 0x93A80 TIMESTAMP PUSH3 0x96 SWAP2 SWAP1 PUSH3 0x239 JUMP JUMPDEST PUSH2 0x100 DUP2 DUP2 MSTORE POP POP PUSH3 0x93A80 PUSH1 0x1 SLOAD PUSH3 0xB1 SWAP2 SWAP1 PUSH3 0x296 JUMP JUMPDEST DUP5 LT ISZERO PUSH3 0xF6 JUMPI PUSH1 0x40 MLOAD PUSH32 0x8C379A000000000000000000000000000000000000000000000000000000000 DUP2 MSTORE PUSH1 0x4 ADD PUSH3 0xED SWAP1 PUSH3 0x206 JUMP JUMPDEST PUSH1 0x40 MLOAD DUP1 SWAP2 SUB SWAP1 REVERT JUMPDEST DUP1 PUSH1 0xA0 DUP2 DUP2 MSTORE POP POP DUP2 PUSH20 0xFFFFFFFFFFFFFFFFFFFFFFFFFFFFFFFFFFFFFFFF AND PUSH1 0x80 DUP2 PUSH20 0xFFFFFFFFFFFFFFFFFFFFFFFFFFFFFFFFFFFFFFFF AND PUSH1 0x60 SHL DUP2 MSTORE POP POP POP POP POP POP PUSH3 0x3C6 JUMP JUMPDEST PUSH1 0x0 DUP2 MLOAD SWAP1 POP PUSH3 0x150 DUP2 PUSH3 0x392 JUMP JUMPDEST SWAP3 SWAP2 POP POP JUMP JUMPDEST PUSH1 0x0 DUP2 MLOAD SWAP1 POP PUSH3 0x167 DUP2 PUSH3 0x3AC JUMP JUMPDEST SWAP3 SWAP2 POP POP JUMP JUMPDEST PUSH1 0x0 DUP1 PUSH1 0x0 DUP1 PUSH1 0x80 DUP6 DUP8 SUB SLT ISZERO PUSH3 0x18A JUMPI PUSH3 0x189 PUSH3 0x364 JUMP JUMPDEST JUMPDEST PUSH1 0x0 PUSH3 0x19A DUP8 DUP3 DUP9 ADD PUSH3 0x156 JUMP JUMPDEST SWAP5 POP POP PUSH1 0x20 PUSH3 0x1AD DUP8 DUP3 DUP9 ADD PUSH3 0x156 JUMP JUMPDEST SWAP4 POP POP PUSH1 0x40 PUSH3 0x1C0 DUP8 DUP3 DUP9 ADD PUSH3 0x13F JUMP JUMPDEST SWAP3 POP POP PUSH1 0x60 PUSH3 0x1D3 DUP8 DUP3 DUP9 ADD PUSH3 0x156 JUMP JUMPDEST SWAP2 POP POP SWAP3 SWAP6 SWAP2 SWAP5 POP SWAP3 POP JUMP JUMPDEST PUSH1 0x0 PUSH3 0x1EE PUSH1 0x19 DUP4 PUSH3 0x228 JUMP JUMPDEST SWAP2 POP PUSH3 0x1FB DUP3 PUSH3 0x369 JUMP JUMPDEST PUSH1 0x20 DUP3 ADD SWAP1 POP SWAP2 SWAP1 POP JUMP JUMPDEST PUSH1 0x0 PUSH1 0x20 DUP3 ADD SWAP1 POP DUP2 DUP2 SUB PUSH1 0x0 DUP4 ADD MSTORE PUSH3 0x221 DUP2 PUSH3 0x1DF JUMP JUMPDEST SWAP1 POP SWAP2 SWAP1 POP JUMP JUMPDEST PUSH1 0x0 DUP3 DUP3 MSTORE PUSH1 0x20 DUP3 ADD SWAP1 POP SWAP3 SWAP2 POP POP JUMP JUMPDEST PUSH1 0x0 PUSH3 0x246 DUP3 PUSH3 0x32B JUMP JUMPDEST SWAP2 POP PUSH3 0x253 DUP4 PUSH3 0x32B JUMP JUMPDEST SWAP3 POP DUP3 PUSH32 0xFFFFFFFFFFFFFFFFFFFFFFFFFFFFFFFFFFFFFFFFFFFFFFFFFFFFFFFFFFFFFFFF SUB DUP3 GT ISZERO PUSH3 0x28B JUMPI PUSH3 0x28A PUSH3 0x335 JUMP JUMPDEST JUMPDEST DUP3 DUP3 ADD SWAP1 POP SWAP3 SWAP2 POP POP JUMP JUMPDEST PUSH1 0x0 PUSH3 0x2A3 DUP3 PUSH3 0x32B JUMP JUMPDEST SWAP2 POP PUSH3 0x2B0 DUP4 PUSH3 0x32B JUMP JUMPDEST SWAP3 POP DUP2 PUSH32 0xFFFFFFFFFFFFFFFFFFFFFFFFFFFFFFFFFFFFFFFFFFFFFFFFFFFFFFFFFFFFFFFF DIV DUP4 GT DUP3 ISZERO ISZERO AND ISZERO PUSH3 0x2EC JUMPI PUSH3 0x2EB PUSH3 0x335 JUMP JUMPDEST JUMPDEST DUP3 DUP3 MUL SWAP1 POP SWAP3 SWAP2 POP POP JUMP JUMPDEST PUSH1 0x0 PUSH3 0x304 DUP3 PUSH3 0x30B JUMP JUMPDEST SWAP1 POP SWAP2 SWAP1 POP JUMP JUMPDEST PUSH1 0x0 PUSH20 0xFFFFFFFFFFFFFFFFFFFFFFFFFFFFFFFFFFFFFFFF DUP3 AND SWAP1 POP SWAP2 SWAP1 POP JUMP JUMPDEST PUSH1 0x0 DUP2 SWAP1 POP SWAP2 SWAP1 POP JUMP JUMPDEST PUSH32 0x4E487B7100000000000000000000000000000000000000000000000000000000 PUSH1 0x0 MSTORE PUSH1 0x11 PUSH1 0x4 MSTORE PUSH1 0x24 PUSH1 0x0 REVERT JUMPDEST PUSH1 0x0 DUP1 REVERT JUMPDEST PUSH32 0x5374617274696E6720707269636520697320746F6F206C6F7700000000000000 PUSH1 0x0 DUP3 ADD MSTORE POP JUMP JUMPDEST PUSH3 0x39D DUP2 PUSH3 0x2F7 JUMP JUMPDEST DUP2 EQ PUSH3 0x3A9 JUMPI PUSH1 0x0 DUP1 REVERT JUMPDEST POP JUMP JUMPDEST PUSH3 0x3B7 DUP2 PUSH3 0x32B JUMP JUMPDEST DUP2 EQ PUSH3 0x3C3 JUMPI PUSH1 0x0 DUP1 REVERT JUMPDEST POP JUMP JUMPDEST PUSH1 0x80 MLOAD PUSH1 0x60 SHR PUSH1 0xA0 MLOAD PUSH1 0xC0 MLOAD PUSH1 0x60 SHR PUSH1 0xE0 MLOAD PUSH2 0x100 MLOAD PUSH2 0x8F1 PUSH3 0x43B PUSH1 0x0 CODECOPY PUSH1 0x0 DUP2 DUP2 PUSH2 0x213 ADD MSTORE PUSH2 0x2B3 ADD MSTORE PUSH1 0x0 DUP2 DUP2 PUSH2 0x25E ADD MSTORE PUSH2 0x567 ADD MSTORE PUSH1 0x0 DUP2 DUP2 PUSH2 0x1EF ADD MSTORE DUP2 DUP2 PUSH2 0x416 ADD MSTORE PUSH2 0x50A ADD MSTORE PUSH1 0x0 DUP2 DUP2 PUSH2 0x438 ADD MSTORE PUSH2 0x543 ADD MSTORE PUSH1 0x0 DUP2 DUP2 PUSH2 0x237 ADD MSTORE PUSH2 0x3DA ADD MSTORE PUSH2 0x8F1 PUSH1 0x0 RETURN INVALID PUSH1 0x80 PUSH1 0x40 MSTORE PUSH1 0x4 CALLDATASIZE LT PUSH2 0x86 JUMPI PUSH1 0x0 CALLDATALOAD PUSH1 0xE0 SHR DUP1 PUSH4 0xA6F2AE3A GT PUSH2 0x59 JUMPI DUP1 PUSH4 0xA6F2AE3A EQ PUSH2 0x137 JUMPI DUP1 PUSH4 0xC6BC5182 EQ PUSH2 0x141 JUMPI DUP1 PUSH4 0xC7446565 EQ PUSH2 0x16C JUMPI DUP1 PUSH4 0xD6FBF202 EQ PUSH2 0x197 JUMPI DUP1 PUSH4 0xE6C0E6D5 EQ PUSH2 0x1C2 JUMPI PUSH2 0x86 JUMP JUMPDEST DUP1 PUSH4 0x8551A53 EQ PUSH2 0x8B JUMPI DUP1 PUSH4 0xA09284A EQ PUSH2 0xB6 JUMPI DUP1 PUSH4 0x47CCCA02 EQ PUSH2 0xE1 JUMPI DUP1 PUSH4 0x98D5FDCA EQ PUSH2 0x10C JUMPI JUMPDEST PUSH1 0x0 DUP1 REVERT JUMPDEST CALLVALUE DUP1 ISZERO PUSH2 0x97 JUMPI PUSH1 0x0 DUP1 REVERT JUMPDEST POP PUSH2 0xA0 PUSH2 0x1ED JUMP JUMPDEST PUSH1 0x40 MLOAD PUSH2 0xAD SWAP2 SWAP1 PUSH2 0x659 JUMP JUMPDEST PUSH1 0x40 MLOAD DUP1 SWAP2 SUB SWAP1 RETURN JUMPDEST CALLVALUE DUP1 ISZERO PUSH2 0xC2 JUMPI PUSH1 0x0 DUP1 REVERT JUMPDEST POP PUSH2 0xCB PUSH2 0x211 JUMP JUMPDEST PUSH1 0x40 MLOAD PUSH2 0xD8 SWAP2 SWAP1 PUSH2 0x706 JUMP JUMPDEST PUSH1 0x40 MLOAD DUP1 SWAP2 SUB SWAP1 RETURN JUMPDEST CALLVALUE DUP1 ISZERO PUSH2 0xED JUMPI PUSH1 0x0 DUP1 REVERT JUMPDEST POP PUSH2 0xF6 PUSH2 0x235 JUMP JUMPDEST PUSH1 0x40 MLOAD PUSH2 0x103 SWAP2 SWAP1 PUSH2 0x6AB JUMP JUMPDEST PUSH1 0x40 MLOAD DUP1 SWAP2 SUB SWAP1 RETURN JUMPDEST CALLVALUE DUP1 ISZERO PUSH2 0x118 JUMPI PUSH1 0x0 DUP1 REVERT JUMPDEST POP PUSH2 0x121 PUSH2 0x259 JUMP JUMPDEST PUSH1 0x40 MLOAD PUSH2 0x12E SWAP2 SWAP1 PUSH2 0x706 JUMP JUMPDEST PUSH1 0x40 MLOAD DUP1 SWAP2 SUB SWAP1 RETURN JUMPDEST PUSH2 0x13F PUSH2 0x2B1 JUMP JUMPDEST STOP JUMPDEST CALLVALUE DUP1 ISZERO PUSH2 0x14D JUMPI PUSH1 0x0 DUP1 REVERT JUMPDEST POP PUSH2 0x156 PUSH2 0x541 JUMP JUMPDEST PUSH1 0x40 MLOAD PUSH2 0x163 SWAP2 SWAP1 PUSH2 0x706 JUMP JUMPDEST PUSH1 0x40 MLOAD DUP1 SWAP2 SUB SWAP1 RETURN JUMPDEST CALLVALUE DUP1 ISZERO PUSH2 0x178 JUMPI PUSH1 0x0 DUP1 REVERT JUMPDEST POP PUSH2 0x181 PUSH2 0x565 JUMP JUMPDEST PUSH1 0x40 MLOAD PUSH2 0x18E SWAP2 SWAP1 PUSH2 0x706 JUMP JUMPDEST PUSH1 0x40 MLOAD DUP1 SWAP2 SUB SWAP1 RETURN JUMPDEST CALLVALUE DUP1 ISZERO PUSH2 0x1A3 JUMPI PUSH1 0x0 DUP1 REVERT JUMPDEST POP PUSH2 0x1AC PUSH2 0x589 JUMP JUMPDEST PUSH1 0x40 MLOAD PUSH2 0x1B9 SWAP2 SWAP1 PUSH2 0x706 JUMP JUMPDEST PUSH1 0x40 MLOAD DUP1 SWAP2 SUB SWAP1 RETURN JUMPDEST CALLVALUE DUP1 ISZERO PUSH2 0x1CE JUMPI PUSH1 0x0 DUP1 REVERT JUMPDEST POP PUSH2 0x1D7 PUSH2 0x58F JUMP JUMPDEST PUSH1 0x40 MLOAD PUSH2 0x1E4 SWAP2 SWAP1 PUSH2 0x706 JUMP JUMPDEST PUSH1 0x40 MLOAD DUP1 SWAP2 SUB SWAP1 RETURN JUMPDEST PUSH32 0x0 DUP2 JUMP JUMPDEST PUSH32 0x0 DUP2 JUMP JUMPDEST PUSH32 0x0 DUP2 JUMP JUMPDEST PUSH1 0x0 DUP1 PUSH32 0x0 TIMESTAMP PUSH2 0x288 SWAP2 SWAP1 PUSH2 0x78C JUMP JUMPDEST SWAP1 POP PUSH1 0x0 DUP2 PUSH1 0x1 SLOAD PUSH2 0x29A SWAP2 SWAP1 PUSH2 0x732 JUMP JUMPDEST SWAP1 POP DUP1 PUSH1 0x0 SLOAD PUSH2 0x2AA SWAP2 SWAP1 PUSH2 0x78C JUMP JUMPDEST SWAP3 POP POP POP SWAP1 JUMP JUMPDEST PUSH32 0x0 TIMESTAMP LT PUSH2 0x313 JUMPI PUSH1 0x40 MLOAD PUSH32 0x8C379A000000000000000000000000000000000000000000000000000000000 DUP2 MSTORE PUSH1 0x4 ADD PUSH2 0x30A SWAP1 PUSH2 0x6E6 JUMP JUMPDEST PUSH1 0x40 MLOAD DUP1 SWAP2 SUB SWAP1 REVERT JUMPDEST PUSH1 0x0 ADDRESS PUSH20 0xFFFFFFFFFFFFFFFFFFFFFFFFFFFFFFFFFFFFFFFF AND PUSH4 0x98D5FDCA PUSH1 0x40 MLOAD DUP2 PUSH4 0xFFFFFFFF AND PUSH1 0xE0 SHL DUP2 MSTORE PUSH1 0x4 ADD PUSH1 0x20 PUSH1 0x40 MLOAD DUP1 DUP4 SUB DUP2 DUP7 DUP1 EXTCODESIZE ISZERO DUP1 ISZERO PUSH2 0x35B JUMPI PUSH1 0x0 DUP1 REVERT JUMPDEST POP GAS STATICCALL ISZERO DUP1 ISZERO PUSH2 0x36F JUMPI RETURNDATASIZE PUSH1 0x0 DUP1 RETURNDATACOPY RETURNDATASIZE PUSH1 0x0 REVERT JUMPDEST POP POP POP POP PUSH1 0x40 MLOAD RETURNDATASIZE PUSH1 0x1F NOT PUSH1 0x1F DUP3 ADD AND DUP3 ADD DUP1 PUSH1 0x40 MSTORE POP DUP2 ADD SWAP1 PUSH2 0x393 SWAP2 SWAP1 PUSH2 0x5AA JUMP JUMPDEST SWAP1 POP DUP1 CALLVALUE LT ISZERO PUSH2 0x3D8 JUMPI PUSH1 0x40 MLOAD PUSH32 0x8C379A000000000000000000000000000000000000000000000000000000000 DUP2 MSTORE PUSH1 0x4 ADD PUSH2 0x3CF SWAP1 PUSH2 0x6C6 JUMP JUMPDEST PUSH1 0x40 MLOAD DUP1 SWAP2 SUB SWAP1 REVERT JUMPDEST PUSH32 0x0 PUSH20 0xFFFFFFFFFFFFFFFFFFFFFFFFFFFFFFFFFFFFFFFF AND PUSH4 0x23B872DD PUSH32 0x0 CALLER PUSH32 0x0 PUSH1 0x40 MLOAD DUP5 PUSH4 0xFFFFFFFF AND PUSH1 0xE0 SHL DUP2 MSTORE PUSH1 0x4 ADD PUSH2 0x475 SWAP4 SWAP3 SWAP2 SWAP1 PUSH2 0x674 JUMP JUMPDEST PUSH1 0x0 PUSH1 0x40 MLOAD DUP1 DUP4 SUB DUP2 PUSH1 0x0 DUP8 DUP1 EXTCODESIZE ISZERO DUP1 ISZERO PUSH2 0x48F JUMPI PUSH1 0x0 DUP1 REVERT JUMPDEST POP GAS CALL ISZERO DUP1 ISZERO PUSH2 0x4A3 JUMPI RETURNDATASIZE PUSH1 0x0 DUP1 RETURNDATACOPY RETURNDATASIZE PUSH1 0x0 REVERT JUMPDEST POP POP POP POP PUSH1 0x0 DUP2 CALLVALUE PUSH2 0x4B5 SWAP2 SWAP1 PUSH2 0x78C JUMP JUMPDEST SWAP1 POP PUSH1 0x0 DUP2 GT ISZERO PUSH2 0x508 JUMPI CALLER PUSH20 0xFFFFFFFFFFFFFFFFFFFFFFFFFFFFFFFFFFFFFFFF AND PUSH2 0x8FC DUP3 SWAP1 DUP2 ISZERO MUL SWAP1 PUSH1 0x40 MLOAD PUSH1 0x0 PUSH1 0x40 MLOAD DUP1 DUP4 SUB DUP2 DUP6 DUP9 DUP9 CALL SWAP4 POP POP POP POP ISZERO DUP1 ISZERO PUSH2 0x506 JUMPI RETURNDATASIZE PUSH1 0x0 DUP1 RETURNDATACOPY RETURNDATASIZE PUSH1 0x0 REVERT JUMPDEST POP JUMPDEST PUSH32 0x0 PUSH20 0xFFFFFFFFFFFFFFFFFFFFFFFFFFFFFFFFFFFFFFFF AND SELFDESTRUCT JUMPDEST PUSH32 0x0 DUP2 JUMP JUMPDEST PUSH32 0x0 DUP2 JUMP JUMPDEST PUSH1 0x0 SLOAD DUP2 JUMP JUMPDEST PUSH1 0x1 SLOAD DUP2 JUMP JUMPDEST PUSH1 0x0 DUP2 MLOAD SWAP1 POP PUSH2 0x5A4 DUP2 PUSH2 0x8A4 JUMP JUMPDEST SWAP3 SWAP2 POP POP JUMP JUMPDEST PUSH1 0x0 PUSH1 0x20 DUP3 DUP5 SUB SLT ISZERO PUSH2 0x5C0 JUMPI PUSH2 0x5BF PUSH2 0x873 JUMP JUMPDEST JUMPDEST PUSH1 0x0 PUSH2 0x5CE DUP5 DUP3 DUP6 ADD PUSH2 0x595 JUMP JUMPDEST SWAP2 POP POP SWAP3 SWAP2 POP POP JUMP JUMPDEST PUSH2 0x5E0 DUP2 PUSH2 0x7FC JUMP JUMPDEST DUP3 MSTORE POP POP JUMP JUMPDEST PUSH2 0x5EF DUP2 PUSH2 0x7C0 JUMP JUMPDEST DUP3 MSTORE POP POP JUMP JUMPDEST PUSH2 0x5FE DUP2 PUSH2 0x80E JUMP JUMPDEST DUP3 MSTORE POP POP JUMP JUMPDEST PUSH1 0x0 PUSH2 0x611 PUSH1 0x0 DUP4 PUSH2 0x721 JUMP JUMPDEST SWAP2 POP PUSH2 0x61C DUP3 PUSH2 0x878 JUMP JUMPDEST PUSH1 0x0 DUP3 ADD SWAP1 POP SWAP2 SWAP1 POP JUMP JUMPDEST PUSH1 0x0 PUSH2 0x634 PUSH1 0xF DUP4 PUSH2 0x721 JUMP JUMPDEST SWAP2 POP PUSH2 0x63F DUP3 PUSH2 0x87B JUMP JUMPDEST PUSH1 0x20 DUP3 ADD SWAP1 POP SWAP2 SWAP1 POP JUMP JUMPDEST PUSH2 0x653 DUP2 PUSH2 0x7F2 JUMP JUMPDEST DUP3 MSTORE POP POP JUMP JUMPDEST PUSH1 0x0 PUSH1 0x20 DUP3 ADD SWAP1 POP PUSH2 0x66E PUSH1 0x0 DUP4 ADD DUP5 PUSH2 0x5E6 JUMP JUMPDEST SWAP3 SWAP2 POP POP JUMP JUMPDEST PUSH1 0x0 PUSH1 0x60 DUP3 ADD SWAP1 POP PUSH2 0x689 PUSH1 0x0 DUP4 ADD DUP7 PUSH2 0x5D7 JUMP JUMPDEST PUSH2 0x696 PUSH1 0x20 DUP4 ADD DUP6 PUSH2 0x5D7 JUMP JUMPDEST PUSH2 0x6A3 PUSH1 0x40 DUP4 ADD DUP5 PUSH2 0x64A JUMP JUMPDEST SWAP5 SWAP4 POP POP POP POP JUMP JUMPDEST PUSH1 0x0 PUSH1 0x20 DUP3 ADD SWAP1 POP PUSH2 0x6C0 PUSH1 0x0 DUP4 ADD DUP5 PUSH2 0x5F5 JUMP JUMPDEST SWAP3 SWAP2 POP POP JUMP JUMPDEST PUSH1 0x0 PUSH1 0x20 DUP3 ADD SWAP1 POP DUP2 DUP2 SUB PUSH1 0x0 DUP4 ADD MSTORE PUSH2 0x6DF DUP2 PUSH2 0x604 JUMP JUMPDEST SWAP1 POP SWAP2 SWAP1 POP JUMP JUMPDEST PUSH1 0x0 PUSH1 0x20 DUP3 ADD SWAP1 POP DUP2 DUP2 SUB PUSH1 0x0 DUP4 ADD MSTORE PUSH2 0x6FF DUP2 PUSH2 0x627 JUMP JUMPDEST SWAP1 POP SWAP2 SWAP1 POP JUMP JUMPDEST PUSH1 0x0 PUSH1 0x20 DUP3 ADD SWAP1 POP PUSH2 0x71B PUSH1 0x0 DUP4 ADD DUP5 PUSH2 0x64A JUMP JUMPDEST SWAP3 SWAP2 POP POP JUMP JUMPDEST PUSH1 0x0 DUP3 DUP3 MSTORE PUSH1 0x20 DUP3 ADD SWAP1 POP SWAP3 SWAP2 POP POP JUMP JUMPDEST PUSH1 0x0 PUSH2 0x73D DUP3 PUSH2 0x7F2 JUMP JUMPDEST SWAP2 POP PUSH2 0x748 DUP4 PUSH2 0x7F2 JUMP JUMPDEST SWAP3 POP DUP2 PUSH32 0xFFFFFFFFFFFFFFFFFFFFFFFFFFFFFFFFFFFFFFFFFFFFFFFFFFFFFFFFFFFFFFFF DIV DUP4 GT DUP3 ISZERO ISZERO AND ISZERO PUSH2 0x781 JUMPI PUSH2 0x780 PUSH2 0x844 JUMP JUMPDEST JUMPDEST DUP3 DUP3 MUL SWAP1 POP SWAP3 SWAP2 POP POP JUMP JUMPDEST PUSH1 0x0 PUSH2 0x797 DUP3 PUSH2 0x7F2 JUMP JUMPDEST SWAP2 POP PUSH2 0x7A2 DUP4 PUSH2 0x7F2 JUMP JUMPDEST SWAP3 POP DUP3 DUP3 LT ISZERO PUSH2 0x7B5 JUMPI PUSH2 0x7B4 PUSH2 0x844 JUMP JUMPDEST JUMPDEST DUP3 DUP3 SUB SWAP1 POP SWAP3 SWAP2 POP POP JUMP JUMPDEST PUSH1 0x0 PUSH2 0x7CB DUP3 PUSH2 0x7D2 JUMP JUMPDEST SWAP1 POP SWAP2 SWAP1 POP JUMP JUMPDEST PUSH1 0x0 PUSH20 0xFFFFFFFFFFFFFFFFFFFFFFFFFFFFFFFFFFFFFFFF DUP3 AND SWAP1 POP SWAP2 SWAP1 POP JUMP JUMPDEST PUSH1 0x0 DUP2 SWAP1 POP SWAP2 SWAP1 POP JUMP JUMPDEST PUSH1 0x0 PUSH2 0x807 DUP3 PUSH2 0x820 JUMP JUMPDEST SWAP1 POP SWAP2 SWAP1 POP JUMP JUMPDEST PUSH1 0x0 PUSH2 0x819 DUP3 PUSH2 0x820 JUMP JUMPDEST SWAP1 POP SWAP2 SWAP1 POP JUMP JUMPDEST PUSH1 0x0 PUSH2 0x82B DUP3 PUSH2 0x832 JUMP JUMPDEST SWAP1 POP SWAP2 SWAP1 POP JUMP JUMPDEST PUSH1 0x0 PUSH2 0x83D DUP3 PUSH2 0x7D2 JUMP JUMPDEST SWAP1 POP SWAP2 SWAP1 POP JUMP JUMPDEST PUSH32 0x4E487B7100000000000000000000000000000000000000000000000000000000 PUSH1 0x0 MSTORE PUSH1 0x11 PUSH1 0x4 MSTORE PUSH1 0x24 PUSH1 0x0 REVERT JUMPDEST PUSH1 0x0 DUP1 REVERT JUMPDEST POP JUMP JUMPDEST PUSH32 0x61756374696F6E20657870697265640000000000000000000000000000000000 PUSH1 0x0 DUP3 ADD MSTORE POP JUMP JUMPDEST PUSH2 0x8AD DUP2 PUSH2 0x7F2 JUMP JUMPDEST DUP2 EQ PUSH2 0x8B8 JUMPI PUSH1 0x0 DUP1 REVERT JUMPDEST POP JUMP INVALID LOG2 PUSH5 0x6970667358 0x22 SLT KECCAK256 0xB4 0x4B 0xE3 EXTCODESIZE SWAP7 0xD 0xD6 0xF8 0xDB 0x1F PUSH19 0x326C5702F956DC018C40EB0CC61DA81AE60108 BASEFEE 0xDA PUSH5 0x736F6C6343 STOP ADDMOD SMOD STOP CALLER "
				},
				"gasEstimates": {
					"creation": {
						"codeDepositCost": "457800",
						"executionCost": "infinite",
						"totalCost": "infinite"
					},
					"external": {
						"buy()": "infinite",
						"discountRate()": "2517",
						"endsAt()": "infinite",
						"getPrice()": "infinite",
						"nft()": "infinite",
						"nftId()": "infinite",
						"seller()": "infinite",
						"startAt()": "infinite",
						"startingPrice()": "2495"
					}
				},
				"methodIdentifiers": {
					"buy()": "a6f2ae3a",
					"discountRate()": "e6c0e6d5",
					"endsAt()": "0a09284a",
					"getPrice()": "98d5fdca",
					"nft()": "47ccca02",
					"nftId()": "c6bc5182",
					"seller()": "08551a53",
					"startAt()": "c7446565",
					"startingPrice()": "d6fbf202"
				}
			},
			"storageLayout": {
				"storage": [
					{
						"astId": 23,
						"contract": "Contracts/carAuction.sol:carDutchAuction",
						"label": "startingPrice",
						"offset": 0,
						"slot": "0",
						"type": "t_uint256"
					},
					{
						"astId": 29,
						"contract": "Contracts/carAuction.sol:carDutchAuction",
						"label": "discountRate",
						"offset": 0,
						"slot": "1",
						"type": "t_uint256"
					}
				],
				"types": {
					"t_uint256": {
						"encoding": "inplace",
						"label": "uint256",
						"numberOfBytes": "32"
					}
				}
			},
			"userdoc": {
				"kind": "user",
				"methods": {},
				"version": 1
			}
		}
	}
}