{
	"Contracts/usingCall.sol": {
		"TestContract": {
			"abi": [
				{
					"inputs": [],
					"stateMutability": "payable",
					"type": "constructor"
				},
				{
					"anonymous": false,
					"inputs": [
						{
							"indexed": false,
							"internalType": "string",
							"name": "message",
							"type": "string"
						}
					],
					"name": "Log",
					"type": "event"
				},
				{
					"stateMutability": "payable",
					"type": "fallback"
				},
				{
					"inputs": [
						{
							"internalType": "string",
							"name": "_message",
							"type": "string"
						},
						{
							"internalType": "uint256",
							"name": "_x",
							"type": "uint256"
						}
					],
					"name": "foo",
					"outputs": [
						{
							"internalType": "bool",
							"name": "",
							"type": "bool"
						},
						{
							"internalType": "uint256",
							"name": "",
							"type": "uint256"
						}
					],
					"stateMutability": "payable",
					"type": "function"
				},
				{
					"inputs": [],
					"name": "message",
					"outputs": [
						{
							"internalType": "string",
							"name": "",
							"type": "string"
						}
					],
					"stateMutability": "view",
					"type": "function"
				},
				{
					"inputs": [],
					"name": "x",
					"outputs": [
						{
							"internalType": "uint256",
							"name": "",
							"type": "uint256"
						}
					],
					"stateMutability": "view",
					"type": "function"
				},
				{
					"stateMutability": "payable",
					"type": "receive"
				}
			],
			"devdoc": {
				"kind": "dev",
				"methods": {},
				"version": 1
			},
			"evm": {
				"assembly": "    /* \"Contracts/usingCall.sol\":35:488  contract TestContract{\r... */\n  mstore(0x40, 0x80)\n  dataSize(sub_0)\n  dup1\n  dataOffset(sub_0)\n  0x00\n  codecopy\n  0x00\n  return\nstop\n\nsub_0: assembly {\n        /* \"Contracts/usingCall.sol\":35:488  contract TestContract{\r... */\n      mstore(0x40, 0x80)\n      jumpi(tag_1, lt(calldatasize, 0x04))\n      shr(0xe0, calldataload(0x00))\n      dup1\n      0x0c55699c\n      eq\n      tag_3\n      jumpi\n      dup1\n      0x24ccab8f\n      eq\n      tag_4\n      jumpi\n      dup1\n      0xe21f37ce\n      eq\n      tag_5\n      jumpi\n      jump(tag_2)\n    tag_1:\n      jumpi(tag_2, calldatasize)\n      stop\n    tag_2:\n        /* \"Contracts/usingCall.sol\":249:271  Log(\"Fallback Called\") */\n      0xcf34ef537ac33ee1ac626ca1587a0a7e8e51561e5514f8cb36afa1c5102b3bab\n      mload(0x40)\n      tag_10\n      swap1\n      tag_11\n      jump\t// in\n    tag_10:\n      mload(0x40)\n      dup1\n      swap2\n      sub\n      swap1\n      log1\n        /* \"Contracts/usingCall.sol\":35:488  contract TestContract{\r... */\n      stop\n        /* \"Contracts/usingCall.sol\":91:104  uint public x */\n    tag_3:\n      callvalue\n      dup1\n      iszero\n      tag_12\n      jumpi\n      0x00\n      dup1\n      revert\n    tag_12:\n      pop\n      tag_13\n      tag_14\n      jump\t// in\n    tag_13:\n      mload(0x40)\n      tag_15\n      swap2\n      swap1\n      tag_16\n      jump\t// in\n    tag_15:\n      mload(0x40)\n      dup1\n      swap2\n      sub\n      swap1\n      return\n        /* \"Contracts/usingCall.sol\":287:485  function foo(string memory _message, uint _x) external payable returns(bool, uint){\r... */\n    tag_4:\n      tag_17\n      0x04\n      dup1\n      calldatasize\n      sub\n      dup2\n      add\n      swap1\n      tag_18\n      swap2\n      swap1\n      tag_19\n      jump\t// in\n    tag_18:\n      tag_20\n      jump\t// in\n    tag_17:\n      mload(0x40)\n      tag_21\n      swap3\n      swap2\n      swap1\n      tag_22\n      jump\t// in\n    tag_21:\n      mload(0x40)\n      dup1\n      swap2\n      sub\n      swap1\n      return\n        /* \"Contracts/usingCall.sol\":63:84  string public message */\n    tag_5:\n      callvalue\n      dup1\n      iszero\n      tag_23\n      jumpi\n      0x00\n      dup1\n      revert\n    tag_23:\n      pop\n      tag_24\n      tag_25\n      jump\t// in\n    tag_24:\n      mload(0x40)\n      tag_26\n      swap2\n      swap1\n      tag_27\n      jump\t// in\n    tag_26:\n      mload(0x40)\n      dup1\n      swap2\n      sub\n      swap1\n      return\n        /* \"Contracts/usingCall.sol\":91:104  uint public x */\n    tag_14:\n      sload(0x01)\n      dup2\n      jump\t// out\n        /* \"Contracts/usingCall.sol\":287:485  function foo(string memory _message, uint _x) external payable returns(bool, uint){\r... */\n    tag_20:\n        /* \"Contracts/usingCall.sol\":358:362  bool */\n      0x00\n        /* \"Contracts/usingCall.sol\":364:368  uint */\n      dup1\n        /* \"Contracts/usingCall.sol\":385:402  Log(\"Foo called\") */\n      0xcf34ef537ac33ee1ac626ca1587a0a7e8e51561e5514f8cb36afa1c5102b3bab\n      mload(0x40)\n      tag_29\n      swap1\n      tag_30\n      jump\t// in\n    tag_29:\n      mload(0x40)\n      dup1\n      swap2\n      sub\n      swap1\n      log1\n        /* \"Contracts/usingCall.sol\":423:431  _message */\n      dup4\n        /* \"Contracts/usingCall.sol\":413:420  message */\n      0x00\n        /* \"Contracts/usingCall.sol\":413:431  message = _message */\n      swap1\n      dup1\n      mload\n      swap1\n      0x20\n      add\n      swap1\n      tag_31\n      swap3\n      swap2\n      swap1\n      tag_32\n      jump\t// in\n    tag_31:\n      pop\n        /* \"Contracts/usingCall.sol\":446:448  _x */\n      dup3\n        /* \"Contracts/usingCall.sol\":442:443  x */\n      0x01\n        /* \"Contracts/usingCall.sol\":442:448  x = _x */\n      dup2\n      swap1\n      sstore\n      pop\n        /* \"Contracts/usingCall.sol\":467:471  true */\n      0x01\n        /* \"Contracts/usingCall.sol\":473:476  123 */\n      0x7b\n        /* \"Contracts/usingCall.sol\":459:477  return (true, 123) */\n      swap2\n      pop\n      swap2\n      pop\n        /* \"Contracts/usingCall.sol\":287:485  function foo(string memory _message, uint _x) external payable returns(bool, uint){\r... */\n      swap3\n      pop\n      swap3\n      swap1\n      pop\n      jump\t// out\n        /* \"Contracts/usingCall.sol\":63:84  string public message */\n    tag_25:\n      0x00\n      dup1\n      sload\n      tag_33\n      swap1\n      tag_34\n      jump\t// in\n    tag_33:\n      dup1\n      0x1f\n      add\n      0x20\n      dup1\n      swap2\n      div\n      mul\n      0x20\n      add\n      mload(0x40)\n      swap1\n      dup2\n      add\n      0x40\n      mstore\n      dup1\n      swap3\n      swap2\n      swap1\n      dup2\n      dup2\n      mstore\n      0x20\n      add\n      dup3\n      dup1\n      sload\n      tag_35\n      swap1\n      tag_34\n      jump\t// in\n    tag_35:\n      dup1\n      iszero\n      tag_36\n      jumpi\n      dup1\n      0x1f\n      lt\n      tag_37\n      jumpi\n      0x0100\n      dup1\n      dup4\n      sload\n      div\n      mul\n      dup4\n      mstore\n      swap2\n      0x20\n      add\n      swap2\n      jump(tag_36)\n    tag_37:\n      dup3\n      add\n      swap2\n      swap1\n      0x00\n      mstore\n      keccak256(0x00, 0x20)\n      swap1\n    tag_38:\n      dup2\n      sload\n      dup2\n      mstore\n      swap1\n      0x01\n      add\n      swap1\n      0x20\n      add\n      dup1\n      dup4\n      gt\n      tag_38\n      jumpi\n      dup3\n      swap1\n      sub\n      0x1f\n      and\n      dup3\n      add\n      swap2\n    tag_36:\n      pop\n      pop\n      pop\n      pop\n      pop\n      dup2\n      jump\t// out\n    tag_32:\n      dup3\n      dup1\n      sload\n      tag_39\n      swap1\n      tag_34\n      jump\t// in\n    tag_39:\n      swap1\n      0x00\n      mstore\n      keccak256(0x00, 0x20)\n      swap1\n      0x1f\n      add\n      0x20\n      swap1\n      div\n      dup2\n      add\n      swap3\n      dup3\n      tag_41\n      jumpi\n      0x00\n      dup6\n      sstore\n      jump(tag_40)\n    tag_41:\n      dup3\n      0x1f\n      lt\n      tag_42\n      jumpi\n      dup1\n      mload\n      not(0xff)\n      and\n      dup4\n      dup1\n      add\n      or\n      dup6\n      sstore\n      jump(tag_40)\n    tag_42:\n      dup3\n      dup1\n      add\n      0x01\n      add\n      dup6\n      sstore\n      dup3\n      iszero\n      tag_40\n      jumpi\n      swap2\n      dup3\n      add\n    tag_43:\n      dup3\n      dup2\n      gt\n      iszero\n      tag_44\n      jumpi\n      dup3\n      mload\n      dup3\n      sstore\n      swap2\n      0x20\n      add\n      swap2\n      swap1\n      0x01\n      add\n      swap1\n      jump(tag_43)\n    tag_44:\n    tag_40:\n      pop\n      swap1\n      pop\n      tag_45\n      swap2\n      swap1\n      tag_46\n      jump\t// in\n    tag_45:\n      pop\n      swap1\n      jump\t// out\n    tag_46:\n    tag_47:\n      dup1\n      dup3\n      gt\n      iszero\n      tag_48\n      jumpi\n      0x00\n      dup2\n      0x00\n      swap1\n      sstore\n      pop\n      0x01\n      add\n      jump(tag_47)\n    tag_48:\n      pop\n      swap1\n      jump\t// out\n        /* \"#utility.yul\":7:419   */\n    tag_50:\n        /* \"#utility.yul\":85:90   */\n      0x00\n        /* \"#utility.yul\":110:176   */\n      tag_52\n        /* \"#utility.yul\":126:175   */\n      tag_53\n        /* \"#utility.yul\":168:174   */\n      dup5\n        /* \"#utility.yul\":126:175   */\n      tag_54\n      jump\t// in\n    tag_53:\n        /* \"#utility.yul\":110:176   */\n      tag_55\n      jump\t// in\n    tag_52:\n        /* \"#utility.yul\":101:176   */\n      swap1\n      pop\n        /* \"#utility.yul\":199:205   */\n      dup3\n        /* \"#utility.yul\":192:197   */\n      dup2\n        /* \"#utility.yul\":185:206   */\n      mstore\n        /* \"#utility.yul\":237:241   */\n      0x20\n        /* \"#utility.yul\":230:235   */\n      dup2\n        /* \"#utility.yul\":226:242   */\n      add\n        /* \"#utility.yul\":275:278   */\n      dup5\n        /* \"#utility.yul\":266:272   */\n      dup5\n        /* \"#utility.yul\":261:264   */\n      dup5\n        /* \"#utility.yul\":257:273   */\n      add\n        /* \"#utility.yul\":254:279   */\n      gt\n        /* \"#utility.yul\":251:363   */\n      iszero\n      tag_56\n      jumpi\n        /* \"#utility.yul\":282:361   */\n      tag_57\n      tag_58\n      jump\t// in\n    tag_57:\n        /* \"#utility.yul\":251:363   */\n    tag_56:\n        /* \"#utility.yul\":372:413   */\n      tag_59\n        /* \"#utility.yul\":406:412   */\n      dup5\n        /* \"#utility.yul\":401:404   */\n      dup3\n        /* \"#utility.yul\":396:399   */\n      dup6\n        /* \"#utility.yul\":372:413   */\n      tag_60\n      jump\t// in\n    tag_59:\n        /* \"#utility.yul\":91:419   */\n      pop\n        /* \"#utility.yul\":7:419   */\n      swap4\n      swap3\n      pop\n      pop\n      pop\n      jump\t// out\n        /* \"#utility.yul\":439:779   */\n    tag_61:\n        /* \"#utility.yul\":495:500   */\n      0x00\n        /* \"#utility.yul\":544:547   */\n      dup3\n        /* \"#utility.yul\":537:541   */\n      0x1f\n        /* \"#utility.yul\":529:535   */\n      dup4\n        /* \"#utility.yul\":525:542   */\n      add\n        /* \"#utility.yul\":521:548   */\n      slt\n        /* \"#utility.yul\":511:633   */\n      tag_63\n      jumpi\n        /* \"#utility.yul\":552:631   */\n      tag_64\n      tag_65\n      jump\t// in\n    tag_64:\n        /* \"#utility.yul\":511:633   */\n    tag_63:\n        /* \"#utility.yul\":669:675   */\n      dup2\n        /* \"#utility.yul\":656:676   */\n      calldataload\n        /* \"#utility.yul\":694:773   */\n      tag_66\n        /* \"#utility.yul\":769:772   */\n      dup5\n        /* \"#utility.yul\":761:767   */\n      dup3\n        /* \"#utility.yul\":754:758   */\n      0x20\n        /* \"#utility.yul\":746:752   */\n      dup7\n        /* \"#utility.yul\":742:759   */\n      add\n        /* \"#utility.yul\":694:773   */\n      tag_50\n      jump\t// in\n    tag_66:\n        /* \"#utility.yul\":685:773   */\n      swap2\n      pop\n        /* \"#utility.yul\":501:779   */\n      pop\n        /* \"#utility.yul\":439:779   */\n      swap3\n      swap2\n      pop\n      pop\n      jump\t// out\n        /* \"#utility.yul\":785:924   */\n    tag_67:\n        /* \"#utility.yul\":831:836   */\n      0x00\n        /* \"#utility.yul\":869:875   */\n      dup2\n        /* \"#utility.yul\":856:876   */\n      calldataload\n        /* \"#utility.yul\":847:876   */\n      swap1\n      pop\n        /* \"#utility.yul\":885:918   */\n      tag_69\n        /* \"#utility.yul\":912:917   */\n      dup2\n        /* \"#utility.yul\":885:918   */\n      tag_70\n      jump\t// in\n    tag_69:\n        /* \"#utility.yul\":785:924   */\n      swap3\n      swap2\n      pop\n      pop\n      jump\t// out\n        /* \"#utility.yul\":930:1584   */\n    tag_19:\n        /* \"#utility.yul\":1008:1014   */\n      0x00\n        /* \"#utility.yul\":1016:1022   */\n      dup1\n        /* \"#utility.yul\":1065:1067   */\n      0x40\n        /* \"#utility.yul\":1053:1062   */\n      dup4\n        /* \"#utility.yul\":1044:1051   */\n      dup6\n        /* \"#utility.yul\":1040:1063   */\n      sub\n        /* \"#utility.yul\":1036:1068   */\n      slt\n        /* \"#utility.yul\":1033:1152   */\n      iszero\n      tag_72\n      jumpi\n        /* \"#utility.yul\":1071:1150   */\n      tag_73\n      tag_74\n      jump\t// in\n    tag_73:\n        /* \"#utility.yul\":1033:1152   */\n    tag_72:\n        /* \"#utility.yul\":1219:1220   */\n      0x00\n        /* \"#utility.yul\":1208:1217   */\n      dup4\n        /* \"#utility.yul\":1204:1221   */\n      add\n        /* \"#utility.yul\":1191:1222   */\n      calldataload\n        /* \"#utility.yul\":1249:1267   */\n      0xffffffffffffffff\n        /* \"#utility.yul\":1241:1247   */\n      dup2\n        /* \"#utility.yul\":1238:1268   */\n      gt\n        /* \"#utility.yul\":1235:1352   */\n      iszero\n      tag_75\n      jumpi\n        /* \"#utility.yul\":1271:1350   */\n      tag_76\n      tag_77\n      jump\t// in\n    tag_76:\n        /* \"#utility.yul\":1235:1352   */\n    tag_75:\n        /* \"#utility.yul\":1376:1439   */\n      tag_78\n        /* \"#utility.yul\":1431:1438   */\n      dup6\n        /* \"#utility.yul\":1422:1428   */\n      dup3\n        /* \"#utility.yul\":1411:1420   */\n      dup7\n        /* \"#utility.yul\":1407:1429   */\n      add\n        /* \"#utility.yul\":1376:1439   */\n      tag_61\n      jump\t// in\n    tag_78:\n        /* \"#utility.yul\":1366:1439   */\n      swap3\n      pop\n        /* \"#utility.yul\":1162:1449   */\n      pop\n        /* \"#utility.yul\":1488:1490   */\n      0x20\n        /* \"#utility.yul\":1514:1567   */\n      tag_79\n        /* \"#utility.yul\":1559:1566   */\n      dup6\n        /* \"#utility.yul\":1550:1556   */\n      dup3\n        /* \"#utility.yul\":1539:1548   */\n      dup7\n        /* \"#utility.yul\":1535:1557   */\n      add\n        /* \"#utility.yul\":1514:1567   */\n      tag_67\n      jump\t// in\n    tag_79:\n        /* \"#utility.yul\":1504:1567   */\n      swap2\n      pop\n        /* \"#utility.yul\":1459:1577   */\n      pop\n        /* \"#utility.yul\":930:1584   */\n      swap3\n      pop\n      swap3\n      swap1\n      pop\n      jump\t// out\n        /* \"#utility.yul\":1590:1699   */\n    tag_80:\n        /* \"#utility.yul\":1671:1692   */\n      tag_82\n        /* \"#utility.yul\":1686:1691   */\n      dup2\n        /* \"#utility.yul\":1671:1692   */\n      tag_83\n      jump\t// in\n    tag_82:\n        /* \"#utility.yul\":1666:1669   */\n      dup3\n        /* \"#utility.yul\":1659:1693   */\n      mstore\n        /* \"#utility.yul\":1590:1699   */\n      pop\n      pop\n      jump\t// out\n        /* \"#utility.yul\":1705:2069   */\n    tag_84:\n        /* \"#utility.yul\":1793:1796   */\n      0x00\n        /* \"#utility.yul\":1821:1860   */\n      tag_86\n        /* \"#utility.yul\":1854:1859   */\n      dup3\n        /* \"#utility.yul\":1821:1860   */\n      tag_87\n      jump\t// in\n    tag_86:\n        /* \"#utility.yul\":1876:1947   */\n      tag_88\n        /* \"#utility.yul\":1940:1946   */\n      dup2\n        /* \"#utility.yul\":1935:1938   */\n      dup6\n        /* \"#utility.yul\":1876:1947   */\n      tag_89\n      jump\t// in\n    tag_88:\n        /* \"#utility.yul\":1869:1947   */\n      swap4\n      pop\n        /* \"#utility.yul\":1956:2008   */\n      tag_90\n        /* \"#utility.yul\":2001:2007   */\n      dup2\n        /* \"#utility.yul\":1996:1999   */\n      dup6\n        /* \"#utility.yul\":1989:1993   */\n      0x20\n        /* \"#utility.yul\":1982:1987   */\n      dup7\n        /* \"#utility.yul\":1978:1994   */\n      add\n        /* \"#utility.yul\":1956:2008   */\n      tag_91\n      jump\t// in\n    tag_90:\n        /* \"#utility.yul\":2033:2062   */\n      tag_92\n        /* \"#utility.yul\":2055:2061   */\n      dup2\n        /* \"#utility.yul\":2033:2062   */\n      tag_93\n      jump\t// in\n    tag_92:\n        /* \"#utility.yul\":2028:2031   */\n      dup5\n        /* \"#utility.yul\":2024:2063   */\n      add\n        /* \"#utility.yul\":2017:2063   */\n      swap2\n      pop\n        /* \"#utility.yul\":1797:2069   */\n      pop\n        /* \"#utility.yul\":1705:2069   */\n      swap3\n      swap2\n      pop\n      pop\n      jump\t// out\n        /* \"#utility.yul\":2075:2441   */\n    tag_94:\n        /* \"#utility.yul\":2217:2220   */\n      0x00\n        /* \"#utility.yul\":2238:2305   */\n      tag_96\n        /* \"#utility.yul\":2302:2304   */\n      0x0a\n        /* \"#utility.yul\":2297:2300   */\n      dup4\n        /* \"#utility.yul\":2238:2305   */\n      tag_89\n      jump\t// in\n    tag_96:\n        /* \"#utility.yul\":2231:2305   */\n      swap2\n      pop\n        /* \"#utility.yul\":2314:2407   */\n      tag_97\n        /* \"#utility.yul\":2403:2406   */\n      dup3\n        /* \"#utility.yul\":2314:2407   */\n      tag_98\n      jump\t// in\n    tag_97:\n        /* \"#utility.yul\":2432:2434   */\n      0x20\n        /* \"#utility.yul\":2427:2430   */\n      dup3\n        /* \"#utility.yul\":2423:2435   */\n      add\n        /* \"#utility.yul\":2416:2435   */\n      swap1\n      pop\n        /* \"#utility.yul\":2075:2441   */\n      swap2\n      swap1\n      pop\n      jump\t// out\n        /* \"#utility.yul\":2447:2813   */\n    tag_99:\n        /* \"#utility.yul\":2589:2592   */\n      0x00\n        /* \"#utility.yul\":2610:2677   */\n      tag_101\n        /* \"#utility.yul\":2674:2676   */\n      0x0f\n        /* \"#utility.yul\":2669:2672   */\n      dup4\n        /* \"#utility.yul\":2610:2677   */\n      tag_89\n      jump\t// in\n    tag_101:\n        /* \"#utility.yul\":2603:2677   */\n      swap2\n      pop\n        /* \"#utility.yul\":2686:2779   */\n      tag_102\n        /* \"#utility.yul\":2775:2778   */\n      dup3\n        /* \"#utility.yul\":2686:2779   */\n      tag_103\n      jump\t// in\n    tag_102:\n        /* \"#utility.yul\":2804:2806   */\n      0x20\n        /* \"#utility.yul\":2799:2802   */\n      dup3\n        /* \"#utility.yul\":2795:2807   */\n      add\n        /* \"#utility.yul\":2788:2807   */\n      swap1\n      pop\n        /* \"#utility.yul\":2447:2813   */\n      swap2\n      swap1\n      pop\n      jump\t// out\n        /* \"#utility.yul\":2819:2937   */\n    tag_104:\n        /* \"#utility.yul\":2906:2930   */\n      tag_106\n        /* \"#utility.yul\":2924:2929   */\n      dup2\n        /* \"#utility.yul\":2906:2930   */\n      tag_107\n      jump\t// in\n    tag_106:\n        /* \"#utility.yul\":2901:2904   */\n      dup3\n        /* \"#utility.yul\":2894:2931   */\n      mstore\n        /* \"#utility.yul\":2819:2937   */\n      pop\n      pop\n      jump\t// out\n        /* \"#utility.yul\":2943:3263   */\n    tag_22:\n        /* \"#utility.yul\":3058:3062   */\n      0x00\n        /* \"#utility.yul\":3096:3098   */\n      0x40\n        /* \"#utility.yul\":3085:3094   */\n      dup3\n        /* \"#utility.yul\":3081:3099   */\n      add\n        /* \"#utility.yul\":3073:3099   */\n      swap1\n      pop\n        /* \"#utility.yul\":3109:3174   */\n      tag_109\n        /* \"#utility.yul\":3171:3172   */\n      0x00\n        /* \"#utility.yul\":3160:3169   */\n      dup4\n        /* \"#utility.yul\":3156:3173   */\n      add\n        /* \"#utility.yul\":3147:3153   */\n      dup6\n        /* \"#utility.yul\":3109:3174   */\n      tag_80\n      jump\t// in\n    tag_109:\n        /* \"#utility.yul\":3184:3256   */\n      tag_110\n        /* \"#utility.yul\":3252:3254   */\n      0x20\n        /* \"#utility.yul\":3241:3250   */\n      dup4\n        /* \"#utility.yul\":3237:3255   */\n      add\n        /* \"#utility.yul\":3228:3234   */\n      dup5\n        /* \"#utility.yul\":3184:3256   */\n      tag_104\n      jump\t// in\n    tag_110:\n        /* \"#utility.yul\":2943:3263   */\n      swap4\n      swap3\n      pop\n      pop\n      pop\n      jump\t// out\n        /* \"#utility.yul\":3269:3582   */\n    tag_27:\n        /* \"#utility.yul\":3382:3386   */\n      0x00\n        /* \"#utility.yul\":3420:3422   */\n      0x20\n        /* \"#utility.yul\":3409:3418   */\n      dup3\n        /* \"#utility.yul\":3405:3423   */\n      add\n        /* \"#utility.yul\":3397:3423   */\n      swap1\n      pop\n        /* \"#utility.yul\":3469:3478   */\n      dup2\n        /* \"#utility.yul\":3463:3467   */\n      dup2\n        /* \"#utility.yul\":3459:3479   */\n      sub\n        /* \"#utility.yul\":3455:3456   */\n      0x00\n        /* \"#utility.yul\":3444:3453   */\n      dup4\n        /* \"#utility.yul\":3440:3457   */\n      add\n        /* \"#utility.yul\":3433:3480   */\n      mstore\n        /* \"#utility.yul\":3497:3575   */\n      tag_112\n        /* \"#utility.yul\":3570:3574   */\n      dup2\n        /* \"#utility.yul\":3561:3567   */\n      dup5\n        /* \"#utility.yul\":3497:3575   */\n      tag_84\n      jump\t// in\n    tag_112:\n        /* \"#utility.yul\":3489:3575   */\n      swap1\n      pop\n        /* \"#utility.yul\":3269:3582   */\n      swap3\n      swap2\n      pop\n      pop\n      jump\t// out\n        /* \"#utility.yul\":3588:4007   */\n    tag_30:\n        /* \"#utility.yul\":3754:3758   */\n      0x00\n        /* \"#utility.yul\":3792:3794   */\n      0x20\n        /* \"#utility.yul\":3781:3790   */\n      dup3\n        /* \"#utility.yul\":3777:3795   */\n      add\n        /* \"#utility.yul\":3769:3795   */\n      swap1\n      pop\n        /* \"#utility.yul\":3841:3850   */\n      dup2\n        /* \"#utility.yul\":3835:3839   */\n      dup2\n        /* \"#utility.yul\":3831:3851   */\n      sub\n        /* \"#utility.yul\":3827:3828   */\n      0x00\n        /* \"#utility.yul\":3816:3825   */\n      dup4\n        /* \"#utility.yul\":3812:3829   */\n      add\n        /* \"#utility.yul\":3805:3852   */\n      mstore\n        /* \"#utility.yul\":3869:4000   */\n      tag_114\n        /* \"#utility.yul\":3995:3999   */\n      dup2\n        /* \"#utility.yul\":3869:4000   */\n      tag_94\n      jump\t// in\n    tag_114:\n        /* \"#utility.yul\":3861:4000   */\n      swap1\n      pop\n        /* \"#utility.yul\":3588:4007   */\n      swap2\n      swap1\n      pop\n      jump\t// out\n        /* \"#utility.yul\":4013:4432   */\n    tag_11:\n        /* \"#utility.yul\":4179:4183   */\n      0x00\n        /* \"#utility.yul\":4217:4219   */\n      0x20\n        /* \"#utility.yul\":4206:4215   */\n      dup3\n        /* \"#utility.yul\":4202:4220   */\n      add\n        /* \"#utility.yul\":4194:4220   */\n      swap1\n      pop\n        /* \"#utility.yul\":4266:4275   */\n      dup2\n        /* \"#utility.yul\":4260:4264   */\n      dup2\n        /* \"#utility.yul\":4256:4276   */\n      sub\n        /* \"#utility.yul\":4252:4253   */\n      0x00\n        /* \"#utility.yul\":4241:4250   */\n      dup4\n        /* \"#utility.yul\":4237:4254   */\n      add\n        /* \"#utility.yul\":4230:4277   */\n      mstore\n        /* \"#utility.yul\":4294:4425   */\n      tag_116\n        /* \"#utility.yul\":4420:4424   */\n      dup2\n        /* \"#utility.yul\":4294:4425   */\n      tag_99\n      jump\t// in\n    tag_116:\n        /* \"#utility.yul\":4286:4425   */\n      swap1\n      pop\n        /* \"#utility.yul\":4013:4432   */\n      swap2\n      swap1\n      pop\n      jump\t// out\n        /* \"#utility.yul\":4438:4660   */\n    tag_16:\n        /* \"#utility.yul\":4531:4535   */\n      0x00\n        /* \"#utility.yul\":4569:4571   */\n      0x20\n        /* \"#utility.yul\":4558:4567   */\n      dup3\n        /* \"#utility.yul\":4554:4572   */\n      add\n        /* \"#utility.yul\":4546:4572   */\n      swap1\n      pop\n        /* \"#utility.yul\":4582:4653   */\n      tag_118\n        /* \"#utility.yul\":4650:4651   */\n      0x00\n        /* \"#utility.yul\":4639:4648   */\n      dup4\n        /* \"#utility.yul\":4635:4652   */\n      add\n        /* \"#utility.yul\":4626:4632   */\n      dup5\n        /* \"#utility.yul\":4582:4653   */\n      tag_104\n      jump\t// in\n    tag_118:\n        /* \"#utility.yul\":4438:4660   */\n      swap3\n      swap2\n      pop\n      pop\n      jump\t// out\n        /* \"#utility.yul\":4666:4795   */\n    tag_55:\n        /* \"#utility.yul\":4700:4706   */\n      0x00\n        /* \"#utility.yul\":4727:4747   */\n      tag_120\n      tag_121\n      jump\t// in\n    tag_120:\n        /* \"#utility.yul\":4717:4747   */\n      swap1\n      pop\n        /* \"#utility.yul\":4756:4789   */\n      tag_122\n        /* \"#utility.yul\":4784:4788   */\n      dup3\n        /* \"#utility.yul\":4776:4782   */\n      dup3\n        /* \"#utility.yul\":4756:4789   */\n      tag_123\n      jump\t// in\n    tag_122:\n        /* \"#utility.yul\":4666:4795   */\n      swap2\n      swap1\n      pop\n      jump\t// out\n        /* \"#utility.yul\":4801:4876   */\n    tag_121:\n        /* \"#utility.yul\":4834:4840   */\n      0x00\n        /* \"#utility.yul\":4867:4869   */\n      0x40\n        /* \"#utility.yul\":4861:4870   */\n      mload\n        /* \"#utility.yul\":4851:4870   */\n      swap1\n      pop\n        /* \"#utility.yul\":4801:4876   */\n      swap1\n      jump\t// out\n        /* \"#utility.yul\":4882:5190   */\n    tag_54:\n        /* \"#utility.yul\":4944:4948   */\n      0x00\n        /* \"#utility.yul\":5034:5052   */\n      0xffffffffffffffff\n        /* \"#utility.yul\":5026:5032   */\n      dup3\n        /* \"#utility.yul\":5023:5053   */\n      gt\n        /* \"#utility.yul\":5020:5076   */\n      iszero\n      tag_126\n      jumpi\n        /* \"#utility.yul\":5056:5074   */\n      tag_127\n      tag_128\n      jump\t// in\n    tag_127:\n        /* \"#utility.yul\":5020:5076   */\n    tag_126:\n        /* \"#utility.yul\":5094:5123   */\n      tag_129\n        /* \"#utility.yul\":5116:5122   */\n      dup3\n        /* \"#utility.yul\":5094:5123   */\n      tag_93\n      jump\t// in\n    tag_129:\n        /* \"#utility.yul\":5086:5123   */\n      swap1\n      pop\n        /* \"#utility.yul\":5178:5182   */\n      0x20\n        /* \"#utility.yul\":5172:5176   */\n      dup2\n        /* \"#utility.yul\":5168:5183   */\n      add\n        /* \"#utility.yul\":5160:5183   */\n      swap1\n      pop\n        /* \"#utility.yul\":4882:5190   */\n      swap2\n      swap1\n      pop\n      jump\t// out\n        /* \"#utility.yul\":5196:5295   */\n    tag_87:\n        /* \"#utility.yul\":5248:5254   */\n      0x00\n        /* \"#utility.yul\":5282:5287   */\n      dup2\n        /* \"#utility.yul\":5276:5288   */\n      mload\n        /* \"#utility.yul\":5266:5288   */\n      swap1\n      pop\n        /* \"#utility.yul\":5196:5295   */\n      swap2\n      swap1\n      pop\n      jump\t// out\n        /* \"#utility.yul\":5301:5470   */\n    tag_89:\n        /* \"#utility.yul\":5385:5396   */\n      0x00\n        /* \"#utility.yul\":5419:5425   */\n      dup3\n        /* \"#utility.yul\":5414:5417   */\n      dup3\n        /* \"#utility.yul\":5407:5426   */\n      mstore\n        /* \"#utility.yul\":5459:5463   */\n      0x20\n        /* \"#utility.yul\":5454:5457   */\n      dup3\n        /* \"#utility.yul\":5450:5464   */\n      add\n        /* \"#utility.yul\":5435:5464   */\n      swap1\n      pop\n        /* \"#utility.yul\":5301:5470   */\n      swap3\n      swap2\n      pop\n      pop\n      jump\t// out\n        /* \"#utility.yul\":5476:5566   */\n    tag_83:\n        /* \"#utility.yul\":5510:5517   */\n      0x00\n        /* \"#utility.yul\":5553:5558   */\n      dup2\n        /* \"#utility.yul\":5546:5559   */\n      iszero\n        /* \"#utility.yul\":5539:5560   */\n      iszero\n        /* \"#utility.yul\":5528:5560   */\n      swap1\n      pop\n        /* \"#utility.yul\":5476:5566   */\n      swap2\n      swap1\n      pop\n      jump\t// out\n        /* \"#utility.yul\":5572:5649   */\n    tag_107:\n        /* \"#utility.yul\":5609:5616   */\n      0x00\n        /* \"#utility.yul\":5638:5643   */\n      dup2\n        /* \"#utility.yul\":5627:5643   */\n      swap1\n      pop\n        /* \"#utility.yul\":5572:5649   */\n      swap2\n      swap1\n      pop\n      jump\t// out\n        /* \"#utility.yul\":5655:5809   */\n    tag_60:\n        /* \"#utility.yul\":5739:5745   */\n      dup3\n        /* \"#utility.yul\":5734:5737   */\n      dup2\n        /* \"#utility.yul\":5729:5732   */\n      dup4\n        /* \"#utility.yul\":5716:5746   */\n      calldatacopy\n        /* \"#utility.yul\":5801:5802   */\n      0x00\n        /* \"#utility.yul\":5792:5798   */\n      dup4\n        /* \"#utility.yul\":5787:5790   */\n      dup4\n        /* \"#utility.yul\":5783:5799   */\n      add\n        /* \"#utility.yul\":5776:5803   */\n      mstore\n        /* \"#utility.yul\":5655:5809   */\n      pop\n      pop\n      pop\n      jump\t// out\n        /* \"#utility.yul\":5815:6122   */\n    tag_91:\n        /* \"#utility.yul\":5883:5884   */\n      0x00\n        /* \"#utility.yul\":5893:6006   */\n    tag_136:\n        /* \"#utility.yul\":5907:5913   */\n      dup4\n        /* \"#utility.yul\":5904:5905   */\n      dup2\n        /* \"#utility.yul\":5901:5914   */\n      lt\n        /* \"#utility.yul\":5893:6006   */\n      iszero\n      tag_138\n      jumpi\n        /* \"#utility.yul\":5992:5993   */\n      dup1\n        /* \"#utility.yul\":5987:5990   */\n      dup3\n        /* \"#utility.yul\":5983:5994   */\n      add\n        /* \"#utility.yul\":5977:5995   */\n      mload\n        /* \"#utility.yul\":5973:5974   */\n      dup2\n        /* \"#utility.yul\":5968:5971   */\n      dup5\n        /* \"#utility.yul\":5964:5975   */\n      add\n        /* \"#utility.yul\":5957:5996   */\n      mstore\n        /* \"#utility.yul\":5929:5931   */\n      0x20\n        /* \"#utility.yul\":5926:5927   */\n      dup2\n        /* \"#utility.yul\":5922:5932   */\n      add\n        /* \"#utility.yul\":5917:5932   */\n      swap1\n      pop\n        /* \"#utility.yul\":5893:6006   */\n      jump(tag_136)\n    tag_138:\n        /* \"#utility.yul\":6024:6030   */\n      dup4\n        /* \"#utility.yul\":6021:6022   */\n      dup2\n        /* \"#utility.yul\":6018:6031   */\n      gt\n        /* \"#utility.yul\":6015:6116   */\n      iszero\n      tag_139\n      jumpi\n        /* \"#utility.yul\":6104:6105   */\n      0x00\n        /* \"#utility.yul\":6095:6101   */\n      dup5\n        /* \"#utility.yul\":6090:6093   */\n      dup5\n        /* \"#utility.yul\":6086:6102   */\n      add\n        /* \"#utility.yul\":6079:6106   */\n      mstore\n        /* \"#utility.yul\":6015:6116   */\n    tag_139:\n        /* \"#utility.yul\":5864:6122   */\n      pop\n        /* \"#utility.yul\":5815:6122   */\n      pop\n      pop\n      pop\n      jump\t// out\n        /* \"#utility.yul\":6128:6448   */\n    tag_34:\n        /* \"#utility.yul\":6172:6178   */\n      0x00\n        /* \"#utility.yul\":6209:6210   */\n      0x02\n        /* \"#utility.yul\":6203:6207   */\n      dup3\n        /* \"#utility.yul\":6199:6211   */\n      div\n        /* \"#utility.yul\":6189:6211   */\n      swap1\n      pop\n        /* \"#utility.yul\":6256:6257   */\n      0x01\n        /* \"#utility.yul\":6250:6254   */\n      dup3\n        /* \"#utility.yul\":6246:6258   */\n      and\n        /* \"#utility.yul\":6277:6295   */\n      dup1\n        /* \"#utility.yul\":6267:6348   */\n      tag_141\n      jumpi\n        /* \"#utility.yul\":6333:6337   */\n      0x7f\n        /* \"#utility.yul\":6325:6331   */\n      dup3\n        /* \"#utility.yul\":6321:6338   */\n      and\n        /* \"#utility.yul\":6311:6338   */\n      swap2\n      pop\n        /* \"#utility.yul\":6267:6348   */\n    tag_141:\n        /* \"#utility.yul\":6395:6397   */\n      0x20\n        /* \"#utility.yul\":6387:6393   */\n      dup3\n        /* \"#utility.yul\":6384:6398   */\n      lt\n        /* \"#utility.yul\":6364:6382   */\n      dup2\n        /* \"#utility.yul\":6361:6399   */\n      eq\n        /* \"#utility.yul\":6358:6442   */\n      iszero\n      tag_142\n      jumpi\n        /* \"#utility.yul\":6414:6432   */\n      tag_143\n      tag_144\n      jump\t// in\n    tag_143:\n        /* \"#utility.yul\":6358:6442   */\n    tag_142:\n        /* \"#utility.yul\":6179:6448   */\n      pop\n        /* \"#utility.yul\":6128:6448   */\n      swap2\n      swap1\n      pop\n      jump\t// out\n        /* \"#utility.yul\":6454:6735   */\n    tag_123:\n        /* \"#utility.yul\":6537:6564   */\n      tag_146\n        /* \"#utility.yul\":6559:6563   */\n      dup3\n        /* \"#utility.yul\":6537:6564   */\n      tag_93\n      jump\t// in\n    tag_146:\n        /* \"#utility.yul\":6529:6535   */\n      dup2\n        /* \"#utility.yul\":6525:6565   */\n      add\n        /* \"#utility.yul\":6667:6673   */\n      dup2\n        /* \"#utility.yul\":6655:6665   */\n      dup2\n        /* \"#utility.yul\":6652:6674   */\n      lt\n        /* \"#utility.yul\":6631:6649   */\n      0xffffffffffffffff\n        /* \"#utility.yul\":6619:6629   */\n      dup3\n        /* \"#utility.yul\":6616:6650   */\n      gt\n        /* \"#utility.yul\":6613:6675   */\n      or\n        /* \"#utility.yul\":6610:6698   */\n      iszero\n      tag_147\n      jumpi\n        /* \"#utility.yul\":6678:6696   */\n      tag_148\n      tag_128\n      jump\t// in\n    tag_148:\n        /* \"#utility.yul\":6610:6698   */\n    tag_147:\n        /* \"#utility.yul\":6718:6728   */\n      dup1\n        /* \"#utility.yul\":6714:6716   */\n      0x40\n        /* \"#utility.yul\":6707:6729   */\n      mstore\n        /* \"#utility.yul\":6497:6735   */\n      pop\n        /* \"#utility.yul\":6454:6735   */\n      pop\n      pop\n      jump\t// out\n        /* \"#utility.yul\":6741:6921   */\n    tag_144:\n        /* \"#utility.yul\":6789:6866   */\n      0x4e487b7100000000000000000000000000000000000000000000000000000000\n        /* \"#utility.yul\":6786:6787   */\n      0x00\n        /* \"#utility.yul\":6779:6867   */\n      mstore\n        /* \"#utility.yul\":6886:6890   */\n      0x22\n        /* \"#utility.yul\":6883:6884   */\n      0x04\n        /* \"#utility.yul\":6876:6891   */\n      mstore\n        /* \"#utility.yul\":6910:6914   */\n      0x24\n        /* \"#utility.yul\":6907:6908   */\n      0x00\n        /* \"#utility.yul\":6900:6915   */\n      revert\n        /* \"#utility.yul\":6927:7107   */\n    tag_128:\n        /* \"#utility.yul\":6975:7052   */\n      0x4e487b7100000000000000000000000000000000000000000000000000000000\n        /* \"#utility.yul\":6972:6973   */\n      0x00\n        /* \"#utility.yul\":6965:7053   */\n      mstore\n        /* \"#utility.yul\":7072:7076   */\n      0x41\n        /* \"#utility.yul\":7069:7070   */\n      0x04\n        /* \"#utility.yul\":7062:7077   */\n      mstore\n        /* \"#utility.yul\":7096:7100   */\n      0x24\n        /* \"#utility.yul\":7093:7094   */\n      0x00\n        /* \"#utility.yul\":7086:7101   */\n      revert\n        /* \"#utility.yul\":7113:7230   */\n    tag_65:\n        /* \"#utility.yul\":7222:7223   */\n      0x00\n        /* \"#utility.yul\":7219:7220   */\n      dup1\n        /* \"#utility.yul\":7212:7224   */\n      revert\n        /* \"#utility.yul\":7236:7353   */\n    tag_58:\n        /* \"#utility.yul\":7345:7346   */\n      0x00\n        /* \"#utility.yul\":7342:7343   */\n      dup1\n        /* \"#utility.yul\":7335:7347   */\n      revert\n        /* \"#utility.yul\":7359:7476   */\n    tag_77:\n        /* \"#utility.yul\":7468:7469   */\n      0x00\n        /* \"#utility.yul\":7465:7466   */\n      dup1\n        /* \"#utility.yul\":7458:7470   */\n      revert\n        /* \"#utility.yul\":7482:7599   */\n    tag_74:\n        /* \"#utility.yul\":7591:7592   */\n      0x00\n        /* \"#utility.yul\":7588:7589   */\n      dup1\n        /* \"#utility.yul\":7581:7593   */\n      revert\n        /* \"#utility.yul\":7605:7707   */\n    tag_93:\n        /* \"#utility.yul\":7646:7652   */\n      0x00\n        /* \"#utility.yul\":7697:7699   */\n      0x1f\n        /* \"#utility.yul\":7693:7700   */\n      not\n        /* \"#utility.yul\":7688:7690   */\n      0x1f\n        /* \"#utility.yul\":7681:7686   */\n      dup4\n        /* \"#utility.yul\":7677:7691   */\n      add\n        /* \"#utility.yul\":7673:7701   */\n      and\n        /* \"#utility.yul\":7663:7701   */\n      swap1\n      pop\n        /* \"#utility.yul\":7605:7707   */\n      swap2\n      swap1\n      pop\n      jump\t// out\n        /* \"#utility.yul\":7713:7873   */\n    tag_98:\n        /* \"#utility.yul\":7853:7865   */\n      0x466f6f2063616c6c656400000000000000000000000000000000000000000000\n        /* \"#utility.yul\":7849:7850   */\n      0x00\n        /* \"#utility.yul\":7841:7847   */\n      dup3\n        /* \"#utility.yul\":7837:7851   */\n      add\n        /* \"#utility.yul\":7830:7866   */\n      mstore\n        /* \"#utility.yul\":7713:7873   */\n      pop\n      jump\t// out\n        /* \"#utility.yul\":7879:8044   */\n    tag_103:\n        /* \"#utility.yul\":8019:8036   */\n      0x46616c6c6261636b2043616c6c65640000000000000000000000000000000000\n        /* \"#utility.yul\":8015:8016   */\n      0x00\n        /* \"#utility.yul\":8007:8013   */\n      dup3\n        /* \"#utility.yul\":8003:8017   */\n      add\n        /* \"#utility.yul\":7996:8037   */\n      mstore\n        /* \"#utility.yul\":7879:8044   */\n      pop\n      jump\t// out\n        /* \"#utility.yul\":8050:8172   */\n    tag_70:\n        /* \"#utility.yul\":8123:8147   */\n      tag_159\n        /* \"#utility.yul\":8141:8146   */\n      dup2\n        /* \"#utility.yul\":8123:8147   */\n      tag_107\n      jump\t// in\n    tag_159:\n        /* \"#utility.yul\":8116:8121   */\n      dup2\n        /* \"#utility.yul\":8113:8148   */\n      eq\n        /* \"#utility.yul\":8103:8166   */\n      tag_160\n      jumpi\n        /* \"#utility.yul\":8162:8163   */\n      0x00\n        /* \"#utility.yul\":8159:8160   */\n      dup1\n        /* \"#utility.yul\":8152:8164   */\n      revert\n        /* \"#utility.yul\":8103:8166   */\n    tag_160:\n        /* \"#utility.yul\":8050:8172   */\n      pop\n      jump\t// out\n\n    auxdata: 0xa2646970667358221220808edd4ce86f90062e5266f1bea007a77dbe1a4d0c807eaced7ca05d99809a5264736f6c63430008070033\n}\n",
				"bytecode": {
					"linkReferences": {},
					"object": "608060405261070c806100136000396000f3fe6080604052600436106100385760003560e01c80630c55699c1461007657806324ccab8f146100a1578063e21f37ce146100d25761003f565b3661003f57005b7fcf34ef537ac33ee1ac626ca1587a0a7e8e51561e5514f8cb36afa1c5102b3bab60405161006c90610482565b60405180910390a1005b34801561008257600080fd5b5061008b6100fd565b60405161009891906104a2565b60405180910390f35b6100bb60048036038101906100b6919061031e565b610103565b6040516100c9929190610417565b60405180910390f35b3480156100de57600080fd5b506100e7610168565b6040516100f49190610440565b60405180910390f35b60015481565b6000807fcf34ef537ac33ee1ac626ca1587a0a7e8e51561e5514f8cb36afa1c5102b3bab60405161013390610462565b60405180910390a183600090805190602001906101519291906101f6565b50826001819055506001607b915091509250929050565b6000805461017590610587565b80601f01602080910402602001604051908101604052809291908181526020018280546101a190610587565b80156101ee5780601f106101c3576101008083540402835291602001916101ee565b820191906000526020600020905b8154815290600101906020018083116101d157829003601f168201915b505050505081565b82805461020290610587565b90600052602060002090601f016020900481019282610224576000855561026b565b82601f1061023d57805160ff191683800117855561026b565b8280016001018555821561026b579182015b8281111561026a57825182559160200191906001019061024f565b5b509050610278919061027c565b5090565b5b8082111561029557600081600090555060010161027d565b5090565b60006102ac6102a7846104e2565b6104bd565b9050828152602081018484840111156102c8576102c761064d565b5b6102d3848285610545565b509392505050565b600082601f8301126102f0576102ef610648565b5b8135610300848260208601610299565b91505092915050565b600081359050610318816106bf565b92915050565b6000806040838503121561033557610334610657565b5b600083013567ffffffffffffffff81111561035357610352610652565b5b61035f858286016102db565b925050602061037085828601610309565b9150509250929050565b6103838161052f565b82525050565b600061039482610513565b61039e818561051e565b93506103ae818560208601610554565b6103b78161065c565b840191505092915050565b60006103cf600a8361051e565b91506103da8261066d565b602082019050919050565b60006103f2600f8361051e565b91506103fd82610696565b602082019050919050565b6104118161053b565b82525050565b600060408201905061042c600083018561037a565b6104396020830184610408565b9392505050565b6000602082019050818103600083015261045a8184610389565b905092915050565b6000602082019050818103600083015261047b816103c2565b9050919050565b6000602082019050818103600083015261049b816103e5565b9050919050565b60006020820190506104b76000830184610408565b92915050565b60006104c76104d8565b90506104d382826105b9565b919050565b6000604051905090565b600067ffffffffffffffff8211156104fd576104fc610619565b5b6105068261065c565b9050602081019050919050565b600081519050919050565b600082825260208201905092915050565b60008115159050919050565b6000819050919050565b82818337600083830152505050565b60005b83811015610572578082015181840152602081019050610557565b83811115610581576000848401525b50505050565b6000600282049050600182168061059f57607f821691505b602082108114156105b3576105b26105ea565b5b50919050565b6105c28261065c565b810181811067ffffffffffffffff821117156105e1576105e0610619565b5b80604052505050565b7f4e487b7100000000000000000000000000000000000000000000000000000000600052602260045260246000fd5b7f4e487b7100000000000000000000000000000000000000000000000000000000600052604160045260246000fd5b600080fd5b600080fd5b600080fd5b600080fd5b6000601f19601f8301169050919050565b7f466f6f2063616c6c656400000000000000000000000000000000000000000000600082015250565b7f46616c6c6261636b2043616c6c65640000000000000000000000000000000000600082015250565b6106c88161053b565b81146106d357600080fd5b5056fea2646970667358221220808edd4ce86f90062e5266f1bea007a77dbe1a4d0c807eaced7ca05d99809a5264736f6c63430008070033",
					"opcodes": "PUSH1 0x80 PUSH1 0x40 MSTORE PUSH2 0x70C DUP1 PUSH2 0x13 PUSH1 0x0 CODECOPY PUSH1 0x0 RETURN INVALID PUSH1 0x80 PUSH1 0x40 MSTORE PUSH1 0x4 CALLDATASIZE LT PUSH2 0x38 JUMPI PUSH1 0x0 CALLDATALOAD PUSH1 0xE0 SHR DUP1 PUSH4 0xC55699C EQ PUSH2 0x76 JUMPI DUP1 PUSH4 0x24CCAB8F EQ PUSH2 0xA1 JUMPI DUP1 PUSH4 0xE21F37CE EQ PUSH2 0xD2 JUMPI PUSH2 0x3F JUMP JUMPDEST CALLDATASIZE PUSH2 0x3F JUMPI STOP JUMPDEST PUSH32 0xCF34EF537AC33EE1AC626CA1587A0A7E8E51561E5514F8CB36AFA1C5102B3BAB PUSH1 0x40 MLOAD PUSH2 0x6C SWAP1 PUSH2 0x482 JUMP JUMPDEST PUSH1 0x40 MLOAD DUP1 SWAP2 SUB SWAP1 LOG1 STOP JUMPDEST CALLVALUE DUP1 ISZERO PUSH2 0x82 JUMPI PUSH1 0x0 DUP1 REVERT JUMPDEST POP PUSH2 0x8B PUSH2 0xFD JUMP JUMPDEST PUSH1 0x40 MLOAD PUSH2 0x98 SWAP2 SWAP1 PUSH2 0x4A2 JUMP JUMPDEST PUSH1 0x40 MLOAD DUP1 SWAP2 SUB SWAP1 RETURN JUMPDEST PUSH2 0xBB PUSH1 0x4 DUP1 CALLDATASIZE SUB DUP2 ADD SWAP1 PUSH2 0xB6 SWAP2 SWAP1 PUSH2 0x31E JUMP JUMPDEST PUSH2 0x103 JUMP JUMPDEST PUSH1 0x40 MLOAD PUSH2 0xC9 SWAP3 SWAP2 SWAP1 PUSH2 0x417 JUMP JUMPDEST PUSH1 0x40 MLOAD DUP1 SWAP2 SUB SWAP1 RETURN JUMPDEST CALLVALUE DUP1 ISZERO PUSH2 0xDE JUMPI PUSH1 0x0 DUP1 REVERT JUMPDEST POP PUSH2 0xE7 PUSH2 0x168 JUMP JUMPDEST PUSH1 0x40 MLOAD PUSH2 0xF4 SWAP2 SWAP1 PUSH2 0x440 JUMP JUMPDEST PUSH1 0x40 MLOAD DUP1 SWAP2 SUB SWAP1 RETURN JUMPDEST PUSH1 0x1 SLOAD DUP2 JUMP JUMPDEST PUSH1 0x0 DUP1 PUSH32 0xCF34EF537AC33EE1AC626CA1587A0A7E8E51561E5514F8CB36AFA1C5102B3BAB PUSH1 0x40 MLOAD PUSH2 0x133 SWAP1 PUSH2 0x462 JUMP JUMPDEST PUSH1 0x40 MLOAD DUP1 SWAP2 SUB SWAP1 LOG1 DUP4 PUSH1 0x0 SWAP1 DUP1 MLOAD SWAP1 PUSH1 0x20 ADD SWAP1 PUSH2 0x151 SWAP3 SWAP2 SWAP1 PUSH2 0x1F6 JUMP JUMPDEST POP DUP3 PUSH1 0x1 DUP2 SWAP1 SSTORE POP PUSH1 0x1 PUSH1 0x7B SWAP2 POP SWAP2 POP SWAP3 POP SWAP3 SWAP1 POP JUMP JUMPDEST PUSH1 0x0 DUP1 SLOAD PUSH2 0x175 SWAP1 PUSH2 0x587 JUMP JUMPDEST DUP1 PUSH1 0x1F ADD PUSH1 0x20 DUP1 SWAP2 DIV MUL PUSH1 0x20 ADD PUSH1 0x40 MLOAD SWAP1 DUP2 ADD PUSH1 0x40 MSTORE DUP1 SWAP3 SWAP2 SWAP1 DUP2 DUP2 MSTORE PUSH1 0x20 ADD DUP3 DUP1 SLOAD PUSH2 0x1A1 SWAP1 PUSH2 0x587 JUMP JUMPDEST DUP1 ISZERO PUSH2 0x1EE JUMPI DUP1 PUSH1 0x1F LT PUSH2 0x1C3 JUMPI PUSH2 0x100 DUP1 DUP4 SLOAD DIV MUL DUP4 MSTORE SWAP2 PUSH1 0x20 ADD SWAP2 PUSH2 0x1EE JUMP JUMPDEST DUP3 ADD SWAP2 SWAP1 PUSH1 0x0 MSTORE PUSH1 0x20 PUSH1 0x0 KECCAK256 SWAP1 JUMPDEST DUP2 SLOAD DUP2 MSTORE SWAP1 PUSH1 0x1 ADD SWAP1 PUSH1 0x20 ADD DUP1 DUP4 GT PUSH2 0x1D1 JUMPI DUP3 SWAP1 SUB PUSH1 0x1F AND DUP3 ADD SWAP2 JUMPDEST POP POP POP POP POP DUP2 JUMP JUMPDEST DUP3 DUP1 SLOAD PUSH2 0x202 SWAP1 PUSH2 0x587 JUMP JUMPDEST SWAP1 PUSH1 0x0 MSTORE PUSH1 0x20 PUSH1 0x0 KECCAK256 SWAP1 PUSH1 0x1F ADD PUSH1 0x20 SWAP1 DIV DUP2 ADD SWAP3 DUP3 PUSH2 0x224 JUMPI PUSH1 0x0 DUP6 SSTORE PUSH2 0x26B JUMP JUMPDEST DUP3 PUSH1 0x1F LT PUSH2 0x23D JUMPI DUP1 MLOAD PUSH1 0xFF NOT AND DUP4 DUP1 ADD OR DUP6 SSTORE PUSH2 0x26B JUMP JUMPDEST DUP3 DUP1 ADD PUSH1 0x1 ADD DUP6 SSTORE DUP3 ISZERO PUSH2 0x26B JUMPI SWAP2 DUP3 ADD JUMPDEST DUP3 DUP2 GT ISZERO PUSH2 0x26A JUMPI DUP3 MLOAD DUP3 SSTORE SWAP2 PUSH1 0x20 ADD SWAP2 SWAP1 PUSH1 0x1 ADD SWAP1 PUSH2 0x24F JUMP JUMPDEST JUMPDEST POP SWAP1 POP PUSH2 0x278 SWAP2 SWAP1 PUSH2 0x27C JUMP JUMPDEST POP SWAP1 JUMP JUMPDEST JUMPDEST DUP1 DUP3 GT ISZERO PUSH2 0x295 JUMPI PUSH1 0x0 DUP2 PUSH1 0x0 SWAP1 SSTORE POP PUSH1 0x1 ADD PUSH2 0x27D JUMP JUMPDEST POP SWAP1 JUMP JUMPDEST PUSH1 0x0 PUSH2 0x2AC PUSH2 0x2A7 DUP5 PUSH2 0x4E2 JUMP JUMPDEST PUSH2 0x4BD JUMP JUMPDEST SWAP1 POP DUP3 DUP2 MSTORE PUSH1 0x20 DUP2 ADD DUP5 DUP5 DUP5 ADD GT ISZERO PUSH2 0x2C8 JUMPI PUSH2 0x2C7 PUSH2 0x64D JUMP JUMPDEST JUMPDEST PUSH2 0x2D3 DUP5 DUP3 DUP6 PUSH2 0x545 JUMP JUMPDEST POP SWAP4 SWAP3 POP POP POP JUMP JUMPDEST PUSH1 0x0 DUP3 PUSH1 0x1F DUP4 ADD SLT PUSH2 0x2F0 JUMPI PUSH2 0x2EF PUSH2 0x648 JUMP JUMPDEST JUMPDEST DUP2 CALLDATALOAD PUSH2 0x300 DUP5 DUP3 PUSH1 0x20 DUP7 ADD PUSH2 0x299 JUMP JUMPDEST SWAP2 POP POP SWAP3 SWAP2 POP POP JUMP JUMPDEST PUSH1 0x0 DUP2 CALLDATALOAD SWAP1 POP PUSH2 0x318 DUP2 PUSH2 0x6BF JUMP JUMPDEST SWAP3 SWAP2 POP POP JUMP JUMPDEST PUSH1 0x0 DUP1 PUSH1 0x40 DUP4 DUP6 SUB SLT ISZERO PUSH2 0x335 JUMPI PUSH2 0x334 PUSH2 0x657 JUMP JUMPDEST JUMPDEST PUSH1 0x0 DUP4 ADD CALLDATALOAD PUSH8 0xFFFFFFFFFFFFFFFF DUP2 GT ISZERO PUSH2 0x353 JUMPI PUSH2 0x352 PUSH2 0x652 JUMP JUMPDEST JUMPDEST PUSH2 0x35F DUP6 DUP3 DUP7 ADD PUSH2 0x2DB JUMP JUMPDEST SWAP3 POP POP PUSH1 0x20 PUSH2 0x370 DUP6 DUP3 DUP7 ADD PUSH2 0x309 JUMP JUMPDEST SWAP2 POP POP SWAP3 POP SWAP3 SWAP1 POP JUMP JUMPDEST PUSH2 0x383 DUP2 PUSH2 0x52F JUMP JUMPDEST DUP3 MSTORE POP POP JUMP JUMPDEST PUSH1 0x0 PUSH2 0x394 DUP3 PUSH2 0x513 JUMP JUMPDEST PUSH2 0x39E DUP2 DUP6 PUSH2 0x51E JUMP JUMPDEST SWAP4 POP PUSH2 0x3AE DUP2 DUP6 PUSH1 0x20 DUP7 ADD PUSH2 0x554 JUMP JUMPDEST PUSH2 0x3B7 DUP2 PUSH2 0x65C JUMP JUMPDEST DUP5 ADD SWAP2 POP POP SWAP3 SWAP2 POP POP JUMP JUMPDEST PUSH1 0x0 PUSH2 0x3CF PUSH1 0xA DUP4 PUSH2 0x51E JUMP JUMPDEST SWAP2 POP PUSH2 0x3DA DUP3 PUSH2 0x66D JUMP JUMPDEST PUSH1 0x20 DUP3 ADD SWAP1 POP SWAP2 SWAP1 POP JUMP JUMPDEST PUSH1 0x0 PUSH2 0x3F2 PUSH1 0xF DUP4 PUSH2 0x51E JUMP JUMPDEST SWAP2 POP PUSH2 0x3FD DUP3 PUSH2 0x696 JUMP JUMPDEST PUSH1 0x20 DUP3 ADD SWAP1 POP SWAP2 SWAP1 POP JUMP JUMPDEST PUSH2 0x411 DUP2 PUSH2 0x53B JUMP JUMPDEST DUP3 MSTORE POP POP JUMP JUMPDEST PUSH1 0x0 PUSH1 0x40 DUP3 ADD SWAP1 POP PUSH2 0x42C PUSH1 0x0 DUP4 ADD DUP6 PUSH2 0x37A JUMP JUMPDEST PUSH2 0x439 PUSH1 0x20 DUP4 ADD DUP5 PUSH2 0x408 JUMP JUMPDEST SWAP4 SWAP3 POP POP POP JUMP JUMPDEST PUSH1 0x0 PUSH1 0x20 DUP3 ADD SWAP1 POP DUP2 DUP2 SUB PUSH1 0x0 DUP4 ADD MSTORE PUSH2 0x45A DUP2 DUP5 PUSH2 0x389 JUMP JUMPDEST SWAP1 POP SWAP3 SWAP2 POP POP JUMP JUMPDEST PUSH1 0x0 PUSH1 0x20 DUP3 ADD SWAP1 POP DUP2 DUP2 SUB PUSH1 0x0 DUP4 ADD MSTORE PUSH2 0x47B DUP2 PUSH2 0x3C2 JUMP JUMPDEST SWAP1 POP SWAP2 SWAP1 POP JUMP JUMPDEST PUSH1 0x0 PUSH1 0x20 DUP3 ADD SWAP1 POP DUP2 DUP2 SUB PUSH1 0x0 DUP4 ADD MSTORE PUSH2 0x49B DUP2 PUSH2 0x3E5 JUMP JUMPDEST SWAP1 POP SWAP2 SWAP1 POP JUMP JUMPDEST PUSH1 0x0 PUSH1 0x20 DUP3 ADD SWAP1 POP PUSH2 0x4B7 PUSH1 0x0 DUP4 ADD DUP5 PUSH2 0x408 JUMP JUMPDEST SWAP3 SWAP2 POP POP JUMP JUMPDEST PUSH1 0x0 PUSH2 0x4C7 PUSH2 0x4D8 JUMP JUMPDEST SWAP1 POP PUSH2 0x4D3 DUP3 DUP3 PUSH2 0x5B9 JUMP JUMPDEST SWAP2 SWAP1 POP JUMP JUMPDEST PUSH1 0x0 PUSH1 0x40 MLOAD SWAP1 POP SWAP1 JUMP JUMPDEST PUSH1 0x0 PUSH8 0xFFFFFFFFFFFFFFFF DUP3 GT ISZERO PUSH2 0x4FD JUMPI PUSH2 0x4FC PUSH2 0x619 JUMP JUMPDEST JUMPDEST PUSH2 0x506 DUP3 PUSH2 0x65C JUMP JUMPDEST SWAP1 POP PUSH1 0x20 DUP2 ADD SWAP1 POP SWAP2 SWAP1 POP JUMP JUMPDEST PUSH1 0x0 DUP2 MLOAD SWAP1 POP SWAP2 SWAP1 POP JUMP JUMPDEST PUSH1 0x0 DUP3 DUP3 MSTORE PUSH1 0x20 DUP3 ADD SWAP1 POP SWAP3 SWAP2 POP POP JUMP JUMPDEST PUSH1 0x0 DUP2 ISZERO ISZERO SWAP1 POP SWAP2 SWAP1 POP JUMP JUMPDEST PUSH1 0x0 DUP2 SWAP1 POP SWAP2 SWAP1 POP JUMP JUMPDEST DUP3 DUP2 DUP4 CALLDATACOPY PUSH1 0x0 DUP4 DUP4 ADD MSTORE POP POP POP JUMP JUMPDEST PUSH1 0x0 JUMPDEST DUP4 DUP2 LT ISZERO PUSH2 0x572 JUMPI DUP1 DUP3 ADD MLOAD DUP2 DUP5 ADD MSTORE PUSH1 0x20 DUP2 ADD SWAP1 POP PUSH2 0x557 JUMP JUMPDEST DUP4 DUP2 GT ISZERO PUSH2 0x581 JUMPI PUSH1 0x0 DUP5 DUP5 ADD MSTORE JUMPDEST POP POP POP POP JUMP JUMPDEST PUSH1 0x0 PUSH1 0x2 DUP3 DIV SWAP1 POP PUSH1 0x1 DUP3 AND DUP1 PUSH2 0x59F JUMPI PUSH1 0x7F DUP3 AND SWAP2 POP JUMPDEST PUSH1 0x20 DUP3 LT DUP2 EQ ISZERO PUSH2 0x5B3 JUMPI PUSH2 0x5B2 PUSH2 0x5EA JUMP JUMPDEST JUMPDEST POP SWAP2 SWAP1 POP JUMP JUMPDEST PUSH2 0x5C2 DUP3 PUSH2 0x65C JUMP JUMPDEST DUP2 ADD DUP2 DUP2 LT PUSH8 0xFFFFFFFFFFFFFFFF DUP3 GT OR ISZERO PUSH2 0x5E1 JUMPI PUSH2 0x5E0 PUSH2 0x619 JUMP JUMPDEST JUMPDEST DUP1 PUSH1 0x40 MSTORE POP POP POP JUMP JUMPDEST PUSH32 0x4E487B7100000000000000000000000000000000000000000000000000000000 PUSH1 0x0 MSTORE PUSH1 0x22 PUSH1 0x4 MSTORE PUSH1 0x24 PUSH1 0x0 REVERT JUMPDEST PUSH32 0x4E487B7100000000000000000000000000000000000000000000000000000000 PUSH1 0x0 MSTORE PUSH1 0x41 PUSH1 0x4 MSTORE PUSH1 0x24 PUSH1 0x0 REVERT JUMPDEST PUSH1 0x0 DUP1 REVERT JUMPDEST PUSH1 0x0 DUP1 REVERT JUMPDEST PUSH1 0x0 DUP1 REVERT JUMPDEST PUSH1 0x0 DUP1 REVERT JUMPDEST PUSH1 0x0 PUSH1 0x1F NOT PUSH1 0x1F DUP4 ADD AND SWAP1 POP SWAP2 SWAP1 POP JUMP JUMPDEST PUSH32 0x466F6F2063616C6C656400000000000000000000000000000000000000000000 PUSH1 0x0 DUP3 ADD MSTORE POP JUMP JUMPDEST PUSH32 0x46616C6C6261636B2043616C6C65640000000000000000000000000000000000 PUSH1 0x0 DUP3 ADD MSTORE POP JUMP JUMPDEST PUSH2 0x6C8 DUP2 PUSH2 0x53B JUMP JUMPDEST DUP2 EQ PUSH2 0x6D3 JUMPI PUSH1 0x0 DUP1 REVERT JUMPDEST POP JUMP INVALID LOG2 PUSH5 0x6970667358 0x22 SLT KECCAK256 DUP1 DUP15 0xDD 0x4C 0xE8 PUSH16 0x90062E5266F1BEA007A77DBE1A4D0C80 PUSH31 0xACED7CA05D99809A5264736F6C634300080700330000000000000000000000 "
				},
				"gasEstimates": {
					"creation": {
						"codeDepositCost": "360800",
						"executionCost": "375",
						"totalCost": "361175"
					},
					"external": {
						"": "1931",
						"foo(string,uint256)": "infinite",
						"message()": "infinite",
						"x()": "2407"
					}
				},
				"methodIdentifiers": {
					"foo(string,uint256)": "24ccab8f",
					"message()": "e21f37ce",
					"x()": "0c55699c"
				}
			},
			"storageLayout": {
				"storage": [
					{
						"astId": 3,
						"contract": "Contracts/usingCall.sol:TestContract",
						"label": "message",
						"offset": 0,
						"slot": "0",
						"type": "t_string_storage"
					},
					{
						"astId": 5,
						"contract": "Contracts/usingCall.sol:TestContract",
						"label": "x",
						"offset": 0,
						"slot": "1",
						"type": "t_uint256"
					}
				],
				"types": {
					"t_string_storage": {
						"encoding": "bytes",
						"label": "string",
						"numberOfBytes": "32"
					},
					"t_uint256": {
						"encoding": "inplace",
						"label": "uint256",
						"numberOfBytes": "32"
					}
				}
			},
			"userdoc": {
				"kind": "user",
				"methods": {},
				"version": 1
			}
		}
	}
}