{
	"Contracts/multiSigWallet.sol": {
		"KudiJointWallet": {
			"abi": [
				{
					"inputs": [
						{
							"internalType": "address[]",
							"name": "_owners",
							"type": "address[]"
						},
						{
							"internalType": "uint256",
							"name": "_required",
							"type": "uint256"
						}
					],
					"stateMutability": "nonpayable",
					"type": "constructor"
				},
				{
					"anonymous": false,
					"inputs": [
						{
							"indexed": true,
							"internalType": "address",
							"name": "owner",
							"type": "address"
						},
						{
							"indexed": false,
							"internalType": "uint256",
							"name": "txId",
							"type": "uint256"
						}
					],
					"name": "Approve",
					"type": "event"
				},
				{
					"anonymous": false,
					"inputs": [
						{
							"indexed": true,
							"internalType": "address",
							"name": "sender",
							"type": "address"
						},
						{
							"indexed": false,
							"internalType": "uint256",
							"name": "amount",
							"type": "uint256"
						}
					],
					"name": "Deposit",
					"type": "event"
				},
				{
					"anonymous": false,
					"inputs": [
						{
							"indexed": false,
							"internalType": "uint256",
							"name": "txId",
							"type": "uint256"
						}
					],
					"name": "Execute",
					"type": "event"
				},
				{
					"anonymous": false,
					"inputs": [
						{
							"indexed": true,
							"internalType": "address",
							"name": "owner",
							"type": "address"
						},
						{
							"indexed": false,
							"internalType": "uint256",
							"name": "txId",
							"type": "uint256"
						}
					],
					"name": "Revoke",
					"type": "event"
				},
				{
					"anonymous": false,
					"inputs": [
						{
							"indexed": true,
							"internalType": "uint256",
							"name": "txId",
							"type": "uint256"
						}
					],
					"name": "Submit",
					"type": "event"
				},
				{
					"inputs": [
						{
							"internalType": "uint256",
							"name": "",
							"type": "uint256"
						},
						{
							"internalType": "address",
							"name": "",
							"type": "address"
						}
					],
					"name": "approved",
					"outputs": [
						{
							"internalType": "bool",
							"name": "",
							"type": "bool"
						}
					],
					"stateMutability": "view",
					"type": "function"
				},
				{
					"inputs": [
						{
							"internalType": "address",
							"name": "",
							"type": "address"
						}
					],
					"name": "isOwner",
					"outputs": [
						{
							"internalType": "bool",
							"name": "",
							"type": "bool"
						}
					],
					"stateMutability": "view",
					"type": "function"
				},
				{
					"inputs": [
						{
							"internalType": "uint256",
							"name": "",
							"type": "uint256"
						}
					],
					"name": "owners",
					"outputs": [
						{
							"internalType": "address",
							"name": "",
							"type": "address"
						}
					],
					"stateMutability": "view",
					"type": "function"
				},
				{
					"inputs": [],
					"name": "required",
					"outputs": [
						{
							"internalType": "uint256",
							"name": "",
							"type": "uint256"
						}
					],
					"stateMutability": "view",
					"type": "function"
				},
				{
					"inputs": [
						{
							"internalType": "address",
							"name": "_to",
							"type": "address"
						},
						{
							"internalType": "uint256",
							"name": "_value",
							"type": "uint256"
						},
						{
							"internalType": "bytes",
							"name": "_data",
							"type": "bytes"
						}
					],
					"name": "submit",
					"outputs": [],
					"stateMutability": "nonpayable",
					"type": "function"
				},
				{
					"inputs": [
						{
							"internalType": "uint256",
							"name": "",
							"type": "uint256"
						}
					],
					"name": "transactions",
					"outputs": [
						{
							"internalType": "address",
							"name": "to",
							"type": "address"
						},
						{
							"internalType": "uint256",
							"name": "value",
							"type": "uint256"
						},
						{
							"internalType": "bytes",
							"name": "data",
							"type": "bytes"
						},
						{
							"internalType": "bool",
							"name": "executed",
							"type": "bool"
						}
					],
					"stateMutability": "view",
					"type": "function"
				},
				{
					"stateMutability": "payable",
					"type": "receive"
				}
			],
			"devdoc": {
				"kind": "dev",
				"methods": {},
				"version": 1
			},
			"evm": {
				"assembly": "    /* \"Contracts/multiSigWallet.sol\":35:1644  contract KudiJointWallet{\r... */\n  mstore(0x40, 0x80)\n    /* \"Contracts/multiSigWallet.sol\":660:1195  constructor(address[] memory _owners, uint _required){\r... */\n  callvalue\n  dup1\n  iszero\n  tag_1\n  jumpi\n  0x00\n  dup1\n  revert\ntag_1:\n  pop\n  mload(0x40)\n  sub(codesize, bytecodeSize)\n  dup1\n  bytecodeSize\n  dup4\n  codecopy\n  dup2\n  dup2\n  add\n  0x40\n  mstore\n  dup2\n  add\n  swap1\n  tag_2\n  swap2\n  swap1\n  tag_3\n  jump\t// in\ntag_2:\n    /* \"Contracts/multiSigWallet.sol\":745:746  0 */\n  0x00\n    /* \"Contracts/multiSigWallet.sol\":728:735  _owners */\n  dup3\n    /* \"Contracts/multiSigWallet.sol\":728:742  _owners.length */\n  mload\n    /* \"Contracts/multiSigWallet.sol\":728:746  _owners.length > 0 */\n  gt\n    /* \"Contracts/multiSigWallet.sol\":720:767  require(_owners.length > 0, \"owners required!\") */\n  tag_6\n  jumpi\n  mload(0x40)\n  0x08c379a000000000000000000000000000000000000000000000000000000000\n  dup2\n  mstore\n  0x04\n  add\n  tag_7\n  swap1\n  tag_8\n  jump\t// in\ntag_7:\n  mload(0x40)\n  dup1\n  swap2\n  sub\n  swap1\n  revert\ntag_6:\n    /* \"Contracts/multiSigWallet.sol\":794:795  0 */\n  0x00\n    /* \"Contracts/multiSigWallet.sol\":782:791  _required */\n  dup2\n    /* \"Contracts/multiSigWallet.sol\":782:795  _required > 0 */\n  gt\n    /* \"Contracts/multiSigWallet.sol\":782:826  _required > 0 && _required <= _owners.length */\n  dup1\n  iszero\n  tag_9\n  jumpi\n  pop\n    /* \"Contracts/multiSigWallet.sol\":812:819  _owners */\n  dup2\n    /* \"Contracts/multiSigWallet.sol\":812:826  _owners.length */\n  mload\n    /* \"Contracts/multiSigWallet.sol\":799:808  _required */\n  dup2\n    /* \"Contracts/multiSigWallet.sol\":799:826  _required <= _owners.length */\n  gt\n  iszero\n    /* \"Contracts/multiSigWallet.sol\":782:826  _required > 0 && _required <= _owners.length */\ntag_9:\n    /* \"Contracts/multiSigWallet.sol\":774:864  require(_required > 0 && _required <= _owners.length, \"invalid required number of owners\") */\n  tag_10\n  jumpi\n  mload(0x40)\n  0x08c379a000000000000000000000000000000000000000000000000000000000\n  dup2\n  mstore\n  0x04\n  add\n  tag_11\n  swap1\n  tag_12\n  jump\t// in\ntag_11:\n  mload(0x40)\n  dup1\n  swap2\n  sub\n  swap1\n  revert\ntag_10:\n    /* \"Contracts/multiSigWallet.sol\":879:885  uint i */\n  0x00\n    /* \"Contracts/multiSigWallet.sol\":875:1157  for(uint i; i < _owners.length; i++){\r... */\ntag_13:\n    /* \"Contracts/multiSigWallet.sol\":891:898  _owners */\n  dup3\n    /* \"Contracts/multiSigWallet.sol\":891:905  _owners.length */\n  mload\n    /* \"Contracts/multiSigWallet.sol\":887:888  i */\n  dup2\n    /* \"Contracts/multiSigWallet.sol\":887:905  i < _owners.length */\n  lt\n    /* \"Contracts/multiSigWallet.sol\":875:1157  for(uint i; i < _owners.length; i++){\r... */\n  iszero\n  tag_14\n  jumpi\n    /* \"Contracts/multiSigWallet.sol\":926:939  address owner */\n  0x00\n    /* \"Contracts/multiSigWallet.sol\":942:949  _owners */\n  dup4\n    /* \"Contracts/multiSigWallet.sol\":950:951  i */\n  dup3\n    /* \"Contracts/multiSigWallet.sol\":942:952  _owners[i] */\n  dup2\n  mload\n  dup2\n  lt\n  tag_16\n  jumpi\n  tag_17\n  tag_18\n  jump\t// in\ntag_17:\ntag_16:\n  0x20\n  mul\n  0x20\n  add\n  add\n  mload\n    /* \"Contracts/multiSigWallet.sol\":926:952  address owner = _owners[i] */\n  swap1\n  pop\n    /* \"Contracts/multiSigWallet.sol\":992:993  0 */\n  0x00\n    /* \"Contracts/multiSigWallet.sol\":975:994  owner != address(0) */\n  0xffffffffffffffffffffffffffffffffffffffff\n  and\n    /* \"Contracts/multiSigWallet.sol\":975:980  owner */\n  dup2\n    /* \"Contracts/multiSigWallet.sol\":975:994  owner != address(0) */\n  0xffffffffffffffffffffffffffffffffffffffff\n  and\n  eq\n  iszero\n    /* \"Contracts/multiSigWallet.sol\":967:1014  require(owner != address(0), \"invalid address\") */\n  tag_19\n  jumpi\n  mload(0x40)\n  0x08c379a000000000000000000000000000000000000000000000000000000000\n  dup2\n  mstore\n  0x04\n  add\n  tag_20\n  swap1\n  tag_21\n  jump\t// in\ntag_20:\n  mload(0x40)\n  dup1\n  swap2\n  sub\n  swap1\n  revert\ntag_19:\n    /* \"Contracts/multiSigWallet.sol\":1038:1045  isOwner */\n  0x01\n    /* \"Contracts/multiSigWallet.sol\":1038:1052  isOwner[owner] */\n  0x00\n    /* \"Contracts/multiSigWallet.sol\":1046:1051  owner */\n  dup3\n    /* \"Contracts/multiSigWallet.sol\":1038:1052  isOwner[owner] */\n  0xffffffffffffffffffffffffffffffffffffffff\n  and\n  0xffffffffffffffffffffffffffffffffffffffff\n  and\n  dup2\n  mstore\n  0x20\n  add\n  swap1\n  dup2\n  mstore\n  0x20\n  add\n  0x00\n  keccak256\n  0x00\n  swap1\n  sload\n  swap1\n  0x0100\n  exp\n  swap1\n  div\n  0xff\n  and\n    /* \"Contracts/multiSigWallet.sol\":1037:1052  !isOwner[owner] */\n  iszero\n    /* \"Contracts/multiSigWallet.sol\":1029:1076  require(!isOwner[owner], \"owner is not unique\") */\n  tag_22\n  jumpi\n  mload(0x40)\n  0x08c379a000000000000000000000000000000000000000000000000000000000\n  dup2\n  mstore\n  0x04\n  add\n  tag_23\n  swap1\n  tag_24\n  jump\t// in\ntag_23:\n  mload(0x40)\n  dup1\n  swap2\n  sub\n  swap1\n  revert\ntag_22:\n    /* \"Contracts/multiSigWallet.sol\":1108:1112  true */\n  0x01\n    /* \"Contracts/multiSigWallet.sol\":1091:1098  isOwner */\n  dup1\n    /* \"Contracts/multiSigWallet.sol\":1091:1105  isOwner[owner] */\n  0x00\n    /* \"Contracts/multiSigWallet.sol\":1099:1104  owner */\n  dup4\n    /* \"Contracts/multiSigWallet.sol\":1091:1105  isOwner[owner] */\n  0xffffffffffffffffffffffffffffffffffffffff\n  and\n  0xffffffffffffffffffffffffffffffffffffffff\n  and\n  dup2\n  mstore\n  0x20\n  add\n  swap1\n  dup2\n  mstore\n  0x20\n  add\n  0x00\n  keccak256\n  0x00\n    /* \"Contracts/multiSigWallet.sol\":1091:1112  isOwner[owner] = true */\n  0x0100\n  exp\n  dup2\n  sload\n  dup2\n  0xff\n  mul\n  not\n  and\n  swap1\n  dup4\n  iszero\n  iszero\n  mul\n  or\n  swap1\n  sstore\n  pop\n    /* \"Contracts/multiSigWallet.sol\":1127:1133  owners */\n  0x03\n    /* \"Contracts/multiSigWallet.sol\":1139:1144  owner */\n  dup2\n    /* \"Contracts/multiSigWallet.sol\":1127:1145  owners.push(owner) */\n  swap1\n  dup1\n  0x01\n  dup2\n  sload\n  add\n  dup1\n  dup3\n  sstore\n  dup1\n  swap2\n  pop\n  pop\n  0x01\n  swap1\n  sub\n  swap1\n  0x00\n  mstore\n  keccak256(0x00, 0x20)\n  add\n  0x00\n  swap1\n  swap2\n  swap1\n  swap2\n  swap1\n  swap2\n  0x0100\n  exp\n  dup2\n  sload\n  dup2\n  0xffffffffffffffffffffffffffffffffffffffff\n  mul\n  not\n  and\n  swap1\n  dup4\n  0xffffffffffffffffffffffffffffffffffffffff\n  and\n  mul\n  or\n  swap1\n  sstore\n  pop\n    /* \"Contracts/multiSigWallet.sol\":911:1157  {\r... */\n  pop\n    /* \"Contracts/multiSigWallet.sol\":907:910  i++ */\n  dup1\n  dup1\n  tag_26\n  swap1\n  tag_27\n  jump\t// in\ntag_26:\n  swap2\n  pop\n  pop\n    /* \"Contracts/multiSigWallet.sol\":875:1157  for(uint i; i < _owners.length; i++){\r... */\n  jump(tag_13)\ntag_14:\n  pop\n    /* \"Contracts/multiSigWallet.sol\":1178:1187  _required */\n  dup1\n    /* \"Contracts/multiSigWallet.sol\":1167:1175  required */\n  0x02\n    /* \"Contracts/multiSigWallet.sol\":1167:1187  required = _required */\n  dup2\n  swap1\n  sstore\n  pop\n    /* \"Contracts/multiSigWallet.sol\":660:1195  constructor(address[] memory _owners, uint _required){\r... */\n  pop\n  pop\n    /* \"Contracts/multiSigWallet.sol\":35:1644  contract KudiJointWallet{\r... */\n  jump(tag_28)\n    /* \"#utility.yul\":24:768   */\ntag_30:\n    /* \"#utility.yul\":131:136   */\n  0x00\n    /* \"#utility.yul\":156:237   */\n  tag_32\n    /* \"#utility.yul\":172:236   */\n  tag_33\n    /* \"#utility.yul\":229:235   */\n  dup5\n    /* \"#utility.yul\":172:236   */\n  tag_34\n  jump\t// in\ntag_33:\n    /* \"#utility.yul\":156:237   */\n  tag_35\n  jump\t// in\ntag_32:\n    /* \"#utility.yul\":147:237   */\n  swap1\n  pop\n    /* \"#utility.yul\":257:262   */\n  dup1\n    /* \"#utility.yul\":286:292   */\n  dup4\n    /* \"#utility.yul\":279:284   */\n  dup3\n    /* \"#utility.yul\":272:293   */\n  mstore\n    /* \"#utility.yul\":320:324   */\n  0x20\n    /* \"#utility.yul\":313:318   */\n  dup3\n    /* \"#utility.yul\":309:325   */\n  add\n    /* \"#utility.yul\":302:325   */\n  swap1\n  pop\n    /* \"#utility.yul\":346:352   */\n  dup3\n    /* \"#utility.yul\":396:399   */\n  dup6\n    /* \"#utility.yul\":388:392   */\n  0x20\n    /* \"#utility.yul\":380:386   */\n  dup7\n    /* \"#utility.yul\":376:393   */\n  mul\n    /* \"#utility.yul\":371:374   */\n  dup3\n    /* \"#utility.yul\":367:394   */\n  add\n    /* \"#utility.yul\":364:400   */\n  gt\n    /* \"#utility.yul\":361:504   */\n  iszero\n  tag_36\n  jumpi\n    /* \"#utility.yul\":415:494   */\n  tag_37\n  tag_38\n  jump\t// in\ntag_37:\n    /* \"#utility.yul\":361:504   */\ntag_36:\n    /* \"#utility.yul\":528:529   */\n  0x00\n    /* \"#utility.yul\":513:762   */\ntag_39:\n    /* \"#utility.yul\":538:544   */\n  dup6\n    /* \"#utility.yul\":535:536   */\n  dup2\n    /* \"#utility.yul\":532:545   */\n  lt\n    /* \"#utility.yul\":513:762   */\n  iszero\n  tag_41\n  jumpi\n    /* \"#utility.yul\":606:609   */\n  dup2\n    /* \"#utility.yul\":635:683   */\n  tag_42\n    /* \"#utility.yul\":679:682   */\n  dup9\n    /* \"#utility.yul\":667:677   */\n  dup3\n    /* \"#utility.yul\":635:683   */\n  tag_43\n  jump\t// in\ntag_42:\n    /* \"#utility.yul\":630:633   */\n  dup5\n    /* \"#utility.yul\":623:684   */\n  mstore\n    /* \"#utility.yul\":713:717   */\n  0x20\n    /* \"#utility.yul\":708:711   */\n  dup5\n    /* \"#utility.yul\":704:718   */\n  add\n    /* \"#utility.yul\":697:718   */\n  swap4\n  pop\n    /* \"#utility.yul\":747:751   */\n  0x20\n    /* \"#utility.yul\":742:745   */\n  dup4\n    /* \"#utility.yul\":738:752   */\n  add\n    /* \"#utility.yul\":731:752   */\n  swap3\n  pop\n    /* \"#utility.yul\":573:762   */\n  pop\n    /* \"#utility.yul\":560:561   */\n  0x01\n    /* \"#utility.yul\":557:558   */\n  dup2\n    /* \"#utility.yul\":553:562   */\n  add\n    /* \"#utility.yul\":548:562   */\n  swap1\n  pop\n    /* \"#utility.yul\":513:762   */\n  jump(tag_39)\ntag_41:\n    /* \"#utility.yul\":517:531   */\n  pop\n    /* \"#utility.yul\":137:768   */\n  pop\n  pop\n    /* \"#utility.yul\":24:768   */\n  swap4\n  swap3\n  pop\n  pop\n  pop\n  jump\t// out\n    /* \"#utility.yul\":774:917   */\ntag_43:\n    /* \"#utility.yul\":831:836   */\n  0x00\n    /* \"#utility.yul\":862:868   */\n  dup2\n    /* \"#utility.yul\":856:869   */\n  mload\n    /* \"#utility.yul\":847:869   */\n  swap1\n  pop\n    /* \"#utility.yul\":878:911   */\n  tag_45\n    /* \"#utility.yul\":905:910   */\n  dup2\n    /* \"#utility.yul\":878:911   */\n  tag_46\n  jump\t// in\ntag_45:\n    /* \"#utility.yul\":774:917   */\n  swap3\n  swap2\n  pop\n  pop\n  jump\t// out\n    /* \"#utility.yul\":940:1325   */\ntag_47:\n    /* \"#utility.yul\":1022:1027   */\n  0x00\n    /* \"#utility.yul\":1071:1074   */\n  dup3\n    /* \"#utility.yul\":1064:1068   */\n  0x1f\n    /* \"#utility.yul\":1056:1062   */\n  dup4\n    /* \"#utility.yul\":1052:1069   */\n  add\n    /* \"#utility.yul\":1048:1075   */\n  slt\n    /* \"#utility.yul\":1038:1160   */\n  tag_49\n  jumpi\n    /* \"#utility.yul\":1079:1158   */\n  tag_50\n  tag_51\n  jump\t// in\ntag_50:\n    /* \"#utility.yul\":1038:1160   */\ntag_49:\n    /* \"#utility.yul\":1189:1195   */\n  dup2\n    /* \"#utility.yul\":1183:1196   */\n  mload\n    /* \"#utility.yul\":1214:1319   */\n  tag_52\n    /* \"#utility.yul\":1315:1318   */\n  dup5\n    /* \"#utility.yul\":1307:1313   */\n  dup3\n    /* \"#utility.yul\":1300:1304   */\n  0x20\n    /* \"#utility.yul\":1292:1298   */\n  dup7\n    /* \"#utility.yul\":1288:1305   */\n  add\n    /* \"#utility.yul\":1214:1319   */\n  tag_30\n  jump\t// in\ntag_52:\n    /* \"#utility.yul\":1205:1319   */\n  swap2\n  pop\n    /* \"#utility.yul\":1028:1325   */\n  pop\n    /* \"#utility.yul\":940:1325   */\n  swap3\n  swap2\n  pop\n  pop\n  jump\t// out\n    /* \"#utility.yul\":1331:1474   */\ntag_53:\n    /* \"#utility.yul\":1388:1393   */\n  0x00\n    /* \"#utility.yul\":1419:1425   */\n  dup2\n    /* \"#utility.yul\":1413:1426   */\n  mload\n    /* \"#utility.yul\":1404:1426   */\n  swap1\n  pop\n    /* \"#utility.yul\":1435:1468   */\n  tag_55\n    /* \"#utility.yul\":1462:1467   */\n  dup2\n    /* \"#utility.yul\":1435:1468   */\n  tag_56\n  jump\t// in\ntag_55:\n    /* \"#utility.yul\":1331:1474   */\n  swap3\n  swap2\n  pop\n  pop\n  jump\t// out\n    /* \"#utility.yul\":1480:2190   */\ntag_3:\n    /* \"#utility.yul\":1584:1590   */\n  0x00\n    /* \"#utility.yul\":1592:1598   */\n  dup1\n    /* \"#utility.yul\":1641:1643   */\n  0x40\n    /* \"#utility.yul\":1629:1638   */\n  dup4\n    /* \"#utility.yul\":1620:1627   */\n  dup6\n    /* \"#utility.yul\":1616:1639   */\n  sub\n    /* \"#utility.yul\":1612:1644   */\n  slt\n    /* \"#utility.yul\":1609:1728   */\n  iszero\n  tag_58\n  jumpi\n    /* \"#utility.yul\":1647:1726   */\n  tag_59\n  tag_60\n  jump\t// in\ntag_59:\n    /* \"#utility.yul\":1609:1728   */\ntag_58:\n    /* \"#utility.yul\":1788:1789   */\n  0x00\n    /* \"#utility.yul\":1777:1786   */\n  dup4\n    /* \"#utility.yul\":1773:1790   */\n  add\n    /* \"#utility.yul\":1767:1791   */\n  mload\n    /* \"#utility.yul\":1818:1836   */\n  0xffffffffffffffff\n    /* \"#utility.yul\":1810:1816   */\n  dup2\n    /* \"#utility.yul\":1807:1837   */\n  gt\n    /* \"#utility.yul\":1804:1921   */\n  iszero\n  tag_61\n  jumpi\n    /* \"#utility.yul\":1840:1919   */\n  tag_62\n  tag_63\n  jump\t// in\ntag_62:\n    /* \"#utility.yul\":1804:1921   */\ntag_61:\n    /* \"#utility.yul\":1945:2034   */\n  tag_64\n    /* \"#utility.yul\":2026:2033   */\n  dup6\n    /* \"#utility.yul\":2017:2023   */\n  dup3\n    /* \"#utility.yul\":2006:2015   */\n  dup7\n    /* \"#utility.yul\":2002:2024   */\n  add\n    /* \"#utility.yul\":1945:2034   */\n  tag_47\n  jump\t// in\ntag_64:\n    /* \"#utility.yul\":1935:2034   */\n  swap3\n  pop\n    /* \"#utility.yul\":1738:2044   */\n  pop\n    /* \"#utility.yul\":2083:2085   */\n  0x20\n    /* \"#utility.yul\":2109:2173   */\n  tag_65\n    /* \"#utility.yul\":2165:2172   */\n  dup6\n    /* \"#utility.yul\":2156:2162   */\n  dup3\n    /* \"#utility.yul\":2145:2154   */\n  dup7\n    /* \"#utility.yul\":2141:2163   */\n  add\n    /* \"#utility.yul\":2109:2173   */\n  tag_53\n  jump\t// in\ntag_65:\n    /* \"#utility.yul\":2099:2173   */\n  swap2\n  pop\n    /* \"#utility.yul\":2054:2183   */\n  pop\n    /* \"#utility.yul\":1480:2190   */\n  swap3\n  pop\n  swap3\n  swap1\n  pop\n  jump\t// out\n    /* \"#utility.yul\":2196:2562   */\ntag_66:\n    /* \"#utility.yul\":2338:2341   */\n  0x00\n    /* \"#utility.yul\":2359:2426   */\n  tag_68\n    /* \"#utility.yul\":2423:2425   */\n  0x13\n    /* \"#utility.yul\":2418:2421   */\n  dup4\n    /* \"#utility.yul\":2359:2426   */\n  tag_69\n  jump\t// in\ntag_68:\n    /* \"#utility.yul\":2352:2426   */\n  swap2\n  pop\n    /* \"#utility.yul\":2435:2528   */\n  tag_70\n    /* \"#utility.yul\":2524:2527   */\n  dup3\n    /* \"#utility.yul\":2435:2528   */\n  tag_71\n  jump\t// in\ntag_70:\n    /* \"#utility.yul\":2553:2555   */\n  0x20\n    /* \"#utility.yul\":2548:2551   */\n  dup3\n    /* \"#utility.yul\":2544:2556   */\n  add\n    /* \"#utility.yul\":2537:2556   */\n  swap1\n  pop\n    /* \"#utility.yul\":2196:2562   */\n  swap2\n  swap1\n  pop\n  jump\t// out\n    /* \"#utility.yul\":2568:2934   */\ntag_72:\n    /* \"#utility.yul\":2710:2713   */\n  0x00\n    /* \"#utility.yul\":2731:2798   */\n  tag_74\n    /* \"#utility.yul\":2795:2797   */\n  0x0f\n    /* \"#utility.yul\":2790:2793   */\n  dup4\n    /* \"#utility.yul\":2731:2798   */\n  tag_69\n  jump\t// in\ntag_74:\n    /* \"#utility.yul\":2724:2798   */\n  swap2\n  pop\n    /* \"#utility.yul\":2807:2900   */\n  tag_75\n    /* \"#utility.yul\":2896:2899   */\n  dup3\n    /* \"#utility.yul\":2807:2900   */\n  tag_76\n  jump\t// in\ntag_75:\n    /* \"#utility.yul\":2925:2927   */\n  0x20\n    /* \"#utility.yul\":2920:2923   */\n  dup3\n    /* \"#utility.yul\":2916:2928   */\n  add\n    /* \"#utility.yul\":2909:2928   */\n  swap1\n  pop\n    /* \"#utility.yul\":2568:2934   */\n  swap2\n  swap1\n  pop\n  jump\t// out\n    /* \"#utility.yul\":2940:3306   */\ntag_77:\n    /* \"#utility.yul\":3082:3085   */\n  0x00\n    /* \"#utility.yul\":3103:3170   */\n  tag_79\n    /* \"#utility.yul\":3167:3169   */\n  0x10\n    /* \"#utility.yul\":3162:3165   */\n  dup4\n    /* \"#utility.yul\":3103:3170   */\n  tag_69\n  jump\t// in\ntag_79:\n    /* \"#utility.yul\":3096:3170   */\n  swap2\n  pop\n    /* \"#utility.yul\":3179:3272   */\n  tag_80\n    /* \"#utility.yul\":3268:3271   */\n  dup3\n    /* \"#utility.yul\":3179:3272   */\n  tag_81\n  jump\t// in\ntag_80:\n    /* \"#utility.yul\":3297:3299   */\n  0x20\n    /* \"#utility.yul\":3292:3295   */\n  dup3\n    /* \"#utility.yul\":3288:3300   */\n  add\n    /* \"#utility.yul\":3281:3300   */\n  swap1\n  pop\n    /* \"#utility.yul\":2940:3306   */\n  swap2\n  swap1\n  pop\n  jump\t// out\n    /* \"#utility.yul\":3312:3678   */\ntag_82:\n    /* \"#utility.yul\":3454:3457   */\n  0x00\n    /* \"#utility.yul\":3475:3542   */\n  tag_84\n    /* \"#utility.yul\":3539:3541   */\n  0x21\n    /* \"#utility.yul\":3534:3537   */\n  dup4\n    /* \"#utility.yul\":3475:3542   */\n  tag_69\n  jump\t// in\ntag_84:\n    /* \"#utility.yul\":3468:3542   */\n  swap2\n  pop\n    /* \"#utility.yul\":3551:3644   */\n  tag_85\n    /* \"#utility.yul\":3640:3643   */\n  dup3\n    /* \"#utility.yul\":3551:3644   */\n  tag_86\n  jump\t// in\ntag_85:\n    /* \"#utility.yul\":3669:3671   */\n  0x40\n    /* \"#utility.yul\":3664:3667   */\n  dup3\n    /* \"#utility.yul\":3660:3672   */\n  add\n    /* \"#utility.yul\":3653:3672   */\n  swap1\n  pop\n    /* \"#utility.yul\":3312:3678   */\n  swap2\n  swap1\n  pop\n  jump\t// out\n    /* \"#utility.yul\":3684:4103   */\ntag_24:\n    /* \"#utility.yul\":3850:3854   */\n  0x00\n    /* \"#utility.yul\":3888:3890   */\n  0x20\n    /* \"#utility.yul\":3877:3886   */\n  dup3\n    /* \"#utility.yul\":3873:3891   */\n  add\n    /* \"#utility.yul\":3865:3891   */\n  swap1\n  pop\n    /* \"#utility.yul\":3937:3946   */\n  dup2\n    /* \"#utility.yul\":3931:3935   */\n  dup2\n    /* \"#utility.yul\":3927:3947   */\n  sub\n    /* \"#utility.yul\":3923:3924   */\n  0x00\n    /* \"#utility.yul\":3912:3921   */\n  dup4\n    /* \"#utility.yul\":3908:3925   */\n  add\n    /* \"#utility.yul\":3901:3948   */\n  mstore\n    /* \"#utility.yul\":3965:4096   */\n  tag_88\n    /* \"#utility.yul\":4091:4095   */\n  dup2\n    /* \"#utility.yul\":3965:4096   */\n  tag_66\n  jump\t// in\ntag_88:\n    /* \"#utility.yul\":3957:4096   */\n  swap1\n  pop\n    /* \"#utility.yul\":3684:4103   */\n  swap2\n  swap1\n  pop\n  jump\t// out\n    /* \"#utility.yul\":4109:4528   */\ntag_21:\n    /* \"#utility.yul\":4275:4279   */\n  0x00\n    /* \"#utility.yul\":4313:4315   */\n  0x20\n    /* \"#utility.yul\":4302:4311   */\n  dup3\n    /* \"#utility.yul\":4298:4316   */\n  add\n    /* \"#utility.yul\":4290:4316   */\n  swap1\n  pop\n    /* \"#utility.yul\":4362:4371   */\n  dup2\n    /* \"#utility.yul\":4356:4360   */\n  dup2\n    /* \"#utility.yul\":4352:4372   */\n  sub\n    /* \"#utility.yul\":4348:4349   */\n  0x00\n    /* \"#utility.yul\":4337:4346   */\n  dup4\n    /* \"#utility.yul\":4333:4350   */\n  add\n    /* \"#utility.yul\":4326:4373   */\n  mstore\n    /* \"#utility.yul\":4390:4521   */\n  tag_90\n    /* \"#utility.yul\":4516:4520   */\n  dup2\n    /* \"#utility.yul\":4390:4521   */\n  tag_72\n  jump\t// in\ntag_90:\n    /* \"#utility.yul\":4382:4521   */\n  swap1\n  pop\n    /* \"#utility.yul\":4109:4528   */\n  swap2\n  swap1\n  pop\n  jump\t// out\n    /* \"#utility.yul\":4534:4953   */\ntag_8:\n    /* \"#utility.yul\":4700:4704   */\n  0x00\n    /* \"#utility.yul\":4738:4740   */\n  0x20\n    /* \"#utility.yul\":4727:4736   */\n  dup3\n    /* \"#utility.yul\":4723:4741   */\n  add\n    /* \"#utility.yul\":4715:4741   */\n  swap1\n  pop\n    /* \"#utility.yul\":4787:4796   */\n  dup2\n    /* \"#utility.yul\":4781:4785   */\n  dup2\n    /* \"#utility.yul\":4777:4797   */\n  sub\n    /* \"#utility.yul\":4773:4774   */\n  0x00\n    /* \"#utility.yul\":4762:4771   */\n  dup4\n    /* \"#utility.yul\":4758:4775   */\n  add\n    /* \"#utility.yul\":4751:4798   */\n  mstore\n    /* \"#utility.yul\":4815:4946   */\n  tag_92\n    /* \"#utility.yul\":4941:4945   */\n  dup2\n    /* \"#utility.yul\":4815:4946   */\n  tag_77\n  jump\t// in\ntag_92:\n    /* \"#utility.yul\":4807:4946   */\n  swap1\n  pop\n    /* \"#utility.yul\":4534:4953   */\n  swap2\n  swap1\n  pop\n  jump\t// out\n    /* \"#utility.yul\":4959:5378   */\ntag_12:\n    /* \"#utility.yul\":5125:5129   */\n  0x00\n    /* \"#utility.yul\":5163:5165   */\n  0x20\n    /* \"#utility.yul\":5152:5161   */\n  dup3\n    /* \"#utility.yul\":5148:5166   */\n  add\n    /* \"#utility.yul\":5140:5166   */\n  swap1\n  pop\n    /* \"#utility.yul\":5212:5221   */\n  dup2\n    /* \"#utility.yul\":5206:5210   */\n  dup2\n    /* \"#utility.yul\":5202:5222   */\n  sub\n    /* \"#utility.yul\":5198:5199   */\n  0x00\n    /* \"#utility.yul\":5187:5196   */\n  dup4\n    /* \"#utility.yul\":5183:5200   */\n  add\n    /* \"#utility.yul\":5176:5223   */\n  mstore\n    /* \"#utility.yul\":5240:5371   */\n  tag_94\n    /* \"#utility.yul\":5366:5370   */\n  dup2\n    /* \"#utility.yul\":5240:5371   */\n  tag_82\n  jump\t// in\ntag_94:\n    /* \"#utility.yul\":5232:5371   */\n  swap1\n  pop\n    /* \"#utility.yul\":4959:5378   */\n  swap2\n  swap1\n  pop\n  jump\t// out\n    /* \"#utility.yul\":5384:5513   */\ntag_35:\n    /* \"#utility.yul\":5418:5424   */\n  0x00\n    /* \"#utility.yul\":5445:5465   */\n  tag_96\n  tag_97\n  jump\t// in\ntag_96:\n    /* \"#utility.yul\":5435:5465   */\n  swap1\n  pop\n    /* \"#utility.yul\":5474:5507   */\n  tag_98\n    /* \"#utility.yul\":5502:5506   */\n  dup3\n    /* \"#utility.yul\":5494:5500   */\n  dup3\n    /* \"#utility.yul\":5474:5507   */\n  tag_99\n  jump\t// in\ntag_98:\n    /* \"#utility.yul\":5384:5513   */\n  swap2\n  swap1\n  pop\n  jump\t// out\n    /* \"#utility.yul\":5519:5594   */\ntag_97:\n    /* \"#utility.yul\":5552:5558   */\n  0x00\n    /* \"#utility.yul\":5585:5587   */\n  0x40\n    /* \"#utility.yul\":5579:5588   */\n  mload\n    /* \"#utility.yul\":5569:5588   */\n  swap1\n  pop\n    /* \"#utility.yul\":5519:5594   */\n  swap1\n  jump\t// out\n    /* \"#utility.yul\":5600:5911   */\ntag_34:\n    /* \"#utility.yul\":5677:5681   */\n  0x00\n    /* \"#utility.yul\":5767:5785   */\n  0xffffffffffffffff\n    /* \"#utility.yul\":5759:5765   */\n  dup3\n    /* \"#utility.yul\":5756:5786   */\n  gt\n    /* \"#utility.yul\":5753:5809   */\n  iszero\n  tag_102\n  jumpi\n    /* \"#utility.yul\":5789:5807   */\n  tag_103\n  tag_104\n  jump\t// in\ntag_103:\n    /* \"#utility.yul\":5753:5809   */\ntag_102:\n    /* \"#utility.yul\":5839:5843   */\n  0x20\n    /* \"#utility.yul\":5831:5837   */\n  dup3\n    /* \"#utility.yul\":5827:5844   */\n  mul\n    /* \"#utility.yul\":5819:5844   */\n  swap1\n  pop\n    /* \"#utility.yul\":5899:5903   */\n  0x20\n    /* \"#utility.yul\":5893:5897   */\n  dup2\n    /* \"#utility.yul\":5889:5904   */\n  add\n    /* \"#utility.yul\":5881:5904   */\n  swap1\n  pop\n    /* \"#utility.yul\":5600:5911   */\n  swap2\n  swap1\n  pop\n  jump\t// out\n    /* \"#utility.yul\":5917:6086   */\ntag_69:\n    /* \"#utility.yul\":6001:6012   */\n  0x00\n    /* \"#utility.yul\":6035:6041   */\n  dup3\n    /* \"#utility.yul\":6030:6033   */\n  dup3\n    /* \"#utility.yul\":6023:6042   */\n  mstore\n    /* \"#utility.yul\":6075:6079   */\n  0x20\n    /* \"#utility.yul\":6070:6073   */\n  dup3\n    /* \"#utility.yul\":6066:6080   */\n  add\n    /* \"#utility.yul\":6051:6080   */\n  swap1\n  pop\n    /* \"#utility.yul\":5917:6086   */\n  swap3\n  swap2\n  pop\n  pop\n  jump\t// out\n    /* \"#utility.yul\":6092:6188   */\ntag_106:\n    /* \"#utility.yul\":6129:6136   */\n  0x00\n    /* \"#utility.yul\":6158:6182   */\n  tag_108\n    /* \"#utility.yul\":6176:6181   */\n  dup3\n    /* \"#utility.yul\":6158:6182   */\n  tag_109\n  jump\t// in\ntag_108:\n    /* \"#utility.yul\":6147:6182   */\n  swap1\n  pop\n    /* \"#utility.yul\":6092:6188   */\n  swap2\n  swap1\n  pop\n  jump\t// out\n    /* \"#utility.yul\":6194:6320   */\ntag_109:\n    /* \"#utility.yul\":6231:6238   */\n  0x00\n    /* \"#utility.yul\":6271:6313   */\n  0xffffffffffffffffffffffffffffffffffffffff\n    /* \"#utility.yul\":6264:6269   */\n  dup3\n    /* \"#utility.yul\":6260:6314   */\n  and\n    /* \"#utility.yul\":6249:6314   */\n  swap1\n  pop\n    /* \"#utility.yul\":6194:6320   */\n  swap2\n  swap1\n  pop\n  jump\t// out\n    /* \"#utility.yul\":6326:6403   */\ntag_111:\n    /* \"#utility.yul\":6363:6370   */\n  0x00\n    /* \"#utility.yul\":6392:6397   */\n  dup2\n    /* \"#utility.yul\":6381:6397   */\n  swap1\n  pop\n    /* \"#utility.yul\":6326:6403   */\n  swap2\n  swap1\n  pop\n  jump\t// out\n    /* \"#utility.yul\":6409:6690   */\ntag_99:\n    /* \"#utility.yul\":6492:6519   */\n  tag_114\n    /* \"#utility.yul\":6514:6518   */\n  dup3\n    /* \"#utility.yul\":6492:6519   */\n  tag_115\n  jump\t// in\ntag_114:\n    /* \"#utility.yul\":6484:6490   */\n  dup2\n    /* \"#utility.yul\":6480:6520   */\n  add\n    /* \"#utility.yul\":6622:6628   */\n  dup2\n    /* \"#utility.yul\":6610:6620   */\n  dup2\n    /* \"#utility.yul\":6607:6629   */\n  lt\n    /* \"#utility.yul\":6586:6604   */\n  0xffffffffffffffff\n    /* \"#utility.yul\":6574:6584   */\n  dup3\n    /* \"#utility.yul\":6571:6605   */\n  gt\n    /* \"#utility.yul\":6568:6630   */\n  or\n    /* \"#utility.yul\":6565:6653   */\n  iszero\n  tag_116\n  jumpi\n    /* \"#utility.yul\":6633:6651   */\n  tag_117\n  tag_104\n  jump\t// in\ntag_117:\n    /* \"#utility.yul\":6565:6653   */\ntag_116:\n    /* \"#utility.yul\":6673:6683   */\n  dup1\n    /* \"#utility.yul\":6669:6671   */\n  0x40\n    /* \"#utility.yul\":6662:6684   */\n  mstore\n    /* \"#utility.yul\":6452:6690   */\n  pop\n    /* \"#utility.yul\":6409:6690   */\n  pop\n  pop\n  jump\t// out\n    /* \"#utility.yul\":6696:6929   */\ntag_27:\n    /* \"#utility.yul\":6735:6738   */\n  0x00\n    /* \"#utility.yul\":6758:6782   */\n  tag_119\n    /* \"#utility.yul\":6776:6781   */\n  dup3\n    /* \"#utility.yul\":6758:6782   */\n  tag_111\n  jump\t// in\ntag_119:\n    /* \"#utility.yul\":6749:6782   */\n  swap2\n  pop\n    /* \"#utility.yul\":6804:6870   */\n  0xffffffffffffffffffffffffffffffffffffffffffffffffffffffffffffffff\n    /* \"#utility.yul\":6797:6802   */\n  dup3\n    /* \"#utility.yul\":6794:6871   */\n  eq\n    /* \"#utility.yul\":6791:6894   */\n  iszero\n  tag_120\n  jumpi\n    /* \"#utility.yul\":6874:6892   */\n  tag_121\n  tag_122\n  jump\t// in\ntag_121:\n    /* \"#utility.yul\":6791:6894   */\ntag_120:\n    /* \"#utility.yul\":6921:6922   */\n  0x01\n    /* \"#utility.yul\":6914:6919   */\n  dup3\n    /* \"#utility.yul\":6910:6923   */\n  add\n    /* \"#utility.yul\":6903:6923   */\n  swap1\n  pop\n    /* \"#utility.yul\":6696:6929   */\n  swap2\n  swap1\n  pop\n  jump\t// out\n    /* \"#utility.yul\":6935:7115   */\ntag_122:\n    /* \"#utility.yul\":6983:7060   */\n  0x4e487b7100000000000000000000000000000000000000000000000000000000\n    /* \"#utility.yul\":6980:6981   */\n  0x00\n    /* \"#utility.yul\":6973:7061   */\n  mstore\n    /* \"#utility.yul\":7080:7084   */\n  0x11\n    /* \"#utility.yul\":7077:7078   */\n  0x04\n    /* \"#utility.yul\":7070:7085   */\n  mstore\n    /* \"#utility.yul\":7104:7108   */\n  0x24\n    /* \"#utility.yul\":7101:7102   */\n  0x00\n    /* \"#utility.yul\":7094:7109   */\n  revert\n    /* \"#utility.yul\":7121:7301   */\ntag_18:\n    /* \"#utility.yul\":7169:7246   */\n  0x4e487b7100000000000000000000000000000000000000000000000000000000\n    /* \"#utility.yul\":7166:7167   */\n  0x00\n    /* \"#utility.yul\":7159:7247   */\n  mstore\n    /* \"#utility.yul\":7266:7270   */\n  0x32\n    /* \"#utility.yul\":7263:7264   */\n  0x04\n    /* \"#utility.yul\":7256:7271   */\n  mstore\n    /* \"#utility.yul\":7290:7294   */\n  0x24\n    /* \"#utility.yul\":7287:7288   */\n  0x00\n    /* \"#utility.yul\":7280:7295   */\n  revert\n    /* \"#utility.yul\":7307:7487   */\ntag_104:\n    /* \"#utility.yul\":7355:7432   */\n  0x4e487b7100000000000000000000000000000000000000000000000000000000\n    /* \"#utility.yul\":7352:7353   */\n  0x00\n    /* \"#utility.yul\":7345:7433   */\n  mstore\n    /* \"#utility.yul\":7452:7456   */\n  0x41\n    /* \"#utility.yul\":7449:7450   */\n  0x04\n    /* \"#utility.yul\":7442:7457   */\n  mstore\n    /* \"#utility.yul\":7476:7480   */\n  0x24\n    /* \"#utility.yul\":7473:7474   */\n  0x00\n    /* \"#utility.yul\":7466:7481   */\n  revert\n    /* \"#utility.yul\":7493:7610   */\ntag_51:\n    /* \"#utility.yul\":7602:7603   */\n  0x00\n    /* \"#utility.yul\":7599:7600   */\n  dup1\n    /* \"#utility.yul\":7592:7604   */\n  revert\n    /* \"#utility.yul\":7616:7733   */\ntag_38:\n    /* \"#utility.yul\":7725:7726   */\n  0x00\n    /* \"#utility.yul\":7722:7723   */\n  dup1\n    /* \"#utility.yul\":7715:7727   */\n  revert\n    /* \"#utility.yul\":7739:7856   */\ntag_63:\n    /* \"#utility.yul\":7848:7849   */\n  0x00\n    /* \"#utility.yul\":7845:7846   */\n  dup1\n    /* \"#utility.yul\":7838:7850   */\n  revert\n    /* \"#utility.yul\":7862:7979   */\ntag_60:\n    /* \"#utility.yul\":7971:7972   */\n  0x00\n    /* \"#utility.yul\":7968:7969   */\n  dup1\n    /* \"#utility.yul\":7961:7973   */\n  revert\n    /* \"#utility.yul\":7985:8087   */\ntag_115:\n    /* \"#utility.yul\":8026:8032   */\n  0x00\n    /* \"#utility.yul\":8077:8079   */\n  0x1f\n    /* \"#utility.yul\":8073:8080   */\n  not\n    /* \"#utility.yul\":8068:8070   */\n  0x1f\n    /* \"#utility.yul\":8061:8066   */\n  dup4\n    /* \"#utility.yul\":8057:8071   */\n  add\n    /* \"#utility.yul\":8053:8081   */\n  and\n    /* \"#utility.yul\":8043:8081   */\n  swap1\n  pop\n    /* \"#utility.yul\":7985:8087   */\n  swap2\n  swap1\n  pop\n  jump\t// out\n    /* \"#utility.yul\":8093:8262   */\ntag_71:\n    /* \"#utility.yul\":8233:8254   */\n  0x6f776e6572206973206e6f7420756e6971756500000000000000000000000000\n    /* \"#utility.yul\":8229:8230   */\n  0x00\n    /* \"#utility.yul\":8221:8227   */\n  dup3\n    /* \"#utility.yul\":8217:8231   */\n  add\n    /* \"#utility.yul\":8210:8255   */\n  mstore\n    /* \"#utility.yul\":8093:8262   */\n  pop\n  jump\t// out\n    /* \"#utility.yul\":8268:8433   */\ntag_76:\n    /* \"#utility.yul\":8408:8425   */\n  0x696e76616c696420616464726573730000000000000000000000000000000000\n    /* \"#utility.yul\":8404:8405   */\n  0x00\n    /* \"#utility.yul\":8396:8402   */\n  dup3\n    /* \"#utility.yul\":8392:8406   */\n  add\n    /* \"#utility.yul\":8385:8426   */\n  mstore\n    /* \"#utility.yul\":8268:8433   */\n  pop\n  jump\t// out\n    /* \"#utility.yul\":8439:8605   */\ntag_81:\n    /* \"#utility.yul\":8579:8597   */\n  0x6f776e6572732072657175697265642100000000000000000000000000000000\n    /* \"#utility.yul\":8575:8576   */\n  0x00\n    /* \"#utility.yul\":8567:8573   */\n  dup3\n    /* \"#utility.yul\":8563:8577   */\n  add\n    /* \"#utility.yul\":8556:8598   */\n  mstore\n    /* \"#utility.yul\":8439:8605   */\n  pop\n  jump\t// out\n    /* \"#utility.yul\":8611:8831   */\ntag_86:\n    /* \"#utility.yul\":8751:8785   */\n  0x696e76616c6964207265717569726564206e756d626572206f66206f776e6572\n    /* \"#utility.yul\":8747:8748   */\n  0x00\n    /* \"#utility.yul\":8739:8745   */\n  dup3\n    /* \"#utility.yul\":8735:8749   */\n  add\n    /* \"#utility.yul\":8728:8786   */\n  mstore\n    /* \"#utility.yul\":8820:8823   */\n  0x7300000000000000000000000000000000000000000000000000000000000000\n    /* \"#utility.yul\":8815:8817   */\n  0x20\n    /* \"#utility.yul\":8807:8813   */\n  dup3\n    /* \"#utility.yul\":8803:8818   */\n  add\n    /* \"#utility.yul\":8796:8824   */\n  mstore\n    /* \"#utility.yul\":8611:8831   */\n  pop\n  jump\t// out\n    /* \"#utility.yul\":8837:8959   */\ntag_46:\n    /* \"#utility.yul\":8910:8934   */\n  tag_136\n    /* \"#utility.yul\":8928:8933   */\n  dup2\n    /* \"#utility.yul\":8910:8934   */\n  tag_106\n  jump\t// in\ntag_136:\n    /* \"#utility.yul\":8903:8908   */\n  dup2\n    /* \"#utility.yul\":8900:8935   */\n  eq\n    /* \"#utility.yul\":8890:8953   */\n  tag_137\n  jumpi\n    /* \"#utility.yul\":8949:8950   */\n  0x00\n    /* \"#utility.yul\":8946:8947   */\n  dup1\n    /* \"#utility.yul\":8939:8951   */\n  revert\n    /* \"#utility.yul\":8890:8953   */\ntag_137:\n    /* \"#utility.yul\":8837:8959   */\n  pop\n  jump\t// out\n    /* \"#utility.yul\":8965:9087   */\ntag_56:\n    /* \"#utility.yul\":9038:9062   */\n  tag_139\n    /* \"#utility.yul\":9056:9061   */\n  dup2\n    /* \"#utility.yul\":9038:9062   */\n  tag_111\n  jump\t// in\ntag_139:\n    /* \"#utility.yul\":9031:9036   */\n  dup2\n    /* \"#utility.yul\":9028:9063   */\n  eq\n    /* \"#utility.yul\":9018:9081   */\n  tag_140\n  jumpi\n    /* \"#utility.yul\":9077:9078   */\n  0x00\n    /* \"#utility.yul\":9074:9075   */\n  dup1\n    /* \"#utility.yul\":9067:9079   */\n  revert\n    /* \"#utility.yul\":9018:9081   */\ntag_140:\n    /* \"#utility.yul\":8965:9087   */\n  pop\n  jump\t// out\n    /* \"Contracts/multiSigWallet.sol\":35:1644  contract KudiJointWallet{\r... */\ntag_28:\n  dataSize(sub_0)\n  dup1\n  dataOffset(sub_0)\n  0x00\n  codecopy\n  0x00\n  return\nstop\n\nsub_0: assembly {\n        /* \"Contracts/multiSigWallet.sol\":35:1644  contract KudiJointWallet{\r... */\n      mstore(0x40, 0x80)\n      jumpi(tag_1, lt(calldatasize, 0x04))\n      shr(0xe0, calldataload(0x00))\n      dup1\n      0x025e7c27\n      eq\n      tag_3\n      jumpi\n      dup1\n      0x14de327f\n      eq\n      tag_4\n      jumpi\n      dup1\n      0x2f54bf6e\n      eq\n      tag_5\n      jumpi\n      dup1\n      0x8253951a\n      eq\n      tag_6\n      jumpi\n      dup1\n      0x9ace38c2\n      eq\n      tag_7\n      jumpi\n      dup1\n      0xdc8452cd\n      eq\n      tag_8\n      jumpi\n      jump(tag_2)\n    tag_1:\n      jumpi(tag_2, calldatasize)\n        /* \"Contracts/multiSigWallet.sol\":1354:1364  msg.sender */\n      caller\n        /* \"Contracts/multiSigWallet.sol\":1346:1376  Deposit(msg.sender, msg.value) */\n      0xffffffffffffffffffffffffffffffffffffffff\n      and\n      0xe1fffcc4923d04b559f4d29a8bfc6cda04eb5b0d3c460751c2402c5c5cc9109c\n        /* \"Contracts/multiSigWallet.sol\":1366:1375  msg.value */\n      callvalue\n        /* \"Contracts/multiSigWallet.sol\":1346:1376  Deposit(msg.sender, msg.value) */\n      mload(0x40)\n      tag_11\n      swap2\n      swap1\n      tag_12\n      jump\t// in\n    tag_11:\n      mload(0x40)\n      dup1\n      swap2\n      sub\n      swap1\n      log2\n        /* \"Contracts/multiSigWallet.sol\":35:1644  contract KudiJointWallet{\r... */\n      stop\n    tag_2:\n      0x00\n      dup1\n      revert\n        /* \"Contracts/multiSigWallet.sol\":562:585  address[] public owners */\n    tag_3:\n      callvalue\n      dup1\n      iszero\n      tag_13\n      jumpi\n      0x00\n      dup1\n      revert\n    tag_13:\n      pop\n      tag_14\n      0x04\n      dup1\n      calldatasize\n      sub\n      dup2\n      add\n      swap1\n      tag_15\n      swap2\n      swap1\n      tag_16\n      jump\t// in\n    tag_15:\n      tag_17\n      jump\t// in\n    tag_14:\n      mload(0x40)\n      tag_18\n      swap2\n      swap1\n      tag_19\n      jump\t// in\n    tag_18:\n      mload(0x40)\n      dup1\n      swap2\n      sub\n      swap1\n      return\n        /* \"Contracts/multiSigWallet.sol\":1392:1641  function submit(address _to, uint _value, bytes calldata _data) external onlyOwner{\r... */\n    tag_4:\n      callvalue\n      dup1\n      iszero\n      tag_20\n      jumpi\n      0x00\n      dup1\n      revert\n    tag_20:\n      pop\n      tag_21\n      0x04\n      dup1\n      calldatasize\n      sub\n      dup2\n      add\n      swap1\n      tag_22\n      swap2\n      swap1\n      tag_23\n      jump\t// in\n    tag_22:\n      tag_24\n      jump\t// in\n    tag_21:\n      stop\n        /* \"Contracts/multiSigWallet.sol\":488:528  mapping (address => bool) public isOwner */\n    tag_5:\n      callvalue\n      dup1\n      iszero\n      tag_25\n      jumpi\n      0x00\n      dup1\n      revert\n    tag_25:\n      pop\n      tag_26\n      0x04\n      dup1\n      calldatasize\n      sub\n      dup2\n      add\n      swap1\n      tag_27\n      swap2\n      swap1\n      tag_28\n      jump\t// in\n    tag_27:\n      tag_29\n      jump\t// in\n    tag_26:\n      mload(0x40)\n      tag_30\n      swap2\n      swap1\n      tag_31\n      jump\t// in\n    tag_30:\n      mload(0x40)\n      dup1\n      swap2\n      sub\n      swap1\n      return\n        /* \"Contracts/multiSigWallet.sol\":592:651  mapping (uint => mapping (address => bool)) public approved */\n    tag_6:\n      callvalue\n      dup1\n      iszero\n      tag_32\n      jumpi\n      0x00\n      dup1\n      revert\n    tag_32:\n      pop\n      tag_33\n      0x04\n      dup1\n      calldatasize\n      sub\n      dup2\n      add\n      swap1\n      tag_34\n      swap2\n      swap1\n      tag_35\n      jump\t// in\n    tag_34:\n      tag_36\n      jump\t// in\n    tag_33:\n      mload(0x40)\n      tag_37\n      swap2\n      swap1\n      tag_31\n      jump\t// in\n    tag_37:\n      mload(0x40)\n      dup1\n      swap2\n      sub\n      swap1\n      return\n        /* \"Contracts/multiSigWallet.sol\":448:481  Transaction[] public transactions */\n    tag_7:\n      callvalue\n      dup1\n      iszero\n      tag_38\n      jumpi\n      0x00\n      dup1\n      revert\n    tag_38:\n      pop\n      tag_39\n      0x04\n      dup1\n      calldatasize\n      sub\n      dup2\n      add\n      swap1\n      tag_40\n      swap2\n      swap1\n      tag_16\n      jump\t// in\n    tag_40:\n      tag_41\n      jump\t// in\n    tag_39:\n      mload(0x40)\n      tag_42\n      swap5\n      swap4\n      swap3\n      swap2\n      swap1\n      tag_43\n      jump\t// in\n    tag_42:\n      mload(0x40)\n      dup1\n      swap2\n      sub\n      swap1\n      return\n        /* \"Contracts/multiSigWallet.sol\":535:555  uint public required */\n    tag_8:\n      callvalue\n      dup1\n      iszero\n      tag_44\n      jumpi\n      0x00\n      dup1\n      revert\n    tag_44:\n      pop\n      tag_45\n      tag_46\n      jump\t// in\n    tag_45:\n      mload(0x40)\n      tag_47\n      swap2\n      swap1\n      tag_12\n      jump\t// in\n    tag_47:\n      mload(0x40)\n      dup1\n      swap2\n      sub\n      swap1\n      return\n        /* \"Contracts/multiSigWallet.sol\":562:585  address[] public owners */\n    tag_17:\n      0x03\n      dup2\n      dup2\n      sload\n      dup2\n      lt\n      tag_48\n      jumpi\n      0x00\n      dup1\n      revert\n    tag_48:\n      swap1\n      0x00\n      mstore\n      keccak256(0x00, 0x20)\n      add\n      0x00\n      swap2\n      pop\n      sload\n      swap1\n      0x0100\n      exp\n      swap1\n      div\n      0xffffffffffffffffffffffffffffffffffffffff\n      and\n      dup2\n      jump\t// out\n        /* \"Contracts/multiSigWallet.sol\":1392:1641  function submit(address _to, uint _value, bytes calldata _data) external onlyOwner{\r... */\n    tag_24:\n        /* \"Contracts/multiSigWallet.sol\":1243:1250  isOwner */\n      0x01\n        /* \"Contracts/multiSigWallet.sol\":1243:1262  isOwner[msg.sender] */\n      0x00\n        /* \"Contracts/multiSigWallet.sol\":1251:1261  msg.sender */\n      caller\n        /* \"Contracts/multiSigWallet.sol\":1243:1262  isOwner[msg.sender] */\n      0xffffffffffffffffffffffffffffffffffffffff\n      and\n      0xffffffffffffffffffffffffffffffffffffffff\n      and\n      dup2\n      mstore\n      0x20\n      add\n      swap1\n      dup2\n      mstore\n      0x20\n      add\n      0x00\n      keccak256\n      0x00\n      swap1\n      sload\n      swap1\n      0x0100\n      exp\n      swap1\n      div\n      0xff\n      and\n        /* \"Contracts/multiSigWallet.sol\":1235:1276  require(isOwner[msg.sender], \"not owner\") */\n      tag_51\n      jumpi\n      mload(0x40)\n      0x08c379a000000000000000000000000000000000000000000000000000000000\n      dup2\n      mstore\n      0x04\n      add\n      tag_52\n      swap1\n      tag_53\n      jump\t// in\n    tag_52:\n      mload(0x40)\n      dup1\n      swap2\n      sub\n      swap1\n      revert\n    tag_51:\n        /* \"Contracts/multiSigWallet.sol\":1485:1497  transactions */\n      0x00\n        /* \"Contracts/multiSigWallet.sol\":1503:1632  Transaction({\r... */\n      mload(0x40)\n      dup1\n      0x80\n      add\n      0x40\n      mstore\n      dup1\n        /* \"Contracts/multiSigWallet.sol\":1533:1536  _to */\n      dup7\n        /* \"Contracts/multiSigWallet.sol\":1503:1632  Transaction({\r... */\n      0xffffffffffffffffffffffffffffffffffffffff\n      and\n      dup2\n      mstore\n      0x20\n      add\n        /* \"Contracts/multiSigWallet.sol\":1557:1563  _value */\n      dup6\n        /* \"Contracts/multiSigWallet.sol\":1503:1632  Transaction({\r... */\n      dup2\n      mstore\n      0x20\n      add\n        /* \"Contracts/multiSigWallet.sol\":1585:1590  _data */\n      dup5\n      dup5\n        /* \"Contracts/multiSigWallet.sol\":1503:1632  Transaction({\r... */\n      dup1\n      dup1\n      0x1f\n      add\n      0x20\n      dup1\n      swap2\n      div\n      mul\n      0x20\n      add\n      mload(0x40)\n      swap1\n      dup2\n      add\n      0x40\n      mstore\n      dup1\n      swap4\n      swap3\n      swap2\n      swap1\n      dup2\n      dup2\n      mstore\n      0x20\n      add\n      dup4\n      dup4\n      dup1\n      dup3\n      dup5\n      calldatacopy\n      0x00\n      dup2\n      dup5\n      add\n      mstore\n      not(0x1f)\n      0x1f\n      dup3\n      add\n      and\n      swap1\n      pop\n      dup1\n      dup4\n      add\n      swap3\n      pop\n      pop\n      pop\n      pop\n      pop\n      pop\n      pop\n      dup2\n      mstore\n      0x20\n      add\n        /* \"Contracts/multiSigWallet.sol\":1615:1620  false */\n      0x00\n        /* \"Contracts/multiSigWallet.sol\":1503:1632  Transaction({\r... */\n      iszero\n      iszero\n      dup2\n      mstore\n      pop\n        /* \"Contracts/multiSigWallet.sol\":1485:1633  transactions.push(Transaction({\r... */\n      swap1\n      dup1\n      0x01\n      dup2\n      sload\n      add\n      dup1\n      dup3\n      sstore\n      dup1\n      swap2\n      pop\n      pop\n      0x01\n      swap1\n      sub\n      swap1\n      0x00\n      mstore\n      keccak256(0x00, 0x20)\n      swap1\n      0x04\n      mul\n      add\n      0x00\n      swap1\n      swap2\n      swap1\n      swap2\n      swap1\n      swap2\n      pop\n      0x00\n      dup3\n      add\n      mload\n      dup2\n      0x00\n      add\n      exp(0x0100, 0x00)\n      dup2\n      sload\n      dup2\n      0xffffffffffffffffffffffffffffffffffffffff\n      mul\n      not\n      and\n      swap1\n      dup4\n      0xffffffffffffffffffffffffffffffffffffffff\n      and\n      mul\n      or\n      swap1\n      sstore\n      pop\n      0x20\n      dup3\n      add\n      mload\n      dup2\n      0x01\n      add\n      sstore\n      0x40\n      dup3\n      add\n      mload\n      dup2\n      0x02\n      add\n      swap1\n      dup1\n      mload\n      swap1\n      0x20\n      add\n      swap1\n      tag_56\n      swap3\n      swap2\n      swap1\n      tag_57\n      jump\t// in\n    tag_56:\n      pop\n      0x60\n      dup3\n      add\n      mload\n      dup2\n      0x03\n      add\n      exp(0x0100, 0x00)\n      dup2\n      sload\n      dup2\n      0xff\n      mul\n      not\n      and\n      swap1\n      dup4\n      iszero\n      iszero\n      mul\n      or\n      swap1\n      sstore\n      pop\n      pop\n      pop\n        /* \"Contracts/multiSigWallet.sol\":1392:1641  function submit(address _to, uint _value, bytes calldata _data) external onlyOwner{\r... */\n      pop\n      pop\n      pop\n      pop\n      jump\t// out\n        /* \"Contracts/multiSigWallet.sol\":488:528  mapping (address => bool) public isOwner */\n    tag_29:\n      mstore(0x20, 0x01)\n      dup1\n      0x00\n      mstore\n      keccak256(0x00, 0x40)\n      0x00\n      swap2\n      pop\n      sload\n      swap1\n      0x0100\n      exp\n      swap1\n      div\n      0xff\n      and\n      dup2\n      jump\t// out\n        /* \"Contracts/multiSigWallet.sol\":592:651  mapping (uint => mapping (address => bool)) public approved */\n    tag_36:\n      mstore(0x20, 0x04)\n      dup2\n      0x00\n      mstore\n      mstore(0x20, keccak256(0x00, 0x40))\n      dup1\n      0x00\n      mstore\n      keccak256(0x00, 0x40)\n      0x00\n      swap2\n      pop\n      swap2\n      pop\n      swap1\n      sload\n      swap1\n      0x0100\n      exp\n      swap1\n      div\n      0xff\n      and\n      dup2\n      jump\t// out\n        /* \"Contracts/multiSigWallet.sol\":448:481  Transaction[] public transactions */\n    tag_41:\n      0x00\n      dup2\n      dup2\n      sload\n      dup2\n      lt\n      tag_58\n      jumpi\n      0x00\n      dup1\n      revert\n    tag_58:\n      swap1\n      0x00\n      mstore\n      keccak256(0x00, 0x20)\n      swap1\n      0x04\n      mul\n      add\n      0x00\n      swap2\n      pop\n      swap1\n      pop\n      dup1\n      0x00\n      add\n      0x00\n      swap1\n      sload\n      swap1\n      0x0100\n      exp\n      swap1\n      div\n      0xffffffffffffffffffffffffffffffffffffffff\n      and\n      swap1\n      dup1\n      0x01\n      add\n      sload\n      swap1\n      dup1\n      0x02\n      add\n      dup1\n      sload\n      tag_60\n      swap1\n      tag_61\n      jump\t// in\n    tag_60:\n      dup1\n      0x1f\n      add\n      0x20\n      dup1\n      swap2\n      div\n      mul\n      0x20\n      add\n      mload(0x40)\n      swap1\n      dup2\n      add\n      0x40\n      mstore\n      dup1\n      swap3\n      swap2\n      swap1\n      dup2\n      dup2\n      mstore\n      0x20\n      add\n      dup3\n      dup1\n      sload\n      tag_62\n      swap1\n      tag_61\n      jump\t// in\n    tag_62:\n      dup1\n      iszero\n      tag_63\n      jumpi\n      dup1\n      0x1f\n      lt\n      tag_64\n      jumpi\n      0x0100\n      dup1\n      dup4\n      sload\n      div\n      mul\n      dup4\n      mstore\n      swap2\n      0x20\n      add\n      swap2\n      jump(tag_63)\n    tag_64:\n      dup3\n      add\n      swap2\n      swap1\n      0x00\n      mstore\n      keccak256(0x00, 0x20)\n      swap1\n    tag_65:\n      dup2\n      sload\n      dup2\n      mstore\n      swap1\n      0x01\n      add\n      swap1\n      0x20\n      add\n      dup1\n      dup4\n      gt\n      tag_65\n      jumpi\n      dup3\n      swap1\n      sub\n      0x1f\n      and\n      dup3\n      add\n      swap2\n    tag_63:\n      pop\n      pop\n      pop\n      pop\n      pop\n      swap1\n      dup1\n      0x03\n      add\n      0x00\n      swap1\n      sload\n      swap1\n      0x0100\n      exp\n      swap1\n      div\n      0xff\n      and\n      swap1\n      pop\n      dup5\n      jump\t// out\n        /* \"Contracts/multiSigWallet.sol\":535:555  uint public required */\n    tag_46:\n      sload(0x02)\n      dup2\n      jump\t// out\n    tag_57:\n      dup3\n      dup1\n      sload\n      tag_66\n      swap1\n      tag_61\n      jump\t// in\n    tag_66:\n      swap1\n      0x00\n      mstore\n      keccak256(0x00, 0x20)\n      swap1\n      0x1f\n      add\n      0x20\n      swap1\n      div\n      dup2\n      add\n      swap3\n      dup3\n      tag_68\n      jumpi\n      0x00\n      dup6\n      sstore\n      jump(tag_67)\n    tag_68:\n      dup3\n      0x1f\n      lt\n      tag_69\n      jumpi\n      dup1\n      mload\n      not(0xff)\n      and\n      dup4\n      dup1\n      add\n      or\n      dup6\n      sstore\n      jump(tag_67)\n    tag_69:\n      dup3\n      dup1\n      add\n      0x01\n      add\n      dup6\n      sstore\n      dup3\n      iszero\n      tag_67\n      jumpi\n      swap2\n      dup3\n      add\n    tag_70:\n      dup3\n      dup2\n      gt\n      iszero\n      tag_71\n      jumpi\n      dup3\n      mload\n      dup3\n      sstore\n      swap2\n      0x20\n      add\n      swap2\n      swap1\n      0x01\n      add\n      swap1\n      jump(tag_70)\n    tag_71:\n    tag_67:\n      pop\n      swap1\n      pop\n      tag_72\n      swap2\n      swap1\n      tag_73\n      jump\t// in\n    tag_72:\n      pop\n      swap1\n      jump\t// out\n    tag_73:\n    tag_74:\n      dup1\n      dup3\n      gt\n      iszero\n      tag_75\n      jumpi\n      0x00\n      dup2\n      0x00\n      swap1\n      sstore\n      pop\n      0x01\n      add\n      jump(tag_74)\n    tag_75:\n      pop\n      swap1\n      jump\t// out\n        /* \"#utility.yul\":7:146   */\n    tag_77:\n        /* \"#utility.yul\":53:58   */\n      0x00\n        /* \"#utility.yul\":91:97   */\n      dup2\n        /* \"#utility.yul\":78:98   */\n      calldataload\n        /* \"#utility.yul\":69:98   */\n      swap1\n      pop\n        /* \"#utility.yul\":107:140   */\n      tag_79\n        /* \"#utility.yul\":134:139   */\n      dup2\n        /* \"#utility.yul\":107:140   */\n      tag_80\n      jump\t// in\n    tag_79:\n        /* \"#utility.yul\":7:146   */\n      swap3\n      swap2\n      pop\n      pop\n      jump\t// out\n        /* \"#utility.yul\":165:717   */\n    tag_81:\n        /* \"#utility.yul\":222:230   */\n      0x00\n        /* \"#utility.yul\":232:238   */\n      dup1\n        /* \"#utility.yul\":282:285   */\n      dup4\n        /* \"#utility.yul\":275:279   */\n      0x1f\n        /* \"#utility.yul\":267:273   */\n      dup5\n        /* \"#utility.yul\":263:280   */\n      add\n        /* \"#utility.yul\":259:286   */\n      slt\n        /* \"#utility.yul\":249:371   */\n      tag_83\n      jumpi\n        /* \"#utility.yul\":290:369   */\n      tag_84\n      tag_85\n      jump\t// in\n    tag_84:\n        /* \"#utility.yul\":249:371   */\n    tag_83:\n        /* \"#utility.yul\":403:409   */\n      dup3\n        /* \"#utility.yul\":390:410   */\n      calldataload\n        /* \"#utility.yul\":380:410   */\n      swap1\n      pop\n        /* \"#utility.yul\":433:451   */\n      0xffffffffffffffff\n        /* \"#utility.yul\":425:431   */\n      dup2\n        /* \"#utility.yul\":422:452   */\n      gt\n        /* \"#utility.yul\":419:536   */\n      iszero\n      tag_86\n      jumpi\n        /* \"#utility.yul\":455:534   */\n      tag_87\n      tag_88\n      jump\t// in\n    tag_87:\n        /* \"#utility.yul\":419:536   */\n    tag_86:\n        /* \"#utility.yul\":569:573   */\n      0x20\n        /* \"#utility.yul\":561:567   */\n      dup4\n        /* \"#utility.yul\":557:574   */\n      add\n        /* \"#utility.yul\":545:574   */\n      swap2\n      pop\n        /* \"#utility.yul\":623:626   */\n      dup4\n        /* \"#utility.yul\":615:619   */\n      0x01\n        /* \"#utility.yul\":607:613   */\n      dup3\n        /* \"#utility.yul\":603:620   */\n      mul\n        /* \"#utility.yul\":593:601   */\n      dup4\n        /* \"#utility.yul\":589:621   */\n      add\n        /* \"#utility.yul\":586:627   */\n      gt\n        /* \"#utility.yul\":583:711   */\n      iszero\n      tag_89\n      jumpi\n        /* \"#utility.yul\":630:709   */\n      tag_90\n      tag_91\n      jump\t// in\n    tag_90:\n        /* \"#utility.yul\":583:711   */\n    tag_89:\n        /* \"#utility.yul\":165:717   */\n      swap3\n      pop\n      swap3\n      swap1\n      pop\n      jump\t// out\n        /* \"#utility.yul\":723:862   */\n    tag_92:\n        /* \"#utility.yul\":769:774   */\n      0x00\n        /* \"#utility.yul\":807:813   */\n      dup2\n        /* \"#utility.yul\":794:814   */\n      calldataload\n        /* \"#utility.yul\":785:814   */\n      swap1\n      pop\n        /* \"#utility.yul\":823:856   */\n      tag_94\n        /* \"#utility.yul\":850:855   */\n      dup2\n        /* \"#utility.yul\":823:856   */\n      tag_95\n      jump\t// in\n    tag_94:\n        /* \"#utility.yul\":723:862   */\n      swap3\n      swap2\n      pop\n      pop\n      jump\t// out\n        /* \"#utility.yul\":868:1197   */\n    tag_28:\n        /* \"#utility.yul\":927:933   */\n      0x00\n        /* \"#utility.yul\":976:978   */\n      0x20\n        /* \"#utility.yul\":964:973   */\n      dup3\n        /* \"#utility.yul\":955:962   */\n      dup5\n        /* \"#utility.yul\":951:974   */\n      sub\n        /* \"#utility.yul\":947:979   */\n      slt\n        /* \"#utility.yul\":944:1063   */\n      iszero\n      tag_97\n      jumpi\n        /* \"#utility.yul\":982:1061   */\n      tag_98\n      tag_99\n      jump\t// in\n    tag_98:\n        /* \"#utility.yul\":944:1063   */\n    tag_97:\n        /* \"#utility.yul\":1102:1103   */\n      0x00\n        /* \"#utility.yul\":1127:1180   */\n      tag_100\n        /* \"#utility.yul\":1172:1179   */\n      dup5\n        /* \"#utility.yul\":1163:1169   */\n      dup3\n        /* \"#utility.yul\":1152:1161   */\n      dup6\n        /* \"#utility.yul\":1148:1170   */\n      add\n        /* \"#utility.yul\":1127:1180   */\n      tag_77\n      jump\t// in\n    tag_100:\n        /* \"#utility.yul\":1117:1180   */\n      swap2\n      pop\n        /* \"#utility.yul\":1073:1190   */\n      pop\n        /* \"#utility.yul\":868:1197   */\n      swap3\n      swap2\n      pop\n      pop\n      jump\t// out\n        /* \"#utility.yul\":1203:2020   */\n    tag_23:\n        /* \"#utility.yul\":1291:1297   */\n      0x00\n        /* \"#utility.yul\":1299:1305   */\n      dup1\n        /* \"#utility.yul\":1307:1313   */\n      0x00\n        /* \"#utility.yul\":1315:1321   */\n      dup1\n        /* \"#utility.yul\":1364:1366   */\n      0x60\n        /* \"#utility.yul\":1352:1361   */\n      dup6\n        /* \"#utility.yul\":1343:1350   */\n      dup8\n        /* \"#utility.yul\":1339:1362   */\n      sub\n        /* \"#utility.yul\":1335:1367   */\n      slt\n        /* \"#utility.yul\":1332:1451   */\n      iszero\n      tag_102\n      jumpi\n        /* \"#utility.yul\":1370:1449   */\n      tag_103\n      tag_99\n      jump\t// in\n    tag_103:\n        /* \"#utility.yul\":1332:1451   */\n    tag_102:\n        /* \"#utility.yul\":1490:1491   */\n      0x00\n        /* \"#utility.yul\":1515:1568   */\n      tag_104\n        /* \"#utility.yul\":1560:1567   */\n      dup8\n        /* \"#utility.yul\":1551:1557   */\n      dup3\n        /* \"#utility.yul\":1540:1549   */\n      dup9\n        /* \"#utility.yul\":1536:1558   */\n      add\n        /* \"#utility.yul\":1515:1568   */\n      tag_77\n      jump\t// in\n    tag_104:\n        /* \"#utility.yul\":1505:1568   */\n      swap5\n      pop\n        /* \"#utility.yul\":1461:1578   */\n      pop\n        /* \"#utility.yul\":1617:1619   */\n      0x20\n        /* \"#utility.yul\":1643:1696   */\n      tag_105\n        /* \"#utility.yul\":1688:1695   */\n      dup8\n        /* \"#utility.yul\":1679:1685   */\n      dup3\n        /* \"#utility.yul\":1668:1677   */\n      dup9\n        /* \"#utility.yul\":1664:1686   */\n      add\n        /* \"#utility.yul\":1643:1696   */\n      tag_92\n      jump\t// in\n    tag_105:\n        /* \"#utility.yul\":1633:1696   */\n      swap4\n      pop\n        /* \"#utility.yul\":1588:1706   */\n      pop\n        /* \"#utility.yul\":1773:1775   */\n      0x40\n        /* \"#utility.yul\":1762:1771   */\n      dup6\n        /* \"#utility.yul\":1758:1776   */\n      add\n        /* \"#utility.yul\":1745:1777   */\n      calldataload\n        /* \"#utility.yul\":1804:1822   */\n      0xffffffffffffffff\n        /* \"#utility.yul\":1796:1802   */\n      dup2\n        /* \"#utility.yul\":1793:1823   */\n      gt\n        /* \"#utility.yul\":1790:1907   */\n      iszero\n      tag_106\n      jumpi\n        /* \"#utility.yul\":1826:1905   */\n      tag_107\n      tag_108\n      jump\t// in\n    tag_107:\n        /* \"#utility.yul\":1790:1907   */\n    tag_106:\n        /* \"#utility.yul\":1939:2003   */\n      tag_109\n        /* \"#utility.yul\":1995:2002   */\n      dup8\n        /* \"#utility.yul\":1986:1992   */\n      dup3\n        /* \"#utility.yul\":1975:1984   */\n      dup9\n        /* \"#utility.yul\":1971:1993   */\n      add\n        /* \"#utility.yul\":1939:2003   */\n      tag_81\n      jump\t// in\n    tag_109:\n        /* \"#utility.yul\":1921:2003   */\n      swap3\n      pop\n      swap3\n      pop\n        /* \"#utility.yul\":1716:2013   */\n      pop\n        /* \"#utility.yul\":1203:2020   */\n      swap3\n      swap6\n      swap2\n      swap5\n      pop\n      swap3\n      pop\n      jump\t// out\n        /* \"#utility.yul\":2026:2355   */\n    tag_16:\n        /* \"#utility.yul\":2085:2091   */\n      0x00\n        /* \"#utility.yul\":2134:2136   */\n      0x20\n        /* \"#utility.yul\":2122:2131   */\n      dup3\n        /* \"#utility.yul\":2113:2120   */\n      dup5\n        /* \"#utility.yul\":2109:2132   */\n      sub\n        /* \"#utility.yul\":2105:2137   */\n      slt\n        /* \"#utility.yul\":2102:2221   */\n      iszero\n      tag_111\n      jumpi\n        /* \"#utility.yul\":2140:2219   */\n      tag_112\n      tag_99\n      jump\t// in\n    tag_112:\n        /* \"#utility.yul\":2102:2221   */\n    tag_111:\n        /* \"#utility.yul\":2260:2261   */\n      0x00\n        /* \"#utility.yul\":2285:2338   */\n      tag_113\n        /* \"#utility.yul\":2330:2337   */\n      dup5\n        /* \"#utility.yul\":2321:2327   */\n      dup3\n        /* \"#utility.yul\":2310:2319   */\n      dup6\n        /* \"#utility.yul\":2306:2328   */\n      add\n        /* \"#utility.yul\":2285:2338   */\n      tag_92\n      jump\t// in\n    tag_113:\n        /* \"#utility.yul\":2275:2338   */\n      swap2\n      pop\n        /* \"#utility.yul\":2231:2348   */\n      pop\n        /* \"#utility.yul\":2026:2355   */\n      swap3\n      swap2\n      pop\n      pop\n      jump\t// out\n        /* \"#utility.yul\":2361:2835   */\n    tag_35:\n        /* \"#utility.yul\":2429:2435   */\n      0x00\n        /* \"#utility.yul\":2437:2443   */\n      dup1\n        /* \"#utility.yul\":2486:2488   */\n      0x40\n        /* \"#utility.yul\":2474:2483   */\n      dup4\n        /* \"#utility.yul\":2465:2472   */\n      dup6\n        /* \"#utility.yul\":2461:2484   */\n      sub\n        /* \"#utility.yul\":2457:2489   */\n      slt\n        /* \"#utility.yul\":2454:2573   */\n      iszero\n      tag_115\n      jumpi\n        /* \"#utility.yul\":2492:2571   */\n      tag_116\n      tag_99\n      jump\t// in\n    tag_116:\n        /* \"#utility.yul\":2454:2573   */\n    tag_115:\n        /* \"#utility.yul\":2612:2613   */\n      0x00\n        /* \"#utility.yul\":2637:2690   */\n      tag_117\n        /* \"#utility.yul\":2682:2689   */\n      dup6\n        /* \"#utility.yul\":2673:2679   */\n      dup3\n        /* \"#utility.yul\":2662:2671   */\n      dup7\n        /* \"#utility.yul\":2658:2680   */\n      add\n        /* \"#utility.yul\":2637:2690   */\n      tag_92\n      jump\t// in\n    tag_117:\n        /* \"#utility.yul\":2627:2690   */\n      swap3\n      pop\n        /* \"#utility.yul\":2583:2700   */\n      pop\n        /* \"#utility.yul\":2739:2741   */\n      0x20\n        /* \"#utility.yul\":2765:2818   */\n      tag_118\n        /* \"#utility.yul\":2810:2817   */\n      dup6\n        /* \"#utility.yul\":2801:2807   */\n      dup3\n        /* \"#utility.yul\":2790:2799   */\n      dup7\n        /* \"#utility.yul\":2786:2808   */\n      add\n        /* \"#utility.yul\":2765:2818   */\n      tag_77\n      jump\t// in\n    tag_118:\n        /* \"#utility.yul\":2755:2818   */\n      swap2\n      pop\n        /* \"#utility.yul\":2710:2828   */\n      pop\n        /* \"#utility.yul\":2361:2835   */\n      swap3\n      pop\n      swap3\n      swap1\n      pop\n      jump\t// out\n        /* \"#utility.yul\":2841:2959   */\n    tag_119:\n        /* \"#utility.yul\":2928:2952   */\n      tag_121\n        /* \"#utility.yul\":2946:2951   */\n      dup2\n        /* \"#utility.yul\":2928:2952   */\n      tag_122\n      jump\t// in\n    tag_121:\n        /* \"#utility.yul\":2923:2926   */\n      dup3\n        /* \"#utility.yul\":2916:2953   */\n      mstore\n        /* \"#utility.yul\":2841:2959   */\n      pop\n      pop\n      jump\t// out\n        /* \"#utility.yul\":2965:3074   */\n    tag_123:\n        /* \"#utility.yul\":3046:3067   */\n      tag_125\n        /* \"#utility.yul\":3061:3066   */\n      dup2\n        /* \"#utility.yul\":3046:3067   */\n      tag_126\n      jump\t// in\n    tag_125:\n        /* \"#utility.yul\":3041:3044   */\n      dup3\n        /* \"#utility.yul\":3034:3068   */\n      mstore\n        /* \"#utility.yul\":2965:3074   */\n      pop\n      pop\n      jump\t// out\n        /* \"#utility.yul\":3080:3440   */\n    tag_127:\n        /* \"#utility.yul\":3166:3169   */\n      0x00\n        /* \"#utility.yul\":3194:3232   */\n      tag_129\n        /* \"#utility.yul\":3226:3231   */\n      dup3\n        /* \"#utility.yul\":3194:3232   */\n      tag_130\n      jump\t// in\n    tag_129:\n        /* \"#utility.yul\":3248:3318   */\n      tag_131\n        /* \"#utility.yul\":3311:3317   */\n      dup2\n        /* \"#utility.yul\":3306:3309   */\n      dup6\n        /* \"#utility.yul\":3248:3318   */\n      tag_132\n      jump\t// in\n    tag_131:\n        /* \"#utility.yul\":3241:3318   */\n      swap4\n      pop\n        /* \"#utility.yul\":3327:3379   */\n      tag_133\n        /* \"#utility.yul\":3372:3378   */\n      dup2\n        /* \"#utility.yul\":3367:3370   */\n      dup6\n        /* \"#utility.yul\":3360:3364   */\n      0x20\n        /* \"#utility.yul\":3353:3358   */\n      dup7\n        /* \"#utility.yul\":3349:3365   */\n      add\n        /* \"#utility.yul\":3327:3379   */\n      tag_134\n      jump\t// in\n    tag_133:\n        /* \"#utility.yul\":3404:3433   */\n      tag_135\n        /* \"#utility.yul\":3426:3432   */\n      dup2\n        /* \"#utility.yul\":3404:3433   */\n      tag_136\n      jump\t// in\n    tag_135:\n        /* \"#utility.yul\":3399:3402   */\n      dup5\n        /* \"#utility.yul\":3395:3434   */\n      add\n        /* \"#utility.yul\":3388:3434   */\n      swap2\n      pop\n        /* \"#utility.yul\":3170:3440   */\n      pop\n        /* \"#utility.yul\":3080:3440   */\n      swap3\n      swap2\n      pop\n      pop\n      jump\t// out\n        /* \"#utility.yul\":3446:3811   */\n    tag_137:\n        /* \"#utility.yul\":3588:3591   */\n      0x00\n        /* \"#utility.yul\":3609:3675   */\n      tag_139\n        /* \"#utility.yul\":3673:3674   */\n      0x09\n        /* \"#utility.yul\":3668:3671   */\n      dup4\n        /* \"#utility.yul\":3609:3675   */\n      tag_140\n      jump\t// in\n    tag_139:\n        /* \"#utility.yul\":3602:3675   */\n      swap2\n      pop\n        /* \"#utility.yul\":3684:3777   */\n      tag_141\n        /* \"#utility.yul\":3773:3776   */\n      dup3\n        /* \"#utility.yul\":3684:3777   */\n      tag_142\n      jump\t// in\n    tag_141:\n        /* \"#utility.yul\":3802:3804   */\n      0x20\n        /* \"#utility.yul\":3797:3800   */\n      dup3\n        /* \"#utility.yul\":3793:3805   */\n      add\n        /* \"#utility.yul\":3786:3805   */\n      swap1\n      pop\n        /* \"#utility.yul\":3446:3811   */\n      swap2\n      swap1\n      pop\n      jump\t// out\n        /* \"#utility.yul\":3817:3935   */\n    tag_143:\n        /* \"#utility.yul\":3904:3928   */\n      tag_145\n        /* \"#utility.yul\":3922:3927   */\n      dup2\n        /* \"#utility.yul\":3904:3928   */\n      tag_146\n      jump\t// in\n    tag_145:\n        /* \"#utility.yul\":3899:3902   */\n      dup3\n        /* \"#utility.yul\":3892:3929   */\n      mstore\n        /* \"#utility.yul\":3817:3935   */\n      pop\n      pop\n      jump\t// out\n        /* \"#utility.yul\":3941:4163   */\n    tag_19:\n        /* \"#utility.yul\":4034:4038   */\n      0x00\n        /* \"#utility.yul\":4072:4074   */\n      0x20\n        /* \"#utility.yul\":4061:4070   */\n      dup3\n        /* \"#utility.yul\":4057:4075   */\n      add\n        /* \"#utility.yul\":4049:4075   */\n      swap1\n      pop\n        /* \"#utility.yul\":4085:4156   */\n      tag_148\n        /* \"#utility.yul\":4153:4154   */\n      0x00\n        /* \"#utility.yul\":4142:4151   */\n      dup4\n        /* \"#utility.yul\":4138:4155   */\n      add\n        /* \"#utility.yul\":4129:4135   */\n      dup5\n        /* \"#utility.yul\":4085:4156   */\n      tag_119\n      jump\t// in\n    tag_148:\n        /* \"#utility.yul\":3941:4163   */\n      swap3\n      swap2\n      pop\n      pop\n      jump\t// out\n        /* \"#utility.yul\":4169:4797   */\n    tag_43:\n        /* \"#utility.yul\":4358:4362   */\n      0x00\n        /* \"#utility.yul\":4396:4399   */\n      0x80\n        /* \"#utility.yul\":4385:4394   */\n      dup3\n        /* \"#utility.yul\":4381:4400   */\n      add\n        /* \"#utility.yul\":4373:4400   */\n      swap1\n      pop\n        /* \"#utility.yul\":4410:4481   */\n      tag_150\n        /* \"#utility.yul\":4478:4479   */\n      0x00\n        /* \"#utility.yul\":4467:4476   */\n      dup4\n        /* \"#utility.yul\":4463:4480   */\n      add\n        /* \"#utility.yul\":4454:4460   */\n      dup8\n        /* \"#utility.yul\":4410:4481   */\n      tag_119\n      jump\t// in\n    tag_150:\n        /* \"#utility.yul\":4491:4563   */\n      tag_151\n        /* \"#utility.yul\":4559:4561   */\n      0x20\n        /* \"#utility.yul\":4548:4557   */\n      dup4\n        /* \"#utility.yul\":4544:4562   */\n      add\n        /* \"#utility.yul\":4535:4541   */\n      dup7\n        /* \"#utility.yul\":4491:4563   */\n      tag_143\n      jump\t// in\n    tag_151:\n        /* \"#utility.yul\":4610:4619   */\n      dup2\n        /* \"#utility.yul\":4604:4608   */\n      dup2\n        /* \"#utility.yul\":4600:4620   */\n      sub\n        /* \"#utility.yul\":4595:4597   */\n      0x40\n        /* \"#utility.yul\":4584:4593   */\n      dup4\n        /* \"#utility.yul\":4580:4598   */\n      add\n        /* \"#utility.yul\":4573:4621   */\n      mstore\n        /* \"#utility.yul\":4638:4714   */\n      tag_152\n        /* \"#utility.yul\":4709:4713   */\n      dup2\n        /* \"#utility.yul\":4700:4706   */\n      dup6\n        /* \"#utility.yul\":4638:4714   */\n      tag_127\n      jump\t// in\n    tag_152:\n        /* \"#utility.yul\":4630:4714   */\n      swap1\n      pop\n        /* \"#utility.yul\":4724:4790   */\n      tag_153\n        /* \"#utility.yul\":4786:4788   */\n      0x60\n        /* \"#utility.yul\":4775:4784   */\n      dup4\n        /* \"#utility.yul\":4771:4789   */\n      add\n        /* \"#utility.yul\":4762:4768   */\n      dup5\n        /* \"#utility.yul\":4724:4790   */\n      tag_123\n      jump\t// in\n    tag_153:\n        /* \"#utility.yul\":4169:4797   */\n      swap6\n      swap5\n      pop\n      pop\n      pop\n      pop\n      pop\n      jump\t// out\n        /* \"#utility.yul\":4803:5013   */\n    tag_31:\n        /* \"#utility.yul\":4890:4894   */\n      0x00\n        /* \"#utility.yul\":4928:4930   */\n      0x20\n        /* \"#utility.yul\":4917:4926   */\n      dup3\n        /* \"#utility.yul\":4913:4931   */\n      add\n        /* \"#utility.yul\":4905:4931   */\n      swap1\n      pop\n        /* \"#utility.yul\":4941:5006   */\n      tag_155\n        /* \"#utility.yul\":5003:5004   */\n      0x00\n        /* \"#utility.yul\":4992:5001   */\n      dup4\n        /* \"#utility.yul\":4988:5005   */\n      add\n        /* \"#utility.yul\":4979:4985   */\n      dup5\n        /* \"#utility.yul\":4941:5006   */\n      tag_123\n      jump\t// in\n    tag_155:\n        /* \"#utility.yul\":4803:5013   */\n      swap3\n      swap2\n      pop\n      pop\n      jump\t// out\n        /* \"#utility.yul\":5019:5438   */\n    tag_53:\n        /* \"#utility.yul\":5185:5189   */\n      0x00\n        /* \"#utility.yul\":5223:5225   */\n      0x20\n        /* \"#utility.yul\":5212:5221   */\n      dup3\n        /* \"#utility.yul\":5208:5226   */\n      add\n        /* \"#utility.yul\":5200:5226   */\n      swap1\n      pop\n        /* \"#utility.yul\":5272:5281   */\n      dup2\n        /* \"#utility.yul\":5266:5270   */\n      dup2\n        /* \"#utility.yul\":5262:5282   */\n      sub\n        /* \"#utility.yul\":5258:5259   */\n      0x00\n        /* \"#utility.yul\":5247:5256   */\n      dup4\n        /* \"#utility.yul\":5243:5260   */\n      add\n        /* \"#utility.yul\":5236:5283   */\n      mstore\n        /* \"#utility.yul\":5300:5431   */\n      tag_157\n        /* \"#utility.yul\":5426:5430   */\n      dup2\n        /* \"#utility.yul\":5300:5431   */\n      tag_137\n      jump\t// in\n    tag_157:\n        /* \"#utility.yul\":5292:5431   */\n      swap1\n      pop\n        /* \"#utility.yul\":5019:5438   */\n      swap2\n      swap1\n      pop\n      jump\t// out\n        /* \"#utility.yul\":5444:5666   */\n    tag_12:\n        /* \"#utility.yul\":5537:5541   */\n      0x00\n        /* \"#utility.yul\":5575:5577   */\n      0x20\n        /* \"#utility.yul\":5564:5573   */\n      dup3\n        /* \"#utility.yul\":5560:5578   */\n      add\n        /* \"#utility.yul\":5552:5578   */\n      swap1\n      pop\n        /* \"#utility.yul\":5588:5659   */\n      tag_159\n        /* \"#utility.yul\":5656:5657   */\n      0x00\n        /* \"#utility.yul\":5645:5654   */\n      dup4\n        /* \"#utility.yul\":5641:5658   */\n      add\n        /* \"#utility.yul\":5632:5638   */\n      dup5\n        /* \"#utility.yul\":5588:5659   */\n      tag_143\n      jump\t// in\n    tag_159:\n        /* \"#utility.yul\":5444:5666   */\n      swap3\n      swap2\n      pop\n      pop\n      jump\t// out\n        /* \"#utility.yul\":5753:5851   */\n    tag_130:\n        /* \"#utility.yul\":5804:5810   */\n      0x00\n        /* \"#utility.yul\":5838:5843   */\n      dup2\n        /* \"#utility.yul\":5832:5844   */\n      mload\n        /* \"#utility.yul\":5822:5844   */\n      swap1\n      pop\n        /* \"#utility.yul\":5753:5851   */\n      swap2\n      swap1\n      pop\n      jump\t// out\n        /* \"#utility.yul\":5857:6025   */\n    tag_132:\n        /* \"#utility.yul\":5940:5951   */\n      0x00\n        /* \"#utility.yul\":5974:5980   */\n      dup3\n        /* \"#utility.yul\":5969:5972   */\n      dup3\n        /* \"#utility.yul\":5962:5981   */\n      mstore\n        /* \"#utility.yul\":6014:6018   */\n      0x20\n        /* \"#utility.yul\":6009:6012   */\n      dup3\n        /* \"#utility.yul\":6005:6019   */\n      add\n        /* \"#utility.yul\":5990:6019   */\n      swap1\n      pop\n        /* \"#utility.yul\":5857:6025   */\n      swap3\n      swap2\n      pop\n      pop\n      jump\t// out\n        /* \"#utility.yul\":6031:6200   */\n    tag_140:\n        /* \"#utility.yul\":6115:6126   */\n      0x00\n        /* \"#utility.yul\":6149:6155   */\n      dup3\n        /* \"#utility.yul\":6144:6147   */\n      dup3\n        /* \"#utility.yul\":6137:6156   */\n      mstore\n        /* \"#utility.yul\":6189:6193   */\n      0x20\n        /* \"#utility.yul\":6184:6187   */\n      dup3\n        /* \"#utility.yul\":6180:6194   */\n      add\n        /* \"#utility.yul\":6165:6194   */\n      swap1\n      pop\n        /* \"#utility.yul\":6031:6200   */\n      swap3\n      swap2\n      pop\n      pop\n      jump\t// out\n        /* \"#utility.yul\":6206:6302   */\n    tag_122:\n        /* \"#utility.yul\":6243:6250   */\n      0x00\n        /* \"#utility.yul\":6272:6296   */\n      tag_166\n        /* \"#utility.yul\":6290:6295   */\n      dup3\n        /* \"#utility.yul\":6272:6296   */\n      tag_167\n      jump\t// in\n    tag_166:\n        /* \"#utility.yul\":6261:6296   */\n      swap1\n      pop\n        /* \"#utility.yul\":6206:6302   */\n      swap2\n      swap1\n      pop\n      jump\t// out\n        /* \"#utility.yul\":6308:6398   */\n    tag_126:\n        /* \"#utility.yul\":6342:6349   */\n      0x00\n        /* \"#utility.yul\":6385:6390   */\n      dup2\n        /* \"#utility.yul\":6378:6391   */\n      iszero\n        /* \"#utility.yul\":6371:6392   */\n      iszero\n        /* \"#utility.yul\":6360:6392   */\n      swap1\n      pop\n        /* \"#utility.yul\":6308:6398   */\n      swap2\n      swap1\n      pop\n      jump\t// out\n        /* \"#utility.yul\":6404:6530   */\n    tag_167:\n        /* \"#utility.yul\":6441:6448   */\n      0x00\n        /* \"#utility.yul\":6481:6523   */\n      0xffffffffffffffffffffffffffffffffffffffff\n        /* \"#utility.yul\":6474:6479   */\n      dup3\n        /* \"#utility.yul\":6470:6524   */\n      and\n        /* \"#utility.yul\":6459:6524   */\n      swap1\n      pop\n        /* \"#utility.yul\":6404:6530   */\n      swap2\n      swap1\n      pop\n      jump\t// out\n        /* \"#utility.yul\":6536:6613   */\n    tag_146:\n        /* \"#utility.yul\":6573:6580   */\n      0x00\n        /* \"#utility.yul\":6602:6607   */\n      dup2\n        /* \"#utility.yul\":6591:6607   */\n      swap1\n      pop\n        /* \"#utility.yul\":6536:6613   */\n      swap2\n      swap1\n      pop\n      jump\t// out\n        /* \"#utility.yul\":6619:6926   */\n    tag_134:\n        /* \"#utility.yul\":6687:6688   */\n      0x00\n        /* \"#utility.yul\":6697:6810   */\n    tag_172:\n        /* \"#utility.yul\":6711:6717   */\n      dup4\n        /* \"#utility.yul\":6708:6709   */\n      dup2\n        /* \"#utility.yul\":6705:6718   */\n      lt\n        /* \"#utility.yul\":6697:6810   */\n      iszero\n      tag_174\n      jumpi\n        /* \"#utility.yul\":6796:6797   */\n      dup1\n        /* \"#utility.yul\":6791:6794   */\n      dup3\n        /* \"#utility.yul\":6787:6798   */\n      add\n        /* \"#utility.yul\":6781:6799   */\n      mload\n        /* \"#utility.yul\":6777:6778   */\n      dup2\n        /* \"#utility.yul\":6772:6775   */\n      dup5\n        /* \"#utility.yul\":6768:6779   */\n      add\n        /* \"#utility.yul\":6761:6800   */\n      mstore\n        /* \"#utility.yul\":6733:6735   */\n      0x20\n        /* \"#utility.yul\":6730:6731   */\n      dup2\n        /* \"#utility.yul\":6726:6736   */\n      add\n        /* \"#utility.yul\":6721:6736   */\n      swap1\n      pop\n        /* \"#utility.yul\":6697:6810   */\n      jump(tag_172)\n    tag_174:\n        /* \"#utility.yul\":6828:6834   */\n      dup4\n        /* \"#utility.yul\":6825:6826   */\n      dup2\n        /* \"#utility.yul\":6822:6835   */\n      gt\n        /* \"#utility.yul\":6819:6920   */\n      iszero\n      tag_175\n      jumpi\n        /* \"#utility.yul\":6908:6909   */\n      0x00\n        /* \"#utility.yul\":6899:6905   */\n      dup5\n        /* \"#utility.yul\":6894:6897   */\n      dup5\n        /* \"#utility.yul\":6890:6906   */\n      add\n        /* \"#utility.yul\":6883:6910   */\n      mstore\n        /* \"#utility.yul\":6819:6920   */\n    tag_175:\n        /* \"#utility.yul\":6668:6926   */\n      pop\n        /* \"#utility.yul\":6619:6926   */\n      pop\n      pop\n      pop\n      jump\t// out\n        /* \"#utility.yul\":6932:7252   */\n    tag_61:\n        /* \"#utility.yul\":6976:6982   */\n      0x00\n        /* \"#utility.yul\":7013:7014   */\n      0x02\n        /* \"#utility.yul\":7007:7011   */\n      dup3\n        /* \"#utility.yul\":7003:7015   */\n      div\n        /* \"#utility.yul\":6993:7015   */\n      swap1\n      pop\n        /* \"#utility.yul\":7060:7061   */\n      0x01\n        /* \"#utility.yul\":7054:7058   */\n      dup3\n        /* \"#utility.yul\":7050:7062   */\n      and\n        /* \"#utility.yul\":7081:7099   */\n      dup1\n        /* \"#utility.yul\":7071:7152   */\n      tag_177\n      jumpi\n        /* \"#utility.yul\":7137:7141   */\n      0x7f\n        /* \"#utility.yul\":7129:7135   */\n      dup3\n        /* \"#utility.yul\":7125:7142   */\n      and\n        /* \"#utility.yul\":7115:7142   */\n      swap2\n      pop\n        /* \"#utility.yul\":7071:7152   */\n    tag_177:\n        /* \"#utility.yul\":7199:7201   */\n      0x20\n        /* \"#utility.yul\":7191:7197   */\n      dup3\n        /* \"#utility.yul\":7188:7202   */\n      lt\n        /* \"#utility.yul\":7168:7186   */\n      dup2\n        /* \"#utility.yul\":7165:7203   */\n      eq\n        /* \"#utility.yul\":7162:7246   */\n      iszero\n      tag_178\n      jumpi\n        /* \"#utility.yul\":7218:7236   */\n      tag_179\n      tag_180\n      jump\t// in\n    tag_179:\n        /* \"#utility.yul\":7162:7246   */\n    tag_178:\n        /* \"#utility.yul\":6983:7252   */\n      pop\n        /* \"#utility.yul\":6932:7252   */\n      swap2\n      swap1\n      pop\n      jump\t// out\n        /* \"#utility.yul\":7258:7438   */\n    tag_180:\n        /* \"#utility.yul\":7306:7383   */\n      0x4e487b7100000000000000000000000000000000000000000000000000000000\n        /* \"#utility.yul\":7303:7304   */\n      0x00\n        /* \"#utility.yul\":7296:7384   */\n      mstore\n        /* \"#utility.yul\":7403:7407   */\n      0x22\n        /* \"#utility.yul\":7400:7401   */\n      0x04\n        /* \"#utility.yul\":7393:7408   */\n      mstore\n        /* \"#utility.yul\":7427:7431   */\n      0x24\n        /* \"#utility.yul\":7424:7425   */\n      0x00\n        /* \"#utility.yul\":7417:7432   */\n      revert\n        /* \"#utility.yul\":7444:7561   */\n    tag_88:\n        /* \"#utility.yul\":7553:7554   */\n      0x00\n        /* \"#utility.yul\":7550:7551   */\n      dup1\n        /* \"#utility.yul\":7543:7555   */\n      revert\n        /* \"#utility.yul\":7567:7684   */\n    tag_85:\n        /* \"#utility.yul\":7676:7677   */\n      0x00\n        /* \"#utility.yul\":7673:7674   */\n      dup1\n        /* \"#utility.yul\":7666:7678   */\n      revert\n        /* \"#utility.yul\":7690:7807   */\n    tag_91:\n        /* \"#utility.yul\":7799:7800   */\n      0x00\n        /* \"#utility.yul\":7796:7797   */\n      dup1\n        /* \"#utility.yul\":7789:7801   */\n      revert\n        /* \"#utility.yul\":7813:7930   */\n    tag_108:\n        /* \"#utility.yul\":7922:7923   */\n      0x00\n        /* \"#utility.yul\":7919:7920   */\n      dup1\n        /* \"#utility.yul\":7912:7924   */\n      revert\n        /* \"#utility.yul\":7936:8053   */\n    tag_99:\n        /* \"#utility.yul\":8045:8046   */\n      0x00\n        /* \"#utility.yul\":8042:8043   */\n      dup1\n        /* \"#utility.yul\":8035:8047   */\n      revert\n        /* \"#utility.yul\":8059:8161   */\n    tag_136:\n        /* \"#utility.yul\":8100:8106   */\n      0x00\n        /* \"#utility.yul\":8151:8153   */\n      0x1f\n        /* \"#utility.yul\":8147:8154   */\n      not\n        /* \"#utility.yul\":8142:8144   */\n      0x1f\n        /* \"#utility.yul\":8135:8140   */\n      dup4\n        /* \"#utility.yul\":8131:8145   */\n      add\n        /* \"#utility.yul\":8127:8155   */\n      and\n        /* \"#utility.yul\":8117:8155   */\n      swap1\n      pop\n        /* \"#utility.yul\":8059:8161   */\n      swap2\n      swap1\n      pop\n      jump\t// out\n        /* \"#utility.yul\":8167:8326   */\n    tag_142:\n        /* \"#utility.yul\":8307:8318   */\n      0x6e6f74206f776e65720000000000000000000000000000000000000000000000\n        /* \"#utility.yul\":8303:8304   */\n      0x00\n        /* \"#utility.yul\":8295:8301   */\n      dup3\n        /* \"#utility.yul\":8291:8305   */\n      add\n        /* \"#utility.yul\":8284:8319   */\n      mstore\n        /* \"#utility.yul\":8167:8326   */\n      pop\n      jump\t// out\n        /* \"#utility.yul\":8332:8454   */\n    tag_80:\n        /* \"#utility.yul\":8405:8429   */\n      tag_190\n        /* \"#utility.yul\":8423:8428   */\n      dup2\n        /* \"#utility.yul\":8405:8429   */\n      tag_122\n      jump\t// in\n    tag_190:\n        /* \"#utility.yul\":8398:8403   */\n      dup2\n        /* \"#utility.yul\":8395:8430   */\n      eq\n        /* \"#utility.yul\":8385:8448   */\n      tag_191\n      jumpi\n        /* \"#utility.yul\":8444:8445   */\n      0x00\n        /* \"#utility.yul\":8441:8442   */\n      dup1\n        /* \"#utility.yul\":8434:8446   */\n      revert\n        /* \"#utility.yul\":8385:8448   */\n    tag_191:\n        /* \"#utility.yul\":8332:8454   */\n      pop\n      jump\t// out\n        /* \"#utility.yul\":8460:8582   */\n    tag_95:\n        /* \"#utility.yul\":8533:8557   */\n      tag_193\n        /* \"#utility.yul\":8551:8556   */\n      dup2\n        /* \"#utility.yul\":8533:8557   */\n      tag_146\n      jump\t// in\n    tag_193:\n        /* \"#utility.yul\":8526:8531   */\n      dup2\n        /* \"#utility.yul\":8523:8558   */\n      eq\n        /* \"#utility.yul\":8513:8576   */\n      tag_194\n      jumpi\n        /* \"#utility.yul\":8572:8573   */\n      0x00\n        /* \"#utility.yul\":8569:8570   */\n      dup1\n        /* \"#utility.yul\":8562:8574   */\n      revert\n        /* \"#utility.yul\":8513:8576   */\n    tag_194:\n        /* \"#utility.yul\":8460:8582   */\n      pop\n      jump\t// out\n\n    auxdata: 0xa2646970667358221220354414e84b8580efc3e5b6b354dce8ec5ad949bd8851b4b5b1dff27ff9798b7164736f6c63430008070033\n}\n",
				"bytecode": {
					"linkReferences": {},
					"object": "60806040523480156200001157600080fd5b50604051620012bf380380620012bf8339818101604052810190620000379190620003c1565b60008251116200007e576040517f08c379a0000000000000000000000000000000000000000000000000000000008152600401620000759062000507565b60405180910390fd5b60008111801562000090575081518111155b620000d2576040517f08c379a0000000000000000000000000000000000000000000000000000000008152600401620000c99062000529565b60405180910390fd5b60005b8251811015620002d5576000838281518110620000f757620000f6620006a5565b5b60200260200101519050600073ffffffffffffffffffffffffffffffffffffffff168173ffffffffffffffffffffffffffffffffffffffff16141562000174576040517f08c379a00000000000000000000000000000000000000000000000000000000081526004016200016b90620004e5565b60405180910390fd5b600160008273ffffffffffffffffffffffffffffffffffffffff1673ffffffffffffffffffffffffffffffffffffffff16815260200190815260200160002060009054906101000a900460ff161562000204576040517f08c379a0000000000000000000000000000000000000000000000000000000008152600401620001fb90620004c3565b60405180910390fd5b60018060008373ffffffffffffffffffffffffffffffffffffffff1673ffffffffffffffffffffffffffffffffffffffff16815260200190815260200160002060006101000a81548160ff0219169083151502179055506003819080600181540180825580915050600190039060005260206000200160009091909190916101000a81548173ffffffffffffffffffffffffffffffffffffffff021916908373ffffffffffffffffffffffffffffffffffffffff160217905550508080620002cc9062000628565b915050620000d5565b5080600281905550505062000826565b6000620002fc620002f68462000574565b6200054b565b9050808382526020820190508285602086028201111562000322576200032162000708565b5b60005b858110156200035657816200033b888262000360565b84526020840193506020830192505060018101905062000325565b5050509392505050565b6000815190506200037181620007f2565b92915050565b600082601f8301126200038f576200038e62000703565b5b8151620003a1848260208601620002e5565b91505092915050565b600081519050620003bb816200080c565b92915050565b60008060408385031215620003db57620003da62000712565b5b600083015167ffffffffffffffff811115620003fc57620003fb6200070d565b5b6200040a8582860162000377565b92505060206200041d85828601620003aa565b9150509250929050565b600062000436601383620005a3565b9150620004438262000728565b602082019050919050565b60006200045d600f83620005a3565b91506200046a8262000751565b602082019050919050565b600062000484601083620005a3565b915062000491826200077a565b602082019050919050565b6000620004ab602183620005a3565b9150620004b882620007a3565b604082019050919050565b60006020820190508181036000830152620004de8162000427565b9050919050565b6000602082019050818103600083015262000500816200044e565b9050919050565b60006020820190508181036000830152620005228162000475565b9050919050565b6000602082019050818103600083015262000544816200049c565b9050919050565b6000620005576200056a565b9050620005658282620005f2565b919050565b6000604051905090565b600067ffffffffffffffff821115620005925762000591620006d4565b5b602082029050602081019050919050565b600082825260208201905092915050565b6000620005c182620005c8565b9050919050565b600073ffffffffffffffffffffffffffffffffffffffff82169050919050565b6000819050919050565b620005fd8262000717565b810181811067ffffffffffffffff821117156200061f576200061e620006d4565b5b80604052505050565b60006200063582620005e8565b91507fffffffffffffffffffffffffffffffffffffffffffffffffffffffffffffffff8214156200066b576200066a62000676565b5b600182019050919050565b7f4e487b7100000000000000000000000000000000000000000000000000000000600052601160045260246000fd5b7f4e487b7100000000000000000000000000000000000000000000000000000000600052603260045260246000fd5b7f4e487b7100000000000000000000000000000000000000000000000000000000600052604160045260246000fd5b600080fd5b600080fd5b600080fd5b600080fd5b6000601f19601f8301169050919050565b7f6f776e6572206973206e6f7420756e6971756500000000000000000000000000600082015250565b7f696e76616c696420616464726573730000000000000000000000000000000000600082015250565b7f6f776e6572732072657175697265642100000000000000000000000000000000600082015250565b7f696e76616c6964207265717569726564206e756d626572206f66206f776e657260008201527f7300000000000000000000000000000000000000000000000000000000000000602082015250565b620007fd81620005b4565b81146200080957600080fd5b50565b6200081781620005e8565b81146200082357600080fd5b50565b610a8980620008366000396000f3fe6080604052600436106100595760003560e01c8063025e7c27146100b357806314de327f146100f05780632f54bf6e146101195780638253951a146101565780639ace38c214610193578063dc8452cd146101d3576100ae565b366100ae573373ffffffffffffffffffffffffffffffffffffffff167fe1fffcc4923d04b559f4d29a8bfc6cda04eb5b0d3c460751c2402c5c5cc9109c346040516100a491906108ae565b60405180910390a2005b600080fd5b3480156100bf57600080fd5b506100da60048036038101906100d59190610716565b6101fe565b6040516100e7919061080c565b60405180910390f35b3480156100fc57600080fd5b50610117600480360381019061011291906106a2565b61023d565b005b34801561012557600080fd5b50610140600480360381019061013b9190610675565b610408565b60405161014d9190610873565b60405180910390f35b34801561016257600080fd5b5061017d60048036038101906101789190610743565b610428565b60405161018a9190610873565b60405180910390f35b34801561019f57600080fd5b506101ba60048036038101906101b59190610716565b610457565b6040516101ca9493929190610827565b60405180910390f35b3480156101df57600080fd5b506101e861054c565b6040516101f591906108ae565b60405180910390f35b6003818154811061020e57600080fd5b906000526020600020016000915054906101000a900473ffffffffffffffffffffffffffffffffffffffff1681565b600160003373ffffffffffffffffffffffffffffffffffffffff1673ffffffffffffffffffffffffffffffffffffffff16815260200190815260200160002060009054906101000a900460ff166102c9576040517f08c379a00000000000000000000000000000000000000000000000000000000081526004016102c09061088e565b60405180910390fd5b600060405180608001604052808673ffffffffffffffffffffffffffffffffffffffff16815260200185815260200184848080601f016020809104026020016040519081016040528093929190818152602001838380828437600081840152601f19601f82011690508083019250505050505050815260200160001515815250908060018154018082558091505060019003906000526020600020906004020160009091909190915060008201518160000160006101000a81548173ffffffffffffffffffffffffffffffffffffffff021916908373ffffffffffffffffffffffffffffffffffffffff1602179055506020820151816001015560408201518160020190805190602001906103df929190610552565b5060608201518160030160006101000a81548160ff021916908315150217905550505050505050565b60016020528060005260406000206000915054906101000a900460ff1681565b60046020528160005260406000206020528060005260406000206000915091509054906101000a900460ff1681565b6000818154811061046757600080fd5b90600052602060002090600402016000915090508060000160009054906101000a900473ffffffffffffffffffffffffffffffffffffffff16908060010154908060020180546104b690610971565b80601f01602080910402602001604051908101604052809291908181526020018280546104e290610971565b801561052f5780601f106105045761010080835404028352916020019161052f565b820191906000526020600020905b81548152906001019060200180831161051257829003601f168201915b5050505050908060030160009054906101000a900460ff16905084565b60025481565b82805461055e90610971565b90600052602060002090601f01602090048101928261058057600085556105c7565b82601f1061059957805160ff19168380011785556105c7565b828001600101855582156105c7579182015b828111156105c65782518255916020019190600101906105ab565b5b5090506105d491906105d8565b5090565b5b808211156105f15760008160009055506001016105d9565b5090565b60008135905061060481610a25565b92915050565b60008083601f8401126106205761061f6109d7565b5b8235905067ffffffffffffffff81111561063d5761063c6109d2565b5b602083019150836001820283011115610659576106586109dc565b5b9250929050565b60008135905061066f81610a3c565b92915050565b60006020828403121561068b5761068a6109e6565b5b6000610699848285016105f5565b91505092915050565b600080600080606085870312156106bc576106bb6109e6565b5b60006106ca878288016105f5565b94505060206106db87828801610660565b935050604085013567ffffffffffffffff8111156106fc576106fb6109e1565b5b6107088782880161060a565b925092505092959194509250565b60006020828403121561072c5761072b6109e6565b5b600061073a84828501610660565b91505092915050565b6000806040838503121561075a576107596109e6565b5b600061076885828601610660565b9250506020610779858286016105f5565b9150509250929050565b61078c816108f6565b82525050565b61079b81610908565b82525050565b60006107ac826108c9565b6107b681856108d4565b93506107c681856020860161093e565b6107cf816109eb565b840191505092915050565b60006107e76009836108e5565b91506107f2826109fc565b602082019050919050565b61080681610934565b82525050565b60006020820190506108216000830184610783565b92915050565b600060808201905061083c6000830187610783565b61084960208301866107fd565b818103604083015261085b81856107a1565b905061086a6060830184610792565b95945050505050565b60006020820190506108886000830184610792565b92915050565b600060208201905081810360008301526108a7816107da565b9050919050565b60006020820190506108c360008301846107fd565b92915050565b600081519050919050565b600082825260208201905092915050565b600082825260208201905092915050565b600061090182610914565b9050919050565b60008115159050919050565b600073ffffffffffffffffffffffffffffffffffffffff82169050919050565b6000819050919050565b60005b8381101561095c578082015181840152602081019050610941565b8381111561096b576000848401525b50505050565b6000600282049050600182168061098957607f821691505b6020821081141561099d5761099c6109a3565b5b50919050565b7f4e487b7100000000000000000000000000000000000000000000000000000000600052602260045260246000fd5b600080fd5b600080fd5b600080fd5b600080fd5b600080fd5b6000601f19601f8301169050919050565b7f6e6f74206f776e65720000000000000000000000000000000000000000000000600082015250565b610a2e816108f6565b8114610a3957600080fd5b50565b610a4581610934565b8114610a5057600080fd5b5056fea2646970667358221220354414e84b8580efc3e5b6b354dce8ec5ad949bd8851b4b5b1dff27ff9798b7164736f6c63430008070033",
					"opcodes": "PUSH1 0x80 PUSH1 0x40 MSTORE CALLVALUE DUP1 ISZERO PUSH3 0x11 JUMPI PUSH1 0x0 DUP1 REVERT JUMPDEST POP PUSH1 0x40 MLOAD PUSH3 0x12BF CODESIZE SUB DUP1 PUSH3 0x12BF DUP4 CODECOPY DUP2 DUP2 ADD PUSH1 0x40 MSTORE DUP2 ADD SWAP1 PUSH3 0x37 SWAP2 SWAP1 PUSH3 0x3C1 JUMP JUMPDEST PUSH1 0x0 DUP3 MLOAD GT PUSH3 0x7E JUMPI PUSH1 0x40 MLOAD PUSH32 0x8C379A000000000000000000000000000000000000000000000000000000000 DUP2 MSTORE PUSH1 0x4 ADD PUSH3 0x75 SWAP1 PUSH3 0x507 JUMP JUMPDEST PUSH1 0x40 MLOAD DUP1 SWAP2 SUB SWAP1 REVERT JUMPDEST PUSH1 0x0 DUP2 GT DUP1 ISZERO PUSH3 0x90 JUMPI POP DUP2 MLOAD DUP2 GT ISZERO JUMPDEST PUSH3 0xD2 JUMPI PUSH1 0x40 MLOAD PUSH32 0x8C379A000000000000000000000000000000000000000000000000000000000 DUP2 MSTORE PUSH1 0x4 ADD PUSH3 0xC9 SWAP1 PUSH3 0x529 JUMP JUMPDEST PUSH1 0x40 MLOAD DUP1 SWAP2 SUB SWAP1 REVERT JUMPDEST PUSH1 0x0 JUMPDEST DUP3 MLOAD DUP2 LT ISZERO PUSH3 0x2D5 JUMPI PUSH1 0x0 DUP4 DUP3 DUP2 MLOAD DUP2 LT PUSH3 0xF7 JUMPI PUSH3 0xF6 PUSH3 0x6A5 JUMP JUMPDEST JUMPDEST PUSH1 0x20 MUL PUSH1 0x20 ADD ADD MLOAD SWAP1 POP PUSH1 0x0 PUSH20 0xFFFFFFFFFFFFFFFFFFFFFFFFFFFFFFFFFFFFFFFF AND DUP2 PUSH20 0xFFFFFFFFFFFFFFFFFFFFFFFFFFFFFFFFFFFFFFFF AND EQ ISZERO PUSH3 0x174 JUMPI PUSH1 0x40 MLOAD PUSH32 0x8C379A000000000000000000000000000000000000000000000000000000000 DUP2 MSTORE PUSH1 0x4 ADD PUSH3 0x16B SWAP1 PUSH3 0x4E5 JUMP JUMPDEST PUSH1 0x40 MLOAD DUP1 SWAP2 SUB SWAP1 REVERT JUMPDEST PUSH1 0x1 PUSH1 0x0 DUP3 PUSH20 0xFFFFFFFFFFFFFFFFFFFFFFFFFFFFFFFFFFFFFFFF AND PUSH20 0xFFFFFFFFFFFFFFFFFFFFFFFFFFFFFFFFFFFFFFFF AND DUP2 MSTORE PUSH1 0x20 ADD SWAP1 DUP2 MSTORE PUSH1 0x20 ADD PUSH1 0x0 KECCAK256 PUSH1 0x0 SWAP1 SLOAD SWAP1 PUSH2 0x100 EXP SWAP1 DIV PUSH1 0xFF AND ISZERO PUSH3 0x204 JUMPI PUSH1 0x40 MLOAD PUSH32 0x8C379A000000000000000000000000000000000000000000000000000000000 DUP2 MSTORE PUSH1 0x4 ADD PUSH3 0x1FB SWAP1 PUSH3 0x4C3 JUMP JUMPDEST PUSH1 0x40 MLOAD DUP1 SWAP2 SUB SWAP1 REVERT JUMPDEST PUSH1 0x1 DUP1 PUSH1 0x0 DUP4 PUSH20 0xFFFFFFFFFFFFFFFFFFFFFFFFFFFFFFFFFFFFFFFF AND PUSH20 0xFFFFFFFFFFFFFFFFFFFFFFFFFFFFFFFFFFFFFFFF AND DUP2 MSTORE PUSH1 0x20 ADD SWAP1 DUP2 MSTORE PUSH1 0x20 ADD PUSH1 0x0 KECCAK256 PUSH1 0x0 PUSH2 0x100 EXP DUP2 SLOAD DUP2 PUSH1 0xFF MUL NOT AND SWAP1 DUP4 ISZERO ISZERO MUL OR SWAP1 SSTORE POP PUSH1 0x3 DUP2 SWAP1 DUP1 PUSH1 0x1 DUP2 SLOAD ADD DUP1 DUP3 SSTORE DUP1 SWAP2 POP POP PUSH1 0x1 SWAP1 SUB SWAP1 PUSH1 0x0 MSTORE PUSH1 0x20 PUSH1 0x0 KECCAK256 ADD PUSH1 0x0 SWAP1 SWAP2 SWAP1 SWAP2 SWAP1 SWAP2 PUSH2 0x100 EXP DUP2 SLOAD DUP2 PUSH20 0xFFFFFFFFFFFFFFFFFFFFFFFFFFFFFFFFFFFFFFFF MUL NOT AND SWAP1 DUP4 PUSH20 0xFFFFFFFFFFFFFFFFFFFFFFFFFFFFFFFFFFFFFFFF AND MUL OR SWAP1 SSTORE POP POP DUP1 DUP1 PUSH3 0x2CC SWAP1 PUSH3 0x628 JUMP JUMPDEST SWAP2 POP POP PUSH3 0xD5 JUMP JUMPDEST POP DUP1 PUSH1 0x2 DUP2 SWAP1 SSTORE POP POP POP PUSH3 0x826 JUMP JUMPDEST PUSH1 0x0 PUSH3 0x2FC PUSH3 0x2F6 DUP5 PUSH3 0x574 JUMP JUMPDEST PUSH3 0x54B JUMP JUMPDEST SWAP1 POP DUP1 DUP4 DUP3 MSTORE PUSH1 0x20 DUP3 ADD SWAP1 POP DUP3 DUP6 PUSH1 0x20 DUP7 MUL DUP3 ADD GT ISZERO PUSH3 0x322 JUMPI PUSH3 0x321 PUSH3 0x708 JUMP JUMPDEST JUMPDEST PUSH1 0x0 JUMPDEST DUP6 DUP2 LT ISZERO PUSH3 0x356 JUMPI DUP2 PUSH3 0x33B DUP9 DUP3 PUSH3 0x360 JUMP JUMPDEST DUP5 MSTORE PUSH1 0x20 DUP5 ADD SWAP4 POP PUSH1 0x20 DUP4 ADD SWAP3 POP POP PUSH1 0x1 DUP2 ADD SWAP1 POP PUSH3 0x325 JUMP JUMPDEST POP POP POP SWAP4 SWAP3 POP POP POP JUMP JUMPDEST PUSH1 0x0 DUP2 MLOAD SWAP1 POP PUSH3 0x371 DUP2 PUSH3 0x7F2 JUMP JUMPDEST SWAP3 SWAP2 POP POP JUMP JUMPDEST PUSH1 0x0 DUP3 PUSH1 0x1F DUP4 ADD SLT PUSH3 0x38F JUMPI PUSH3 0x38E PUSH3 0x703 JUMP JUMPDEST JUMPDEST DUP2 MLOAD PUSH3 0x3A1 DUP5 DUP3 PUSH1 0x20 DUP7 ADD PUSH3 0x2E5 JUMP JUMPDEST SWAP2 POP POP SWAP3 SWAP2 POP POP JUMP JUMPDEST PUSH1 0x0 DUP2 MLOAD SWAP1 POP PUSH3 0x3BB DUP2 PUSH3 0x80C JUMP JUMPDEST SWAP3 SWAP2 POP POP JUMP JUMPDEST PUSH1 0x0 DUP1 PUSH1 0x40 DUP4 DUP6 SUB SLT ISZERO PUSH3 0x3DB JUMPI PUSH3 0x3DA PUSH3 0x712 JUMP JUMPDEST JUMPDEST PUSH1 0x0 DUP4 ADD MLOAD PUSH8 0xFFFFFFFFFFFFFFFF DUP2 GT ISZERO PUSH3 0x3FC JUMPI PUSH3 0x3FB PUSH3 0x70D JUMP JUMPDEST JUMPDEST PUSH3 0x40A DUP6 DUP3 DUP7 ADD PUSH3 0x377 JUMP JUMPDEST SWAP3 POP POP PUSH1 0x20 PUSH3 0x41D DUP6 DUP3 DUP7 ADD PUSH3 0x3AA JUMP JUMPDEST SWAP2 POP POP SWAP3 POP SWAP3 SWAP1 POP JUMP JUMPDEST PUSH1 0x0 PUSH3 0x436 PUSH1 0x13 DUP4 PUSH3 0x5A3 JUMP JUMPDEST SWAP2 POP PUSH3 0x443 DUP3 PUSH3 0x728 JUMP JUMPDEST PUSH1 0x20 DUP3 ADD SWAP1 POP SWAP2 SWAP1 POP JUMP JUMPDEST PUSH1 0x0 PUSH3 0x45D PUSH1 0xF DUP4 PUSH3 0x5A3 JUMP JUMPDEST SWAP2 POP PUSH3 0x46A DUP3 PUSH3 0x751 JUMP JUMPDEST PUSH1 0x20 DUP3 ADD SWAP1 POP SWAP2 SWAP1 POP JUMP JUMPDEST PUSH1 0x0 PUSH3 0x484 PUSH1 0x10 DUP4 PUSH3 0x5A3 JUMP JUMPDEST SWAP2 POP PUSH3 0x491 DUP3 PUSH3 0x77A JUMP JUMPDEST PUSH1 0x20 DUP3 ADD SWAP1 POP SWAP2 SWAP1 POP JUMP JUMPDEST PUSH1 0x0 PUSH3 0x4AB PUSH1 0x21 DUP4 PUSH3 0x5A3 JUMP JUMPDEST SWAP2 POP PUSH3 0x4B8 DUP3 PUSH3 0x7A3 JUMP JUMPDEST PUSH1 0x40 DUP3 ADD SWAP1 POP SWAP2 SWAP1 POP JUMP JUMPDEST PUSH1 0x0 PUSH1 0x20 DUP3 ADD SWAP1 POP DUP2 DUP2 SUB PUSH1 0x0 DUP4 ADD MSTORE PUSH3 0x4DE DUP2 PUSH3 0x427 JUMP JUMPDEST SWAP1 POP SWAP2 SWAP1 POP JUMP JUMPDEST PUSH1 0x0 PUSH1 0x20 DUP3 ADD SWAP1 POP DUP2 DUP2 SUB PUSH1 0x0 DUP4 ADD MSTORE PUSH3 0x500 DUP2 PUSH3 0x44E JUMP JUMPDEST SWAP1 POP SWAP2 SWAP1 POP JUMP JUMPDEST PUSH1 0x0 PUSH1 0x20 DUP3 ADD SWAP1 POP DUP2 DUP2 SUB PUSH1 0x0 DUP4 ADD MSTORE PUSH3 0x522 DUP2 PUSH3 0x475 JUMP JUMPDEST SWAP1 POP SWAP2 SWAP1 POP JUMP JUMPDEST PUSH1 0x0 PUSH1 0x20 DUP3 ADD SWAP1 POP DUP2 DUP2 SUB PUSH1 0x0 DUP4 ADD MSTORE PUSH3 0x544 DUP2 PUSH3 0x49C JUMP JUMPDEST SWAP1 POP SWAP2 SWAP1 POP JUMP JUMPDEST PUSH1 0x0 PUSH3 0x557 PUSH3 0x56A JUMP JUMPDEST SWAP1 POP PUSH3 0x565 DUP3 DUP3 PUSH3 0x5F2 JUMP JUMPDEST SWAP2 SWAP1 POP JUMP JUMPDEST PUSH1 0x0 PUSH1 0x40 MLOAD SWAP1 POP SWAP1 JUMP JUMPDEST PUSH1 0x0 PUSH8 0xFFFFFFFFFFFFFFFF DUP3 GT ISZERO PUSH3 0x592 JUMPI PUSH3 0x591 PUSH3 0x6D4 JUMP JUMPDEST JUMPDEST PUSH1 0x20 DUP3 MUL SWAP1 POP PUSH1 0x20 DUP2 ADD SWAP1 POP SWAP2 SWAP1 POP JUMP JUMPDEST PUSH1 0x0 DUP3 DUP3 MSTORE PUSH1 0x20 DUP3 ADD SWAP1 POP SWAP3 SWAP2 POP POP JUMP JUMPDEST PUSH1 0x0 PUSH3 0x5C1 DUP3 PUSH3 0x5C8 JUMP JUMPDEST SWAP1 POP SWAP2 SWAP1 POP JUMP JUMPDEST PUSH1 0x0 PUSH20 0xFFFFFFFFFFFFFFFFFFFFFFFFFFFFFFFFFFFFFFFF DUP3 AND SWAP1 POP SWAP2 SWAP1 POP JUMP JUMPDEST PUSH1 0x0 DUP2 SWAP1 POP SWAP2 SWAP1 POP JUMP JUMPDEST PUSH3 0x5FD DUP3 PUSH3 0x717 JUMP JUMPDEST DUP2 ADD DUP2 DUP2 LT PUSH8 0xFFFFFFFFFFFFFFFF DUP3 GT OR ISZERO PUSH3 0x61F JUMPI PUSH3 0x61E PUSH3 0x6D4 JUMP JUMPDEST JUMPDEST DUP1 PUSH1 0x40 MSTORE POP POP POP JUMP JUMPDEST PUSH1 0x0 PUSH3 0x635 DUP3 PUSH3 0x5E8 JUMP JUMPDEST SWAP2 POP PUSH32 0xFFFFFFFFFFFFFFFFFFFFFFFFFFFFFFFFFFFFFFFFFFFFFFFFFFFFFFFFFFFFFFFF DUP3 EQ ISZERO PUSH3 0x66B JUMPI PUSH3 0x66A PUSH3 0x676 JUMP JUMPDEST JUMPDEST PUSH1 0x1 DUP3 ADD SWAP1 POP SWAP2 SWAP1 POP JUMP JUMPDEST PUSH32 0x4E487B7100000000000000000000000000000000000000000000000000000000 PUSH1 0x0 MSTORE PUSH1 0x11 PUSH1 0x4 MSTORE PUSH1 0x24 PUSH1 0x0 REVERT JUMPDEST PUSH32 0x4E487B7100000000000000000000000000000000000000000000000000000000 PUSH1 0x0 MSTORE PUSH1 0x32 PUSH1 0x4 MSTORE PUSH1 0x24 PUSH1 0x0 REVERT JUMPDEST PUSH32 0x4E487B7100000000000000000000000000000000000000000000000000000000 PUSH1 0x0 MSTORE PUSH1 0x41 PUSH1 0x4 MSTORE PUSH1 0x24 PUSH1 0x0 REVERT JUMPDEST PUSH1 0x0 DUP1 REVERT JUMPDEST PUSH1 0x0 DUP1 REVERT JUMPDEST PUSH1 0x0 DUP1 REVERT JUMPDEST PUSH1 0x0 DUP1 REVERT JUMPDEST PUSH1 0x0 PUSH1 0x1F NOT PUSH1 0x1F DUP4 ADD AND SWAP1 POP SWAP2 SWAP1 POP JUMP JUMPDEST PUSH32 0x6F776E6572206973206E6F7420756E6971756500000000000000000000000000 PUSH1 0x0 DUP3 ADD MSTORE POP JUMP JUMPDEST PUSH32 0x696E76616C696420616464726573730000000000000000000000000000000000 PUSH1 0x0 DUP3 ADD MSTORE POP JUMP JUMPDEST PUSH32 0x6F776E6572732072657175697265642100000000000000000000000000000000 PUSH1 0x0 DUP3 ADD MSTORE POP JUMP JUMPDEST PUSH32 0x696E76616C6964207265717569726564206E756D626572206F66206F776E6572 PUSH1 0x0 DUP3 ADD MSTORE PUSH32 0x7300000000000000000000000000000000000000000000000000000000000000 PUSH1 0x20 DUP3 ADD MSTORE POP JUMP JUMPDEST PUSH3 0x7FD DUP2 PUSH3 0x5B4 JUMP JUMPDEST DUP2 EQ PUSH3 0x809 JUMPI PUSH1 0x0 DUP1 REVERT JUMPDEST POP JUMP JUMPDEST PUSH3 0x817 DUP2 PUSH3 0x5E8 JUMP JUMPDEST DUP2 EQ PUSH3 0x823 JUMPI PUSH1 0x0 DUP1 REVERT JUMPDEST POP JUMP JUMPDEST PUSH2 0xA89 DUP1 PUSH3 0x836 PUSH1 0x0 CODECOPY PUSH1 0x0 RETURN INVALID PUSH1 0x80 PUSH1 0x40 MSTORE PUSH1 0x4 CALLDATASIZE LT PUSH2 0x59 JUMPI PUSH1 0x0 CALLDATALOAD PUSH1 0xE0 SHR DUP1 PUSH4 0x25E7C27 EQ PUSH2 0xB3 JUMPI DUP1 PUSH4 0x14DE327F EQ PUSH2 0xF0 JUMPI DUP1 PUSH4 0x2F54BF6E EQ PUSH2 0x119 JUMPI DUP1 PUSH4 0x8253951A EQ PUSH2 0x156 JUMPI DUP1 PUSH4 0x9ACE38C2 EQ PUSH2 0x193 JUMPI DUP1 PUSH4 0xDC8452CD EQ PUSH2 0x1D3 JUMPI PUSH2 0xAE JUMP JUMPDEST CALLDATASIZE PUSH2 0xAE JUMPI CALLER PUSH20 0xFFFFFFFFFFFFFFFFFFFFFFFFFFFFFFFFFFFFFFFF AND PUSH32 0xE1FFFCC4923D04B559F4D29A8BFC6CDA04EB5B0D3C460751C2402C5C5CC9109C CALLVALUE PUSH1 0x40 MLOAD PUSH2 0xA4 SWAP2 SWAP1 PUSH2 0x8AE JUMP JUMPDEST PUSH1 0x40 MLOAD DUP1 SWAP2 SUB SWAP1 LOG2 STOP JUMPDEST PUSH1 0x0 DUP1 REVERT JUMPDEST CALLVALUE DUP1 ISZERO PUSH2 0xBF JUMPI PUSH1 0x0 DUP1 REVERT JUMPDEST POP PUSH2 0xDA PUSH1 0x4 DUP1 CALLDATASIZE SUB DUP2 ADD SWAP1 PUSH2 0xD5 SWAP2 SWAP1 PUSH2 0x716 JUMP JUMPDEST PUSH2 0x1FE JUMP JUMPDEST PUSH1 0x40 MLOAD PUSH2 0xE7 SWAP2 SWAP1 PUSH2 0x80C JUMP JUMPDEST PUSH1 0x40 MLOAD DUP1 SWAP2 SUB SWAP1 RETURN JUMPDEST CALLVALUE DUP1 ISZERO PUSH2 0xFC JUMPI PUSH1 0x0 DUP1 REVERT JUMPDEST POP PUSH2 0x117 PUSH1 0x4 DUP1 CALLDATASIZE SUB DUP2 ADD SWAP1 PUSH2 0x112 SWAP2 SWAP1 PUSH2 0x6A2 JUMP JUMPDEST PUSH2 0x23D JUMP JUMPDEST STOP JUMPDEST CALLVALUE DUP1 ISZERO PUSH2 0x125 JUMPI PUSH1 0x0 DUP1 REVERT JUMPDEST POP PUSH2 0x140 PUSH1 0x4 DUP1 CALLDATASIZE SUB DUP2 ADD SWAP1 PUSH2 0x13B SWAP2 SWAP1 PUSH2 0x675 JUMP JUMPDEST PUSH2 0x408 JUMP JUMPDEST PUSH1 0x40 MLOAD PUSH2 0x14D SWAP2 SWAP1 PUSH2 0x873 JUMP JUMPDEST PUSH1 0x40 MLOAD DUP1 SWAP2 SUB SWAP1 RETURN JUMPDEST CALLVALUE DUP1 ISZERO PUSH2 0x162 JUMPI PUSH1 0x0 DUP1 REVERT JUMPDEST POP PUSH2 0x17D PUSH1 0x4 DUP1 CALLDATASIZE SUB DUP2 ADD SWAP1 PUSH2 0x178 SWAP2 SWAP1 PUSH2 0x743 JUMP JUMPDEST PUSH2 0x428 JUMP JUMPDEST PUSH1 0x40 MLOAD PUSH2 0x18A SWAP2 SWAP1 PUSH2 0x873 JUMP JUMPDEST PUSH1 0x40 MLOAD DUP1 SWAP2 SUB SWAP1 RETURN JUMPDEST CALLVALUE DUP1 ISZERO PUSH2 0x19F JUMPI PUSH1 0x0 DUP1 REVERT JUMPDEST POP PUSH2 0x1BA PUSH1 0x4 DUP1 CALLDATASIZE SUB DUP2 ADD SWAP1 PUSH2 0x1B5 SWAP2 SWAP1 PUSH2 0x716 JUMP JUMPDEST PUSH2 0x457 JUMP JUMPDEST PUSH1 0x40 MLOAD PUSH2 0x1CA SWAP5 SWAP4 SWAP3 SWAP2 SWAP1 PUSH2 0x827 JUMP JUMPDEST PUSH1 0x40 MLOAD DUP1 SWAP2 SUB SWAP1 RETURN JUMPDEST CALLVALUE DUP1 ISZERO PUSH2 0x1DF JUMPI PUSH1 0x0 DUP1 REVERT JUMPDEST POP PUSH2 0x1E8 PUSH2 0x54C JUMP JUMPDEST PUSH1 0x40 MLOAD PUSH2 0x1F5 SWAP2 SWAP1 PUSH2 0x8AE JUMP JUMPDEST PUSH1 0x40 MLOAD DUP1 SWAP2 SUB SWAP1 RETURN JUMPDEST PUSH1 0x3 DUP2 DUP2 SLOAD DUP2 LT PUSH2 0x20E JUMPI PUSH1 0x0 DUP1 REVERT JUMPDEST SWAP1 PUSH1 0x0 MSTORE PUSH1 0x20 PUSH1 0x0 KECCAK256 ADD PUSH1 0x0 SWAP2 POP SLOAD SWAP1 PUSH2 0x100 EXP SWAP1 DIV PUSH20 0xFFFFFFFFFFFFFFFFFFFFFFFFFFFFFFFFFFFFFFFF AND DUP2 JUMP JUMPDEST PUSH1 0x1 PUSH1 0x0 CALLER PUSH20 0xFFFFFFFFFFFFFFFFFFFFFFFFFFFFFFFFFFFFFFFF AND PUSH20 0xFFFFFFFFFFFFFFFFFFFFFFFFFFFFFFFFFFFFFFFF AND DUP2 MSTORE PUSH1 0x20 ADD SWAP1 DUP2 MSTORE PUSH1 0x20 ADD PUSH1 0x0 KECCAK256 PUSH1 0x0 SWAP1 SLOAD SWAP1 PUSH2 0x100 EXP SWAP1 DIV PUSH1 0xFF AND PUSH2 0x2C9 JUMPI PUSH1 0x40 MLOAD PUSH32 0x8C379A000000000000000000000000000000000000000000000000000000000 DUP2 MSTORE PUSH1 0x4 ADD PUSH2 0x2C0 SWAP1 PUSH2 0x88E JUMP JUMPDEST PUSH1 0x40 MLOAD DUP1 SWAP2 SUB SWAP1 REVERT JUMPDEST PUSH1 0x0 PUSH1 0x40 MLOAD DUP1 PUSH1 0x80 ADD PUSH1 0x40 MSTORE DUP1 DUP7 PUSH20 0xFFFFFFFFFFFFFFFFFFFFFFFFFFFFFFFFFFFFFFFF AND DUP2 MSTORE PUSH1 0x20 ADD DUP6 DUP2 MSTORE PUSH1 0x20 ADD DUP5 DUP5 DUP1 DUP1 PUSH1 0x1F ADD PUSH1 0x20 DUP1 SWAP2 DIV MUL PUSH1 0x20 ADD PUSH1 0x40 MLOAD SWAP1 DUP2 ADD PUSH1 0x40 MSTORE DUP1 SWAP4 SWAP3 SWAP2 SWAP1 DUP2 DUP2 MSTORE PUSH1 0x20 ADD DUP4 DUP4 DUP1 DUP3 DUP5 CALLDATACOPY PUSH1 0x0 DUP2 DUP5 ADD MSTORE PUSH1 0x1F NOT PUSH1 0x1F DUP3 ADD AND SWAP1 POP DUP1 DUP4 ADD SWAP3 POP POP POP POP POP POP POP DUP2 MSTORE PUSH1 0x20 ADD PUSH1 0x0 ISZERO ISZERO DUP2 MSTORE POP SWAP1 DUP1 PUSH1 0x1 DUP2 SLOAD ADD DUP1 DUP3 SSTORE DUP1 SWAP2 POP POP PUSH1 0x1 SWAP1 SUB SWAP1 PUSH1 0x0 MSTORE PUSH1 0x20 PUSH1 0x0 KECCAK256 SWAP1 PUSH1 0x4 MUL ADD PUSH1 0x0 SWAP1 SWAP2 SWAP1 SWAP2 SWAP1 SWAP2 POP PUSH1 0x0 DUP3 ADD MLOAD DUP2 PUSH1 0x0 ADD PUSH1 0x0 PUSH2 0x100 EXP DUP2 SLOAD DUP2 PUSH20 0xFFFFFFFFFFFFFFFFFFFFFFFFFFFFFFFFFFFFFFFF MUL NOT AND SWAP1 DUP4 PUSH20 0xFFFFFFFFFFFFFFFFFFFFFFFFFFFFFFFFFFFFFFFF AND MUL OR SWAP1 SSTORE POP PUSH1 0x20 DUP3 ADD MLOAD DUP2 PUSH1 0x1 ADD SSTORE PUSH1 0x40 DUP3 ADD MLOAD DUP2 PUSH1 0x2 ADD SWAP1 DUP1 MLOAD SWAP1 PUSH1 0x20 ADD SWAP1 PUSH2 0x3DF SWAP3 SWAP2 SWAP1 PUSH2 0x552 JUMP JUMPDEST POP PUSH1 0x60 DUP3 ADD MLOAD DUP2 PUSH1 0x3 ADD PUSH1 0x0 PUSH2 0x100 EXP DUP2 SLOAD DUP2 PUSH1 0xFF MUL NOT AND SWAP1 DUP4 ISZERO ISZERO MUL OR SWAP1 SSTORE POP POP POP POP POP POP POP JUMP JUMPDEST PUSH1 0x1 PUSH1 0x20 MSTORE DUP1 PUSH1 0x0 MSTORE PUSH1 0x40 PUSH1 0x0 KECCAK256 PUSH1 0x0 SWAP2 POP SLOAD SWAP1 PUSH2 0x100 EXP SWAP1 DIV PUSH1 0xFF AND DUP2 JUMP JUMPDEST PUSH1 0x4 PUSH1 0x20 MSTORE DUP2 PUSH1 0x0 MSTORE PUSH1 0x40 PUSH1 0x0 KECCAK256 PUSH1 0x20 MSTORE DUP1 PUSH1 0x0 MSTORE PUSH1 0x40 PUSH1 0x0 KECCAK256 PUSH1 0x0 SWAP2 POP SWAP2 POP SWAP1 SLOAD SWAP1 PUSH2 0x100 EXP SWAP1 DIV PUSH1 0xFF AND DUP2 JUMP JUMPDEST PUSH1 0x0 DUP2 DUP2 SLOAD DUP2 LT PUSH2 0x467 JUMPI PUSH1 0x0 DUP1 REVERT JUMPDEST SWAP1 PUSH1 0x0 MSTORE PUSH1 0x20 PUSH1 0x0 KECCAK256 SWAP1 PUSH1 0x4 MUL ADD PUSH1 0x0 SWAP2 POP SWAP1 POP DUP1 PUSH1 0x0 ADD PUSH1 0x0 SWAP1 SLOAD SWAP1 PUSH2 0x100 EXP SWAP1 DIV PUSH20 0xFFFFFFFFFFFFFFFFFFFFFFFFFFFFFFFFFFFFFFFF AND SWAP1 DUP1 PUSH1 0x1 ADD SLOAD SWAP1 DUP1 PUSH1 0x2 ADD DUP1 SLOAD PUSH2 0x4B6 SWAP1 PUSH2 0x971 JUMP JUMPDEST DUP1 PUSH1 0x1F ADD PUSH1 0x20 DUP1 SWAP2 DIV MUL PUSH1 0x20 ADD PUSH1 0x40 MLOAD SWAP1 DUP2 ADD PUSH1 0x40 MSTORE DUP1 SWAP3 SWAP2 SWAP1 DUP2 DUP2 MSTORE PUSH1 0x20 ADD DUP3 DUP1 SLOAD PUSH2 0x4E2 SWAP1 PUSH2 0x971 JUMP JUMPDEST DUP1 ISZERO PUSH2 0x52F JUMPI DUP1 PUSH1 0x1F LT PUSH2 0x504 JUMPI PUSH2 0x100 DUP1 DUP4 SLOAD DIV MUL DUP4 MSTORE SWAP2 PUSH1 0x20 ADD SWAP2 PUSH2 0x52F JUMP JUMPDEST DUP3 ADD SWAP2 SWAP1 PUSH1 0x0 MSTORE PUSH1 0x20 PUSH1 0x0 KECCAK256 SWAP1 JUMPDEST DUP2 SLOAD DUP2 MSTORE SWAP1 PUSH1 0x1 ADD SWAP1 PUSH1 0x20 ADD DUP1 DUP4 GT PUSH2 0x512 JUMPI DUP3 SWAP1 SUB PUSH1 0x1F AND DUP3 ADD SWAP2 JUMPDEST POP POP POP POP POP SWAP1 DUP1 PUSH1 0x3 ADD PUSH1 0x0 SWAP1 SLOAD SWAP1 PUSH2 0x100 EXP SWAP1 DIV PUSH1 0xFF AND SWAP1 POP DUP5 JUMP JUMPDEST PUSH1 0x2 SLOAD DUP2 JUMP JUMPDEST DUP3 DUP1 SLOAD PUSH2 0x55E SWAP1 PUSH2 0x971 JUMP JUMPDEST SWAP1 PUSH1 0x0 MSTORE PUSH1 0x20 PUSH1 0x0 KECCAK256 SWAP1 PUSH1 0x1F ADD PUSH1 0x20 SWAP1 DIV DUP2 ADD SWAP3 DUP3 PUSH2 0x580 JUMPI PUSH1 0x0 DUP6 SSTORE PUSH2 0x5C7 JUMP JUMPDEST DUP3 PUSH1 0x1F LT PUSH2 0x599 JUMPI DUP1 MLOAD PUSH1 0xFF NOT AND DUP4 DUP1 ADD OR DUP6 SSTORE PUSH2 0x5C7 JUMP JUMPDEST DUP3 DUP1 ADD PUSH1 0x1 ADD DUP6 SSTORE DUP3 ISZERO PUSH2 0x5C7 JUMPI SWAP2 DUP3 ADD JUMPDEST DUP3 DUP2 GT ISZERO PUSH2 0x5C6 JUMPI DUP3 MLOAD DUP3 SSTORE SWAP2 PUSH1 0x20 ADD SWAP2 SWAP1 PUSH1 0x1 ADD SWAP1 PUSH2 0x5AB JUMP JUMPDEST JUMPDEST POP SWAP1 POP PUSH2 0x5D4 SWAP2 SWAP1 PUSH2 0x5D8 JUMP JUMPDEST POP SWAP1 JUMP JUMPDEST JUMPDEST DUP1 DUP3 GT ISZERO PUSH2 0x5F1 JUMPI PUSH1 0x0 DUP2 PUSH1 0x0 SWAP1 SSTORE POP PUSH1 0x1 ADD PUSH2 0x5D9 JUMP JUMPDEST POP SWAP1 JUMP JUMPDEST PUSH1 0x0 DUP2 CALLDATALOAD SWAP1 POP PUSH2 0x604 DUP2 PUSH2 0xA25 JUMP JUMPDEST SWAP3 SWAP2 POP POP JUMP JUMPDEST PUSH1 0x0 DUP1 DUP4 PUSH1 0x1F DUP5 ADD SLT PUSH2 0x620 JUMPI PUSH2 0x61F PUSH2 0x9D7 JUMP JUMPDEST JUMPDEST DUP3 CALLDATALOAD SWAP1 POP PUSH8 0xFFFFFFFFFFFFFFFF DUP2 GT ISZERO PUSH2 0x63D JUMPI PUSH2 0x63C PUSH2 0x9D2 JUMP JUMPDEST JUMPDEST PUSH1 0x20 DUP4 ADD SWAP2 POP DUP4 PUSH1 0x1 DUP3 MUL DUP4 ADD GT ISZERO PUSH2 0x659 JUMPI PUSH2 0x658 PUSH2 0x9DC JUMP JUMPDEST JUMPDEST SWAP3 POP SWAP3 SWAP1 POP JUMP JUMPDEST PUSH1 0x0 DUP2 CALLDATALOAD SWAP1 POP PUSH2 0x66F DUP2 PUSH2 0xA3C JUMP JUMPDEST SWAP3 SWAP2 POP POP JUMP JUMPDEST PUSH1 0x0 PUSH1 0x20 DUP3 DUP5 SUB SLT ISZERO PUSH2 0x68B JUMPI PUSH2 0x68A PUSH2 0x9E6 JUMP JUMPDEST JUMPDEST PUSH1 0x0 PUSH2 0x699 DUP5 DUP3 DUP6 ADD PUSH2 0x5F5 JUMP JUMPDEST SWAP2 POP POP SWAP3 SWAP2 POP POP JUMP JUMPDEST PUSH1 0x0 DUP1 PUSH1 0x0 DUP1 PUSH1 0x60 DUP6 DUP8 SUB SLT ISZERO PUSH2 0x6BC JUMPI PUSH2 0x6BB PUSH2 0x9E6 JUMP JUMPDEST JUMPDEST PUSH1 0x0 PUSH2 0x6CA DUP8 DUP3 DUP9 ADD PUSH2 0x5F5 JUMP JUMPDEST SWAP5 POP POP PUSH1 0x20 PUSH2 0x6DB DUP8 DUP3 DUP9 ADD PUSH2 0x660 JUMP JUMPDEST SWAP4 POP POP PUSH1 0x40 DUP6 ADD CALLDATALOAD PUSH8 0xFFFFFFFFFFFFFFFF DUP2 GT ISZERO PUSH2 0x6FC JUMPI PUSH2 0x6FB PUSH2 0x9E1 JUMP JUMPDEST JUMPDEST PUSH2 0x708 DUP8 DUP3 DUP9 ADD PUSH2 0x60A JUMP JUMPDEST SWAP3 POP SWAP3 POP POP SWAP3 SWAP6 SWAP2 SWAP5 POP SWAP3 POP JUMP JUMPDEST PUSH1 0x0 PUSH1 0x20 DUP3 DUP5 SUB SLT ISZERO PUSH2 0x72C JUMPI PUSH2 0x72B PUSH2 0x9E6 JUMP JUMPDEST JUMPDEST PUSH1 0x0 PUSH2 0x73A DUP5 DUP3 DUP6 ADD PUSH2 0x660 JUMP JUMPDEST SWAP2 POP POP SWAP3 SWAP2 POP POP JUMP JUMPDEST PUSH1 0x0 DUP1 PUSH1 0x40 DUP4 DUP6 SUB SLT ISZERO PUSH2 0x75A JUMPI PUSH2 0x759 PUSH2 0x9E6 JUMP JUMPDEST JUMPDEST PUSH1 0x0 PUSH2 0x768 DUP6 DUP3 DUP7 ADD PUSH2 0x660 JUMP JUMPDEST SWAP3 POP POP PUSH1 0x20 PUSH2 0x779 DUP6 DUP3 DUP7 ADD PUSH2 0x5F5 JUMP JUMPDEST SWAP2 POP POP SWAP3 POP SWAP3 SWAP1 POP JUMP JUMPDEST PUSH2 0x78C DUP2 PUSH2 0x8F6 JUMP JUMPDEST DUP3 MSTORE POP POP JUMP JUMPDEST PUSH2 0x79B DUP2 PUSH2 0x908 JUMP JUMPDEST DUP3 MSTORE POP POP JUMP JUMPDEST PUSH1 0x0 PUSH2 0x7AC DUP3 PUSH2 0x8C9 JUMP JUMPDEST PUSH2 0x7B6 DUP2 DUP6 PUSH2 0x8D4 JUMP JUMPDEST SWAP4 POP PUSH2 0x7C6 DUP2 DUP6 PUSH1 0x20 DUP7 ADD PUSH2 0x93E JUMP JUMPDEST PUSH2 0x7CF DUP2 PUSH2 0x9EB JUMP JUMPDEST DUP5 ADD SWAP2 POP POP SWAP3 SWAP2 POP POP JUMP JUMPDEST PUSH1 0x0 PUSH2 0x7E7 PUSH1 0x9 DUP4 PUSH2 0x8E5 JUMP JUMPDEST SWAP2 POP PUSH2 0x7F2 DUP3 PUSH2 0x9FC JUMP JUMPDEST PUSH1 0x20 DUP3 ADD SWAP1 POP SWAP2 SWAP1 POP JUMP JUMPDEST PUSH2 0x806 DUP2 PUSH2 0x934 JUMP JUMPDEST DUP3 MSTORE POP POP JUMP JUMPDEST PUSH1 0x0 PUSH1 0x20 DUP3 ADD SWAP1 POP PUSH2 0x821 PUSH1 0x0 DUP4 ADD DUP5 PUSH2 0x783 JUMP JUMPDEST SWAP3 SWAP2 POP POP JUMP JUMPDEST PUSH1 0x0 PUSH1 0x80 DUP3 ADD SWAP1 POP PUSH2 0x83C PUSH1 0x0 DUP4 ADD DUP8 PUSH2 0x783 JUMP JUMPDEST PUSH2 0x849 PUSH1 0x20 DUP4 ADD DUP7 PUSH2 0x7FD JUMP JUMPDEST DUP2 DUP2 SUB PUSH1 0x40 DUP4 ADD MSTORE PUSH2 0x85B DUP2 DUP6 PUSH2 0x7A1 JUMP JUMPDEST SWAP1 POP PUSH2 0x86A PUSH1 0x60 DUP4 ADD DUP5 PUSH2 0x792 JUMP JUMPDEST SWAP6 SWAP5 POP POP POP POP POP JUMP JUMPDEST PUSH1 0x0 PUSH1 0x20 DUP3 ADD SWAP1 POP PUSH2 0x888 PUSH1 0x0 DUP4 ADD DUP5 PUSH2 0x792 JUMP JUMPDEST SWAP3 SWAP2 POP POP JUMP JUMPDEST PUSH1 0x0 PUSH1 0x20 DUP3 ADD SWAP1 POP DUP2 DUP2 SUB PUSH1 0x0 DUP4 ADD MSTORE PUSH2 0x8A7 DUP2 PUSH2 0x7DA JUMP JUMPDEST SWAP1 POP SWAP2 SWAP1 POP JUMP JUMPDEST PUSH1 0x0 PUSH1 0x20 DUP3 ADD SWAP1 POP PUSH2 0x8C3 PUSH1 0x0 DUP4 ADD DUP5 PUSH2 0x7FD JUMP JUMPDEST SWAP3 SWAP2 POP POP JUMP JUMPDEST PUSH1 0x0 DUP2 MLOAD SWAP1 POP SWAP2 SWAP1 POP JUMP JUMPDEST PUSH1 0x0 DUP3 DUP3 MSTORE PUSH1 0x20 DUP3 ADD SWAP1 POP SWAP3 SWAP2 POP POP JUMP JUMPDEST PUSH1 0x0 DUP3 DUP3 MSTORE PUSH1 0x20 DUP3 ADD SWAP1 POP SWAP3 SWAP2 POP POP JUMP JUMPDEST PUSH1 0x0 PUSH2 0x901 DUP3 PUSH2 0x914 JUMP JUMPDEST SWAP1 POP SWAP2 SWAP1 POP JUMP JUMPDEST PUSH1 0x0 DUP2 ISZERO ISZERO SWAP1 POP SWAP2 SWAP1 POP JUMP JUMPDEST PUSH1 0x0 PUSH20 0xFFFFFFFFFFFFFFFFFFFFFFFFFFFFFFFFFFFFFFFF DUP3 AND SWAP1 POP SWAP2 SWAP1 POP JUMP JUMPDEST PUSH1 0x0 DUP2 SWAP1 POP SWAP2 SWAP1 POP JUMP JUMPDEST PUSH1 0x0 JUMPDEST DUP4 DUP2 LT ISZERO PUSH2 0x95C JUMPI DUP1 DUP3 ADD MLOAD DUP2 DUP5 ADD MSTORE PUSH1 0x20 DUP2 ADD SWAP1 POP PUSH2 0x941 JUMP JUMPDEST DUP4 DUP2 GT ISZERO PUSH2 0x96B JUMPI PUSH1 0x0 DUP5 DUP5 ADD MSTORE JUMPDEST POP POP POP POP JUMP JUMPDEST PUSH1 0x0 PUSH1 0x2 DUP3 DIV SWAP1 POP PUSH1 0x1 DUP3 AND DUP1 PUSH2 0x989 JUMPI PUSH1 0x7F DUP3 AND SWAP2 POP JUMPDEST PUSH1 0x20 DUP3 LT DUP2 EQ ISZERO PUSH2 0x99D JUMPI PUSH2 0x99C PUSH2 0x9A3 JUMP JUMPDEST JUMPDEST POP SWAP2 SWAP1 POP JUMP JUMPDEST PUSH32 0x4E487B7100000000000000000000000000000000000000000000000000000000 PUSH1 0x0 MSTORE PUSH1 0x22 PUSH1 0x4 MSTORE PUSH1 0x24 PUSH1 0x0 REVERT JUMPDEST PUSH1 0x0 DUP1 REVERT JUMPDEST PUSH1 0x0 DUP1 REVERT JUMPDEST PUSH1 0x0 DUP1 REVERT JUMPDEST PUSH1 0x0 DUP1 REVERT JUMPDEST PUSH1 0x0 DUP1 REVERT JUMPDEST PUSH1 0x0 PUSH1 0x1F NOT PUSH1 0x1F DUP4 ADD AND SWAP1 POP SWAP2 SWAP1 POP JUMP JUMPDEST PUSH32 0x6E6F74206F776E65720000000000000000000000000000000000000000000000 PUSH1 0x0 DUP3 ADD MSTORE POP JUMP JUMPDEST PUSH2 0xA2E DUP2 PUSH2 0x8F6 JUMP JUMPDEST DUP2 EQ PUSH2 0xA39 JUMPI PUSH1 0x0 DUP1 REVERT JUMPDEST POP JUMP JUMPDEST PUSH2 0xA45 DUP2 PUSH2 0x934 JUMP JUMPDEST DUP2 EQ PUSH2 0xA50 JUMPI PUSH1 0x0 DUP1 REVERT JUMPDEST POP JUMP INVALID LOG2 PUSH5 0x6970667358 0x22 SLT KECCAK256 CALLDATALOAD DIFFICULTY EQ 0xE8 0x4B DUP6 DUP1 0xEF 0xC3 0xE5 0xB6 0xB3 SLOAD 0xDC 0xE8 0xEC GAS 0xD9 0x49 0xBD DUP9 MLOAD 0xB4 0xB5 0xB1 0xDF CALLCODE PUSH32 0xF9798B7164736F6C634300080700330000000000000000000000000000000000 "
				},
				"gasEstimates": {
					"creation": {
						"codeDepositCost": "539400",
						"executionCost": "infinite",
						"totalCost": "infinite"
					},
					"external": {
						"approved(uint256,address)": "3131",
						"isOwner(address)": "2867",
						"owners(uint256)": "4934",
						"required()": "2517",
						"submit(address,uint256,bytes)": "infinite",
						"transactions(uint256)": "infinite"
					}
				},
				"methodIdentifiers": {
					"approved(uint256,address)": "8253951a",
					"isOwner(address)": "2f54bf6e",
					"owners(uint256)": "025e7c27",
					"required()": "dc8452cd",
					"submit(address,uint256,bytes)": "14de327f",
					"transactions(uint256)": "9ace38c2"
				}
			},
			"storageLayout": {
				"storage": [
					{
						"astId": 40,
						"contract": "Contracts/multiSigWallet.sol:KudiJointWallet",
						"label": "transactions",
						"offset": 0,
						"slot": "0",
						"type": "t_array(t_struct(Transaction)36_storage)dyn_storage"
					},
					{
						"astId": 44,
						"contract": "Contracts/multiSigWallet.sol:KudiJointWallet",
						"label": "isOwner",
						"offset": 0,
						"slot": "1",
						"type": "t_mapping(t_address,t_bool)"
					},
					{
						"astId": 46,
						"contract": "Contracts/multiSigWallet.sol:KudiJointWallet",
						"label": "required",
						"offset": 0,
						"slot": "2",
						"type": "t_uint256"
					},
					{
						"astId": 49,
						"contract": "Contracts/multiSigWallet.sol:KudiJointWallet",
						"label": "owners",
						"offset": 0,
						"slot": "3",
						"type": "t_array(t_address)dyn_storage"
					},
					{
						"astId": 55,
						"contract": "Contracts/multiSigWallet.sol:KudiJointWallet",
						"label": "approved",
						"offset": 0,
						"slot": "4",
						"type": "t_mapping(t_uint256,t_mapping(t_address,t_bool))"
					}
				],
				"types": {
					"t_address": {
						"encoding": "inplace",
						"label": "address",
						"numberOfBytes": "20"
					},
					"t_array(t_address)dyn_storage": {
						"base": "t_address",
						"encoding": "dynamic_array",
						"label": "address[]",
						"numberOfBytes": "32"
					},
					"t_array(t_struct(Transaction)36_storage)dyn_storage": {
						"base": "t_struct(Transaction)36_storage",
						"encoding": "dynamic_array",
						"label": "struct KudiJointWallet.Transaction[]",
						"numberOfBytes": "32"
					},
					"t_bool": {
						"encoding": "inplace",
						"label": "bool",
						"numberOfBytes": "1"
					},
					"t_bytes_storage": {
						"encoding": "bytes",
						"label": "bytes",
						"numberOfBytes": "32"
					},
					"t_mapping(t_address,t_bool)": {
						"encoding": "mapping",
						"key": "t_address",
						"label": "mapping(address => bool)",
						"numberOfBytes": "32",
						"value": "t_bool"
					},
					"t_mapping(t_uint256,t_mapping(t_address,t_bool))": {
						"encoding": "mapping",
						"key": "t_uint256",
						"label": "mapping(uint256 => mapping(address => bool))",
						"numberOfBytes": "32",
						"value": "t_mapping(t_address,t_bool)"
					},
					"t_struct(Transaction)36_storage": {
						"encoding": "inplace",
						"label": "struct KudiJointWallet.Transaction",
						"members": [
							{
								"astId": 29,
								"contract": "Contracts/multiSigWallet.sol:KudiJointWallet",
								"label": "to",
								"offset": 0,
								"slot": "0",
								"type": "t_address"
							},
							{
								"astId": 31,
								"contract": "Contracts/multiSigWallet.sol:KudiJointWallet",
								"label": "value",
								"offset": 0,
								"slot": "1",
								"type": "t_uint256"
							},
							{
								"astId": 33,
								"contract": "Contracts/multiSigWallet.sol:KudiJointWallet",
								"label": "data",
								"offset": 0,
								"slot": "2",
								"type": "t_bytes_storage"
							},
							{
								"astId": 35,
								"contract": "Contracts/multiSigWallet.sol:KudiJointWallet",
								"label": "executed",
								"offset": 0,
								"slot": "3",
								"type": "t_bool"
							}
						],
						"numberOfBytes": "128"
					},
					"t_uint256": {
						"encoding": "inplace",
						"label": "uint256",
						"numberOfBytes": "32"
					}
				}
			},
			"userdoc": {
				"kind": "user",
				"methods": {},
				"version": 1
			}
		}
	}
}