{
	"Contracts/usingEnums.sol": {
		"myContract": {
			"abi": [
				{
					"inputs": [],
					"stateMutability": "nonpayable",
					"type": "constructor"
				},
				{
					"inputs": [],
					"name": "Activate",
					"outputs": [],
					"stateMutability": "nonpayable",
					"type": "function"
				},
				{
					"inputs": [],
					"name": "IsActive",
					"outputs": [
						{
							"internalType": "bool",
							"name": "",
							"type": "bool"
						}
					],
					"stateMutability": "view",
					"type": "function"
				},
				{
					"inputs": [],
					"name": "state",
					"outputs": [
						{
							"internalType": "enum myContract.State",
							"name": "",
							"type": "uint8"
						}
					],
					"stateMutability": "view",
					"type": "function"
				}
			],
			"devdoc": {
				"kind": "dev",
				"methods": {},
				"version": 1
			},
			"evm": {
				"assembly": "    /* \"Contracts/usingEnums.sol\":35:335  contract myContract{\r... */\n  mstore(0x40, 0x80)\n    /* \"Contracts/usingEnums.sol\":140:186  constructor() {\r... */\n  callvalue\n  dup1\n  iszero\n  tag_1\n  jumpi\n  0x00\n  dup1\n  revert\ntag_1:\n  pop\n    /* \"Contracts/usingEnums.sol\":169:182  State.Waiting */\n  0x01\n    /* \"Contracts/usingEnums.sol\":161:166  state */\n  0x00\n  dup1\n    /* \"Contracts/usingEnums.sol\":161:182  state = State.Waiting */\n  0x0100\n  exp\n  dup2\n  sload\n  dup2\n  0xff\n  mul\n  not\n  and\n  swap1\n  dup4\n  0x02\n  dup2\n  gt\n  iszero\n  tag_4\n  jumpi\n  tag_5\n  tag_6\n  jump\t// in\ntag_5:\ntag_4:\n  mul\n  or\n  swap1\n  sstore\n  pop\n    /* \"Contracts/usingEnums.sol\":35:335  contract myContract{\r... */\n  jump(tag_7)\n    /* \"#utility.yul\":7:187   */\ntag_6:\n    /* \"#utility.yul\":55:132   */\n  0x4e487b7100000000000000000000000000000000000000000000000000000000\n    /* \"#utility.yul\":52:53   */\n  0x00\n    /* \"#utility.yul\":45:133   */\n  mstore\n    /* \"#utility.yul\":152:156   */\n  0x21\n    /* \"#utility.yul\":149:150   */\n  0x04\n    /* \"#utility.yul\":142:157   */\n  mstore\n    /* \"#utility.yul\":176:180   */\n  0x24\n    /* \"#utility.yul\":173:174   */\n  0x00\n    /* \"#utility.yul\":166:181   */\n  revert\n    /* \"Contracts/usingEnums.sol\":35:335  contract myContract{\r... */\ntag_7:\n  dataSize(sub_0)\n  dup1\n  dataOffset(sub_0)\n  0x00\n  codecopy\n  0x00\n  return\nstop\n\nsub_0: assembly {\n        /* \"Contracts/usingEnums.sol\":35:335  contract myContract{\r... */\n      mstore(0x40, 0x80)\n      callvalue\n      dup1\n      iszero\n      tag_1\n      jumpi\n      0x00\n      dup1\n      revert\n    tag_1:\n      pop\n      jumpi(tag_2, lt(calldatasize, 0x04))\n      shr(0xe0, calldataload(0x00))\n      dup1\n      0x304dd754\n      eq\n      tag_3\n      jumpi\n      dup1\n      0x59d3ce47\n      eq\n      tag_4\n      jumpi\n      dup1\n      0xc19d93fb\n      eq\n      tag_5\n      jumpi\n    tag_2:\n      0x00\n      dup1\n      revert\n        /* \"Contracts/usingEnums.sol\":247:332  function IsActive() public view returns(bool) {\r... */\n    tag_3:\n      tag_6\n      tag_7\n      jump\t// in\n    tag_6:\n      mload(0x40)\n      tag_8\n      swap2\n      swap1\n      tag_9\n      jump\t// in\n    tag_8:\n      mload(0x40)\n      dup1\n      swap2\n      sub\n      swap1\n      return\n        /* \"Contracts/usingEnums.sol\":188:245  function Activate() public{\r... */\n    tag_4:\n      tag_10\n      tag_11\n      jump\t// in\n    tag_10:\n      stop\n        /* \"Contracts/usingEnums.sol\":118:137  State public  state */\n    tag_5:\n      tag_12\n      tag_13\n      jump\t// in\n    tag_12:\n      mload(0x40)\n      tag_14\n      swap2\n      swap1\n      tag_15\n      jump\t// in\n    tag_14:\n      mload(0x40)\n      dup1\n      swap2\n      sub\n      swap1\n      return\n        /* \"Contracts/usingEnums.sol\":247:332  function IsActive() public view returns(bool) {\r... */\n    tag_7:\n        /* \"Contracts/usingEnums.sol\":287:291  bool */\n      0x00\n        /* \"Contracts/usingEnums.sol\":316:328  State.Active */\n      dup1\n        /* \"Contracts/usingEnums.sol\":307:328  state == State.Active */\n      0x02\n      dup2\n      gt\n      iszero\n      tag_17\n      jumpi\n      tag_18\n      tag_19\n      jump\t// in\n    tag_18:\n    tag_17:\n        /* \"Contracts/usingEnums.sol\":307:312  state */\n      0x00\n      dup1\n      sload\n      swap1\n      0x0100\n      exp\n      swap1\n      div\n      0xff\n      and\n        /* \"Contracts/usingEnums.sol\":307:328  state == State.Active */\n      0x02\n      dup2\n      gt\n      iszero\n      tag_20\n      jumpi\n      tag_21\n      tag_19\n      jump\t// in\n    tag_21:\n    tag_20:\n      eq\n        /* \"Contracts/usingEnums.sol\":300:328  return state == State.Active */\n      swap1\n      pop\n        /* \"Contracts/usingEnums.sol\":247:332  function IsActive() public view returns(bool) {\r... */\n      swap1\n      jump\t// out\n        /* \"Contracts/usingEnums.sol\":188:245  function Activate() public{\r... */\n    tag_11:\n        /* \"Contracts/usingEnums.sol\":229:241  State.Active */\n      0x00\n        /* \"Contracts/usingEnums.sol\":221:226  state */\n      dup1\n      0x00\n        /* \"Contracts/usingEnums.sol\":221:241  state = State.Active */\n      0x0100\n      exp\n      dup2\n      sload\n      dup2\n      0xff\n      mul\n      not\n      and\n      swap1\n      dup4\n      0x02\n      dup2\n      gt\n      iszero\n      tag_23\n      jumpi\n      tag_24\n      tag_19\n      jump\t// in\n    tag_24:\n    tag_23:\n      mul\n      or\n      swap1\n      sstore\n      pop\n        /* \"Contracts/usingEnums.sol\":188:245  function Activate() public{\r... */\n      jump\t// out\n        /* \"Contracts/usingEnums.sol\":118:137  State public  state */\n    tag_13:\n      0x00\n      dup1\n      sload\n      swap1\n      0x0100\n      exp\n      swap1\n      div\n      0xff\n      and\n      dup2\n      jump\t// out\n        /* \"#utility.yul\":7:116   */\n    tag_26:\n        /* \"#utility.yul\":88:109   */\n      tag_28\n        /* \"#utility.yul\":103:108   */\n      dup2\n        /* \"#utility.yul\":88:109   */\n      tag_29\n      jump\t// in\n    tag_28:\n        /* \"#utility.yul\":83:86   */\n      dup3\n        /* \"#utility.yul\":76:110   */\n      mstore\n        /* \"#utility.yul\":7:116   */\n      pop\n      pop\n      jump\t// out\n        /* \"#utility.yul\":122:263   */\n    tag_30:\n        /* \"#utility.yul\":214:256   */\n      tag_32\n        /* \"#utility.yul\":250:255   */\n      dup2\n        /* \"#utility.yul\":214:256   */\n      tag_33\n      jump\t// in\n    tag_32:\n        /* \"#utility.yul\":209:212   */\n      dup3\n        /* \"#utility.yul\":202:257   */\n      mstore\n        /* \"#utility.yul\":122:263   */\n      pop\n      pop\n      jump\t// out\n        /* \"#utility.yul\":269:479   */\n    tag_9:\n        /* \"#utility.yul\":356:360   */\n      0x00\n        /* \"#utility.yul\":394:396   */\n      0x20\n        /* \"#utility.yul\":383:392   */\n      dup3\n        /* \"#utility.yul\":379:397   */\n      add\n        /* \"#utility.yul\":371:397   */\n      swap1\n      pop\n        /* \"#utility.yul\":407:472   */\n      tag_35\n        /* \"#utility.yul\":469:470   */\n      0x00\n        /* \"#utility.yul\":458:467   */\n      dup4\n        /* \"#utility.yul\":454:471   */\n      add\n        /* \"#utility.yul\":445:451   */\n      dup5\n        /* \"#utility.yul\":407:472   */\n      tag_26\n      jump\t// in\n    tag_35:\n        /* \"#utility.yul\":269:479   */\n      swap3\n      swap2\n      pop\n      pop\n      jump\t// out\n        /* \"#utility.yul\":485:717   */\n    tag_15:\n        /* \"#utility.yul\":583:587   */\n      0x00\n        /* \"#utility.yul\":621:623   */\n      0x20\n        /* \"#utility.yul\":610:619   */\n      dup3\n        /* \"#utility.yul\":606:624   */\n      add\n        /* \"#utility.yul\":598:624   */\n      swap1\n      pop\n        /* \"#utility.yul\":634:710   */\n      tag_37\n        /* \"#utility.yul\":707:708   */\n      0x00\n        /* \"#utility.yul\":696:705   */\n      dup4\n        /* \"#utility.yul\":692:709   */\n      add\n        /* \"#utility.yul\":683:689   */\n      dup5\n        /* \"#utility.yul\":634:710   */\n      tag_30\n      jump\t// in\n    tag_37:\n        /* \"#utility.yul\":485:717   */\n      swap3\n      swap2\n      pop\n      pop\n      jump\t// out\n        /* \"#utility.yul\":723:813   */\n    tag_29:\n        /* \"#utility.yul\":757:764   */\n      0x00\n        /* \"#utility.yul\":800:805   */\n      dup2\n        /* \"#utility.yul\":793:806   */\n      iszero\n        /* \"#utility.yul\":786:807   */\n      iszero\n        /* \"#utility.yul\":775:807   */\n      swap1\n      pop\n        /* \"#utility.yul\":723:813   */\n      swap2\n      swap1\n      pop\n      jump\t// out\n        /* \"#utility.yul\":819:944   */\n    tag_39:\n        /* \"#utility.yul\":863:870   */\n      0x00\n        /* \"#utility.yul\":892:897   */\n      dup2\n        /* \"#utility.yul\":881:897   */\n      swap1\n      pop\n        /* \"#utility.yul\":898:938   */\n      tag_41\n        /* \"#utility.yul\":932:937   */\n      dup3\n        /* \"#utility.yul\":898:938   */\n      tag_42\n      jump\t// in\n    tag_41:\n        /* \"#utility.yul\":819:944   */\n      swap2\n      swap1\n      pop\n      jump\t// out\n        /* \"#utility.yul\":950:1075   */\n    tag_33:\n        /* \"#utility.yul\":1005:1014   */\n      0x00\n        /* \"#utility.yul\":1038:1069   */\n      tag_44\n        /* \"#utility.yul\":1063:1068   */\n      dup3\n        /* \"#utility.yul\":1038:1069   */\n      tag_39\n      jump\t// in\n    tag_44:\n        /* \"#utility.yul\":1025:1069   */\n      swap1\n      pop\n        /* \"#utility.yul\":950:1075   */\n      swap2\n      swap1\n      pop\n      jump\t// out\n        /* \"#utility.yul\":1081:1261   */\n    tag_19:\n        /* \"#utility.yul\":1129:1206   */\n      0x4e487b7100000000000000000000000000000000000000000000000000000000\n        /* \"#utility.yul\":1126:1127   */\n      0x00\n        /* \"#utility.yul\":1119:1207   */\n      mstore\n        /* \"#utility.yul\":1226:1230   */\n      0x21\n        /* \"#utility.yul\":1223:1224   */\n      0x04\n        /* \"#utility.yul\":1216:1231   */\n      mstore\n        /* \"#utility.yul\":1250:1254   */\n      0x24\n        /* \"#utility.yul\":1247:1248   */\n      0x00\n        /* \"#utility.yul\":1240:1255   */\n      revert\n        /* \"#utility.yul\":1267:1379   */\n    tag_42:\n        /* \"#utility.yul\":1347:1348   */\n      0x03\n        /* \"#utility.yul\":1340:1345   */\n      dup2\n        /* \"#utility.yul\":1337:1349   */\n      lt\n        /* \"#utility.yul\":1327:1373   */\n      tag_47\n      jumpi\n        /* \"#utility.yul\":1353:1371   */\n      tag_48\n      tag_19\n      jump\t// in\n    tag_48:\n        /* \"#utility.yul\":1327:1373   */\n    tag_47:\n        /* \"#utility.yul\":1267:1379   */\n      pop\n      jump\t// out\n\n    auxdata: 0xa2646970667358221220ed797072db35bbe2e7e0d0c1bdf7785ccc1fb648b6ed5dbff219f3e18f2232b064736f6c63430008070033\n}\n",
				"bytecode": {
					"linkReferences": {},
					"object": "608060405234801561001057600080fd5b5060016000806101000a81548160ff0219169083600281111561003657610035610040565b5b021790555061006f565b7f4e487b7100000000000000000000000000000000000000000000000000000000600052602160045260246000fd5b6102028061007e6000396000f3fe608060405234801561001057600080fd5b50600436106100415760003560e01c8063304dd7541461004657806359d3ce4714610064578063c19d93fb1461006e575b600080fd5b61004e61008c565b60405161005b9190610122565b60405180910390f35b61006c6100c7565b005b6100766100f3565b604051610083919061013d565b60405180910390f35b60008060028111156100a1576100a0610189565b5b60008054906101000a900460ff1660028111156100c1576100c0610189565b5b14905090565b60008060006101000a81548160ff021916908360028111156100ec576100eb610189565b5b0217905550565b60008054906101000a900460ff1681565b61010d81610158565b82525050565b61011c81610177565b82525050565b60006020820190506101376000830184610104565b92915050565b60006020820190506101526000830184610113565b92915050565b60008115159050919050565b6000819050610172826101b8565b919050565b600061018282610164565b9050919050565b7f4e487b7100000000000000000000000000000000000000000000000000000000600052602160045260246000fd5b600381106101c9576101c8610189565b5b5056fea2646970667358221220ed797072db35bbe2e7e0d0c1bdf7785ccc1fb648b6ed5dbff219f3e18f2232b064736f6c63430008070033",
					"opcodes": "PUSH1 0x80 PUSH1 0x40 MSTORE CALLVALUE DUP1 ISZERO PUSH2 0x10 JUMPI PUSH1 0x0 DUP1 REVERT JUMPDEST POP PUSH1 0x1 PUSH1 0x0 DUP1 PUSH2 0x100 EXP DUP2 SLOAD DUP2 PUSH1 0xFF MUL NOT AND SWAP1 DUP4 PUSH1 0x2 DUP2 GT ISZERO PUSH2 0x36 JUMPI PUSH2 0x35 PUSH2 0x40 JUMP JUMPDEST JUMPDEST MUL OR SWAP1 SSTORE POP PUSH2 0x6F JUMP JUMPDEST PUSH32 0x4E487B7100000000000000000000000000000000000000000000000000000000 PUSH1 0x0 MSTORE PUSH1 0x21 PUSH1 0x4 MSTORE PUSH1 0x24 PUSH1 0x0 REVERT JUMPDEST PUSH2 0x202 DUP1 PUSH2 0x7E PUSH1 0x0 CODECOPY PUSH1 0x0 RETURN INVALID PUSH1 0x80 PUSH1 0x40 MSTORE CALLVALUE DUP1 ISZERO PUSH2 0x10 JUMPI PUSH1 0x0 DUP1 REVERT JUMPDEST POP PUSH1 0x4 CALLDATASIZE LT PUSH2 0x41 JUMPI PUSH1 0x0 CALLDATALOAD PUSH1 0xE0 SHR DUP1 PUSH4 0x304DD754 EQ PUSH2 0x46 JUMPI DUP1 PUSH4 0x59D3CE47 EQ PUSH2 0x64 JUMPI DUP1 PUSH4 0xC19D93FB EQ PUSH2 0x6E JUMPI JUMPDEST PUSH1 0x0 DUP1 REVERT JUMPDEST PUSH2 0x4E PUSH2 0x8C JUMP JUMPDEST PUSH1 0x40 MLOAD PUSH2 0x5B SWAP2 SWAP1 PUSH2 0x122 JUMP JUMPDEST PUSH1 0x40 MLOAD DUP1 SWAP2 SUB SWAP1 RETURN JUMPDEST PUSH2 0x6C PUSH2 0xC7 JUMP JUMPDEST STOP JUMPDEST PUSH2 0x76 PUSH2 0xF3 JUMP JUMPDEST PUSH1 0x40 MLOAD PUSH2 0x83 SWAP2 SWAP1 PUSH2 0x13D JUMP JUMPDEST PUSH1 0x40 MLOAD DUP1 SWAP2 SUB SWAP1 RETURN JUMPDEST PUSH1 0x0 DUP1 PUSH1 0x2 DUP2 GT ISZERO PUSH2 0xA1 JUMPI PUSH2 0xA0 PUSH2 0x189 JUMP JUMPDEST JUMPDEST PUSH1 0x0 DUP1 SLOAD SWAP1 PUSH2 0x100 EXP SWAP1 DIV PUSH1 0xFF AND PUSH1 0x2 DUP2 GT ISZERO PUSH2 0xC1 JUMPI PUSH2 0xC0 PUSH2 0x189 JUMP JUMPDEST JUMPDEST EQ SWAP1 POP SWAP1 JUMP JUMPDEST PUSH1 0x0 DUP1 PUSH1 0x0 PUSH2 0x100 EXP DUP2 SLOAD DUP2 PUSH1 0xFF MUL NOT AND SWAP1 DUP4 PUSH1 0x2 DUP2 GT ISZERO PUSH2 0xEC JUMPI PUSH2 0xEB PUSH2 0x189 JUMP JUMPDEST JUMPDEST MUL OR SWAP1 SSTORE POP JUMP JUMPDEST PUSH1 0x0 DUP1 SLOAD SWAP1 PUSH2 0x100 EXP SWAP1 DIV PUSH1 0xFF AND DUP2 JUMP JUMPDEST PUSH2 0x10D DUP2 PUSH2 0x158 JUMP JUMPDEST DUP3 MSTORE POP POP JUMP JUMPDEST PUSH2 0x11C DUP2 PUSH2 0x177 JUMP JUMPDEST DUP3 MSTORE POP POP JUMP JUMPDEST PUSH1 0x0 PUSH1 0x20 DUP3 ADD SWAP1 POP PUSH2 0x137 PUSH1 0x0 DUP4 ADD DUP5 PUSH2 0x104 JUMP JUMPDEST SWAP3 SWAP2 POP POP JUMP JUMPDEST PUSH1 0x0 PUSH1 0x20 DUP3 ADD SWAP1 POP PUSH2 0x152 PUSH1 0x0 DUP4 ADD DUP5 PUSH2 0x113 JUMP JUMPDEST SWAP3 SWAP2 POP POP JUMP JUMPDEST PUSH1 0x0 DUP2 ISZERO ISZERO SWAP1 POP SWAP2 SWAP1 POP JUMP JUMPDEST PUSH1 0x0 DUP2 SWAP1 POP PUSH2 0x172 DUP3 PUSH2 0x1B8 JUMP JUMPDEST SWAP2 SWAP1 POP JUMP JUMPDEST PUSH1 0x0 PUSH2 0x182 DUP3 PUSH2 0x164 JUMP JUMPDEST SWAP1 POP SWAP2 SWAP1 POP JUMP JUMPDEST PUSH32 0x4E487B7100000000000000000000000000000000000000000000000000000000 PUSH1 0x0 MSTORE PUSH1 0x21 PUSH1 0x4 MSTORE PUSH1 0x24 PUSH1 0x0 REVERT JUMPDEST PUSH1 0x3 DUP2 LT PUSH2 0x1C9 JUMPI PUSH2 0x1C8 PUSH2 0x189 JUMP JUMPDEST JUMPDEST POP JUMP INVALID LOG2 PUSH5 0x6970667358 0x22 SLT KECCAK256 0xED PUSH26 0x7072DB35BBE2E7E0D0C1BDF7785CCC1FB648B6ED5DBFF219F3E1 DUP16 0x22 ORIGIN 0xB0 PUSH5 0x736F6C6343 STOP ADDMOD SMOD STOP CALLER "
				},
				"gasEstimates": {
					"creation": {
						"codeDepositCost": "102800",
						"executionCost": "24452",
						"totalCost": "127252"
					},
					"external": {
						"Activate()": "24431",
						"IsActive()": "2512",
						"state()": "2579"
					}
				},
				"methodIdentifiers": {
					"Activate()": "59d3ce47",
					"IsActive()": "304dd754",
					"state()": "c19d93fb"
				}
			},
			"storageLayout": {
				"storage": [
					{
						"astId": 8,
						"contract": "Contracts/usingEnums.sol:myContract",
						"label": "state",
						"offset": 0,
						"slot": "0",
						"type": "t_enum(State)5"
					}
				],
				"types": {
					"t_enum(State)5": {
						"encoding": "inplace",
						"label": "enum myContract.State",
						"numberOfBytes": "1"
					}
				}
			},
			"userdoc": {
				"kind": "user",
				"methods": {},
				"version": 1
			}
		}
	}
}