{
	"Contracts/timelock.sol": {
		"TestTimelock": {
			"abi": [
				{
					"inputs": [
						{
							"internalType": "address",
							"name": "_timelock",
							"type": "address"
						}
					],
					"stateMutability": "nonpayable",
					"type": "constructor"
				},
				{
					"inputs": [],
					"name": "Test",
					"outputs": [
						{
							"internalType": "uint256",
							"name": "",
							"type": "uint256"
						}
					],
					"stateMutability": "nonpayable",
					"type": "function"
				},
				{
					"inputs": [],
					"name": "getTimestamp",
					"outputs": [
						{
							"internalType": "uint256",
							"name": "",
							"type": "uint256"
						}
					],
					"stateMutability": "view",
					"type": "function"
				},
				{
					"inputs": [],
					"name": "timelock",
					"outputs": [
						{
							"internalType": "address",
							"name": "",
							"type": "address"
						}
					],
					"stateMutability": "view",
					"type": "function"
				}
			],
			"devdoc": {
				"kind": "dev",
				"methods": {},
				"version": 1
			},
			"evm": {
				"assembly": "    /* \"Contracts/timelock.sol\":3675:4083  contract TestTimelock{\r... */\n  mstore(0x40, 0x80)\n    /* \"Contracts/timelock.sol\":3735:3807  constructor(address _timelock){\r... */\n  callvalue\n  dup1\n  iszero\n  tag_1\n  jumpi\n  0x00\n  dup1\n  revert\ntag_1:\n  pop\n  mload(0x40)\n  sub(codesize, bytecodeSize)\n  dup1\n  bytecodeSize\n  dup4\n  codecopy\n  dup2\n  dup2\n  add\n  0x40\n  mstore\n  dup2\n  add\n  swap1\n  tag_2\n  swap2\n  swap1\n  tag_3\n  jump\t// in\ntag_2:\n    /* \"Contracts/timelock.sol\":3790:3799  _timelock */\n  dup1\n    /* \"Contracts/timelock.sol\":3779:3787  timelock */\n  0x00\n  dup1\n    /* \"Contracts/timelock.sol\":3779:3799  timelock = _timelock */\n  0x0100\n  exp\n  dup2\n  sload\n  dup2\n  0xffffffffffffffffffffffffffffffffffffffff\n  mul\n  not\n  and\n  swap1\n  dup4\n  0xffffffffffffffffffffffffffffffffffffffff\n  and\n  mul\n  or\n  swap1\n  sstore\n  pop\n    /* \"Contracts/timelock.sol\":3735:3807  constructor(address _timelock){\r... */\n  pop\n    /* \"Contracts/timelock.sol\":3675:4083  contract TestTimelock{\r... */\n  jump(tag_6)\n    /* \"#utility.yul\":7:150   */\ntag_8:\n    /* \"#utility.yul\":64:69   */\n  0x00\n    /* \"#utility.yul\":95:101   */\n  dup2\n    /* \"#utility.yul\":89:102   */\n  mload\n    /* \"#utility.yul\":80:102   */\n  swap1\n  pop\n    /* \"#utility.yul\":111:144   */\n  tag_10\n    /* \"#utility.yul\":138:143   */\n  dup2\n    /* \"#utility.yul\":111:144   */\n  tag_11\n  jump\t// in\ntag_10:\n    /* \"#utility.yul\":7:150   */\n  swap3\n  swap2\n  pop\n  pop\n  jump\t// out\n    /* \"#utility.yul\":156:507   */\ntag_3:\n    /* \"#utility.yul\":226:232   */\n  0x00\n    /* \"#utility.yul\":275:277   */\n  0x20\n    /* \"#utility.yul\":263:272   */\n  dup3\n    /* \"#utility.yul\":254:261   */\n  dup5\n    /* \"#utility.yul\":250:273   */\n  sub\n    /* \"#utility.yul\":246:278   */\n  slt\n    /* \"#utility.yul\":243:362   */\n  iszero\n  tag_13\n  jumpi\n    /* \"#utility.yul\":281:360   */\n  tag_14\n  tag_15\n  jump\t// in\ntag_14:\n    /* \"#utility.yul\":243:362   */\ntag_13:\n    /* \"#utility.yul\":401:402   */\n  0x00\n    /* \"#utility.yul\":426:490   */\n  tag_16\n    /* \"#utility.yul\":482:489   */\n  dup5\n    /* \"#utility.yul\":473:479   */\n  dup3\n    /* \"#utility.yul\":462:471   */\n  dup6\n    /* \"#utility.yul\":458:480   */\n  add\n    /* \"#utility.yul\":426:490   */\n  tag_8\n  jump\t// in\ntag_16:\n    /* \"#utility.yul\":416:490   */\n  swap2\n  pop\n    /* \"#utility.yul\":372:500   */\n  pop\n    /* \"#utility.yul\":156:507   */\n  swap3\n  swap2\n  pop\n  pop\n  jump\t// out\n    /* \"#utility.yul\":594:690   */\ntag_19:\n    /* \"#utility.yul\":631:638   */\n  0x00\n    /* \"#utility.yul\":660:684   */\n  tag_21\n    /* \"#utility.yul\":678:683   */\n  dup3\n    /* \"#utility.yul\":660:684   */\n  tag_22\n  jump\t// in\ntag_21:\n    /* \"#utility.yul\":649:684   */\n  swap1\n  pop\n    /* \"#utility.yul\":594:690   */\n  swap2\n  swap1\n  pop\n  jump\t// out\n    /* \"#utility.yul\":696:822   */\ntag_22:\n    /* \"#utility.yul\":733:740   */\n  0x00\n    /* \"#utility.yul\":773:815   */\n  0xffffffffffffffffffffffffffffffffffffffff\n    /* \"#utility.yul\":766:771   */\n  dup3\n    /* \"#utility.yul\":762:816   */\n  and\n    /* \"#utility.yul\":751:816   */\n  swap1\n  pop\n    /* \"#utility.yul\":696:822   */\n  swap2\n  swap1\n  pop\n  jump\t// out\n    /* \"#utility.yul\":951:1068   */\ntag_15:\n    /* \"#utility.yul\":1060:1061   */\n  0x00\n    /* \"#utility.yul\":1057:1058   */\n  dup1\n    /* \"#utility.yul\":1050:1062   */\n  revert\n    /* \"#utility.yul\":1074:1196   */\ntag_11:\n    /* \"#utility.yul\":1147:1171   */\n  tag_28\n    /* \"#utility.yul\":1165:1170   */\n  dup2\n    /* \"#utility.yul\":1147:1171   */\n  tag_19\n  jump\t// in\ntag_28:\n    /* \"#utility.yul\":1140:1145   */\n  dup2\n    /* \"#utility.yul\":1137:1172   */\n  eq\n    /* \"#utility.yul\":1127:1190   */\n  tag_29\n  jumpi\n    /* \"#utility.yul\":1186:1187   */\n  0x00\n    /* \"#utility.yul\":1183:1184   */\n  dup1\n    /* \"#utility.yul\":1176:1188   */\n  revert\n    /* \"#utility.yul\":1127:1190   */\ntag_29:\n    /* \"#utility.yul\":1074:1196   */\n  pop\n  jump\t// out\n    /* \"Contracts/timelock.sol\":3675:4083  contract TestTimelock{\r... */\ntag_6:\n  dataSize(sub_0)\n  dup1\n  dataOffset(sub_0)\n  0x00\n  codecopy\n  0x00\n  return\nstop\n\nsub_0: assembly {\n        /* \"Contracts/timelock.sol\":3675:4083  contract TestTimelock{\r... */\n      mstore(0x40, 0x80)\n      callvalue\n      dup1\n      iszero\n      tag_1\n      jumpi\n      0x00\n      dup1\n      revert\n    tag_1:\n      pop\n      jumpi(tag_2, lt(calldatasize, 0x04))\n      shr(0xe0, calldataload(0x00))\n      dup1\n      0x188ec356\n      eq\n      tag_3\n      jumpi\n      dup1\n      0xa163a624\n      eq\n      tag_4\n      jumpi\n      dup1\n      0xd33219b4\n      eq\n      tag_5\n      jumpi\n    tag_2:\n      0x00\n      dup1\n      revert\n        /* \"Contracts/timelock.sol\":3970:4070  function getTimestamp() external view returns(uint){\r... */\n    tag_3:\n      tag_6\n      tag_7\n      jump\t// in\n    tag_6:\n      mload(0x40)\n      tag_8\n      swap2\n      swap1\n      tag_9\n      jump\t// in\n    tag_8:\n      mload(0x40)\n      dup1\n      swap2\n      sub\n      swap1\n      return\n        /* \"Contracts/timelock.sol\":3821:3963  function Test() external returns(uint){\r... */\n    tag_4:\n      tag_10\n      tag_11\n      jump\t// in\n    tag_10:\n      mload(0x40)\n      tag_12\n      swap2\n      swap1\n      tag_9\n      jump\t// in\n    tag_12:\n      mload(0x40)\n      dup1\n      swap2\n      sub\n      swap1\n      return\n        /* \"Contracts/timelock.sol\":3703:3726  address public timelock */\n    tag_5:\n      tag_13\n      tag_14\n      jump\t// in\n    tag_13:\n      mload(0x40)\n      tag_15\n      swap2\n      swap1\n      tag_16\n      jump\t// in\n    tag_15:\n      mload(0x40)\n      dup1\n      swap2\n      sub\n      swap1\n      return\n        /* \"Contracts/timelock.sol\":3970:4070  function getTimestamp() external view returns(uint){\r... */\n    tag_7:\n        /* \"Contracts/timelock.sol\":4016:4020  uint */\n      0x00\n        /* \"Contracts/timelock.sol\":4058:4061  100 */\n      0x64\n        /* \"Contracts/timelock.sol\":4040:4055  block.timestamp */\n      timestamp\n        /* \"Contracts/timelock.sol\":4040:4061  block.timestamp + 100 */\n      tag_18\n      swap2\n      swap1\n      tag_19\n      jump\t// in\n    tag_18:\n        /* \"Contracts/timelock.sol\":4033:4061  return block.timestamp + 100 */\n      swap1\n      pop\n        /* \"Contracts/timelock.sol\":3970:4070  function getTimestamp() external view returns(uint){\r... */\n      swap1\n      jump\t// out\n        /* \"Contracts/timelock.sol\":3821:3963  function Test() external returns(uint){\r... */\n    tag_11:\n        /* \"Contracts/timelock.sol\":3854:3858  uint */\n      0x00\n        /* \"Contracts/timelock.sol\":3893:3901  timelock */\n      dup1\n      0x00\n      swap1\n      sload\n      swap1\n      0x0100\n      exp\n      swap1\n      div\n      0xffffffffffffffffffffffffffffffffffffffff\n      and\n        /* \"Contracts/timelock.sol\":3879:3901  msg.sender == timelock */\n      0xffffffffffffffffffffffffffffffffffffffff\n      and\n        /* \"Contracts/timelock.sol\":3879:3889  msg.sender */\n      caller\n        /* \"Contracts/timelock.sol\":3879:3901  msg.sender == timelock */\n      0xffffffffffffffffffffffffffffffffffffffff\n      and\n      eq\n        /* \"Contracts/timelock.sol\":3871:3915  require(msg.sender == timelock, \"not owner\") */\n      tag_21\n      jumpi\n      mload(0x40)\n      0x08c379a000000000000000000000000000000000000000000000000000000000\n      dup2\n      mstore\n      0x04\n      add\n      tag_22\n      swap1\n      tag_23\n      jump\t// in\n    tag_22:\n      mload(0x40)\n      dup1\n      swap2\n      sub\n      swap1\n      revert\n    tag_21:\n        /* \"Contracts/timelock.sol\":3951:3954  100 */\n      0x64\n        /* \"Contracts/timelock.sol\":3933:3948  block.timestamp */\n      timestamp\n        /* \"Contracts/timelock.sol\":3933:3954  block.timestamp + 100 */\n      tag_24\n      swap2\n      swap1\n      tag_19\n      jump\t// in\n    tag_24:\n        /* \"Contracts/timelock.sol\":3926:3954  return block.timestamp + 100 */\n      swap1\n      pop\n        /* \"Contracts/timelock.sol\":3821:3963  function Test() external returns(uint){\r... */\n      swap1\n      jump\t// out\n        /* \"Contracts/timelock.sol\":3703:3726  address public timelock */\n    tag_14:\n      0x00\n      dup1\n      sload\n      swap1\n      0x0100\n      exp\n      swap1\n      div\n      0xffffffffffffffffffffffffffffffffffffffff\n      and\n      dup2\n      jump\t// out\n        /* \"#utility.yul\":7:125   */\n    tag_26:\n        /* \"#utility.yul\":94:118   */\n      tag_28\n        /* \"#utility.yul\":112:117   */\n      dup2\n        /* \"#utility.yul\":94:118   */\n      tag_29\n      jump\t// in\n    tag_28:\n        /* \"#utility.yul\":89:92   */\n      dup3\n        /* \"#utility.yul\":82:119   */\n      mstore\n        /* \"#utility.yul\":7:125   */\n      pop\n      pop\n      jump\t// out\n        /* \"#utility.yul\":131:496   */\n    tag_30:\n        /* \"#utility.yul\":273:276   */\n      0x00\n        /* \"#utility.yul\":294:360   */\n      tag_32\n        /* \"#utility.yul\":358:359   */\n      0x09\n        /* \"#utility.yul\":353:356   */\n      dup4\n        /* \"#utility.yul\":294:360   */\n      tag_33\n      jump\t// in\n    tag_32:\n        /* \"#utility.yul\":287:360   */\n      swap2\n      pop\n        /* \"#utility.yul\":369:462   */\n      tag_34\n        /* \"#utility.yul\":458:461   */\n      dup3\n        /* \"#utility.yul\":369:462   */\n      tag_35\n      jump\t// in\n    tag_34:\n        /* \"#utility.yul\":487:489   */\n      0x20\n        /* \"#utility.yul\":482:485   */\n      dup3\n        /* \"#utility.yul\":478:490   */\n      add\n        /* \"#utility.yul\":471:490   */\n      swap1\n      pop\n        /* \"#utility.yul\":131:496   */\n      swap2\n      swap1\n      pop\n      jump\t// out\n        /* \"#utility.yul\":502:620   */\n    tag_36:\n        /* \"#utility.yul\":589:613   */\n      tag_38\n        /* \"#utility.yul\":607:612   */\n      dup2\n        /* \"#utility.yul\":589:613   */\n      tag_39\n      jump\t// in\n    tag_38:\n        /* \"#utility.yul\":584:587   */\n      dup3\n        /* \"#utility.yul\":577:614   */\n      mstore\n        /* \"#utility.yul\":502:620   */\n      pop\n      pop\n      jump\t// out\n        /* \"#utility.yul\":626:848   */\n    tag_16:\n        /* \"#utility.yul\":719:723   */\n      0x00\n        /* \"#utility.yul\":757:759   */\n      0x20\n        /* \"#utility.yul\":746:755   */\n      dup3\n        /* \"#utility.yul\":742:760   */\n      add\n        /* \"#utility.yul\":734:760   */\n      swap1\n      pop\n        /* \"#utility.yul\":770:841   */\n      tag_41\n        /* \"#utility.yul\":838:839   */\n      0x00\n        /* \"#utility.yul\":827:836   */\n      dup4\n        /* \"#utility.yul\":823:840   */\n      add\n        /* \"#utility.yul\":814:820   */\n      dup5\n        /* \"#utility.yul\":770:841   */\n      tag_26\n      jump\t// in\n    tag_41:\n        /* \"#utility.yul\":626:848   */\n      swap3\n      swap2\n      pop\n      pop\n      jump\t// out\n        /* \"#utility.yul\":854:1273   */\n    tag_23:\n        /* \"#utility.yul\":1020:1024   */\n      0x00\n        /* \"#utility.yul\":1058:1060   */\n      0x20\n        /* \"#utility.yul\":1047:1056   */\n      dup3\n        /* \"#utility.yul\":1043:1061   */\n      add\n        /* \"#utility.yul\":1035:1061   */\n      swap1\n      pop\n        /* \"#utility.yul\":1107:1116   */\n      dup2\n        /* \"#utility.yul\":1101:1105   */\n      dup2\n        /* \"#utility.yul\":1097:1117   */\n      sub\n        /* \"#utility.yul\":1093:1094   */\n      0x00\n        /* \"#utility.yul\":1082:1091   */\n      dup4\n        /* \"#utility.yul\":1078:1095   */\n      add\n        /* \"#utility.yul\":1071:1118   */\n      mstore\n        /* \"#utility.yul\":1135:1266   */\n      tag_43\n        /* \"#utility.yul\":1261:1265   */\n      dup2\n        /* \"#utility.yul\":1135:1266   */\n      tag_30\n      jump\t// in\n    tag_43:\n        /* \"#utility.yul\":1127:1266   */\n      swap1\n      pop\n        /* \"#utility.yul\":854:1273   */\n      swap2\n      swap1\n      pop\n      jump\t// out\n        /* \"#utility.yul\":1279:1501   */\n    tag_9:\n        /* \"#utility.yul\":1372:1376   */\n      0x00\n        /* \"#utility.yul\":1410:1412   */\n      0x20\n        /* \"#utility.yul\":1399:1408   */\n      dup3\n        /* \"#utility.yul\":1395:1413   */\n      add\n        /* \"#utility.yul\":1387:1413   */\n      swap1\n      pop\n        /* \"#utility.yul\":1423:1494   */\n      tag_45\n        /* \"#utility.yul\":1491:1492   */\n      0x00\n        /* \"#utility.yul\":1480:1489   */\n      dup4\n        /* \"#utility.yul\":1476:1493   */\n      add\n        /* \"#utility.yul\":1467:1473   */\n      dup5\n        /* \"#utility.yul\":1423:1494   */\n      tag_36\n      jump\t// in\n    tag_45:\n        /* \"#utility.yul\":1279:1501   */\n      swap3\n      swap2\n      pop\n      pop\n      jump\t// out\n        /* \"#utility.yul\":1507:1676   */\n    tag_33:\n        /* \"#utility.yul\":1591:1602   */\n      0x00\n        /* \"#utility.yul\":1625:1631   */\n      dup3\n        /* \"#utility.yul\":1620:1623   */\n      dup3\n        /* \"#utility.yul\":1613:1632   */\n      mstore\n        /* \"#utility.yul\":1665:1669   */\n      0x20\n        /* \"#utility.yul\":1660:1663   */\n      dup3\n        /* \"#utility.yul\":1656:1670   */\n      add\n        /* \"#utility.yul\":1641:1670   */\n      swap1\n      pop\n        /* \"#utility.yul\":1507:1676   */\n      swap3\n      swap2\n      pop\n      pop\n      jump\t// out\n        /* \"#utility.yul\":1682:1987   */\n    tag_19:\n        /* \"#utility.yul\":1722:1725   */\n      0x00\n        /* \"#utility.yul\":1741:1761   */\n      tag_48\n        /* \"#utility.yul\":1759:1760   */\n      dup3\n        /* \"#utility.yul\":1741:1761   */\n      tag_39\n      jump\t// in\n    tag_48:\n        /* \"#utility.yul\":1736:1761   */\n      swap2\n      pop\n        /* \"#utility.yul\":1775:1795   */\n      tag_49\n        /* \"#utility.yul\":1793:1794   */\n      dup4\n        /* \"#utility.yul\":1775:1795   */\n      tag_39\n      jump\t// in\n    tag_49:\n        /* \"#utility.yul\":1770:1795   */\n      swap3\n      pop\n        /* \"#utility.yul\":1929:1930   */\n      dup3\n        /* \"#utility.yul\":1861:1927   */\n      0xffffffffffffffffffffffffffffffffffffffffffffffffffffffffffffffff\n        /* \"#utility.yul\":1857:1931   */\n      sub\n        /* \"#utility.yul\":1854:1855   */\n      dup3\n        /* \"#utility.yul\":1851:1932   */\n      gt\n        /* \"#utility.yul\":1848:1955   */\n      iszero\n      tag_50\n      jumpi\n        /* \"#utility.yul\":1935:1953   */\n      tag_51\n      tag_52\n      jump\t// in\n    tag_51:\n        /* \"#utility.yul\":1848:1955   */\n    tag_50:\n        /* \"#utility.yul\":1979:1980   */\n      dup3\n        /* \"#utility.yul\":1976:1977   */\n      dup3\n        /* \"#utility.yul\":1972:1981   */\n      add\n        /* \"#utility.yul\":1965:1981   */\n      swap1\n      pop\n        /* \"#utility.yul\":1682:1987   */\n      swap3\n      swap2\n      pop\n      pop\n      jump\t// out\n        /* \"#utility.yul\":1993:2089   */\n    tag_29:\n        /* \"#utility.yul\":2030:2037   */\n      0x00\n        /* \"#utility.yul\":2059:2083   */\n      tag_54\n        /* \"#utility.yul\":2077:2082   */\n      dup3\n        /* \"#utility.yul\":2059:2083   */\n      tag_55\n      jump\t// in\n    tag_54:\n        /* \"#utility.yul\":2048:2083   */\n      swap1\n      pop\n        /* \"#utility.yul\":1993:2089   */\n      swap2\n      swap1\n      pop\n      jump\t// out\n        /* \"#utility.yul\":2095:2221   */\n    tag_55:\n        /* \"#utility.yul\":2132:2139   */\n      0x00\n        /* \"#utility.yul\":2172:2214   */\n      0xffffffffffffffffffffffffffffffffffffffff\n        /* \"#utility.yul\":2165:2170   */\n      dup3\n        /* \"#utility.yul\":2161:2215   */\n      and\n        /* \"#utility.yul\":2150:2215   */\n      swap1\n      pop\n        /* \"#utility.yul\":2095:2221   */\n      swap2\n      swap1\n      pop\n      jump\t// out\n        /* \"#utility.yul\":2227:2304   */\n    tag_39:\n        /* \"#utility.yul\":2264:2271   */\n      0x00\n        /* \"#utility.yul\":2293:2298   */\n      dup2\n        /* \"#utility.yul\":2282:2298   */\n      swap1\n      pop\n        /* \"#utility.yul\":2227:2304   */\n      swap2\n      swap1\n      pop\n      jump\t// out\n        /* \"#utility.yul\":2310:2490   */\n    tag_52:\n        /* \"#utility.yul\":2358:2435   */\n      0x4e487b7100000000000000000000000000000000000000000000000000000000\n        /* \"#utility.yul\":2355:2356   */\n      0x00\n        /* \"#utility.yul\":2348:2436   */\n      mstore\n        /* \"#utility.yul\":2455:2459   */\n      0x11\n        /* \"#utility.yul\":2452:2453   */\n      0x04\n        /* \"#utility.yul\":2445:2460   */\n      mstore\n        /* \"#utility.yul\":2479:2483   */\n      0x24\n        /* \"#utility.yul\":2476:2477   */\n      0x00\n        /* \"#utility.yul\":2469:2484   */\n      revert\n        /* \"#utility.yul\":2496:2655   */\n    tag_35:\n        /* \"#utility.yul\":2636:2647   */\n      0x6e6f74206f776e65720000000000000000000000000000000000000000000000\n        /* \"#utility.yul\":2632:2633   */\n      0x00\n        /* \"#utility.yul\":2624:2630   */\n      dup3\n        /* \"#utility.yul\":2620:2634   */\n      add\n        /* \"#utility.yul\":2613:2648   */\n      mstore\n        /* \"#utility.yul\":2496:2655   */\n      pop\n      jump\t// out\n\n    auxdata: 0xa264697066735822122090b4862f0cceaa1039b241bdf56cbeab7ffde0de92f2630e23d39a431578a75264736f6c63430008070033\n}\n",
				"bytecode": {
					"linkReferences": {},
					"object": "608060405234801561001057600080fd5b5060405161045a38038061045a8339818101604052810190610032919061008d565b806000806101000a81548173ffffffffffffffffffffffffffffffffffffffff021916908373ffffffffffffffffffffffffffffffffffffffff16021790555050610108565b600081519050610087816100f1565b92915050565b6000602082840312156100a3576100a26100ec565b5b60006100b184828501610078565b91505092915050565b60006100c5826100cc565b9050919050565b600073ffffffffffffffffffffffffffffffffffffffff82169050919050565b600080fd5b6100fa816100ba565b811461010557600080fd5b50565b610343806101176000396000f3fe608060405234801561001057600080fd5b50600436106100415760003560e01c8063188ec35614610046578063a163a62414610064578063d33219b414610082575b600080fd5b61004e6100a0565b60405161005b91906101f7565b60405180910390f35b61006c6100b4565b60405161007991906101f7565b60405180910390f35b61008a610157565b60405161009791906101bc565b60405180910390f35b60006064426100af9190610223565b905090565b60008060009054906101000a900473ffffffffffffffffffffffffffffffffffffffff1673ffffffffffffffffffffffffffffffffffffffff163373ffffffffffffffffffffffffffffffffffffffff1614610145576040517f08c379a000000000000000000000000000000000000000000000000000000000815260040161013c906101d7565b60405180910390fd5b6064426101529190610223565b905090565b60008054906101000a900473ffffffffffffffffffffffffffffffffffffffff1681565b61018481610279565b82525050565b6000610197600983610212565b91506101a2826102e4565b602082019050919050565b6101b6816102ab565b82525050565b60006020820190506101d1600083018461017b565b92915050565b600060208201905081810360008301526101f08161018a565b9050919050565b600060208201905061020c60008301846101ad565b92915050565b600082825260208201905092915050565b600061022e826102ab565b9150610239836102ab565b9250827fffffffffffffffffffffffffffffffffffffffffffffffffffffffffffffffff0382111561026e5761026d6102b5565b5b828201905092915050565b60006102848261028b565b9050919050565b600073ffffffffffffffffffffffffffffffffffffffff82169050919050565b6000819050919050565b7f4e487b7100000000000000000000000000000000000000000000000000000000600052601160045260246000fd5b7f6e6f74206f776e6572000000000000000000000000000000000000000000000060008201525056fea264697066735822122090b4862f0cceaa1039b241bdf56cbeab7ffde0de92f2630e23d39a431578a75264736f6c63430008070033",
					"opcodes": "PUSH1 0x80 PUSH1 0x40 MSTORE CALLVALUE DUP1 ISZERO PUSH2 0x10 JUMPI PUSH1 0x0 DUP1 REVERT JUMPDEST POP PUSH1 0x40 MLOAD PUSH2 0x45A CODESIZE SUB DUP1 PUSH2 0x45A DUP4 CODECOPY DUP2 DUP2 ADD PUSH1 0x40 MSTORE DUP2 ADD SWAP1 PUSH2 0x32 SWAP2 SWAP1 PUSH2 0x8D JUMP JUMPDEST DUP1 PUSH1 0x0 DUP1 PUSH2 0x100 EXP DUP2 SLOAD DUP2 PUSH20 0xFFFFFFFFFFFFFFFFFFFFFFFFFFFFFFFFFFFFFFFF MUL NOT AND SWAP1 DUP4 PUSH20 0xFFFFFFFFFFFFFFFFFFFFFFFFFFFFFFFFFFFFFFFF AND MUL OR SWAP1 SSTORE POP POP PUSH2 0x108 JUMP JUMPDEST PUSH1 0x0 DUP2 MLOAD SWAP1 POP PUSH2 0x87 DUP2 PUSH2 0xF1 JUMP JUMPDEST SWAP3 SWAP2 POP POP JUMP JUMPDEST PUSH1 0x0 PUSH1 0x20 DUP3 DUP5 SUB SLT ISZERO PUSH2 0xA3 JUMPI PUSH2 0xA2 PUSH2 0xEC JUMP JUMPDEST JUMPDEST PUSH1 0x0 PUSH2 0xB1 DUP5 DUP3 DUP6 ADD PUSH2 0x78 JUMP JUMPDEST SWAP2 POP POP SWAP3 SWAP2 POP POP JUMP JUMPDEST PUSH1 0x0 PUSH2 0xC5 DUP3 PUSH2 0xCC JUMP JUMPDEST SWAP1 POP SWAP2 SWAP1 POP JUMP JUMPDEST PUSH1 0x0 PUSH20 0xFFFFFFFFFFFFFFFFFFFFFFFFFFFFFFFFFFFFFFFF DUP3 AND SWAP1 POP SWAP2 SWAP1 POP JUMP JUMPDEST PUSH1 0x0 DUP1 REVERT JUMPDEST PUSH2 0xFA DUP2 PUSH2 0xBA JUMP JUMPDEST DUP2 EQ PUSH2 0x105 JUMPI PUSH1 0x0 DUP1 REVERT JUMPDEST POP JUMP JUMPDEST PUSH2 0x343 DUP1 PUSH2 0x117 PUSH1 0x0 CODECOPY PUSH1 0x0 RETURN INVALID PUSH1 0x80 PUSH1 0x40 MSTORE CALLVALUE DUP1 ISZERO PUSH2 0x10 JUMPI PUSH1 0x0 DUP1 REVERT JUMPDEST POP PUSH1 0x4 CALLDATASIZE LT PUSH2 0x41 JUMPI PUSH1 0x0 CALLDATALOAD PUSH1 0xE0 SHR DUP1 PUSH4 0x188EC356 EQ PUSH2 0x46 JUMPI DUP1 PUSH4 0xA163A624 EQ PUSH2 0x64 JUMPI DUP1 PUSH4 0xD33219B4 EQ PUSH2 0x82 JUMPI JUMPDEST PUSH1 0x0 DUP1 REVERT JUMPDEST PUSH2 0x4E PUSH2 0xA0 JUMP JUMPDEST PUSH1 0x40 MLOAD PUSH2 0x5B SWAP2 SWAP1 PUSH2 0x1F7 JUMP JUMPDEST PUSH1 0x40 MLOAD DUP1 SWAP2 SUB SWAP1 RETURN JUMPDEST PUSH2 0x6C PUSH2 0xB4 JUMP JUMPDEST PUSH1 0x40 MLOAD PUSH2 0x79 SWAP2 SWAP1 PUSH2 0x1F7 JUMP JUMPDEST PUSH1 0x40 MLOAD DUP1 SWAP2 SUB SWAP1 RETURN JUMPDEST PUSH2 0x8A PUSH2 0x157 JUMP JUMPDEST PUSH1 0x40 MLOAD PUSH2 0x97 SWAP2 SWAP1 PUSH2 0x1BC JUMP JUMPDEST PUSH1 0x40 MLOAD DUP1 SWAP2 SUB SWAP1 RETURN JUMPDEST PUSH1 0x0 PUSH1 0x64 TIMESTAMP PUSH2 0xAF SWAP2 SWAP1 PUSH2 0x223 JUMP JUMPDEST SWAP1 POP SWAP1 JUMP JUMPDEST PUSH1 0x0 DUP1 PUSH1 0x0 SWAP1 SLOAD SWAP1 PUSH2 0x100 EXP SWAP1 DIV PUSH20 0xFFFFFFFFFFFFFFFFFFFFFFFFFFFFFFFFFFFFFFFF AND PUSH20 0xFFFFFFFFFFFFFFFFFFFFFFFFFFFFFFFFFFFFFFFF AND CALLER PUSH20 0xFFFFFFFFFFFFFFFFFFFFFFFFFFFFFFFFFFFFFFFF AND EQ PUSH2 0x145 JUMPI PUSH1 0x40 MLOAD PUSH32 0x8C379A000000000000000000000000000000000000000000000000000000000 DUP2 MSTORE PUSH1 0x4 ADD PUSH2 0x13C SWAP1 PUSH2 0x1D7 JUMP JUMPDEST PUSH1 0x40 MLOAD DUP1 SWAP2 SUB SWAP1 REVERT JUMPDEST PUSH1 0x64 TIMESTAMP PUSH2 0x152 SWAP2 SWAP1 PUSH2 0x223 JUMP JUMPDEST SWAP1 POP SWAP1 JUMP JUMPDEST PUSH1 0x0 DUP1 SLOAD SWAP1 PUSH2 0x100 EXP SWAP1 DIV PUSH20 0xFFFFFFFFFFFFFFFFFFFFFFFFFFFFFFFFFFFFFFFF AND DUP2 JUMP JUMPDEST PUSH2 0x184 DUP2 PUSH2 0x279 JUMP JUMPDEST DUP3 MSTORE POP POP JUMP JUMPDEST PUSH1 0x0 PUSH2 0x197 PUSH1 0x9 DUP4 PUSH2 0x212 JUMP JUMPDEST SWAP2 POP PUSH2 0x1A2 DUP3 PUSH2 0x2E4 JUMP JUMPDEST PUSH1 0x20 DUP3 ADD SWAP1 POP SWAP2 SWAP1 POP JUMP JUMPDEST PUSH2 0x1B6 DUP2 PUSH2 0x2AB JUMP JUMPDEST DUP3 MSTORE POP POP JUMP JUMPDEST PUSH1 0x0 PUSH1 0x20 DUP3 ADD SWAP1 POP PUSH2 0x1D1 PUSH1 0x0 DUP4 ADD DUP5 PUSH2 0x17B JUMP JUMPDEST SWAP3 SWAP2 POP POP JUMP JUMPDEST PUSH1 0x0 PUSH1 0x20 DUP3 ADD SWAP1 POP DUP2 DUP2 SUB PUSH1 0x0 DUP4 ADD MSTORE PUSH2 0x1F0 DUP2 PUSH2 0x18A JUMP JUMPDEST SWAP1 POP SWAP2 SWAP1 POP JUMP JUMPDEST PUSH1 0x0 PUSH1 0x20 DUP3 ADD SWAP1 POP PUSH2 0x20C PUSH1 0x0 DUP4 ADD DUP5 PUSH2 0x1AD JUMP JUMPDEST SWAP3 SWAP2 POP POP JUMP JUMPDEST PUSH1 0x0 DUP3 DUP3 MSTORE PUSH1 0x20 DUP3 ADD SWAP1 POP SWAP3 SWAP2 POP POP JUMP JUMPDEST PUSH1 0x0 PUSH2 0x22E DUP3 PUSH2 0x2AB JUMP JUMPDEST SWAP2 POP PUSH2 0x239 DUP4 PUSH2 0x2AB JUMP JUMPDEST SWAP3 POP DUP3 PUSH32 0xFFFFFFFFFFFFFFFFFFFFFFFFFFFFFFFFFFFFFFFFFFFFFFFFFFFFFFFFFFFFFFFF SUB DUP3 GT ISZERO PUSH2 0x26E JUMPI PUSH2 0x26D PUSH2 0x2B5 JUMP JUMPDEST JUMPDEST DUP3 DUP3 ADD SWAP1 POP SWAP3 SWAP2 POP POP JUMP JUMPDEST PUSH1 0x0 PUSH2 0x284 DUP3 PUSH2 0x28B JUMP JUMPDEST SWAP1 POP SWAP2 SWAP1 POP JUMP JUMPDEST PUSH1 0x0 PUSH20 0xFFFFFFFFFFFFFFFFFFFFFFFFFFFFFFFFFFFFFFFF DUP3 AND SWAP1 POP SWAP2 SWAP1 POP JUMP JUMPDEST PUSH1 0x0 DUP2 SWAP1 POP SWAP2 SWAP1 POP JUMP JUMPDEST PUSH32 0x4E487B7100000000000000000000000000000000000000000000000000000000 PUSH1 0x0 MSTORE PUSH1 0x11 PUSH1 0x4 MSTORE PUSH1 0x24 PUSH1 0x0 REVERT JUMPDEST PUSH32 0x6E6F74206F776E65720000000000000000000000000000000000000000000000 PUSH1 0x0 DUP3 ADD MSTORE POP JUMP INVALID LOG2 PUSH5 0x6970667358 0x22 SLT KECCAK256 SWAP1 0xB4 DUP7 0x2F 0xC 0xCE 0xAA LT CODECOPY 0xB2 COINBASE 0xBD CREATE2 PUSH13 0xBEAB7FFDE0DE92F2630E23D39A NUMBER ISZERO PUSH25 0xA75264736F6C63430008070033000000000000000000000000 "
				},
				"gasEstimates": {
					"creation": {
						"codeDepositCost": "167000",
						"executionCost": "infinite",
						"totalCost": "infinite"
					},
					"external": {
						"Test()": "infinite",
						"getTimestamp()": "infinite",
						"timelock()": "2533"
					}
				},
				"methodIdentifiers": {
					"Test()": "a163a624",
					"getTimestamp()": "188ec356",
					"timelock()": "d33219b4"
				}
			},
			"storageLayout": {
				"storage": [
					{
						"astId": 338,
						"contract": "Contracts/timelock.sol:TestTimelock",
						"label": "timelock",
						"offset": 0,
						"slot": "0",
						"type": "t_address"
					}
				],
				"types": {
					"t_address": {
						"encoding": "inplace",
						"label": "address",
						"numberOfBytes": "20"
					}
				}
			},
			"userdoc": {
				"kind": "user",
				"methods": {},
				"version": 1
			}
		}
	}
}