{
	"Contracts/accessControl.sol": {
		"AccessControl": {
			"abi": [
				{
					"inputs": [],
					"stateMutability": "nonpayable",
					"type": "constructor"
				},
				{
					"anonymous": false,
					"inputs": [
						{
							"indexed": true,
							"internalType": "bytes32",
							"name": "role",
							"type": "bytes32"
						},
						{
							"indexed": true,
							"internalType": "address",
							"name": "account",
							"type": "address"
						}
					],
					"name": "grantRole",
					"type": "event"
				},
				{
					"anonymous": false,
					"inputs": [
						{
							"indexed": true,
							"internalType": "bytes32",
							"name": "role",
							"type": "bytes32"
						},
						{
							"indexed": true,
							"internalType": "address",
							"name": "account",
							"type": "address"
						}
					],
					"name": "revokeRole",
					"type": "event"
				},
				{
					"inputs": [
						{
							"internalType": "bytes32",
							"name": "_role",
							"type": "bytes32"
						},
						{
							"internalType": "address",
							"name": "_account",
							"type": "address"
						}
					],
					"name": "GrantRole",
					"outputs": [],
					"stateMutability": "nonpayable",
					"type": "function"
				},
				{
					"inputs": [
						{
							"internalType": "bytes32",
							"name": "_role",
							"type": "bytes32"
						},
						{
							"internalType": "address",
							"name": "_account",
							"type": "address"
						}
					],
					"name": "RevokeRole",
					"outputs": [],
					"stateMutability": "nonpayable",
					"type": "function"
				},
				{
					"inputs": [
						{
							"internalType": "bytes32",
							"name": "",
							"type": "bytes32"
						},
						{
							"internalType": "address",
							"name": "",
							"type": "address"
						}
					],
					"name": "roles",
					"outputs": [
						{
							"internalType": "bool",
							"name": "",
							"type": "bool"
						}
					],
					"stateMutability": "view",
					"type": "function"
				}
			],
			"devdoc": {
				"kind": "dev",
				"methods": {},
				"version": 1
			},
			"evm": {
				"assembly": "    /* \"Contracts/accessControl.sol\":35:1202  contract AccessControl{\r... */\n  mstore(0x40, 0x80)\n    /* \"Contracts/accessControl.sol\":66:127  constructor(){\r... */\n  callvalue\n  dup1\n  iszero\n  tag_1\n  jumpi\n  0x00\n  dup1\n  revert\ntag_1:\n  pop\n    /* \"Contracts/accessControl.sol\":90:119  _grantRole(ADMIN, msg.sender) */\n  tag_4\n    /* \"Contracts/accessControl.sol\":383:408  abi.encodePacked(\"ADMIN\") */\n  add(0x20, mload(0x40))\n  tag_5\n  swap1\n  tag_6\n  jump\t// in\ntag_5:\n  mload(0x40)\n  0x20\n  dup2\n  dup4\n  sub\n  sub\n  dup2\n  mstore\n  swap1\n  0x40\n  mstore\n    /* \"Contracts/accessControl.sol\":373:409  keccak256(abi.encodePacked(\"ADMIN\")) */\n  dup1\n  mload\n  swap1\n  0x20\n  add\n  keccak256\n    /* \"Contracts/accessControl.sol\":108:118  msg.sender */\n  caller\n    /* \"Contracts/accessControl.sol\":90:100  _grantRole */\n  shl(0x20, tag_7)\n    /* \"Contracts/accessControl.sol\":90:119  _grantRole(ADMIN, msg.sender) */\n  0x20\n  shr\n  jump\t// in\ntag_4:\n    /* \"Contracts/accessControl.sol\":35:1202  contract AccessControl{\r... */\n  jump(tag_8)\n    /* \"Contracts/accessControl.sol\":613:765  function _grantRole(bytes32 _role, address _account) internal {\r... */\ntag_7:\n    /* \"Contracts/accessControl.sol\":711:715  true */\n  0x01\n    /* \"Contracts/accessControl.sol\":686:691  roles */\n  0x00\n    /* \"Contracts/accessControl.sol\":686:698  roles[_role] */\n  dup1\n    /* \"Contracts/accessControl.sol\":692:697  _role */\n  dup5\n    /* \"Contracts/accessControl.sol\":686:698  roles[_role] */\n  dup2\n  mstore\n  0x20\n  add\n  swap1\n  dup2\n  mstore\n  0x20\n  add\n  0x00\n  keccak256\n    /* \"Contracts/accessControl.sol\":686:708  roles[_role][_account] */\n  0x00\n    /* \"Contracts/accessControl.sol\":699:707  _account */\n  dup4\n    /* \"Contracts/accessControl.sol\":686:708  roles[_role][_account] */\n  0xffffffffffffffffffffffffffffffffffffffff\n  and\n  0xffffffffffffffffffffffffffffffffffffffff\n  and\n  dup2\n  mstore\n  0x20\n  add\n  swap1\n  dup2\n  mstore\n  0x20\n  add\n  0x00\n  keccak256\n  0x00\n    /* \"Contracts/accessControl.sol\":686:715  roles[_role][_account] = true */\n  0x0100\n  exp\n  dup2\n  sload\n  dup2\n  0xff\n  mul\n  not\n  and\n  swap1\n  dup4\n  iszero\n  iszero\n  mul\n  or\n  swap1\n  sstore\n  pop\n    /* \"Contracts/accessControl.sol\":748:756  _account */\n  dup1\n    /* \"Contracts/accessControl.sol\":731:757  grantRole(_role, _account) */\n  0xffffffffffffffffffffffffffffffffffffffff\n  and\n    /* \"Contracts/accessControl.sol\":741:746  _role */\n  dup3\n    /* \"Contracts/accessControl.sol\":731:757  grantRole(_role, _account) */\n  0x2f2ff15deca029b64bbc0874ae59c8f39be024a95aa718b4c13ca407db350be8\n  mload(0x40)\n  mload(0x40)\n  dup1\n  swap2\n  sub\n  swap1\n  log3\n    /* \"Contracts/accessControl.sol\":613:765  function _grantRole(bytes32 _role, address _account) internal {\r... */\n  pop\n  pop\n  jump\t// out\n    /* \"#utility.yul\":7:407   */\ntag_11:\n    /* \"#utility.yul\":167:170   */\n  0x00\n    /* \"#utility.yul\":188:272   */\n  tag_13\n    /* \"#utility.yul\":270:271   */\n  0x05\n    /* \"#utility.yul\":265:268   */\n  dup4\n    /* \"#utility.yul\":188:272   */\n  tag_14\n  jump\t// in\ntag_13:\n    /* \"#utility.yul\":181:272   */\n  swap2\n  pop\n    /* \"#utility.yul\":281:374   */\n  tag_15\n    /* \"#utility.yul\":370:373   */\n  dup3\n    /* \"#utility.yul\":281:374   */\n  tag_16\n  jump\t// in\ntag_15:\n    /* \"#utility.yul\":399:400   */\n  0x05\n    /* \"#utility.yul\":394:397   */\n  dup3\n    /* \"#utility.yul\":390:401   */\n  add\n    /* \"#utility.yul\":383:401   */\n  swap1\n  pop\n    /* \"#utility.yul\":7:407   */\n  swap2\n  swap1\n  pop\n  jump\t// out\n    /* \"#utility.yul\":413:794   */\ntag_6:\n    /* \"#utility.yul\":598:601   */\n  0x00\n    /* \"#utility.yul\":620:768   */\n  tag_18\n    /* \"#utility.yul\":764:767   */\n  dup3\n    /* \"#utility.yul\":620:768   */\n  tag_11\n  jump\t// in\ntag_18:\n    /* \"#utility.yul\":613:768   */\n  swap2\n  pop\n    /* \"#utility.yul\":785:788   */\n  dup2\n    /* \"#utility.yul\":778:788   */\n  swap1\n  pop\n    /* \"#utility.yul\":413:794   */\n  swap2\n  swap1\n  pop\n  jump\t// out\n    /* \"#utility.yul\":800:948   */\ntag_14:\n    /* \"#utility.yul\":902:913   */\n  0x00\n    /* \"#utility.yul\":939:942   */\n  dup2\n    /* \"#utility.yul\":924:942   */\n  swap1\n  pop\n    /* \"#utility.yul\":800:948   */\n  swap3\n  swap2\n  pop\n  pop\n  jump\t// out\n    /* \"#utility.yul\":954:1109   */\ntag_16:\n    /* \"#utility.yul\":1094:1101   */\n  0x41444d494e000000000000000000000000000000000000000000000000000000\n    /* \"#utility.yul\":1090:1091   */\n  0x00\n    /* \"#utility.yul\":1082:1088   */\n  dup3\n    /* \"#utility.yul\":1078:1092   */\n  add\n    /* \"#utility.yul\":1071:1102   */\n  mstore\n    /* \"#utility.yul\":954:1109   */\n  pop\n  jump\t// out\n    /* \"Contracts/accessControl.sol\":35:1202  contract AccessControl{\r... */\ntag_8:\n  dataSize(sub_0)\n  dup1\n  dataOffset(sub_0)\n  0x00\n  codecopy\n  0x00\n  return\nstop\n\nsub_0: assembly {\n        /* \"Contracts/accessControl.sol\":35:1202  contract AccessControl{\r... */\n      mstore(0x40, 0x80)\n      callvalue\n      dup1\n      iszero\n      tag_1\n      jumpi\n      0x00\n      dup1\n      revert\n    tag_1:\n      pop\n      jumpi(tag_2, lt(calldatasize, 0x04))\n      shr(0xe0, calldataload(0x00))\n      dup1\n      0x5a06360d\n      eq\n      tag_3\n      jumpi\n      dup1\n      0x76e6093c\n      eq\n      tag_4\n      jumpi\n      dup1\n      0xf8fc08b9\n      eq\n      tag_5\n      jumpi\n    tag_2:\n      0x00\n      dup1\n      revert\n        /* \"Contracts/accessControl.sol\":931:1056  function GrantRole(bytes32 _role, address _account) external onlyOwner(ADMIN){\r... */\n    tag_3:\n      tag_6\n      0x04\n      dup1\n      calldatasize\n      sub\n      dup2\n      add\n      swap1\n      tag_7\n      swap2\n      swap1\n      tag_8\n      jump\t// in\n    tag_7:\n      tag_9\n      jump\t// in\n    tag_6:\n      stop\n        /* \"Contracts/accessControl.sol\":1062:1187  function RevokeRole(bytes32 _role, address _account) external onlyOwner(ADMIN){\r... */\n    tag_4:\n      tag_10\n      0x04\n      dup1\n      calldatasize\n      sub\n      dup2\n      add\n      swap1\n      tag_11\n      swap2\n      swap1\n      tag_8\n      jump\t// in\n    tag_11:\n      tag_12\n      jump\t// in\n    tag_10:\n      stop\n        /* \"Contracts/accessControl.sol\":274:331  mapping(bytes32 => mapping(address => bool)) public roles */\n    tag_5:\n      tag_13\n      0x04\n      dup1\n      calldatasize\n      sub\n      dup2\n      add\n      swap1\n      tag_14\n      swap2\n      swap1\n      tag_8\n      jump\t// in\n    tag_14:\n      tag_15\n      jump\t// in\n    tag_13:\n      mload(0x40)\n      tag_16\n      swap2\n      swap1\n      tag_17\n      jump\t// in\n    tag_16:\n      mload(0x40)\n      dup1\n      swap2\n      sub\n      swap1\n      return\n        /* \"Contracts/accessControl.sol\":931:1056  function GrantRole(bytes32 _role, address _account) external onlyOwner(ADMIN){\r... */\n    tag_9:\n        /* \"Contracts/accessControl.sol\":383:408  abi.encodePacked(\"ADMIN\") */\n      add(0x20, mload(0x40))\n      tag_18\n      swap1\n      tag_19\n      jump\t// in\n    tag_18:\n      mload(0x40)\n      0x20\n      dup2\n      dup4\n      sub\n      sub\n      dup2\n      mstore\n      swap1\n      0x40\n      mstore\n        /* \"Contracts/accessControl.sol\":373:409  keccak256(abi.encodePacked(\"ADMIN\")) */\n      dup1\n      mload\n      swap1\n      0x20\n      add\n      keccak256\n        /* \"Contracts/accessControl.sol\":544:549  roles */\n      0x00\n        /* \"Contracts/accessControl.sol\":544:556  roles[_role] */\n      dup1\n        /* \"Contracts/accessControl.sol\":550:555  _role */\n      dup3\n        /* \"Contracts/accessControl.sol\":544:556  roles[_role] */\n      dup2\n      mstore\n      0x20\n      add\n      swap1\n      dup2\n      mstore\n      0x20\n      add\n      0x00\n      keccak256\n        /* \"Contracts/accessControl.sol\":544:568  roles[_role][msg.sender] */\n      0x00\n        /* \"Contracts/accessControl.sol\":557:567  msg.sender */\n      caller\n        /* \"Contracts/accessControl.sol\":544:568  roles[_role][msg.sender] */\n      0xffffffffffffffffffffffffffffffffffffffff\n      and\n      0xffffffffffffffffffffffffffffffffffffffff\n      and\n      dup2\n      mstore\n      0x20\n      add\n      swap1\n      dup2\n      mstore\n      0x20\n      add\n      0x00\n      keccak256\n      0x00\n      swap1\n      sload\n      swap1\n      0x0100\n      exp\n      swap1\n      div\n      0xff\n      and\n        /* \"Contracts/accessControl.sol\":536:587  require(roles[_role][msg.sender], \"not Authorized\") */\n      tag_21\n      jumpi\n      mload(0x40)\n      0x08c379a000000000000000000000000000000000000000000000000000000000\n      dup2\n      mstore\n      0x04\n      add\n      tag_22\n      swap1\n      tag_23\n      jump\t// in\n    tag_22:\n      mload(0x40)\n      dup1\n      swap2\n      sub\n      swap1\n      revert\n    tag_21:\n        /* \"Contracts/accessControl.sol\":1019:1046  _grantRole(_role, _account) */\n      tag_25\n        /* \"Contracts/accessControl.sol\":1030:1035  _role */\n      dup4\n        /* \"Contracts/accessControl.sol\":1037:1045  _account */\n      dup4\n        /* \"Contracts/accessControl.sol\":1019:1029  _grantRole */\n      tag_26\n        /* \"Contracts/accessControl.sol\":1019:1046  _grantRole(_role, _account) */\n      jump\t// in\n    tag_25:\n        /* \"Contracts/accessControl.sol\":931:1056  function GrantRole(bytes32 _role, address _account) external onlyOwner(ADMIN){\r... */\n      pop\n      pop\n      pop\n      jump\t// out\n        /* \"Contracts/accessControl.sol\":1062:1187  function RevokeRole(bytes32 _role, address _account) external onlyOwner(ADMIN){\r... */\n    tag_12:\n        /* \"Contracts/accessControl.sol\":383:408  abi.encodePacked(\"ADMIN\") */\n      add(0x20, mload(0x40))\n      tag_27\n      swap1\n      tag_19\n      jump\t// in\n    tag_27:\n      mload(0x40)\n      0x20\n      dup2\n      dup4\n      sub\n      sub\n      dup2\n      mstore\n      swap1\n      0x40\n      mstore\n        /* \"Contracts/accessControl.sol\":373:409  keccak256(abi.encodePacked(\"ADMIN\")) */\n      dup1\n      mload\n      swap1\n      0x20\n      add\n      keccak256\n        /* \"Contracts/accessControl.sol\":544:549  roles */\n      0x00\n        /* \"Contracts/accessControl.sol\":544:556  roles[_role] */\n      dup1\n        /* \"Contracts/accessControl.sol\":550:555  _role */\n      dup3\n        /* \"Contracts/accessControl.sol\":544:556  roles[_role] */\n      dup2\n      mstore\n      0x20\n      add\n      swap1\n      dup2\n      mstore\n      0x20\n      add\n      0x00\n      keccak256\n        /* \"Contracts/accessControl.sol\":544:568  roles[_role][msg.sender] */\n      0x00\n        /* \"Contracts/accessControl.sol\":557:567  msg.sender */\n      caller\n        /* \"Contracts/accessControl.sol\":544:568  roles[_role][msg.sender] */\n      0xffffffffffffffffffffffffffffffffffffffff\n      and\n      0xffffffffffffffffffffffffffffffffffffffff\n      and\n      dup2\n      mstore\n      0x20\n      add\n      swap1\n      dup2\n      mstore\n      0x20\n      add\n      0x00\n      keccak256\n      0x00\n      swap1\n      sload\n      swap1\n      0x0100\n      exp\n      swap1\n      div\n      0xff\n      and\n        /* \"Contracts/accessControl.sol\":536:587  require(roles[_role][msg.sender], \"not Authorized\") */\n      tag_29\n      jumpi\n      mload(0x40)\n      0x08c379a000000000000000000000000000000000000000000000000000000000\n      dup2\n      mstore\n      0x04\n      add\n      tag_30\n      swap1\n      tag_23\n      jump\t// in\n    tag_30:\n      mload(0x40)\n      dup1\n      swap2\n      sub\n      swap1\n      revert\n    tag_29:\n        /* \"Contracts/accessControl.sol\":1151:1179  _revokeRole(_role, _account) */\n      tag_32\n        /* \"Contracts/accessControl.sol\":1163:1168  _role */\n      dup4\n        /* \"Contracts/accessControl.sol\":1170:1178  _account */\n      dup4\n        /* \"Contracts/accessControl.sol\":1151:1162  _revokeRole */\n      tag_33\n        /* \"Contracts/accessControl.sol\":1151:1179  _revokeRole(_role, _account) */\n      jump\t// in\n    tag_32:\n        /* \"Contracts/accessControl.sol\":1062:1187  function RevokeRole(bytes32 _role, address _account) external onlyOwner(ADMIN){\r... */\n      pop\n      pop\n      pop\n      jump\t// out\n        /* \"Contracts/accessControl.sol\":274:331  mapping(bytes32 => mapping(address => bool)) public roles */\n    tag_15:\n      mstore(0x20, 0x00)\n      dup2\n      0x00\n      mstore\n      mstore(0x20, keccak256(0x00, 0x40))\n      dup1\n      0x00\n      mstore\n      keccak256(0x00, 0x40)\n      0x00\n      swap2\n      pop\n      swap2\n      pop\n      swap1\n      sload\n      swap1\n      0x0100\n      exp\n      swap1\n      div\n      0xff\n      and\n      dup2\n      jump\t// out\n        /* \"Contracts/accessControl.sol\":613:765  function _grantRole(bytes32 _role, address _account) internal {\r... */\n    tag_26:\n        /* \"Contracts/accessControl.sol\":711:715  true */\n      0x01\n        /* \"Contracts/accessControl.sol\":686:691  roles */\n      0x00\n        /* \"Contracts/accessControl.sol\":686:698  roles[_role] */\n      dup1\n        /* \"Contracts/accessControl.sol\":692:697  _role */\n      dup5\n        /* \"Contracts/accessControl.sol\":686:698  roles[_role] */\n      dup2\n      mstore\n      0x20\n      add\n      swap1\n      dup2\n      mstore\n      0x20\n      add\n      0x00\n      keccak256\n        /* \"Contracts/accessControl.sol\":686:708  roles[_role][_account] */\n      0x00\n        /* \"Contracts/accessControl.sol\":699:707  _account */\n      dup4\n        /* \"Contracts/accessControl.sol\":686:708  roles[_role][_account] */\n      0xffffffffffffffffffffffffffffffffffffffff\n      and\n      0xffffffffffffffffffffffffffffffffffffffff\n      and\n      dup2\n      mstore\n      0x20\n      add\n      swap1\n      dup2\n      mstore\n      0x20\n      add\n      0x00\n      keccak256\n      0x00\n        /* \"Contracts/accessControl.sol\":686:715  roles[_role][_account] = true */\n      0x0100\n      exp\n      dup2\n      sload\n      dup2\n      0xff\n      mul\n      not\n      and\n      swap1\n      dup4\n      iszero\n      iszero\n      mul\n      or\n      swap1\n      sstore\n      pop\n        /* \"Contracts/accessControl.sol\":748:756  _account */\n      dup1\n        /* \"Contracts/accessControl.sol\":731:757  grantRole(_role, _account) */\n      0xffffffffffffffffffffffffffffffffffffffff\n      and\n        /* \"Contracts/accessControl.sol\":741:746  _role */\n      dup3\n        /* \"Contracts/accessControl.sol\":731:757  grantRole(_role, _account) */\n      0x2f2ff15deca029b64bbc0874ae59c8f39be024a95aa718b4c13ca407db350be8\n      mload(0x40)\n      mload(0x40)\n      dup1\n      swap2\n      sub\n      swap1\n      log3\n        /* \"Contracts/accessControl.sol\":613:765  function _grantRole(bytes32 _role, address _account) internal {\r... */\n      pop\n      pop\n      jump\t// out\n        /* \"Contracts/accessControl.sol\":771:925  function _revokeRole(bytes32 _role, address _account) internal{\r... */\n    tag_33:\n        /* \"Contracts/accessControl.sol\":869:874  false */\n      0x00\n        /* \"Contracts/accessControl.sol\":844:849  roles */\n      dup1\n        /* \"Contracts/accessControl.sol\":844:856  roles[_role] */\n      0x00\n        /* \"Contracts/accessControl.sol\":850:855  _role */\n      dup5\n        /* \"Contracts/accessControl.sol\":844:856  roles[_role] */\n      dup2\n      mstore\n      0x20\n      add\n      swap1\n      dup2\n      mstore\n      0x20\n      add\n      0x00\n      keccak256\n        /* \"Contracts/accessControl.sol\":844:866  roles[_role][_account] */\n      0x00\n        /* \"Contracts/accessControl.sol\":857:865  _account */\n      dup4\n        /* \"Contracts/accessControl.sol\":844:866  roles[_role][_account] */\n      0xffffffffffffffffffffffffffffffffffffffff\n      and\n      0xffffffffffffffffffffffffffffffffffffffff\n      and\n      dup2\n      mstore\n      0x20\n      add\n      swap1\n      dup2\n      mstore\n      0x20\n      add\n      0x00\n      keccak256\n      0x00\n        /* \"Contracts/accessControl.sol\":844:874  roles[_role][_account] = false */\n      0x0100\n      exp\n      dup2\n      sload\n      dup2\n      0xff\n      mul\n      not\n      and\n      swap1\n      dup4\n      iszero\n      iszero\n      mul\n      or\n      swap1\n      sstore\n      pop\n        /* \"Contracts/accessControl.sol\":908:916  _account */\n      dup1\n        /* \"Contracts/accessControl.sol\":890:917  revokeRole(_role, _account) */\n      0xffffffffffffffffffffffffffffffffffffffff\n      and\n        /* \"Contracts/accessControl.sol\":901:906  _role */\n      dup3\n        /* \"Contracts/accessControl.sol\":890:917  revokeRole(_role, _account) */\n      0xd547741fd8d55981251e167708119763c372f2b41e85a1468b0a759b055a009f\n      mload(0x40)\n      mload(0x40)\n      dup1\n      swap2\n      sub\n      swap1\n      log3\n        /* \"Contracts/accessControl.sol\":771:925  function _revokeRole(bytes32 _role, address _account) internal{\r... */\n      pop\n      pop\n      jump\t// out\n        /* \"#utility.yul\":7:146   */\n    tag_37:\n        /* \"#utility.yul\":53:58   */\n      0x00\n        /* \"#utility.yul\":91:97   */\n      dup2\n        /* \"#utility.yul\":78:98   */\n      calldataload\n        /* \"#utility.yul\":69:98   */\n      swap1\n      pop\n        /* \"#utility.yul\":107:140   */\n      tag_39\n        /* \"#utility.yul\":134:139   */\n      dup2\n        /* \"#utility.yul\":107:140   */\n      tag_40\n      jump\t// in\n    tag_39:\n        /* \"#utility.yul\":7:146   */\n      swap3\n      swap2\n      pop\n      pop\n      jump\t// out\n        /* \"#utility.yul\":152:291   */\n    tag_41:\n        /* \"#utility.yul\":198:203   */\n      0x00\n        /* \"#utility.yul\":236:242   */\n      dup2\n        /* \"#utility.yul\":223:243   */\n      calldataload\n        /* \"#utility.yul\":214:243   */\n      swap1\n      pop\n        /* \"#utility.yul\":252:285   */\n      tag_43\n        /* \"#utility.yul\":279:284   */\n      dup2\n        /* \"#utility.yul\":252:285   */\n      tag_44\n      jump\t// in\n    tag_43:\n        /* \"#utility.yul\":152:291   */\n      swap3\n      swap2\n      pop\n      pop\n      jump\t// out\n        /* \"#utility.yul\":297:771   */\n    tag_8:\n        /* \"#utility.yul\":365:371   */\n      0x00\n        /* \"#utility.yul\":373:379   */\n      dup1\n        /* \"#utility.yul\":422:424   */\n      0x40\n        /* \"#utility.yul\":410:419   */\n      dup4\n        /* \"#utility.yul\":401:408   */\n      dup6\n        /* \"#utility.yul\":397:420   */\n      sub\n        /* \"#utility.yul\":393:425   */\n      slt\n        /* \"#utility.yul\":390:509   */\n      iszero\n      tag_46\n      jumpi\n        /* \"#utility.yul\":428:507   */\n      tag_47\n      tag_48\n      jump\t// in\n    tag_47:\n        /* \"#utility.yul\":390:509   */\n    tag_46:\n        /* \"#utility.yul\":548:549   */\n      0x00\n        /* \"#utility.yul\":573:626   */\n      tag_49\n        /* \"#utility.yul\":618:625   */\n      dup6\n        /* \"#utility.yul\":609:615   */\n      dup3\n        /* \"#utility.yul\":598:607   */\n      dup7\n        /* \"#utility.yul\":594:616   */\n      add\n        /* \"#utility.yul\":573:626   */\n      tag_41\n      jump\t// in\n    tag_49:\n        /* \"#utility.yul\":563:626   */\n      swap3\n      pop\n        /* \"#utility.yul\":519:636   */\n      pop\n        /* \"#utility.yul\":675:677   */\n      0x20\n        /* \"#utility.yul\":701:754   */\n      tag_50\n        /* \"#utility.yul\":746:753   */\n      dup6\n        /* \"#utility.yul\":737:743   */\n      dup3\n        /* \"#utility.yul\":726:735   */\n      dup7\n        /* \"#utility.yul\":722:744   */\n      add\n        /* \"#utility.yul\":701:754   */\n      tag_37\n      jump\t// in\n    tag_50:\n        /* \"#utility.yul\":691:754   */\n      swap2\n      pop\n        /* \"#utility.yul\":646:764   */\n      pop\n        /* \"#utility.yul\":297:771   */\n      swap3\n      pop\n      swap3\n      swap1\n      pop\n      jump\t// out\n        /* \"#utility.yul\":777:886   */\n    tag_51:\n        /* \"#utility.yul\":858:879   */\n      tag_53\n        /* \"#utility.yul\":873:878   */\n      dup2\n        /* \"#utility.yul\":858:879   */\n      tag_54\n      jump\t// in\n    tag_53:\n        /* \"#utility.yul\":853:856   */\n      dup3\n        /* \"#utility.yul\":846:880   */\n      mstore\n        /* \"#utility.yul\":777:886   */\n      pop\n      pop\n      jump\t// out\n        /* \"#utility.yul\":892:1258   */\n    tag_55:\n        /* \"#utility.yul\":1034:1037   */\n      0x00\n        /* \"#utility.yul\":1055:1122   */\n      tag_57\n        /* \"#utility.yul\":1119:1121   */\n      0x0e\n        /* \"#utility.yul\":1114:1117   */\n      dup4\n        /* \"#utility.yul\":1055:1122   */\n      tag_58\n      jump\t// in\n    tag_57:\n        /* \"#utility.yul\":1048:1122   */\n      swap2\n      pop\n        /* \"#utility.yul\":1131:1224   */\n      tag_59\n        /* \"#utility.yul\":1220:1223   */\n      dup3\n        /* \"#utility.yul\":1131:1224   */\n      tag_60\n      jump\t// in\n    tag_59:\n        /* \"#utility.yul\":1249:1251   */\n      0x20\n        /* \"#utility.yul\":1244:1247   */\n      dup3\n        /* \"#utility.yul\":1240:1252   */\n      add\n        /* \"#utility.yul\":1233:1252   */\n      swap1\n      pop\n        /* \"#utility.yul\":892:1258   */\n      swap2\n      swap1\n      pop\n      jump\t// out\n        /* \"#utility.yul\":1264:1664   */\n    tag_61:\n        /* \"#utility.yul\":1424:1427   */\n      0x00\n        /* \"#utility.yul\":1445:1529   */\n      tag_63\n        /* \"#utility.yul\":1527:1528   */\n      0x05\n        /* \"#utility.yul\":1522:1525   */\n      dup4\n        /* \"#utility.yul\":1445:1529   */\n      tag_64\n      jump\t// in\n    tag_63:\n        /* \"#utility.yul\":1438:1529   */\n      swap2\n      pop\n        /* \"#utility.yul\":1538:1631   */\n      tag_65\n        /* \"#utility.yul\":1627:1630   */\n      dup3\n        /* \"#utility.yul\":1538:1631   */\n      tag_66\n      jump\t// in\n    tag_65:\n        /* \"#utility.yul\":1656:1657   */\n      0x05\n        /* \"#utility.yul\":1651:1654   */\n      dup3\n        /* \"#utility.yul\":1647:1658   */\n      add\n        /* \"#utility.yul\":1640:1658   */\n      swap1\n      pop\n        /* \"#utility.yul\":1264:1664   */\n      swap2\n      swap1\n      pop\n      jump\t// out\n        /* \"#utility.yul\":1670:2051   */\n    tag_19:\n        /* \"#utility.yul\":1855:1858   */\n      0x00\n        /* \"#utility.yul\":1877:2025   */\n      tag_68\n        /* \"#utility.yul\":2021:2024   */\n      dup3\n        /* \"#utility.yul\":1877:2025   */\n      tag_61\n      jump\t// in\n    tag_68:\n        /* \"#utility.yul\":1870:2025   */\n      swap2\n      pop\n        /* \"#utility.yul\":2042:2045   */\n      dup2\n        /* \"#utility.yul\":2035:2045   */\n      swap1\n      pop\n        /* \"#utility.yul\":1670:2051   */\n      swap2\n      swap1\n      pop\n      jump\t// out\n        /* \"#utility.yul\":2057:2267   */\n    tag_17:\n        /* \"#utility.yul\":2144:2148   */\n      0x00\n        /* \"#utility.yul\":2182:2184   */\n      0x20\n        /* \"#utility.yul\":2171:2180   */\n      dup3\n        /* \"#utility.yul\":2167:2185   */\n      add\n        /* \"#utility.yul\":2159:2185   */\n      swap1\n      pop\n        /* \"#utility.yul\":2195:2260   */\n      tag_70\n        /* \"#utility.yul\":2257:2258   */\n      0x00\n        /* \"#utility.yul\":2246:2255   */\n      dup4\n        /* \"#utility.yul\":2242:2259   */\n      add\n        /* \"#utility.yul\":2233:2239   */\n      dup5\n        /* \"#utility.yul\":2195:2260   */\n      tag_51\n      jump\t// in\n    tag_70:\n        /* \"#utility.yul\":2057:2267   */\n      swap3\n      swap2\n      pop\n      pop\n      jump\t// out\n        /* \"#utility.yul\":2273:2692   */\n    tag_23:\n        /* \"#utility.yul\":2439:2443   */\n      0x00\n        /* \"#utility.yul\":2477:2479   */\n      0x20\n        /* \"#utility.yul\":2466:2475   */\n      dup3\n        /* \"#utility.yul\":2462:2480   */\n      add\n        /* \"#utility.yul\":2454:2480   */\n      swap1\n      pop\n        /* \"#utility.yul\":2526:2535   */\n      dup2\n        /* \"#utility.yul\":2520:2524   */\n      dup2\n        /* \"#utility.yul\":2516:2536   */\n      sub\n        /* \"#utility.yul\":2512:2513   */\n      0x00\n        /* \"#utility.yul\":2501:2510   */\n      dup4\n        /* \"#utility.yul\":2497:2514   */\n      add\n        /* \"#utility.yul\":2490:2537   */\n      mstore\n        /* \"#utility.yul\":2554:2685   */\n      tag_72\n        /* \"#utility.yul\":2680:2684   */\n      dup2\n        /* \"#utility.yul\":2554:2685   */\n      tag_55\n      jump\t// in\n    tag_72:\n        /* \"#utility.yul\":2546:2685   */\n      swap1\n      pop\n        /* \"#utility.yul\":2273:2692   */\n      swap2\n      swap1\n      pop\n      jump\t// out\n        /* \"#utility.yul\":2779:2948   */\n    tag_58:\n        /* \"#utility.yul\":2863:2874   */\n      0x00\n        /* \"#utility.yul\":2897:2903   */\n      dup3\n        /* \"#utility.yul\":2892:2895   */\n      dup3\n        /* \"#utility.yul\":2885:2904   */\n      mstore\n        /* \"#utility.yul\":2937:2941   */\n      0x20\n        /* \"#utility.yul\":2932:2935   */\n      dup3\n        /* \"#utility.yul\":2928:2942   */\n      add\n        /* \"#utility.yul\":2913:2942   */\n      swap1\n      pop\n        /* \"#utility.yul\":2779:2948   */\n      swap3\n      swap2\n      pop\n      pop\n      jump\t// out\n        /* \"#utility.yul\":2954:3102   */\n    tag_64:\n        /* \"#utility.yul\":3056:3067   */\n      0x00\n        /* \"#utility.yul\":3093:3096   */\n      dup2\n        /* \"#utility.yul\":3078:3096   */\n      swap1\n      pop\n        /* \"#utility.yul\":2954:3102   */\n      swap3\n      swap2\n      pop\n      pop\n      jump\t// out\n        /* \"#utility.yul\":3108:3204   */\n    tag_77:\n        /* \"#utility.yul\":3145:3152   */\n      0x00\n        /* \"#utility.yul\":3174:3198   */\n      tag_79\n        /* \"#utility.yul\":3192:3197   */\n      dup3\n        /* \"#utility.yul\":3174:3198   */\n      tag_80\n      jump\t// in\n    tag_79:\n        /* \"#utility.yul\":3163:3198   */\n      swap1\n      pop\n        /* \"#utility.yul\":3108:3204   */\n      swap2\n      swap1\n      pop\n      jump\t// out\n        /* \"#utility.yul\":3210:3300   */\n    tag_54:\n        /* \"#utility.yul\":3244:3251   */\n      0x00\n        /* \"#utility.yul\":3287:3292   */\n      dup2\n        /* \"#utility.yul\":3280:3293   */\n      iszero\n        /* \"#utility.yul\":3273:3294   */\n      iszero\n        /* \"#utility.yul\":3262:3294   */\n      swap1\n      pop\n        /* \"#utility.yul\":3210:3300   */\n      swap2\n      swap1\n      pop\n      jump\t// out\n        /* \"#utility.yul\":3306:3383   */\n    tag_82:\n        /* \"#utility.yul\":3343:3350   */\n      0x00\n        /* \"#utility.yul\":3372:3377   */\n      dup2\n        /* \"#utility.yul\":3361:3377   */\n      swap1\n      pop\n        /* \"#utility.yul\":3306:3383   */\n      swap2\n      swap1\n      pop\n      jump\t// out\n        /* \"#utility.yul\":3389:3515   */\n    tag_80:\n        /* \"#utility.yul\":3426:3433   */\n      0x00\n        /* \"#utility.yul\":3466:3508   */\n      0xffffffffffffffffffffffffffffffffffffffff\n        /* \"#utility.yul\":3459:3464   */\n      dup3\n        /* \"#utility.yul\":3455:3509   */\n      and\n        /* \"#utility.yul\":3444:3509   */\n      swap1\n      pop\n        /* \"#utility.yul\":3389:3515   */\n      swap2\n      swap1\n      pop\n      jump\t// out\n        /* \"#utility.yul\":3644:3761   */\n    tag_48:\n        /* \"#utility.yul\":3753:3754   */\n      0x00\n        /* \"#utility.yul\":3750:3751   */\n      dup1\n        /* \"#utility.yul\":3743:3755   */\n      revert\n        /* \"#utility.yul\":3767:3931   */\n    tag_60:\n        /* \"#utility.yul\":3907:3923   */\n      0x6e6f7420417574686f72697a6564000000000000000000000000000000000000\n        /* \"#utility.yul\":3903:3904   */\n      0x00\n        /* \"#utility.yul\":3895:3901   */\n      dup3\n        /* \"#utility.yul\":3891:3905   */\n      add\n        /* \"#utility.yul\":3884:3924   */\n      mstore\n        /* \"#utility.yul\":3767:3931   */\n      pop\n      jump\t// out\n        /* \"#utility.yul\":3937:4092   */\n    tag_66:\n        /* \"#utility.yul\":4077:4084   */\n      0x41444d494e000000000000000000000000000000000000000000000000000000\n        /* \"#utility.yul\":4073:4074   */\n      0x00\n        /* \"#utility.yul\":4065:4071   */\n      dup3\n        /* \"#utility.yul\":4061:4075   */\n      add\n        /* \"#utility.yul\":4054:4085   */\n      mstore\n        /* \"#utility.yul\":3937:4092   */\n      pop\n      jump\t// out\n        /* \"#utility.yul\":4098:4220   */\n    tag_40:\n        /* \"#utility.yul\":4171:4195   */\n      tag_91\n        /* \"#utility.yul\":4189:4194   */\n      dup2\n        /* \"#utility.yul\":4171:4195   */\n      tag_77\n      jump\t// in\n    tag_91:\n        /* \"#utility.yul\":4164:4169   */\n      dup2\n        /* \"#utility.yul\":4161:4196   */\n      eq\n        /* \"#utility.yul\":4151:4214   */\n      tag_92\n      jumpi\n        /* \"#utility.yul\":4210:4211   */\n      0x00\n        /* \"#utility.yul\":4207:4208   */\n      dup1\n        /* \"#utility.yul\":4200:4212   */\n      revert\n        /* \"#utility.yul\":4151:4214   */\n    tag_92:\n        /* \"#utility.yul\":4098:4220   */\n      pop\n      jump\t// out\n        /* \"#utility.yul\":4226:4348   */\n    tag_44:\n        /* \"#utility.yul\":4299:4323   */\n      tag_94\n        /* \"#utility.yul\":4317:4322   */\n      dup2\n        /* \"#utility.yul\":4299:4323   */\n      tag_82\n      jump\t// in\n    tag_94:\n        /* \"#utility.yul\":4292:4297   */\n      dup2\n        /* \"#utility.yul\":4289:4324   */\n      eq\n        /* \"#utility.yul\":4279:4342   */\n      tag_95\n      jumpi\n        /* \"#utility.yul\":4338:4339   */\n      0x00\n        /* \"#utility.yul\":4335:4336   */\n      dup1\n        /* \"#utility.yul\":4328:4340   */\n      revert\n        /* \"#utility.yul\":4279:4342   */\n    tag_95:\n        /* \"#utility.yul\":4226:4348   */\n      pop\n      jump\t// out\n\n    auxdata: 0xa2646970667358221220520713b7b7a9e744959c83a6e34e66b154da2ec59d8c2ffdb6bbb006f9c6dc0b64736f6c63430008070033\n}\n",
				"bytecode": {
					"linkReferences": {},
					"object": "608060405234801561001057600080fd5b506100456040516020016100239061011d565b604051602081830303815290604052805190602001203361004a60201b60201c565b610166565b600160008084815260200190815260200160002060008373ffffffffffffffffffffffffffffffffffffffff1673ffffffffffffffffffffffffffffffffffffffff16815260200190815260200160002060006101000a81548160ff0219169083151502179055508073ffffffffffffffffffffffffffffffffffffffff16827f2f2ff15deca029b64bbc0874ae59c8f39be024a95aa718b4c13ca407db350be860405160405180910390a35050565b6000610107600583610132565b91506101128261013d565b600582019050919050565b6000610128826100fa565b9150819050919050565b600081905092915050565b7f41444d494e000000000000000000000000000000000000000000000000000000600082015250565b61060b806101756000396000f3fe608060405234801561001057600080fd5b50600436106100415760003560e01c80635a06360d1461004657806376e6093c14610062578063f8fc08b91461007e575b600080fd5b610060600480360381019061005b9190610407565b6100ae565b005b61007c60048036038101906100779190610407565b61017e565b005b61009860048036038101906100939190610407565b61024e565b6040516100a591906104b1565b60405180910390f35b6040516020016100bd9061049c565b6040516020818303038152906040528051906020012060008082815260200190815260200160002060003373ffffffffffffffffffffffffffffffffffffffff1673ffffffffffffffffffffffffffffffffffffffff16815260200190815260200160002060009054906101000a900460ff1661016f576040517f08c379a0000000000000000000000000000000000000000000000000000000008152600401610166906104cc565b60405180910390fd5b610179838361027d565b505050565b60405160200161018d9061049c565b6040516020818303038152906040528051906020012060008082815260200190815260200160002060003373ffffffffffffffffffffffffffffffffffffffff1673ffffffffffffffffffffffffffffffffffffffff16815260200190815260200160002060009054906101000a900460ff1661023f576040517f08c379a0000000000000000000000000000000000000000000000000000000008152600401610236906104cc565b60405180910390fd5b610249838361032d565b505050565b60006020528160005260406000206020528060005260406000206000915091509054906101000a900460ff1681565b600160008084815260200190815260200160002060008373ffffffffffffffffffffffffffffffffffffffff1673ffffffffffffffffffffffffffffffffffffffff16815260200190815260200160002060006101000a81548160ff0219169083151502179055508073ffffffffffffffffffffffffffffffffffffffff16827f2f2ff15deca029b64bbc0874ae59c8f39be024a95aa718b4c13ca407db350be860405160405180910390a35050565b600080600084815260200190815260200160002060008373ffffffffffffffffffffffffffffffffffffffff1673ffffffffffffffffffffffffffffffffffffffff16815260200190815260200160002060006101000a81548160ff0219169083151502179055508073ffffffffffffffffffffffffffffffffffffffff16827fd547741fd8d55981251e167708119763c372f2b41e85a1468b0a759b055a009f60405160405180910390a35050565b6000813590506103ec816105a7565b92915050565b600081359050610401816105be565b92915050565b6000806040838503121561041e5761041d610550565b5b600061042c858286016103f2565b925050602061043d858286016103dd565b9150509250929050565b6104508161051a565b82525050565b6000610463600e836104ec565b915061046e82610555565b602082019050919050565b60006104866005836104fd565b91506104918261057e565b600582019050919050565b60006104a782610479565b9150819050919050565b60006020820190506104c66000830184610447565b92915050565b600060208201905081810360008301526104e581610456565b9050919050565b600082825260208201905092915050565b600081905092915050565b600061051382610530565b9050919050565b60008115159050919050565b6000819050919050565b600073ffffffffffffffffffffffffffffffffffffffff82169050919050565b600080fd5b7f6e6f7420417574686f72697a6564000000000000000000000000000000000000600082015250565b7f41444d494e000000000000000000000000000000000000000000000000000000600082015250565b6105b081610508565b81146105bb57600080fd5b50565b6105c781610526565b81146105d257600080fd5b5056fea2646970667358221220520713b7b7a9e744959c83a6e34e66b154da2ec59d8c2ffdb6bbb006f9c6dc0b64736f6c63430008070033",
					"opcodes": "PUSH1 0x80 PUSH1 0x40 MSTORE CALLVALUE DUP1 ISZERO PUSH2 0x10 JUMPI PUSH1 0x0 DUP1 REVERT JUMPDEST POP PUSH2 0x45 PUSH1 0x40 MLOAD PUSH1 0x20 ADD PUSH2 0x23 SWAP1 PUSH2 0x11D JUMP JUMPDEST PUSH1 0x40 MLOAD PUSH1 0x20 DUP2 DUP4 SUB SUB DUP2 MSTORE SWAP1 PUSH1 0x40 MSTORE DUP1 MLOAD SWAP1 PUSH1 0x20 ADD KECCAK256 CALLER PUSH2 0x4A PUSH1 0x20 SHL PUSH1 0x20 SHR JUMP JUMPDEST PUSH2 0x166 JUMP JUMPDEST PUSH1 0x1 PUSH1 0x0 DUP1 DUP5 DUP2 MSTORE PUSH1 0x20 ADD SWAP1 DUP2 MSTORE PUSH1 0x20 ADD PUSH1 0x0 KECCAK256 PUSH1 0x0 DUP4 PUSH20 0xFFFFFFFFFFFFFFFFFFFFFFFFFFFFFFFFFFFFFFFF AND PUSH20 0xFFFFFFFFFFFFFFFFFFFFFFFFFFFFFFFFFFFFFFFF AND DUP2 MSTORE PUSH1 0x20 ADD SWAP1 DUP2 MSTORE PUSH1 0x20 ADD PUSH1 0x0 KECCAK256 PUSH1 0x0 PUSH2 0x100 EXP DUP2 SLOAD DUP2 PUSH1 0xFF MUL NOT AND SWAP1 DUP4 ISZERO ISZERO MUL OR SWAP1 SSTORE POP DUP1 PUSH20 0xFFFFFFFFFFFFFFFFFFFFFFFFFFFFFFFFFFFFFFFF AND DUP3 PUSH32 0x2F2FF15DECA029B64BBC0874AE59C8F39BE024A95AA718B4C13CA407DB350BE8 PUSH1 0x40 MLOAD PUSH1 0x40 MLOAD DUP1 SWAP2 SUB SWAP1 LOG3 POP POP JUMP JUMPDEST PUSH1 0x0 PUSH2 0x107 PUSH1 0x5 DUP4 PUSH2 0x132 JUMP JUMPDEST SWAP2 POP PUSH2 0x112 DUP3 PUSH2 0x13D JUMP JUMPDEST PUSH1 0x5 DUP3 ADD SWAP1 POP SWAP2 SWAP1 POP JUMP JUMPDEST PUSH1 0x0 PUSH2 0x128 DUP3 PUSH2 0xFA JUMP JUMPDEST SWAP2 POP DUP2 SWAP1 POP SWAP2 SWAP1 POP JUMP JUMPDEST PUSH1 0x0 DUP2 SWAP1 POP SWAP3 SWAP2 POP POP JUMP JUMPDEST PUSH32 0x41444D494E000000000000000000000000000000000000000000000000000000 PUSH1 0x0 DUP3 ADD MSTORE POP JUMP JUMPDEST PUSH2 0x60B DUP1 PUSH2 0x175 PUSH1 0x0 CODECOPY PUSH1 0x0 RETURN INVALID PUSH1 0x80 PUSH1 0x40 MSTORE CALLVALUE DUP1 ISZERO PUSH2 0x10 JUMPI PUSH1 0x0 DUP1 REVERT JUMPDEST POP PUSH1 0x4 CALLDATASIZE LT PUSH2 0x41 JUMPI PUSH1 0x0 CALLDATALOAD PUSH1 0xE0 SHR DUP1 PUSH4 0x5A06360D EQ PUSH2 0x46 JUMPI DUP1 PUSH4 0x76E6093C EQ PUSH2 0x62 JUMPI DUP1 PUSH4 0xF8FC08B9 EQ PUSH2 0x7E JUMPI JUMPDEST PUSH1 0x0 DUP1 REVERT JUMPDEST PUSH2 0x60 PUSH1 0x4 DUP1 CALLDATASIZE SUB DUP2 ADD SWAP1 PUSH2 0x5B SWAP2 SWAP1 PUSH2 0x407 JUMP JUMPDEST PUSH2 0xAE JUMP JUMPDEST STOP JUMPDEST PUSH2 0x7C PUSH1 0x4 DUP1 CALLDATASIZE SUB DUP2 ADD SWAP1 PUSH2 0x77 SWAP2 SWAP1 PUSH2 0x407 JUMP JUMPDEST PUSH2 0x17E JUMP JUMPDEST STOP JUMPDEST PUSH2 0x98 PUSH1 0x4 DUP1 CALLDATASIZE SUB DUP2 ADD SWAP1 PUSH2 0x93 SWAP2 SWAP1 PUSH2 0x407 JUMP JUMPDEST PUSH2 0x24E JUMP JUMPDEST PUSH1 0x40 MLOAD PUSH2 0xA5 SWAP2 SWAP1 PUSH2 0x4B1 JUMP JUMPDEST PUSH1 0x40 MLOAD DUP1 SWAP2 SUB SWAP1 RETURN JUMPDEST PUSH1 0x40 MLOAD PUSH1 0x20 ADD PUSH2 0xBD SWAP1 PUSH2 0x49C JUMP JUMPDEST PUSH1 0x40 MLOAD PUSH1 0x20 DUP2 DUP4 SUB SUB DUP2 MSTORE SWAP1 PUSH1 0x40 MSTORE DUP1 MLOAD SWAP1 PUSH1 0x20 ADD KECCAK256 PUSH1 0x0 DUP1 DUP3 DUP2 MSTORE PUSH1 0x20 ADD SWAP1 DUP2 MSTORE PUSH1 0x20 ADD PUSH1 0x0 KECCAK256 PUSH1 0x0 CALLER PUSH20 0xFFFFFFFFFFFFFFFFFFFFFFFFFFFFFFFFFFFFFFFF AND PUSH20 0xFFFFFFFFFFFFFFFFFFFFFFFFFFFFFFFFFFFFFFFF AND DUP2 MSTORE PUSH1 0x20 ADD SWAP1 DUP2 MSTORE PUSH1 0x20 ADD PUSH1 0x0 KECCAK256 PUSH1 0x0 SWAP1 SLOAD SWAP1 PUSH2 0x100 EXP SWAP1 DIV PUSH1 0xFF AND PUSH2 0x16F JUMPI PUSH1 0x40 MLOAD PUSH32 0x8C379A000000000000000000000000000000000000000000000000000000000 DUP2 MSTORE PUSH1 0x4 ADD PUSH2 0x166 SWAP1 PUSH2 0x4CC JUMP JUMPDEST PUSH1 0x40 MLOAD DUP1 SWAP2 SUB SWAP1 REVERT JUMPDEST PUSH2 0x179 DUP4 DUP4 PUSH2 0x27D JUMP JUMPDEST POP POP POP JUMP JUMPDEST PUSH1 0x40 MLOAD PUSH1 0x20 ADD PUSH2 0x18D SWAP1 PUSH2 0x49C JUMP JUMPDEST PUSH1 0x40 MLOAD PUSH1 0x20 DUP2 DUP4 SUB SUB DUP2 MSTORE SWAP1 PUSH1 0x40 MSTORE DUP1 MLOAD SWAP1 PUSH1 0x20 ADD KECCAK256 PUSH1 0x0 DUP1 DUP3 DUP2 MSTORE PUSH1 0x20 ADD SWAP1 DUP2 MSTORE PUSH1 0x20 ADD PUSH1 0x0 KECCAK256 PUSH1 0x0 CALLER PUSH20 0xFFFFFFFFFFFFFFFFFFFFFFFFFFFFFFFFFFFFFFFF AND PUSH20 0xFFFFFFFFFFFFFFFFFFFFFFFFFFFFFFFFFFFFFFFF AND DUP2 MSTORE PUSH1 0x20 ADD SWAP1 DUP2 MSTORE PUSH1 0x20 ADD PUSH1 0x0 KECCAK256 PUSH1 0x0 SWAP1 SLOAD SWAP1 PUSH2 0x100 EXP SWAP1 DIV PUSH1 0xFF AND PUSH2 0x23F JUMPI PUSH1 0x40 MLOAD PUSH32 0x8C379A000000000000000000000000000000000000000000000000000000000 DUP2 MSTORE PUSH1 0x4 ADD PUSH2 0x236 SWAP1 PUSH2 0x4CC JUMP JUMPDEST PUSH1 0x40 MLOAD DUP1 SWAP2 SUB SWAP1 REVERT JUMPDEST PUSH2 0x249 DUP4 DUP4 PUSH2 0x32D JUMP JUMPDEST POP POP POP JUMP JUMPDEST PUSH1 0x0 PUSH1 0x20 MSTORE DUP2 PUSH1 0x0 MSTORE PUSH1 0x40 PUSH1 0x0 KECCAK256 PUSH1 0x20 MSTORE DUP1 PUSH1 0x0 MSTORE PUSH1 0x40 PUSH1 0x0 KECCAK256 PUSH1 0x0 SWAP2 POP SWAP2 POP SWAP1 SLOAD SWAP1 PUSH2 0x100 EXP SWAP1 DIV PUSH1 0xFF AND DUP2 JUMP JUMPDEST PUSH1 0x1 PUSH1 0x0 DUP1 DUP5 DUP2 MSTORE PUSH1 0x20 ADD SWAP1 DUP2 MSTORE PUSH1 0x20 ADD PUSH1 0x0 KECCAK256 PUSH1 0x0 DUP4 PUSH20 0xFFFFFFFFFFFFFFFFFFFFFFFFFFFFFFFFFFFFFFFF AND PUSH20 0xFFFFFFFFFFFFFFFFFFFFFFFFFFFFFFFFFFFFFFFF AND DUP2 MSTORE PUSH1 0x20 ADD SWAP1 DUP2 MSTORE PUSH1 0x20 ADD PUSH1 0x0 KECCAK256 PUSH1 0x0 PUSH2 0x100 EXP DUP2 SLOAD DUP2 PUSH1 0xFF MUL NOT AND SWAP1 DUP4 ISZERO ISZERO MUL OR SWAP1 SSTORE POP DUP1 PUSH20 0xFFFFFFFFFFFFFFFFFFFFFFFFFFFFFFFFFFFFFFFF AND DUP3 PUSH32 0x2F2FF15DECA029B64BBC0874AE59C8F39BE024A95AA718B4C13CA407DB350BE8 PUSH1 0x40 MLOAD PUSH1 0x40 MLOAD DUP1 SWAP2 SUB SWAP1 LOG3 POP POP JUMP JUMPDEST PUSH1 0x0 DUP1 PUSH1 0x0 DUP5 DUP2 MSTORE PUSH1 0x20 ADD SWAP1 DUP2 MSTORE PUSH1 0x20 ADD PUSH1 0x0 KECCAK256 PUSH1 0x0 DUP4 PUSH20 0xFFFFFFFFFFFFFFFFFFFFFFFFFFFFFFFFFFFFFFFF AND PUSH20 0xFFFFFFFFFFFFFFFFFFFFFFFFFFFFFFFFFFFFFFFF AND DUP2 MSTORE PUSH1 0x20 ADD SWAP1 DUP2 MSTORE PUSH1 0x20 ADD PUSH1 0x0 KECCAK256 PUSH1 0x0 PUSH2 0x100 EXP DUP2 SLOAD DUP2 PUSH1 0xFF MUL NOT AND SWAP1 DUP4 ISZERO ISZERO MUL OR SWAP1 SSTORE POP DUP1 PUSH20 0xFFFFFFFFFFFFFFFFFFFFFFFFFFFFFFFFFFFFFFFF AND DUP3 PUSH32 0xD547741FD8D55981251E167708119763C372F2B41E85A1468B0A759B055A009F PUSH1 0x40 MLOAD PUSH1 0x40 MLOAD DUP1 SWAP2 SUB SWAP1 LOG3 POP POP JUMP JUMPDEST PUSH1 0x0 DUP2 CALLDATALOAD SWAP1 POP PUSH2 0x3EC DUP2 PUSH2 0x5A7 JUMP JUMPDEST SWAP3 SWAP2 POP POP JUMP JUMPDEST PUSH1 0x0 DUP2 CALLDATALOAD SWAP1 POP PUSH2 0x401 DUP2 PUSH2 0x5BE JUMP JUMPDEST SWAP3 SWAP2 POP POP JUMP JUMPDEST PUSH1 0x0 DUP1 PUSH1 0x40 DUP4 DUP6 SUB SLT ISZERO PUSH2 0x41E JUMPI PUSH2 0x41D PUSH2 0x550 JUMP JUMPDEST JUMPDEST PUSH1 0x0 PUSH2 0x42C DUP6 DUP3 DUP7 ADD PUSH2 0x3F2 JUMP JUMPDEST SWAP3 POP POP PUSH1 0x20 PUSH2 0x43D DUP6 DUP3 DUP7 ADD PUSH2 0x3DD JUMP JUMPDEST SWAP2 POP POP SWAP3 POP SWAP3 SWAP1 POP JUMP JUMPDEST PUSH2 0x450 DUP2 PUSH2 0x51A JUMP JUMPDEST DUP3 MSTORE POP POP JUMP JUMPDEST PUSH1 0x0 PUSH2 0x463 PUSH1 0xE DUP4 PUSH2 0x4EC JUMP JUMPDEST SWAP2 POP PUSH2 0x46E DUP3 PUSH2 0x555 JUMP JUMPDEST PUSH1 0x20 DUP3 ADD SWAP1 POP SWAP2 SWAP1 POP JUMP JUMPDEST PUSH1 0x0 PUSH2 0x486 PUSH1 0x5 DUP4 PUSH2 0x4FD JUMP JUMPDEST SWAP2 POP PUSH2 0x491 DUP3 PUSH2 0x57E JUMP JUMPDEST PUSH1 0x5 DUP3 ADD SWAP1 POP SWAP2 SWAP1 POP JUMP JUMPDEST PUSH1 0x0 PUSH2 0x4A7 DUP3 PUSH2 0x479 JUMP JUMPDEST SWAP2 POP DUP2 SWAP1 POP SWAP2 SWAP1 POP JUMP JUMPDEST PUSH1 0x0 PUSH1 0x20 DUP3 ADD SWAP1 POP PUSH2 0x4C6 PUSH1 0x0 DUP4 ADD DUP5 PUSH2 0x447 JUMP JUMPDEST SWAP3 SWAP2 POP POP JUMP JUMPDEST PUSH1 0x0 PUSH1 0x20 DUP3 ADD SWAP1 POP DUP2 DUP2 SUB PUSH1 0x0 DUP4 ADD MSTORE PUSH2 0x4E5 DUP2 PUSH2 0x456 JUMP JUMPDEST SWAP1 POP SWAP2 SWAP1 POP JUMP JUMPDEST PUSH1 0x0 DUP3 DUP3 MSTORE PUSH1 0x20 DUP3 ADD SWAP1 POP SWAP3 SWAP2 POP POP JUMP JUMPDEST PUSH1 0x0 DUP2 SWAP1 POP SWAP3 SWAP2 POP POP JUMP JUMPDEST PUSH1 0x0 PUSH2 0x513 DUP3 PUSH2 0x530 JUMP JUMPDEST SWAP1 POP SWAP2 SWAP1 POP JUMP JUMPDEST PUSH1 0x0 DUP2 ISZERO ISZERO SWAP1 POP SWAP2 SWAP1 POP JUMP JUMPDEST PUSH1 0x0 DUP2 SWAP1 POP SWAP2 SWAP1 POP JUMP JUMPDEST PUSH1 0x0 PUSH20 0xFFFFFFFFFFFFFFFFFFFFFFFFFFFFFFFFFFFFFFFF DUP3 AND SWAP1 POP SWAP2 SWAP1 POP JUMP JUMPDEST PUSH1 0x0 DUP1 REVERT JUMPDEST PUSH32 0x6E6F7420417574686F72697A6564000000000000000000000000000000000000 PUSH1 0x0 DUP3 ADD MSTORE POP JUMP JUMPDEST PUSH32 0x41444D494E000000000000000000000000000000000000000000000000000000 PUSH1 0x0 DUP3 ADD MSTORE POP JUMP JUMPDEST PUSH2 0x5B0 DUP2 PUSH2 0x508 JUMP JUMPDEST DUP2 EQ PUSH2 0x5BB JUMPI PUSH1 0x0 DUP1 REVERT JUMPDEST POP JUMP JUMPDEST PUSH2 0x5C7 DUP2 PUSH2 0x526 JUMP JUMPDEST DUP2 EQ PUSH2 0x5D2 JUMPI PUSH1 0x0 DUP1 REVERT JUMPDEST POP JUMP INVALID LOG2 PUSH5 0x6970667358 0x22 SLT KECCAK256 MSTORE SMOD SGT 0xB7 0xB7 0xA9 0xE7 DIFFICULTY SWAP6 SWAP13 DUP4 0xA6 0xE3 0x4E PUSH7 0xB154DA2EC59D8C 0x2F REVERT 0xB6 0xBB 0xB0 MOD 0xF9 0xC6 0xDC SIGNEXTEND PUSH5 0x736F6C6343 STOP ADDMOD SMOD STOP CALLER "
				},
				"gasEstimates": {
					"creation": {
						"codeDepositCost": "309400",
						"executionCost": "infinite",
						"totalCost": "infinite"
					},
					"external": {
						"GrantRole(bytes32,address)": "29247",
						"RevokeRole(bytes32,address)": "29269",
						"roles(bytes32,address)": "3109"
					},
					"internal": {
						"_grantRole(bytes32,address)": "25996",
						"_revokeRole(bytes32,address)": "25996"
					}
				},
				"methodIdentifiers": {
					"GrantRole(bytes32,address)": "5a06360d",
					"RevokeRole(bytes32,address)": "76e6093c",
					"roles(bytes32,address)": "f8fc08b9"
				}
			},
			"storageLayout": {
				"storage": [
					{
						"astId": 29,
						"contract": "Contracts/accessControl.sol:AccessControl",
						"label": "roles",
						"offset": 0,
						"slot": "0",
						"type": "t_mapping(t_bytes32,t_mapping(t_address,t_bool))"
					}
				],
				"types": {
					"t_address": {
						"encoding": "inplace",
						"label": "address",
						"numberOfBytes": "20"
					},
					"t_bool": {
						"encoding": "inplace",
						"label": "bool",
						"numberOfBytes": "1"
					},
					"t_bytes32": {
						"encoding": "inplace",
						"label": "bytes32",
						"numberOfBytes": "32"
					},
					"t_mapping(t_address,t_bool)": {
						"encoding": "mapping",
						"key": "t_address",
						"label": "mapping(address => bool)",
						"numberOfBytes": "32",
						"value": "t_bool"
					},
					"t_mapping(t_bytes32,t_mapping(t_address,t_bool))": {
						"encoding": "mapping",
						"key": "t_bytes32",
						"label": "mapping(bytes32 => mapping(address => bool))",
						"numberOfBytes": "32",
						"value": "t_mapping(t_address,t_bool)"
					}
				}
			},
			"userdoc": {
				"kind": "user",
				"methods": {},
				"version": 1
			}
		}
	}
}