{
	"Contracts/mul.sol": {
		"KudiWallet": {
			"abi": [
				{
					"inputs": [
						{
							"internalType": "address[]",
							"name": "_owners",
							"type": "address[]"
						},
						{
							"internalType": "uint256",
							"name": "_required",
							"type": "uint256"
						}
					],
					"stateMutability": "nonpayable",
					"type": "constructor"
				},
				{
					"anonymous": false,
					"inputs": [
						{
							"indexed": true,
							"internalType": "address",
							"name": "owner",
							"type": "address"
						},
						{
							"indexed": true,
							"internalType": "uint256",
							"name": "txId",
							"type": "uint256"
						}
					],
					"name": "Approve",
					"type": "event"
				},
				{
					"anonymous": false,
					"inputs": [
						{
							"indexed": true,
							"internalType": "address",
							"name": "sender",
							"type": "address"
						},
						{
							"indexed": false,
							"internalType": "uint256",
							"name": "amount",
							"type": "uint256"
						}
					],
					"name": "Deposit",
					"type": "event"
				},
				{
					"anonymous": false,
					"inputs": [
						{
							"indexed": true,
							"internalType": "uint256",
							"name": "txId",
							"type": "uint256"
						}
					],
					"name": "Execute",
					"type": "event"
				},
				{
					"anonymous": false,
					"inputs": [
						{
							"indexed": true,
							"internalType": "address",
							"name": "owner",
							"type": "address"
						},
						{
							"indexed": true,
							"internalType": "uint256",
							"name": "txId",
							"type": "uint256"
						}
					],
					"name": "Revoke",
					"type": "event"
				},
				{
					"anonymous": false,
					"inputs": [
						{
							"indexed": true,
							"internalType": "uint256",
							"name": "txId",
							"type": "uint256"
						}
					],
					"name": "Submit",
					"type": "event"
				},
				{
					"inputs": [
						{
							"internalType": "uint256",
							"name": "",
							"type": "uint256"
						},
						{
							"internalType": "address",
							"name": "",
							"type": "address"
						}
					],
					"name": "approval",
					"outputs": [
						{
							"internalType": "bool",
							"name": "",
							"type": "bool"
						}
					],
					"stateMutability": "view",
					"type": "function"
				},
				{
					"inputs": [
						{
							"internalType": "address",
							"name": "",
							"type": "address"
						}
					],
					"name": "isOwner",
					"outputs": [
						{
							"internalType": "bool",
							"name": "",
							"type": "bool"
						}
					],
					"stateMutability": "view",
					"type": "function"
				},
				{
					"inputs": [
						{
							"internalType": "uint256",
							"name": "",
							"type": "uint256"
						}
					],
					"name": "owners",
					"outputs": [
						{
							"internalType": "address",
							"name": "",
							"type": "address"
						}
					],
					"stateMutability": "view",
					"type": "function"
				},
				{
					"inputs": [],
					"name": "required",
					"outputs": [
						{
							"internalType": "uint256",
							"name": "",
							"type": "uint256"
						}
					],
					"stateMutability": "view",
					"type": "function"
				},
				{
					"inputs": [
						{
							"internalType": "address",
							"name": "_to",
							"type": "address"
						},
						{
							"internalType": "uint256",
							"name": "_value",
							"type": "uint256"
						},
						{
							"internalType": "bytes",
							"name": "_data",
							"type": "bytes"
						}
					],
					"name": "submit",
					"outputs": [],
					"stateMutability": "nonpayable",
					"type": "function"
				},
				{
					"inputs": [
						{
							"internalType": "uint256",
							"name": "",
							"type": "uint256"
						}
					],
					"name": "transactions",
					"outputs": [
						{
							"internalType": "address",
							"name": "to",
							"type": "address"
						},
						{
							"internalType": "uint256",
							"name": "value",
							"type": "uint256"
						},
						{
							"internalType": "bytes",
							"name": "data",
							"type": "bytes"
						},
						{
							"internalType": "bool",
							"name": "executed",
							"type": "bool"
						}
					],
					"stateMutability": "view",
					"type": "function"
				},
				{
					"stateMutability": "payable",
					"type": "receive"
				}
			],
			"devdoc": {
				"kind": "dev",
				"methods": {},
				"version": 1
			},
			"evm": {
				"assembly": "    /* \"Contracts/mul.sol\":60:1730  contract KudiWallet{... */\n  mstore(0x40, 0x80)\n    /* \"Contracts/mul.sol\":733:1244  constructor(address[] memory _owners, uint _required){... */\n  callvalue\n  dup1\n  iszero\n  tag_1\n  jumpi\n  0x00\n  dup1\n  revert\ntag_1:\n  pop\n  mload(0x40)\n  sub(codesize, bytecodeSize)\n  dup1\n  bytecodeSize\n  dup4\n  codecopy\n  dup2\n  dup2\n  add\n  0x40\n  mstore\n  dup2\n  add\n  swap1\n  tag_2\n  swap2\n  swap1\n  tag_3\n  jump\t// in\ntag_2:\n    /* \"Contracts/mul.sol\":822:823  0 */\n  0x00\n    /* \"Contracts/mul.sol\":805:812  _owners */\n  dup3\n    /* \"Contracts/mul.sol\":805:819  _owners.length */\n  mload\n    /* \"Contracts/mul.sol\":805:823  _owners.length > 0 */\n  gt\n    /* \"Contracts/mul.sol\":797:843  require(_owners.length > 0, \"owners required\") */\n  tag_6\n  jumpi\n  mload(0x40)\n  0x08c379a000000000000000000000000000000000000000000000000000000000\n  dup2\n  mstore\n  0x04\n  add\n  tag_7\n  swap1\n  tag_8\n  jump\t// in\ntag_7:\n  mload(0x40)\n  dup1\n  swap2\n  sub\n  swap1\n  revert\ntag_6:\n    /* \"Contracts/mul.sol\":888:889  0 */\n  0x00\n    /* \"Contracts/mul.sol\":876:885  _required */\n  dup2\n    /* \"Contracts/mul.sol\":876:889  _required > 0 */\n  gt\n    /* \"Contracts/mul.sol\":876:919  _required > 0 && _required <= owners.length */\n  dup1\n  iszero\n  tag_9\n  jumpi\n  pop\n    /* \"Contracts/mul.sol\":906:912  owners */\n  0x00\n    /* \"Contracts/mul.sol\":906:919  owners.length */\n  dup1\n  sload\n  swap1\n  pop\n    /* \"Contracts/mul.sol\":893:902  _required */\n  dup2\n    /* \"Contracts/mul.sol\":893:919  _required <= owners.length */\n  gt\n  iszero\n    /* \"Contracts/mul.sol\":876:919  _required > 0 && _required <= owners.length */\ntag_9:\n    /* \"Contracts/mul.sol\":854:971  require(... */\n  tag_10\n  jumpi\n  mload(0x40)\n  0x08c379a000000000000000000000000000000000000000000000000000000000\n  dup2\n  mstore\n  0x04\n  add\n  tag_11\n  swap1\n  tag_12\n  jump\t// in\ntag_11:\n  mload(0x40)\n  dup1\n  swap2\n  sub\n  swap1\n  revert\ntag_10:\n    /* \"Contracts/mul.sol\":986:992  uint i */\n  0x00\n    /* \"Contracts/mul.sol\":982:1204  for(uint i; i< owners.length; i++){... */\ntag_13:\n    /* \"Contracts/mul.sol\":997:1003  owners */\n  0x00\n    /* \"Contracts/mul.sol\":997:1010  owners.length */\n  dup1\n  sload\n  swap1\n  pop\n    /* \"Contracts/mul.sol\":994:995  i */\n  dup2\n    /* \"Contracts/mul.sol\":994:1010  i< owners.length */\n  lt\n    /* \"Contracts/mul.sol\":982:1204  for(uint i; i< owners.length; i++){... */\n  iszero\n  tag_14\n  jumpi\n    /* \"Contracts/mul.sol\":1031:1044  address owner */\n  0x00\n    /* \"Contracts/mul.sol\":1047:1054  _owners */\n  dup4\n    /* \"Contracts/mul.sol\":1055:1056  i */\n  dup3\n    /* \"Contracts/mul.sol\":1047:1057  _owners[i] */\n  dup2\n  mload\n  dup2\n  lt\n  tag_16\n  jumpi\n  tag_17\n  tag_18\n  jump\t// in\ntag_17:\ntag_16:\n  0x20\n  mul\n  0x20\n  add\n  add\n  mload\n    /* \"Contracts/mul.sol\":1031:1057  address owner = _owners[i] */\n  swap1\n  pop\n    /* \"Contracts/mul.sol\":1097:1098  0 */\n  0x00\n    /* \"Contracts/mul.sol\":1080:1099  owner != address(0) */\n  0xffffffffffffffffffffffffffffffffffffffff\n  and\n    /* \"Contracts/mul.sol\":1080:1085  owner */\n  dup2\n    /* \"Contracts/mul.sol\":1080:1099  owner != address(0) */\n  0xffffffffffffffffffffffffffffffffffffffff\n  and\n  sub\n    /* \"Contracts/mul.sol\":1072:1123  require(owner != address(0), \"owner is not unique\") */\n  tag_19\n  jumpi\n  mload(0x40)\n  0x08c379a000000000000000000000000000000000000000000000000000000000\n  dup2\n  mstore\n  0x04\n  add\n  tag_20\n  swap1\n  tag_21\n  jump\t// in\ntag_20:\n  mload(0x40)\n  dup1\n  swap2\n  sub\n  swap1\n  revert\ntag_19:\n    /* \"Contracts/mul.sol\":1155:1159  true */\n  0x01\n    /* \"Contracts/mul.sol\":1138:1145  isOwner */\n  dup1\n    /* \"Contracts/mul.sol\":1138:1152  isOwner[owner] */\n  0x00\n    /* \"Contracts/mul.sol\":1146:1151  owner */\n  dup4\n    /* \"Contracts/mul.sol\":1138:1152  isOwner[owner] */\n  0xffffffffffffffffffffffffffffffffffffffff\n  and\n  0xffffffffffffffffffffffffffffffffffffffff\n  and\n  dup2\n  mstore\n  0x20\n  add\n  swap1\n  dup2\n  mstore\n  0x20\n  add\n  0x00\n  keccak256\n  0x00\n    /* \"Contracts/mul.sol\":1138:1159  isOwner[owner] = true */\n  0x0100\n  exp\n  dup2\n  sload\n  dup2\n  0xff\n  mul\n  not\n  and\n  swap1\n  dup4\n  iszero\n  iszero\n  mul\n  or\n  swap1\n  sstore\n  pop\n    /* \"Contracts/mul.sol\":1174:1180  owners */\n  0x00\n    /* \"Contracts/mul.sol\":1186:1191  owner */\n  dup2\n    /* \"Contracts/mul.sol\":1174:1192  owners.push(owner) */\n  swap1\n  dup1\n  0x01\n  dup2\n  sload\n  add\n  dup1\n  dup3\n  sstore\n  dup1\n  swap2\n  pop\n  pop\n  0x01\n  swap1\n  sub\n  swap1\n  0x00\n  mstore\n  keccak256(0x00, 0x20)\n  add\n  0x00\n  swap1\n  swap2\n  swap1\n  swap2\n  swap1\n  swap2\n  0x0100\n  exp\n  dup2\n  sload\n  dup2\n  0xffffffffffffffffffffffffffffffffffffffff\n  mul\n  not\n  and\n  swap1\n  dup4\n  0xffffffffffffffffffffffffffffffffffffffff\n  and\n  mul\n  or\n  swap1\n  sstore\n  pop\n    /* \"Contracts/mul.sol\":1016:1204  {... */\n  pop\n    /* \"Contracts/mul.sol\":1012:1015  i++ */\n  dup1\n  dup1\n  tag_23\n  swap1\n  tag_24\n  jump\t// in\ntag_23:\n  swap2\n  pop\n  pop\n    /* \"Contracts/mul.sol\":982:1204  for(uint i; i< owners.length; i++){... */\n  jump(tag_13)\ntag_14:\n  pop\n    /* \"Contracts/mul.sol\":1225:1234  _required */\n  dup1\n    /* \"Contracts/mul.sol\":1214:1222  required */\n  0x02\n    /* \"Contracts/mul.sol\":1214:1234  required = _required */\n  dup2\n  swap1\n  sstore\n  pop\n    /* \"Contracts/mul.sol\":733:1244  constructor(address[] memory _owners, uint _required){... */\n  pop\n  pop\n    /* \"Contracts/mul.sol\":60:1730  contract KudiWallet{... */\n  jump(tag_25)\n    /* \"#utility.yul\":7:82   */\ntag_26:\n    /* \"#utility.yul\":40:46   */\n  0x00\n    /* \"#utility.yul\":73:75   */\n  0x40\n    /* \"#utility.yul\":67:76   */\n  mload\n    /* \"#utility.yul\":57:76   */\n  swap1\n  pop\n    /* \"#utility.yul\":7:82   */\n  swap1\n  jump\t// out\n    /* \"#utility.yul\":88:205   */\ntag_27:\n    /* \"#utility.yul\":197:198   */\n  0x00\n    /* \"#utility.yul\":194:195   */\n  dup1\n    /* \"#utility.yul\":187:199   */\n  revert\n    /* \"#utility.yul\":211:328   */\ntag_28:\n    /* \"#utility.yul\":320:321   */\n  0x00\n    /* \"#utility.yul\":317:318   */\n  dup1\n    /* \"#utility.yul\":310:322   */\n  revert\n    /* \"#utility.yul\":334:451   */\ntag_29:\n    /* \"#utility.yul\":443:444   */\n  0x00\n    /* \"#utility.yul\":440:441   */\n  dup1\n    /* \"#utility.yul\":433:445   */\n  revert\n    /* \"#utility.yul\":457:559   */\ntag_30:\n    /* \"#utility.yul\":498:504   */\n  0x00\n    /* \"#utility.yul\":549:551   */\n  0x1f\n    /* \"#utility.yul\":545:552   */\n  not\n    /* \"#utility.yul\":540:542   */\n  0x1f\n    /* \"#utility.yul\":533:538   */\n  dup4\n    /* \"#utility.yul\":529:543   */\n  add\n    /* \"#utility.yul\":525:553   */\n  and\n    /* \"#utility.yul\":515:553   */\n  swap1\n  pop\n    /* \"#utility.yul\":457:559   */\n  swap2\n  swap1\n  pop\n  jump\t// out\n    /* \"#utility.yul\":565:745   */\ntag_31:\n    /* \"#utility.yul\":613:690   */\n  0x4e487b7100000000000000000000000000000000000000000000000000000000\n    /* \"#utility.yul\":610:611   */\n  0x00\n    /* \"#utility.yul\":603:691   */\n  mstore\n    /* \"#utility.yul\":710:714   */\n  0x41\n    /* \"#utility.yul\":707:708   */\n  0x04\n    /* \"#utility.yul\":700:715   */\n  mstore\n    /* \"#utility.yul\":734:738   */\n  0x24\n    /* \"#utility.yul\":731:732   */\n  0x00\n    /* \"#utility.yul\":724:739   */\n  revert\n    /* \"#utility.yul\":751:1032   */\ntag_32:\n    /* \"#utility.yul\":834:861   */\n  tag_61\n    /* \"#utility.yul\":856:860   */\n  dup3\n    /* \"#utility.yul\":834:861   */\n  tag_30\n  jump\t// in\ntag_61:\n    /* \"#utility.yul\":826:832   */\n  dup2\n    /* \"#utility.yul\":822:862   */\n  add\n    /* \"#utility.yul\":964:970   */\n  dup2\n    /* \"#utility.yul\":952:962   */\n  dup2\n    /* \"#utility.yul\":949:971   */\n  lt\n    /* \"#utility.yul\":928:946   */\n  0xffffffffffffffff\n    /* \"#utility.yul\":916:926   */\n  dup3\n    /* \"#utility.yul\":913:947   */\n  gt\n    /* \"#utility.yul\":910:972   */\n  or\n    /* \"#utility.yul\":907:995   */\n  iszero\n  tag_62\n  jumpi\n    /* \"#utility.yul\":975:993   */\n  tag_63\n  tag_31\n  jump\t// in\ntag_63:\n    /* \"#utility.yul\":907:995   */\ntag_62:\n    /* \"#utility.yul\":1015:1025   */\n  dup1\n    /* \"#utility.yul\":1011:1013   */\n  0x40\n    /* \"#utility.yul\":1004:1026   */\n  mstore\n    /* \"#utility.yul\":794:1032   */\n  pop\n    /* \"#utility.yul\":751:1032   */\n  pop\n  pop\n  jump\t// out\n    /* \"#utility.yul\":1038:1167   */\ntag_33:\n    /* \"#utility.yul\":1072:1078   */\n  0x00\n    /* \"#utility.yul\":1099:1119   */\n  tag_65\n  tag_26\n  jump\t// in\ntag_65:\n    /* \"#utility.yul\":1089:1119   */\n  swap1\n  pop\n    /* \"#utility.yul\":1128:1161   */\n  tag_66\n    /* \"#utility.yul\":1156:1160   */\n  dup3\n    /* \"#utility.yul\":1148:1154   */\n  dup3\n    /* \"#utility.yul\":1128:1161   */\n  tag_32\n  jump\t// in\ntag_66:\n    /* \"#utility.yul\":1038:1167   */\n  swap2\n  swap1\n  pop\n  jump\t// out\n    /* \"#utility.yul\":1173:1484   */\ntag_34:\n    /* \"#utility.yul\":1250:1254   */\n  0x00\n    /* \"#utility.yul\":1340:1358   */\n  0xffffffffffffffff\n    /* \"#utility.yul\":1332:1338   */\n  dup3\n    /* \"#utility.yul\":1329:1359   */\n  gt\n    /* \"#utility.yul\":1326:1382   */\n  iszero\n  tag_68\n  jumpi\n    /* \"#utility.yul\":1362:1380   */\n  tag_69\n  tag_31\n  jump\t// in\ntag_69:\n    /* \"#utility.yul\":1326:1382   */\ntag_68:\n    /* \"#utility.yul\":1412:1416   */\n  0x20\n    /* \"#utility.yul\":1404:1410   */\n  dup3\n    /* \"#utility.yul\":1400:1417   */\n  mul\n    /* \"#utility.yul\":1392:1417   */\n  swap1\n  pop\n    /* \"#utility.yul\":1472:1476   */\n  0x20\n    /* \"#utility.yul\":1466:1470   */\n  dup2\n    /* \"#utility.yul\":1462:1477   */\n  add\n    /* \"#utility.yul\":1454:1477   */\n  swap1\n  pop\n    /* \"#utility.yul\":1173:1484   */\n  swap2\n  swap1\n  pop\n  jump\t// out\n    /* \"#utility.yul\":1490:1607   */\ntag_35:\n    /* \"#utility.yul\":1599:1600   */\n  0x00\n    /* \"#utility.yul\":1596:1597   */\n  dup1\n    /* \"#utility.yul\":1589:1601   */\n  revert\n    /* \"#utility.yul\":1613:1739   */\ntag_36:\n    /* \"#utility.yul\":1650:1657   */\n  0x00\n    /* \"#utility.yul\":1690:1732   */\n  0xffffffffffffffffffffffffffffffffffffffff\n    /* \"#utility.yul\":1683:1688   */\n  dup3\n    /* \"#utility.yul\":1679:1733   */\n  and\n    /* \"#utility.yul\":1668:1733   */\n  swap1\n  pop\n    /* \"#utility.yul\":1613:1739   */\n  swap2\n  swap1\n  pop\n  jump\t// out\n    /* \"#utility.yul\":1745:1841   */\ntag_37:\n    /* \"#utility.yul\":1782:1789   */\n  0x00\n    /* \"#utility.yul\":1811:1835   */\n  tag_73\n    /* \"#utility.yul\":1829:1834   */\n  dup3\n    /* \"#utility.yul\":1811:1835   */\n  tag_36\n  jump\t// in\ntag_73:\n    /* \"#utility.yul\":1800:1835   */\n  swap1\n  pop\n    /* \"#utility.yul\":1745:1841   */\n  swap2\n  swap1\n  pop\n  jump\t// out\n    /* \"#utility.yul\":1847:1969   */\ntag_38:\n    /* \"#utility.yul\":1920:1944   */\n  tag_75\n    /* \"#utility.yul\":1938:1943   */\n  dup2\n    /* \"#utility.yul\":1920:1944   */\n  tag_37\n  jump\t// in\ntag_75:\n    /* \"#utility.yul\":1913:1918   */\n  dup2\n    /* \"#utility.yul\":1910:1945   */\n  eq\n    /* \"#utility.yul\":1900:1963   */\n  tag_76\n  jumpi\n    /* \"#utility.yul\":1959:1960   */\n  0x00\n    /* \"#utility.yul\":1956:1957   */\n  dup1\n    /* \"#utility.yul\":1949:1961   */\n  revert\n    /* \"#utility.yul\":1900:1963   */\ntag_76:\n    /* \"#utility.yul\":1847:1969   */\n  pop\n  jump\t// out\n    /* \"#utility.yul\":1975:2118   */\ntag_39:\n    /* \"#utility.yul\":2032:2037   */\n  0x00\n    /* \"#utility.yul\":2063:2069   */\n  dup2\n    /* \"#utility.yul\":2057:2070   */\n  mload\n    /* \"#utility.yul\":2048:2070   */\n  swap1\n  pop\n    /* \"#utility.yul\":2079:2112   */\n  tag_78\n    /* \"#utility.yul\":2106:2111   */\n  dup2\n    /* \"#utility.yul\":2079:2112   */\n  tag_38\n  jump\t// in\ntag_78:\n    /* \"#utility.yul\":1975:2118   */\n  swap3\n  swap2\n  pop\n  pop\n  jump\t// out\n    /* \"#utility.yul\":2141:2873   */\ntag_40:\n    /* \"#utility.yul\":2248:2253   */\n  0x00\n    /* \"#utility.yul\":2273:2354   */\n  tag_80\n    /* \"#utility.yul\":2289:2353   */\n  tag_81\n    /* \"#utility.yul\":2346:2352   */\n  dup5\n    /* \"#utility.yul\":2289:2353   */\n  tag_34\n  jump\t// in\ntag_81:\n    /* \"#utility.yul\":2273:2354   */\n  tag_33\n  jump\t// in\ntag_80:\n    /* \"#utility.yul\":2264:2354   */\n  swap1\n  pop\n    /* \"#utility.yul\":2374:2379   */\n  dup1\n    /* \"#utility.yul\":2403:2409   */\n  dup4\n    /* \"#utility.yul\":2396:2401   */\n  dup3\n    /* \"#utility.yul\":2389:2410   */\n  mstore\n    /* \"#utility.yul\":2437:2441   */\n  0x20\n    /* \"#utility.yul\":2430:2435   */\n  dup3\n    /* \"#utility.yul\":2426:2442   */\n  add\n    /* \"#utility.yul\":2419:2442   */\n  swap1\n  pop\n    /* \"#utility.yul\":2490:2494   */\n  0x20\n    /* \"#utility.yul\":2482:2488   */\n  dup5\n    /* \"#utility.yul\":2478:2495   */\n  mul\n    /* \"#utility.yul\":2470:2476   */\n  dup4\n    /* \"#utility.yul\":2466:2496   */\n  add\n    /* \"#utility.yul\":2519:2522   */\n  dup6\n    /* \"#utility.yul\":2511:2517   */\n  dup2\n    /* \"#utility.yul\":2508:2523   */\n  gt\n    /* \"#utility.yul\":2505:2627   */\n  iszero\n  tag_82\n  jumpi\n    /* \"#utility.yul\":2538:2617   */\n  tag_83\n  tag_35\n  jump\t// in\ntag_83:\n    /* \"#utility.yul\":2505:2627   */\ntag_82:\n    /* \"#utility.yul\":2653:2659   */\n  dup4\n    /* \"#utility.yul\":2636:2867   */\ntag_84:\n    /* \"#utility.yul\":2670:2676   */\n  dup2\n    /* \"#utility.yul\":2665:2668   */\n  dup2\n    /* \"#utility.yul\":2662:2677   */\n  lt\n    /* \"#utility.yul\":2636:2867   */\n  iszero\n  tag_86\n  jumpi\n    /* \"#utility.yul\":2745:2748   */\n  dup1\n    /* \"#utility.yul\":2774:2822   */\n  tag_87\n    /* \"#utility.yul\":2818:2821   */\n  dup9\n    /* \"#utility.yul\":2806:2816   */\n  dup3\n    /* \"#utility.yul\":2774:2822   */\n  tag_39\n  jump\t// in\ntag_87:\n    /* \"#utility.yul\":2769:2772   */\n  dup5\n    /* \"#utility.yul\":2762:2823   */\n  mstore\n    /* \"#utility.yul\":2852:2856   */\n  0x20\n    /* \"#utility.yul\":2847:2850   */\n  dup5\n    /* \"#utility.yul\":2843:2857   */\n  add\n    /* \"#utility.yul\":2836:2857   */\n  swap4\n  pop\n    /* \"#utility.yul\":2712:2867   */\n  pop\n    /* \"#utility.yul\":2696:2700   */\n  0x20\n    /* \"#utility.yul\":2691:2694   */\n  dup2\n    /* \"#utility.yul\":2687:2701   */\n  add\n    /* \"#utility.yul\":2680:2701   */\n  swap1\n  pop\n    /* \"#utility.yul\":2636:2867   */\n  jump(tag_84)\ntag_86:\n    /* \"#utility.yul\":2640:2661   */\n  pop\n    /* \"#utility.yul\":2254:2873   */\n  pop\n  pop\n    /* \"#utility.yul\":2141:2873   */\n  swap4\n  swap3\n  pop\n  pop\n  pop\n  jump\t// out\n    /* \"#utility.yul\":2896:3281   */\ntag_41:\n    /* \"#utility.yul\":2978:2983   */\n  0x00\n    /* \"#utility.yul\":3027:3030   */\n  dup3\n    /* \"#utility.yul\":3020:3024   */\n  0x1f\n    /* \"#utility.yul\":3012:3018   */\n  dup4\n    /* \"#utility.yul\":3008:3025   */\n  add\n    /* \"#utility.yul\":3004:3031   */\n  slt\n    /* \"#utility.yul\":2994:3116   */\n  tag_89\n  jumpi\n    /* \"#utility.yul\":3035:3114   */\n  tag_90\n  tag_29\n  jump\t// in\ntag_90:\n    /* \"#utility.yul\":2994:3116   */\ntag_89:\n    /* \"#utility.yul\":3145:3151   */\n  dup2\n    /* \"#utility.yul\":3139:3152   */\n  mload\n    /* \"#utility.yul\":3170:3275   */\n  tag_91\n    /* \"#utility.yul\":3271:3274   */\n  dup5\n    /* \"#utility.yul\":3263:3269   */\n  dup3\n    /* \"#utility.yul\":3256:3260   */\n  0x20\n    /* \"#utility.yul\":3248:3254   */\n  dup7\n    /* \"#utility.yul\":3244:3261   */\n  add\n    /* \"#utility.yul\":3170:3275   */\n  tag_40\n  jump\t// in\ntag_91:\n    /* \"#utility.yul\":3161:3275   */\n  swap2\n  pop\n    /* \"#utility.yul\":2984:3281   */\n  pop\n    /* \"#utility.yul\":2896:3281   */\n  swap3\n  swap2\n  pop\n  pop\n  jump\t// out\n    /* \"#utility.yul\":3287:3364   */\ntag_42:\n    /* \"#utility.yul\":3324:3331   */\n  0x00\n    /* \"#utility.yul\":3353:3358   */\n  dup2\n    /* \"#utility.yul\":3342:3358   */\n  swap1\n  pop\n    /* \"#utility.yul\":3287:3364   */\n  swap2\n  swap1\n  pop\n  jump\t// out\n    /* \"#utility.yul\":3370:3492   */\ntag_43:\n    /* \"#utility.yul\":3443:3467   */\n  tag_94\n    /* \"#utility.yul\":3461:3466   */\n  dup2\n    /* \"#utility.yul\":3443:3467   */\n  tag_42\n  jump\t// in\ntag_94:\n    /* \"#utility.yul\":3436:3441   */\n  dup2\n    /* \"#utility.yul\":3433:3468   */\n  eq\n    /* \"#utility.yul\":3423:3486   */\n  tag_95\n  jumpi\n    /* \"#utility.yul\":3482:3483   */\n  0x00\n    /* \"#utility.yul\":3479:3480   */\n  dup1\n    /* \"#utility.yul\":3472:3484   */\n  revert\n    /* \"#utility.yul\":3423:3486   */\ntag_95:\n    /* \"#utility.yul\":3370:3492   */\n  pop\n  jump\t// out\n    /* \"#utility.yul\":3498:3641   */\ntag_44:\n    /* \"#utility.yul\":3555:3560   */\n  0x00\n    /* \"#utility.yul\":3586:3592   */\n  dup2\n    /* \"#utility.yul\":3580:3593   */\n  mload\n    /* \"#utility.yul\":3571:3593   */\n  swap1\n  pop\n    /* \"#utility.yul\":3602:3635   */\n  tag_97\n    /* \"#utility.yul\":3629:3634   */\n  dup2\n    /* \"#utility.yul\":3602:3635   */\n  tag_43\n  jump\t// in\ntag_97:\n    /* \"#utility.yul\":3498:3641   */\n  swap3\n  swap2\n  pop\n  pop\n  jump\t// out\n    /* \"#utility.yul\":3647:4357   */\ntag_3:\n    /* \"#utility.yul\":3751:3757   */\n  0x00\n    /* \"#utility.yul\":3759:3765   */\n  dup1\n    /* \"#utility.yul\":3808:3810   */\n  0x40\n    /* \"#utility.yul\":3796:3805   */\n  dup4\n    /* \"#utility.yul\":3787:3794   */\n  dup6\n    /* \"#utility.yul\":3783:3806   */\n  sub\n    /* \"#utility.yul\":3779:3811   */\n  slt\n    /* \"#utility.yul\":3776:3895   */\n  iszero\n  tag_99\n  jumpi\n    /* \"#utility.yul\":3814:3893   */\n  tag_100\n  tag_27\n  jump\t// in\ntag_100:\n    /* \"#utility.yul\":3776:3895   */\ntag_99:\n    /* \"#utility.yul\":3955:3956   */\n  0x00\n    /* \"#utility.yul\":3944:3953   */\n  dup4\n    /* \"#utility.yul\":3940:3957   */\n  add\n    /* \"#utility.yul\":3934:3958   */\n  mload\n    /* \"#utility.yul\":3985:4003   */\n  0xffffffffffffffff\n    /* \"#utility.yul\":3977:3983   */\n  dup2\n    /* \"#utility.yul\":3974:4004   */\n  gt\n    /* \"#utility.yul\":3971:4088   */\n  iszero\n  tag_101\n  jumpi\n    /* \"#utility.yul\":4007:4086   */\n  tag_102\n  tag_28\n  jump\t// in\ntag_102:\n    /* \"#utility.yul\":3971:4088   */\ntag_101:\n    /* \"#utility.yul\":4112:4201   */\n  tag_103\n    /* \"#utility.yul\":4193:4200   */\n  dup6\n    /* \"#utility.yul\":4184:4190   */\n  dup3\n    /* \"#utility.yul\":4173:4182   */\n  dup7\n    /* \"#utility.yul\":4169:4191   */\n  add\n    /* \"#utility.yul\":4112:4201   */\n  tag_41\n  jump\t// in\ntag_103:\n    /* \"#utility.yul\":4102:4201   */\n  swap3\n  pop\n    /* \"#utility.yul\":3905:4211   */\n  pop\n    /* \"#utility.yul\":4250:4252   */\n  0x20\n    /* \"#utility.yul\":4276:4340   */\n  tag_104\n    /* \"#utility.yul\":4332:4339   */\n  dup6\n    /* \"#utility.yul\":4323:4329   */\n  dup3\n    /* \"#utility.yul\":4312:4321   */\n  dup7\n    /* \"#utility.yul\":4308:4330   */\n  add\n    /* \"#utility.yul\":4276:4340   */\n  tag_44\n  jump\t// in\ntag_104:\n    /* \"#utility.yul\":4266:4340   */\n  swap2\n  pop\n    /* \"#utility.yul\":4221:4350   */\n  pop\n    /* \"#utility.yul\":3647:4357   */\n  swap3\n  pop\n  swap3\n  swap1\n  pop\n  jump\t// out\n    /* \"#utility.yul\":4363:4532   */\ntag_45:\n    /* \"#utility.yul\":4447:4458   */\n  0x00\n    /* \"#utility.yul\":4481:4487   */\n  dup3\n    /* \"#utility.yul\":4476:4479   */\n  dup3\n    /* \"#utility.yul\":4469:4488   */\n  mstore\n    /* \"#utility.yul\":4521:4525   */\n  0x20\n    /* \"#utility.yul\":4516:4519   */\n  dup3\n    /* \"#utility.yul\":4512:4526   */\n  add\n    /* \"#utility.yul\":4497:4526   */\n  swap1\n  pop\n    /* \"#utility.yul\":4363:4532   */\n  swap3\n  swap2\n  pop\n  pop\n  jump\t// out\n    /* \"#utility.yul\":4538:4703   */\ntag_46:\n    /* \"#utility.yul\":4678:4695   */\n  0x6f776e6572732072657175697265640000000000000000000000000000000000\n    /* \"#utility.yul\":4674:4675   */\n  0x00\n    /* \"#utility.yul\":4666:4672   */\n  dup3\n    /* \"#utility.yul\":4662:4676   */\n  add\n    /* \"#utility.yul\":4655:4696   */\n  mstore\n    /* \"#utility.yul\":4538:4703   */\n  pop\n  jump\t// out\n    /* \"#utility.yul\":4709:5075   */\ntag_47:\n    /* \"#utility.yul\":4851:4854   */\n  0x00\n    /* \"#utility.yul\":4872:4939   */\n  tag_108\n    /* \"#utility.yul\":4936:4938   */\n  0x0f\n    /* \"#utility.yul\":4931:4934   */\n  dup4\n    /* \"#utility.yul\":4872:4939   */\n  tag_45\n  jump\t// in\ntag_108:\n    /* \"#utility.yul\":4865:4939   */\n  swap2\n  pop\n    /* \"#utility.yul\":4948:5041   */\n  tag_109\n    /* \"#utility.yul\":5037:5040   */\n  dup3\n    /* \"#utility.yul\":4948:5041   */\n  tag_46\n  jump\t// in\ntag_109:\n    /* \"#utility.yul\":5066:5068   */\n  0x20\n    /* \"#utility.yul\":5061:5064   */\n  dup3\n    /* \"#utility.yul\":5057:5069   */\n  add\n    /* \"#utility.yul\":5050:5069   */\n  swap1\n  pop\n    /* \"#utility.yul\":4709:5075   */\n  swap2\n  swap1\n  pop\n  jump\t// out\n    /* \"#utility.yul\":5081:5500   */\ntag_8:\n    /* \"#utility.yul\":5247:5251   */\n  0x00\n    /* \"#utility.yul\":5285:5287   */\n  0x20\n    /* \"#utility.yul\":5274:5283   */\n  dup3\n    /* \"#utility.yul\":5270:5288   */\n  add\n    /* \"#utility.yul\":5262:5288   */\n  swap1\n  pop\n    /* \"#utility.yul\":5334:5343   */\n  dup2\n    /* \"#utility.yul\":5328:5332   */\n  dup2\n    /* \"#utility.yul\":5324:5344   */\n  sub\n    /* \"#utility.yul\":5320:5321   */\n  0x00\n    /* \"#utility.yul\":5309:5318   */\n  dup4\n    /* \"#utility.yul\":5305:5322   */\n  add\n    /* \"#utility.yul\":5298:5345   */\n  mstore\n    /* \"#utility.yul\":5362:5493   */\n  tag_111\n    /* \"#utility.yul\":5488:5492   */\n  dup2\n    /* \"#utility.yul\":5362:5493   */\n  tag_47\n  jump\t// in\ntag_111:\n    /* \"#utility.yul\":5354:5493   */\n  swap1\n  pop\n    /* \"#utility.yul\":5081:5500   */\n  swap2\n  swap1\n  pop\n  jump\t// out\n    /* \"#utility.yul\":5506:5680   */\ntag_48:\n    /* \"#utility.yul\":5646:5672   */\n  0x496e76616c696420616d6f756e74206f66206f776e6572730000000000000000\n    /* \"#utility.yul\":5642:5643   */\n  0x00\n    /* \"#utility.yul\":5634:5640   */\n  dup3\n    /* \"#utility.yul\":5630:5644   */\n  add\n    /* \"#utility.yul\":5623:5673   */\n  mstore\n    /* \"#utility.yul\":5506:5680   */\n  pop\n  jump\t// out\n    /* \"#utility.yul\":5686:6052   */\ntag_49:\n    /* \"#utility.yul\":5828:5831   */\n  0x00\n    /* \"#utility.yul\":5849:5916   */\n  tag_114\n    /* \"#utility.yul\":5913:5915   */\n  0x18\n    /* \"#utility.yul\":5908:5911   */\n  dup4\n    /* \"#utility.yul\":5849:5916   */\n  tag_45\n  jump\t// in\ntag_114:\n    /* \"#utility.yul\":5842:5916   */\n  swap2\n  pop\n    /* \"#utility.yul\":5925:6018   */\n  tag_115\n    /* \"#utility.yul\":6014:6017   */\n  dup3\n    /* \"#utility.yul\":5925:6018   */\n  tag_48\n  jump\t// in\ntag_115:\n    /* \"#utility.yul\":6043:6045   */\n  0x20\n    /* \"#utility.yul\":6038:6041   */\n  dup3\n    /* \"#utility.yul\":6034:6046   */\n  add\n    /* \"#utility.yul\":6027:6046   */\n  swap1\n  pop\n    /* \"#utility.yul\":5686:6052   */\n  swap2\n  swap1\n  pop\n  jump\t// out\n    /* \"#utility.yul\":6058:6477   */\ntag_12:\n    /* \"#utility.yul\":6224:6228   */\n  0x00\n    /* \"#utility.yul\":6262:6264   */\n  0x20\n    /* \"#utility.yul\":6251:6260   */\n  dup3\n    /* \"#utility.yul\":6247:6265   */\n  add\n    /* \"#utility.yul\":6239:6265   */\n  swap1\n  pop\n    /* \"#utility.yul\":6311:6320   */\n  dup2\n    /* \"#utility.yul\":6305:6309   */\n  dup2\n    /* \"#utility.yul\":6301:6321   */\n  sub\n    /* \"#utility.yul\":6297:6298   */\n  0x00\n    /* \"#utility.yul\":6286:6295   */\n  dup4\n    /* \"#utility.yul\":6282:6299   */\n  add\n    /* \"#utility.yul\":6275:6322   */\n  mstore\n    /* \"#utility.yul\":6339:6470   */\n  tag_117\n    /* \"#utility.yul\":6465:6469   */\n  dup2\n    /* \"#utility.yul\":6339:6470   */\n  tag_49\n  jump\t// in\ntag_117:\n    /* \"#utility.yul\":6331:6470   */\n  swap1\n  pop\n    /* \"#utility.yul\":6058:6477   */\n  swap2\n  swap1\n  pop\n  jump\t// out\n    /* \"#utility.yul\":6483:6663   */\ntag_18:\n    /* \"#utility.yul\":6531:6608   */\n  0x4e487b7100000000000000000000000000000000000000000000000000000000\n    /* \"#utility.yul\":6528:6529   */\n  0x00\n    /* \"#utility.yul\":6521:6609   */\n  mstore\n    /* \"#utility.yul\":6628:6632   */\n  0x32\n    /* \"#utility.yul\":6625:6626   */\n  0x04\n    /* \"#utility.yul\":6618:6633   */\n  mstore\n    /* \"#utility.yul\":6652:6656   */\n  0x24\n    /* \"#utility.yul\":6649:6650   */\n  0x00\n    /* \"#utility.yul\":6642:6657   */\n  revert\n    /* \"#utility.yul\":6669:6838   */\ntag_50:\n    /* \"#utility.yul\":6809:6830   */\n  0x6f776e6572206973206e6f7420756e6971756500000000000000000000000000\n    /* \"#utility.yul\":6805:6806   */\n  0x00\n    /* \"#utility.yul\":6797:6803   */\n  dup3\n    /* \"#utility.yul\":6793:6807   */\n  add\n    /* \"#utility.yul\":6786:6831   */\n  mstore\n    /* \"#utility.yul\":6669:6838   */\n  pop\n  jump\t// out\n    /* \"#utility.yul\":6844:7210   */\ntag_51:\n    /* \"#utility.yul\":6986:6989   */\n  0x00\n    /* \"#utility.yul\":7007:7074   */\n  tag_121\n    /* \"#utility.yul\":7071:7073   */\n  0x13\n    /* \"#utility.yul\":7066:7069   */\n  dup4\n    /* \"#utility.yul\":7007:7074   */\n  tag_45\n  jump\t// in\ntag_121:\n    /* \"#utility.yul\":7000:7074   */\n  swap2\n  pop\n    /* \"#utility.yul\":7083:7176   */\n  tag_122\n    /* \"#utility.yul\":7172:7175   */\n  dup3\n    /* \"#utility.yul\":7083:7176   */\n  tag_50\n  jump\t// in\ntag_122:\n    /* \"#utility.yul\":7201:7203   */\n  0x20\n    /* \"#utility.yul\":7196:7199   */\n  dup3\n    /* \"#utility.yul\":7192:7204   */\n  add\n    /* \"#utility.yul\":7185:7204   */\n  swap1\n  pop\n    /* \"#utility.yul\":6844:7210   */\n  swap2\n  swap1\n  pop\n  jump\t// out\n    /* \"#utility.yul\":7216:7635   */\ntag_21:\n    /* \"#utility.yul\":7382:7386   */\n  0x00\n    /* \"#utility.yul\":7420:7422   */\n  0x20\n    /* \"#utility.yul\":7409:7418   */\n  dup3\n    /* \"#utility.yul\":7405:7423   */\n  add\n    /* \"#utility.yul\":7397:7423   */\n  swap1\n  pop\n    /* \"#utility.yul\":7469:7478   */\n  dup2\n    /* \"#utility.yul\":7463:7467   */\n  dup2\n    /* \"#utility.yul\":7459:7479   */\n  sub\n    /* \"#utility.yul\":7455:7456   */\n  0x00\n    /* \"#utility.yul\":7444:7453   */\n  dup4\n    /* \"#utility.yul\":7440:7457   */\n  add\n    /* \"#utility.yul\":7433:7480   */\n  mstore\n    /* \"#utility.yul\":7497:7628   */\n  tag_124\n    /* \"#utility.yul\":7623:7627   */\n  dup2\n    /* \"#utility.yul\":7497:7628   */\n  tag_51\n  jump\t// in\ntag_124:\n    /* \"#utility.yul\":7489:7628   */\n  swap1\n  pop\n    /* \"#utility.yul\":7216:7635   */\n  swap2\n  swap1\n  pop\n  jump\t// out\n    /* \"#utility.yul\":7641:7821   */\ntag_52:\n    /* \"#utility.yul\":7689:7766   */\n  0x4e487b7100000000000000000000000000000000000000000000000000000000\n    /* \"#utility.yul\":7686:7687   */\n  0x00\n    /* \"#utility.yul\":7679:7767   */\n  mstore\n    /* \"#utility.yul\":7786:7790   */\n  0x11\n    /* \"#utility.yul\":7783:7784   */\n  0x04\n    /* \"#utility.yul\":7776:7791   */\n  mstore\n    /* \"#utility.yul\":7810:7814   */\n  0x24\n    /* \"#utility.yul\":7807:7808   */\n  0x00\n    /* \"#utility.yul\":7800:7815   */\n  revert\n    /* \"#utility.yul\":7827:8060   */\ntag_24:\n    /* \"#utility.yul\":7866:7869   */\n  0x00\n    /* \"#utility.yul\":7889:7913   */\n  tag_127\n    /* \"#utility.yul\":7907:7912   */\n  dup3\n    /* \"#utility.yul\":7889:7913   */\n  tag_42\n  jump\t// in\ntag_127:\n    /* \"#utility.yul\":7880:7913   */\n  swap2\n  pop\n    /* \"#utility.yul\":7935:8001   */\n  0xffffffffffffffffffffffffffffffffffffffffffffffffffffffffffffffff\n    /* \"#utility.yul\":7928:7933   */\n  dup3\n    /* \"#utility.yul\":7925:8002   */\n  sub\n    /* \"#utility.yul\":7922:8025   */\n  tag_128\n  jumpi\n    /* \"#utility.yul\":8005:8023   */\n  tag_129\n  tag_52\n  jump\t// in\ntag_129:\n    /* \"#utility.yul\":7922:8025   */\ntag_128:\n    /* \"#utility.yul\":8052:8053   */\n  0x01\n    /* \"#utility.yul\":8045:8050   */\n  dup3\n    /* \"#utility.yul\":8041:8054   */\n  add\n    /* \"#utility.yul\":8034:8054   */\n  swap1\n  pop\n    /* \"#utility.yul\":7827:8060   */\n  swap2\n  swap1\n  pop\n  jump\t// out\n    /* \"Contracts/mul.sol\":60:1730  contract KudiWallet{... */\ntag_25:\n  dataSize(sub_0)\n  dup1\n  dataOffset(sub_0)\n  0x00\n  codecopy\n  0x00\n  return\nstop\n\nsub_0: assembly {\n        /* \"Contracts/mul.sol\":60:1730  contract KudiWallet{... */\n      mstore(0x40, 0x80)\n      jumpi(tag_1, lt(calldatasize, 0x04))\n      shr(0xe0, calldataload(0x00))\n      dup1\n      0x025e7c27\n      eq\n      tag_3\n      jumpi\n      dup1\n      0x14de327f\n      eq\n      tag_4\n      jumpi\n      dup1\n      0x2f54bf6e\n      eq\n      tag_5\n      jumpi\n      dup1\n      0x9ace38c2\n      eq\n      tag_6\n      jumpi\n      dup1\n      0xb848de35\n      eq\n      tag_7\n      jumpi\n      dup1\n      0xdc8452cd\n      eq\n      tag_8\n      jumpi\n      jump(tag_2)\n    tag_1:\n      jumpi(tag_2, calldatasize)\n        /* \"Contracts/mul.sol\":1398:1408  msg.sender */\n      caller\n        /* \"Contracts/mul.sol\":1390:1420  Deposit(msg.sender, msg.value) */\n      0xffffffffffffffffffffffffffffffffffffffff\n      and\n      0xe1fffcc4923d04b559f4d29a8bfc6cda04eb5b0d3c460751c2402c5c5cc9109c\n        /* \"Contracts/mul.sol\":1410:1419  msg.value */\n      callvalue\n        /* \"Contracts/mul.sol\":1390:1420  Deposit(msg.sender, msg.value) */\n      mload(0x40)\n      tag_11\n      swap2\n      swap1\n      tag_12\n      jump\t// in\n    tag_11:\n      mload(0x40)\n      dup1\n      swap2\n      sub\n      swap1\n      log2\n        /* \"Contracts/mul.sol\":60:1730  contract KudiWallet{... */\n      stop\n    tag_2:\n      0x00\n      dup1\n      revert\n        /* \"Contracts/mul.sol\":523:546  address[] public owners */\n    tag_3:\n      callvalue\n      dup1\n      iszero\n      tag_13\n      jumpi\n      0x00\n      dup1\n      revert\n    tag_13:\n      pop\n      tag_14\n      0x04\n      dup1\n      calldatasize\n      sub\n      dup2\n      add\n      swap1\n      tag_15\n      swap2\n      swap1\n      tag_16\n      jump\t// in\n    tag_15:\n      tag_17\n      jump\t// in\n    tag_14:\n      mload(0x40)\n      tag_18\n      swap2\n      swap1\n      tag_19\n      jump\t// in\n    tag_18:\n      mload(0x40)\n      dup1\n      swap2\n      sub\n      swap1\n      return\n        /* \"Contracts/mul.sol\":1436:1727  function submit(address _to, uint _value, bytes calldata _data) external onlyOwner{... */\n    tag_4:\n      callvalue\n      dup1\n      iszero\n      tag_20\n      jumpi\n      0x00\n      dup1\n      revert\n    tag_20:\n      pop\n      tag_21\n      0x04\n      dup1\n      calldatasize\n      sub\n      dup2\n      add\n      swap1\n      tag_22\n      swap2\n      swap1\n      tag_23\n      jump\t// in\n    tag_22:\n      tag_24\n      jump\t// in\n    tag_21:\n      stop\n        /* \"Contracts/mul.sol\":553:593  mapping (address => bool) public isOwner */\n    tag_5:\n      callvalue\n      dup1\n      iszero\n      tag_25\n      jumpi\n      0x00\n      dup1\n      revert\n    tag_25:\n      pop\n      tag_26\n      0x04\n      dup1\n      calldatasize\n      sub\n      dup2\n      add\n      swap1\n      tag_27\n      swap2\n      swap1\n      tag_28\n      jump\t// in\n    tag_27:\n      tag_29\n      jump\t// in\n    tag_26:\n      mload(0x40)\n      tag_30\n      swap2\n      swap1\n      tag_31\n      jump\t// in\n    tag_30:\n      mload(0x40)\n      dup1\n      swap2\n      sub\n      swap1\n      return\n        /* \"Contracts/mul.sol\":627:660  Transaction[] public transactions */\n    tag_6:\n      callvalue\n      dup1\n      iszero\n      tag_32\n      jumpi\n      0x00\n      dup1\n      revert\n    tag_32:\n      pop\n      tag_33\n      0x04\n      dup1\n      calldatasize\n      sub\n      dup2\n      add\n      swap1\n      tag_34\n      swap2\n      swap1\n      tag_16\n      jump\t// in\n    tag_34:\n      tag_35\n      jump\t// in\n    tag_33:\n      mload(0x40)\n      tag_36\n      swap5\n      swap4\n      swap3\n      swap2\n      swap1\n      tag_37\n      jump\t// in\n    tag_36:\n      mload(0x40)\n      dup1\n      swap2\n      sub\n      swap1\n      return\n        /* \"Contracts/mul.sol\":667:724  mapping(uint => mapping(address => bool)) public approval */\n    tag_7:\n      callvalue\n      dup1\n      iszero\n      tag_38\n      jumpi\n      0x00\n      dup1\n      revert\n    tag_38:\n      pop\n      tag_39\n      0x04\n      dup1\n      calldatasize\n      sub\n      dup2\n      add\n      swap1\n      tag_40\n      swap2\n      swap1\n      tag_41\n      jump\t// in\n    tag_40:\n      tag_42\n      jump\t// in\n    tag_39:\n      mload(0x40)\n      tag_43\n      swap2\n      swap1\n      tag_31\n      jump\t// in\n    tag_43:\n      mload(0x40)\n      dup1\n      swap2\n      sub\n      swap1\n      return\n        /* \"Contracts/mul.sol\":600:620  uint public required */\n    tag_8:\n      callvalue\n      dup1\n      iszero\n      tag_44\n      jumpi\n      0x00\n      dup1\n      revert\n    tag_44:\n      pop\n      tag_45\n      tag_46\n      jump\t// in\n    tag_45:\n      mload(0x40)\n      tag_47\n      swap2\n      swap1\n      tag_12\n      jump\t// in\n    tag_47:\n      mload(0x40)\n      dup1\n      swap2\n      sub\n      swap1\n      return\n        /* \"Contracts/mul.sol\":523:546  address[] public owners */\n    tag_17:\n      0x00\n      dup2\n      dup2\n      sload\n      dup2\n      lt\n      tag_48\n      jumpi\n      0x00\n      dup1\n      revert\n    tag_48:\n      swap1\n      0x00\n      mstore\n      keccak256(0x00, 0x20)\n      add\n      0x00\n      swap2\n      pop\n      sload\n      swap1\n      0x0100\n      exp\n      swap1\n      div\n      0xffffffffffffffffffffffffffffffffffffffff\n      and\n      dup2\n      jump\t// out\n        /* \"Contracts/mul.sol\":1436:1727  function submit(address _to, uint _value, bytes calldata _data) external onlyOwner{... */\n    tag_24:\n        /* \"Contracts/mul.sol\":1289:1296  isOwner */\n      0x01\n        /* \"Contracts/mul.sol\":1289:1308  isOwner[msg.sender] */\n      0x00\n        /* \"Contracts/mul.sol\":1297:1307  msg.sender */\n      caller\n        /* \"Contracts/mul.sol\":1289:1308  isOwner[msg.sender] */\n      0xffffffffffffffffffffffffffffffffffffffff\n      and\n      0xffffffffffffffffffffffffffffffffffffffff\n      and\n      dup2\n      mstore\n      0x20\n      add\n      swap1\n      dup2\n      mstore\n      0x20\n      add\n      0x00\n      keccak256\n      0x00\n      swap1\n      sload\n      swap1\n      0x0100\n      exp\n      swap1\n      div\n      0xff\n      and\n        /* \"Contracts/mul.sol\":1281:1322  require(isOwner[msg.sender], \"not owner\") */\n      tag_51\n      jumpi\n      mload(0x40)\n      0x08c379a000000000000000000000000000000000000000000000000000000000\n      dup2\n      mstore\n      0x04\n      add\n      tag_52\n      swap1\n      tag_53\n      jump\t// in\n    tag_52:\n      mload(0x40)\n      dup1\n      swap2\n      sub\n      swap1\n      revert\n    tag_51:\n        /* \"Contracts/mul.sol\":1529:1541  transactions */\n      0x03\n        /* \"Contracts/mul.sol\":1547:1673  Transaction({... */\n      mload(0x40)\n      dup1\n      0x80\n      add\n      0x40\n      mstore\n      dup1\n        /* \"Contracts/mul.sol\":1577:1580  _to */\n      dup7\n        /* \"Contracts/mul.sol\":1547:1673  Transaction({... */\n      0xffffffffffffffffffffffffffffffffffffffff\n      and\n      dup2\n      mstore\n      0x20\n      add\n        /* \"Contracts/mul.sol\":1601:1607  _value */\n      dup6\n        /* \"Contracts/mul.sol\":1547:1673  Transaction({... */\n      dup2\n      mstore\n      0x20\n      add\n        /* \"Contracts/mul.sol\":1627:1632  _data */\n      dup5\n      dup5\n        /* \"Contracts/mul.sol\":1547:1673  Transaction({... */\n      dup1\n      dup1\n      0x1f\n      add\n      0x20\n      dup1\n      swap2\n      div\n      mul\n      0x20\n      add\n      mload(0x40)\n      swap1\n      dup2\n      add\n      0x40\n      mstore\n      dup1\n      swap4\n      swap3\n      swap2\n      swap1\n      dup2\n      dup2\n      mstore\n      0x20\n      add\n      dup4\n      dup4\n      dup1\n      dup3\n      dup5\n      calldatacopy\n      0x00\n      dup2\n      dup5\n      add\n      mstore\n      not(0x1f)\n      0x1f\n      dup3\n      add\n      and\n      swap1\n      pop\n      dup1\n      dup4\n      add\n      swap3\n      pop\n      pop\n      pop\n      pop\n      pop\n      pop\n      pop\n      dup2\n      mstore\n      0x20\n      add\n        /* \"Contracts/mul.sol\":1656:1661  false */\n      0x00\n        /* \"Contracts/mul.sol\":1547:1673  Transaction({... */\n      iszero\n      iszero\n      dup2\n      mstore\n      pop\n        /* \"Contracts/mul.sol\":1529:1674  transactions.push(Transaction({... */\n      swap1\n      dup1\n      0x01\n      dup2\n      sload\n      add\n      dup1\n      dup3\n      sstore\n      dup1\n      swap2\n      pop\n      pop\n      0x01\n      swap1\n      sub\n      swap1\n      0x00\n      mstore\n      keccak256(0x00, 0x20)\n      swap1\n      0x04\n      mul\n      add\n      0x00\n      swap1\n      swap2\n      swap1\n      swap2\n      swap1\n      swap2\n      pop\n      0x00\n      dup3\n      add\n      mload\n      dup2\n      0x00\n      add\n      exp(0x0100, 0x00)\n      dup2\n      sload\n      dup2\n      0xffffffffffffffffffffffffffffffffffffffff\n      mul\n      not\n      and\n      swap1\n      dup4\n      0xffffffffffffffffffffffffffffffffffffffff\n      and\n      mul\n      or\n      swap1\n      sstore\n      pop\n      0x20\n      dup3\n      add\n      mload\n      dup2\n      0x01\n      add\n      sstore\n      0x40\n      dup3\n      add\n      mload\n      dup2\n      0x02\n      add\n      swap1\n      dup2\n      tag_56\n      swap2\n      swap1\n      tag_57\n      jump\t// in\n    tag_56:\n      pop\n      0x60\n      dup3\n      add\n      mload\n      dup2\n      0x03\n      add\n      exp(0x0100, 0x00)\n      dup2\n      sload\n      dup2\n      0xff\n      mul\n      not\n      and\n      swap1\n      dup4\n      iszero\n      iszero\n      mul\n      or\n      swap1\n      sstore\n      pop\n      pop\n      pop\n        /* \"Contracts/mul.sol\":1717:1718  1 */\n      0x01\n        /* \"Contracts/mul.sol\":1697:1709  transactions */\n      0x03\n        /* \"Contracts/mul.sol\":1697:1716  transactions.length */\n      dup1\n      sload\n      swap1\n      pop\n        /* \"Contracts/mul.sol\":1697:1718  transactions.length-1 */\n      tag_58\n      swap2\n      swap1\n      tag_59\n      jump\t// in\n    tag_58:\n        /* \"Contracts/mul.sol\":1690:1719  Submit(transactions.length-1) */\n      0x08324b3d745b914e3abd4ffbfead91e3b78391a98c173202129215ab933adfbe\n      mload(0x40)\n      mload(0x40)\n      dup1\n      swap2\n      sub\n      swap1\n      log2\n        /* \"Contracts/mul.sol\":1436:1727  function submit(address _to, uint _value, bytes calldata _data) external onlyOwner{... */\n      pop\n      pop\n      pop\n      pop\n      jump\t// out\n        /* \"Contracts/mul.sol\":553:593  mapping (address => bool) public isOwner */\n    tag_29:\n      mstore(0x20, 0x01)\n      dup1\n      0x00\n      mstore\n      keccak256(0x00, 0x40)\n      0x00\n      swap2\n      pop\n      sload\n      swap1\n      0x0100\n      exp\n      swap1\n      div\n      0xff\n      and\n      dup2\n      jump\t// out\n        /* \"Contracts/mul.sol\":627:660  Transaction[] public transactions */\n    tag_35:\n      0x03\n      dup2\n      dup2\n      sload\n      dup2\n      lt\n      tag_60\n      jumpi\n      0x00\n      dup1\n      revert\n    tag_60:\n      swap1\n      0x00\n      mstore\n      keccak256(0x00, 0x20)\n      swap1\n      0x04\n      mul\n      add\n      0x00\n      swap2\n      pop\n      swap1\n      pop\n      dup1\n      0x00\n      add\n      0x00\n      swap1\n      sload\n      swap1\n      0x0100\n      exp\n      swap1\n      div\n      0xffffffffffffffffffffffffffffffffffffffff\n      and\n      swap1\n      dup1\n      0x01\n      add\n      sload\n      swap1\n      dup1\n      0x02\n      add\n      dup1\n      sload\n      tag_62\n      swap1\n      tag_63\n      jump\t// in\n    tag_62:\n      dup1\n      0x1f\n      add\n      0x20\n      dup1\n      swap2\n      div\n      mul\n      0x20\n      add\n      mload(0x40)\n      swap1\n      dup2\n      add\n      0x40\n      mstore\n      dup1\n      swap3\n      swap2\n      swap1\n      dup2\n      dup2\n      mstore\n      0x20\n      add\n      dup3\n      dup1\n      sload\n      tag_64\n      swap1\n      tag_63\n      jump\t// in\n    tag_64:\n      dup1\n      iszero\n      tag_65\n      jumpi\n      dup1\n      0x1f\n      lt\n      tag_66\n      jumpi\n      0x0100\n      dup1\n      dup4\n      sload\n      div\n      mul\n      dup4\n      mstore\n      swap2\n      0x20\n      add\n      swap2\n      jump(tag_65)\n    tag_66:\n      dup3\n      add\n      swap2\n      swap1\n      0x00\n      mstore\n      keccak256(0x00, 0x20)\n      swap1\n    tag_67:\n      dup2\n      sload\n      dup2\n      mstore\n      swap1\n      0x01\n      add\n      swap1\n      0x20\n      add\n      dup1\n      dup4\n      gt\n      tag_67\n      jumpi\n      dup3\n      swap1\n      sub\n      0x1f\n      and\n      dup3\n      add\n      swap2\n    tag_65:\n      pop\n      pop\n      pop\n      pop\n      pop\n      swap1\n      dup1\n      0x03\n      add\n      0x00\n      swap1\n      sload\n      swap1\n      0x0100\n      exp\n      swap1\n      div\n      0xff\n      and\n      swap1\n      pop\n      dup5\n      jump\t// out\n        /* \"Contracts/mul.sol\":667:724  mapping(uint => mapping(address => bool)) public approval */\n    tag_42:\n      mstore(0x20, 0x04)\n      dup2\n      0x00\n      mstore\n      mstore(0x20, keccak256(0x00, 0x40))\n      dup1\n      0x00\n      mstore\n      keccak256(0x00, 0x40)\n      0x00\n      swap2\n      pop\n      swap2\n      pop\n      swap1\n      sload\n      swap1\n      0x0100\n      exp\n      swap1\n      div\n      0xff\n      and\n      dup2\n      jump\t// out\n        /* \"Contracts/mul.sol\":600:620  uint public required */\n    tag_46:\n      sload(0x02)\n      dup2\n      jump\t// out\n        /* \"#utility.yul\":7:84   */\n    tag_68:\n        /* \"#utility.yul\":44:51   */\n      0x00\n        /* \"#utility.yul\":73:78   */\n      dup2\n        /* \"#utility.yul\":62:78   */\n      swap1\n      pop\n        /* \"#utility.yul\":7:84   */\n      swap2\n      swap1\n      pop\n      jump\t// out\n        /* \"#utility.yul\":90:208   */\n    tag_69:\n        /* \"#utility.yul\":177:201   */\n      tag_115\n        /* \"#utility.yul\":195:200   */\n      dup2\n        /* \"#utility.yul\":177:201   */\n      tag_68\n      jump\t// in\n    tag_115:\n        /* \"#utility.yul\":172:175   */\n      dup3\n        /* \"#utility.yul\":165:202   */\n      mstore\n        /* \"#utility.yul\":90:208   */\n      pop\n      pop\n      jump\t// out\n        /* \"#utility.yul\":214:436   */\n    tag_12:\n        /* \"#utility.yul\":307:311   */\n      0x00\n        /* \"#utility.yul\":345:347   */\n      0x20\n        /* \"#utility.yul\":334:343   */\n      dup3\n        /* \"#utility.yul\":330:348   */\n      add\n        /* \"#utility.yul\":322:348   */\n      swap1\n      pop\n        /* \"#utility.yul\":358:429   */\n      tag_117\n        /* \"#utility.yul\":426:427   */\n      0x00\n        /* \"#utility.yul\":415:424   */\n      dup4\n        /* \"#utility.yul\":411:428   */\n      add\n        /* \"#utility.yul\":402:408   */\n      dup5\n        /* \"#utility.yul\":358:429   */\n      tag_69\n      jump\t// in\n    tag_117:\n        /* \"#utility.yul\":214:436   */\n      swap3\n      swap2\n      pop\n      pop\n      jump\t// out\n        /* \"#utility.yul\":523:640   */\n    tag_71:\n        /* \"#utility.yul\":632:633   */\n      0x00\n        /* \"#utility.yul\":629:630   */\n      dup1\n        /* \"#utility.yul\":622:634   */\n      revert\n        /* \"#utility.yul\":646:763   */\n    tag_72:\n        /* \"#utility.yul\":755:756   */\n      0x00\n        /* \"#utility.yul\":752:753   */\n      dup1\n        /* \"#utility.yul\":745:757   */\n      revert\n        /* \"#utility.yul\":769:891   */\n    tag_73:\n        /* \"#utility.yul\":842:866   */\n      tag_122\n        /* \"#utility.yul\":860:865   */\n      dup2\n        /* \"#utility.yul\":842:866   */\n      tag_68\n      jump\t// in\n    tag_122:\n        /* \"#utility.yul\":835:840   */\n      dup2\n        /* \"#utility.yul\":832:867   */\n      eq\n        /* \"#utility.yul\":822:885   */\n      tag_123\n      jumpi\n        /* \"#utility.yul\":881:882   */\n      0x00\n        /* \"#utility.yul\":878:879   */\n      dup1\n        /* \"#utility.yul\":871:883   */\n      revert\n        /* \"#utility.yul\":822:885   */\n    tag_123:\n        /* \"#utility.yul\":769:891   */\n      pop\n      jump\t// out\n        /* \"#utility.yul\":897:1036   */\n    tag_74:\n        /* \"#utility.yul\":943:948   */\n      0x00\n        /* \"#utility.yul\":981:987   */\n      dup2\n        /* \"#utility.yul\":968:988   */\n      calldataload\n        /* \"#utility.yul\":959:988   */\n      swap1\n      pop\n        /* \"#utility.yul\":997:1030   */\n      tag_125\n        /* \"#utility.yul\":1024:1029   */\n      dup2\n        /* \"#utility.yul\":997:1030   */\n      tag_73\n      jump\t// in\n    tag_125:\n        /* \"#utility.yul\":897:1036   */\n      swap3\n      swap2\n      pop\n      pop\n      jump\t// out\n        /* \"#utility.yul\":1042:1371   */\n    tag_16:\n        /* \"#utility.yul\":1101:1107   */\n      0x00\n        /* \"#utility.yul\":1150:1152   */\n      0x20\n        /* \"#utility.yul\":1138:1147   */\n      dup3\n        /* \"#utility.yul\":1129:1136   */\n      dup5\n        /* \"#utility.yul\":1125:1148   */\n      sub\n        /* \"#utility.yul\":1121:1153   */\n      slt\n        /* \"#utility.yul\":1118:1237   */\n      iszero\n      tag_127\n      jumpi\n        /* \"#utility.yul\":1156:1235   */\n      tag_128\n      tag_71\n      jump\t// in\n    tag_128:\n        /* \"#utility.yul\":1118:1237   */\n    tag_127:\n        /* \"#utility.yul\":1276:1277   */\n      0x00\n        /* \"#utility.yul\":1301:1354   */\n      tag_129\n        /* \"#utility.yul\":1346:1353   */\n      dup5\n        /* \"#utility.yul\":1337:1343   */\n      dup3\n        /* \"#utility.yul\":1326:1335   */\n      dup6\n        /* \"#utility.yul\":1322:1344   */\n      add\n        /* \"#utility.yul\":1301:1354   */\n      tag_74\n      jump\t// in\n    tag_129:\n        /* \"#utility.yul\":1291:1354   */\n      swap2\n      pop\n        /* \"#utility.yul\":1247:1364   */\n      pop\n        /* \"#utility.yul\":1042:1371   */\n      swap3\n      swap2\n      pop\n      pop\n      jump\t// out\n        /* \"#utility.yul\":1377:1503   */\n    tag_75:\n        /* \"#utility.yul\":1414:1421   */\n      0x00\n        /* \"#utility.yul\":1454:1496   */\n      0xffffffffffffffffffffffffffffffffffffffff\n        /* \"#utility.yul\":1447:1452   */\n      dup3\n        /* \"#utility.yul\":1443:1497   */\n      and\n        /* \"#utility.yul\":1432:1497   */\n      swap1\n      pop\n        /* \"#utility.yul\":1377:1503   */\n      swap2\n      swap1\n      pop\n      jump\t// out\n        /* \"#utility.yul\":1509:1605   */\n    tag_76:\n        /* \"#utility.yul\":1546:1553   */\n      0x00\n        /* \"#utility.yul\":1575:1599   */\n      tag_132\n        /* \"#utility.yul\":1593:1598   */\n      dup3\n        /* \"#utility.yul\":1575:1599   */\n      tag_75\n      jump\t// in\n    tag_132:\n        /* \"#utility.yul\":1564:1599   */\n      swap1\n      pop\n        /* \"#utility.yul\":1509:1605   */\n      swap2\n      swap1\n      pop\n      jump\t// out\n        /* \"#utility.yul\":1611:1729   */\n    tag_77:\n        /* \"#utility.yul\":1698:1722   */\n      tag_134\n        /* \"#utility.yul\":1716:1721   */\n      dup2\n        /* \"#utility.yul\":1698:1722   */\n      tag_76\n      jump\t// in\n    tag_134:\n        /* \"#utility.yul\":1693:1696   */\n      dup3\n        /* \"#utility.yul\":1686:1723   */\n      mstore\n        /* \"#utility.yul\":1611:1729   */\n      pop\n      pop\n      jump\t// out\n        /* \"#utility.yul\":1735:1957   */\n    tag_19:\n        /* \"#utility.yul\":1828:1832   */\n      0x00\n        /* \"#utility.yul\":1866:1868   */\n      0x20\n        /* \"#utility.yul\":1855:1864   */\n      dup3\n        /* \"#utility.yul\":1851:1869   */\n      add\n        /* \"#utility.yul\":1843:1869   */\n      swap1\n      pop\n        /* \"#utility.yul\":1879:1950   */\n      tag_136\n        /* \"#utility.yul\":1947:1948   */\n      0x00\n        /* \"#utility.yul\":1936:1945   */\n      dup4\n        /* \"#utility.yul\":1932:1949   */\n      add\n        /* \"#utility.yul\":1923:1929   */\n      dup5\n        /* \"#utility.yul\":1879:1950   */\n      tag_77\n      jump\t// in\n    tag_136:\n        /* \"#utility.yul\":1735:1957   */\n      swap3\n      swap2\n      pop\n      pop\n      jump\t// out\n        /* \"#utility.yul\":1963:2085   */\n    tag_78:\n        /* \"#utility.yul\":2036:2060   */\n      tag_138\n        /* \"#utility.yul\":2054:2059   */\n      dup2\n        /* \"#utility.yul\":2036:2060   */\n      tag_76\n      jump\t// in\n    tag_138:\n        /* \"#utility.yul\":2029:2034   */\n      dup2\n        /* \"#utility.yul\":2026:2061   */\n      eq\n        /* \"#utility.yul\":2016:2079   */\n      tag_139\n      jumpi\n        /* \"#utility.yul\":2075:2076   */\n      0x00\n        /* \"#utility.yul\":2072:2073   */\n      dup1\n        /* \"#utility.yul\":2065:2077   */\n      revert\n        /* \"#utility.yul\":2016:2079   */\n    tag_139:\n        /* \"#utility.yul\":1963:2085   */\n      pop\n      jump\t// out\n        /* \"#utility.yul\":2091:2230   */\n    tag_79:\n        /* \"#utility.yul\":2137:2142   */\n      0x00\n        /* \"#utility.yul\":2175:2181   */\n      dup2\n        /* \"#utility.yul\":2162:2182   */\n      calldataload\n        /* \"#utility.yul\":2153:2182   */\n      swap1\n      pop\n        /* \"#utility.yul\":2191:2224   */\n      tag_141\n        /* \"#utility.yul\":2218:2223   */\n      dup2\n        /* \"#utility.yul\":2191:2224   */\n      tag_78\n      jump\t// in\n    tag_141:\n        /* \"#utility.yul\":2091:2230   */\n      swap3\n      swap2\n      pop\n      pop\n      jump\t// out\n        /* \"#utility.yul\":2236:2353   */\n    tag_80:\n        /* \"#utility.yul\":2345:2346   */\n      0x00\n        /* \"#utility.yul\":2342:2343   */\n      dup1\n        /* \"#utility.yul\":2335:2347   */\n      revert\n        /* \"#utility.yul\":2359:2476   */\n    tag_81:\n        /* \"#utility.yul\":2468:2469   */\n      0x00\n        /* \"#utility.yul\":2465:2466   */\n      dup1\n        /* \"#utility.yul\":2458:2470   */\n      revert\n        /* \"#utility.yul\":2482:2599   */\n    tag_82:\n        /* \"#utility.yul\":2591:2592   */\n      0x00\n        /* \"#utility.yul\":2588:2589   */\n      dup1\n        /* \"#utility.yul\":2581:2593   */\n      revert\n        /* \"#utility.yul\":2618:3170   */\n    tag_83:\n        /* \"#utility.yul\":2675:2683   */\n      0x00\n        /* \"#utility.yul\":2685:2691   */\n      dup1\n        /* \"#utility.yul\":2735:2738   */\n      dup4\n        /* \"#utility.yul\":2728:2732   */\n      0x1f\n        /* \"#utility.yul\":2720:2726   */\n      dup5\n        /* \"#utility.yul\":2716:2733   */\n      add\n        /* \"#utility.yul\":2712:2739   */\n      slt\n        /* \"#utility.yul\":2702:2824   */\n      tag_146\n      jumpi\n        /* \"#utility.yul\":2743:2822   */\n      tag_147\n      tag_80\n      jump\t// in\n    tag_147:\n        /* \"#utility.yul\":2702:2824   */\n    tag_146:\n        /* \"#utility.yul\":2856:2862   */\n      dup3\n        /* \"#utility.yul\":2843:2863   */\n      calldataload\n        /* \"#utility.yul\":2833:2863   */\n      swap1\n      pop\n        /* \"#utility.yul\":2886:2904   */\n      0xffffffffffffffff\n        /* \"#utility.yul\":2878:2884   */\n      dup2\n        /* \"#utility.yul\":2875:2905   */\n      gt\n        /* \"#utility.yul\":2872:2989   */\n      iszero\n      tag_148\n      jumpi\n        /* \"#utility.yul\":2908:2987   */\n      tag_149\n      tag_81\n      jump\t// in\n    tag_149:\n        /* \"#utility.yul\":2872:2989   */\n    tag_148:\n        /* \"#utility.yul\":3022:3026   */\n      0x20\n        /* \"#utility.yul\":3014:3020   */\n      dup4\n        /* \"#utility.yul\":3010:3027   */\n      add\n        /* \"#utility.yul\":2998:3027   */\n      swap2\n      pop\n        /* \"#utility.yul\":3076:3079   */\n      dup4\n        /* \"#utility.yul\":3068:3072   */\n      0x01\n        /* \"#utility.yul\":3060:3066   */\n      dup3\n        /* \"#utility.yul\":3056:3073   */\n      mul\n        /* \"#utility.yul\":3046:3054   */\n      dup4\n        /* \"#utility.yul\":3042:3074   */\n      add\n        /* \"#utility.yul\":3039:3080   */\n      gt\n        /* \"#utility.yul\":3036:3164   */\n      iszero\n      tag_150\n      jumpi\n        /* \"#utility.yul\":3083:3162   */\n      tag_151\n      tag_82\n      jump\t// in\n    tag_151:\n        /* \"#utility.yul\":3036:3164   */\n    tag_150:\n        /* \"#utility.yul\":2618:3170   */\n      swap3\n      pop\n      swap3\n      swap1\n      pop\n      jump\t// out\n        /* \"#utility.yul\":3176:3993   */\n    tag_23:\n        /* \"#utility.yul\":3264:3270   */\n      0x00\n        /* \"#utility.yul\":3272:3278   */\n      dup1\n        /* \"#utility.yul\":3280:3286   */\n      0x00\n        /* \"#utility.yul\":3288:3294   */\n      dup1\n        /* \"#utility.yul\":3337:3339   */\n      0x60\n        /* \"#utility.yul\":3325:3334   */\n      dup6\n        /* \"#utility.yul\":3316:3323   */\n      dup8\n        /* \"#utility.yul\":3312:3335   */\n      sub\n        /* \"#utility.yul\":3308:3340   */\n      slt\n        /* \"#utility.yul\":3305:3424   */\n      iszero\n      tag_153\n      jumpi\n        /* \"#utility.yul\":3343:3422   */\n      tag_154\n      tag_71\n      jump\t// in\n    tag_154:\n        /* \"#utility.yul\":3305:3424   */\n    tag_153:\n        /* \"#utility.yul\":3463:3464   */\n      0x00\n        /* \"#utility.yul\":3488:3541   */\n      tag_155\n        /* \"#utility.yul\":3533:3540   */\n      dup8\n        /* \"#utility.yul\":3524:3530   */\n      dup3\n        /* \"#utility.yul\":3513:3522   */\n      dup9\n        /* \"#utility.yul\":3509:3531   */\n      add\n        /* \"#utility.yul\":3488:3541   */\n      tag_79\n      jump\t// in\n    tag_155:\n        /* \"#utility.yul\":3478:3541   */\n      swap5\n      pop\n        /* \"#utility.yul\":3434:3551   */\n      pop\n        /* \"#utility.yul\":3590:3592   */\n      0x20\n        /* \"#utility.yul\":3616:3669   */\n      tag_156\n        /* \"#utility.yul\":3661:3668   */\n      dup8\n        /* \"#utility.yul\":3652:3658   */\n      dup3\n        /* \"#utility.yul\":3641:3650   */\n      dup9\n        /* \"#utility.yul\":3637:3659   */\n      add\n        /* \"#utility.yul\":3616:3669   */\n      tag_74\n      jump\t// in\n    tag_156:\n        /* \"#utility.yul\":3606:3669   */\n      swap4\n      pop\n        /* \"#utility.yul\":3561:3679   */\n      pop\n        /* \"#utility.yul\":3746:3748   */\n      0x40\n        /* \"#utility.yul\":3735:3744   */\n      dup6\n        /* \"#utility.yul\":3731:3749   */\n      add\n        /* \"#utility.yul\":3718:3750   */\n      calldataload\n        /* \"#utility.yul\":3777:3795   */\n      0xffffffffffffffff\n        /* \"#utility.yul\":3769:3775   */\n      dup2\n        /* \"#utility.yul\":3766:3796   */\n      gt\n        /* \"#utility.yul\":3763:3880   */\n      iszero\n      tag_157\n      jumpi\n        /* \"#utility.yul\":3799:3878   */\n      tag_158\n      tag_72\n      jump\t// in\n    tag_158:\n        /* \"#utility.yul\":3763:3880   */\n    tag_157:\n        /* \"#utility.yul\":3912:3976   */\n      tag_159\n        /* \"#utility.yul\":3968:3975   */\n      dup8\n        /* \"#utility.yul\":3959:3965   */\n      dup3\n        /* \"#utility.yul\":3948:3957   */\n      dup9\n        /* \"#utility.yul\":3944:3966   */\n      add\n        /* \"#utility.yul\":3912:3976   */\n      tag_83\n      jump\t// in\n    tag_159:\n        /* \"#utility.yul\":3894:3976   */\n      swap3\n      pop\n      swap3\n      pop\n        /* \"#utility.yul\":3689:3986   */\n      pop\n        /* \"#utility.yul\":3176:3993   */\n      swap3\n      swap6\n      swap2\n      swap5\n      pop\n      swap3\n      pop\n      jump\t// out\n        /* \"#utility.yul\":3999:4328   */\n    tag_28:\n        /* \"#utility.yul\":4058:4064   */\n      0x00\n        /* \"#utility.yul\":4107:4109   */\n      0x20\n        /* \"#utility.yul\":4095:4104   */\n      dup3\n        /* \"#utility.yul\":4086:4093   */\n      dup5\n        /* \"#utility.yul\":4082:4105   */\n      sub\n        /* \"#utility.yul\":4078:4110   */\n      slt\n        /* \"#utility.yul\":4075:4194   */\n      iszero\n      tag_161\n      jumpi\n        /* \"#utility.yul\":4113:4192   */\n      tag_162\n      tag_71\n      jump\t// in\n    tag_162:\n        /* \"#utility.yul\":4075:4194   */\n    tag_161:\n        /* \"#utility.yul\":4233:4234   */\n      0x00\n        /* \"#utility.yul\":4258:4311   */\n      tag_163\n        /* \"#utility.yul\":4303:4310   */\n      dup5\n        /* \"#utility.yul\":4294:4300   */\n      dup3\n        /* \"#utility.yul\":4283:4292   */\n      dup6\n        /* \"#utility.yul\":4279:4301   */\n      add\n        /* \"#utility.yul\":4258:4311   */\n      tag_79\n      jump\t// in\n    tag_163:\n        /* \"#utility.yul\":4248:4311   */\n      swap2\n      pop\n        /* \"#utility.yul\":4204:4321   */\n      pop\n        /* \"#utility.yul\":3999:4328   */\n      swap3\n      swap2\n      pop\n      pop\n      jump\t// out\n        /* \"#utility.yul\":4334:4424   */\n    tag_84:\n        /* \"#utility.yul\":4368:4375   */\n      0x00\n        /* \"#utility.yul\":4411:4416   */\n      dup2\n        /* \"#utility.yul\":4404:4417   */\n      iszero\n        /* \"#utility.yul\":4397:4418   */\n      iszero\n        /* \"#utility.yul\":4386:4418   */\n      swap1\n      pop\n        /* \"#utility.yul\":4334:4424   */\n      swap2\n      swap1\n      pop\n      jump\t// out\n        /* \"#utility.yul\":4430:4539   */\n    tag_85:\n        /* \"#utility.yul\":4511:4532   */\n      tag_166\n        /* \"#utility.yul\":4526:4531   */\n      dup2\n        /* \"#utility.yul\":4511:4532   */\n      tag_84\n      jump\t// in\n    tag_166:\n        /* \"#utility.yul\":4506:4509   */\n      dup3\n        /* \"#utility.yul\":4499:4533   */\n      mstore\n        /* \"#utility.yul\":4430:4539   */\n      pop\n      pop\n      jump\t// out\n        /* \"#utility.yul\":4545:4755   */\n    tag_31:\n        /* \"#utility.yul\":4632:4636   */\n      0x00\n        /* \"#utility.yul\":4670:4672   */\n      0x20\n        /* \"#utility.yul\":4659:4668   */\n      dup3\n        /* \"#utility.yul\":4655:4673   */\n      add\n        /* \"#utility.yul\":4647:4673   */\n      swap1\n      pop\n        /* \"#utility.yul\":4683:4748   */\n      tag_168\n        /* \"#utility.yul\":4745:4746   */\n      0x00\n        /* \"#utility.yul\":4734:4743   */\n      dup4\n        /* \"#utility.yul\":4730:4747   */\n      add\n        /* \"#utility.yul\":4721:4727   */\n      dup5\n        /* \"#utility.yul\":4683:4748   */\n      tag_85\n      jump\t// in\n    tag_168:\n        /* \"#utility.yul\":4545:4755   */\n      swap3\n      swap2\n      pop\n      pop\n      jump\t// out\n        /* \"#utility.yul\":4761:4859   */\n    tag_86:\n        /* \"#utility.yul\":4812:4818   */\n      0x00\n        /* \"#utility.yul\":4846:4851   */\n      dup2\n        /* \"#utility.yul\":4840:4852   */\n      mload\n        /* \"#utility.yul\":4830:4852   */\n      swap1\n      pop\n        /* \"#utility.yul\":4761:4859   */\n      swap2\n      swap1\n      pop\n      jump\t// out\n        /* \"#utility.yul\":4865:5033   */\n    tag_87:\n        /* \"#utility.yul\":4948:4959   */\n      0x00\n        /* \"#utility.yul\":4982:4988   */\n      dup3\n        /* \"#utility.yul\":4977:4980   */\n      dup3\n        /* \"#utility.yul\":4970:4989   */\n      mstore\n        /* \"#utility.yul\":5022:5026   */\n      0x20\n        /* \"#utility.yul\":5017:5020   */\n      dup3\n        /* \"#utility.yul\":5013:5027   */\n      add\n        /* \"#utility.yul\":4998:5027   */\n      swap1\n      pop\n        /* \"#utility.yul\":4865:5033   */\n      swap3\n      swap2\n      pop\n      pop\n      jump\t// out\n        /* \"#utility.yul\":5039:5285   */\n    tag_88:\n        /* \"#utility.yul\":5120:5121   */\n      0x00\n        /* \"#utility.yul\":5130:5243   */\n    tag_172:\n        /* \"#utility.yul\":5144:5150   */\n      dup4\n        /* \"#utility.yul\":5141:5142   */\n      dup2\n        /* \"#utility.yul\":5138:5151   */\n      lt\n        /* \"#utility.yul\":5130:5243   */\n      iszero\n      tag_174\n      jumpi\n        /* \"#utility.yul\":5229:5230   */\n      dup1\n        /* \"#utility.yul\":5224:5227   */\n      dup3\n        /* \"#utility.yul\":5220:5231   */\n      add\n        /* \"#utility.yul\":5214:5232   */\n      mload\n        /* \"#utility.yul\":5210:5211   */\n      dup2\n        /* \"#utility.yul\":5205:5208   */\n      dup5\n        /* \"#utility.yul\":5201:5212   */\n      add\n        /* \"#utility.yul\":5194:5233   */\n      mstore\n        /* \"#utility.yul\":5166:5168   */\n      0x20\n        /* \"#utility.yul\":5163:5164   */\n      dup2\n        /* \"#utility.yul\":5159:5169   */\n      add\n        /* \"#utility.yul\":5154:5169   */\n      swap1\n      pop\n        /* \"#utility.yul\":5130:5243   */\n      jump(tag_172)\n    tag_174:\n        /* \"#utility.yul\":5277:5278   */\n      0x00\n        /* \"#utility.yul\":5268:5274   */\n      dup5\n        /* \"#utility.yul\":5263:5266   */\n      dup5\n        /* \"#utility.yul\":5259:5275   */\n      add\n        /* \"#utility.yul\":5252:5279   */\n      mstore\n        /* \"#utility.yul\":5101:5285   */\n      pop\n        /* \"#utility.yul\":5039:5285   */\n      pop\n      pop\n      pop\n      jump\t// out\n        /* \"#utility.yul\":5291:5393   */\n    tag_89:\n        /* \"#utility.yul\":5332:5338   */\n      0x00\n        /* \"#utility.yul\":5383:5385   */\n      0x1f\n        /* \"#utility.yul\":5379:5386   */\n      not\n        /* \"#utility.yul\":5374:5376   */\n      0x1f\n        /* \"#utility.yul\":5367:5372   */\n      dup4\n        /* \"#utility.yul\":5363:5377   */\n      add\n        /* \"#utility.yul\":5359:5387   */\n      and\n        /* \"#utility.yul\":5349:5387   */\n      swap1\n      pop\n        /* \"#utility.yul\":5291:5393   */\n      swap2\n      swap1\n      pop\n      jump\t// out\n        /* \"#utility.yul\":5399:5772   */\n    tag_90:\n        /* \"#utility.yul\":5485:5488   */\n      0x00\n        /* \"#utility.yul\":5513:5551   */\n      tag_177\n        /* \"#utility.yul\":5545:5550   */\n      dup3\n        /* \"#utility.yul\":5513:5551   */\n      tag_86\n      jump\t// in\n    tag_177:\n        /* \"#utility.yul\":5567:5637   */\n      tag_178\n        /* \"#utility.yul\":5630:5636   */\n      dup2\n        /* \"#utility.yul\":5625:5628   */\n      dup6\n        /* \"#utility.yul\":5567:5637   */\n      tag_87\n      jump\t// in\n    tag_178:\n        /* \"#utility.yul\":5560:5637   */\n      swap4\n      pop\n        /* \"#utility.yul\":5646:5711   */\n      tag_179\n        /* \"#utility.yul\":5704:5710   */\n      dup2\n        /* \"#utility.yul\":5699:5702   */\n      dup6\n        /* \"#utility.yul\":5692:5696   */\n      0x20\n        /* \"#utility.yul\":5685:5690   */\n      dup7\n        /* \"#utility.yul\":5681:5697   */\n      add\n        /* \"#utility.yul\":5646:5711   */\n      tag_88\n      jump\t// in\n    tag_179:\n        /* \"#utility.yul\":5736:5765   */\n      tag_180\n        /* \"#utility.yul\":5758:5764   */\n      dup2\n        /* \"#utility.yul\":5736:5765   */\n      tag_89\n      jump\t// in\n    tag_180:\n        /* \"#utility.yul\":5731:5734   */\n      dup5\n        /* \"#utility.yul\":5727:5766   */\n      add\n        /* \"#utility.yul\":5720:5766   */\n      swap2\n      pop\n        /* \"#utility.yul\":5489:5772   */\n      pop\n        /* \"#utility.yul\":5399:5772   */\n      swap3\n      swap2\n      pop\n      pop\n      jump\t// out\n        /* \"#utility.yul\":5778:6406   */\n    tag_37:\n        /* \"#utility.yul\":5967:5971   */\n      0x00\n        /* \"#utility.yul\":6005:6008   */\n      0x80\n        /* \"#utility.yul\":5994:6003   */\n      dup3\n        /* \"#utility.yul\":5990:6009   */\n      add\n        /* \"#utility.yul\":5982:6009   */\n      swap1\n      pop\n        /* \"#utility.yul\":6019:6090   */\n      tag_182\n        /* \"#utility.yul\":6087:6088   */\n      0x00\n        /* \"#utility.yul\":6076:6085   */\n      dup4\n        /* \"#utility.yul\":6072:6089   */\n      add\n        /* \"#utility.yul\":6063:6069   */\n      dup8\n        /* \"#utility.yul\":6019:6090   */\n      tag_77\n      jump\t// in\n    tag_182:\n        /* \"#utility.yul\":6100:6172   */\n      tag_183\n        /* \"#utility.yul\":6168:6170   */\n      0x20\n        /* \"#utility.yul\":6157:6166   */\n      dup4\n        /* \"#utility.yul\":6153:6171   */\n      add\n        /* \"#utility.yul\":6144:6150   */\n      dup7\n        /* \"#utility.yul\":6100:6172   */\n      tag_69\n      jump\t// in\n    tag_183:\n        /* \"#utility.yul\":6219:6228   */\n      dup2\n        /* \"#utility.yul\":6213:6217   */\n      dup2\n        /* \"#utility.yul\":6209:6229   */\n      sub\n        /* \"#utility.yul\":6204:6206   */\n      0x40\n        /* \"#utility.yul\":6193:6202   */\n      dup4\n        /* \"#utility.yul\":6189:6207   */\n      add\n        /* \"#utility.yul\":6182:6230   */\n      mstore\n        /* \"#utility.yul\":6247:6323   */\n      tag_184\n        /* \"#utility.yul\":6318:6322   */\n      dup2\n        /* \"#utility.yul\":6309:6315   */\n      dup6\n        /* \"#utility.yul\":6247:6323   */\n      tag_90\n      jump\t// in\n    tag_184:\n        /* \"#utility.yul\":6239:6323   */\n      swap1\n      pop\n        /* \"#utility.yul\":6333:6399   */\n      tag_185\n        /* \"#utility.yul\":6395:6397   */\n      0x60\n        /* \"#utility.yul\":6384:6393   */\n      dup4\n        /* \"#utility.yul\":6380:6398   */\n      add\n        /* \"#utility.yul\":6371:6377   */\n      dup5\n        /* \"#utility.yul\":6333:6399   */\n      tag_85\n      jump\t// in\n    tag_185:\n        /* \"#utility.yul\":5778:6406   */\n      swap6\n      swap5\n      pop\n      pop\n      pop\n      pop\n      pop\n      jump\t// out\n        /* \"#utility.yul\":6412:6886   */\n    tag_41:\n        /* \"#utility.yul\":6480:6486   */\n      0x00\n        /* \"#utility.yul\":6488:6494   */\n      dup1\n        /* \"#utility.yul\":6537:6539   */\n      0x40\n        /* \"#utility.yul\":6525:6534   */\n      dup4\n        /* \"#utility.yul\":6516:6523   */\n      dup6\n        /* \"#utility.yul\":6512:6535   */\n      sub\n        /* \"#utility.yul\":6508:6540   */\n      slt\n        /* \"#utility.yul\":6505:6624   */\n      iszero\n      tag_187\n      jumpi\n        /* \"#utility.yul\":6543:6622   */\n      tag_188\n      tag_71\n      jump\t// in\n    tag_188:\n        /* \"#utility.yul\":6505:6624   */\n    tag_187:\n        /* \"#utility.yul\":6663:6664   */\n      0x00\n        /* \"#utility.yul\":6688:6741   */\n      tag_189\n        /* \"#utility.yul\":6733:6740   */\n      dup6\n        /* \"#utility.yul\":6724:6730   */\n      dup3\n        /* \"#utility.yul\":6713:6722   */\n      dup7\n        /* \"#utility.yul\":6709:6731   */\n      add\n        /* \"#utility.yul\":6688:6741   */\n      tag_74\n      jump\t// in\n    tag_189:\n        /* \"#utility.yul\":6678:6741   */\n      swap3\n      pop\n        /* \"#utility.yul\":6634:6751   */\n      pop\n        /* \"#utility.yul\":6790:6792   */\n      0x20\n        /* \"#utility.yul\":6816:6869   */\n      tag_190\n        /* \"#utility.yul\":6861:6868   */\n      dup6\n        /* \"#utility.yul\":6852:6858   */\n      dup3\n        /* \"#utility.yul\":6841:6850   */\n      dup7\n        /* \"#utility.yul\":6837:6859   */\n      add\n        /* \"#utility.yul\":6816:6869   */\n      tag_79\n      jump\t// in\n    tag_190:\n        /* \"#utility.yul\":6806:6869   */\n      swap2\n      pop\n        /* \"#utility.yul\":6761:6879   */\n      pop\n        /* \"#utility.yul\":6412:6886   */\n      swap3\n      pop\n      swap3\n      swap1\n      pop\n      jump\t// out\n        /* \"#utility.yul\":6892:7061   */\n    tag_91:\n        /* \"#utility.yul\":6976:6987   */\n      0x00\n        /* \"#utility.yul\":7010:7016   */\n      dup3\n        /* \"#utility.yul\":7005:7008   */\n      dup3\n        /* \"#utility.yul\":6998:7017   */\n      mstore\n        /* \"#utility.yul\":7050:7054   */\n      0x20\n        /* \"#utility.yul\":7045:7048   */\n      dup3\n        /* \"#utility.yul\":7041:7055   */\n      add\n        /* \"#utility.yul\":7026:7055   */\n      swap1\n      pop\n        /* \"#utility.yul\":6892:7061   */\n      swap3\n      swap2\n      pop\n      pop\n      jump\t// out\n        /* \"#utility.yul\":7067:7226   */\n    tag_92:\n        /* \"#utility.yul\":7207:7218   */\n      0x6e6f74206f776e65720000000000000000000000000000000000000000000000\n        /* \"#utility.yul\":7203:7204   */\n      0x00\n        /* \"#utility.yul\":7195:7201   */\n      dup3\n        /* \"#utility.yul\":7191:7205   */\n      add\n        /* \"#utility.yul\":7184:7219   */\n      mstore\n        /* \"#utility.yul\":7067:7226   */\n      pop\n      jump\t// out\n        /* \"#utility.yul\":7232:7597   */\n    tag_93:\n        /* \"#utility.yul\":7374:7377   */\n      0x00\n        /* \"#utility.yul\":7395:7461   */\n      tag_194\n        /* \"#utility.yul\":7459:7460   */\n      0x09\n        /* \"#utility.yul\":7454:7457   */\n      dup4\n        /* \"#utility.yul\":7395:7461   */\n      tag_91\n      jump\t// in\n    tag_194:\n        /* \"#utility.yul\":7388:7461   */\n      swap2\n      pop\n        /* \"#utility.yul\":7470:7563   */\n      tag_195\n        /* \"#utility.yul\":7559:7562   */\n      dup3\n        /* \"#utility.yul\":7470:7563   */\n      tag_92\n      jump\t// in\n    tag_195:\n        /* \"#utility.yul\":7588:7590   */\n      0x20\n        /* \"#utility.yul\":7583:7586   */\n      dup3\n        /* \"#utility.yul\":7579:7591   */\n      add\n        /* \"#utility.yul\":7572:7591   */\n      swap1\n      pop\n        /* \"#utility.yul\":7232:7597   */\n      swap2\n      swap1\n      pop\n      jump\t// out\n        /* \"#utility.yul\":7603:8022   */\n    tag_53:\n        /* \"#utility.yul\":7769:7773   */\n      0x00\n        /* \"#utility.yul\":7807:7809   */\n      0x20\n        /* \"#utility.yul\":7796:7805   */\n      dup3\n        /* \"#utility.yul\":7792:7810   */\n      add\n        /* \"#utility.yul\":7784:7810   */\n      swap1\n      pop\n        /* \"#utility.yul\":7856:7865   */\n      dup2\n        /* \"#utility.yul\":7850:7854   */\n      dup2\n        /* \"#utility.yul\":7846:7866   */\n      sub\n        /* \"#utility.yul\":7842:7843   */\n      0x00\n        /* \"#utility.yul\":7831:7840   */\n      dup4\n        /* \"#utility.yul\":7827:7844   */\n      add\n        /* \"#utility.yul\":7820:7867   */\n      mstore\n        /* \"#utility.yul\":7884:8015   */\n      tag_197\n        /* \"#utility.yul\":8010:8014   */\n      dup2\n        /* \"#utility.yul\":7884:8015   */\n      tag_93\n      jump\t// in\n    tag_197:\n        /* \"#utility.yul\":7876:8015   */\n      swap1\n      pop\n        /* \"#utility.yul\":7603:8022   */\n      swap2\n      swap1\n      pop\n      jump\t// out\n        /* \"#utility.yul\":8028:8208   */\n    tag_94:\n        /* \"#utility.yul\":8076:8153   */\n      0x4e487b7100000000000000000000000000000000000000000000000000000000\n        /* \"#utility.yul\":8073:8074   */\n      0x00\n        /* \"#utility.yul\":8066:8154   */\n      mstore\n        /* \"#utility.yul\":8173:8177   */\n      0x41\n        /* \"#utility.yul\":8170:8171   */\n      0x04\n        /* \"#utility.yul\":8163:8178   */\n      mstore\n        /* \"#utility.yul\":8197:8201   */\n      0x24\n        /* \"#utility.yul\":8194:8195   */\n      0x00\n        /* \"#utility.yul\":8187:8202   */\n      revert\n        /* \"#utility.yul\":8214:8394   */\n    tag_95:\n        /* \"#utility.yul\":8262:8339   */\n      0x4e487b7100000000000000000000000000000000000000000000000000000000\n        /* \"#utility.yul\":8259:8260   */\n      0x00\n        /* \"#utility.yul\":8252:8340   */\n      mstore\n        /* \"#utility.yul\":8359:8363   */\n      0x22\n        /* \"#utility.yul\":8356:8357   */\n      0x04\n        /* \"#utility.yul\":8349:8364   */\n      mstore\n        /* \"#utility.yul\":8383:8387   */\n      0x24\n        /* \"#utility.yul\":8380:8381   */\n      0x00\n        /* \"#utility.yul\":8373:8388   */\n      revert\n        /* \"#utility.yul\":8400:8720   */\n    tag_63:\n        /* \"#utility.yul\":8444:8450   */\n      0x00\n        /* \"#utility.yul\":8481:8482   */\n      0x02\n        /* \"#utility.yul\":8475:8479   */\n      dup3\n        /* \"#utility.yul\":8471:8483   */\n      div\n        /* \"#utility.yul\":8461:8483   */\n      swap1\n      pop\n        /* \"#utility.yul\":8528:8529   */\n      0x01\n        /* \"#utility.yul\":8522:8526   */\n      dup3\n        /* \"#utility.yul\":8518:8530   */\n      and\n        /* \"#utility.yul\":8549:8567   */\n      dup1\n        /* \"#utility.yul\":8539:8620   */\n      tag_201\n      jumpi\n        /* \"#utility.yul\":8605:8609   */\n      0x7f\n        /* \"#utility.yul\":8597:8603   */\n      dup3\n        /* \"#utility.yul\":8593:8610   */\n      and\n        /* \"#utility.yul\":8583:8610   */\n      swap2\n      pop\n        /* \"#utility.yul\":8539:8620   */\n    tag_201:\n        /* \"#utility.yul\":8667:8669   */\n      0x20\n        /* \"#utility.yul\":8659:8665   */\n      dup3\n        /* \"#utility.yul\":8656:8670   */\n      lt\n        /* \"#utility.yul\":8636:8654   */\n      dup2\n        /* \"#utility.yul\":8633:8671   */\n      sub\n        /* \"#utility.yul\":8630:8714   */\n      tag_202\n      jumpi\n        /* \"#utility.yul\":8686:8704   */\n      tag_203\n      tag_95\n      jump\t// in\n    tag_203:\n        /* \"#utility.yul\":8630:8714   */\n    tag_202:\n        /* \"#utility.yul\":8451:8720   */\n      pop\n        /* \"#utility.yul\":8400:8720   */\n      swap2\n      swap1\n      pop\n      jump\t// out\n        /* \"#utility.yul\":8726:8866   */\n    tag_96:\n        /* \"#utility.yul\":8774:8778   */\n      0x00\n        /* \"#utility.yul\":8797:8800   */\n      dup2\n        /* \"#utility.yul\":8789:8800   */\n      swap1\n      pop\n        /* \"#utility.yul\":8820:8823   */\n      dup2\n        /* \"#utility.yul\":8817:8818   */\n      0x00\n        /* \"#utility.yul\":8810:8824   */\n      mstore\n        /* \"#utility.yul\":8854:8858   */\n      0x20\n        /* \"#utility.yul\":8851:8852   */\n      0x00\n        /* \"#utility.yul\":8841:8859   */\n      keccak256\n        /* \"#utility.yul\":8833:8859   */\n      swap1\n      pop\n        /* \"#utility.yul\":8726:8866   */\n      swap2\n      swap1\n      pop\n      jump\t// out\n        /* \"#utility.yul\":8872:8965   */\n    tag_97:\n        /* \"#utility.yul\":8909:8915   */\n      0x00\n        /* \"#utility.yul\":8956:8958   */\n      0x20\n        /* \"#utility.yul\":8951:8953   */\n      0x1f\n        /* \"#utility.yul\":8944:8949   */\n      dup4\n        /* \"#utility.yul\":8940:8954   */\n      add\n        /* \"#utility.yul\":8936:8959   */\n      div\n        /* \"#utility.yul\":8926:8959   */\n      swap1\n      pop\n        /* \"#utility.yul\":8872:8965   */\n      swap2\n      swap1\n      pop\n      jump\t// out\n        /* \"#utility.yul\":8971:9078   */\n    tag_98:\n        /* \"#utility.yul\":9015:9023   */\n      0x00\n        /* \"#utility.yul\":9065:9070   */\n      dup3\n        /* \"#utility.yul\":9059:9063   */\n      dup3\n        /* \"#utility.yul\":9055:9071   */\n      shl\n        /* \"#utility.yul\":9034:9071   */\n      swap1\n      pop\n        /* \"#utility.yul\":8971:9078   */\n      swap3\n      swap2\n      pop\n      pop\n      jump\t// out\n        /* \"#utility.yul\":9084:9477   */\n    tag_99:\n        /* \"#utility.yul\":9153:9159   */\n      0x00\n        /* \"#utility.yul\":9203:9204   */\n      0x08\n        /* \"#utility.yul\":9191:9201   */\n      dup4\n        /* \"#utility.yul\":9187:9205   */\n      mul\n        /* \"#utility.yul\":9226:9323   */\n      tag_208\n        /* \"#utility.yul\":9256:9322   */\n      0xffffffffffffffffffffffffffffffffffffffffffffffffffffffffffffffff\n        /* \"#utility.yul\":9245:9254   */\n      dup3\n        /* \"#utility.yul\":9226:9323   */\n      tag_98\n      jump\t// in\n    tag_208:\n        /* \"#utility.yul\":9344:9383   */\n      tag_209\n        /* \"#utility.yul\":9374:9382   */\n      dup7\n        /* \"#utility.yul\":9363:9372   */\n      dup4\n        /* \"#utility.yul\":9344:9383   */\n      tag_98\n      jump\t// in\n    tag_209:\n        /* \"#utility.yul\":9332:9383   */\n      swap6\n      pop\n        /* \"#utility.yul\":9416:9420   */\n      dup1\n        /* \"#utility.yul\":9412:9421   */\n      not\n        /* \"#utility.yul\":9405:9410   */\n      dup5\n        /* \"#utility.yul\":9401:9422   */\n      and\n        /* \"#utility.yul\":9392:9422   */\n      swap4\n      pop\n        /* \"#utility.yul\":9465:9469   */\n      dup1\n        /* \"#utility.yul\":9455:9463   */\n      dup7\n        /* \"#utility.yul\":9451:9470   */\n      and\n        /* \"#utility.yul\":9444:9449   */\n      dup5\n        /* \"#utility.yul\":9441:9471   */\n      or\n        /* \"#utility.yul\":9431:9471   */\n      swap3\n      pop\n        /* \"#utility.yul\":9160:9477   */\n      pop\n      pop\n        /* \"#utility.yul\":9084:9477   */\n      swap4\n      swap3\n      pop\n      pop\n      pop\n      jump\t// out\n        /* \"#utility.yul\":9483:9543   */\n    tag_100:\n        /* \"#utility.yul\":9511:9514   */\n      0x00\n        /* \"#utility.yul\":9532:9537   */\n      dup2\n        /* \"#utility.yul\":9525:9537   */\n      swap1\n      pop\n        /* \"#utility.yul\":9483:9543   */\n      swap2\n      swap1\n      pop\n      jump\t// out\n        /* \"#utility.yul\":9549:9691   */\n    tag_101:\n        /* \"#utility.yul\":9599:9608   */\n      0x00\n        /* \"#utility.yul\":9632:9685   */\n      tag_212\n        /* \"#utility.yul\":9650:9684   */\n      tag_213\n        /* \"#utility.yul\":9659:9683   */\n      tag_214\n        /* \"#utility.yul\":9677:9682   */\n      dup5\n        /* \"#utility.yul\":9659:9683   */\n      tag_68\n      jump\t// in\n    tag_214:\n        /* \"#utility.yul\":9650:9684   */\n      tag_100\n      jump\t// in\n    tag_213:\n        /* \"#utility.yul\":9632:9685   */\n      tag_68\n      jump\t// in\n    tag_212:\n        /* \"#utility.yul\":9619:9685   */\n      swap1\n      pop\n        /* \"#utility.yul\":9549:9691   */\n      swap2\n      swap1\n      pop\n      jump\t// out\n        /* \"#utility.yul\":9697:9772   */\n    tag_102:\n        /* \"#utility.yul\":9740:9743   */\n      0x00\n        /* \"#utility.yul\":9761:9766   */\n      dup2\n        /* \"#utility.yul\":9754:9766   */\n      swap1\n      pop\n        /* \"#utility.yul\":9697:9772   */\n      swap2\n      swap1\n      pop\n      jump\t// out\n        /* \"#utility.yul\":9778:10047   */\n    tag_103:\n        /* \"#utility.yul\":9888:9927   */\n      tag_217\n        /* \"#utility.yul\":9919:9926   */\n      dup4\n        /* \"#utility.yul\":9888:9927   */\n      tag_101\n      jump\t// in\n    tag_217:\n        /* \"#utility.yul\":9949:10040   */\n      tag_218\n        /* \"#utility.yul\":9998:10039   */\n      tag_219\n        /* \"#utility.yul\":10022:10038   */\n      dup3\n        /* \"#utility.yul\":9998:10039   */\n      tag_102\n      jump\t// in\n    tag_219:\n        /* \"#utility.yul\":9990:9996   */\n      dup5\n        /* \"#utility.yul\":9983:9987   */\n      dup5\n        /* \"#utility.yul\":9977:9988   */\n      sload\n        /* \"#utility.yul\":9949:10040   */\n      tag_99\n      jump\t// in\n    tag_218:\n        /* \"#utility.yul\":9943:9947   */\n      dup3\n        /* \"#utility.yul\":9936:10041   */\n      sstore\n        /* \"#utility.yul\":9854:10047   */\n      pop\n        /* \"#utility.yul\":9778:10047   */\n      pop\n      pop\n      pop\n      jump\t// out\n        /* \"#utility.yul\":10053:10126   */\n    tag_104:\n        /* \"#utility.yul\":10098:10101   */\n      0x00\n        /* \"#utility.yul\":10053:10126   */\n      swap1\n      jump\t// out\n        /* \"#utility.yul\":10132:10321   */\n    tag_105:\n        /* \"#utility.yul\":10209:10241   */\n      tag_222\n      tag_104\n      jump\t// in\n    tag_222:\n        /* \"#utility.yul\":10250:10315   */\n      tag_223\n        /* \"#utility.yul\":10308:10314   */\n      dup2\n        /* \"#utility.yul\":10300:10306   */\n      dup5\n        /* \"#utility.yul\":10294:10298   */\n      dup5\n        /* \"#utility.yul\":10250:10315   */\n      tag_103\n      jump\t// in\n    tag_223:\n        /* \"#utility.yul\":10185:10321   */\n      pop\n        /* \"#utility.yul\":10132:10321   */\n      pop\n      pop\n      jump\t// out\n        /* \"#utility.yul\":10327:10513   */\n    tag_106:\n        /* \"#utility.yul\":10387:10507   */\n    tag_225:\n        /* \"#utility.yul\":10404:10407   */\n      dup2\n        /* \"#utility.yul\":10397:10402   */\n      dup2\n        /* \"#utility.yul\":10394:10408   */\n      lt\n        /* \"#utility.yul\":10387:10507   */\n      iszero\n      tag_227\n      jumpi\n        /* \"#utility.yul\":10458:10497   */\n      tag_228\n        /* \"#utility.yul\":10495:10496   */\n      0x00\n        /* \"#utility.yul\":10488:10493   */\n      dup3\n        /* \"#utility.yul\":10458:10497   */\n      tag_105\n      jump\t// in\n    tag_228:\n        /* \"#utility.yul\":10431:10432   */\n      0x01\n        /* \"#utility.yul\":10424:10429   */\n      dup2\n        /* \"#utility.yul\":10420:10433   */\n      add\n        /* \"#utility.yul\":10411:10433   */\n      swap1\n      pop\n        /* \"#utility.yul\":10387:10507   */\n      jump(tag_225)\n    tag_227:\n        /* \"#utility.yul\":10327:10513   */\n      pop\n      pop\n      jump\t// out\n        /* \"#utility.yul\":10519:11060   */\n    tag_107:\n        /* \"#utility.yul\":10619:10621   */\n      0x1f\n        /* \"#utility.yul\":10614:10617   */\n      dup3\n        /* \"#utility.yul\":10611:10622   */\n      gt\n        /* \"#utility.yul\":10608:11053   */\n      iszero\n      tag_230\n      jumpi\n        /* \"#utility.yul\":10653:10690   */\n      tag_231\n        /* \"#utility.yul\":10684:10689   */\n      dup2\n        /* \"#utility.yul\":10653:10690   */\n      tag_96\n      jump\t// in\n    tag_231:\n        /* \"#utility.yul\":10736:10765   */\n      tag_232\n        /* \"#utility.yul\":10754:10764   */\n      dup5\n        /* \"#utility.yul\":10736:10765   */\n      tag_97\n      jump\t// in\n    tag_232:\n        /* \"#utility.yul\":10726:10734   */\n      dup2\n        /* \"#utility.yul\":10722:10766   */\n      add\n        /* \"#utility.yul\":10919:10921   */\n      0x20\n        /* \"#utility.yul\":10907:10917   */\n      dup6\n        /* \"#utility.yul\":10904:10922   */\n      lt\n        /* \"#utility.yul\":10901:10950   */\n      iszero\n      tag_233\n      jumpi\n        /* \"#utility.yul\":10940:10948   */\n      dup2\n        /* \"#utility.yul\":10925:10948   */\n      swap1\n      pop\n        /* \"#utility.yul\":10901:10950   */\n    tag_233:\n        /* \"#utility.yul\":10963:11043   */\n      tag_234\n        /* \"#utility.yul\":11019:11041   */\n      tag_235\n        /* \"#utility.yul\":11037:11040   */\n      dup6\n        /* \"#utility.yul\":11019:11041   */\n      tag_97\n      jump\t// in\n    tag_235:\n        /* \"#utility.yul\":11009:11017   */\n      dup4\n        /* \"#utility.yul\":11005:11042   */\n      add\n        /* \"#utility.yul\":10992:11003   */\n      dup3\n        /* \"#utility.yul\":10963:11043   */\n      tag_106\n      jump\t// in\n    tag_234:\n        /* \"#utility.yul\":10623:11053   */\n      pop\n      pop\n        /* \"#utility.yul\":10608:11053   */\n    tag_230:\n        /* \"#utility.yul\":10519:11060   */\n      pop\n      pop\n      pop\n      jump\t// out\n        /* \"#utility.yul\":11066:11183   */\n    tag_108:\n        /* \"#utility.yul\":11120:11128   */\n      0x00\n        /* \"#utility.yul\":11170:11175   */\n      dup3\n        /* \"#utility.yul\":11164:11168   */\n      dup3\n        /* \"#utility.yul\":11160:11176   */\n      shr\n        /* \"#utility.yul\":11139:11176   */\n      swap1\n      pop\n        /* \"#utility.yul\":11066:11183   */\n      swap3\n      swap2\n      pop\n      pop\n      jump\t// out\n        /* \"#utility.yul\":11189:11358   */\n    tag_109:\n        /* \"#utility.yul\":11233:11239   */\n      0x00\n        /* \"#utility.yul\":11266:11317   */\n      tag_238\n        /* \"#utility.yul\":11314:11315   */\n      0x00\n        /* \"#utility.yul\":11310:11316   */\n      not\n        /* \"#utility.yul\":11302:11307   */\n      dup5\n        /* \"#utility.yul\":11299:11300   */\n      0x08\n        /* \"#utility.yul\":11295:11308   */\n      mul\n        /* \"#utility.yul\":11266:11317   */\n      tag_108\n      jump\t// in\n    tag_238:\n        /* \"#utility.yul\":11262:11318   */\n      not\n        /* \"#utility.yul\":11347:11351   */\n      dup1\n        /* \"#utility.yul\":11341:11345   */\n      dup4\n        /* \"#utility.yul\":11337:11352   */\n      and\n        /* \"#utility.yul\":11327:11352   */\n      swap2\n      pop\n        /* \"#utility.yul\":11240:11358   */\n      pop\n        /* \"#utility.yul\":11189:11358   */\n      swap3\n      swap2\n      pop\n      pop\n      jump\t// out\n        /* \"#utility.yul\":11363:11658   */\n    tag_110:\n        /* \"#utility.yul\":11439:11443   */\n      0x00\n        /* \"#utility.yul\":11585:11614   */\n      tag_240\n        /* \"#utility.yul\":11610:11613   */\n      dup4\n        /* \"#utility.yul\":11604:11608   */\n      dup4\n        /* \"#utility.yul\":11585:11614   */\n      tag_109\n      jump\t// in\n    tag_240:\n        /* \"#utility.yul\":11577:11614   */\n      swap2\n      pop\n        /* \"#utility.yul\":11647:11650   */\n      dup3\n        /* \"#utility.yul\":11644:11645   */\n      0x02\n        /* \"#utility.yul\":11640:11651   */\n      mul\n        /* \"#utility.yul\":11634:11638   */\n      dup3\n        /* \"#utility.yul\":11631:11652   */\n      or\n        /* \"#utility.yul\":11623:11652   */\n      swap1\n      pop\n        /* \"#utility.yul\":11363:11658   */\n      swap3\n      swap2\n      pop\n      pop\n      jump\t// out\n        /* \"#utility.yul\":11663:13053   */\n    tag_57:\n        /* \"#utility.yul\":11778:11814   */\n      tag_242\n        /* \"#utility.yul\":11810:11813   */\n      dup3\n        /* \"#utility.yul\":11778:11814   */\n      tag_86\n      jump\t// in\n    tag_242:\n        /* \"#utility.yul\":11879:11897   */\n      0xffffffffffffffff\n        /* \"#utility.yul\":11871:11877   */\n      dup2\n        /* \"#utility.yul\":11868:11898   */\n      gt\n        /* \"#utility.yul\":11865:11921   */\n      iszero\n      tag_243\n      jumpi\n        /* \"#utility.yul\":11901:11919   */\n      tag_244\n      tag_94\n      jump\t// in\n    tag_244:\n        /* \"#utility.yul\":11865:11921   */\n    tag_243:\n        /* \"#utility.yul\":11945:11983   */\n      tag_245\n        /* \"#utility.yul\":11977:11981   */\n      dup3\n        /* \"#utility.yul\":11971:11982   */\n      sload\n        /* \"#utility.yul\":11945:11983   */\n      tag_63\n      jump\t// in\n    tag_245:\n        /* \"#utility.yul\":12030:12096   */\n      tag_246\n        /* \"#utility.yul\":12089:12095   */\n      dup3\n        /* \"#utility.yul\":12081:12087   */\n      dup3\n        /* \"#utility.yul\":12075:12079   */\n      dup6\n        /* \"#utility.yul\":12030:12096   */\n      tag_107\n      jump\t// in\n    tag_246:\n        /* \"#utility.yul\":12123:12124   */\n      0x00\n        /* \"#utility.yul\":12147:12151   */\n      0x20\n        /* \"#utility.yul\":12134:12151   */\n      swap1\n      pop\n        /* \"#utility.yul\":12179:12181   */\n      0x1f\n        /* \"#utility.yul\":12171:12177   */\n      dup4\n        /* \"#utility.yul\":12168:12182   */\n      gt\n        /* \"#utility.yul\":12196:12197   */\n      0x01\n        /* \"#utility.yul\":12191:12808   */\n      dup2\n      eq\n      tag_248\n      jumpi\n        /* \"#utility.yul\":12852:12853   */\n      0x00\n        /* \"#utility.yul\":12869:12875   */\n      dup5\n        /* \"#utility.yul\":12866:12943   */\n      iszero\n      tag_249\n      jumpi\n        /* \"#utility.yul\":12918:12927   */\n      dup3\n        /* \"#utility.yul\":12913:12916   */\n      dup8\n        /* \"#utility.yul\":12909:12928   */\n      add\n        /* \"#utility.yul\":12903:12929   */\n      mload\n        /* \"#utility.yul\":12894:12929   */\n      swap1\n      pop\n        /* \"#utility.yul\":12866:12943   */\n    tag_249:\n        /* \"#utility.yul\":12969:13036   */\n      tag_250\n        /* \"#utility.yul\":13029:13035   */\n      dup6\n        /* \"#utility.yul\":13022:13027   */\n      dup3\n        /* \"#utility.yul\":12969:13036   */\n      tag_110\n      jump\t// in\n    tag_250:\n        /* \"#utility.yul\":12963:12967   */\n      dup7\n        /* \"#utility.yul\":12956:13037   */\n      sstore\n        /* \"#utility.yul\":12825:13047   */\n      pop\n        /* \"#utility.yul\":12161:13047   */\n      jump(tag_247)\n        /* \"#utility.yul\":12191:12808   */\n    tag_248:\n        /* \"#utility.yul\":12243:12247   */\n      0x1f\n        /* \"#utility.yul\":12239:12248   */\n      not\n        /* \"#utility.yul\":12231:12237   */\n      dup5\n        /* \"#utility.yul\":12227:12249   */\n      and\n        /* \"#utility.yul\":12277:12313   */\n      tag_251\n        /* \"#utility.yul\":12308:12312   */\n      dup7\n        /* \"#utility.yul\":12277:12313   */\n      tag_96\n      jump\t// in\n    tag_251:\n        /* \"#utility.yul\":12335:12336   */\n      0x00\n        /* \"#utility.yul\":12349:12557   */\n    tag_252:\n        /* \"#utility.yul\":12363:12370   */\n      dup3\n        /* \"#utility.yul\":12360:12361   */\n      dup2\n        /* \"#utility.yul\":12357:12371   */\n      lt\n        /* \"#utility.yul\":12349:12557   */\n      iszero\n      tag_254\n      jumpi\n        /* \"#utility.yul\":12442:12451   */\n      dup5\n        /* \"#utility.yul\":12437:12440   */\n      dup10\n        /* \"#utility.yul\":12433:12452   */\n      add\n        /* \"#utility.yul\":12427:12453   */\n      mload\n        /* \"#utility.yul\":12419:12425   */\n      dup3\n        /* \"#utility.yul\":12412:12454   */\n      sstore\n        /* \"#utility.yul\":12493:12494   */\n      0x01\n        /* \"#utility.yul\":12485:12491   */\n      dup3\n        /* \"#utility.yul\":12481:12495   */\n      add\n        /* \"#utility.yul\":12471:12495   */\n      swap2\n      pop\n        /* \"#utility.yul\":12540:12542   */\n      0x20\n        /* \"#utility.yul\":12529:12538   */\n      dup6\n        /* \"#utility.yul\":12525:12543   */\n      add\n        /* \"#utility.yul\":12512:12543   */\n      swap5\n      pop\n        /* \"#utility.yul\":12386:12390   */\n      0x20\n        /* \"#utility.yul\":12383:12384   */\n      dup2\n        /* \"#utility.yul\":12379:12391   */\n      add\n        /* \"#utility.yul\":12374:12391   */\n      swap1\n      pop\n        /* \"#utility.yul\":12349:12557   */\n      jump(tag_252)\n    tag_254:\n        /* \"#utility.yul\":12585:12591   */\n      dup7\n        /* \"#utility.yul\":12576:12583   */\n      dup4\n        /* \"#utility.yul\":12573:12592   */\n      lt\n        /* \"#utility.yul\":12570:12749   */\n      iszero\n      tag_255\n      jumpi\n        /* \"#utility.yul\":12643:12652   */\n      dup5\n        /* \"#utility.yul\":12638:12641   */\n      dup10\n        /* \"#utility.yul\":12634:12653   */\n      add\n        /* \"#utility.yul\":12628:12654   */\n      mload\n        /* \"#utility.yul\":12686:12734   */\n      tag_256\n        /* \"#utility.yul\":12728:12732   */\n      0x1f\n        /* \"#utility.yul\":12720:12726   */\n      dup10\n        /* \"#utility.yul\":12716:12733   */\n      and\n        /* \"#utility.yul\":12705:12714   */\n      dup3\n        /* \"#utility.yul\":12686:12734   */\n      tag_109\n      jump\t// in\n    tag_256:\n        /* \"#utility.yul\":12678:12684   */\n      dup4\n        /* \"#utility.yul\":12671:12735   */\n      sstore\n        /* \"#utility.yul\":12593:12749   */\n      pop\n        /* \"#utility.yul\":12570:12749   */\n    tag_255:\n        /* \"#utility.yul\":12795:12796   */\n      0x01\n        /* \"#utility.yul\":12791:12792   */\n      0x02\n        /* \"#utility.yul\":12783:12789   */\n      dup9\n        /* \"#utility.yul\":12779:12793   */\n      mul\n        /* \"#utility.yul\":12775:12797   */\n      add\n        /* \"#utility.yul\":12769:12773   */\n      dup9\n        /* \"#utility.yul\":12762:12798   */\n      sstore\n        /* \"#utility.yul\":12198:12808   */\n      pop\n      pop\n      pop\n        /* \"#utility.yul\":12161:13047   */\n    tag_247:\n      pop\n        /* \"#utility.yul\":11753:13053   */\n      pop\n      pop\n      pop\n        /* \"#utility.yul\":11663:13053   */\n      pop\n      pop\n      jump\t// out\n        /* \"#utility.yul\":13059:13239   */\n    tag_111:\n        /* \"#utility.yul\":13107:13184   */\n      0x4e487b7100000000000000000000000000000000000000000000000000000000\n        /* \"#utility.yul\":13104:13105   */\n      0x00\n        /* \"#utility.yul\":13097:13185   */\n      mstore\n        /* \"#utility.yul\":13204:13208   */\n      0x11\n        /* \"#utility.yul\":13201:13202   */\n      0x04\n        /* \"#utility.yul\":13194:13209   */\n      mstore\n        /* \"#utility.yul\":13228:13232   */\n      0x24\n        /* \"#utility.yul\":13225:13226   */\n      0x00\n        /* \"#utility.yul\":13218:13233   */\n      revert\n        /* \"#utility.yul\":13245:13439   */\n    tag_59:\n        /* \"#utility.yul\":13285:13289   */\n      0x00\n        /* \"#utility.yul\":13305:13325   */\n      tag_259\n        /* \"#utility.yul\":13323:13324   */\n      dup3\n        /* \"#utility.yul\":13305:13325   */\n      tag_68\n      jump\t// in\n    tag_259:\n        /* \"#utility.yul\":13300:13325   */\n      swap2\n      pop\n        /* \"#utility.yul\":13339:13359   */\n      tag_260\n        /* \"#utility.yul\":13357:13358   */\n      dup4\n        /* \"#utility.yul\":13339:13359   */\n      tag_68\n      jump\t// in\n    tag_260:\n        /* \"#utility.yul\":13334:13359   */\n      swap3\n      pop\n        /* \"#utility.yul\":13383:13384   */\n      dup3\n        /* \"#utility.yul\":13380:13381   */\n      dup3\n        /* \"#utility.yul\":13376:13385   */\n      sub\n        /* \"#utility.yul\":13368:13385   */\n      swap1\n      pop\n        /* \"#utility.yul\":13407:13408   */\n      dup2\n        /* \"#utility.yul\":13401:13405   */\n      dup2\n        /* \"#utility.yul\":13398:13409   */\n      gt\n        /* \"#utility.yul\":13395:13432   */\n      iszero\n      tag_261\n      jumpi\n        /* \"#utility.yul\":13412:13430   */\n      tag_262\n      tag_111\n      jump\t// in\n    tag_262:\n        /* \"#utility.yul\":13395:13432   */\n    tag_261:\n        /* \"#utility.yul\":13245:13439   */\n      swap3\n      swap2\n      pop\n      pop\n      jump\t// out\n\n    auxdata: 0xa26469706673582212205e3a9c326de0b2da2d31126c4b1effdecb521a0c93530281972e076fc8879ece64736f6c63430008120033\n}\n",
				"bytecode": {
					"linkReferences": {},
					"object": "60806040523480156200001157600080fd5b506040516200143038038062001430833981810160405281019062000037919062000485565b60008251116200007e576040517f08c379a000000000000000000000000000000000000000000000000000000000815260040162000075906200054c565b60405180910390fd5b6000811180156200009457506000805490508111155b620000d6576040517f08c379a0000000000000000000000000000000000000000000000000000000008152600401620000cd90620005be565b60405180910390fd5b60005b6000805490508110156200024c576000838281518110620000ff57620000fe620005e0565b5b60200260200101519050600073ffffffffffffffffffffffffffffffffffffffff168173ffffffffffffffffffffffffffffffffffffffff16036200017b576040517f08c379a000000000000000000000000000000000000000000000000000000000815260040162000172906200065f565b60405180910390fd5b60018060008373ffffffffffffffffffffffffffffffffffffffff1673ffffffffffffffffffffffffffffffffffffffff16815260200190815260200160002060006101000a81548160ff0219169083151502179055506000819080600181540180825580915050600190039060005260206000200160009091909190916101000a81548173ffffffffffffffffffffffffffffffffffffffff021916908373ffffffffffffffffffffffffffffffffffffffff1602179055505080806200024390620006b0565b915050620000d9565b50806002819055505050620006fd565b6000604051905090565b600080fd5b600080fd5b600080fd5b6000601f19601f8301169050919050565b7f4e487b7100000000000000000000000000000000000000000000000000000000600052604160045260246000fd5b620002c08262000275565b810181811067ffffffffffffffff82111715620002e257620002e162000286565b5b80604052505050565b6000620002f76200025c565b9050620003058282620002b5565b919050565b600067ffffffffffffffff82111562000328576200032762000286565b5b602082029050602081019050919050565b600080fd5b600073ffffffffffffffffffffffffffffffffffffffff82169050919050565b60006200036b826200033e565b9050919050565b6200037d816200035e565b81146200038957600080fd5b50565b6000815190506200039d8162000372565b92915050565b6000620003ba620003b4846200030a565b620002eb565b90508083825260208201905060208402830185811115620003e057620003df62000339565b5b835b818110156200040d5780620003f888826200038c565b845260208401935050602081019050620003e2565b5050509392505050565b600082601f8301126200042f576200042e62000270565b5b815162000441848260208601620003a3565b91505092915050565b6000819050919050565b6200045f816200044a565b81146200046b57600080fd5b50565b6000815190506200047f8162000454565b92915050565b600080604083850312156200049f576200049e62000266565b5b600083015167ffffffffffffffff811115620004c057620004bf6200026b565b5b620004ce8582860162000417565b9250506020620004e1858286016200046e565b9150509250929050565b600082825260208201905092915050565b7f6f776e6572732072657175697265640000000000000000000000000000000000600082015250565b600062000534600f83620004eb565b91506200054182620004fc565b602082019050919050565b60006020820190508181036000830152620005678162000525565b9050919050565b7f496e76616c696420616d6f756e74206f66206f776e6572730000000000000000600082015250565b6000620005a6601883620004eb565b9150620005b3826200056e565b602082019050919050565b60006020820190508181036000830152620005d98162000597565b9050919050565b7f4e487b7100000000000000000000000000000000000000000000000000000000600052603260045260246000fd5b7f6f776e6572206973206e6f7420756e6971756500000000000000000000000000600082015250565b600062000647601383620004eb565b915062000654826200060f565b602082019050919050565b600060208201905081810360008301526200067a8162000638565b9050919050565b7f4e487b7100000000000000000000000000000000000000000000000000000000600052601160045260246000fd5b6000620006bd826200044a565b91507fffffffffffffffffffffffffffffffffffffffffffffffffffffffffffffffff8203620006f257620006f162000681565b5b600182019050919050565b610d23806200070d6000396000f3fe6080604052600436106100595760003560e01c8063025e7c27146100b357806314de327f146100f05780632f54bf6e146101195780639ace38c214610156578063b848de3514610196578063dc8452cd146101d3576100ae565b366100ae573373ffffffffffffffffffffffffffffffffffffffff167fe1fffcc4923d04b559f4d29a8bfc6cda04eb5b0d3c460751c2402c5c5cc9109c346040516100a491906105a2565b60405180910390a2005b600080fd5b3480156100bf57600080fd5b506100da60048036038101906100d591906105f3565b6101fe565b6040516100e79190610661565b60405180910390f35b3480156100fc57600080fd5b506101176004803603810190610112919061070d565b61023d565b005b34801561012557600080fd5b50610140600480360381019061013b9190610781565b61043f565b60405161014d91906107c9565b60405180910390f35b34801561016257600080fd5b5061017d600480360381019061017891906105f3565b61045f565b60405161018d9493929190610874565b60405180910390f35b3480156101a257600080fd5b506101bd60048036038101906101b891906108c0565b610554565b6040516101ca91906107c9565b60405180910390f35b3480156101df57600080fd5b506101e8610583565b6040516101f591906105a2565b60405180910390f35b6000818154811061020e57600080fd5b906000526020600020016000915054906101000a900473ffffffffffffffffffffffffffffffffffffffff1681565b600160003373ffffffffffffffffffffffffffffffffffffffff1673ffffffffffffffffffffffffffffffffffffffff16815260200190815260200160002060009054906101000a900460ff166102c9576040517f08c379a00000000000000000000000000000000000000000000000000000000081526004016102c09061095d565b60405180910390fd5b600360405180608001604052808673ffffffffffffffffffffffffffffffffffffffff16815260200185815260200184848080601f016020809104026020016040519081016040528093929190818152602001838380828437600081840152601f19601f82011690508083019250505050505050815260200160001515815250908060018154018082558091505060019003906000526020600020906004020160009091909190915060008201518160000160006101000a81548173ffffffffffffffffffffffffffffffffffffffff021916908373ffffffffffffffffffffffffffffffffffffffff1602179055506020820151816001015560408201518160020190816103d89190610bb8565b5060608201518160030160006101000a81548160ff0219169083151502179055505050600160038054905061040d9190610cb9565b7f08324b3d745b914e3abd4ffbfead91e3b78391a98c173202129215ab933adfbe60405160405180910390a250505050565b60016020528060005260406000206000915054906101000a900460ff1681565b6003818154811061046f57600080fd5b90600052602060002090600402016000915090508060000160009054906101000a900473ffffffffffffffffffffffffffffffffffffffff16908060010154908060020180546104be906109db565b80601f01602080910402602001604051908101604052809291908181526020018280546104ea906109db565b80156105375780601f1061050c57610100808354040283529160200191610537565b820191906000526020600020905b81548152906001019060200180831161051a57829003601f168201915b5050505050908060030160009054906101000a900460ff16905084565b60046020528160005260406000206020528060005260406000206000915091509054906101000a900460ff1681565b60025481565b6000819050919050565b61059c81610589565b82525050565b60006020820190506105b76000830184610593565b92915050565b600080fd5b600080fd5b6105d081610589565b81146105db57600080fd5b50565b6000813590506105ed816105c7565b92915050565b600060208284031215610609576106086105bd565b5b6000610617848285016105de565b91505092915050565b600073ffffffffffffffffffffffffffffffffffffffff82169050919050565b600061064b82610620565b9050919050565b61065b81610640565b82525050565b60006020820190506106766000830184610652565b92915050565b61068581610640565b811461069057600080fd5b50565b6000813590506106a28161067c565b92915050565b600080fd5b600080fd5b600080fd5b60008083601f8401126106cd576106cc6106a8565b5b8235905067ffffffffffffffff8111156106ea576106e96106ad565b5b602083019150836001820283011115610706576107056106b2565b5b9250929050565b60008060008060608587031215610727576107266105bd565b5b600061073587828801610693565b9450506020610746878288016105de565b935050604085013567ffffffffffffffff811115610767576107666105c2565b5b610773878288016106b7565b925092505092959194509250565b600060208284031215610797576107966105bd565b5b60006107a584828501610693565b91505092915050565b60008115159050919050565b6107c3816107ae565b82525050565b60006020820190506107de60008301846107ba565b92915050565b600081519050919050565b600082825260208201905092915050565b60005b8381101561081e578082015181840152602081019050610803565b60008484015250505050565b6000601f19601f8301169050919050565b6000610846826107e4565b61085081856107ef565b9350610860818560208601610800565b6108698161082a565b840191505092915050565b60006080820190506108896000830187610652565b6108966020830186610593565b81810360408301526108a8818561083b565b90506108b760608301846107ba565b95945050505050565b600080604083850312156108d7576108d66105bd565b5b60006108e5858286016105de565b92505060206108f685828601610693565b9150509250929050565b600082825260208201905092915050565b7f6e6f74206f776e65720000000000000000000000000000000000000000000000600082015250565b6000610947600983610900565b915061095282610911565b602082019050919050565b600060208201905081810360008301526109768161093a565b9050919050565b7f4e487b7100000000000000000000000000000000000000000000000000000000600052604160045260246000fd5b7f4e487b7100000000000000000000000000000000000000000000000000000000600052602260045260246000fd5b600060028204905060018216806109f357607f821691505b602082108103610a0657610a056109ac565b5b50919050565b60008190508160005260206000209050919050565b60006020601f8301049050919050565b600082821b905092915050565b600060088302610a6e7fffffffffffffffffffffffffffffffffffffffffffffffffffffffffffffffff82610a31565b610a788683610a31565b95508019841693508086168417925050509392505050565b6000819050919050565b6000610ab5610ab0610aab84610589565b610a90565b610589565b9050919050565b6000819050919050565b610acf83610a9a565b610ae3610adb82610abc565b848454610a3e565b825550505050565b600090565b610af8610aeb565b610b03818484610ac6565b505050565b5b81811015610b2757610b1c600082610af0565b600181019050610b09565b5050565b601f821115610b6c57610b3d81610a0c565b610b4684610a21565b81016020851015610b55578190505b610b69610b6185610a21565b830182610b08565b50505b505050565b600082821c905092915050565b6000610b8f60001984600802610b71565b1980831691505092915050565b6000610ba88383610b7e565b9150826002028217905092915050565b610bc1826107e4565b67ffffffffffffffff811115610bda57610bd961097d565b5b610be482546109db565b610bef828285610b2b565b600060209050601f831160018114610c225760008415610c10578287015190505b610c1a8582610b9c565b865550610c82565b601f198416610c3086610a0c565b60005b82811015610c5857848901518255600182019150602085019450602081019050610c33565b86831015610c755784890151610c71601f891682610b7e565b8355505b6001600288020188555050505b505050505050565b7f4e487b7100000000000000000000000000000000000000000000000000000000600052601160045260246000fd5b6000610cc482610589565b9150610ccf83610589565b9250828203905081811115610ce757610ce6610c8a565b5b9291505056fea26469706673582212205e3a9c326de0b2da2d31126c4b1effdecb521a0c93530281972e076fc8879ece64736f6c63430008120033",
					"opcodes": "PUSH1 0x80 PUSH1 0x40 MSTORE CALLVALUE DUP1 ISZERO PUSH3 0x11 JUMPI PUSH1 0x0 DUP1 REVERT JUMPDEST POP PUSH1 0x40 MLOAD PUSH3 0x1430 CODESIZE SUB DUP1 PUSH3 0x1430 DUP4 CODECOPY DUP2 DUP2 ADD PUSH1 0x40 MSTORE DUP2 ADD SWAP1 PUSH3 0x37 SWAP2 SWAP1 PUSH3 0x485 JUMP JUMPDEST PUSH1 0x0 DUP3 MLOAD GT PUSH3 0x7E JUMPI PUSH1 0x40 MLOAD PUSH32 0x8C379A000000000000000000000000000000000000000000000000000000000 DUP2 MSTORE PUSH1 0x4 ADD PUSH3 0x75 SWAP1 PUSH3 0x54C JUMP JUMPDEST PUSH1 0x40 MLOAD DUP1 SWAP2 SUB SWAP1 REVERT JUMPDEST PUSH1 0x0 DUP2 GT DUP1 ISZERO PUSH3 0x94 JUMPI POP PUSH1 0x0 DUP1 SLOAD SWAP1 POP DUP2 GT ISZERO JUMPDEST PUSH3 0xD6 JUMPI PUSH1 0x40 MLOAD PUSH32 0x8C379A000000000000000000000000000000000000000000000000000000000 DUP2 MSTORE PUSH1 0x4 ADD PUSH3 0xCD SWAP1 PUSH3 0x5BE JUMP JUMPDEST PUSH1 0x40 MLOAD DUP1 SWAP2 SUB SWAP1 REVERT JUMPDEST PUSH1 0x0 JUMPDEST PUSH1 0x0 DUP1 SLOAD SWAP1 POP DUP2 LT ISZERO PUSH3 0x24C JUMPI PUSH1 0x0 DUP4 DUP3 DUP2 MLOAD DUP2 LT PUSH3 0xFF JUMPI PUSH3 0xFE PUSH3 0x5E0 JUMP JUMPDEST JUMPDEST PUSH1 0x20 MUL PUSH1 0x20 ADD ADD MLOAD SWAP1 POP PUSH1 0x0 PUSH20 0xFFFFFFFFFFFFFFFFFFFFFFFFFFFFFFFFFFFFFFFF AND DUP2 PUSH20 0xFFFFFFFFFFFFFFFFFFFFFFFFFFFFFFFFFFFFFFFF AND SUB PUSH3 0x17B JUMPI PUSH1 0x40 MLOAD PUSH32 0x8C379A000000000000000000000000000000000000000000000000000000000 DUP2 MSTORE PUSH1 0x4 ADD PUSH3 0x172 SWAP1 PUSH3 0x65F JUMP JUMPDEST PUSH1 0x40 MLOAD DUP1 SWAP2 SUB SWAP1 REVERT JUMPDEST PUSH1 0x1 DUP1 PUSH1 0x0 DUP4 PUSH20 0xFFFFFFFFFFFFFFFFFFFFFFFFFFFFFFFFFFFFFFFF AND PUSH20 0xFFFFFFFFFFFFFFFFFFFFFFFFFFFFFFFFFFFFFFFF AND DUP2 MSTORE PUSH1 0x20 ADD SWAP1 DUP2 MSTORE PUSH1 0x20 ADD PUSH1 0x0 KECCAK256 PUSH1 0x0 PUSH2 0x100 EXP DUP2 SLOAD DUP2 PUSH1 0xFF MUL NOT AND SWAP1 DUP4 ISZERO ISZERO MUL OR SWAP1 SSTORE POP PUSH1 0x0 DUP2 SWAP1 DUP1 PUSH1 0x1 DUP2 SLOAD ADD DUP1 DUP3 SSTORE DUP1 SWAP2 POP POP PUSH1 0x1 SWAP1 SUB SWAP1 PUSH1 0x0 MSTORE PUSH1 0x20 PUSH1 0x0 KECCAK256 ADD PUSH1 0x0 SWAP1 SWAP2 SWAP1 SWAP2 SWAP1 SWAP2 PUSH2 0x100 EXP DUP2 SLOAD DUP2 PUSH20 0xFFFFFFFFFFFFFFFFFFFFFFFFFFFFFFFFFFFFFFFF MUL NOT AND SWAP1 DUP4 PUSH20 0xFFFFFFFFFFFFFFFFFFFFFFFFFFFFFFFFFFFFFFFF AND MUL OR SWAP1 SSTORE POP POP DUP1 DUP1 PUSH3 0x243 SWAP1 PUSH3 0x6B0 JUMP JUMPDEST SWAP2 POP POP PUSH3 0xD9 JUMP JUMPDEST POP DUP1 PUSH1 0x2 DUP2 SWAP1 SSTORE POP POP POP PUSH3 0x6FD JUMP JUMPDEST PUSH1 0x0 PUSH1 0x40 MLOAD SWAP1 POP SWAP1 JUMP JUMPDEST PUSH1 0x0 DUP1 REVERT JUMPDEST PUSH1 0x0 DUP1 REVERT JUMPDEST PUSH1 0x0 DUP1 REVERT JUMPDEST PUSH1 0x0 PUSH1 0x1F NOT PUSH1 0x1F DUP4 ADD AND SWAP1 POP SWAP2 SWAP1 POP JUMP JUMPDEST PUSH32 0x4E487B7100000000000000000000000000000000000000000000000000000000 PUSH1 0x0 MSTORE PUSH1 0x41 PUSH1 0x4 MSTORE PUSH1 0x24 PUSH1 0x0 REVERT JUMPDEST PUSH3 0x2C0 DUP3 PUSH3 0x275 JUMP JUMPDEST DUP2 ADD DUP2 DUP2 LT PUSH8 0xFFFFFFFFFFFFFFFF DUP3 GT OR ISZERO PUSH3 0x2E2 JUMPI PUSH3 0x2E1 PUSH3 0x286 JUMP JUMPDEST JUMPDEST DUP1 PUSH1 0x40 MSTORE POP POP POP JUMP JUMPDEST PUSH1 0x0 PUSH3 0x2F7 PUSH3 0x25C JUMP JUMPDEST SWAP1 POP PUSH3 0x305 DUP3 DUP3 PUSH3 0x2B5 JUMP JUMPDEST SWAP2 SWAP1 POP JUMP JUMPDEST PUSH1 0x0 PUSH8 0xFFFFFFFFFFFFFFFF DUP3 GT ISZERO PUSH3 0x328 JUMPI PUSH3 0x327 PUSH3 0x286 JUMP JUMPDEST JUMPDEST PUSH1 0x20 DUP3 MUL SWAP1 POP PUSH1 0x20 DUP2 ADD SWAP1 POP SWAP2 SWAP1 POP JUMP JUMPDEST PUSH1 0x0 DUP1 REVERT JUMPDEST PUSH1 0x0 PUSH20 0xFFFFFFFFFFFFFFFFFFFFFFFFFFFFFFFFFFFFFFFF DUP3 AND SWAP1 POP SWAP2 SWAP1 POP JUMP JUMPDEST PUSH1 0x0 PUSH3 0x36B DUP3 PUSH3 0x33E JUMP JUMPDEST SWAP1 POP SWAP2 SWAP1 POP JUMP JUMPDEST PUSH3 0x37D DUP2 PUSH3 0x35E JUMP JUMPDEST DUP2 EQ PUSH3 0x389 JUMPI PUSH1 0x0 DUP1 REVERT JUMPDEST POP JUMP JUMPDEST PUSH1 0x0 DUP2 MLOAD SWAP1 POP PUSH3 0x39D DUP2 PUSH3 0x372 JUMP JUMPDEST SWAP3 SWAP2 POP POP JUMP JUMPDEST PUSH1 0x0 PUSH3 0x3BA PUSH3 0x3B4 DUP5 PUSH3 0x30A JUMP JUMPDEST PUSH3 0x2EB JUMP JUMPDEST SWAP1 POP DUP1 DUP4 DUP3 MSTORE PUSH1 0x20 DUP3 ADD SWAP1 POP PUSH1 0x20 DUP5 MUL DUP4 ADD DUP6 DUP2 GT ISZERO PUSH3 0x3E0 JUMPI PUSH3 0x3DF PUSH3 0x339 JUMP JUMPDEST JUMPDEST DUP4 JUMPDEST DUP2 DUP2 LT ISZERO PUSH3 0x40D JUMPI DUP1 PUSH3 0x3F8 DUP9 DUP3 PUSH3 0x38C JUMP JUMPDEST DUP5 MSTORE PUSH1 0x20 DUP5 ADD SWAP4 POP POP PUSH1 0x20 DUP2 ADD SWAP1 POP PUSH3 0x3E2 JUMP JUMPDEST POP POP POP SWAP4 SWAP3 POP POP POP JUMP JUMPDEST PUSH1 0x0 DUP3 PUSH1 0x1F DUP4 ADD SLT PUSH3 0x42F JUMPI PUSH3 0x42E PUSH3 0x270 JUMP JUMPDEST JUMPDEST DUP2 MLOAD PUSH3 0x441 DUP5 DUP3 PUSH1 0x20 DUP7 ADD PUSH3 0x3A3 JUMP JUMPDEST SWAP2 POP POP SWAP3 SWAP2 POP POP JUMP JUMPDEST PUSH1 0x0 DUP2 SWAP1 POP SWAP2 SWAP1 POP JUMP JUMPDEST PUSH3 0x45F DUP2 PUSH3 0x44A JUMP JUMPDEST DUP2 EQ PUSH3 0x46B JUMPI PUSH1 0x0 DUP1 REVERT JUMPDEST POP JUMP JUMPDEST PUSH1 0x0 DUP2 MLOAD SWAP1 POP PUSH3 0x47F DUP2 PUSH3 0x454 JUMP JUMPDEST SWAP3 SWAP2 POP POP JUMP JUMPDEST PUSH1 0x0 DUP1 PUSH1 0x40 DUP4 DUP6 SUB SLT ISZERO PUSH3 0x49F JUMPI PUSH3 0x49E PUSH3 0x266 JUMP JUMPDEST JUMPDEST PUSH1 0x0 DUP4 ADD MLOAD PUSH8 0xFFFFFFFFFFFFFFFF DUP2 GT ISZERO PUSH3 0x4C0 JUMPI PUSH3 0x4BF PUSH3 0x26B JUMP JUMPDEST JUMPDEST PUSH3 0x4CE DUP6 DUP3 DUP7 ADD PUSH3 0x417 JUMP JUMPDEST SWAP3 POP POP PUSH1 0x20 PUSH3 0x4E1 DUP6 DUP3 DUP7 ADD PUSH3 0x46E JUMP JUMPDEST SWAP2 POP POP SWAP3 POP SWAP3 SWAP1 POP JUMP JUMPDEST PUSH1 0x0 DUP3 DUP3 MSTORE PUSH1 0x20 DUP3 ADD SWAP1 POP SWAP3 SWAP2 POP POP JUMP JUMPDEST PUSH32 0x6F776E6572732072657175697265640000000000000000000000000000000000 PUSH1 0x0 DUP3 ADD MSTORE POP JUMP JUMPDEST PUSH1 0x0 PUSH3 0x534 PUSH1 0xF DUP4 PUSH3 0x4EB JUMP JUMPDEST SWAP2 POP PUSH3 0x541 DUP3 PUSH3 0x4FC JUMP JUMPDEST PUSH1 0x20 DUP3 ADD SWAP1 POP SWAP2 SWAP1 POP JUMP JUMPDEST PUSH1 0x0 PUSH1 0x20 DUP3 ADD SWAP1 POP DUP2 DUP2 SUB PUSH1 0x0 DUP4 ADD MSTORE PUSH3 0x567 DUP2 PUSH3 0x525 JUMP JUMPDEST SWAP1 POP SWAP2 SWAP1 POP JUMP JUMPDEST PUSH32 0x496E76616C696420616D6F756E74206F66206F776E6572730000000000000000 PUSH1 0x0 DUP3 ADD MSTORE POP JUMP JUMPDEST PUSH1 0x0 PUSH3 0x5A6 PUSH1 0x18 DUP4 PUSH3 0x4EB JUMP JUMPDEST SWAP2 POP PUSH3 0x5B3 DUP3 PUSH3 0x56E JUMP JUMPDEST PUSH1 0x20 DUP3 ADD SWAP1 POP SWAP2 SWAP1 POP JUMP JUMPDEST PUSH1 0x0 PUSH1 0x20 DUP3 ADD SWAP1 POP DUP2 DUP2 SUB PUSH1 0x0 DUP4 ADD MSTORE PUSH3 0x5D9 DUP2 PUSH3 0x597 JUMP JUMPDEST SWAP1 POP SWAP2 SWAP1 POP JUMP JUMPDEST PUSH32 0x4E487B7100000000000000000000000000000000000000000000000000000000 PUSH1 0x0 MSTORE PUSH1 0x32 PUSH1 0x4 MSTORE PUSH1 0x24 PUSH1 0x0 REVERT JUMPDEST PUSH32 0x6F776E6572206973206E6F7420756E6971756500000000000000000000000000 PUSH1 0x0 DUP3 ADD MSTORE POP JUMP JUMPDEST PUSH1 0x0 PUSH3 0x647 PUSH1 0x13 DUP4 PUSH3 0x4EB JUMP JUMPDEST SWAP2 POP PUSH3 0x654 DUP3 PUSH3 0x60F JUMP JUMPDEST PUSH1 0x20 DUP3 ADD SWAP1 POP SWAP2 SWAP1 POP JUMP JUMPDEST PUSH1 0x0 PUSH1 0x20 DUP3 ADD SWAP1 POP DUP2 DUP2 SUB PUSH1 0x0 DUP4 ADD MSTORE PUSH3 0x67A DUP2 PUSH3 0x638 JUMP JUMPDEST SWAP1 POP SWAP2 SWAP1 POP JUMP JUMPDEST PUSH32 0x4E487B7100000000000000000000000000000000000000000000000000000000 PUSH1 0x0 MSTORE PUSH1 0x11 PUSH1 0x4 MSTORE PUSH1 0x24 PUSH1 0x0 REVERT JUMPDEST PUSH1 0x0 PUSH3 0x6BD DUP3 PUSH3 0x44A JUMP JUMPDEST SWAP2 POP PUSH32 0xFFFFFFFFFFFFFFFFFFFFFFFFFFFFFFFFFFFFFFFFFFFFFFFFFFFFFFFFFFFFFFFF DUP3 SUB PUSH3 0x6F2 JUMPI PUSH3 0x6F1 PUSH3 0x681 JUMP JUMPDEST JUMPDEST PUSH1 0x1 DUP3 ADD SWAP1 POP SWAP2 SWAP1 POP JUMP JUMPDEST PUSH2 0xD23 DUP1 PUSH3 0x70D PUSH1 0x0 CODECOPY PUSH1 0x0 RETURN INVALID PUSH1 0x80 PUSH1 0x40 MSTORE PUSH1 0x4 CALLDATASIZE LT PUSH2 0x59 JUMPI PUSH1 0x0 CALLDATALOAD PUSH1 0xE0 SHR DUP1 PUSH4 0x25E7C27 EQ PUSH2 0xB3 JUMPI DUP1 PUSH4 0x14DE327F EQ PUSH2 0xF0 JUMPI DUP1 PUSH4 0x2F54BF6E EQ PUSH2 0x119 JUMPI DUP1 PUSH4 0x9ACE38C2 EQ PUSH2 0x156 JUMPI DUP1 PUSH4 0xB848DE35 EQ PUSH2 0x196 JUMPI DUP1 PUSH4 0xDC8452CD EQ PUSH2 0x1D3 JUMPI PUSH2 0xAE JUMP JUMPDEST CALLDATASIZE PUSH2 0xAE JUMPI CALLER PUSH20 0xFFFFFFFFFFFFFFFFFFFFFFFFFFFFFFFFFFFFFFFF AND PUSH32 0xE1FFFCC4923D04B559F4D29A8BFC6CDA04EB5B0D3C460751C2402C5C5CC9109C CALLVALUE PUSH1 0x40 MLOAD PUSH2 0xA4 SWAP2 SWAP1 PUSH2 0x5A2 JUMP JUMPDEST PUSH1 0x40 MLOAD DUP1 SWAP2 SUB SWAP1 LOG2 STOP JUMPDEST PUSH1 0x0 DUP1 REVERT JUMPDEST CALLVALUE DUP1 ISZERO PUSH2 0xBF JUMPI PUSH1 0x0 DUP1 REVERT JUMPDEST POP PUSH2 0xDA PUSH1 0x4 DUP1 CALLDATASIZE SUB DUP2 ADD SWAP1 PUSH2 0xD5 SWAP2 SWAP1 PUSH2 0x5F3 JUMP JUMPDEST PUSH2 0x1FE JUMP JUMPDEST PUSH1 0x40 MLOAD PUSH2 0xE7 SWAP2 SWAP1 PUSH2 0x661 JUMP JUMPDEST PUSH1 0x40 MLOAD DUP1 SWAP2 SUB SWAP1 RETURN JUMPDEST CALLVALUE DUP1 ISZERO PUSH2 0xFC JUMPI PUSH1 0x0 DUP1 REVERT JUMPDEST POP PUSH2 0x117 PUSH1 0x4 DUP1 CALLDATASIZE SUB DUP2 ADD SWAP1 PUSH2 0x112 SWAP2 SWAP1 PUSH2 0x70D JUMP JUMPDEST PUSH2 0x23D JUMP JUMPDEST STOP JUMPDEST CALLVALUE DUP1 ISZERO PUSH2 0x125 JUMPI PUSH1 0x0 DUP1 REVERT JUMPDEST POP PUSH2 0x140 PUSH1 0x4 DUP1 CALLDATASIZE SUB DUP2 ADD SWAP1 PUSH2 0x13B SWAP2 SWAP1 PUSH2 0x781 JUMP JUMPDEST PUSH2 0x43F JUMP JUMPDEST PUSH1 0x40 MLOAD PUSH2 0x14D SWAP2 SWAP1 PUSH2 0x7C9 JUMP JUMPDEST PUSH1 0x40 MLOAD DUP1 SWAP2 SUB SWAP1 RETURN JUMPDEST CALLVALUE DUP1 ISZERO PUSH2 0x162 JUMPI PUSH1 0x0 DUP1 REVERT JUMPDEST POP PUSH2 0x17D PUSH1 0x4 DUP1 CALLDATASIZE SUB DUP2 ADD SWAP1 PUSH2 0x178 SWAP2 SWAP1 PUSH2 0x5F3 JUMP JUMPDEST PUSH2 0x45F JUMP JUMPDEST PUSH1 0x40 MLOAD PUSH2 0x18D SWAP5 SWAP4 SWAP3 SWAP2 SWAP1 PUSH2 0x874 JUMP JUMPDEST PUSH1 0x40 MLOAD DUP1 SWAP2 SUB SWAP1 RETURN JUMPDEST CALLVALUE DUP1 ISZERO PUSH2 0x1A2 JUMPI PUSH1 0x0 DUP1 REVERT JUMPDEST POP PUSH2 0x1BD PUSH1 0x4 DUP1 CALLDATASIZE SUB DUP2 ADD SWAP1 PUSH2 0x1B8 SWAP2 SWAP1 PUSH2 0x8C0 JUMP JUMPDEST PUSH2 0x554 JUMP JUMPDEST PUSH1 0x40 MLOAD PUSH2 0x1CA SWAP2 SWAP1 PUSH2 0x7C9 JUMP JUMPDEST PUSH1 0x40 MLOAD DUP1 SWAP2 SUB SWAP1 RETURN JUMPDEST CALLVALUE DUP1 ISZERO PUSH2 0x1DF JUMPI PUSH1 0x0 DUP1 REVERT JUMPDEST POP PUSH2 0x1E8 PUSH2 0x583 JUMP JUMPDEST PUSH1 0x40 MLOAD PUSH2 0x1F5 SWAP2 SWAP1 PUSH2 0x5A2 JUMP JUMPDEST PUSH1 0x40 MLOAD DUP1 SWAP2 SUB SWAP1 RETURN JUMPDEST PUSH1 0x0 DUP2 DUP2 SLOAD DUP2 LT PUSH2 0x20E JUMPI PUSH1 0x0 DUP1 REVERT JUMPDEST SWAP1 PUSH1 0x0 MSTORE PUSH1 0x20 PUSH1 0x0 KECCAK256 ADD PUSH1 0x0 SWAP2 POP SLOAD SWAP1 PUSH2 0x100 EXP SWAP1 DIV PUSH20 0xFFFFFFFFFFFFFFFFFFFFFFFFFFFFFFFFFFFFFFFF AND DUP2 JUMP JUMPDEST PUSH1 0x1 PUSH1 0x0 CALLER PUSH20 0xFFFFFFFFFFFFFFFFFFFFFFFFFFFFFFFFFFFFFFFF AND PUSH20 0xFFFFFFFFFFFFFFFFFFFFFFFFFFFFFFFFFFFFFFFF AND DUP2 MSTORE PUSH1 0x20 ADD SWAP1 DUP2 MSTORE PUSH1 0x20 ADD PUSH1 0x0 KECCAK256 PUSH1 0x0 SWAP1 SLOAD SWAP1 PUSH2 0x100 EXP SWAP1 DIV PUSH1 0xFF AND PUSH2 0x2C9 JUMPI PUSH1 0x40 MLOAD PUSH32 0x8C379A000000000000000000000000000000000000000000000000000000000 DUP2 MSTORE PUSH1 0x4 ADD PUSH2 0x2C0 SWAP1 PUSH2 0x95D JUMP JUMPDEST PUSH1 0x40 MLOAD DUP1 SWAP2 SUB SWAP1 REVERT JUMPDEST PUSH1 0x3 PUSH1 0x40 MLOAD DUP1 PUSH1 0x80 ADD PUSH1 0x40 MSTORE DUP1 DUP7 PUSH20 0xFFFFFFFFFFFFFFFFFFFFFFFFFFFFFFFFFFFFFFFF AND DUP2 MSTORE PUSH1 0x20 ADD DUP6 DUP2 MSTORE PUSH1 0x20 ADD DUP5 DUP5 DUP1 DUP1 PUSH1 0x1F ADD PUSH1 0x20 DUP1 SWAP2 DIV MUL PUSH1 0x20 ADD PUSH1 0x40 MLOAD SWAP1 DUP2 ADD PUSH1 0x40 MSTORE DUP1 SWAP4 SWAP3 SWAP2 SWAP1 DUP2 DUP2 MSTORE PUSH1 0x20 ADD DUP4 DUP4 DUP1 DUP3 DUP5 CALLDATACOPY PUSH1 0x0 DUP2 DUP5 ADD MSTORE PUSH1 0x1F NOT PUSH1 0x1F DUP3 ADD AND SWAP1 POP DUP1 DUP4 ADD SWAP3 POP POP POP POP POP POP POP DUP2 MSTORE PUSH1 0x20 ADD PUSH1 0x0 ISZERO ISZERO DUP2 MSTORE POP SWAP1 DUP1 PUSH1 0x1 DUP2 SLOAD ADD DUP1 DUP3 SSTORE DUP1 SWAP2 POP POP PUSH1 0x1 SWAP1 SUB SWAP1 PUSH1 0x0 MSTORE PUSH1 0x20 PUSH1 0x0 KECCAK256 SWAP1 PUSH1 0x4 MUL ADD PUSH1 0x0 SWAP1 SWAP2 SWAP1 SWAP2 SWAP1 SWAP2 POP PUSH1 0x0 DUP3 ADD MLOAD DUP2 PUSH1 0x0 ADD PUSH1 0x0 PUSH2 0x100 EXP DUP2 SLOAD DUP2 PUSH20 0xFFFFFFFFFFFFFFFFFFFFFFFFFFFFFFFFFFFFFFFF MUL NOT AND SWAP1 DUP4 PUSH20 0xFFFFFFFFFFFFFFFFFFFFFFFFFFFFFFFFFFFFFFFF AND MUL OR SWAP1 SSTORE POP PUSH1 0x20 DUP3 ADD MLOAD DUP2 PUSH1 0x1 ADD SSTORE PUSH1 0x40 DUP3 ADD MLOAD DUP2 PUSH1 0x2 ADD SWAP1 DUP2 PUSH2 0x3D8 SWAP2 SWAP1 PUSH2 0xBB8 JUMP JUMPDEST POP PUSH1 0x60 DUP3 ADD MLOAD DUP2 PUSH1 0x3 ADD PUSH1 0x0 PUSH2 0x100 EXP DUP2 SLOAD DUP2 PUSH1 0xFF MUL NOT AND SWAP1 DUP4 ISZERO ISZERO MUL OR SWAP1 SSTORE POP POP POP PUSH1 0x1 PUSH1 0x3 DUP1 SLOAD SWAP1 POP PUSH2 0x40D SWAP2 SWAP1 PUSH2 0xCB9 JUMP JUMPDEST PUSH32 0x8324B3D745B914E3ABD4FFBFEAD91E3B78391A98C173202129215AB933ADFBE PUSH1 0x40 MLOAD PUSH1 0x40 MLOAD DUP1 SWAP2 SUB SWAP1 LOG2 POP POP POP POP JUMP JUMPDEST PUSH1 0x1 PUSH1 0x20 MSTORE DUP1 PUSH1 0x0 MSTORE PUSH1 0x40 PUSH1 0x0 KECCAK256 PUSH1 0x0 SWAP2 POP SLOAD SWAP1 PUSH2 0x100 EXP SWAP1 DIV PUSH1 0xFF AND DUP2 JUMP JUMPDEST PUSH1 0x3 DUP2 DUP2 SLOAD DUP2 LT PUSH2 0x46F JUMPI PUSH1 0x0 DUP1 REVERT JUMPDEST SWAP1 PUSH1 0x0 MSTORE PUSH1 0x20 PUSH1 0x0 KECCAK256 SWAP1 PUSH1 0x4 MUL ADD PUSH1 0x0 SWAP2 POP SWAP1 POP DUP1 PUSH1 0x0 ADD PUSH1 0x0 SWAP1 SLOAD SWAP1 PUSH2 0x100 EXP SWAP1 DIV PUSH20 0xFFFFFFFFFFFFFFFFFFFFFFFFFFFFFFFFFFFFFFFF AND SWAP1 DUP1 PUSH1 0x1 ADD SLOAD SWAP1 DUP1 PUSH1 0x2 ADD DUP1 SLOAD PUSH2 0x4BE SWAP1 PUSH2 0x9DB JUMP JUMPDEST DUP1 PUSH1 0x1F ADD PUSH1 0x20 DUP1 SWAP2 DIV MUL PUSH1 0x20 ADD PUSH1 0x40 MLOAD SWAP1 DUP2 ADD PUSH1 0x40 MSTORE DUP1 SWAP3 SWAP2 SWAP1 DUP2 DUP2 MSTORE PUSH1 0x20 ADD DUP3 DUP1 SLOAD PUSH2 0x4EA SWAP1 PUSH2 0x9DB JUMP JUMPDEST DUP1 ISZERO PUSH2 0x537 JUMPI DUP1 PUSH1 0x1F LT PUSH2 0x50C JUMPI PUSH2 0x100 DUP1 DUP4 SLOAD DIV MUL DUP4 MSTORE SWAP2 PUSH1 0x20 ADD SWAP2 PUSH2 0x537 JUMP JUMPDEST DUP3 ADD SWAP2 SWAP1 PUSH1 0x0 MSTORE PUSH1 0x20 PUSH1 0x0 KECCAK256 SWAP1 JUMPDEST DUP2 SLOAD DUP2 MSTORE SWAP1 PUSH1 0x1 ADD SWAP1 PUSH1 0x20 ADD DUP1 DUP4 GT PUSH2 0x51A JUMPI DUP3 SWAP1 SUB PUSH1 0x1F AND DUP3 ADD SWAP2 JUMPDEST POP POP POP POP POP SWAP1 DUP1 PUSH1 0x3 ADD PUSH1 0x0 SWAP1 SLOAD SWAP1 PUSH2 0x100 EXP SWAP1 DIV PUSH1 0xFF AND SWAP1 POP DUP5 JUMP JUMPDEST PUSH1 0x4 PUSH1 0x20 MSTORE DUP2 PUSH1 0x0 MSTORE PUSH1 0x40 PUSH1 0x0 KECCAK256 PUSH1 0x20 MSTORE DUP1 PUSH1 0x0 MSTORE PUSH1 0x40 PUSH1 0x0 KECCAK256 PUSH1 0x0 SWAP2 POP SWAP2 POP SWAP1 SLOAD SWAP1 PUSH2 0x100 EXP SWAP1 DIV PUSH1 0xFF AND DUP2 JUMP JUMPDEST PUSH1 0x2 SLOAD DUP2 JUMP JUMPDEST PUSH1 0x0 DUP2 SWAP1 POP SWAP2 SWAP1 POP JUMP JUMPDEST PUSH2 0x59C DUP2 PUSH2 0x589 JUMP JUMPDEST DUP3 MSTORE POP POP JUMP JUMPDEST PUSH1 0x0 PUSH1 0x20 DUP3 ADD SWAP1 POP PUSH2 0x5B7 PUSH1 0x0 DUP4 ADD DUP5 PUSH2 0x593 JUMP JUMPDEST SWAP3 SWAP2 POP POP JUMP JUMPDEST PUSH1 0x0 DUP1 REVERT JUMPDEST PUSH1 0x0 DUP1 REVERT JUMPDEST PUSH2 0x5D0 DUP2 PUSH2 0x589 JUMP JUMPDEST DUP2 EQ PUSH2 0x5DB JUMPI PUSH1 0x0 DUP1 REVERT JUMPDEST POP JUMP JUMPDEST PUSH1 0x0 DUP2 CALLDATALOAD SWAP1 POP PUSH2 0x5ED DUP2 PUSH2 0x5C7 JUMP JUMPDEST SWAP3 SWAP2 POP POP JUMP JUMPDEST PUSH1 0x0 PUSH1 0x20 DUP3 DUP5 SUB SLT ISZERO PUSH2 0x609 JUMPI PUSH2 0x608 PUSH2 0x5BD JUMP JUMPDEST JUMPDEST PUSH1 0x0 PUSH2 0x617 DUP5 DUP3 DUP6 ADD PUSH2 0x5DE JUMP JUMPDEST SWAP2 POP POP SWAP3 SWAP2 POP POP JUMP JUMPDEST PUSH1 0x0 PUSH20 0xFFFFFFFFFFFFFFFFFFFFFFFFFFFFFFFFFFFFFFFF DUP3 AND SWAP1 POP SWAP2 SWAP1 POP JUMP JUMPDEST PUSH1 0x0 PUSH2 0x64B DUP3 PUSH2 0x620 JUMP JUMPDEST SWAP1 POP SWAP2 SWAP1 POP JUMP JUMPDEST PUSH2 0x65B DUP2 PUSH2 0x640 JUMP JUMPDEST DUP3 MSTORE POP POP JUMP JUMPDEST PUSH1 0x0 PUSH1 0x20 DUP3 ADD SWAP1 POP PUSH2 0x676 PUSH1 0x0 DUP4 ADD DUP5 PUSH2 0x652 JUMP JUMPDEST SWAP3 SWAP2 POP POP JUMP JUMPDEST PUSH2 0x685 DUP2 PUSH2 0x640 JUMP JUMPDEST DUP2 EQ PUSH2 0x690 JUMPI PUSH1 0x0 DUP1 REVERT JUMPDEST POP JUMP JUMPDEST PUSH1 0x0 DUP2 CALLDATALOAD SWAP1 POP PUSH2 0x6A2 DUP2 PUSH2 0x67C JUMP JUMPDEST SWAP3 SWAP2 POP POP JUMP JUMPDEST PUSH1 0x0 DUP1 REVERT JUMPDEST PUSH1 0x0 DUP1 REVERT JUMPDEST PUSH1 0x0 DUP1 REVERT JUMPDEST PUSH1 0x0 DUP1 DUP4 PUSH1 0x1F DUP5 ADD SLT PUSH2 0x6CD JUMPI PUSH2 0x6CC PUSH2 0x6A8 JUMP JUMPDEST JUMPDEST DUP3 CALLDATALOAD SWAP1 POP PUSH8 0xFFFFFFFFFFFFFFFF DUP2 GT ISZERO PUSH2 0x6EA JUMPI PUSH2 0x6E9 PUSH2 0x6AD JUMP JUMPDEST JUMPDEST PUSH1 0x20 DUP4 ADD SWAP2 POP DUP4 PUSH1 0x1 DUP3 MUL DUP4 ADD GT ISZERO PUSH2 0x706 JUMPI PUSH2 0x705 PUSH2 0x6B2 JUMP JUMPDEST JUMPDEST SWAP3 POP SWAP3 SWAP1 POP JUMP JUMPDEST PUSH1 0x0 DUP1 PUSH1 0x0 DUP1 PUSH1 0x60 DUP6 DUP8 SUB SLT ISZERO PUSH2 0x727 JUMPI PUSH2 0x726 PUSH2 0x5BD JUMP JUMPDEST JUMPDEST PUSH1 0x0 PUSH2 0x735 DUP8 DUP3 DUP9 ADD PUSH2 0x693 JUMP JUMPDEST SWAP5 POP POP PUSH1 0x20 PUSH2 0x746 DUP8 DUP3 DUP9 ADD PUSH2 0x5DE JUMP JUMPDEST SWAP4 POP POP PUSH1 0x40 DUP6 ADD CALLDATALOAD PUSH8 0xFFFFFFFFFFFFFFFF DUP2 GT ISZERO PUSH2 0x767 JUMPI PUSH2 0x766 PUSH2 0x5C2 JUMP JUMPDEST JUMPDEST PUSH2 0x773 DUP8 DUP3 DUP9 ADD PUSH2 0x6B7 JUMP JUMPDEST SWAP3 POP SWAP3 POP POP SWAP3 SWAP6 SWAP2 SWAP5 POP SWAP3 POP JUMP JUMPDEST PUSH1 0x0 PUSH1 0x20 DUP3 DUP5 SUB SLT ISZERO PUSH2 0x797 JUMPI PUSH2 0x796 PUSH2 0x5BD JUMP JUMPDEST JUMPDEST PUSH1 0x0 PUSH2 0x7A5 DUP5 DUP3 DUP6 ADD PUSH2 0x693 JUMP JUMPDEST SWAP2 POP POP SWAP3 SWAP2 POP POP JUMP JUMPDEST PUSH1 0x0 DUP2 ISZERO ISZERO SWAP1 POP SWAP2 SWAP1 POP JUMP JUMPDEST PUSH2 0x7C3 DUP2 PUSH2 0x7AE JUMP JUMPDEST DUP3 MSTORE POP POP JUMP JUMPDEST PUSH1 0x0 PUSH1 0x20 DUP3 ADD SWAP1 POP PUSH2 0x7DE PUSH1 0x0 DUP4 ADD DUP5 PUSH2 0x7BA JUMP JUMPDEST SWAP3 SWAP2 POP POP JUMP JUMPDEST PUSH1 0x0 DUP2 MLOAD SWAP1 POP SWAP2 SWAP1 POP JUMP JUMPDEST PUSH1 0x0 DUP3 DUP3 MSTORE PUSH1 0x20 DUP3 ADD SWAP1 POP SWAP3 SWAP2 POP POP JUMP JUMPDEST PUSH1 0x0 JUMPDEST DUP4 DUP2 LT ISZERO PUSH2 0x81E JUMPI DUP1 DUP3 ADD MLOAD DUP2 DUP5 ADD MSTORE PUSH1 0x20 DUP2 ADD SWAP1 POP PUSH2 0x803 JUMP JUMPDEST PUSH1 0x0 DUP5 DUP5 ADD MSTORE POP POP POP POP JUMP JUMPDEST PUSH1 0x0 PUSH1 0x1F NOT PUSH1 0x1F DUP4 ADD AND SWAP1 POP SWAP2 SWAP1 POP JUMP JUMPDEST PUSH1 0x0 PUSH2 0x846 DUP3 PUSH2 0x7E4 JUMP JUMPDEST PUSH2 0x850 DUP2 DUP6 PUSH2 0x7EF JUMP JUMPDEST SWAP4 POP PUSH2 0x860 DUP2 DUP6 PUSH1 0x20 DUP7 ADD PUSH2 0x800 JUMP JUMPDEST PUSH2 0x869 DUP2 PUSH2 0x82A JUMP JUMPDEST DUP5 ADD SWAP2 POP POP SWAP3 SWAP2 POP POP JUMP JUMPDEST PUSH1 0x0 PUSH1 0x80 DUP3 ADD SWAP1 POP PUSH2 0x889 PUSH1 0x0 DUP4 ADD DUP8 PUSH2 0x652 JUMP JUMPDEST PUSH2 0x896 PUSH1 0x20 DUP4 ADD DUP7 PUSH2 0x593 JUMP JUMPDEST DUP2 DUP2 SUB PUSH1 0x40 DUP4 ADD MSTORE PUSH2 0x8A8 DUP2 DUP6 PUSH2 0x83B JUMP JUMPDEST SWAP1 POP PUSH2 0x8B7 PUSH1 0x60 DUP4 ADD DUP5 PUSH2 0x7BA JUMP JUMPDEST SWAP6 SWAP5 POP POP POP POP POP JUMP JUMPDEST PUSH1 0x0 DUP1 PUSH1 0x40 DUP4 DUP6 SUB SLT ISZERO PUSH2 0x8D7 JUMPI PUSH2 0x8D6 PUSH2 0x5BD JUMP JUMPDEST JUMPDEST PUSH1 0x0 PUSH2 0x8E5 DUP6 DUP3 DUP7 ADD PUSH2 0x5DE JUMP JUMPDEST SWAP3 POP POP PUSH1 0x20 PUSH2 0x8F6 DUP6 DUP3 DUP7 ADD PUSH2 0x693 JUMP JUMPDEST SWAP2 POP POP SWAP3 POP SWAP3 SWAP1 POP JUMP JUMPDEST PUSH1 0x0 DUP3 DUP3 MSTORE PUSH1 0x20 DUP3 ADD SWAP1 POP SWAP3 SWAP2 POP POP JUMP JUMPDEST PUSH32 0x6E6F74206F776E65720000000000000000000000000000000000000000000000 PUSH1 0x0 DUP3 ADD MSTORE POP JUMP JUMPDEST PUSH1 0x0 PUSH2 0x947 PUSH1 0x9 DUP4 PUSH2 0x900 JUMP JUMPDEST SWAP2 POP PUSH2 0x952 DUP3 PUSH2 0x911 JUMP JUMPDEST PUSH1 0x20 DUP3 ADD SWAP1 POP SWAP2 SWAP1 POP JUMP JUMPDEST PUSH1 0x0 PUSH1 0x20 DUP3 ADD SWAP1 POP DUP2 DUP2 SUB PUSH1 0x0 DUP4 ADD MSTORE PUSH2 0x976 DUP2 PUSH2 0x93A JUMP JUMPDEST SWAP1 POP SWAP2 SWAP1 POP JUMP JUMPDEST PUSH32 0x4E487B7100000000000000000000000000000000000000000000000000000000 PUSH1 0x0 MSTORE PUSH1 0x41 PUSH1 0x4 MSTORE PUSH1 0x24 PUSH1 0x0 REVERT JUMPDEST PUSH32 0x4E487B7100000000000000000000000000000000000000000000000000000000 PUSH1 0x0 MSTORE PUSH1 0x22 PUSH1 0x4 MSTORE PUSH1 0x24 PUSH1 0x0 REVERT JUMPDEST PUSH1 0x0 PUSH1 0x2 DUP3 DIV SWAP1 POP PUSH1 0x1 DUP3 AND DUP1 PUSH2 0x9F3 JUMPI PUSH1 0x7F DUP3 AND SWAP2 POP JUMPDEST PUSH1 0x20 DUP3 LT DUP2 SUB PUSH2 0xA06 JUMPI PUSH2 0xA05 PUSH2 0x9AC JUMP JUMPDEST JUMPDEST POP SWAP2 SWAP1 POP JUMP JUMPDEST PUSH1 0x0 DUP2 SWAP1 POP DUP2 PUSH1 0x0 MSTORE PUSH1 0x20 PUSH1 0x0 KECCAK256 SWAP1 POP SWAP2 SWAP1 POP JUMP JUMPDEST PUSH1 0x0 PUSH1 0x20 PUSH1 0x1F DUP4 ADD DIV SWAP1 POP SWAP2 SWAP1 POP JUMP JUMPDEST PUSH1 0x0 DUP3 DUP3 SHL SWAP1 POP SWAP3 SWAP2 POP POP JUMP JUMPDEST PUSH1 0x0 PUSH1 0x8 DUP4 MUL PUSH2 0xA6E PUSH32 0xFFFFFFFFFFFFFFFFFFFFFFFFFFFFFFFFFFFFFFFFFFFFFFFFFFFFFFFFFFFFFFFF DUP3 PUSH2 0xA31 JUMP JUMPDEST PUSH2 0xA78 DUP7 DUP4 PUSH2 0xA31 JUMP JUMPDEST SWAP6 POP DUP1 NOT DUP5 AND SWAP4 POP DUP1 DUP7 AND DUP5 OR SWAP3 POP POP POP SWAP4 SWAP3 POP POP POP JUMP JUMPDEST PUSH1 0x0 DUP2 SWAP1 POP SWAP2 SWAP1 POP JUMP JUMPDEST PUSH1 0x0 PUSH2 0xAB5 PUSH2 0xAB0 PUSH2 0xAAB DUP5 PUSH2 0x589 JUMP JUMPDEST PUSH2 0xA90 JUMP JUMPDEST PUSH2 0x589 JUMP JUMPDEST SWAP1 POP SWAP2 SWAP1 POP JUMP JUMPDEST PUSH1 0x0 DUP2 SWAP1 POP SWAP2 SWAP1 POP JUMP JUMPDEST PUSH2 0xACF DUP4 PUSH2 0xA9A JUMP JUMPDEST PUSH2 0xAE3 PUSH2 0xADB DUP3 PUSH2 0xABC JUMP JUMPDEST DUP5 DUP5 SLOAD PUSH2 0xA3E JUMP JUMPDEST DUP3 SSTORE POP POP POP POP JUMP JUMPDEST PUSH1 0x0 SWAP1 JUMP JUMPDEST PUSH2 0xAF8 PUSH2 0xAEB JUMP JUMPDEST PUSH2 0xB03 DUP2 DUP5 DUP5 PUSH2 0xAC6 JUMP JUMPDEST POP POP POP JUMP JUMPDEST JUMPDEST DUP2 DUP2 LT ISZERO PUSH2 0xB27 JUMPI PUSH2 0xB1C PUSH1 0x0 DUP3 PUSH2 0xAF0 JUMP JUMPDEST PUSH1 0x1 DUP2 ADD SWAP1 POP PUSH2 0xB09 JUMP JUMPDEST POP POP JUMP JUMPDEST PUSH1 0x1F DUP3 GT ISZERO PUSH2 0xB6C JUMPI PUSH2 0xB3D DUP2 PUSH2 0xA0C JUMP JUMPDEST PUSH2 0xB46 DUP5 PUSH2 0xA21 JUMP JUMPDEST DUP2 ADD PUSH1 0x20 DUP6 LT ISZERO PUSH2 0xB55 JUMPI DUP2 SWAP1 POP JUMPDEST PUSH2 0xB69 PUSH2 0xB61 DUP6 PUSH2 0xA21 JUMP JUMPDEST DUP4 ADD DUP3 PUSH2 0xB08 JUMP JUMPDEST POP POP JUMPDEST POP POP POP JUMP JUMPDEST PUSH1 0x0 DUP3 DUP3 SHR SWAP1 POP SWAP3 SWAP2 POP POP JUMP JUMPDEST PUSH1 0x0 PUSH2 0xB8F PUSH1 0x0 NOT DUP5 PUSH1 0x8 MUL PUSH2 0xB71 JUMP JUMPDEST NOT DUP1 DUP4 AND SWAP2 POP POP SWAP3 SWAP2 POP POP JUMP JUMPDEST PUSH1 0x0 PUSH2 0xBA8 DUP4 DUP4 PUSH2 0xB7E JUMP JUMPDEST SWAP2 POP DUP3 PUSH1 0x2 MUL DUP3 OR SWAP1 POP SWAP3 SWAP2 POP POP JUMP JUMPDEST PUSH2 0xBC1 DUP3 PUSH2 0x7E4 JUMP JUMPDEST PUSH8 0xFFFFFFFFFFFFFFFF DUP2 GT ISZERO PUSH2 0xBDA JUMPI PUSH2 0xBD9 PUSH2 0x97D JUMP JUMPDEST JUMPDEST PUSH2 0xBE4 DUP3 SLOAD PUSH2 0x9DB JUMP JUMPDEST PUSH2 0xBEF DUP3 DUP3 DUP6 PUSH2 0xB2B JUMP JUMPDEST PUSH1 0x0 PUSH1 0x20 SWAP1 POP PUSH1 0x1F DUP4 GT PUSH1 0x1 DUP2 EQ PUSH2 0xC22 JUMPI PUSH1 0x0 DUP5 ISZERO PUSH2 0xC10 JUMPI DUP3 DUP8 ADD MLOAD SWAP1 POP JUMPDEST PUSH2 0xC1A DUP6 DUP3 PUSH2 0xB9C JUMP JUMPDEST DUP7 SSTORE POP PUSH2 0xC82 JUMP JUMPDEST PUSH1 0x1F NOT DUP5 AND PUSH2 0xC30 DUP7 PUSH2 0xA0C JUMP JUMPDEST PUSH1 0x0 JUMPDEST DUP3 DUP2 LT ISZERO PUSH2 0xC58 JUMPI DUP5 DUP10 ADD MLOAD DUP3 SSTORE PUSH1 0x1 DUP3 ADD SWAP2 POP PUSH1 0x20 DUP6 ADD SWAP5 POP PUSH1 0x20 DUP2 ADD SWAP1 POP PUSH2 0xC33 JUMP JUMPDEST DUP7 DUP4 LT ISZERO PUSH2 0xC75 JUMPI DUP5 DUP10 ADD MLOAD PUSH2 0xC71 PUSH1 0x1F DUP10 AND DUP3 PUSH2 0xB7E JUMP JUMPDEST DUP4 SSTORE POP JUMPDEST PUSH1 0x1 PUSH1 0x2 DUP9 MUL ADD DUP9 SSTORE POP POP POP JUMPDEST POP POP POP POP POP POP JUMP JUMPDEST PUSH32 0x4E487B7100000000000000000000000000000000000000000000000000000000 PUSH1 0x0 MSTORE PUSH1 0x11 PUSH1 0x4 MSTORE PUSH1 0x24 PUSH1 0x0 REVERT JUMPDEST PUSH1 0x0 PUSH2 0xCC4 DUP3 PUSH2 0x589 JUMP JUMPDEST SWAP2 POP PUSH2 0xCCF DUP4 PUSH2 0x589 JUMP JUMPDEST SWAP3 POP DUP3 DUP3 SUB SWAP1 POP DUP2 DUP2 GT ISZERO PUSH2 0xCE7 JUMPI PUSH2 0xCE6 PUSH2 0xC8A JUMP JUMPDEST JUMPDEST SWAP3 SWAP2 POP POP JUMP INVALID LOG2 PUSH5 0x6970667358 0x22 SLT KECCAK256 0x5E GASPRICE SWAP13 ORIGIN PUSH14 0xE0B2DA2D31126C4B1EFFDECB521A 0xC SWAP4 MSTORE8 MUL DUP2 SWAP8 0x2E SMOD PUSH16 0xC8879ECE64736F6C6343000812003300 "
				},
				"gasEstimates": {
					"creation": {
						"codeDepositCost": "672600",
						"executionCost": "infinite",
						"totalCost": "infinite"
					},
					"external": {
						"approval(uint256,address)": "3153",
						"isOwner(address)": "2867",
						"owners(uint256)": "4934",
						"required()": "2517",
						"submit(address,uint256,bytes)": "infinite",
						"transactions(uint256)": "infinite"
					}
				},
				"methodIdentifiers": {
					"approval(uint256,address)": "b848de35",
					"isOwner(address)": "2f54bf6e",
					"owners(uint256)": "025e7c27",
					"required()": "dc8452cd",
					"submit(address,uint256,bytes)": "14de327f",
					"transactions(uint256)": "9ace38c2"
				}
			},
			"storageLayout": {
				"storage": [
					{
						"astId": 39,
						"contract": "Contracts/mul.sol:KudiWallet",
						"label": "owners",
						"offset": 0,
						"slot": "0",
						"type": "t_array(t_address)dyn_storage"
					},
					{
						"astId": 43,
						"contract": "Contracts/mul.sol:KudiWallet",
						"label": "isOwner",
						"offset": 0,
						"slot": "1",
						"type": "t_mapping(t_address,t_bool)"
					},
					{
						"astId": 45,
						"contract": "Contracts/mul.sol:KudiWallet",
						"label": "required",
						"offset": 0,
						"slot": "2",
						"type": "t_uint256"
					},
					{
						"astId": 49,
						"contract": "Contracts/mul.sol:KudiWallet",
						"label": "transactions",
						"offset": 0,
						"slot": "3",
						"type": "t_array(t_struct(Transaction)36_storage)dyn_storage"
					},
					{
						"astId": 55,
						"contract": "Contracts/mul.sol:KudiWallet",
						"label": "approval",
						"offset": 0,
						"slot": "4",
						"type": "t_mapping(t_uint256,t_mapping(t_address,t_bool))"
					}
				],
				"types": {
					"t_address": {
						"encoding": "inplace",
						"label": "address",
						"numberOfBytes": "20"
					},
					"t_array(t_address)dyn_storage": {
						"base": "t_address",
						"encoding": "dynamic_array",
						"label": "address[]",
						"numberOfBytes": "32"
					},
					"t_array(t_struct(Transaction)36_storage)dyn_storage": {
						"base": "t_struct(Transaction)36_storage",
						"encoding": "dynamic_array",
						"label": "struct KudiWallet.Transaction[]",
						"numberOfBytes": "32"
					},
					"t_bool": {
						"encoding": "inplace",
						"label": "bool",
						"numberOfBytes": "1"
					},
					"t_bytes_storage": {
						"encoding": "bytes",
						"label": "bytes",
						"numberOfBytes": "32"
					},
					"t_mapping(t_address,t_bool)": {
						"encoding": "mapping",
						"key": "t_address",
						"label": "mapping(address => bool)",
						"numberOfBytes": "32",
						"value": "t_bool"
					},
					"t_mapping(t_uint256,t_mapping(t_address,t_bool))": {
						"encoding": "mapping",
						"key": "t_uint256",
						"label": "mapping(uint256 => mapping(address => bool))",
						"numberOfBytes": "32",
						"value": "t_mapping(t_address,t_bool)"
					},
					"t_struct(Transaction)36_storage": {
						"encoding": "inplace",
						"label": "struct KudiWallet.Transaction",
						"members": [
							{
								"astId": 29,
								"contract": "Contracts/mul.sol:KudiWallet",
								"label": "to",
								"offset": 0,
								"slot": "0",
								"type": "t_address"
							},
							{
								"astId": 31,
								"contract": "Contracts/mul.sol:KudiWallet",
								"label": "value",
								"offset": 0,
								"slot": "1",
								"type": "t_uint256"
							},
							{
								"astId": 33,
								"contract": "Contracts/mul.sol:KudiWallet",
								"label": "data",
								"offset": 0,
								"slot": "2",
								"type": "t_bytes_storage"
							},
							{
								"astId": 35,
								"contract": "Contracts/mul.sol:KudiWallet",
								"label": "executed",
								"offset": 0,
								"slot": "3",
								"type": "t_bool"
							}
						],
						"numberOfBytes": "128"
					},
					"t_uint256": {
						"encoding": "inplace",
						"label": "uint256",
						"numberOfBytes": "32"
					}
				}
			},
			"userdoc": {
				"kind": "user",
				"methods": {},
				"version": 1
			}
		}
	}
}