{
	"Contracts/Cpamm.sol": {
		"CPAMM": {
			"abi": [
				{
					"inputs": [
						{
							"internalType": "address",
							"name": "_token0",
							"type": "address"
						},
						{
							"internalType": "address",
							"name": "_token1",
							"type": "address"
						}
					],
					"stateMutability": "nonpayable",
					"type": "constructor"
				},
				{
					"inputs": [
						{
							"internalType": "uint256",
							"name": "_amount0",
							"type": "uint256"
						},
						{
							"internalType": "uint256",
							"name": "_amount1",
							"type": "uint256"
						}
					],
					"name": "AddLiquidity",
					"outputs": [
						{
							"internalType": "uint256",
							"name": "shares",
							"type": "uint256"
						}
					],
					"stateMutability": "nonpayable",
					"type": "function"
				},
				{
					"inputs": [
						{
							"internalType": "uint256",
							"name": "shares",
							"type": "uint256"
						}
					],
					"name": "RemoveLiquidity",
					"outputs": [
						{
							"internalType": "uint256",
							"name": "_amount0",
							"type": "uint256"
						},
						{
							"internalType": "uint256",
							"name": "_amount1",
							"type": "uint256"
						}
					],
					"stateMutability": "nonpayable",
					"type": "function"
				},
				{
					"inputs": [
						{
							"internalType": "address",
							"name": "_tokenIn",
							"type": "address"
						},
						{
							"internalType": "uint256",
							"name": "amountIn",
							"type": "uint256"
						}
					],
					"name": "Swap",
					"outputs": [
						{
							"internalType": "uint256",
							"name": "amountOut",
							"type": "uint256"
						}
					],
					"stateMutability": "nonpayable",
					"type": "function"
				},
				{
					"inputs": [
						{
							"internalType": "address",
							"name": "",
							"type": "address"
						}
					],
					"name": "balanceOf",
					"outputs": [
						{
							"internalType": "uint256",
							"name": "",
							"type": "uint256"
						}
					],
					"stateMutability": "view",
					"type": "function"
				},
				{
					"inputs": [],
					"name": "reserve0",
					"outputs": [
						{
							"internalType": "uint256",
							"name": "",
							"type": "uint256"
						}
					],
					"stateMutability": "view",
					"type": "function"
				},
				{
					"inputs": [],
					"name": "reserve1",
					"outputs": [
						{
							"internalType": "uint256",
							"name": "",
							"type": "uint256"
						}
					],
					"stateMutability": "view",
					"type": "function"
				},
				{
					"inputs": [],
					"name": "token0",
					"outputs": [
						{
							"internalType": "contract IERC20",
							"name": "",
							"type": "address"
						}
					],
					"stateMutability": "view",
					"type": "function"
				},
				{
					"inputs": [],
					"name": "token1",
					"outputs": [
						{
							"internalType": "contract IERC20",
							"name": "",
							"type": "address"
						}
					],
					"stateMutability": "view",
					"type": "function"
				},
				{
					"inputs": [],
					"name": "totalSupply",
					"outputs": [
						{
							"internalType": "uint256",
							"name": "",
							"type": "uint256"
						}
					],
					"stateMutability": "view",
					"type": "function"
				}
			],
			"devdoc": {
				"kind": "dev",
				"methods": {},
				"version": 1
			},
			"evm": {
				"assembly": "    /* \"Contracts/Cpamm.sol\":83:4102  contract CPAMM{... */\n  mstore(0x40, 0xc0)\n    /* \"Contracts/Cpamm.sol\":178:301  constructor(address _token0, address _token1){... */\n  callvalue\n  dup1\n  iszero\n  tag_1\n  jumpi\n  0x00\n  dup1\n  revert\ntag_1:\n  pop\n  mload(0x40)\n  sub(codesize, bytecodeSize)\n  dup1\n  bytecodeSize\n  dup4\n  codecopy\n  dup2\n  dup2\n  add\n  0x40\n  mstore\n  dup2\n  add\n  swap1\n  tag_2\n  swap2\n  swap1\n  tag_3\n  jump\t// in\ntag_2:\n    /* \"Contracts/Cpamm.sol\":250:257  _token0 */\n  dup2\n    /* \"Contracts/Cpamm.sol\":234:258  token0 = IERC20(_token0) */\n  0xffffffffffffffffffffffffffffffffffffffff\n  and\n  0x80\n  dup2\n  0xffffffffffffffffffffffffffffffffffffffff\n  and\n  dup2\n  mstore\n  pop\n  pop\n    /* \"Contracts/Cpamm.sol\":285:292  _token1 */\n  dup1\n    /* \"Contracts/Cpamm.sol\":269:293  token1 = IERC20(_token1) */\n  0xffffffffffffffffffffffffffffffffffffffff\n  and\n  0xa0\n  dup2\n  0xffffffffffffffffffffffffffffffffffffffff\n  and\n  dup2\n  mstore\n  pop\n  pop\n    /* \"Contracts/Cpamm.sol\":178:301  constructor(address _token0, address _token1){... */\n  pop\n  pop\n    /* \"Contracts/Cpamm.sol\":83:4102  contract CPAMM{... */\n  jump(tag_6)\n    /* \"#utility.yul\":88:205   */\ntag_8:\n    /* \"#utility.yul\":197:198   */\n  0x00\n    /* \"#utility.yul\":194:195   */\n  dup1\n    /* \"#utility.yul\":187:199   */\n  revert\n    /* \"#utility.yul\":334:460   */\ntag_10:\n    /* \"#utility.yul\":371:378   */\n  0x00\n    /* \"#utility.yul\":411:453   */\n  0xffffffffffffffffffffffffffffffffffffffff\n    /* \"#utility.yul\":404:409   */\n  dup3\n    /* \"#utility.yul\":400:454   */\n  and\n    /* \"#utility.yul\":389:454   */\n  swap1\n  pop\n    /* \"#utility.yul\":334:460   */\n  swap2\n  swap1\n  pop\n  jump\t// out\n    /* \"#utility.yul\":466:562   */\ntag_11:\n    /* \"#utility.yul\":503:510   */\n  0x00\n    /* \"#utility.yul\":532:556   */\n  tag_20\n    /* \"#utility.yul\":550:555   */\n  dup3\n    /* \"#utility.yul\":532:556   */\n  tag_10\n  jump\t// in\ntag_20:\n    /* \"#utility.yul\":521:556   */\n  swap1\n  pop\n    /* \"#utility.yul\":466:562   */\n  swap2\n  swap1\n  pop\n  jump\t// out\n    /* \"#utility.yul\":568:690   */\ntag_12:\n    /* \"#utility.yul\":641:665   */\n  tag_22\n    /* \"#utility.yul\":659:664   */\n  dup2\n    /* \"#utility.yul\":641:665   */\n  tag_11\n  jump\t// in\ntag_22:\n    /* \"#utility.yul\":634:639   */\n  dup2\n    /* \"#utility.yul\":631:666   */\n  eq\n    /* \"#utility.yul\":621:684   */\n  tag_23\n  jumpi\n    /* \"#utility.yul\":680:681   */\n  0x00\n    /* \"#utility.yul\":677:678   */\n  dup1\n    /* \"#utility.yul\":670:682   */\n  revert\n    /* \"#utility.yul\":621:684   */\ntag_23:\n    /* \"#utility.yul\":568:690   */\n  pop\n  jump\t// out\n    /* \"#utility.yul\":696:839   */\ntag_13:\n    /* \"#utility.yul\":753:758   */\n  0x00\n    /* \"#utility.yul\":784:790   */\n  dup2\n    /* \"#utility.yul\":778:791   */\n  mload\n    /* \"#utility.yul\":769:791   */\n  swap1\n  pop\n    /* \"#utility.yul\":800:833   */\n  tag_25\n    /* \"#utility.yul\":827:832   */\n  dup2\n    /* \"#utility.yul\":800:833   */\n  tag_12\n  jump\t// in\ntag_25:\n    /* \"#utility.yul\":696:839   */\n  swap3\n  swap2\n  pop\n  pop\n  jump\t// out\n    /* \"#utility.yul\":845:1352   */\ntag_3:\n    /* \"#utility.yul\":924:930   */\n  0x00\n    /* \"#utility.yul\":932:938   */\n  dup1\n    /* \"#utility.yul\":981:983   */\n  0x40\n    /* \"#utility.yul\":969:978   */\n  dup4\n    /* \"#utility.yul\":960:967   */\n  dup6\n    /* \"#utility.yul\":956:979   */\n  sub\n    /* \"#utility.yul\":952:984   */\n  slt\n    /* \"#utility.yul\":949:1068   */\n  iszero\n  tag_27\n  jumpi\n    /* \"#utility.yul\":987:1066   */\n  tag_28\n  tag_8\n  jump\t// in\ntag_28:\n    /* \"#utility.yul\":949:1068   */\ntag_27:\n    /* \"#utility.yul\":1107:1108   */\n  0x00\n    /* \"#utility.yul\":1132:1196   */\n  tag_29\n    /* \"#utility.yul\":1188:1195   */\n  dup6\n    /* \"#utility.yul\":1179:1185   */\n  dup3\n    /* \"#utility.yul\":1168:1177   */\n  dup7\n    /* \"#utility.yul\":1164:1186   */\n  add\n    /* \"#utility.yul\":1132:1196   */\n  tag_13\n  jump\t// in\ntag_29:\n    /* \"#utility.yul\":1122:1196   */\n  swap3\n  pop\n    /* \"#utility.yul\":1078:1206   */\n  pop\n    /* \"#utility.yul\":1245:1247   */\n  0x20\n    /* \"#utility.yul\":1271:1335   */\n  tag_30\n    /* \"#utility.yul\":1327:1334   */\n  dup6\n    /* \"#utility.yul\":1318:1324   */\n  dup3\n    /* \"#utility.yul\":1307:1316   */\n  dup7\n    /* \"#utility.yul\":1303:1325   */\n  add\n    /* \"#utility.yul\":1271:1335   */\n  tag_13\n  jump\t// in\ntag_30:\n    /* \"#utility.yul\":1261:1335   */\n  swap2\n  pop\n    /* \"#utility.yul\":1216:1345   */\n  pop\n    /* \"#utility.yul\":845:1352   */\n  swap3\n  pop\n  swap3\n  swap1\n  pop\n  jump\t// out\n    /* \"Contracts/Cpamm.sol\":83:4102  contract CPAMM{... */\ntag_6:\n  mload(0x80)\n  mload(0xa0)\n  codecopy(0x00, dataOffset(sub_0), dataSize(sub_0))\n  0x00\n  assignImmutable(\"0xe4b1702d9298fee62dfeccc57d322a463ad55ca201256d01f62b45b2e1c21c10\")\n  0x00\n  assignImmutable(\"0xceebf77a833b30520287ddd9478ff51abbdffa30aa90a8d655dba0e8a79ce0c1\")\n  return(0x00, dataSize(sub_0))\nstop\n\nsub_0: assembly {\n        /* \"Contracts/Cpamm.sol\":83:4102  contract CPAMM{... */\n      mstore(0x40, 0x80)\n      callvalue\n      dup1\n      iszero\n      tag_1\n      jumpi\n      0x00\n      dup1\n      revert\n    tag_1:\n      pop\n      jumpi(tag_2, lt(calldatasize, 0x04))\n      shr(0xe0, calldataload(0x00))\n      dup1\n      0x5a76f25e\n      gt\n      tag_12\n      jumpi\n      dup1\n      0x5a76f25e\n      eq\n      tag_7\n      jumpi\n      dup1\n      0x70a08231\n      eq\n      tag_8\n      jumpi\n      dup1\n      0x9a5a8a32\n      eq\n      tag_9\n      jumpi\n      dup1\n      0xcb1652de\n      eq\n      tag_10\n      jumpi\n      dup1\n      0xd21220a7\n      eq\n      tag_11\n      jumpi\n      jump(tag_2)\n    tag_12:\n      dup1\n      0x0dfe1681\n      eq\n      tag_3\n      jumpi\n      dup1\n      0x18160ddd\n      eq\n      tag_4\n      jumpi\n      dup1\n      0x443cb4bc\n      eq\n      tag_5\n      jumpi\n      dup1\n      0x562c2195\n      eq\n      tag_6\n      jumpi\n    tag_2:\n      0x00\n      dup1\n      revert\n        /* \"Contracts/Cpamm.sol\":104:134  IERC20 public immutable token0 */\n    tag_3:\n      tag_13\n      tag_14\n      jump\t// in\n    tag_13:\n      mload(0x40)\n      tag_15\n      swap2\n      swap1\n      tag_16\n      jump\t// in\n    tag_15:\n      mload(0x40)\n      dup1\n      swap2\n      sub\n      swap1\n      return\n        /* \"Contracts/Cpamm.sol\":384:408  uint  public totalSupply */\n    tag_4:\n      tag_17\n      tag_18\n      jump\t// in\n    tag_17:\n      mload(0x40)\n      tag_19\n      swap2\n      swap1\n      tag_20\n      jump\t// in\n    tag_19:\n      mload(0x40)\n      dup1\n      swap2\n      sub\n      swap1\n      return\n        /* \"Contracts/Cpamm.sol\":330:350  uint public reserve0 */\n    tag_5:\n      tag_21\n      tag_22\n      jump\t// in\n    tag_21:\n      mload(0x40)\n      tag_23\n      swap2\n      swap1\n      tag_20\n      jump\t// in\n    tag_23:\n      mload(0x40)\n      dup1\n      swap2\n      sub\n      swap1\n      return\n        /* \"Contracts/Cpamm.sol\":1386:2380  function Swap(address _tokenIn, uint amountIn) external returns(uint amountOut){... */\n    tag_6:\n      tag_24\n      0x04\n      dup1\n      calldatasize\n      sub\n      dup2\n      add\n      swap1\n      tag_25\n      swap2\n      swap1\n      tag_26\n      jump\t// in\n    tag_25:\n      tag_27\n      jump\t// in\n    tag_24:\n      mload(0x40)\n      tag_28\n      swap2\n      swap1\n      tag_20\n      jump\t// in\n    tag_28:\n      mload(0x40)\n      dup1\n      swap2\n      sub\n      swap1\n      return\n        /* \"Contracts/Cpamm.sol\":357:377  uint public reserve1 */\n    tag_7:\n      tag_29\n      tag_30\n      jump\t// in\n    tag_29:\n      mload(0x40)\n      tag_31\n      swap2\n      swap1\n      tag_20\n      jump\t// in\n    tag_31:\n      mload(0x40)\n      dup1\n      swap2\n      sub\n      swap1\n      return\n        /* \"Contracts/Cpamm.sol\":415:457  mapping (address => uint) public balanceOf */\n    tag_8:\n      tag_32\n      0x04\n      dup1\n      calldatasize\n      sub\n      dup2\n      add\n      swap1\n      tag_33\n      swap2\n      swap1\n      tag_34\n      jump\t// in\n    tag_33:\n      tag_35\n      jump\t// in\n    tag_32:\n      mload(0x40)\n      tag_36\n      swap2\n      swap1\n      tag_20\n      jump\t// in\n    tag_36:\n      mload(0x40)\n      dup1\n      swap2\n      sub\n      swap1\n      return\n        /* \"Contracts/Cpamm.sol\":3433:4085  function RemoveLiquidity(uint shares) external returns(uint _amount0, uint _amount1){... */\n    tag_9:\n      tag_37\n      0x04\n      dup1\n      calldatasize\n      sub\n      dup2\n      add\n      swap1\n      tag_38\n      swap2\n      swap1\n      tag_39\n      jump\t// in\n    tag_38:\n      tag_40\n      jump\t// in\n    tag_37:\n      mload(0x40)\n      tag_41\n      swap3\n      swap2\n      swap1\n      tag_42\n      jump\t// in\n    tag_41:\n      mload(0x40)\n      dup1\n      swap2\n      sub\n      swap1\n      return\n        /* \"Contracts/Cpamm.sol\":2386:3427  function AddLiquidity(uint _amount0, uint _amount1) external returns (uint shares){... */\n    tag_10:\n      tag_43\n      0x04\n      dup1\n      calldatasize\n      sub\n      dup2\n      add\n      swap1\n      tag_44\n      swap2\n      swap1\n      tag_45\n      jump\t// in\n    tag_44:\n      tag_46\n      jump\t// in\n    tag_43:\n      mload(0x40)\n      tag_47\n      swap2\n      swap1\n      tag_20\n      jump\t// in\n    tag_47:\n      mload(0x40)\n      dup1\n      swap2\n      sub\n      swap1\n      return\n        /* \"Contracts/Cpamm.sol\":141:171  IERC20 public immutable token1 */\n    tag_11:\n      tag_48\n      tag_49\n      jump\t// in\n    tag_48:\n      mload(0x40)\n      tag_50\n      swap2\n      swap1\n      tag_16\n      jump\t// in\n    tag_50:\n      mload(0x40)\n      dup1\n      swap2\n      sub\n      swap1\n      return\n        /* \"Contracts/Cpamm.sol\":104:134  IERC20 public immutable token0 */\n    tag_14:\n      immutable(\"0xceebf77a833b30520287ddd9478ff51abbdffa30aa90a8d655dba0e8a79ce0c1\")\n      dup2\n      jump\t// out\n        /* \"Contracts/Cpamm.sol\":384:408  uint  public totalSupply */\n    tag_18:\n      sload(0x02)\n      dup2\n      jump\t// out\n        /* \"Contracts/Cpamm.sol\":330:350  uint public reserve0 */\n    tag_22:\n      sload(0x00)\n      dup2\n      jump\t// out\n        /* \"Contracts/Cpamm.sol\":1386:2380  function Swap(address _tokenIn, uint amountIn) external returns(uint amountOut){... */\n    tag_27:\n        /* \"Contracts/Cpamm.sol\":1450:1464  uint amountOut */\n      0x00\n        /* \"Contracts/Cpamm.sol\":1504:1510  token0 */\n      immutable(\"0xceebf77a833b30520287ddd9478ff51abbdffa30aa90a8d655dba0e8a79ce0c1\")\n        /* \"Contracts/Cpamm.sol\":1484:1511  _tokenIn == address(token0) */\n      0xffffffffffffffffffffffffffffffffffffffff\n      and\n        /* \"Contracts/Cpamm.sol\":1484:1492  _tokenIn */\n      dup4\n        /* \"Contracts/Cpamm.sol\":1484:1511  _tokenIn == address(token0) */\n      0xffffffffffffffffffffffffffffffffffffffff\n      and\n      eq\n        /* \"Contracts/Cpamm.sol\":1484:1542  _tokenIn == address(token0) || _tokenIn == address(token1) */\n      dup1\n      tag_52\n      jumpi\n      pop\n        /* \"Contracts/Cpamm.sol\":1535:1541  token1 */\n      immutable(\"0xe4b1702d9298fee62dfeccc57d322a463ad55ca201256d01f62b45b2e1c21c10\")\n        /* \"Contracts/Cpamm.sol\":1515:1542  _tokenIn == address(token1) */\n      0xffffffffffffffffffffffffffffffffffffffff\n      and\n        /* \"Contracts/Cpamm.sol\":1515:1523  _tokenIn */\n      dup4\n        /* \"Contracts/Cpamm.sol\":1515:1542  _tokenIn == address(token1) */\n      0xffffffffffffffffffffffffffffffffffffffff\n      and\n      eq\n        /* \"Contracts/Cpamm.sol\":1484:1542  _tokenIn == address(token0) || _tokenIn == address(token1) */\n    tag_52:\n        /* \"Contracts/Cpamm.sol\":1476:1560  require(_tokenIn == address(token0) || _tokenIn == address(token1), \"Invalid token\") */\n      tag_53\n      jumpi\n      mload(0x40)\n      0x08c379a000000000000000000000000000000000000000000000000000000000\n      dup2\n      mstore\n      0x04\n      add\n      tag_54\n      swap1\n      tag_55\n      jump\t// in\n    tag_54:\n      mload(0x40)\n      dup1\n      swap2\n      sub\n      swap1\n      revert\n    tag_53:\n        /* \"Contracts/Cpamm.sol\":1603:1616  bool isToken0 */\n      0x00\n        /* \"Contracts/Cpamm.sol\":1639:1645  token0 */\n      immutable(\"0xceebf77a833b30520287ddd9478ff51abbdffa30aa90a8d655dba0e8a79ce0c1\")\n        /* \"Contracts/Cpamm.sol\":1619:1646  _tokenIn == address(token0) */\n      0xffffffffffffffffffffffffffffffffffffffff\n      and\n        /* \"Contracts/Cpamm.sol\":1619:1627  _tokenIn */\n      dup5\n        /* \"Contracts/Cpamm.sol\":1619:1646  _tokenIn == address(token0) */\n      0xffffffffffffffffffffffffffffffffffffffff\n      and\n      eq\n        /* \"Contracts/Cpamm.sol\":1603:1646  bool isToken0 = _tokenIn == address(token0) */\n      swap1\n      pop\n        /* \"Contracts/Cpamm.sol\":1658:1672  IERC20 tokenIn */\n      0x00\n        /* \"Contracts/Cpamm.sol\":1675:1690  IERC20 tokenOut */\n      dup1\n        /* \"Contracts/Cpamm.sol\":1692:1706  uint reserveIn */\n      0x00\n        /* \"Contracts/Cpamm.sol\":1708:1723  uint reserveOut */\n      dup1\n        /* \"Contracts/Cpamm.sol\":1727:1735  isToken0 */\n      dup5\n        /* \"Contracts/Cpamm.sol\":1727:1821  isToken0 ?... */\n      tag_56\n      jumpi\n        /* \"Contracts/Cpamm.sol\":1786:1792  token1 */\n      immutable(\"0xe4b1702d9298fee62dfeccc57d322a463ad55ca201256d01f62b45b2e1c21c10\")\n        /* \"Contracts/Cpamm.sol\":1794:1800  token0 */\n      immutable(\"0xceebf77a833b30520287ddd9478ff51abbdffa30aa90a8d655dba0e8a79ce0c1\")\n        /* \"Contracts/Cpamm.sol\":1802:1810  reserve1 */\n      sload(0x01)\n        /* \"Contracts/Cpamm.sol\":1812:1820  reserve0 */\n      sload(0x00)\n        /* \"Contracts/Cpamm.sol\":1727:1821  isToken0 ?... */\n      jump(tag_57)\n    tag_56:\n        /* \"Contracts/Cpamm.sol\":1748:1754  token0 */\n      immutable(\"0xceebf77a833b30520287ddd9478ff51abbdffa30aa90a8d655dba0e8a79ce0c1\")\n        /* \"Contracts/Cpamm.sol\":1756:1762  token1 */\n      immutable(\"0xe4b1702d9298fee62dfeccc57d322a463ad55ca201256d01f62b45b2e1c21c10\")\n        /* \"Contracts/Cpamm.sol\":1764:1772  reserve0 */\n      sload(0x00)\n        /* \"Contracts/Cpamm.sol\":1774:1782  reserve1 */\n      sload(0x01)\n        /* \"Contracts/Cpamm.sol\":1727:1821  isToken0 ?... */\n    tag_57:\n        /* \"Contracts/Cpamm.sol\":1657:1821  (IERC20 tokenIn,  IERC20 tokenOut, uint reserveIn, uint reserveOut) = isToken0 ?... */\n      swap4\n      pop\n      swap4\n      pop\n      swap4\n      pop\n      swap4\n      pop\n        /* \"Contracts/Cpamm.sol\":1832:1839  tokenIn */\n      dup4\n        /* \"Contracts/Cpamm.sol\":1832:1852  tokenIn.transferFrom */\n      0xffffffffffffffffffffffffffffffffffffffff\n      and\n      0x23b872dd\n        /* \"Contracts/Cpamm.sol\":1853:1863  msg.sender */\n      caller\n        /* \"Contracts/Cpamm.sol\":1873:1877  this */\n      address\n        /* \"Contracts/Cpamm.sol\":1880:1888  amountIn */\n      dup11\n        /* \"Contracts/Cpamm.sol\":1832:1889  tokenIn.transferFrom(msg.sender, address(this), amountIn) */\n      mload(0x40)\n      dup5\n      0xffffffff\n      and\n      0xe0\n      shl\n      dup2\n      mstore\n      0x04\n      add\n      tag_58\n      swap4\n      swap3\n      swap2\n      swap1\n      tag_59\n      jump\t// in\n    tag_58:\n      0x20\n      mload(0x40)\n      dup1\n      dup4\n      sub\n      dup2\n      0x00\n      dup8\n      gas\n      call\n      iszero\n      dup1\n      iszero\n      tag_61\n      jumpi\n      returndatasize\n      0x00\n      dup1\n      returndatacopy\n      revert(0x00, returndatasize)\n    tag_61:\n      pop\n      pop\n      pop\n      pop\n      mload(0x40)\n      returndatasize\n      not(0x1f)\n      0x1f\n      dup3\n      add\n      and\n      dup3\n      add\n      dup1\n      0x40\n      mstore\n      pop\n      dup2\n      add\n      swap1\n      tag_62\n      swap2\n      swap1\n      tag_63\n      jump\t// in\n    tag_62:\n      pop\n        /* \"Contracts/Cpamm.sol\":1929:1950  uint amountInWithFees */\n      0x00\n        /* \"Contracts/Cpamm.sol\":1971:1975  1000 */\n      0x03e8\n        /* \"Contracts/Cpamm.sol\":1965:1968  997 */\n      0x03e5\n        /* \"Contracts/Cpamm.sol\":1954:1962  amountIn */\n      dup10\n        /* \"Contracts/Cpamm.sol\":1954:1968  amountIn * 997 */\n      tag_64\n      swap2\n      swap1\n      tag_65\n      jump\t// in\n    tag_64:\n        /* \"Contracts/Cpamm.sol\":1953:1975  (amountIn * 997)/ 1000 */\n      tag_66\n      swap2\n      swap1\n      tag_67\n      jump\t// in\n    tag_66:\n        /* \"Contracts/Cpamm.sol\":1929:1975  uint amountInWithFees = (amountIn * 997)/ 1000 */\n      swap1\n      pop\n        /* \"Contracts/Cpamm.sol\":2044:2060  amountInWithFees */\n      dup1\n        /* \"Contracts/Cpamm.sol\":2032:2041  reserveIn */\n      dup4\n        /* \"Contracts/Cpamm.sol\":2032:2060  reserveIn + amountInWithFees */\n      tag_68\n      swap2\n      swap1\n      tag_69\n      jump\t// in\n    tag_68:\n        /* \"Contracts/Cpamm.sol\":2012:2028  amountInWithFees */\n      dup2\n        /* \"Contracts/Cpamm.sol\":1999:2009  reserveOut */\n      dup4\n        /* \"Contracts/Cpamm.sol\":1999:2028  reserveOut * amountInWithFees */\n      tag_70\n      swap2\n      swap1\n      tag_65\n      jump\t// in\n    tag_70:\n        /* \"Contracts/Cpamm.sol\":1998:2061  (reserveOut * amountInWithFees)/ (reserveIn + amountInWithFees) */\n      tag_71\n      swap2\n      swap1\n      tag_67\n      jump\t// in\n    tag_71:\n        /* \"Contracts/Cpamm.sol\":1986:2061  amountOut = (reserveOut * amountInWithFees)/ (reserveIn + amountInWithFees) */\n      swap7\n      pop\n        /* \"Contracts/Cpamm.sol\":2113:2121  tokenOut */\n      dup4\n        /* \"Contracts/Cpamm.sol\":2113:2130  tokenOut.transfer */\n      0xffffffffffffffffffffffffffffffffffffffff\n      and\n      0xa9059cbb\n        /* \"Contracts/Cpamm.sol\":2131:2141  msg.sender */\n      caller\n        /* \"Contracts/Cpamm.sol\":2143:2152  amountOut */\n      dup10\n        /* \"Contracts/Cpamm.sol\":2113:2153  tokenOut.transfer(msg.sender, amountOut) */\n      mload(0x40)\n      dup4\n      0xffffffff\n      and\n      0xe0\n      shl\n      dup2\n      mstore\n      0x04\n      add\n      tag_72\n      swap3\n      swap2\n      swap1\n      tag_73\n      jump\t// in\n    tag_72:\n      0x20\n      mload(0x40)\n      dup1\n      dup4\n      sub\n      dup2\n      0x00\n      dup8\n      gas\n      call\n      iszero\n      dup1\n      iszero\n      tag_75\n      jumpi\n      returndatasize\n      0x00\n      dup1\n      returndatacopy\n      revert(0x00, returndatasize)\n    tag_75:\n      pop\n      pop\n      pop\n      pop\n      mload(0x40)\n      returndatasize\n      not(0x1f)\n      0x1f\n      dup3\n      add\n      and\n      dup3\n      add\n      dup1\n      0x40\n      mstore\n      pop\n      dup2\n      add\n      swap1\n      tag_76\n      swap2\n      swap1\n      tag_63\n      jump\t// in\n    tag_76:\n      pop\n        /* \"Contracts/Cpamm.sol\":2258:2368  Update(... */\n      tag_77\n        /* \"Contracts/Cpamm.sol\":2279:2285  token0 */\n      immutable(\"0xceebf77a833b30520287ddd9478ff51abbdffa30aa90a8d655dba0e8a79ce0c1\")\n        /* \"Contracts/Cpamm.sol\":2279:2295  token0.balanceOf */\n      0xffffffffffffffffffffffffffffffffffffffff\n      and\n      0x70a08231\n        /* \"Contracts/Cpamm.sol\":2304:2308  this */\n      address\n        /* \"Contracts/Cpamm.sol\":2279:2310  token0.balanceOf(address(this)) */\n      mload(0x40)\n      dup3\n      0xffffffff\n      and\n      0xe0\n      shl\n      dup2\n      mstore\n      0x04\n      add\n      tag_78\n      swap2\n      swap1\n      tag_79\n      jump\t// in\n    tag_78:\n      0x20\n      mload(0x40)\n      dup1\n      dup4\n      sub\n      dup2\n      dup7\n      gas\n      staticcall\n      iszero\n      dup1\n      iszero\n      tag_81\n      jumpi\n      returndatasize\n      0x00\n      dup1\n      returndatacopy\n      revert(0x00, returndatasize)\n    tag_81:\n      pop\n      pop\n      pop\n      pop\n      mload(0x40)\n      returndatasize\n      not(0x1f)\n      0x1f\n      dup3\n      add\n      and\n      dup3\n      add\n      dup1\n      0x40\n      mstore\n      pop\n      dup2\n      add\n      swap1\n      tag_82\n      swap2\n      swap1\n      tag_83\n      jump\t// in\n    tag_82:\n        /* \"Contracts/Cpamm.sol\":2326:2332  token1 */\n      immutable(\"0xe4b1702d9298fee62dfeccc57d322a463ad55ca201256d01f62b45b2e1c21c10\")\n        /* \"Contracts/Cpamm.sol\":2326:2342  token1.balanceOf */\n      0xffffffffffffffffffffffffffffffffffffffff\n      and\n      0x70a08231\n        /* \"Contracts/Cpamm.sol\":2351:2355  this */\n      address\n        /* \"Contracts/Cpamm.sol\":2326:2357  token1.balanceOf(address(this)) */\n      mload(0x40)\n      dup3\n      0xffffffff\n      and\n      0xe0\n      shl\n      dup2\n      mstore\n      0x04\n      add\n      tag_84\n      swap2\n      swap1\n      tag_79\n      jump\t// in\n    tag_84:\n      0x20\n      mload(0x40)\n      dup1\n      dup4\n      sub\n      dup2\n      dup7\n      gas\n      staticcall\n      iszero\n      dup1\n      iszero\n      tag_86\n      jumpi\n      returndatasize\n      0x00\n      dup1\n      returndatacopy\n      revert(0x00, returndatasize)\n    tag_86:\n      pop\n      pop\n      pop\n      pop\n      mload(0x40)\n      returndatasize\n      not(0x1f)\n      0x1f\n      dup3\n      add\n      and\n      dup3\n      add\n      dup1\n      0x40\n      mstore\n      pop\n      dup2\n      add\n      swap1\n      tag_87\n      swap2\n      swap1\n      tag_83\n      jump\t// in\n    tag_87:\n        /* \"Contracts/Cpamm.sol\":2258:2264  Update */\n      tag_88\n        /* \"Contracts/Cpamm.sol\":2258:2368  Update(... */\n      jump\t// in\n    tag_77:\n        /* \"Contracts/Cpamm.sol\":1465:2380  {... */\n      pop\n      pop\n      pop\n      pop\n      pop\n      pop\n        /* \"Contracts/Cpamm.sol\":1386:2380  function Swap(address _tokenIn, uint amountIn) external returns(uint amountOut){... */\n      swap3\n      swap2\n      pop\n      pop\n      jump\t// out\n        /* \"Contracts/Cpamm.sol\":357:377  uint public reserve1 */\n    tag_30:\n      sload(0x01)\n      dup2\n      jump\t// out\n        /* \"Contracts/Cpamm.sol\":415:457  mapping (address => uint) public balanceOf */\n    tag_35:\n      mstore(0x20, 0x03)\n      dup1\n      0x00\n      mstore\n      keccak256(0x00, 0x40)\n      0x00\n      swap2\n      pop\n      swap1\n      pop\n      sload\n      dup2\n      jump\t// out\n        /* \"Contracts/Cpamm.sol\":3433:4085  function RemoveLiquidity(uint shares) external returns(uint _amount0, uint _amount1){... */\n    tag_40:\n        /* \"Contracts/Cpamm.sol\":3488:3501  uint _amount0 */\n      0x00\n        /* \"Contracts/Cpamm.sol\":3503:3516  uint _amount1 */\n      dup1\n        /* \"Contracts/Cpamm.sol\":3587:3596  uint bal0 */\n      0x00\n        /* \"Contracts/Cpamm.sol\":3599:3605  token0 */\n      immutable(\"0xceebf77a833b30520287ddd9478ff51abbdffa30aa90a8d655dba0e8a79ce0c1\")\n        /* \"Contracts/Cpamm.sol\":3599:3615  token0.balanceOf */\n      0xffffffffffffffffffffffffffffffffffffffff\n      and\n      0x70a08231\n        /* \"Contracts/Cpamm.sol\":3624:3628  this */\n      address\n        /* \"Contracts/Cpamm.sol\":3599:3630  token0.balanceOf(address(this)) */\n      mload(0x40)\n      dup3\n      0xffffffff\n      and\n      0xe0\n      shl\n      dup2\n      mstore\n      0x04\n      add\n      tag_90\n      swap2\n      swap1\n      tag_79\n      jump\t// in\n    tag_90:\n      0x20\n      mload(0x40)\n      dup1\n      dup4\n      sub\n      dup2\n      dup7\n      gas\n      staticcall\n      iszero\n      dup1\n      iszero\n      tag_92\n      jumpi\n      returndatasize\n      0x00\n      dup1\n      returndatacopy\n      revert(0x00, returndatasize)\n    tag_92:\n      pop\n      pop\n      pop\n      pop\n      mload(0x40)\n      returndatasize\n      not(0x1f)\n      0x1f\n      dup3\n      add\n      and\n      dup3\n      add\n      dup1\n      0x40\n      mstore\n      pop\n      dup2\n      add\n      swap1\n      tag_93\n      swap2\n      swap1\n      tag_83\n      jump\t// in\n    tag_93:\n        /* \"Contracts/Cpamm.sol\":3587:3630  uint bal0 = token0.balanceOf(address(this)) */\n      swap1\n      pop\n        /* \"Contracts/Cpamm.sol\":3641:3650  uint bal1 */\n      0x00\n        /* \"Contracts/Cpamm.sol\":3653:3659  token1 */\n      immutable(\"0xe4b1702d9298fee62dfeccc57d322a463ad55ca201256d01f62b45b2e1c21c10\")\n        /* \"Contracts/Cpamm.sol\":3653:3669  token1.balanceOf */\n      0xffffffffffffffffffffffffffffffffffffffff\n      and\n      0x70a08231\n        /* \"Contracts/Cpamm.sol\":3678:3682  this */\n      address\n        /* \"Contracts/Cpamm.sol\":3653:3684  token1.balanceOf(address(this)) */\n      mload(0x40)\n      dup3\n      0xffffffff\n      and\n      0xe0\n      shl\n      dup2\n      mstore\n      0x04\n      add\n      tag_94\n      swap2\n      swap1\n      tag_79\n      jump\t// in\n    tag_94:\n      0x20\n      mload(0x40)\n      dup1\n      dup4\n      sub\n      dup2\n      dup7\n      gas\n      staticcall\n      iszero\n      dup1\n      iszero\n      tag_96\n      jumpi\n      returndatasize\n      0x00\n      dup1\n      returndatacopy\n      revert(0x00, returndatasize)\n    tag_96:\n      pop\n      pop\n      pop\n      pop\n      mload(0x40)\n      returndatasize\n      not(0x1f)\n      0x1f\n      dup3\n      add\n      and\n      dup3\n      add\n      dup1\n      0x40\n      mstore\n      pop\n      dup2\n      add\n      swap1\n      tag_97\n      swap2\n      swap1\n      tag_83\n      jump\t// in\n    tag_97:\n        /* \"Contracts/Cpamm.sol\":3641:3684  uint bal1 = token1.balanceOf(address(this)) */\n      swap1\n      pop\n        /* \"Contracts/Cpamm.sol\":3722:3733  totalSupply */\n      sload(0x02)\n        /* \"Contracts/Cpamm.sol\":3716:3720  bal0 */\n      dup3\n        /* \"Contracts/Cpamm.sol\":3707:3713  shares */\n      dup7\n        /* \"Contracts/Cpamm.sol\":3707:3720  shares * bal0 */\n      tag_98\n      swap2\n      swap1\n      tag_65\n      jump\t// in\n    tag_98:\n        /* \"Contracts/Cpamm.sol\":3706:3733  (shares * bal0)/totalSupply */\n      tag_99\n      swap2\n      swap1\n      tag_67\n      jump\t// in\n    tag_99:\n        /* \"Contracts/Cpamm.sol\":3695:3733  _amount0 = (shares * bal0)/totalSupply */\n      swap4\n      pop\n        /* \"Contracts/Cpamm.sol\":3773:3784  totalSupply */\n      sload(0x02)\n        /* \"Contracts/Cpamm.sol\":3765:3769  bal1 */\n      dup2\n        /* \"Contracts/Cpamm.sol\":3756:3762  shares */\n      dup7\n        /* \"Contracts/Cpamm.sol\":3756:3769  shares * bal1 */\n      tag_100\n      swap2\n      swap1\n      tag_65\n      jump\t// in\n    tag_100:\n        /* \"Contracts/Cpamm.sol\":3755:3784  (shares * bal1) / totalSupply */\n      tag_101\n      swap2\n      swap1\n      tag_67\n      jump\t// in\n    tag_101:\n        /* \"Contracts/Cpamm.sol\":3744:3784  _amount1 = (shares * bal1) / totalSupply */\n      swap3\n      pop\n        /* \"Contracts/Cpamm.sol\":3814:3815  0 */\n      0x00\n        /* \"Contracts/Cpamm.sol\":3803:3811  _amount0 */\n      dup5\n        /* \"Contracts/Cpamm.sol\":3803:3815  _amount0 > 0 */\n      gt\n        /* \"Contracts/Cpamm.sol\":3803:3831  _amount0 > 0 && _amount1 > 0 */\n      dup1\n      iszero\n      tag_102\n      jumpi\n      pop\n        /* \"Contracts/Cpamm.sol\":3830:3831  0 */\n      0x00\n        /* \"Contracts/Cpamm.sol\":3819:3827  _amount1 */\n      dup4\n        /* \"Contracts/Cpamm.sol\":3819:3831  _amount1 > 0 */\n      gt\n        /* \"Contracts/Cpamm.sol\":3803:3831  _amount0 > 0 && _amount1 > 0 */\n    tag_102:\n        /* \"Contracts/Cpamm.sol\":3795:3858  require(_amount0 > 0 && _amount1 > 0, \"amount0 or amount1 = 0\") */\n      tag_103\n      jumpi\n      mload(0x40)\n      0x08c379a000000000000000000000000000000000000000000000000000000000\n      dup2\n      mstore\n      0x04\n      add\n      tag_104\n      swap1\n      tag_105\n      jump\t// in\n    tag_104:\n      mload(0x40)\n      dup1\n      swap2\n      sub\n      swap1\n      revert\n    tag_103:\n        /* \"Contracts/Cpamm.sol\":3869:3893  burn(msg.sender, shares) */\n      tag_106\n        /* \"Contracts/Cpamm.sol\":3874:3884  msg.sender */\n      caller\n        /* \"Contracts/Cpamm.sol\":3886:3892  shares */\n      dup7\n        /* \"Contracts/Cpamm.sol\":3869:3873  burn */\n      tag_107\n        /* \"Contracts/Cpamm.sol\":3869:3893  burn(msg.sender, shares) */\n      jump\t// in\n    tag_106:\n        /* \"Contracts/Cpamm.sol\":3904:3981  Update(... */\n      tag_108\n        /* \"Contracts/Cpamm.sol\":3932:3940  _amount0 */\n      dup5\n        /* \"Contracts/Cpamm.sol\":3925:3929  bal0 */\n      dup4\n        /* \"Contracts/Cpamm.sol\":3925:3940  bal0 - _amount0 */\n      tag_109\n      swap2\n      swap1\n      tag_110\n      jump\t// in\n    tag_109:\n        /* \"Contracts/Cpamm.sol\":3962:3970  _amount1 */\n      dup5\n        /* \"Contracts/Cpamm.sol\":3955:3959  bal1 */\n      dup4\n        /* \"Contracts/Cpamm.sol\":3955:3970  bal1 - _amount1 */\n      tag_111\n      swap2\n      swap1\n      tag_110\n      jump\t// in\n    tag_111:\n        /* \"Contracts/Cpamm.sol\":3904:3910  Update */\n      tag_88\n        /* \"Contracts/Cpamm.sol\":3904:3981  Update(... */\n      jump\t// in\n    tag_108:\n        /* \"Contracts/Cpamm.sol\":3992:3998  token0 */\n      immutable(\"0xceebf77a833b30520287ddd9478ff51abbdffa30aa90a8d655dba0e8a79ce0c1\")\n        /* \"Contracts/Cpamm.sol\":3992:4007  token0.transfer */\n      0xffffffffffffffffffffffffffffffffffffffff\n      and\n      0xa9059cbb\n        /* \"Contracts/Cpamm.sol\":4008:4018  msg.sender */\n      caller\n        /* \"Contracts/Cpamm.sol\":4020:4028  _amount0 */\n      dup7\n        /* \"Contracts/Cpamm.sol\":3992:4029  token0.transfer(msg.sender, _amount0) */\n      mload(0x40)\n      dup4\n      0xffffffff\n      and\n      0xe0\n      shl\n      dup2\n      mstore\n      0x04\n      add\n      tag_112\n      swap3\n      swap2\n      swap1\n      tag_73\n      jump\t// in\n    tag_112:\n      0x20\n      mload(0x40)\n      dup1\n      dup4\n      sub\n      dup2\n      0x00\n      dup8\n      gas\n      call\n      iszero\n      dup1\n      iszero\n      tag_114\n      jumpi\n      returndatasize\n      0x00\n      dup1\n      returndatacopy\n      revert(0x00, returndatasize)\n    tag_114:\n      pop\n      pop\n      pop\n      pop\n      mload(0x40)\n      returndatasize\n      not(0x1f)\n      0x1f\n      dup3\n      add\n      and\n      dup3\n      add\n      dup1\n      0x40\n      mstore\n      pop\n      dup2\n      add\n      swap1\n      tag_115\n      swap2\n      swap1\n      tag_63\n      jump\t// in\n    tag_115:\n      pop\n        /* \"Contracts/Cpamm.sol\":4040:4046  token1 */\n      immutable(\"0xe4b1702d9298fee62dfeccc57d322a463ad55ca201256d01f62b45b2e1c21c10\")\n        /* \"Contracts/Cpamm.sol\":4040:4055  token1.transfer */\n      0xffffffffffffffffffffffffffffffffffffffff\n      and\n      0xa9059cbb\n        /* \"Contracts/Cpamm.sol\":4056:4066  msg.sender */\n      caller\n        /* \"Contracts/Cpamm.sol\":4068:4076  _amount1 */\n      dup6\n        /* \"Contracts/Cpamm.sol\":4040:4077  token1.transfer(msg.sender, _amount1) */\n      mload(0x40)\n      dup4\n      0xffffffff\n      and\n      0xe0\n      shl\n      dup2\n      mstore\n      0x04\n      add\n      tag_116\n      swap3\n      swap2\n      swap1\n      tag_73\n      jump\t// in\n    tag_116:\n      0x20\n      mload(0x40)\n      dup1\n      dup4\n      sub\n      dup2\n      0x00\n      dup8\n      gas\n      call\n      iszero\n      dup1\n      iszero\n      tag_118\n      jumpi\n      returndatasize\n      0x00\n      dup1\n      returndatacopy\n      revert(0x00, returndatasize)\n    tag_118:\n      pop\n      pop\n      pop\n      pop\n      mload(0x40)\n      returndatasize\n      not(0x1f)\n      0x1f\n      dup3\n      add\n      and\n      dup3\n      add\n      dup1\n      0x40\n      mstore\n      pop\n      dup2\n      add\n      swap1\n      tag_119\n      swap2\n      swap1\n      tag_63\n      jump\t// in\n    tag_119:\n      pop\n        /* \"Contracts/Cpamm.sol\":3517:4085  {... */\n      pop\n      pop\n        /* \"Contracts/Cpamm.sol\":3433:4085  function RemoveLiquidity(uint shares) external returns(uint _amount0, uint _amount1){... */\n      swap2\n      pop\n      swap2\n      jump\t// out\n        /* \"Contracts/Cpamm.sol\":2386:3427  function AddLiquidity(uint _amount0, uint _amount1) external returns (uint shares){... */\n    tag_46:\n        /* \"Contracts/Cpamm.sol\":2456:2467  uint shares */\n      0x00\n        /* \"Contracts/Cpamm.sol\":2479:2485  token0 */\n      immutable(\"0xceebf77a833b30520287ddd9478ff51abbdffa30aa90a8d655dba0e8a79ce0c1\")\n        /* \"Contracts/Cpamm.sol\":2479:2498  token0.transferFrom */\n      0xffffffffffffffffffffffffffffffffffffffff\n      and\n      0x23b872dd\n        /* \"Contracts/Cpamm.sol\":2499:2509  msg.sender */\n      caller\n        /* \"Contracts/Cpamm.sol\":2519:2523  this */\n      address\n        /* \"Contracts/Cpamm.sol\":2526:2534  _amount0 */\n      dup7\n        /* \"Contracts/Cpamm.sol\":2479:2535  token0.transferFrom(msg.sender, address(this), _amount0) */\n      mload(0x40)\n      dup5\n      0xffffffff\n      and\n      0xe0\n      shl\n      dup2\n      mstore\n      0x04\n      add\n      tag_121\n      swap4\n      swap3\n      swap2\n      swap1\n      tag_59\n      jump\t// in\n    tag_121:\n      0x20\n      mload(0x40)\n      dup1\n      dup4\n      sub\n      dup2\n      0x00\n      dup8\n      gas\n      call\n      iszero\n      dup1\n      iszero\n      tag_123\n      jumpi\n      returndatasize\n      0x00\n      dup1\n      returndatacopy\n      revert(0x00, returndatasize)\n    tag_123:\n      pop\n      pop\n      pop\n      pop\n      mload(0x40)\n      returndatasize\n      not(0x1f)\n      0x1f\n      dup3\n      add\n      and\n      dup3\n      add\n      dup1\n      0x40\n      mstore\n      pop\n      dup2\n      add\n      swap1\n      tag_124\n      swap2\n      swap1\n      tag_63\n      jump\t// in\n    tag_124:\n      pop\n        /* \"Contracts/Cpamm.sol\":2546:2552  token1 */\n      immutable(\"0xe4b1702d9298fee62dfeccc57d322a463ad55ca201256d01f62b45b2e1c21c10\")\n        /* \"Contracts/Cpamm.sol\":2546:2565  token1.transferFrom */\n      0xffffffffffffffffffffffffffffffffffffffff\n      and\n      0x23b872dd\n        /* \"Contracts/Cpamm.sol\":2566:2576  msg.sender */\n      caller\n        /* \"Contracts/Cpamm.sol\":2586:2590  this */\n      address\n        /* \"Contracts/Cpamm.sol\":2593:2601  _amount1 */\n      dup6\n        /* \"Contracts/Cpamm.sol\":2546:2602  token1.transferFrom(msg.sender, address(this), _amount1) */\n      mload(0x40)\n      dup5\n      0xffffffff\n      and\n      0xe0\n      shl\n      dup2\n      mstore\n      0x04\n      add\n      tag_125\n      swap4\n      swap3\n      swap2\n      swap1\n      tag_59\n      jump\t// in\n    tag_125:\n      0x20\n      mload(0x40)\n      dup1\n      dup4\n      sub\n      dup2\n      0x00\n      dup8\n      gas\n      call\n      iszero\n      dup1\n      iszero\n      tag_127\n      jumpi\n      returndatasize\n      0x00\n      dup1\n      returndatacopy\n      revert(0x00, returndatasize)\n    tag_127:\n      pop\n      pop\n      pop\n      pop\n      mload(0x40)\n      returndatasize\n      not(0x1f)\n      0x1f\n      dup3\n      add\n      and\n      dup3\n      add\n      dup1\n      0x40\n      mstore\n      pop\n      dup2\n      add\n      swap1\n      tag_128\n      swap2\n      swap1\n      tag_63\n      jump\t// in\n    tag_128:\n      pop\n        /* \"Contracts/Cpamm.sol\":2627:2628  0 */\n      0x00\n        /* \"Contracts/Cpamm.sol\":2616:2624  reserve0 */\n      dup1\n      sload\n        /* \"Contracts/Cpamm.sol\":2616:2628  reserve0 > 0 */\n      gt\n        /* \"Contracts/Cpamm.sol\":2616:2644  reserve0 > 0 || reserve1 > 0 */\n      dup1\n      tag_129\n      jumpi\n      pop\n        /* \"Contracts/Cpamm.sol\":2643:2644  0 */\n      0x00\n        /* \"Contracts/Cpamm.sol\":2632:2640  reserve1 */\n      sload(0x01)\n        /* \"Contracts/Cpamm.sol\":2632:2644  reserve1 > 0 */\n      gt\n        /* \"Contracts/Cpamm.sol\":2616:2644  reserve0 > 0 || reserve1 > 0 */\n    tag_129:\n        /* \"Contracts/Cpamm.sol\":2613:2735  if(reserve0 > 0 || reserve1 > 0){... */\n      iszero\n      tag_130\n      jumpi\n        /* \"Contracts/Cpamm.sol\":2712:2720  _amount1 */\n      dup2\n        /* \"Contracts/Cpamm.sol\":2701:2709  reserve1 */\n      sload(0x01)\n        /* \"Contracts/Cpamm.sol\":2701:2720  reserve1 * _amount1 */\n      tag_131\n      swap2\n      swap1\n      tag_65\n      jump\t// in\n    tag_131:\n        /* \"Contracts/Cpamm.sol\":2689:2697  _amount1 */\n      dup3\n        /* \"Contracts/Cpamm.sol\":2678:2686  reserve0 */\n      sload(0x00)\n        /* \"Contracts/Cpamm.sol\":2678:2697  reserve0 * _amount1 */\n      tag_132\n      swap2\n      swap1\n      tag_65\n      jump\t// in\n    tag_132:\n        /* \"Contracts/Cpamm.sol\":2678:2720  reserve0 * _amount1 == reserve1 * _amount1 */\n      eq\n        /* \"Contracts/Cpamm.sol\":2670:2721  require(reserve0 * _amount1 == reserve1 * _amount1) */\n      tag_133\n      jumpi\n      0x00\n      dup1\n      revert\n    tag_133:\n        /* \"Contracts/Cpamm.sol\":2613:2735  if(reserve0 > 0 || reserve1 > 0){... */\n    tag_130:\n        /* \"Contracts/Cpamm.sol\":2764:2765  0 */\n      0x00\n        /* \"Contracts/Cpamm.sol\":2749:2760  totalSupply */\n      sload(0x02)\n        /* \"Contracts/Cpamm.sol\":2749:2765  totalSupply == 0 */\n      sub\n        /* \"Contracts/Cpamm.sol\":2745:3220  if (totalSupply == 0){... */\n      tag_134\n      jumpi\n        /* \"Contracts/Cpamm.sol\":2790:2816  _sqrt(_amount0 * _amount1) */\n      tag_135\n        /* \"Contracts/Cpamm.sol\":2807:2815  _amount1 */\n      dup3\n        /* \"Contracts/Cpamm.sol\":2796:2804  _amount0 */\n      dup5\n        /* \"Contracts/Cpamm.sol\":2796:2815  _amount0 * _amount1 */\n      tag_136\n      swap2\n      swap1\n      tag_65\n      jump\t// in\n    tag_136:\n        /* \"Contracts/Cpamm.sol\":2790:2795  _sqrt */\n      tag_137\n        /* \"Contracts/Cpamm.sol\":2790:2816  _sqrt(_amount0 * _amount1) */\n      jump\t// in\n    tag_135:\n        /* \"Contracts/Cpamm.sol\":2781:2816  shares = _sqrt(_amount0 * _amount1) */\n      swap1\n      pop\n        /* \"Contracts/Cpamm.sol\":2745:3220  if (totalSupply == 0){... */\n      jump(tag_138)\n    tag_134:\n        /* \"Contracts/Cpamm.sol\":3081:3208  _min(... */\n      tag_139\n        /* \"Contracts/Cpamm.sol\":3131:3139  reserve0 */\n      sload(0x00)\n        /* \"Contracts/Cpamm.sol\":3116:3127  totalSupply */\n      sload(0x02)\n        /* \"Contracts/Cpamm.sol\":3105:3113  _amount0 */\n      dup6\n        /* \"Contracts/Cpamm.sol\":3105:3127  _amount0 * totalSupply */\n      tag_140\n      swap2\n      swap1\n      tag_65\n      jump\t// in\n    tag_140:\n        /* \"Contracts/Cpamm.sol\":3104:3139  (_amount0 * totalSupply) / reserve0 */\n      tag_141\n      swap2\n      swap1\n      tag_67\n      jump\t// in\n    tag_141:\n        /* \"Contracts/Cpamm.sol\":3185:3193  reserve1 */\n      sload(0x01)\n        /* \"Contracts/Cpamm.sol\":3170:3181  totalSupply */\n      sload(0x02)\n        /* \"Contracts/Cpamm.sol\":3159:3167  _amount1 */\n      dup6\n        /* \"Contracts/Cpamm.sol\":3159:3181  _amount1 * totalSupply */\n      tag_142\n      swap2\n      swap1\n      tag_65\n      jump\t// in\n    tag_142:\n        /* \"Contracts/Cpamm.sol\":3158:3193  (_amount1 * totalSupply) / reserve1 */\n      tag_143\n      swap2\n      swap1\n      tag_67\n      jump\t// in\n    tag_143:\n        /* \"Contracts/Cpamm.sol\":3081:3085  _min */\n      tag_144\n        /* \"Contracts/Cpamm.sol\":3081:3208  _min(... */\n      jump\t// in\n    tag_139:\n        /* \"Contracts/Cpamm.sol\":3072:3208  shares = _min(... */\n      swap1\n      pop\n        /* \"Contracts/Cpamm.sol\":2745:3220  if (totalSupply == 0){... */\n    tag_138:\n        /* \"Contracts/Cpamm.sol\":3247:3248  0 */\n      0x00\n        /* \"Contracts/Cpamm.sol\":3238:3244  shares */\n      dup2\n        /* \"Contracts/Cpamm.sol\":3238:3248  shares > 0 */\n      gt\n        /* \"Contracts/Cpamm.sol\":3230:3264  require(shares > 0, \"shares  = 0\") */\n      tag_145\n      jumpi\n      mload(0x40)\n      0x08c379a000000000000000000000000000000000000000000000000000000000\n      dup2\n      mstore\n      0x04\n      add\n      tag_146\n      swap1\n      tag_147\n      jump\t// in\n    tag_146:\n      mload(0x40)\n      dup1\n      swap2\n      sub\n      swap1\n      revert\n    tag_145:\n        /* \"Contracts/Cpamm.sol\":3275:3299  mint(msg.sender, shares) */\n      tag_148\n        /* \"Contracts/Cpamm.sol\":3280:3290  msg.sender */\n      caller\n        /* \"Contracts/Cpamm.sol\":3292:3298  shares */\n      dup3\n        /* \"Contracts/Cpamm.sol\":3275:3279  mint */\n      tag_149\n        /* \"Contracts/Cpamm.sol\":3275:3299  mint(msg.sender, shares) */\n      jump\t// in\n    tag_148:\n        /* \"Contracts/Cpamm.sol\":3310:3419  Update(... */\n      tag_150\n        /* \"Contracts/Cpamm.sol\":3331:3337  token0 */\n      immutable(\"0xceebf77a833b30520287ddd9478ff51abbdffa30aa90a8d655dba0e8a79ce0c1\")\n        /* \"Contracts/Cpamm.sol\":3331:3347  token0.balanceOf */\n      0xffffffffffffffffffffffffffffffffffffffff\n      and\n      0x70a08231\n        /* \"Contracts/Cpamm.sol\":3356:3360  this */\n      address\n        /* \"Contracts/Cpamm.sol\":3331:3362  token0.balanceOf(address(this)) */\n      mload(0x40)\n      dup3\n      0xffffffff\n      and\n      0xe0\n      shl\n      dup2\n      mstore\n      0x04\n      add\n      tag_151\n      swap2\n      swap1\n      tag_79\n      jump\t// in\n    tag_151:\n      0x20\n      mload(0x40)\n      dup1\n      dup4\n      sub\n      dup2\n      dup7\n      gas\n      staticcall\n      iszero\n      dup1\n      iszero\n      tag_153\n      jumpi\n      returndatasize\n      0x00\n      dup1\n      returndatacopy\n      revert(0x00, returndatasize)\n    tag_153:\n      pop\n      pop\n      pop\n      pop\n      mload(0x40)\n      returndatasize\n      not(0x1f)\n      0x1f\n      dup3\n      add\n      and\n      dup3\n      add\n      dup1\n      0x40\n      mstore\n      pop\n      dup2\n      add\n      swap1\n      tag_154\n      swap2\n      swap1\n      tag_83\n      jump\t// in\n    tag_154:\n        /* \"Contracts/Cpamm.sol\":3377:3383  token1 */\n      immutable(\"0xe4b1702d9298fee62dfeccc57d322a463ad55ca201256d01f62b45b2e1c21c10\")\n        /* \"Contracts/Cpamm.sol\":3377:3393  token1.balanceOf */\n      0xffffffffffffffffffffffffffffffffffffffff\n      and\n      0x70a08231\n        /* \"Contracts/Cpamm.sol\":3402:3406  this */\n      address\n        /* \"Contracts/Cpamm.sol\":3377:3408  token1.balanceOf(address(this)) */\n      mload(0x40)\n      dup3\n      0xffffffff\n      and\n      0xe0\n      shl\n      dup2\n      mstore\n      0x04\n      add\n      tag_155\n      swap2\n      swap1\n      tag_79\n      jump\t// in\n    tag_155:\n      0x20\n      mload(0x40)\n      dup1\n      dup4\n      sub\n      dup2\n      dup7\n      gas\n      staticcall\n      iszero\n      dup1\n      iszero\n      tag_157\n      jumpi\n      returndatasize\n      0x00\n      dup1\n      returndatacopy\n      revert(0x00, returndatasize)\n    tag_157:\n      pop\n      pop\n      pop\n      pop\n      mload(0x40)\n      returndatasize\n      not(0x1f)\n      0x1f\n      dup3\n      add\n      and\n      dup3\n      add\n      dup1\n      0x40\n      mstore\n      pop\n      dup2\n      add\n      swap1\n      tag_158\n      swap2\n      swap1\n      tag_83\n      jump\t// in\n    tag_158:\n        /* \"Contracts/Cpamm.sol\":3310:3316  Update */\n      tag_88\n        /* \"Contracts/Cpamm.sol\":3310:3419  Update(... */\n      jump\t// in\n    tag_150:\n        /* \"Contracts/Cpamm.sol\":2386:3427  function AddLiquidity(uint _amount0, uint _amount1) external returns (uint shares){... */\n      swap3\n      swap2\n      pop\n      pop\n      jump\t// out\n        /* \"Contracts/Cpamm.sol\":141:171  IERC20 public immutable token1 */\n    tag_49:\n      immutable(\"0xe4b1702d9298fee62dfeccc57d322a463ad55ca201256d01f62b45b2e1c21c10\")\n      dup2\n      jump\t// out\n        /* \"Contracts/Cpamm.sol\":764:890  function Update(uint _reserve0, uint _reserve1) private {... */\n    tag_88:\n        /* \"Contracts/Cpamm.sol\":842:851  _reserve0 */\n      dup2\n        /* \"Contracts/Cpamm.sol\":831:839  reserve0 */\n      0x00\n        /* \"Contracts/Cpamm.sol\":831:851  reserve0 = _reserve0 */\n      dup2\n      swap1\n      sstore\n      pop\n        /* \"Contracts/Cpamm.sol\":873:882  _reserve1 */\n      dup1\n        /* \"Contracts/Cpamm.sol\":862:870  reserve1 */\n      0x01\n        /* \"Contracts/Cpamm.sol\":862:882  reserve1 = _reserve1 */\n      dup2\n      swap1\n      sstore\n      pop\n        /* \"Contracts/Cpamm.sol\":764:890  function Update(uint _reserve0, uint _reserve1) private {... */\n      pop\n      pop\n      jump\t// out\n        /* \"Contracts/Cpamm.sol\":632:758  function burn(address _from, uint amount) private{... */\n    tag_107:\n        /* \"Contracts/Cpamm.sol\":707:713  amount */\n      dup1\n        /* \"Contracts/Cpamm.sol\":692:703  totalSupply */\n      0x02\n      0x00\n        /* \"Contracts/Cpamm.sol\":692:713  totalSupply -= amount */\n      dup3\n      dup3\n      sload\n      tag_161\n      swap2\n      swap1\n      tag_110\n      jump\t// in\n    tag_161:\n      swap3\n      pop\n      pop\n      dup2\n      swap1\n      sstore\n      pop\n        /* \"Contracts/Cpamm.sol\":744:750  amount */\n      dup1\n        /* \"Contracts/Cpamm.sol\":724:733  balanceOf */\n      0x03\n        /* \"Contracts/Cpamm.sol\":724:740  balanceOf[_from] */\n      0x00\n        /* \"Contracts/Cpamm.sol\":734:739  _from */\n      dup5\n        /* \"Contracts/Cpamm.sol\":724:740  balanceOf[_from] */\n      0xffffffffffffffffffffffffffffffffffffffff\n      and\n      0xffffffffffffffffffffffffffffffffffffffff\n      and\n      dup2\n      mstore\n      0x20\n      add\n      swap1\n      dup2\n      mstore\n      0x20\n      add\n      0x00\n      keccak256\n      0x00\n        /* \"Contracts/Cpamm.sol\":724:750  balanceOf[_from] -= amount */\n      dup3\n      dup3\n      sload\n      tag_162\n      swap2\n      swap1\n      tag_110\n      jump\t// in\n    tag_162:\n      swap3\n      pop\n      pop\n      dup2\n      swap1\n      sstore\n      pop\n        /* \"Contracts/Cpamm.sol\":632:758  function burn(address _from, uint amount) private{... */\n      pop\n      pop\n      jump\t// out\n        /* \"Contracts/Cpamm.sol\":897:1200  function _sqrt(uint y) private pure returns (uint z) {... */\n    tag_137:\n        /* \"Contracts/Cpamm.sol\":942:948  uint z */\n      0x00\n        /* \"Contracts/Cpamm.sol\":969:970  3 */\n      0x03\n        /* \"Contracts/Cpamm.sol\":965:966  y */\n      dup3\n        /* \"Contracts/Cpamm.sol\":965:970  y > 3 */\n      gt\n        /* \"Contracts/Cpamm.sol\":961:1193  if (y > 3) {... */\n      iszero\n      tag_164\n      jumpi\n        /* \"Contracts/Cpamm.sol\":991:992  y */\n      dup2\n        /* \"Contracts/Cpamm.sol\":987:992  z = y */\n      swap1\n      pop\n        /* \"Contracts/Cpamm.sol\":1007:1013  uint x */\n      0x00\n        /* \"Contracts/Cpamm.sol\":1024:1025  1 */\n      0x01\n        /* \"Contracts/Cpamm.sol\":1020:1021  2 */\n      0x02\n        /* \"Contracts/Cpamm.sol\":1016:1017  y */\n      dup5\n        /* \"Contracts/Cpamm.sol\":1016:1021  y / 2 */\n      tag_165\n      swap2\n      swap1\n      tag_67\n      jump\t// in\n    tag_165:\n        /* \"Contracts/Cpamm.sol\":1016:1025  y / 2 + 1 */\n      tag_166\n      swap2\n      swap1\n      tag_69\n      jump\t// in\n    tag_166:\n        /* \"Contracts/Cpamm.sol\":1007:1025  uint x = y / 2 + 1 */\n      swap1\n      pop\n        /* \"Contracts/Cpamm.sol\":1040:1132  while (x < z) {... */\n    tag_167:\n        /* \"Contracts/Cpamm.sol\":1051:1052  z */\n      dup2\n        /* \"Contracts/Cpamm.sol\":1047:1048  x */\n      dup2\n        /* \"Contracts/Cpamm.sol\":1047:1052  x < z */\n      lt\n        /* \"Contracts/Cpamm.sol\":1040:1132  while (x < z) {... */\n      iszero\n      tag_168\n      jumpi\n        /* \"Contracts/Cpamm.sol\":1077:1078  x */\n      dup1\n        /* \"Contracts/Cpamm.sol\":1073:1078  z = x */\n      swap2\n      pop\n        /* \"Contracts/Cpamm.sol\":1115:1116  2 */\n      0x02\n        /* \"Contracts/Cpamm.sol\":1110:1111  x */\n      dup2\n        /* \"Contracts/Cpamm.sol\":1106:1107  x */\n      dup3\n        /* \"Contracts/Cpamm.sol\":1102:1103  y */\n      dup6\n        /* \"Contracts/Cpamm.sol\":1102:1107  y / x */\n      tag_169\n      swap2\n      swap1\n      tag_67\n      jump\t// in\n    tag_169:\n        /* \"Contracts/Cpamm.sol\":1102:1111  y / x + x */\n      tag_170\n      swap2\n      swap1\n      tag_69\n      jump\t// in\n    tag_170:\n        /* \"Contracts/Cpamm.sol\":1101:1116  (y / x + x) / 2 */\n      tag_171\n      swap2\n      swap1\n      tag_67\n      jump\t// in\n    tag_171:\n        /* \"Contracts/Cpamm.sol\":1097:1116  x = (y / x + x) / 2 */\n      swap1\n      pop\n        /* \"Contracts/Cpamm.sol\":1040:1132  while (x < z) {... */\n      jump(tag_167)\n    tag_168:\n        /* \"Contracts/Cpamm.sol\":972:1143  {... */\n      pop\n        /* \"Contracts/Cpamm.sol\":961:1193  if (y > 3) {... */\n      jump(tag_172)\n    tag_164:\n        /* \"Contracts/Cpamm.sol\":1158:1159  0 */\n      0x00\n        /* \"Contracts/Cpamm.sol\":1153:1154  y */\n      dup3\n        /* \"Contracts/Cpamm.sol\":1153:1159  y != 0 */\n      eq\n        /* \"Contracts/Cpamm.sol\":1149:1193  if (y != 0) {... */\n      tag_173\n      jumpi\n        /* \"Contracts/Cpamm.sol\":1180:1181  1 */\n      0x01\n        /* \"Contracts/Cpamm.sol\":1176:1181  z = 1 */\n      swap1\n      pop\n        /* \"Contracts/Cpamm.sol\":1149:1193  if (y != 0) {... */\n    tag_173:\n        /* \"Contracts/Cpamm.sol\":961:1193  if (y > 3) {... */\n    tag_172:\n        /* \"Contracts/Cpamm.sol\":897:1200  function _sqrt(uint y) private pure returns (uint z) {... */\n      swap2\n      swap1\n      pop\n      jump\t// out\n        /* \"Contracts/Cpamm.sol\":1256:1354  function _min(uint x, uint y) private pure returns (uint) {... */\n    tag_144:\n        /* \"Contracts/Cpamm.sol\":1308:1312  uint */\n      0x00\n        /* \"Contracts/Cpamm.sol\":1337:1338  y */\n      dup2\n        /* \"Contracts/Cpamm.sol\":1332:1333  x */\n      dup4\n        /* \"Contracts/Cpamm.sol\":1332:1338  x <= y */\n      gt\n      iszero\n        /* \"Contracts/Cpamm.sol\":1332:1346  x <= y ? x : y */\n      tag_175\n      jumpi\n        /* \"Contracts/Cpamm.sol\":1345:1346  y */\n      dup2\n        /* \"Contracts/Cpamm.sol\":1332:1346  x <= y ? x : y */\n      jump(tag_176)\n    tag_175:\n        /* \"Contracts/Cpamm.sol\":1341:1342  x */\n      dup3\n        /* \"Contracts/Cpamm.sol\":1332:1346  x <= y ? x : y */\n    tag_176:\n        /* \"Contracts/Cpamm.sol\":1325:1346  return x <= y ? x : y */\n      swap1\n      pop\n        /* \"Contracts/Cpamm.sol\":1256:1354  function _min(uint x, uint y) private pure returns (uint) {... */\n      swap3\n      swap2\n      pop\n      pop\n      jump\t// out\n        /* \"Contracts/Cpamm.sol\":492:626  function mint (address _to, uint amount) private {... */\n    tag_149:\n        /* \"Contracts/Cpamm.sol\":567:573  amount */\n      dup1\n        /* \"Contracts/Cpamm.sol\":552:563  totalSupply */\n      0x02\n      0x00\n        /* \"Contracts/Cpamm.sol\":552:573  totalSupply += amount */\n      dup3\n      dup3\n      sload\n      tag_178\n      swap2\n      swap1\n      tag_69\n      jump\t// in\n    tag_178:\n      swap3\n      pop\n      pop\n      dup2\n      swap1\n      sstore\n      pop\n        /* \"Contracts/Cpamm.sol\":602:608  amount */\n      dup1\n        /* \"Contracts/Cpamm.sol\":584:593  balanceOf */\n      0x03\n        /* \"Contracts/Cpamm.sol\":584:598  balanceOf[_to] */\n      0x00\n        /* \"Contracts/Cpamm.sol\":594:597  _to */\n      dup5\n        /* \"Contracts/Cpamm.sol\":584:598  balanceOf[_to] */\n      0xffffffffffffffffffffffffffffffffffffffff\n      and\n      0xffffffffffffffffffffffffffffffffffffffff\n      and\n      dup2\n      mstore\n      0x20\n      add\n      swap1\n      dup2\n      mstore\n      0x20\n      add\n      0x00\n      keccak256\n      0x00\n        /* \"Contracts/Cpamm.sol\":584:608  balanceOf[_to] += amount */\n      dup3\n      dup3\n      sload\n      tag_179\n      swap2\n      swap1\n      tag_69\n      jump\t// in\n    tag_179:\n      swap3\n      pop\n      pop\n      dup2\n      swap1\n      sstore\n      pop\n        /* \"Contracts/Cpamm.sol\":492:626  function mint (address _to, uint amount) private {... */\n      pop\n      pop\n      jump\t// out\n        /* \"#utility.yul\":7:133   */\n    tag_180:\n        /* \"#utility.yul\":44:51   */\n      0x00\n        /* \"#utility.yul\":84:126   */\n      0xffffffffffffffffffffffffffffffffffffffff\n        /* \"#utility.yul\":77:82   */\n      dup3\n        /* \"#utility.yul\":73:127   */\n      and\n        /* \"#utility.yul\":62:127   */\n      swap1\n      pop\n        /* \"#utility.yul\":7:133   */\n      swap2\n      swap1\n      pop\n      jump\t// out\n        /* \"#utility.yul\":139:199   */\n    tag_181:\n        /* \"#utility.yul\":167:170   */\n      0x00\n        /* \"#utility.yul\":188:193   */\n      dup2\n        /* \"#utility.yul\":181:193   */\n      swap1\n      pop\n        /* \"#utility.yul\":139:199   */\n      swap2\n      swap1\n      pop\n      jump\t// out\n        /* \"#utility.yul\":205:347   */\n    tag_182:\n        /* \"#utility.yul\":255:264   */\n      0x00\n        /* \"#utility.yul\":288:341   */\n      tag_214\n        /* \"#utility.yul\":306:340   */\n      tag_215\n        /* \"#utility.yul\":315:339   */\n      tag_216\n        /* \"#utility.yul\":333:338   */\n      dup5\n        /* \"#utility.yul\":315:339   */\n      tag_180\n      jump\t// in\n    tag_216:\n        /* \"#utility.yul\":306:340   */\n      tag_181\n      jump\t// in\n    tag_215:\n        /* \"#utility.yul\":288:341   */\n      tag_180\n      jump\t// in\n    tag_214:\n        /* \"#utility.yul\":275:341   */\n      swap1\n      pop\n        /* \"#utility.yul\":205:347   */\n      swap2\n      swap1\n      pop\n      jump\t// out\n        /* \"#utility.yul\":353:479   */\n    tag_183:\n        /* \"#utility.yul\":403:412   */\n      0x00\n        /* \"#utility.yul\":436:473   */\n      tag_218\n        /* \"#utility.yul\":467:472   */\n      dup3\n        /* \"#utility.yul\":436:473   */\n      tag_182\n      jump\t// in\n    tag_218:\n        /* \"#utility.yul\":423:473   */\n      swap1\n      pop\n        /* \"#utility.yul\":353:479   */\n      swap2\n      swap1\n      pop\n      jump\t// out\n        /* \"#utility.yul\":485:625   */\n    tag_184:\n        /* \"#utility.yul\":549:558   */\n      0x00\n        /* \"#utility.yul\":582:619   */\n      tag_220\n        /* \"#utility.yul\":613:618   */\n      dup3\n        /* \"#utility.yul\":582:619   */\n      tag_183\n      jump\t// in\n    tag_220:\n        /* \"#utility.yul\":569:619   */\n      swap1\n      pop\n        /* \"#utility.yul\":485:625   */\n      swap2\n      swap1\n      pop\n      jump\t// out\n        /* \"#utility.yul\":631:790   */\n    tag_185:\n        /* \"#utility.yul\":732:783   */\n      tag_222\n        /* \"#utility.yul\":777:782   */\n      dup2\n        /* \"#utility.yul\":732:783   */\n      tag_184\n      jump\t// in\n    tag_222:\n        /* \"#utility.yul\":727:730   */\n      dup3\n        /* \"#utility.yul\":720:784   */\n      mstore\n        /* \"#utility.yul\":631:790   */\n      pop\n      pop\n      jump\t// out\n        /* \"#utility.yul\":796:1046   */\n    tag_16:\n        /* \"#utility.yul\":903:907   */\n      0x00\n        /* \"#utility.yul\":941:943   */\n      0x20\n        /* \"#utility.yul\":930:939   */\n      dup3\n        /* \"#utility.yul\":926:944   */\n      add\n        /* \"#utility.yul\":918:944   */\n      swap1\n      pop\n        /* \"#utility.yul\":954:1039   */\n      tag_224\n        /* \"#utility.yul\":1036:1037   */\n      0x00\n        /* \"#utility.yul\":1025:1034   */\n      dup4\n        /* \"#utility.yul\":1021:1038   */\n      add\n        /* \"#utility.yul\":1012:1018   */\n      dup5\n        /* \"#utility.yul\":954:1039   */\n      tag_185\n      jump\t// in\n    tag_224:\n        /* \"#utility.yul\":796:1046   */\n      swap3\n      swap2\n      pop\n      pop\n      jump\t// out\n        /* \"#utility.yul\":1052:1129   */\n    tag_186:\n        /* \"#utility.yul\":1089:1096   */\n      0x00\n        /* \"#utility.yul\":1118:1123   */\n      dup2\n        /* \"#utility.yul\":1107:1123   */\n      swap1\n      pop\n        /* \"#utility.yul\":1052:1129   */\n      swap2\n      swap1\n      pop\n      jump\t// out\n        /* \"#utility.yul\":1135:1253   */\n    tag_187:\n        /* \"#utility.yul\":1222:1246   */\n      tag_227\n        /* \"#utility.yul\":1240:1245   */\n      dup2\n        /* \"#utility.yul\":1222:1246   */\n      tag_186\n      jump\t// in\n    tag_227:\n        /* \"#utility.yul\":1217:1220   */\n      dup3\n        /* \"#utility.yul\":1210:1247   */\n      mstore\n        /* \"#utility.yul\":1135:1253   */\n      pop\n      pop\n      jump\t// out\n        /* \"#utility.yul\":1259:1481   */\n    tag_20:\n        /* \"#utility.yul\":1352:1356   */\n      0x00\n        /* \"#utility.yul\":1390:1392   */\n      0x20\n        /* \"#utility.yul\":1379:1388   */\n      dup3\n        /* \"#utility.yul\":1375:1393   */\n      add\n        /* \"#utility.yul\":1367:1393   */\n      swap1\n      pop\n        /* \"#utility.yul\":1403:1474   */\n      tag_229\n        /* \"#utility.yul\":1471:1472   */\n      0x00\n        /* \"#utility.yul\":1460:1469   */\n      dup4\n        /* \"#utility.yul\":1456:1473   */\n      add\n        /* \"#utility.yul\":1447:1453   */\n      dup5\n        /* \"#utility.yul\":1403:1474   */\n      tag_187\n      jump\t// in\n    tag_229:\n        /* \"#utility.yul\":1259:1481   */\n      swap3\n      swap2\n      pop\n      pop\n      jump\t// out\n        /* \"#utility.yul\":1568:1685   */\n    tag_189:\n        /* \"#utility.yul\":1677:1678   */\n      0x00\n        /* \"#utility.yul\":1674:1675   */\n      dup1\n        /* \"#utility.yul\":1667:1679   */\n      revert\n        /* \"#utility.yul\":1814:1910   */\n    tag_191:\n        /* \"#utility.yul\":1851:1858   */\n      0x00\n        /* \"#utility.yul\":1880:1904   */\n      tag_234\n        /* \"#utility.yul\":1898:1903   */\n      dup3\n        /* \"#utility.yul\":1880:1904   */\n      tag_180\n      jump\t// in\n    tag_234:\n        /* \"#utility.yul\":1869:1904   */\n      swap1\n      pop\n        /* \"#utility.yul\":1814:1910   */\n      swap2\n      swap1\n      pop\n      jump\t// out\n        /* \"#utility.yul\":1916:2038   */\n    tag_192:\n        /* \"#utility.yul\":1989:2013   */\n      tag_236\n        /* \"#utility.yul\":2007:2012   */\n      dup2\n        /* \"#utility.yul\":1989:2013   */\n      tag_191\n      jump\t// in\n    tag_236:\n        /* \"#utility.yul\":1982:1987   */\n      dup2\n        /* \"#utility.yul\":1979:2014   */\n      eq\n        /* \"#utility.yul\":1969:2032   */\n      tag_237\n      jumpi\n        /* \"#utility.yul\":2028:2029   */\n      0x00\n        /* \"#utility.yul\":2025:2026   */\n      dup1\n        /* \"#utility.yul\":2018:2030   */\n      revert\n        /* \"#utility.yul\":1969:2032   */\n    tag_237:\n        /* \"#utility.yul\":1916:2038   */\n      pop\n      jump\t// out\n        /* \"#utility.yul\":2044:2183   */\n    tag_193:\n        /* \"#utility.yul\":2090:2095   */\n      0x00\n        /* \"#utility.yul\":2128:2134   */\n      dup2\n        /* \"#utility.yul\":2115:2135   */\n      calldataload\n        /* \"#utility.yul\":2106:2135   */\n      swap1\n      pop\n        /* \"#utility.yul\":2144:2177   */\n      tag_239\n        /* \"#utility.yul\":2171:2176   */\n      dup2\n        /* \"#utility.yul\":2144:2177   */\n      tag_192\n      jump\t// in\n    tag_239:\n        /* \"#utility.yul\":2044:2183   */\n      swap3\n      swap2\n      pop\n      pop\n      jump\t// out\n        /* \"#utility.yul\":2189:2311   */\n    tag_194:\n        /* \"#utility.yul\":2262:2286   */\n      tag_241\n        /* \"#utility.yul\":2280:2285   */\n      dup2\n        /* \"#utility.yul\":2262:2286   */\n      tag_186\n      jump\t// in\n    tag_241:\n        /* \"#utility.yul\":2255:2260   */\n      dup2\n        /* \"#utility.yul\":2252:2287   */\n      eq\n        /* \"#utility.yul\":2242:2305   */\n      tag_242\n      jumpi\n        /* \"#utility.yul\":2301:2302   */\n      0x00\n        /* \"#utility.yul\":2298:2299   */\n      dup1\n        /* \"#utility.yul\":2291:2303   */\n      revert\n        /* \"#utility.yul\":2242:2305   */\n    tag_242:\n        /* \"#utility.yul\":2189:2311   */\n      pop\n      jump\t// out\n        /* \"#utility.yul\":2317:2456   */\n    tag_195:\n        /* \"#utility.yul\":2363:2368   */\n      0x00\n        /* \"#utility.yul\":2401:2407   */\n      dup2\n        /* \"#utility.yul\":2388:2408   */\n      calldataload\n        /* \"#utility.yul\":2379:2408   */\n      swap1\n      pop\n        /* \"#utility.yul\":2417:2450   */\n      tag_244\n        /* \"#utility.yul\":2444:2449   */\n      dup2\n        /* \"#utility.yul\":2417:2450   */\n      tag_194\n      jump\t// in\n    tag_244:\n        /* \"#utility.yul\":2317:2456   */\n      swap3\n      swap2\n      pop\n      pop\n      jump\t// out\n        /* \"#utility.yul\":2462:2936   */\n    tag_26:\n        /* \"#utility.yul\":2530:2536   */\n      0x00\n        /* \"#utility.yul\":2538:2544   */\n      dup1\n        /* \"#utility.yul\":2587:2589   */\n      0x40\n        /* \"#utility.yul\":2575:2584   */\n      dup4\n        /* \"#utility.yul\":2566:2573   */\n      dup6\n        /* \"#utility.yul\":2562:2585   */\n      sub\n        /* \"#utility.yul\":2558:2590   */\n      slt\n        /* \"#utility.yul\":2555:2674   */\n      iszero\n      tag_246\n      jumpi\n        /* \"#utility.yul\":2593:2672   */\n      tag_247\n      tag_189\n      jump\t// in\n    tag_247:\n        /* \"#utility.yul\":2555:2674   */\n    tag_246:\n        /* \"#utility.yul\":2713:2714   */\n      0x00\n        /* \"#utility.yul\":2738:2791   */\n      tag_248\n        /* \"#utility.yul\":2783:2790   */\n      dup6\n        /* \"#utility.yul\":2774:2780   */\n      dup3\n        /* \"#utility.yul\":2763:2772   */\n      dup7\n        /* \"#utility.yul\":2759:2781   */\n      add\n        /* \"#utility.yul\":2738:2791   */\n      tag_193\n      jump\t// in\n    tag_248:\n        /* \"#utility.yul\":2728:2791   */\n      swap3\n      pop\n        /* \"#utility.yul\":2684:2801   */\n      pop\n        /* \"#utility.yul\":2840:2842   */\n      0x20\n        /* \"#utility.yul\":2866:2919   */\n      tag_249\n        /* \"#utility.yul\":2911:2918   */\n      dup6\n        /* \"#utility.yul\":2902:2908   */\n      dup3\n        /* \"#utility.yul\":2891:2900   */\n      dup7\n        /* \"#utility.yul\":2887:2909   */\n      add\n        /* \"#utility.yul\":2866:2919   */\n      tag_195\n      jump\t// in\n    tag_249:\n        /* \"#utility.yul\":2856:2919   */\n      swap2\n      pop\n        /* \"#utility.yul\":2811:2929   */\n      pop\n        /* \"#utility.yul\":2462:2936   */\n      swap3\n      pop\n      swap3\n      swap1\n      pop\n      jump\t// out\n        /* \"#utility.yul\":2942:3271   */\n    tag_34:\n        /* \"#utility.yul\":3001:3007   */\n      0x00\n        /* \"#utility.yul\":3050:3052   */\n      0x20\n        /* \"#utility.yul\":3038:3047   */\n      dup3\n        /* \"#utility.yul\":3029:3036   */\n      dup5\n        /* \"#utility.yul\":3025:3048   */\n      sub\n        /* \"#utility.yul\":3021:3053   */\n      slt\n        /* \"#utility.yul\":3018:3137   */\n      iszero\n      tag_251\n      jumpi\n        /* \"#utility.yul\":3056:3135   */\n      tag_252\n      tag_189\n      jump\t// in\n    tag_252:\n        /* \"#utility.yul\":3018:3137   */\n    tag_251:\n        /* \"#utility.yul\":3176:3177   */\n      0x00\n        /* \"#utility.yul\":3201:3254   */\n      tag_253\n        /* \"#utility.yul\":3246:3253   */\n      dup5\n        /* \"#utility.yul\":3237:3243   */\n      dup3\n        /* \"#utility.yul\":3226:3235   */\n      dup6\n        /* \"#utility.yul\":3222:3244   */\n      add\n        /* \"#utility.yul\":3201:3254   */\n      tag_193\n      jump\t// in\n    tag_253:\n        /* \"#utility.yul\":3191:3254   */\n      swap2\n      pop\n        /* \"#utility.yul\":3147:3264   */\n      pop\n        /* \"#utility.yul\":2942:3271   */\n      swap3\n      swap2\n      pop\n      pop\n      jump\t// out\n        /* \"#utility.yul\":3277:3606   */\n    tag_39:\n        /* \"#utility.yul\":3336:3342   */\n      0x00\n        /* \"#utility.yul\":3385:3387   */\n      0x20\n        /* \"#utility.yul\":3373:3382   */\n      dup3\n        /* \"#utility.yul\":3364:3371   */\n      dup5\n        /* \"#utility.yul\":3360:3383   */\n      sub\n        /* \"#utility.yul\":3356:3388   */\n      slt\n        /* \"#utility.yul\":3353:3472   */\n      iszero\n      tag_255\n      jumpi\n        /* \"#utility.yul\":3391:3470   */\n      tag_256\n      tag_189\n      jump\t// in\n    tag_256:\n        /* \"#utility.yul\":3353:3472   */\n    tag_255:\n        /* \"#utility.yul\":3511:3512   */\n      0x00\n        /* \"#utility.yul\":3536:3589   */\n      tag_257\n        /* \"#utility.yul\":3581:3588   */\n      dup5\n        /* \"#utility.yul\":3572:3578   */\n      dup3\n        /* \"#utility.yul\":3561:3570   */\n      dup6\n        /* \"#utility.yul\":3557:3579   */\n      add\n        /* \"#utility.yul\":3536:3589   */\n      tag_195\n      jump\t// in\n    tag_257:\n        /* \"#utility.yul\":3526:3589   */\n      swap2\n      pop\n        /* \"#utility.yul\":3482:3599   */\n      pop\n        /* \"#utility.yul\":3277:3606   */\n      swap3\n      swap2\n      pop\n      pop\n      jump\t// out\n        /* \"#utility.yul\":3612:3944   */\n    tag_42:\n        /* \"#utility.yul\":3733:3737   */\n      0x00\n        /* \"#utility.yul\":3771:3773   */\n      0x40\n        /* \"#utility.yul\":3760:3769   */\n      dup3\n        /* \"#utility.yul\":3756:3774   */\n      add\n        /* \"#utility.yul\":3748:3774   */\n      swap1\n      pop\n        /* \"#utility.yul\":3784:3855   */\n      tag_259\n        /* \"#utility.yul\":3852:3853   */\n      0x00\n        /* \"#utility.yul\":3841:3850   */\n      dup4\n        /* \"#utility.yul\":3837:3854   */\n      add\n        /* \"#utility.yul\":3828:3834   */\n      dup6\n        /* \"#utility.yul\":3784:3855   */\n      tag_187\n      jump\t// in\n    tag_259:\n        /* \"#utility.yul\":3865:3937   */\n      tag_260\n        /* \"#utility.yul\":3933:3935   */\n      0x20\n        /* \"#utility.yul\":3922:3931   */\n      dup4\n        /* \"#utility.yul\":3918:3936   */\n      add\n        /* \"#utility.yul\":3909:3915   */\n      dup5\n        /* \"#utility.yul\":3865:3937   */\n      tag_187\n      jump\t// in\n    tag_260:\n        /* \"#utility.yul\":3612:3944   */\n      swap4\n      swap3\n      pop\n      pop\n      pop\n      jump\t// out\n        /* \"#utility.yul\":3950:4424   */\n    tag_45:\n        /* \"#utility.yul\":4018:4024   */\n      0x00\n        /* \"#utility.yul\":4026:4032   */\n      dup1\n        /* \"#utility.yul\":4075:4077   */\n      0x40\n        /* \"#utility.yul\":4063:4072   */\n      dup4\n        /* \"#utility.yul\":4054:4061   */\n      dup6\n        /* \"#utility.yul\":4050:4073   */\n      sub\n        /* \"#utility.yul\":4046:4078   */\n      slt\n        /* \"#utility.yul\":4043:4162   */\n      iszero\n      tag_262\n      jumpi\n        /* \"#utility.yul\":4081:4160   */\n      tag_263\n      tag_189\n      jump\t// in\n    tag_263:\n        /* \"#utility.yul\":4043:4162   */\n    tag_262:\n        /* \"#utility.yul\":4201:4202   */\n      0x00\n        /* \"#utility.yul\":4226:4279   */\n      tag_264\n        /* \"#utility.yul\":4271:4278   */\n      dup6\n        /* \"#utility.yul\":4262:4268   */\n      dup3\n        /* \"#utility.yul\":4251:4260   */\n      dup7\n        /* \"#utility.yul\":4247:4269   */\n      add\n        /* \"#utility.yul\":4226:4279   */\n      tag_195\n      jump\t// in\n    tag_264:\n        /* \"#utility.yul\":4216:4279   */\n      swap3\n      pop\n        /* \"#utility.yul\":4172:4289   */\n      pop\n        /* \"#utility.yul\":4328:4330   */\n      0x20\n        /* \"#utility.yul\":4354:4407   */\n      tag_265\n        /* \"#utility.yul\":4399:4406   */\n      dup6\n        /* \"#utility.yul\":4390:4396   */\n      dup3\n        /* \"#utility.yul\":4379:4388   */\n      dup7\n        /* \"#utility.yul\":4375:4397   */\n      add\n        /* \"#utility.yul\":4354:4407   */\n      tag_195\n      jump\t// in\n    tag_265:\n        /* \"#utility.yul\":4344:4407   */\n      swap2\n      pop\n        /* \"#utility.yul\":4299:4417   */\n      pop\n        /* \"#utility.yul\":3950:4424   */\n      swap3\n      pop\n      swap3\n      swap1\n      pop\n      jump\t// out\n        /* \"#utility.yul\":4430:4599   */\n    tag_196:\n        /* \"#utility.yul\":4514:4525   */\n      0x00\n        /* \"#utility.yul\":4548:4554   */\n      dup3\n        /* \"#utility.yul\":4543:4546   */\n      dup3\n        /* \"#utility.yul\":4536:4555   */\n      mstore\n        /* \"#utility.yul\":4588:4592   */\n      0x20\n        /* \"#utility.yul\":4583:4586   */\n      dup3\n        /* \"#utility.yul\":4579:4593   */\n      add\n        /* \"#utility.yul\":4564:4593   */\n      swap1\n      pop\n        /* \"#utility.yul\":4430:4599   */\n      swap3\n      swap2\n      pop\n      pop\n      jump\t// out\n        /* \"#utility.yul\":4605:4768   */\n    tag_197:\n        /* \"#utility.yul\":4745:4760   */\n      0x496e76616c696420746f6b656e00000000000000000000000000000000000000\n        /* \"#utility.yul\":4741:4742   */\n      0x00\n        /* \"#utility.yul\":4733:4739   */\n      dup3\n        /* \"#utility.yul\":4729:4743   */\n      add\n        /* \"#utility.yul\":4722:4761   */\n      mstore\n        /* \"#utility.yul\":4605:4768   */\n      pop\n      jump\t// out\n        /* \"#utility.yul\":4774:5140   */\n    tag_198:\n        /* \"#utility.yul\":4916:4919   */\n      0x00\n        /* \"#utility.yul\":4937:5004   */\n      tag_269\n        /* \"#utility.yul\":5001:5003   */\n      0x0d\n        /* \"#utility.yul\":4996:4999   */\n      dup4\n        /* \"#utility.yul\":4937:5004   */\n      tag_196\n      jump\t// in\n    tag_269:\n        /* \"#utility.yul\":4930:5004   */\n      swap2\n      pop\n        /* \"#utility.yul\":5013:5106   */\n      tag_270\n        /* \"#utility.yul\":5102:5105   */\n      dup3\n        /* \"#utility.yul\":5013:5106   */\n      tag_197\n      jump\t// in\n    tag_270:\n        /* \"#utility.yul\":5131:5133   */\n      0x20\n        /* \"#utility.yul\":5126:5129   */\n      dup3\n        /* \"#utility.yul\":5122:5134   */\n      add\n        /* \"#utility.yul\":5115:5134   */\n      swap1\n      pop\n        /* \"#utility.yul\":4774:5140   */\n      swap2\n      swap1\n      pop\n      jump\t// out\n        /* \"#utility.yul\":5146:5565   */\n    tag_55:\n        /* \"#utility.yul\":5312:5316   */\n      0x00\n        /* \"#utility.yul\":5350:5352   */\n      0x20\n        /* \"#utility.yul\":5339:5348   */\n      dup3\n        /* \"#utility.yul\":5335:5353   */\n      add\n        /* \"#utility.yul\":5327:5353   */\n      swap1\n      pop\n        /* \"#utility.yul\":5399:5408   */\n      dup2\n        /* \"#utility.yul\":5393:5397   */\n      dup2\n        /* \"#utility.yul\":5389:5409   */\n      sub\n        /* \"#utility.yul\":5385:5386   */\n      0x00\n        /* \"#utility.yul\":5374:5383   */\n      dup4\n        /* \"#utility.yul\":5370:5387   */\n      add\n        /* \"#utility.yul\":5363:5410   */\n      mstore\n        /* \"#utility.yul\":5427:5558   */\n      tag_272\n        /* \"#utility.yul\":5553:5557   */\n      dup2\n        /* \"#utility.yul\":5427:5558   */\n      tag_198\n      jump\t// in\n    tag_272:\n        /* \"#utility.yul\":5419:5558   */\n      swap1\n      pop\n        /* \"#utility.yul\":5146:5565   */\n      swap2\n      swap1\n      pop\n      jump\t// out\n        /* \"#utility.yul\":5571:5689   */\n    tag_199:\n        /* \"#utility.yul\":5658:5682   */\n      tag_274\n        /* \"#utility.yul\":5676:5681   */\n      dup2\n        /* \"#utility.yul\":5658:5682   */\n      tag_191\n      jump\t// in\n    tag_274:\n        /* \"#utility.yul\":5653:5656   */\n      dup3\n        /* \"#utility.yul\":5646:5683   */\n      mstore\n        /* \"#utility.yul\":5571:5689   */\n      pop\n      pop\n      jump\t// out\n        /* \"#utility.yul\":5695:6137   */\n    tag_59:\n        /* \"#utility.yul\":5844:5848   */\n      0x00\n        /* \"#utility.yul\":5882:5884   */\n      0x60\n        /* \"#utility.yul\":5871:5880   */\n      dup3\n        /* \"#utility.yul\":5867:5885   */\n      add\n        /* \"#utility.yul\":5859:5885   */\n      swap1\n      pop\n        /* \"#utility.yul\":5895:5966   */\n      tag_276\n        /* \"#utility.yul\":5963:5964   */\n      0x00\n        /* \"#utility.yul\":5952:5961   */\n      dup4\n        /* \"#utility.yul\":5948:5965   */\n      add\n        /* \"#utility.yul\":5939:5945   */\n      dup7\n        /* \"#utility.yul\":5895:5966   */\n      tag_199\n      jump\t// in\n    tag_276:\n        /* \"#utility.yul\":5976:6048   */\n      tag_277\n        /* \"#utility.yul\":6044:6046   */\n      0x20\n        /* \"#utility.yul\":6033:6042   */\n      dup4\n        /* \"#utility.yul\":6029:6047   */\n      add\n        /* \"#utility.yul\":6020:6026   */\n      dup6\n        /* \"#utility.yul\":5976:6048   */\n      tag_199\n      jump\t// in\n    tag_277:\n        /* \"#utility.yul\":6058:6130   */\n      tag_278\n        /* \"#utility.yul\":6126:6128   */\n      0x40\n        /* \"#utility.yul\":6115:6124   */\n      dup4\n        /* \"#utility.yul\":6111:6129   */\n      add\n        /* \"#utility.yul\":6102:6108   */\n      dup5\n        /* \"#utility.yul\":6058:6130   */\n      tag_187\n      jump\t// in\n    tag_278:\n        /* \"#utility.yul\":5695:6137   */\n      swap5\n      swap4\n      pop\n      pop\n      pop\n      pop\n      jump\t// out\n        /* \"#utility.yul\":6143:6233   */\n    tag_200:\n        /* \"#utility.yul\":6177:6184   */\n      0x00\n        /* \"#utility.yul\":6220:6225   */\n      dup2\n        /* \"#utility.yul\":6213:6226   */\n      iszero\n        /* \"#utility.yul\":6206:6227   */\n      iszero\n        /* \"#utility.yul\":6195:6227   */\n      swap1\n      pop\n        /* \"#utility.yul\":6143:6233   */\n      swap2\n      swap1\n      pop\n      jump\t// out\n        /* \"#utility.yul\":6239:6355   */\n    tag_201:\n        /* \"#utility.yul\":6309:6330   */\n      tag_281\n        /* \"#utility.yul\":6324:6329   */\n      dup2\n        /* \"#utility.yul\":6309:6330   */\n      tag_200\n      jump\t// in\n    tag_281:\n        /* \"#utility.yul\":6302:6307   */\n      dup2\n        /* \"#utility.yul\":6299:6331   */\n      eq\n        /* \"#utility.yul\":6289:6349   */\n      tag_282\n      jumpi\n        /* \"#utility.yul\":6345:6346   */\n      0x00\n        /* \"#utility.yul\":6342:6343   */\n      dup1\n        /* \"#utility.yul\":6335:6347   */\n      revert\n        /* \"#utility.yul\":6289:6349   */\n    tag_282:\n        /* \"#utility.yul\":6239:6355   */\n      pop\n      jump\t// out\n        /* \"#utility.yul\":6361:6498   */\n    tag_202:\n        /* \"#utility.yul\":6415:6420   */\n      0x00\n        /* \"#utility.yul\":6446:6452   */\n      dup2\n        /* \"#utility.yul\":6440:6453   */\n      mload\n        /* \"#utility.yul\":6431:6453   */\n      swap1\n      pop\n        /* \"#utility.yul\":6462:6492   */\n      tag_284\n        /* \"#utility.yul\":6486:6491   */\n      dup2\n        /* \"#utility.yul\":6462:6492   */\n      tag_201\n      jump\t// in\n    tag_284:\n        /* \"#utility.yul\":6361:6498   */\n      swap3\n      swap2\n      pop\n      pop\n      jump\t// out\n        /* \"#utility.yul\":6504:6849   */\n    tag_63:\n        /* \"#utility.yul\":6571:6577   */\n      0x00\n        /* \"#utility.yul\":6620:6622   */\n      0x20\n        /* \"#utility.yul\":6608:6617   */\n      dup3\n        /* \"#utility.yul\":6599:6606   */\n      dup5\n        /* \"#utility.yul\":6595:6618   */\n      sub\n        /* \"#utility.yul\":6591:6623   */\n      slt\n        /* \"#utility.yul\":6588:6707   */\n      iszero\n      tag_286\n      jumpi\n        /* \"#utility.yul\":6626:6705   */\n      tag_287\n      tag_189\n      jump\t// in\n    tag_287:\n        /* \"#utility.yul\":6588:6707   */\n    tag_286:\n        /* \"#utility.yul\":6746:6747   */\n      0x00\n        /* \"#utility.yul\":6771:6832   */\n      tag_288\n        /* \"#utility.yul\":6824:6831   */\n      dup5\n        /* \"#utility.yul\":6815:6821   */\n      dup3\n        /* \"#utility.yul\":6804:6813   */\n      dup6\n        /* \"#utility.yul\":6800:6822   */\n      add\n        /* \"#utility.yul\":6771:6832   */\n      tag_202\n      jump\t// in\n    tag_288:\n        /* \"#utility.yul\":6761:6832   */\n      swap2\n      pop\n        /* \"#utility.yul\":6717:6842   */\n      pop\n        /* \"#utility.yul\":6504:6849   */\n      swap3\n      swap2\n      pop\n      pop\n      jump\t// out\n        /* \"#utility.yul\":6855:7035   */\n    tag_203:\n        /* \"#utility.yul\":6903:6980   */\n      0x4e487b7100000000000000000000000000000000000000000000000000000000\n        /* \"#utility.yul\":6900:6901   */\n      0x00\n        /* \"#utility.yul\":6893:6981   */\n      mstore\n        /* \"#utility.yul\":7000:7004   */\n      0x11\n        /* \"#utility.yul\":6997:6998   */\n      0x04\n        /* \"#utility.yul\":6990:7005   */\n      mstore\n        /* \"#utility.yul\":7024:7028   */\n      0x24\n        /* \"#utility.yul\":7021:7022   */\n      0x00\n        /* \"#utility.yul\":7014:7029   */\n      revert\n        /* \"#utility.yul\":7041:7451   */\n    tag_65:\n        /* \"#utility.yul\":7081:7088   */\n      0x00\n        /* \"#utility.yul\":7104:7124   */\n      tag_291\n        /* \"#utility.yul\":7122:7123   */\n      dup3\n        /* \"#utility.yul\":7104:7124   */\n      tag_186\n      jump\t// in\n    tag_291:\n        /* \"#utility.yul\":7099:7124   */\n      swap2\n      pop\n        /* \"#utility.yul\":7138:7158   */\n      tag_292\n        /* \"#utility.yul\":7156:7157   */\n      dup4\n        /* \"#utility.yul\":7138:7158   */\n      tag_186\n      jump\t// in\n    tag_292:\n        /* \"#utility.yul\":7133:7158   */\n      swap3\n      pop\n        /* \"#utility.yul\":7193:7194   */\n      dup3\n        /* \"#utility.yul\":7190:7191   */\n      dup3\n        /* \"#utility.yul\":7186:7195   */\n      mul\n        /* \"#utility.yul\":7215:7245   */\n      tag_293\n        /* \"#utility.yul\":7233:7244   */\n      dup2\n        /* \"#utility.yul\":7215:7245   */\n      tag_186\n      jump\t// in\n    tag_293:\n        /* \"#utility.yul\":7204:7245   */\n      swap2\n      pop\n        /* \"#utility.yul\":7394:7395   */\n      dup3\n        /* \"#utility.yul\":7385:7392   */\n      dup3\n        /* \"#utility.yul\":7381:7396   */\n      div\n        /* \"#utility.yul\":7378:7379   */\n      dup5\n        /* \"#utility.yul\":7375:7397   */\n      eq\n        /* \"#utility.yul\":7355:7356   */\n      dup4\n        /* \"#utility.yul\":7348:7357   */\n      iszero\n        /* \"#utility.yul\":7328:7411   */\n      or\n        /* \"#utility.yul\":7305:7444   */\n      tag_294\n      jumpi\n        /* \"#utility.yul\":7424:7442   */\n      tag_295\n      tag_203\n      jump\t// in\n    tag_295:\n        /* \"#utility.yul\":7305:7444   */\n    tag_294:\n        /* \"#utility.yul\":7089:7451   */\n      pop\n        /* \"#utility.yul\":7041:7451   */\n      swap3\n      swap2\n      pop\n      pop\n      jump\t// out\n        /* \"#utility.yul\":7457:7637   */\n    tag_204:\n        /* \"#utility.yul\":7505:7582   */\n      0x4e487b7100000000000000000000000000000000000000000000000000000000\n        /* \"#utility.yul\":7502:7503   */\n      0x00\n        /* \"#utility.yul\":7495:7583   */\n      mstore\n        /* \"#utility.yul\":7602:7606   */\n      0x12\n        /* \"#utility.yul\":7599:7600   */\n      0x04\n        /* \"#utility.yul\":7592:7607   */\n      mstore\n        /* \"#utility.yul\":7626:7630   */\n      0x24\n        /* \"#utility.yul\":7623:7624   */\n      0x00\n        /* \"#utility.yul\":7616:7631   */\n      revert\n        /* \"#utility.yul\":7643:7828   */\n    tag_67:\n        /* \"#utility.yul\":7683:7684   */\n      0x00\n        /* \"#utility.yul\":7700:7720   */\n      tag_298\n        /* \"#utility.yul\":7718:7719   */\n      dup3\n        /* \"#utility.yul\":7700:7720   */\n      tag_186\n      jump\t// in\n    tag_298:\n        /* \"#utility.yul\":7695:7720   */\n      swap2\n      pop\n        /* \"#utility.yul\":7734:7754   */\n      tag_299\n        /* \"#utility.yul\":7752:7753   */\n      dup4\n        /* \"#utility.yul\":7734:7754   */\n      tag_186\n      jump\t// in\n    tag_299:\n        /* \"#utility.yul\":7729:7754   */\n      swap3\n      pop\n        /* \"#utility.yul\":7773:7774   */\n      dup3\n        /* \"#utility.yul\":7763:7798   */\n      tag_300\n      jumpi\n        /* \"#utility.yul\":7778:7796   */\n      tag_301\n      tag_204\n      jump\t// in\n    tag_301:\n        /* \"#utility.yul\":7763:7798   */\n    tag_300:\n        /* \"#utility.yul\":7820:7821   */\n      dup3\n        /* \"#utility.yul\":7817:7818   */\n      dup3\n        /* \"#utility.yul\":7813:7822   */\n      div\n        /* \"#utility.yul\":7808:7822   */\n      swap1\n      pop\n        /* \"#utility.yul\":7643:7828   */\n      swap3\n      swap2\n      pop\n      pop\n      jump\t// out\n        /* \"#utility.yul\":7834:8025   */\n    tag_69:\n        /* \"#utility.yul\":7874:7877   */\n      0x00\n        /* \"#utility.yul\":7893:7913   */\n      tag_303\n        /* \"#utility.yul\":7911:7912   */\n      dup3\n        /* \"#utility.yul\":7893:7913   */\n      tag_186\n      jump\t// in\n    tag_303:\n        /* \"#utility.yul\":7888:7913   */\n      swap2\n      pop\n        /* \"#utility.yul\":7927:7947   */\n      tag_304\n        /* \"#utility.yul\":7945:7946   */\n      dup4\n        /* \"#utility.yul\":7927:7947   */\n      tag_186\n      jump\t// in\n    tag_304:\n        /* \"#utility.yul\":7922:7947   */\n      swap3\n      pop\n        /* \"#utility.yul\":7970:7971   */\n      dup3\n        /* \"#utility.yul\":7967:7968   */\n      dup3\n        /* \"#utility.yul\":7963:7972   */\n      add\n        /* \"#utility.yul\":7956:7972   */\n      swap1\n      pop\n        /* \"#utility.yul\":7991:7994   */\n      dup1\n        /* \"#utility.yul\":7988:7989   */\n      dup3\n        /* \"#utility.yul\":7985:7995   */\n      gt\n        /* \"#utility.yul\":7982:8018   */\n      iszero\n      tag_305\n      jumpi\n        /* \"#utility.yul\":7998:8016   */\n      tag_306\n      tag_203\n      jump\t// in\n    tag_306:\n        /* \"#utility.yul\":7982:8018   */\n    tag_305:\n        /* \"#utility.yul\":7834:8025   */\n      swap3\n      swap2\n      pop\n      pop\n      jump\t// out\n        /* \"#utility.yul\":8031:8363   */\n    tag_73:\n        /* \"#utility.yul\":8152:8156   */\n      0x00\n        /* \"#utility.yul\":8190:8192   */\n      0x40\n        /* \"#utility.yul\":8179:8188   */\n      dup3\n        /* \"#utility.yul\":8175:8193   */\n      add\n        /* \"#utility.yul\":8167:8193   */\n      swap1\n      pop\n        /* \"#utility.yul\":8203:8274   */\n      tag_308\n        /* \"#utility.yul\":8271:8272   */\n      0x00\n        /* \"#utility.yul\":8260:8269   */\n      dup4\n        /* \"#utility.yul\":8256:8273   */\n      add\n        /* \"#utility.yul\":8247:8253   */\n      dup6\n        /* \"#utility.yul\":8203:8274   */\n      tag_199\n      jump\t// in\n    tag_308:\n        /* \"#utility.yul\":8284:8356   */\n      tag_309\n        /* \"#utility.yul\":8352:8354   */\n      0x20\n        /* \"#utility.yul\":8341:8350   */\n      dup4\n        /* \"#utility.yul\":8337:8355   */\n      add\n        /* \"#utility.yul\":8328:8334   */\n      dup5\n        /* \"#utility.yul\":8284:8356   */\n      tag_187\n      jump\t// in\n    tag_309:\n        /* \"#utility.yul\":8031:8363   */\n      swap4\n      swap3\n      pop\n      pop\n      pop\n      jump\t// out\n        /* \"#utility.yul\":8369:8591   */\n    tag_79:\n        /* \"#utility.yul\":8462:8466   */\n      0x00\n        /* \"#utility.yul\":8500:8502   */\n      0x20\n        /* \"#utility.yul\":8489:8498   */\n      dup3\n        /* \"#utility.yul\":8485:8503   */\n      add\n        /* \"#utility.yul\":8477:8503   */\n      swap1\n      pop\n        /* \"#utility.yul\":8513:8584   */\n      tag_311\n        /* \"#utility.yul\":8581:8582   */\n      0x00\n        /* \"#utility.yul\":8570:8579   */\n      dup4\n        /* \"#utility.yul\":8566:8583   */\n      add\n        /* \"#utility.yul\":8557:8563   */\n      dup5\n        /* \"#utility.yul\":8513:8584   */\n      tag_199\n      jump\t// in\n    tag_311:\n        /* \"#utility.yul\":8369:8591   */\n      swap3\n      swap2\n      pop\n      pop\n      jump\t// out\n        /* \"#utility.yul\":8597:8740   */\n    tag_205:\n        /* \"#utility.yul\":8654:8659   */\n      0x00\n        /* \"#utility.yul\":8685:8691   */\n      dup2\n        /* \"#utility.yul\":8679:8692   */\n      mload\n        /* \"#utility.yul\":8670:8692   */\n      swap1\n      pop\n        /* \"#utility.yul\":8701:8734   */\n      tag_313\n        /* \"#utility.yul\":8728:8733   */\n      dup2\n        /* \"#utility.yul\":8701:8734   */\n      tag_194\n      jump\t// in\n    tag_313:\n        /* \"#utility.yul\":8597:8740   */\n      swap3\n      swap2\n      pop\n      pop\n      jump\t// out\n        /* \"#utility.yul\":8746:9097   */\n    tag_83:\n        /* \"#utility.yul\":8816:8822   */\n      0x00\n        /* \"#utility.yul\":8865:8867   */\n      0x20\n        /* \"#utility.yul\":8853:8862   */\n      dup3\n        /* \"#utility.yul\":8844:8851   */\n      dup5\n        /* \"#utility.yul\":8840:8863   */\n      sub\n        /* \"#utility.yul\":8836:8868   */\n      slt\n        /* \"#utility.yul\":8833:8952   */\n      iszero\n      tag_315\n      jumpi\n        /* \"#utility.yul\":8871:8950   */\n      tag_316\n      tag_189\n      jump\t// in\n    tag_316:\n        /* \"#utility.yul\":8833:8952   */\n    tag_315:\n        /* \"#utility.yul\":8991:8992   */\n      0x00\n        /* \"#utility.yul\":9016:9080   */\n      tag_317\n        /* \"#utility.yul\":9072:9079   */\n      dup5\n        /* \"#utility.yul\":9063:9069   */\n      dup3\n        /* \"#utility.yul\":9052:9061   */\n      dup6\n        /* \"#utility.yul\":9048:9070   */\n      add\n        /* \"#utility.yul\":9016:9080   */\n      tag_205\n      jump\t// in\n    tag_317:\n        /* \"#utility.yul\":9006:9080   */\n      swap2\n      pop\n        /* \"#utility.yul\":8962:9090   */\n      pop\n        /* \"#utility.yul\":8746:9097   */\n      swap3\n      swap2\n      pop\n      pop\n      jump\t// out\n        /* \"#utility.yul\":9103:9275   */\n    tag_206:\n        /* \"#utility.yul\":9243:9267   */\n      0x616d6f756e7430206f7220616d6f756e7431203d203000000000000000000000\n        /* \"#utility.yul\":9239:9240   */\n      0x00\n        /* \"#utility.yul\":9231:9237   */\n      dup3\n        /* \"#utility.yul\":9227:9241   */\n      add\n        /* \"#utility.yul\":9220:9268   */\n      mstore\n        /* \"#utility.yul\":9103:9275   */\n      pop\n      jump\t// out\n        /* \"#utility.yul\":9281:9647   */\n    tag_207:\n        /* \"#utility.yul\":9423:9426   */\n      0x00\n        /* \"#utility.yul\":9444:9511   */\n      tag_320\n        /* \"#utility.yul\":9508:9510   */\n      0x16\n        /* \"#utility.yul\":9503:9506   */\n      dup4\n        /* \"#utility.yul\":9444:9511   */\n      tag_196\n      jump\t// in\n    tag_320:\n        /* \"#utility.yul\":9437:9511   */\n      swap2\n      pop\n        /* \"#utility.yul\":9520:9613   */\n      tag_321\n        /* \"#utility.yul\":9609:9612   */\n      dup3\n        /* \"#utility.yul\":9520:9613   */\n      tag_206\n      jump\t// in\n    tag_321:\n        /* \"#utility.yul\":9638:9640   */\n      0x20\n        /* \"#utility.yul\":9633:9636   */\n      dup3\n        /* \"#utility.yul\":9629:9641   */\n      add\n        /* \"#utility.yul\":9622:9641   */\n      swap1\n      pop\n        /* \"#utility.yul\":9281:9647   */\n      swap2\n      swap1\n      pop\n      jump\t// out\n        /* \"#utility.yul\":9653:10072   */\n    tag_105:\n        /* \"#utility.yul\":9819:9823   */\n      0x00\n        /* \"#utility.yul\":9857:9859   */\n      0x20\n        /* \"#utility.yul\":9846:9855   */\n      dup3\n        /* \"#utility.yul\":9842:9860   */\n      add\n        /* \"#utility.yul\":9834:9860   */\n      swap1\n      pop\n        /* \"#utility.yul\":9906:9915   */\n      dup2\n        /* \"#utility.yul\":9900:9904   */\n      dup2\n        /* \"#utility.yul\":9896:9916   */\n      sub\n        /* \"#utility.yul\":9892:9893   */\n      0x00\n        /* \"#utility.yul\":9881:9890   */\n      dup4\n        /* \"#utility.yul\":9877:9894   */\n      add\n        /* \"#utility.yul\":9870:9917   */\n      mstore\n        /* \"#utility.yul\":9934:10065   */\n      tag_323\n        /* \"#utility.yul\":10060:10064   */\n      dup2\n        /* \"#utility.yul\":9934:10065   */\n      tag_207\n      jump\t// in\n    tag_323:\n        /* \"#utility.yul\":9926:10065   */\n      swap1\n      pop\n        /* \"#utility.yul\":9653:10072   */\n      swap2\n      swap1\n      pop\n      jump\t// out\n        /* \"#utility.yul\":10078:10272   */\n    tag_110:\n        /* \"#utility.yul\":10118:10122   */\n      0x00\n        /* \"#utility.yul\":10138:10158   */\n      tag_325\n        /* \"#utility.yul\":10156:10157   */\n      dup3\n        /* \"#utility.yul\":10138:10158   */\n      tag_186\n      jump\t// in\n    tag_325:\n        /* \"#utility.yul\":10133:10158   */\n      swap2\n      pop\n        /* \"#utility.yul\":10172:10192   */\n      tag_326\n        /* \"#utility.yul\":10190:10191   */\n      dup4\n        /* \"#utility.yul\":10172:10192   */\n      tag_186\n      jump\t// in\n    tag_326:\n        /* \"#utility.yul\":10167:10192   */\n      swap3\n      pop\n        /* \"#utility.yul\":10216:10217   */\n      dup3\n        /* \"#utility.yul\":10213:10214   */\n      dup3\n        /* \"#utility.yul\":10209:10218   */\n      sub\n        /* \"#utility.yul\":10201:10218   */\n      swap1\n      pop\n        /* \"#utility.yul\":10240:10241   */\n      dup2\n        /* \"#utility.yul\":10234:10238   */\n      dup2\n        /* \"#utility.yul\":10231:10242   */\n      gt\n        /* \"#utility.yul\":10228:10265   */\n      iszero\n      tag_327\n      jumpi\n        /* \"#utility.yul\":10245:10263   */\n      tag_328\n      tag_203\n      jump\t// in\n    tag_328:\n        /* \"#utility.yul\":10228:10265   */\n    tag_327:\n        /* \"#utility.yul\":10078:10272   */\n      swap3\n      swap2\n      pop\n      pop\n      jump\t// out\n        /* \"#utility.yul\":10278:10439   */\n    tag_208:\n        /* \"#utility.yul\":10418:10431   */\n      0x73686172657320203d2030000000000000000000000000000000000000000000\n        /* \"#utility.yul\":10414:10415   */\n      0x00\n        /* \"#utility.yul\":10406:10412   */\n      dup3\n        /* \"#utility.yul\":10402:10416   */\n      add\n        /* \"#utility.yul\":10395:10432   */\n      mstore\n        /* \"#utility.yul\":10278:10439   */\n      pop\n      jump\t// out\n        /* \"#utility.yul\":10445:10811   */\n    tag_209:\n        /* \"#utility.yul\":10587:10590   */\n      0x00\n        /* \"#utility.yul\":10608:10675   */\n      tag_331\n        /* \"#utility.yul\":10672:10674   */\n      0x0b\n        /* \"#utility.yul\":10667:10670   */\n      dup4\n        /* \"#utility.yul\":10608:10675   */\n      tag_196\n      jump\t// in\n    tag_331:\n        /* \"#utility.yul\":10601:10675   */\n      swap2\n      pop\n        /* \"#utility.yul\":10684:10777   */\n      tag_332\n        /* \"#utility.yul\":10773:10776   */\n      dup3\n        /* \"#utility.yul\":10684:10777   */\n      tag_208\n      jump\t// in\n    tag_332:\n        /* \"#utility.yul\":10802:10804   */\n      0x20\n        /* \"#utility.yul\":10797:10800   */\n      dup3\n        /* \"#utility.yul\":10793:10805   */\n      add\n        /* \"#utility.yul\":10786:10805   */\n      swap1\n      pop\n        /* \"#utility.yul\":10445:10811   */\n      swap2\n      swap1\n      pop\n      jump\t// out\n        /* \"#utility.yul\":10817:11236   */\n    tag_147:\n        /* \"#utility.yul\":10983:10987   */\n      0x00\n        /* \"#utility.yul\":11021:11023   */\n      0x20\n        /* \"#utility.yul\":11010:11019   */\n      dup3\n        /* \"#utility.yul\":11006:11024   */\n      add\n        /* \"#utility.yul\":10998:11024   */\n      swap1\n      pop\n        /* \"#utility.yul\":11070:11079   */\n      dup2\n        /* \"#utility.yul\":11064:11068   */\n      dup2\n        /* \"#utility.yul\":11060:11080   */\n      sub\n        /* \"#utility.yul\":11056:11057   */\n      0x00\n        /* \"#utility.yul\":11045:11054   */\n      dup4\n        /* \"#utility.yul\":11041:11058   */\n      add\n        /* \"#utility.yul\":11034:11081   */\n      mstore\n        /* \"#utility.yul\":11098:11229   */\n      tag_334\n        /* \"#utility.yul\":11224:11228   */\n      dup2\n        /* \"#utility.yul\":11098:11229   */\n      tag_209\n      jump\t// in\n    tag_334:\n        /* \"#utility.yul\":11090:11229   */\n      swap1\n      pop\n        /* \"#utility.yul\":10817:11236   */\n      swap2\n      swap1\n      pop\n      jump\t// out\n\n    auxdata: 0xa264697066735822122057f70b3cdf5b952b5b2063740c48c91698396ceaa7d2af273c0b661c1a39c99a64736f6c63430008120033\n}\n",
				"bytecode": {
					"linkReferences": {},
					"object": "60c06040523480156200001157600080fd5b506040516200172e3803806200172e833981810160405281019062000037919062000111565b8173ffffffffffffffffffffffffffffffffffffffff1660808173ffffffffffffffffffffffffffffffffffffffff16815250508073ffffffffffffffffffffffffffffffffffffffff1660a08173ffffffffffffffffffffffffffffffffffffffff1681525050505062000158565b600080fd5b600073ffffffffffffffffffffffffffffffffffffffff82169050919050565b6000620000d982620000ac565b9050919050565b620000eb81620000cc565b8114620000f757600080fd5b50565b6000815190506200010b81620000e0565b92915050565b600080604083850312156200012b576200012a620000a7565b5b60006200013b85828601620000fa565b92505060206200014e85828601620000fa565b9150509250929050565b60805160a051611539620001f56000396000818161027801528181610365015281816103d3015281816105e30152818161074f0152818161093901528181610a8201528181610cb10152610d560152600081816101f1015281816102230152818161030901528181610386015281816103b201528181610549015281816106b10152818161089a015281816109e10152610c1701526115396000f3fe608060405234801561001057600080fd5b50600436106100935760003560e01c80635a76f25e116100665780635a76f25e1461012257806370a08231146101405780639a5a8a3214610170578063cb1652de146101a1578063d21220a7146101d157610093565b80630dfe16811461009857806318160ddd146100b6578063443cb4bc146100d4578063562c2195146100f2575b600080fd5b6100a06101ef565b6040516100ad9190610f83565b60405180910390f35b6100be610213565b6040516100cb9190610fb7565b60405180910390f35b6100dc610219565b6040516100e99190610fb7565b60405180910390f35b61010c60048036038101906101079190611041565b61021f565b6040516101199190610fb7565b60405180910390f35b61012a61068c565b6040516101379190610fb7565b60405180910390f35b61015a60048036038101906101559190611081565b610692565b6040516101679190610fb7565b60405180910390f35b61018a600480360381019061018591906110ae565b6106aa565b6040516101989291906110db565b60405180910390f35b6101bb60048036038101906101b69190611104565b6109dd565b6040516101c89190610fb7565b60405180910390f35b6101d9610d54565b6040516101e69190610f83565b60405180910390f35b7f000000000000000000000000000000000000000000000000000000000000000081565b60025481565b60005481565b60007f000000000000000000000000000000000000000000000000000000000000000073ffffffffffffffffffffffffffffffffffffffff168373ffffffffffffffffffffffffffffffffffffffff1614806102c657507f000000000000000000000000000000000000000000000000000000000000000073ffffffffffffffffffffffffffffffffffffffff168373ffffffffffffffffffffffffffffffffffffffff16145b610305576040517f08c379a00000000000000000000000000000000000000000000000000000000081526004016102fc906111a1565b60405180910390fd5b60007f000000000000000000000000000000000000000000000000000000000000000073ffffffffffffffffffffffffffffffffffffffff168473ffffffffffffffffffffffffffffffffffffffff16149050600080600080846103b0577f00000000000000000000000000000000000000000000000000000000000000007f00000000000000000000000000000000000000000000000000000000000000006001546000546103f9565b7f00000000000000000000000000000000000000000000000000000000000000007f00000000000000000000000000000000000000000000000000000000000000006000546001545b93509350935093508373ffffffffffffffffffffffffffffffffffffffff166323b872dd33308a6040518463ffffffff1660e01b815260040161043e939291906111d0565b6020604051808303816000875af115801561045d573d6000803e3d6000fd5b505050506040513d601f19601f82011682018060405250810190610481919061123f565b5060006103e86103e589610495919061129b565b61049f919061130c565b905080836104ad919061133d565b81836104b9919061129b565b6104c3919061130c565b96508373ffffffffffffffffffffffffffffffffffffffff1663a9059cbb33896040518363ffffffff1660e01b8152600401610500929190611371565b6020604051808303816000875af115801561051f573d6000803e3d6000fd5b505050506040513d601f19601f82011682018060405250810190610543919061123f565b506106807f000000000000000000000000000000000000000000000000000000000000000073ffffffffffffffffffffffffffffffffffffffff166370a08231306040518263ffffffff1660e01b81526004016105a0919061139a565b602060405180830381865afa1580156105bd573d6000803e3d6000fd5b505050506040513d601f19601f820116820180604052508101906105e191906113ca565b7f000000000000000000000000000000000000000000000000000000000000000073ffffffffffffffffffffffffffffffffffffffff166370a08231306040518263ffffffff1660e01b815260040161063a919061139a565b602060405180830381865afa158015610657573d6000803e3d6000fd5b505050506040513d601f19601f8201168201806040525081019061067b91906113ca565b610d78565b50505050505092915050565b60015481565b60036020528060005260406000206000915090505481565b60008060007f000000000000000000000000000000000000000000000000000000000000000073ffffffffffffffffffffffffffffffffffffffff166370a08231306040518263ffffffff1660e01b8152600401610708919061139a565b602060405180830381865afa158015610725573d6000803e3d6000fd5b505050506040513d601f19601f8201168201806040525081019061074991906113ca565b905060007f000000000000000000000000000000000000000000000000000000000000000073ffffffffffffffffffffffffffffffffffffffff166370a08231306040518263ffffffff1660e01b81526004016107a6919061139a565b602060405180830381865afa1580156107c3573d6000803e3d6000fd5b505050506040513d601f19601f820116820180604052508101906107e791906113ca565b905060025482866107f8919061129b565b610802919061130c565b93506002548186610813919061129b565b61081d919061130c565b925060008411801561082f5750600083115b61086e576040517f08c379a000000000000000000000000000000000000000000000000000000000815260040161086590611443565b60405180910390fd5b6108783386610d8a565b61089884836108879190611463565b84836108939190611463565b610d78565b7f000000000000000000000000000000000000000000000000000000000000000073ffffffffffffffffffffffffffffffffffffffff1663a9059cbb33866040518363ffffffff1660e01b81526004016108f3929190611371565b6020604051808303816000875af1158015610912573d6000803e3d6000fd5b505050506040513d601f19601f82011682018060405250810190610936919061123f565b507f000000000000000000000000000000000000000000000000000000000000000073ffffffffffffffffffffffffffffffffffffffff1663a9059cbb33856040518363ffffffff1660e01b8152600401610992929190611371565b6020604051808303816000875af11580156109b1573d6000803e3d6000fd5b505050506040513d601f19601f820116820180604052508101906109d5919061123f565b505050915091565b60007f000000000000000000000000000000000000000000000000000000000000000073ffffffffffffffffffffffffffffffffffffffff166323b872dd3330866040518463ffffffff1660e01b8152600401610a3c939291906111d0565b6020604051808303816000875af1158015610a5b573d6000803e3d6000fd5b505050506040513d601f19601f82011682018060405250810190610a7f919061123f565b507f000000000000000000000000000000000000000000000000000000000000000073ffffffffffffffffffffffffffffffffffffffff166323b872dd3330856040518463ffffffff1660e01b8152600401610add939291906111d0565b6020604051808303816000875af1158015610afc573d6000803e3d6000fd5b505050506040513d601f19601f82011682018060405250810190610b20919061123f565b50600080541180610b3357506000600154115b15610b5f5781600154610b46919061129b565b82600054610b54919061129b565b14610b5e57600080fd5b5b600060025403610b8457610b7d8284610b78919061129b565b610dfd565b9050610bc5565b610bc260005460025485610b98919061129b565b610ba2919061130c565b60015460025485610bb3919061129b565b610bbd919061130c565b610e77565b90505b60008111610c08576040517f08c379a0000000000000000000000000000000000000000000000000000000008152600401610bff906114e3565b60405180910390fd5b610c123382610e91565b610d4e7f000000000000000000000000000000000000000000000000000000000000000073ffffffffffffffffffffffffffffffffffffffff166370a08231306040518263ffffffff1660e01b8152600401610c6e919061139a565b602060405180830381865afa158015610c8b573d6000803e3d6000fd5b505050506040513d601f19601f82011682018060405250810190610caf91906113ca565b7f000000000000000000000000000000000000000000000000000000000000000073ffffffffffffffffffffffffffffffffffffffff166370a08231306040518263ffffffff1660e01b8152600401610d08919061139a565b602060405180830381865afa158015610d25573d6000803e3d6000fd5b505050506040513d601f19601f82011682018060405250810190610d4991906113ca565b610d78565b92915050565b7f000000000000000000000000000000000000000000000000000000000000000081565b81600081905550806001819055505050565b8060026000828254610d9c9190611463565b9250508190555080600360008473ffffffffffffffffffffffffffffffffffffffff1673ffffffffffffffffffffffffffffffffffffffff1681526020019081526020016000206000828254610df29190611463565b925050819055505050565b60006003821115610e645781905060006001600284610e1c919061130c565b610e26919061133d565b90505b81811015610e5e578091506002818285610e43919061130c565b610e4d919061133d565b610e57919061130c565b9050610e29565b50610e72565b60008214610e7157600190505b5b919050565b600081831115610e875781610e89565b825b905092915050565b8060026000828254610ea3919061133d565b9250508190555080600360008473ffffffffffffffffffffffffffffffffffffffff1673ffffffffffffffffffffffffffffffffffffffff1681526020019081526020016000206000828254610ef9919061133d565b925050819055505050565b600073ffffffffffffffffffffffffffffffffffffffff82169050919050565b6000819050919050565b6000610f49610f44610f3f84610f04565b610f24565b610f04565b9050919050565b6000610f5b82610f2e565b9050919050565b6000610f6d82610f50565b9050919050565b610f7d81610f62565b82525050565b6000602082019050610f986000830184610f74565b92915050565b6000819050919050565b610fb181610f9e565b82525050565b6000602082019050610fcc6000830184610fa8565b92915050565b600080fd5b6000610fe282610f04565b9050919050565b610ff281610fd7565b8114610ffd57600080fd5b50565b60008135905061100f81610fe9565b92915050565b61101e81610f9e565b811461102957600080fd5b50565b60008135905061103b81611015565b92915050565b6000806040838503121561105857611057610fd2565b5b600061106685828601611000565b92505060206110778582860161102c565b9150509250929050565b60006020828403121561109757611096610fd2565b5b60006110a584828501611000565b91505092915050565b6000602082840312156110c4576110c3610fd2565b5b60006110d28482850161102c565b91505092915050565b60006040820190506110f06000830185610fa8565b6110fd6020830184610fa8565b9392505050565b6000806040838503121561111b5761111a610fd2565b5b60006111298582860161102c565b925050602061113a8582860161102c565b9150509250929050565b600082825260208201905092915050565b7f496e76616c696420746f6b656e00000000000000000000000000000000000000600082015250565b600061118b600d83611144565b915061119682611155565b602082019050919050565b600060208201905081810360008301526111ba8161117e565b9050919050565b6111ca81610fd7565b82525050565b60006060820190506111e560008301866111c1565b6111f260208301856111c1565b6111ff6040830184610fa8565b949350505050565b60008115159050919050565b61121c81611207565b811461122757600080fd5b50565b60008151905061123981611213565b92915050565b60006020828403121561125557611254610fd2565b5b60006112638482850161122a565b91505092915050565b7f4e487b7100000000000000000000000000000000000000000000000000000000600052601160045260246000fd5b60006112a682610f9e565b91506112b183610f9e565b92508282026112bf81610f9e565b915082820484148315176112d6576112d561126c565b5b5092915050565b7f4e487b7100000000000000000000000000000000000000000000000000000000600052601260045260246000fd5b600061131782610f9e565b915061132283610f9e565b925082611332576113316112dd565b5b828204905092915050565b600061134882610f9e565b915061135383610f9e565b925082820190508082111561136b5761136a61126c565b5b92915050565b600060408201905061138660008301856111c1565b6113936020830184610fa8565b9392505050565b60006020820190506113af60008301846111c1565b92915050565b6000815190506113c481611015565b92915050565b6000602082840312156113e0576113df610fd2565b5b60006113ee848285016113b5565b91505092915050565b7f616d6f756e7430206f7220616d6f756e7431203d203000000000000000000000600082015250565b600061142d601683611144565b9150611438826113f7565b602082019050919050565b6000602082019050818103600083015261145c81611420565b9050919050565b600061146e82610f9e565b915061147983610f9e565b92508282039050818111156114915761149061126c565b5b92915050565b7f73686172657320203d2030000000000000000000000000000000000000000000600082015250565b60006114cd600b83611144565b91506114d882611497565b602082019050919050565b600060208201905081810360008301526114fc816114c0565b905091905056fea264697066735822122057f70b3cdf5b952b5b2063740c48c91698396ceaa7d2af273c0b661c1a39c99a64736f6c63430008120033",
					"opcodes": "PUSH1 0xC0 PUSH1 0x40 MSTORE CALLVALUE DUP1 ISZERO PUSH3 0x11 JUMPI PUSH1 0x0 DUP1 REVERT JUMPDEST POP PUSH1 0x40 MLOAD PUSH3 0x172E CODESIZE SUB DUP1 PUSH3 0x172E DUP4 CODECOPY DUP2 DUP2 ADD PUSH1 0x40 MSTORE DUP2 ADD SWAP1 PUSH3 0x37 SWAP2 SWAP1 PUSH3 0x111 JUMP JUMPDEST DUP2 PUSH20 0xFFFFFFFFFFFFFFFFFFFFFFFFFFFFFFFFFFFFFFFF AND PUSH1 0x80 DUP2 PUSH20 0xFFFFFFFFFFFFFFFFFFFFFFFFFFFFFFFFFFFFFFFF AND DUP2 MSTORE POP POP DUP1 PUSH20 0xFFFFFFFFFFFFFFFFFFFFFFFFFFFFFFFFFFFFFFFF AND PUSH1 0xA0 DUP2 PUSH20 0xFFFFFFFFFFFFFFFFFFFFFFFFFFFFFFFFFFFFFFFF AND DUP2 MSTORE POP POP POP POP PUSH3 0x158 JUMP JUMPDEST PUSH1 0x0 DUP1 REVERT JUMPDEST PUSH1 0x0 PUSH20 0xFFFFFFFFFFFFFFFFFFFFFFFFFFFFFFFFFFFFFFFF DUP3 AND SWAP1 POP SWAP2 SWAP1 POP JUMP JUMPDEST PUSH1 0x0 PUSH3 0xD9 DUP3 PUSH3 0xAC JUMP JUMPDEST SWAP1 POP SWAP2 SWAP1 POP JUMP JUMPDEST PUSH3 0xEB DUP2 PUSH3 0xCC JUMP JUMPDEST DUP2 EQ PUSH3 0xF7 JUMPI PUSH1 0x0 DUP1 REVERT JUMPDEST POP JUMP JUMPDEST PUSH1 0x0 DUP2 MLOAD SWAP1 POP PUSH3 0x10B DUP2 PUSH3 0xE0 JUMP JUMPDEST SWAP3 SWAP2 POP POP JUMP JUMPDEST PUSH1 0x0 DUP1 PUSH1 0x40 DUP4 DUP6 SUB SLT ISZERO PUSH3 0x12B JUMPI PUSH3 0x12A PUSH3 0xA7 JUMP JUMPDEST JUMPDEST PUSH1 0x0 PUSH3 0x13B DUP6 DUP3 DUP7 ADD PUSH3 0xFA JUMP JUMPDEST SWAP3 POP POP PUSH1 0x20 PUSH3 0x14E DUP6 DUP3 DUP7 ADD PUSH3 0xFA JUMP JUMPDEST SWAP2 POP POP SWAP3 POP SWAP3 SWAP1 POP JUMP JUMPDEST PUSH1 0x80 MLOAD PUSH1 0xA0 MLOAD PUSH2 0x1539 PUSH3 0x1F5 PUSH1 0x0 CODECOPY PUSH1 0x0 DUP2 DUP2 PUSH2 0x278 ADD MSTORE DUP2 DUP2 PUSH2 0x365 ADD MSTORE DUP2 DUP2 PUSH2 0x3D3 ADD MSTORE DUP2 DUP2 PUSH2 0x5E3 ADD MSTORE DUP2 DUP2 PUSH2 0x74F ADD MSTORE DUP2 DUP2 PUSH2 0x939 ADD MSTORE DUP2 DUP2 PUSH2 0xA82 ADD MSTORE DUP2 DUP2 PUSH2 0xCB1 ADD MSTORE PUSH2 0xD56 ADD MSTORE PUSH1 0x0 DUP2 DUP2 PUSH2 0x1F1 ADD MSTORE DUP2 DUP2 PUSH2 0x223 ADD MSTORE DUP2 DUP2 PUSH2 0x309 ADD MSTORE DUP2 DUP2 PUSH2 0x386 ADD MSTORE DUP2 DUP2 PUSH2 0x3B2 ADD MSTORE DUP2 DUP2 PUSH2 0x549 ADD MSTORE DUP2 DUP2 PUSH2 0x6B1 ADD MSTORE DUP2 DUP2 PUSH2 0x89A ADD MSTORE DUP2 DUP2 PUSH2 0x9E1 ADD MSTORE PUSH2 0xC17 ADD MSTORE PUSH2 0x1539 PUSH1 0x0 RETURN INVALID PUSH1 0x80 PUSH1 0x40 MSTORE CALLVALUE DUP1 ISZERO PUSH2 0x10 JUMPI PUSH1 0x0 DUP1 REVERT JUMPDEST POP PUSH1 0x4 CALLDATASIZE LT PUSH2 0x93 JUMPI PUSH1 0x0 CALLDATALOAD PUSH1 0xE0 SHR DUP1 PUSH4 0x5A76F25E GT PUSH2 0x66 JUMPI DUP1 PUSH4 0x5A76F25E EQ PUSH2 0x122 JUMPI DUP1 PUSH4 0x70A08231 EQ PUSH2 0x140 JUMPI DUP1 PUSH4 0x9A5A8A32 EQ PUSH2 0x170 JUMPI DUP1 PUSH4 0xCB1652DE EQ PUSH2 0x1A1 JUMPI DUP1 PUSH4 0xD21220A7 EQ PUSH2 0x1D1 JUMPI PUSH2 0x93 JUMP JUMPDEST DUP1 PUSH4 0xDFE1681 EQ PUSH2 0x98 JUMPI DUP1 PUSH4 0x18160DDD EQ PUSH2 0xB6 JUMPI DUP1 PUSH4 0x443CB4BC EQ PUSH2 0xD4 JUMPI DUP1 PUSH4 0x562C2195 EQ PUSH2 0xF2 JUMPI JUMPDEST PUSH1 0x0 DUP1 REVERT JUMPDEST PUSH2 0xA0 PUSH2 0x1EF JUMP JUMPDEST PUSH1 0x40 MLOAD PUSH2 0xAD SWAP2 SWAP1 PUSH2 0xF83 JUMP JUMPDEST PUSH1 0x40 MLOAD DUP1 SWAP2 SUB SWAP1 RETURN JUMPDEST PUSH2 0xBE PUSH2 0x213 JUMP JUMPDEST PUSH1 0x40 MLOAD PUSH2 0xCB SWAP2 SWAP1 PUSH2 0xFB7 JUMP JUMPDEST PUSH1 0x40 MLOAD DUP1 SWAP2 SUB SWAP1 RETURN JUMPDEST PUSH2 0xDC PUSH2 0x219 JUMP JUMPDEST PUSH1 0x40 MLOAD PUSH2 0xE9 SWAP2 SWAP1 PUSH2 0xFB7 JUMP JUMPDEST PUSH1 0x40 MLOAD DUP1 SWAP2 SUB SWAP1 RETURN JUMPDEST PUSH2 0x10C PUSH1 0x4 DUP1 CALLDATASIZE SUB DUP2 ADD SWAP1 PUSH2 0x107 SWAP2 SWAP1 PUSH2 0x1041 JUMP JUMPDEST PUSH2 0x21F JUMP JUMPDEST PUSH1 0x40 MLOAD PUSH2 0x119 SWAP2 SWAP1 PUSH2 0xFB7 JUMP JUMPDEST PUSH1 0x40 MLOAD DUP1 SWAP2 SUB SWAP1 RETURN JUMPDEST PUSH2 0x12A PUSH2 0x68C JUMP JUMPDEST PUSH1 0x40 MLOAD PUSH2 0x137 SWAP2 SWAP1 PUSH2 0xFB7 JUMP JUMPDEST PUSH1 0x40 MLOAD DUP1 SWAP2 SUB SWAP1 RETURN JUMPDEST PUSH2 0x15A PUSH1 0x4 DUP1 CALLDATASIZE SUB DUP2 ADD SWAP1 PUSH2 0x155 SWAP2 SWAP1 PUSH2 0x1081 JUMP JUMPDEST PUSH2 0x692 JUMP JUMPDEST PUSH1 0x40 MLOAD PUSH2 0x167 SWAP2 SWAP1 PUSH2 0xFB7 JUMP JUMPDEST PUSH1 0x40 MLOAD DUP1 SWAP2 SUB SWAP1 RETURN JUMPDEST PUSH2 0x18A PUSH1 0x4 DUP1 CALLDATASIZE SUB DUP2 ADD SWAP1 PUSH2 0x185 SWAP2 SWAP1 PUSH2 0x10AE JUMP JUMPDEST PUSH2 0x6AA JUMP JUMPDEST PUSH1 0x40 MLOAD PUSH2 0x198 SWAP3 SWAP2 SWAP1 PUSH2 0x10DB JUMP JUMPDEST PUSH1 0x40 MLOAD DUP1 SWAP2 SUB SWAP1 RETURN JUMPDEST PUSH2 0x1BB PUSH1 0x4 DUP1 CALLDATASIZE SUB DUP2 ADD SWAP1 PUSH2 0x1B6 SWAP2 SWAP1 PUSH2 0x1104 JUMP JUMPDEST PUSH2 0x9DD JUMP JUMPDEST PUSH1 0x40 MLOAD PUSH2 0x1C8 SWAP2 SWAP1 PUSH2 0xFB7 JUMP JUMPDEST PUSH1 0x40 MLOAD DUP1 SWAP2 SUB SWAP1 RETURN JUMPDEST PUSH2 0x1D9 PUSH2 0xD54 JUMP JUMPDEST PUSH1 0x40 MLOAD PUSH2 0x1E6 SWAP2 SWAP1 PUSH2 0xF83 JUMP JUMPDEST PUSH1 0x40 MLOAD DUP1 SWAP2 SUB SWAP1 RETURN JUMPDEST PUSH32 0x0 DUP2 JUMP JUMPDEST PUSH1 0x2 SLOAD DUP2 JUMP JUMPDEST PUSH1 0x0 SLOAD DUP2 JUMP JUMPDEST PUSH1 0x0 PUSH32 0x0 PUSH20 0xFFFFFFFFFFFFFFFFFFFFFFFFFFFFFFFFFFFFFFFF AND DUP4 PUSH20 0xFFFFFFFFFFFFFFFFFFFFFFFFFFFFFFFFFFFFFFFF AND EQ DUP1 PUSH2 0x2C6 JUMPI POP PUSH32 0x0 PUSH20 0xFFFFFFFFFFFFFFFFFFFFFFFFFFFFFFFFFFFFFFFF AND DUP4 PUSH20 0xFFFFFFFFFFFFFFFFFFFFFFFFFFFFFFFFFFFFFFFF AND EQ JUMPDEST PUSH2 0x305 JUMPI PUSH1 0x40 MLOAD PUSH32 0x8C379A000000000000000000000000000000000000000000000000000000000 DUP2 MSTORE PUSH1 0x4 ADD PUSH2 0x2FC SWAP1 PUSH2 0x11A1 JUMP JUMPDEST PUSH1 0x40 MLOAD DUP1 SWAP2 SUB SWAP1 REVERT JUMPDEST PUSH1 0x0 PUSH32 0x0 PUSH20 0xFFFFFFFFFFFFFFFFFFFFFFFFFFFFFFFFFFFFFFFF AND DUP5 PUSH20 0xFFFFFFFFFFFFFFFFFFFFFFFFFFFFFFFFFFFFFFFF AND EQ SWAP1 POP PUSH1 0x0 DUP1 PUSH1 0x0 DUP1 DUP5 PUSH2 0x3B0 JUMPI PUSH32 0x0 PUSH32 0x0 PUSH1 0x1 SLOAD PUSH1 0x0 SLOAD PUSH2 0x3F9 JUMP JUMPDEST PUSH32 0x0 PUSH32 0x0 PUSH1 0x0 SLOAD PUSH1 0x1 SLOAD JUMPDEST SWAP4 POP SWAP4 POP SWAP4 POP SWAP4 POP DUP4 PUSH20 0xFFFFFFFFFFFFFFFFFFFFFFFFFFFFFFFFFFFFFFFF AND PUSH4 0x23B872DD CALLER ADDRESS DUP11 PUSH1 0x40 MLOAD DUP5 PUSH4 0xFFFFFFFF AND PUSH1 0xE0 SHL DUP2 MSTORE PUSH1 0x4 ADD PUSH2 0x43E SWAP4 SWAP3 SWAP2 SWAP1 PUSH2 0x11D0 JUMP JUMPDEST PUSH1 0x20 PUSH1 0x40 MLOAD DUP1 DUP4 SUB DUP2 PUSH1 0x0 DUP8 GAS CALL ISZERO DUP1 ISZERO PUSH2 0x45D JUMPI RETURNDATASIZE PUSH1 0x0 DUP1 RETURNDATACOPY RETURNDATASIZE PUSH1 0x0 REVERT JUMPDEST POP POP POP POP PUSH1 0x40 MLOAD RETURNDATASIZE PUSH1 0x1F NOT PUSH1 0x1F DUP3 ADD AND DUP3 ADD DUP1 PUSH1 0x40 MSTORE POP DUP2 ADD SWAP1 PUSH2 0x481 SWAP2 SWAP1 PUSH2 0x123F JUMP JUMPDEST POP PUSH1 0x0 PUSH2 0x3E8 PUSH2 0x3E5 DUP10 PUSH2 0x495 SWAP2 SWAP1 PUSH2 0x129B JUMP JUMPDEST PUSH2 0x49F SWAP2 SWAP1 PUSH2 0x130C JUMP JUMPDEST SWAP1 POP DUP1 DUP4 PUSH2 0x4AD SWAP2 SWAP1 PUSH2 0x133D JUMP JUMPDEST DUP2 DUP4 PUSH2 0x4B9 SWAP2 SWAP1 PUSH2 0x129B JUMP JUMPDEST PUSH2 0x4C3 SWAP2 SWAP1 PUSH2 0x130C JUMP JUMPDEST SWAP7 POP DUP4 PUSH20 0xFFFFFFFFFFFFFFFFFFFFFFFFFFFFFFFFFFFFFFFF AND PUSH4 0xA9059CBB CALLER DUP10 PUSH1 0x40 MLOAD DUP4 PUSH4 0xFFFFFFFF AND PUSH1 0xE0 SHL DUP2 MSTORE PUSH1 0x4 ADD PUSH2 0x500 SWAP3 SWAP2 SWAP1 PUSH2 0x1371 JUMP JUMPDEST PUSH1 0x20 PUSH1 0x40 MLOAD DUP1 DUP4 SUB DUP2 PUSH1 0x0 DUP8 GAS CALL ISZERO DUP1 ISZERO PUSH2 0x51F JUMPI RETURNDATASIZE PUSH1 0x0 DUP1 RETURNDATACOPY RETURNDATASIZE PUSH1 0x0 REVERT JUMPDEST POP POP POP POP PUSH1 0x40 MLOAD RETURNDATASIZE PUSH1 0x1F NOT PUSH1 0x1F DUP3 ADD AND DUP3 ADD DUP1 PUSH1 0x40 MSTORE POP DUP2 ADD SWAP1 PUSH2 0x543 SWAP2 SWAP1 PUSH2 0x123F JUMP JUMPDEST POP PUSH2 0x680 PUSH32 0x0 PUSH20 0xFFFFFFFFFFFFFFFFFFFFFFFFFFFFFFFFFFFFFFFF AND PUSH4 0x70A08231 ADDRESS PUSH1 0x40 MLOAD DUP3 PUSH4 0xFFFFFFFF AND PUSH1 0xE0 SHL DUP2 MSTORE PUSH1 0x4 ADD PUSH2 0x5A0 SWAP2 SWAP1 PUSH2 0x139A JUMP JUMPDEST PUSH1 0x20 PUSH1 0x40 MLOAD DUP1 DUP4 SUB DUP2 DUP7 GAS STATICCALL ISZERO DUP1 ISZERO PUSH2 0x5BD JUMPI RETURNDATASIZE PUSH1 0x0 DUP1 RETURNDATACOPY RETURNDATASIZE PUSH1 0x0 REVERT JUMPDEST POP POP POP POP PUSH1 0x40 MLOAD RETURNDATASIZE PUSH1 0x1F NOT PUSH1 0x1F DUP3 ADD AND DUP3 ADD DUP1 PUSH1 0x40 MSTORE POP DUP2 ADD SWAP1 PUSH2 0x5E1 SWAP2 SWAP1 PUSH2 0x13CA JUMP JUMPDEST PUSH32 0x0 PUSH20 0xFFFFFFFFFFFFFFFFFFFFFFFFFFFFFFFFFFFFFFFF AND PUSH4 0x70A08231 ADDRESS PUSH1 0x40 MLOAD DUP3 PUSH4 0xFFFFFFFF AND PUSH1 0xE0 SHL DUP2 MSTORE PUSH1 0x4 ADD PUSH2 0x63A SWAP2 SWAP1 PUSH2 0x139A JUMP JUMPDEST PUSH1 0x20 PUSH1 0x40 MLOAD DUP1 DUP4 SUB DUP2 DUP7 GAS STATICCALL ISZERO DUP1 ISZERO PUSH2 0x657 JUMPI RETURNDATASIZE PUSH1 0x0 DUP1 RETURNDATACOPY RETURNDATASIZE PUSH1 0x0 REVERT JUMPDEST POP POP POP POP PUSH1 0x40 MLOAD RETURNDATASIZE PUSH1 0x1F NOT PUSH1 0x1F DUP3 ADD AND DUP3 ADD DUP1 PUSH1 0x40 MSTORE POP DUP2 ADD SWAP1 PUSH2 0x67B SWAP2 SWAP1 PUSH2 0x13CA JUMP JUMPDEST PUSH2 0xD78 JUMP JUMPDEST POP POP POP POP POP POP SWAP3 SWAP2 POP POP JUMP JUMPDEST PUSH1 0x1 SLOAD DUP2 JUMP JUMPDEST PUSH1 0x3 PUSH1 0x20 MSTORE DUP1 PUSH1 0x0 MSTORE PUSH1 0x40 PUSH1 0x0 KECCAK256 PUSH1 0x0 SWAP2 POP SWAP1 POP SLOAD DUP2 JUMP JUMPDEST PUSH1 0x0 DUP1 PUSH1 0x0 PUSH32 0x0 PUSH20 0xFFFFFFFFFFFFFFFFFFFFFFFFFFFFFFFFFFFFFFFF AND PUSH4 0x70A08231 ADDRESS PUSH1 0x40 MLOAD DUP3 PUSH4 0xFFFFFFFF AND PUSH1 0xE0 SHL DUP2 MSTORE PUSH1 0x4 ADD PUSH2 0x708 SWAP2 SWAP1 PUSH2 0x139A JUMP JUMPDEST PUSH1 0x20 PUSH1 0x40 MLOAD DUP1 DUP4 SUB DUP2 DUP7 GAS STATICCALL ISZERO DUP1 ISZERO PUSH2 0x725 JUMPI RETURNDATASIZE PUSH1 0x0 DUP1 RETURNDATACOPY RETURNDATASIZE PUSH1 0x0 REVERT JUMPDEST POP POP POP POP PUSH1 0x40 MLOAD RETURNDATASIZE PUSH1 0x1F NOT PUSH1 0x1F DUP3 ADD AND DUP3 ADD DUP1 PUSH1 0x40 MSTORE POP DUP2 ADD SWAP1 PUSH2 0x749 SWAP2 SWAP1 PUSH2 0x13CA JUMP JUMPDEST SWAP1 POP PUSH1 0x0 PUSH32 0x0 PUSH20 0xFFFFFFFFFFFFFFFFFFFFFFFFFFFFFFFFFFFFFFFF AND PUSH4 0x70A08231 ADDRESS PUSH1 0x40 MLOAD DUP3 PUSH4 0xFFFFFFFF AND PUSH1 0xE0 SHL DUP2 MSTORE PUSH1 0x4 ADD PUSH2 0x7A6 SWAP2 SWAP1 PUSH2 0x139A JUMP JUMPDEST PUSH1 0x20 PUSH1 0x40 MLOAD DUP1 DUP4 SUB DUP2 DUP7 GAS STATICCALL ISZERO DUP1 ISZERO PUSH2 0x7C3 JUMPI RETURNDATASIZE PUSH1 0x0 DUP1 RETURNDATACOPY RETURNDATASIZE PUSH1 0x0 REVERT JUMPDEST POP POP POP POP PUSH1 0x40 MLOAD RETURNDATASIZE PUSH1 0x1F NOT PUSH1 0x1F DUP3 ADD AND DUP3 ADD DUP1 PUSH1 0x40 MSTORE POP DUP2 ADD SWAP1 PUSH2 0x7E7 SWAP2 SWAP1 PUSH2 0x13CA JUMP JUMPDEST SWAP1 POP PUSH1 0x2 SLOAD DUP3 DUP7 PUSH2 0x7F8 SWAP2 SWAP1 PUSH2 0x129B JUMP JUMPDEST PUSH2 0x802 SWAP2 SWAP1 PUSH2 0x130C JUMP JUMPDEST SWAP4 POP PUSH1 0x2 SLOAD DUP2 DUP7 PUSH2 0x813 SWAP2 SWAP1 PUSH2 0x129B JUMP JUMPDEST PUSH2 0x81D SWAP2 SWAP1 PUSH2 0x130C JUMP JUMPDEST SWAP3 POP PUSH1 0x0 DUP5 GT DUP1 ISZERO PUSH2 0x82F JUMPI POP PUSH1 0x0 DUP4 GT JUMPDEST PUSH2 0x86E JUMPI PUSH1 0x40 MLOAD PUSH32 0x8C379A000000000000000000000000000000000000000000000000000000000 DUP2 MSTORE PUSH1 0x4 ADD PUSH2 0x865 SWAP1 PUSH2 0x1443 JUMP JUMPDEST PUSH1 0x40 MLOAD DUP1 SWAP2 SUB SWAP1 REVERT JUMPDEST PUSH2 0x878 CALLER DUP7 PUSH2 0xD8A JUMP JUMPDEST PUSH2 0x898 DUP5 DUP4 PUSH2 0x887 SWAP2 SWAP1 PUSH2 0x1463 JUMP JUMPDEST DUP5 DUP4 PUSH2 0x893 SWAP2 SWAP1 PUSH2 0x1463 JUMP JUMPDEST PUSH2 0xD78 JUMP JUMPDEST PUSH32 0x0 PUSH20 0xFFFFFFFFFFFFFFFFFFFFFFFFFFFFFFFFFFFFFFFF AND PUSH4 0xA9059CBB CALLER DUP7 PUSH1 0x40 MLOAD DUP4 PUSH4 0xFFFFFFFF AND PUSH1 0xE0 SHL DUP2 MSTORE PUSH1 0x4 ADD PUSH2 0x8F3 SWAP3 SWAP2 SWAP1 PUSH2 0x1371 JUMP JUMPDEST PUSH1 0x20 PUSH1 0x40 MLOAD DUP1 DUP4 SUB DUP2 PUSH1 0x0 DUP8 GAS CALL ISZERO DUP1 ISZERO PUSH2 0x912 JUMPI RETURNDATASIZE PUSH1 0x0 DUP1 RETURNDATACOPY RETURNDATASIZE PUSH1 0x0 REVERT JUMPDEST POP POP POP POP PUSH1 0x40 MLOAD RETURNDATASIZE PUSH1 0x1F NOT PUSH1 0x1F DUP3 ADD AND DUP3 ADD DUP1 PUSH1 0x40 MSTORE POP DUP2 ADD SWAP1 PUSH2 0x936 SWAP2 SWAP1 PUSH2 0x123F JUMP JUMPDEST POP PUSH32 0x0 PUSH20 0xFFFFFFFFFFFFFFFFFFFFFFFFFFFFFFFFFFFFFFFF AND PUSH4 0xA9059CBB CALLER DUP6 PUSH1 0x40 MLOAD DUP4 PUSH4 0xFFFFFFFF AND PUSH1 0xE0 SHL DUP2 MSTORE PUSH1 0x4 ADD PUSH2 0x992 SWAP3 SWAP2 SWAP1 PUSH2 0x1371 JUMP JUMPDEST PUSH1 0x20 PUSH1 0x40 MLOAD DUP1 DUP4 SUB DUP2 PUSH1 0x0 DUP8 GAS CALL ISZERO DUP1 ISZERO PUSH2 0x9B1 JUMPI RETURNDATASIZE PUSH1 0x0 DUP1 RETURNDATACOPY RETURNDATASIZE PUSH1 0x0 REVERT JUMPDEST POP POP POP POP PUSH1 0x40 MLOAD RETURNDATASIZE PUSH1 0x1F NOT PUSH1 0x1F DUP3 ADD AND DUP3 ADD DUP1 PUSH1 0x40 MSTORE POP DUP2 ADD SWAP1 PUSH2 0x9D5 SWAP2 SWAP1 PUSH2 0x123F JUMP JUMPDEST POP POP POP SWAP2 POP SWAP2 JUMP JUMPDEST PUSH1 0x0 PUSH32 0x0 PUSH20 0xFFFFFFFFFFFFFFFFFFFFFFFFFFFFFFFFFFFFFFFF AND PUSH4 0x23B872DD CALLER ADDRESS DUP7 PUSH1 0x40 MLOAD DUP5 PUSH4 0xFFFFFFFF AND PUSH1 0xE0 SHL DUP2 MSTORE PUSH1 0x4 ADD PUSH2 0xA3C SWAP4 SWAP3 SWAP2 SWAP1 PUSH2 0x11D0 JUMP JUMPDEST PUSH1 0x20 PUSH1 0x40 MLOAD DUP1 DUP4 SUB DUP2 PUSH1 0x0 DUP8 GAS CALL ISZERO DUP1 ISZERO PUSH2 0xA5B JUMPI RETURNDATASIZE PUSH1 0x0 DUP1 RETURNDATACOPY RETURNDATASIZE PUSH1 0x0 REVERT JUMPDEST POP POP POP POP PUSH1 0x40 MLOAD RETURNDATASIZE PUSH1 0x1F NOT PUSH1 0x1F DUP3 ADD AND DUP3 ADD DUP1 PUSH1 0x40 MSTORE POP DUP2 ADD SWAP1 PUSH2 0xA7F SWAP2 SWAP1 PUSH2 0x123F JUMP JUMPDEST POP PUSH32 0x0 PUSH20 0xFFFFFFFFFFFFFFFFFFFFFFFFFFFFFFFFFFFFFFFF AND PUSH4 0x23B872DD CALLER ADDRESS DUP6 PUSH1 0x40 MLOAD DUP5 PUSH4 0xFFFFFFFF AND PUSH1 0xE0 SHL DUP2 MSTORE PUSH1 0x4 ADD PUSH2 0xADD SWAP4 SWAP3 SWAP2 SWAP1 PUSH2 0x11D0 JUMP JUMPDEST PUSH1 0x20 PUSH1 0x40 MLOAD DUP1 DUP4 SUB DUP2 PUSH1 0x0 DUP8 GAS CALL ISZERO DUP1 ISZERO PUSH2 0xAFC JUMPI RETURNDATASIZE PUSH1 0x0 DUP1 RETURNDATACOPY RETURNDATASIZE PUSH1 0x0 REVERT JUMPDEST POP POP POP POP PUSH1 0x40 MLOAD RETURNDATASIZE PUSH1 0x1F NOT PUSH1 0x1F DUP3 ADD AND DUP3 ADD DUP1 PUSH1 0x40 MSTORE POP DUP2 ADD SWAP1 PUSH2 0xB20 SWAP2 SWAP1 PUSH2 0x123F JUMP JUMPDEST POP PUSH1 0x0 DUP1 SLOAD GT DUP1 PUSH2 0xB33 JUMPI POP PUSH1 0x0 PUSH1 0x1 SLOAD GT JUMPDEST ISZERO PUSH2 0xB5F JUMPI DUP2 PUSH1 0x1 SLOAD PUSH2 0xB46 SWAP2 SWAP1 PUSH2 0x129B JUMP JUMPDEST DUP3 PUSH1 0x0 SLOAD PUSH2 0xB54 SWAP2 SWAP1 PUSH2 0x129B JUMP JUMPDEST EQ PUSH2 0xB5E JUMPI PUSH1 0x0 DUP1 REVERT JUMPDEST JUMPDEST PUSH1 0x0 PUSH1 0x2 SLOAD SUB PUSH2 0xB84 JUMPI PUSH2 0xB7D DUP3 DUP5 PUSH2 0xB78 SWAP2 SWAP1 PUSH2 0x129B JUMP JUMPDEST PUSH2 0xDFD JUMP JUMPDEST SWAP1 POP PUSH2 0xBC5 JUMP JUMPDEST PUSH2 0xBC2 PUSH1 0x0 SLOAD PUSH1 0x2 SLOAD DUP6 PUSH2 0xB98 SWAP2 SWAP1 PUSH2 0x129B JUMP JUMPDEST PUSH2 0xBA2 SWAP2 SWAP1 PUSH2 0x130C JUMP JUMPDEST PUSH1 0x1 SLOAD PUSH1 0x2 SLOAD DUP6 PUSH2 0xBB3 SWAP2 SWAP1 PUSH2 0x129B JUMP JUMPDEST PUSH2 0xBBD SWAP2 SWAP1 PUSH2 0x130C JUMP JUMPDEST PUSH2 0xE77 JUMP JUMPDEST SWAP1 POP JUMPDEST PUSH1 0x0 DUP2 GT PUSH2 0xC08 JUMPI PUSH1 0x40 MLOAD PUSH32 0x8C379A000000000000000000000000000000000000000000000000000000000 DUP2 MSTORE PUSH1 0x4 ADD PUSH2 0xBFF SWAP1 PUSH2 0x14E3 JUMP JUMPDEST PUSH1 0x40 MLOAD DUP1 SWAP2 SUB SWAP1 REVERT JUMPDEST PUSH2 0xC12 CALLER DUP3 PUSH2 0xE91 JUMP JUMPDEST PUSH2 0xD4E PUSH32 0x0 PUSH20 0xFFFFFFFFFFFFFFFFFFFFFFFFFFFFFFFFFFFFFFFF AND PUSH4 0x70A08231 ADDRESS PUSH1 0x40 MLOAD DUP3 PUSH4 0xFFFFFFFF AND PUSH1 0xE0 SHL DUP2 MSTORE PUSH1 0x4 ADD PUSH2 0xC6E SWAP2 SWAP1 PUSH2 0x139A JUMP JUMPDEST PUSH1 0x20 PUSH1 0x40 MLOAD DUP1 DUP4 SUB DUP2 DUP7 GAS STATICCALL ISZERO DUP1 ISZERO PUSH2 0xC8B JUMPI RETURNDATASIZE PUSH1 0x0 DUP1 RETURNDATACOPY RETURNDATASIZE PUSH1 0x0 REVERT JUMPDEST POP POP POP POP PUSH1 0x40 MLOAD RETURNDATASIZE PUSH1 0x1F NOT PUSH1 0x1F DUP3 ADD AND DUP3 ADD DUP1 PUSH1 0x40 MSTORE POP DUP2 ADD SWAP1 PUSH2 0xCAF SWAP2 SWAP1 PUSH2 0x13CA JUMP JUMPDEST PUSH32 0x0 PUSH20 0xFFFFFFFFFFFFFFFFFFFFFFFFFFFFFFFFFFFFFFFF AND PUSH4 0x70A08231 ADDRESS PUSH1 0x40 MLOAD DUP3 PUSH4 0xFFFFFFFF AND PUSH1 0xE0 SHL DUP2 MSTORE PUSH1 0x4 ADD PUSH2 0xD08 SWAP2 SWAP1 PUSH2 0x139A JUMP JUMPDEST PUSH1 0x20 PUSH1 0x40 MLOAD DUP1 DUP4 SUB DUP2 DUP7 GAS STATICCALL ISZERO DUP1 ISZERO PUSH2 0xD25 JUMPI RETURNDATASIZE PUSH1 0x0 DUP1 RETURNDATACOPY RETURNDATASIZE PUSH1 0x0 REVERT JUMPDEST POP POP POP POP PUSH1 0x40 MLOAD RETURNDATASIZE PUSH1 0x1F NOT PUSH1 0x1F DUP3 ADD AND DUP3 ADD DUP1 PUSH1 0x40 MSTORE POP DUP2 ADD SWAP1 PUSH2 0xD49 SWAP2 SWAP1 PUSH2 0x13CA JUMP JUMPDEST PUSH2 0xD78 JUMP JUMPDEST SWAP3 SWAP2 POP POP JUMP JUMPDEST PUSH32 0x0 DUP2 JUMP JUMPDEST DUP2 PUSH1 0x0 DUP2 SWAP1 SSTORE POP DUP1 PUSH1 0x1 DUP2 SWAP1 SSTORE POP POP POP JUMP JUMPDEST DUP1 PUSH1 0x2 PUSH1 0x0 DUP3 DUP3 SLOAD PUSH2 0xD9C SWAP2 SWAP1 PUSH2 0x1463 JUMP JUMPDEST SWAP3 POP POP DUP2 SWAP1 SSTORE POP DUP1 PUSH1 0x3 PUSH1 0x0 DUP5 PUSH20 0xFFFFFFFFFFFFFFFFFFFFFFFFFFFFFFFFFFFFFFFF AND PUSH20 0xFFFFFFFFFFFFFFFFFFFFFFFFFFFFFFFFFFFFFFFF AND DUP2 MSTORE PUSH1 0x20 ADD SWAP1 DUP2 MSTORE PUSH1 0x20 ADD PUSH1 0x0 KECCAK256 PUSH1 0x0 DUP3 DUP3 SLOAD PUSH2 0xDF2 SWAP2 SWAP1 PUSH2 0x1463 JUMP JUMPDEST SWAP3 POP POP DUP2 SWAP1 SSTORE POP POP POP JUMP JUMPDEST PUSH1 0x0 PUSH1 0x3 DUP3 GT ISZERO PUSH2 0xE64 JUMPI DUP2 SWAP1 POP PUSH1 0x0 PUSH1 0x1 PUSH1 0x2 DUP5 PUSH2 0xE1C SWAP2 SWAP1 PUSH2 0x130C JUMP JUMPDEST PUSH2 0xE26 SWAP2 SWAP1 PUSH2 0x133D JUMP JUMPDEST SWAP1 POP JUMPDEST DUP2 DUP2 LT ISZERO PUSH2 0xE5E JUMPI DUP1 SWAP2 POP PUSH1 0x2 DUP2 DUP3 DUP6 PUSH2 0xE43 SWAP2 SWAP1 PUSH2 0x130C JUMP JUMPDEST PUSH2 0xE4D SWAP2 SWAP1 PUSH2 0x133D JUMP JUMPDEST PUSH2 0xE57 SWAP2 SWAP1 PUSH2 0x130C JUMP JUMPDEST SWAP1 POP PUSH2 0xE29 JUMP JUMPDEST POP PUSH2 0xE72 JUMP JUMPDEST PUSH1 0x0 DUP3 EQ PUSH2 0xE71 JUMPI PUSH1 0x1 SWAP1 POP JUMPDEST JUMPDEST SWAP2 SWAP1 POP JUMP JUMPDEST PUSH1 0x0 DUP2 DUP4 GT ISZERO PUSH2 0xE87 JUMPI DUP2 PUSH2 0xE89 JUMP JUMPDEST DUP3 JUMPDEST SWAP1 POP SWAP3 SWAP2 POP POP JUMP JUMPDEST DUP1 PUSH1 0x2 PUSH1 0x0 DUP3 DUP3 SLOAD PUSH2 0xEA3 SWAP2 SWAP1 PUSH2 0x133D JUMP JUMPDEST SWAP3 POP POP DUP2 SWAP1 SSTORE POP DUP1 PUSH1 0x3 PUSH1 0x0 DUP5 PUSH20 0xFFFFFFFFFFFFFFFFFFFFFFFFFFFFFFFFFFFFFFFF AND PUSH20 0xFFFFFFFFFFFFFFFFFFFFFFFFFFFFFFFFFFFFFFFF AND DUP2 MSTORE PUSH1 0x20 ADD SWAP1 DUP2 MSTORE PUSH1 0x20 ADD PUSH1 0x0 KECCAK256 PUSH1 0x0 DUP3 DUP3 SLOAD PUSH2 0xEF9 SWAP2 SWAP1 PUSH2 0x133D JUMP JUMPDEST SWAP3 POP POP DUP2 SWAP1 SSTORE POP POP POP JUMP JUMPDEST PUSH1 0x0 PUSH20 0xFFFFFFFFFFFFFFFFFFFFFFFFFFFFFFFFFFFFFFFF DUP3 AND SWAP1 POP SWAP2 SWAP1 POP JUMP JUMPDEST PUSH1 0x0 DUP2 SWAP1 POP SWAP2 SWAP1 POP JUMP JUMPDEST PUSH1 0x0 PUSH2 0xF49 PUSH2 0xF44 PUSH2 0xF3F DUP5 PUSH2 0xF04 JUMP JUMPDEST PUSH2 0xF24 JUMP JUMPDEST PUSH2 0xF04 JUMP JUMPDEST SWAP1 POP SWAP2 SWAP1 POP JUMP JUMPDEST PUSH1 0x0 PUSH2 0xF5B DUP3 PUSH2 0xF2E JUMP JUMPDEST SWAP1 POP SWAP2 SWAP1 POP JUMP JUMPDEST PUSH1 0x0 PUSH2 0xF6D DUP3 PUSH2 0xF50 JUMP JUMPDEST SWAP1 POP SWAP2 SWAP1 POP JUMP JUMPDEST PUSH2 0xF7D DUP2 PUSH2 0xF62 JUMP JUMPDEST DUP3 MSTORE POP POP JUMP JUMPDEST PUSH1 0x0 PUSH1 0x20 DUP3 ADD SWAP1 POP PUSH2 0xF98 PUSH1 0x0 DUP4 ADD DUP5 PUSH2 0xF74 JUMP JUMPDEST SWAP3 SWAP2 POP POP JUMP JUMPDEST PUSH1 0x0 DUP2 SWAP1 POP SWAP2 SWAP1 POP JUMP JUMPDEST PUSH2 0xFB1 DUP2 PUSH2 0xF9E JUMP JUMPDEST DUP3 MSTORE POP POP JUMP JUMPDEST PUSH1 0x0 PUSH1 0x20 DUP3 ADD SWAP1 POP PUSH2 0xFCC PUSH1 0x0 DUP4 ADD DUP5 PUSH2 0xFA8 JUMP JUMPDEST SWAP3 SWAP2 POP POP JUMP JUMPDEST PUSH1 0x0 DUP1 REVERT JUMPDEST PUSH1 0x0 PUSH2 0xFE2 DUP3 PUSH2 0xF04 JUMP JUMPDEST SWAP1 POP SWAP2 SWAP1 POP JUMP JUMPDEST PUSH2 0xFF2 DUP2 PUSH2 0xFD7 JUMP JUMPDEST DUP2 EQ PUSH2 0xFFD JUMPI PUSH1 0x0 DUP1 REVERT JUMPDEST POP JUMP JUMPDEST PUSH1 0x0 DUP2 CALLDATALOAD SWAP1 POP PUSH2 0x100F DUP2 PUSH2 0xFE9 JUMP JUMPDEST SWAP3 SWAP2 POP POP JUMP JUMPDEST PUSH2 0x101E DUP2 PUSH2 0xF9E JUMP JUMPDEST DUP2 EQ PUSH2 0x1029 JUMPI PUSH1 0x0 DUP1 REVERT JUMPDEST POP JUMP JUMPDEST PUSH1 0x0 DUP2 CALLDATALOAD SWAP1 POP PUSH2 0x103B DUP2 PUSH2 0x1015 JUMP JUMPDEST SWAP3 SWAP2 POP POP JUMP JUMPDEST PUSH1 0x0 DUP1 PUSH1 0x40 DUP4 DUP6 SUB SLT ISZERO PUSH2 0x1058 JUMPI PUSH2 0x1057 PUSH2 0xFD2 JUMP JUMPDEST JUMPDEST PUSH1 0x0 PUSH2 0x1066 DUP6 DUP3 DUP7 ADD PUSH2 0x1000 JUMP JUMPDEST SWAP3 POP POP PUSH1 0x20 PUSH2 0x1077 DUP6 DUP3 DUP7 ADD PUSH2 0x102C JUMP JUMPDEST SWAP2 POP POP SWAP3 POP SWAP3 SWAP1 POP JUMP JUMPDEST PUSH1 0x0 PUSH1 0x20 DUP3 DUP5 SUB SLT ISZERO PUSH2 0x1097 JUMPI PUSH2 0x1096 PUSH2 0xFD2 JUMP JUMPDEST JUMPDEST PUSH1 0x0 PUSH2 0x10A5 DUP5 DUP3 DUP6 ADD PUSH2 0x1000 JUMP JUMPDEST SWAP2 POP POP SWAP3 SWAP2 POP POP JUMP JUMPDEST PUSH1 0x0 PUSH1 0x20 DUP3 DUP5 SUB SLT ISZERO PUSH2 0x10C4 JUMPI PUSH2 0x10C3 PUSH2 0xFD2 JUMP JUMPDEST JUMPDEST PUSH1 0x0 PUSH2 0x10D2 DUP5 DUP3 DUP6 ADD PUSH2 0x102C JUMP JUMPDEST SWAP2 POP POP SWAP3 SWAP2 POP POP JUMP JUMPDEST PUSH1 0x0 PUSH1 0x40 DUP3 ADD SWAP1 POP PUSH2 0x10F0 PUSH1 0x0 DUP4 ADD DUP6 PUSH2 0xFA8 JUMP JUMPDEST PUSH2 0x10FD PUSH1 0x20 DUP4 ADD DUP5 PUSH2 0xFA8 JUMP JUMPDEST SWAP4 SWAP3 POP POP POP JUMP JUMPDEST PUSH1 0x0 DUP1 PUSH1 0x40 DUP4 DUP6 SUB SLT ISZERO PUSH2 0x111B JUMPI PUSH2 0x111A PUSH2 0xFD2 JUMP JUMPDEST JUMPDEST PUSH1 0x0 PUSH2 0x1129 DUP6 DUP3 DUP7 ADD PUSH2 0x102C JUMP JUMPDEST SWAP3 POP POP PUSH1 0x20 PUSH2 0x113A DUP6 DUP3 DUP7 ADD PUSH2 0x102C JUMP JUMPDEST SWAP2 POP POP SWAP3 POP SWAP3 SWAP1 POP JUMP JUMPDEST PUSH1 0x0 DUP3 DUP3 MSTORE PUSH1 0x20 DUP3 ADD SWAP1 POP SWAP3 SWAP2 POP POP JUMP JUMPDEST PUSH32 0x496E76616C696420746F6B656E00000000000000000000000000000000000000 PUSH1 0x0 DUP3 ADD MSTORE POP JUMP JUMPDEST PUSH1 0x0 PUSH2 0x118B PUSH1 0xD DUP4 PUSH2 0x1144 JUMP JUMPDEST SWAP2 POP PUSH2 0x1196 DUP3 PUSH2 0x1155 JUMP JUMPDEST PUSH1 0x20 DUP3 ADD SWAP1 POP SWAP2 SWAP1 POP JUMP JUMPDEST PUSH1 0x0 PUSH1 0x20 DUP3 ADD SWAP1 POP DUP2 DUP2 SUB PUSH1 0x0 DUP4 ADD MSTORE PUSH2 0x11BA DUP2 PUSH2 0x117E JUMP JUMPDEST SWAP1 POP SWAP2 SWAP1 POP JUMP JUMPDEST PUSH2 0x11CA DUP2 PUSH2 0xFD7 JUMP JUMPDEST DUP3 MSTORE POP POP JUMP JUMPDEST PUSH1 0x0 PUSH1 0x60 DUP3 ADD SWAP1 POP PUSH2 0x11E5 PUSH1 0x0 DUP4 ADD DUP7 PUSH2 0x11C1 JUMP JUMPDEST PUSH2 0x11F2 PUSH1 0x20 DUP4 ADD DUP6 PUSH2 0x11C1 JUMP JUMPDEST PUSH2 0x11FF PUSH1 0x40 DUP4 ADD DUP5 PUSH2 0xFA8 JUMP JUMPDEST SWAP5 SWAP4 POP POP POP POP JUMP JUMPDEST PUSH1 0x0 DUP2 ISZERO ISZERO SWAP1 POP SWAP2 SWAP1 POP JUMP JUMPDEST PUSH2 0x121C DUP2 PUSH2 0x1207 JUMP JUMPDEST DUP2 EQ PUSH2 0x1227 JUMPI PUSH1 0x0 DUP1 REVERT JUMPDEST POP JUMP JUMPDEST PUSH1 0x0 DUP2 MLOAD SWAP1 POP PUSH2 0x1239 DUP2 PUSH2 0x1213 JUMP JUMPDEST SWAP3 SWAP2 POP POP JUMP JUMPDEST PUSH1 0x0 PUSH1 0x20 DUP3 DUP5 SUB SLT ISZERO PUSH2 0x1255 JUMPI PUSH2 0x1254 PUSH2 0xFD2 JUMP JUMPDEST JUMPDEST PUSH1 0x0 PUSH2 0x1263 DUP5 DUP3 DUP6 ADD PUSH2 0x122A JUMP JUMPDEST SWAP2 POP POP SWAP3 SWAP2 POP POP JUMP JUMPDEST PUSH32 0x4E487B7100000000000000000000000000000000000000000000000000000000 PUSH1 0x0 MSTORE PUSH1 0x11 PUSH1 0x4 MSTORE PUSH1 0x24 PUSH1 0x0 REVERT JUMPDEST PUSH1 0x0 PUSH2 0x12A6 DUP3 PUSH2 0xF9E JUMP JUMPDEST SWAP2 POP PUSH2 0x12B1 DUP4 PUSH2 0xF9E JUMP JUMPDEST SWAP3 POP DUP3 DUP3 MUL PUSH2 0x12BF DUP2 PUSH2 0xF9E JUMP JUMPDEST SWAP2 POP DUP3 DUP3 DIV DUP5 EQ DUP4 ISZERO OR PUSH2 0x12D6 JUMPI PUSH2 0x12D5 PUSH2 0x126C JUMP JUMPDEST JUMPDEST POP SWAP3 SWAP2 POP POP JUMP JUMPDEST PUSH32 0x4E487B7100000000000000000000000000000000000000000000000000000000 PUSH1 0x0 MSTORE PUSH1 0x12 PUSH1 0x4 MSTORE PUSH1 0x24 PUSH1 0x0 REVERT JUMPDEST PUSH1 0x0 PUSH2 0x1317 DUP3 PUSH2 0xF9E JUMP JUMPDEST SWAP2 POP PUSH2 0x1322 DUP4 PUSH2 0xF9E JUMP JUMPDEST SWAP3 POP DUP3 PUSH2 0x1332 JUMPI PUSH2 0x1331 PUSH2 0x12DD JUMP JUMPDEST JUMPDEST DUP3 DUP3 DIV SWAP1 POP SWAP3 SWAP2 POP POP JUMP JUMPDEST PUSH1 0x0 PUSH2 0x1348 DUP3 PUSH2 0xF9E JUMP JUMPDEST SWAP2 POP PUSH2 0x1353 DUP4 PUSH2 0xF9E JUMP JUMPDEST SWAP3 POP DUP3 DUP3 ADD SWAP1 POP DUP1 DUP3 GT ISZERO PUSH2 0x136B JUMPI PUSH2 0x136A PUSH2 0x126C JUMP JUMPDEST JUMPDEST SWAP3 SWAP2 POP POP JUMP JUMPDEST PUSH1 0x0 PUSH1 0x40 DUP3 ADD SWAP1 POP PUSH2 0x1386 PUSH1 0x0 DUP4 ADD DUP6 PUSH2 0x11C1 JUMP JUMPDEST PUSH2 0x1393 PUSH1 0x20 DUP4 ADD DUP5 PUSH2 0xFA8 JUMP JUMPDEST SWAP4 SWAP3 POP POP POP JUMP JUMPDEST PUSH1 0x0 PUSH1 0x20 DUP3 ADD SWAP1 POP PUSH2 0x13AF PUSH1 0x0 DUP4 ADD DUP5 PUSH2 0x11C1 JUMP JUMPDEST SWAP3 SWAP2 POP POP JUMP JUMPDEST PUSH1 0x0 DUP2 MLOAD SWAP1 POP PUSH2 0x13C4 DUP2 PUSH2 0x1015 JUMP JUMPDEST SWAP3 SWAP2 POP POP JUMP JUMPDEST PUSH1 0x0 PUSH1 0x20 DUP3 DUP5 SUB SLT ISZERO PUSH2 0x13E0 JUMPI PUSH2 0x13DF PUSH2 0xFD2 JUMP JUMPDEST JUMPDEST PUSH1 0x0 PUSH2 0x13EE DUP5 DUP3 DUP6 ADD PUSH2 0x13B5 JUMP JUMPDEST SWAP2 POP POP SWAP3 SWAP2 POP POP JUMP JUMPDEST PUSH32 0x616D6F756E7430206F7220616D6F756E7431203D203000000000000000000000 PUSH1 0x0 DUP3 ADD MSTORE POP JUMP JUMPDEST PUSH1 0x0 PUSH2 0x142D PUSH1 0x16 DUP4 PUSH2 0x1144 JUMP JUMPDEST SWAP2 POP PUSH2 0x1438 DUP3 PUSH2 0x13F7 JUMP JUMPDEST PUSH1 0x20 DUP3 ADD SWAP1 POP SWAP2 SWAP1 POP JUMP JUMPDEST PUSH1 0x0 PUSH1 0x20 DUP3 ADD SWAP1 POP DUP2 DUP2 SUB PUSH1 0x0 DUP4 ADD MSTORE PUSH2 0x145C DUP2 PUSH2 0x1420 JUMP JUMPDEST SWAP1 POP SWAP2 SWAP1 POP JUMP JUMPDEST PUSH1 0x0 PUSH2 0x146E DUP3 PUSH2 0xF9E JUMP JUMPDEST SWAP2 POP PUSH2 0x1479 DUP4 PUSH2 0xF9E JUMP JUMPDEST SWAP3 POP DUP3 DUP3 SUB SWAP1 POP DUP2 DUP2 GT ISZERO PUSH2 0x1491 JUMPI PUSH2 0x1490 PUSH2 0x126C JUMP JUMPDEST JUMPDEST SWAP3 SWAP2 POP POP JUMP JUMPDEST PUSH32 0x73686172657320203D2030000000000000000000000000000000000000000000 PUSH1 0x0 DUP3 ADD MSTORE POP JUMP JUMPDEST PUSH1 0x0 PUSH2 0x14CD PUSH1 0xB DUP4 PUSH2 0x1144 JUMP JUMPDEST SWAP2 POP PUSH2 0x14D8 DUP3 PUSH2 0x1497 JUMP JUMPDEST PUSH1 0x20 DUP3 ADD SWAP1 POP SWAP2 SWAP1 POP JUMP JUMPDEST PUSH1 0x0 PUSH1 0x20 DUP3 ADD SWAP1 POP DUP2 DUP2 SUB PUSH1 0x0 DUP4 ADD MSTORE PUSH2 0x14FC DUP2 PUSH2 0x14C0 JUMP JUMPDEST SWAP1 POP SWAP2 SWAP1 POP JUMP INVALID LOG2 PUSH5 0x6970667358 0x22 SLT KECCAK256 JUMPI 0xF7 SIGNEXTEND EXTCODECOPY 0xDF JUMPDEST SWAP6 0x2B JUMPDEST KECCAK256 PUSH4 0x740C48C9 AND SWAP9 CODECOPY PUSH13 0xEAA7D2AF273C0B661C1A39C99A PUSH5 0x736F6C6343 STOP ADDMOD SLT STOP CALLER "
				},
				"gasEstimates": {
					"creation": {
						"codeDepositCost": "1086600",
						"executionCost": "infinite",
						"totalCost": "infinite"
					},
					"external": {
						"AddLiquidity(uint256,uint256)": "infinite",
						"RemoveLiquidity(uint256)": "infinite",
						"Swap(address,uint256)": "infinite",
						"balanceOf(address)": "2836",
						"reserve0()": "2474",
						"reserve1()": "2429",
						"token0()": "infinite",
						"token1()": "infinite",
						"totalSupply()": "2452"
					},
					"internal": {
						"Update(uint256,uint256)": "44241",
						"_min(uint256,uint256)": "67",
						"_sqrt(uint256)": "infinite",
						"burn(address,uint256)": "infinite",
						"mint(address,uint256)": "infinite"
					}
				},
				"methodIdentifiers": {
					"AddLiquidity(uint256,uint256)": "cb1652de",
					"RemoveLiquidity(uint256)": "9a5a8a32",
					"Swap(address,uint256)": "562c2195",
					"balanceOf(address)": "70a08231",
					"reserve0()": "443cb4bc",
					"reserve1()": "5a76f25e",
					"token0()": "0dfe1681",
					"token1()": "d21220a7",
					"totalSupply()": "18160ddd"
				}
			},
			"storageLayout": {
				"storage": [
					{
						"astId": 30,
						"contract": "Contracts/Cpamm.sol:CPAMM",
						"label": "reserve0",
						"offset": 0,
						"slot": "0",
						"type": "t_uint256"
					},
					{
						"astId": 32,
						"contract": "Contracts/Cpamm.sol:CPAMM",
						"label": "reserve1",
						"offset": 0,
						"slot": "1",
						"type": "t_uint256"
					},
					{
						"astId": 34,
						"contract": "Contracts/Cpamm.sol:CPAMM",
						"label": "totalSupply",
						"offset": 0,
						"slot": "2",
						"type": "t_uint256"
					},
					{
						"astId": 38,
						"contract": "Contracts/Cpamm.sol:CPAMM",
						"label": "balanceOf",
						"offset": 0,
						"slot": "3",
						"type": "t_mapping(t_address,t_uint256)"
					}
				],
				"types": {
					"t_address": {
						"encoding": "inplace",
						"label": "address",
						"numberOfBytes": "20"
					},
					"t_mapping(t_address,t_uint256)": {
						"encoding": "mapping",
						"key": "t_address",
						"label": "mapping(address => uint256)",
						"numberOfBytes": "32",
						"value": "t_uint256"
					},
					"t_uint256": {
						"encoding": "inplace",
						"label": "uint256",
						"numberOfBytes": "32"
					}
				}
			},
			"userdoc": {
				"kind": "user",
				"methods": {},
				"version": 1
			}
		}
	}
}