{
	"Contracts/csamm.sol": {
		"CSAMM": {
			"abi": [
				{
					"inputs": [
						{
							"internalType": "address",
							"name": "_token0",
							"type": "address"
						},
						{
							"internalType": "address",
							"name": "_token1",
							"type": "address"
						}
					],
					"stateMutability": "nonpayable",
					"type": "constructor"
				},
				{
					"inputs": [
						{
							"internalType": "uint256",
							"name": "_amount0",
							"type": "uint256"
						},
						{
							"internalType": "uint256",
							"name": "_amount1",
							"type": "uint256"
						}
					],
					"name": "AddLiquidity",
					"outputs": [
						{
							"internalType": "uint256",
							"name": "shares",
							"type": "uint256"
						}
					],
					"stateMutability": "nonpayable",
					"type": "function"
				},
				{
					"inputs": [
						{
							"internalType": "uint256",
							"name": "shares",
							"type": "uint256"
						}
					],
					"name": "RemoveLiquidity",
					"outputs": [
						{
							"internalType": "uint256",
							"name": "d0",
							"type": "uint256"
						},
						{
							"internalType": "uint256",
							"name": "d1",
							"type": "uint256"
						}
					],
					"stateMutability": "nonpayable",
					"type": "function"
				},
				{
					"inputs": [
						{
							"internalType": "address",
							"name": "",
							"type": "address"
						}
					],
					"name": "balanceOf",
					"outputs": [
						{
							"internalType": "uint256",
							"name": "",
							"type": "uint256"
						}
					],
					"stateMutability": "view",
					"type": "function"
				},
				{
					"inputs": [],
					"name": "reserve0",
					"outputs": [
						{
							"internalType": "uint256",
							"name": "",
							"type": "uint256"
						}
					],
					"stateMutability": "view",
					"type": "function"
				},
				{
					"inputs": [],
					"name": "reserve1",
					"outputs": [
						{
							"internalType": "uint256",
							"name": "",
							"type": "uint256"
						}
					],
					"stateMutability": "view",
					"type": "function"
				},
				{
					"inputs": [
						{
							"internalType": "address",
							"name": "_tokenIn",
							"type": "address"
						},
						{
							"internalType": "uint256",
							"name": "_amountIn",
							"type": "uint256"
						}
					],
					"name": "swap",
					"outputs": [
						{
							"internalType": "uint256",
							"name": "_amountOut",
							"type": "uint256"
						}
					],
					"stateMutability": "nonpayable",
					"type": "function"
				},
				{
					"inputs": [],
					"name": "token0",
					"outputs": [
						{
							"internalType": "contract IERC20",
							"name": "",
							"type": "address"
						}
					],
					"stateMutability": "view",
					"type": "function"
				},
				{
					"inputs": [],
					"name": "token1",
					"outputs": [
						{
							"internalType": "contract IERC20",
							"name": "",
							"type": "address"
						}
					],
					"stateMutability": "view",
					"type": "function"
				},
				{
					"inputs": [],
					"name": "totalSupply",
					"outputs": [
						{
							"internalType": "uint256",
							"name": "",
							"type": "uint256"
						}
					],
					"stateMutability": "view",
					"type": "function"
				}
			],
			"devdoc": {
				"kind": "dev",
				"methods": {},
				"version": 1
			},
			"evm": {
				"assembly": "    /* \"Contracts/csamm.sol\":61:2861  contract CSAMM{... */\n  mstore(0x40, 0xc0)\n    /* \"Contracts/csamm.sol\":289:413  constructor(address _token0, address _token1){... */\n  callvalue\n  dup1\n  iszero\n  tag_1\n  jumpi\n  0x00\n  dup1\n  revert\ntag_1:\n  pop\n  mload(0x40)\n  sub(codesize, bytecodeSize)\n  dup1\n  bytecodeSize\n  dup4\n  codecopy\n  dup2\n  dup2\n  add\n  0x40\n  mstore\n  dup2\n  add\n  swap1\n  tag_2\n  swap2\n  swap1\n  tag_3\n  jump\t// in\ntag_2:\n    /* \"Contracts/csamm.sol\":361:368  _token0 */\n  dup2\n    /* \"Contracts/csamm.sol\":345:369  token0 = IERC20(_token0) */\n  0xffffffffffffffffffffffffffffffffffffffff\n  and\n  0x80\n  dup2\n  0xffffffffffffffffffffffffffffffffffffffff\n  and\n  dup2\n  mstore\n  pop\n  pop\n    /* \"Contracts/csamm.sol\":397:404  _token1 */\n  dup1\n    /* \"Contracts/csamm.sol\":381:405  token1 = IERC20(_token1) */\n  0xffffffffffffffffffffffffffffffffffffffff\n  and\n  0xa0\n  dup2\n  0xffffffffffffffffffffffffffffffffffffffff\n  and\n  dup2\n  mstore\n  pop\n  pop\n    /* \"Contracts/csamm.sol\":289:413  constructor(address _token0, address _token1){... */\n  pop\n  pop\n    /* \"Contracts/csamm.sol\":61:2861  contract CSAMM{... */\n  jump(tag_6)\n    /* \"#utility.yul\":88:205   */\ntag_8:\n    /* \"#utility.yul\":197:198   */\n  0x00\n    /* \"#utility.yul\":194:195   */\n  dup1\n    /* \"#utility.yul\":187:199   */\n  revert\n    /* \"#utility.yul\":334:460   */\ntag_10:\n    /* \"#utility.yul\":371:378   */\n  0x00\n    /* \"#utility.yul\":411:453   */\n  0xffffffffffffffffffffffffffffffffffffffff\n    /* \"#utility.yul\":404:409   */\n  dup3\n    /* \"#utility.yul\":400:454   */\n  and\n    /* \"#utility.yul\":389:454   */\n  swap1\n  pop\n    /* \"#utility.yul\":334:460   */\n  swap2\n  swap1\n  pop\n  jump\t// out\n    /* \"#utility.yul\":466:562   */\ntag_11:\n    /* \"#utility.yul\":503:510   */\n  0x00\n    /* \"#utility.yul\":532:556   */\n  tag_20\n    /* \"#utility.yul\":550:555   */\n  dup3\n    /* \"#utility.yul\":532:556   */\n  tag_10\n  jump\t// in\ntag_20:\n    /* \"#utility.yul\":521:556   */\n  swap1\n  pop\n    /* \"#utility.yul\":466:562   */\n  swap2\n  swap1\n  pop\n  jump\t// out\n    /* \"#utility.yul\":568:690   */\ntag_12:\n    /* \"#utility.yul\":641:665   */\n  tag_22\n    /* \"#utility.yul\":659:664   */\n  dup2\n    /* \"#utility.yul\":641:665   */\n  tag_11\n  jump\t// in\ntag_22:\n    /* \"#utility.yul\":634:639   */\n  dup2\n    /* \"#utility.yul\":631:666   */\n  eq\n    /* \"#utility.yul\":621:684   */\n  tag_23\n  jumpi\n    /* \"#utility.yul\":680:681   */\n  0x00\n    /* \"#utility.yul\":677:678   */\n  dup1\n    /* \"#utility.yul\":670:682   */\n  revert\n    /* \"#utility.yul\":621:684   */\ntag_23:\n    /* \"#utility.yul\":568:690   */\n  pop\n  jump\t// out\n    /* \"#utility.yul\":696:839   */\ntag_13:\n    /* \"#utility.yul\":753:758   */\n  0x00\n    /* \"#utility.yul\":784:790   */\n  dup2\n    /* \"#utility.yul\":778:791   */\n  mload\n    /* \"#utility.yul\":769:791   */\n  swap1\n  pop\n    /* \"#utility.yul\":800:833   */\n  tag_25\n    /* \"#utility.yul\":827:832   */\n  dup2\n    /* \"#utility.yul\":800:833   */\n  tag_12\n  jump\t// in\ntag_25:\n    /* \"#utility.yul\":696:839   */\n  swap3\n  swap2\n  pop\n  pop\n  jump\t// out\n    /* \"#utility.yul\":845:1352   */\ntag_3:\n    /* \"#utility.yul\":924:930   */\n  0x00\n    /* \"#utility.yul\":932:938   */\n  dup1\n    /* \"#utility.yul\":981:983   */\n  0x40\n    /* \"#utility.yul\":969:978   */\n  dup4\n    /* \"#utility.yul\":960:967   */\n  dup6\n    /* \"#utility.yul\":956:979   */\n  sub\n    /* \"#utility.yul\":952:984   */\n  slt\n    /* \"#utility.yul\":949:1068   */\n  iszero\n  tag_27\n  jumpi\n    /* \"#utility.yul\":987:1066   */\n  tag_28\n  tag_8\n  jump\t// in\ntag_28:\n    /* \"#utility.yul\":949:1068   */\ntag_27:\n    /* \"#utility.yul\":1107:1108   */\n  0x00\n    /* \"#utility.yul\":1132:1196   */\n  tag_29\n    /* \"#utility.yul\":1188:1195   */\n  dup6\n    /* \"#utility.yul\":1179:1185   */\n  dup3\n    /* \"#utility.yul\":1168:1177   */\n  dup7\n    /* \"#utility.yul\":1164:1186   */\n  add\n    /* \"#utility.yul\":1132:1196   */\n  tag_13\n  jump\t// in\ntag_29:\n    /* \"#utility.yul\":1122:1196   */\n  swap3\n  pop\n    /* \"#utility.yul\":1078:1206   */\n  pop\n    /* \"#utility.yul\":1245:1247   */\n  0x20\n    /* \"#utility.yul\":1271:1335   */\n  tag_30\n    /* \"#utility.yul\":1327:1334   */\n  dup6\n    /* \"#utility.yul\":1318:1324   */\n  dup3\n    /* \"#utility.yul\":1307:1316   */\n  dup7\n    /* \"#utility.yul\":1303:1325   */\n  add\n    /* \"#utility.yul\":1271:1335   */\n  tag_13\n  jump\t// in\ntag_30:\n    /* \"#utility.yul\":1261:1335   */\n  swap2\n  pop\n    /* \"#utility.yul\":1216:1345   */\n  pop\n    /* \"#utility.yul\":845:1352   */\n  swap3\n  pop\n  swap3\n  swap1\n  pop\n  jump\t// out\n    /* \"Contracts/csamm.sol\":61:2861  contract CSAMM{... */\ntag_6:\n  mload(0x80)\n  mload(0xa0)\n  codecopy(0x00, dataOffset(sub_0), dataSize(sub_0))\n  0x00\n  assignImmutable(\"0x7fe86492ed9171487feeb17b76d71244c5fb104d897816bb03a924e5871f3fa3\")\n  0x00\n  assignImmutable(\"0x57014f1e5f1d53e43fa40624186159531d6372d1ab8f40ec7882845ca66de31d\")\n  return(0x00, dataSize(sub_0))\nstop\n\nsub_0: assembly {\n        /* \"Contracts/csamm.sol\":61:2861  contract CSAMM{... */\n      mstore(0x40, 0x80)\n      callvalue\n      dup1\n      iszero\n      tag_1\n      jumpi\n      0x00\n      dup1\n      revert\n    tag_1:\n      pop\n      jumpi(tag_2, lt(calldatasize, 0x04))\n      shr(0xe0, calldataload(0x00))\n      dup1\n      0x70a08231\n      gt\n      tag_12\n      jumpi\n      dup1\n      0x70a08231\n      eq\n      tag_7\n      jumpi\n      dup1\n      0x9a5a8a32\n      eq\n      tag_8\n      jumpi\n      dup1\n      0xcb1652de\n      eq\n      tag_9\n      jumpi\n      dup1\n      0xd004f0f7\n      eq\n      tag_10\n      jumpi\n      dup1\n      0xd21220a7\n      eq\n      tag_11\n      jumpi\n      jump(tag_2)\n    tag_12:\n      dup1\n      0x0dfe1681\n      eq\n      tag_3\n      jumpi\n      dup1\n      0x18160ddd\n      eq\n      tag_4\n      jumpi\n      dup1\n      0x443cb4bc\n      eq\n      tag_5\n      jumpi\n      dup1\n      0x5a76f25e\n      eq\n      tag_6\n      jumpi\n    tag_2:\n      0x00\n      dup1\n      revert\n        /* \"Contracts/csamm.sol\":82:112  IERC20 public immutable token0 */\n    tag_3:\n      tag_13\n      tag_14\n      jump\t// in\n    tag_13:\n      mload(0x40)\n      tag_15\n      swap2\n      swap1\n      tag_16\n      jump\t// in\n    tag_15:\n      mload(0x40)\n      dup1\n      swap2\n      sub\n      swap1\n      return\n        /* \"Contracts/csamm.sol\":210:233  uint public totalSupply */\n    tag_4:\n      tag_17\n      tag_18\n      jump\t// in\n    tag_17:\n      mload(0x40)\n      tag_19\n      swap2\n      swap1\n      tag_20\n      jump\t// in\n    tag_19:\n      mload(0x40)\n      dup1\n      swap2\n      sub\n      swap1\n      return\n        /* \"Contracts/csamm.sol\":156:176  uint public reserve0 */\n    tag_5:\n      tag_21\n      tag_22\n      jump\t// in\n    tag_21:\n      mload(0x40)\n      tag_23\n      swap2\n      swap1\n      tag_20\n      jump\t// in\n    tag_23:\n      mload(0x40)\n      dup1\n      swap2\n      sub\n      swap1\n      return\n        /* \"Contracts/csamm.sol\":183:203  uint public reserve1 */\n    tag_6:\n      tag_24\n      tag_25\n      jump\t// in\n    tag_24:\n      mload(0x40)\n      tag_26\n      swap2\n      swap1\n      tag_20\n      jump\t// in\n    tag_26:\n      mload(0x40)\n      dup1\n      swap2\n      sub\n      swap1\n      return\n        /* \"Contracts/csamm.sol\":240:282  mapping(address => uint ) public balanceOf */\n    tag_7:\n      tag_27\n      0x04\n      dup1\n      calldatasize\n      sub\n      dup2\n      add\n      swap1\n      tag_28\n      swap2\n      swap1\n      tag_29\n      jump\t// in\n    tag_28:\n      tag_30\n      jump\t// in\n    tag_27:\n      mload(0x40)\n      tag_31\n      swap2\n      swap1\n      tag_20\n      jump\t// in\n    tag_31:\n      mload(0x40)\n      dup1\n      swap2\n      sub\n      swap1\n      return\n        /* \"Contracts/csamm.sol\":2456:2856  function RemoveLiquidity(uint shares) external returns(uint d0, uint d1){... */\n    tag_8:\n      tag_32\n      0x04\n      dup1\n      calldatasize\n      sub\n      dup2\n      add\n      swap1\n      tag_33\n      swap2\n      swap1\n      tag_34\n      jump\t// in\n    tag_33:\n      tag_35\n      jump\t// in\n    tag_32:\n      mload(0x40)\n      tag_36\n      swap3\n      swap2\n      swap1\n      tag_37\n      jump\t// in\n    tag_36:\n      mload(0x40)\n      dup1\n      swap2\n      sub\n      swap1\n      return\n        /* \"Contracts/csamm.sol\":1714:2450  function AddLiquidity(uint _amount0, uint _amount1) external returns(uint shares){... */\n    tag_9:\n      tag_38\n      0x04\n      dup1\n      calldatasize\n      sub\n      dup2\n      add\n      swap1\n      tag_39\n      swap2\n      swap1\n      tag_40\n      jump\t// in\n    tag_39:\n      tag_41\n      jump\t// in\n    tag_38:\n      mload(0x40)\n      tag_42\n      swap2\n      swap1\n      tag_20\n      jump\t// in\n    tag_42:\n      mload(0x40)\n      dup1\n      swap2\n      sub\n      swap1\n      return\n        /* \"Contracts/csamm.sol\":794:1708  function swap(address _tokenIn, uint _amountIn) external returns(uint _amountOut){... */\n    tag_10:\n      tag_43\n      0x04\n      dup1\n      calldatasize\n      sub\n      dup2\n      add\n      swap1\n      tag_44\n      swap2\n      swap1\n      tag_45\n      jump\t// in\n    tag_44:\n      tag_46\n      jump\t// in\n    tag_43:\n      mload(0x40)\n      tag_47\n      swap2\n      swap1\n      tag_20\n      jump\t// in\n    tag_47:\n      mload(0x40)\n      dup1\n      swap2\n      sub\n      swap1\n      return\n        /* \"Contracts/csamm.sol\":119:149  IERC20 public immutable token1 */\n    tag_11:\n      tag_48\n      tag_49\n      jump\t// in\n    tag_48:\n      mload(0x40)\n      tag_50\n      swap2\n      swap1\n      tag_16\n      jump\t// in\n    tag_50:\n      mload(0x40)\n      dup1\n      swap2\n      sub\n      swap1\n      return\n        /* \"Contracts/csamm.sol\":82:112  IERC20 public immutable token0 */\n    tag_14:\n      immutable(\"0x57014f1e5f1d53e43fa40624186159531d6372d1ab8f40ec7882845ca66de31d\")\n      dup2\n      jump\t// out\n        /* \"Contracts/csamm.sol\":210:233  uint public totalSupply */\n    tag_18:\n      sload(0x02)\n      dup2\n      jump\t// out\n        /* \"Contracts/csamm.sol\":156:176  uint public reserve0 */\n    tag_22:\n      sload(0x00)\n      dup2\n      jump\t// out\n        /* \"Contracts/csamm.sol\":183:203  uint public reserve1 */\n    tag_25:\n      sload(0x01)\n      dup2\n      jump\t// out\n        /* \"Contracts/csamm.sol\":240:282  mapping(address => uint ) public balanceOf */\n    tag_30:\n      mstore(0x20, 0x03)\n      dup1\n      0x00\n      mstore\n      keccak256(0x00, 0x40)\n      0x00\n      swap2\n      pop\n      swap1\n      pop\n      sload\n      dup2\n      jump\t// out\n        /* \"Contracts/csamm.sol\":2456:2856  function RemoveLiquidity(uint shares) external returns(uint d0, uint d1){... */\n    tag_35:\n        /* \"Contracts/csamm.sol\":2511:2518  uint d0 */\n      0x00\n        /* \"Contracts/csamm.sol\":2520:2527  uint d1 */\n      dup1\n        /* \"Contracts/csamm.sol\":2565:2576  totalSupply */\n      sload(0x02)\n        /* \"Contracts/csamm.sol\":2556:2562  shares */\n      dup4\n        /* \"Contracts/csamm.sol\":2545:2553  reserve0 */\n      sload(0x00)\n        /* \"Contracts/csamm.sol\":2545:2562  reserve0 * shares */\n      tag_52\n      swap2\n      swap1\n      tag_53\n      jump\t// in\n    tag_52:\n        /* \"Contracts/csamm.sol\":2544:2576  (reserve0 * shares)/ totalSupply */\n      tag_54\n      swap2\n      swap1\n      tag_55\n      jump\t// in\n    tag_54:\n        /* \"Contracts/csamm.sol\":2539:2576  d0 = (reserve0 * shares)/ totalSupply */\n      swap2\n      pop\n        /* \"Contracts/csamm.sol\":2614:2625  totalSupply */\n      sload(0x02)\n        /* \"Contracts/csamm.sol\":2604:2610  shares */\n      dup4\n        /* \"Contracts/csamm.sol\":2593:2601  reserve1 */\n      sload(0x01)\n        /* \"Contracts/csamm.sol\":2593:2610  reserve1 * shares */\n      tag_56\n      swap2\n      swap1\n      tag_53\n      jump\t// in\n    tag_56:\n        /* \"Contracts/csamm.sol\":2592:2625  (reserve1 * shares) / totalSupply */\n      tag_57\n      swap2\n      swap1\n      tag_55\n      jump\t// in\n    tag_57:\n        /* \"Contracts/csamm.sol\":2587:2625  d1 = (reserve1 * shares) / totalSupply */\n      swap1\n      pop\n        /* \"Contracts/csamm.sol\":2636:2661  _burn(msg.sender, shares) */\n      tag_58\n        /* \"Contracts/csamm.sol\":2642:2652  msg.sender */\n      caller\n        /* \"Contracts/csamm.sol\":2654:2660  shares */\n      dup5\n        /* \"Contracts/csamm.sol\":2636:2641  _burn */\n      tag_59\n        /* \"Contracts/csamm.sol\":2636:2661  _burn(msg.sender, shares) */\n      jump\t// in\n    tag_58:\n        /* \"Contracts/csamm.sol\":2672:2708  update(reserve0 - d0, reserve1 - d1) */\n      tag_60\n        /* \"Contracts/csamm.sol\":2690:2692  d0 */\n      dup3\n        /* \"Contracts/csamm.sol\":2679:2687  reserve0 */\n      sload(0x00)\n        /* \"Contracts/csamm.sol\":2679:2692  reserve0 - d0 */\n      tag_61\n      swap2\n      swap1\n      tag_62\n      jump\t// in\n    tag_61:\n        /* \"Contracts/csamm.sol\":2705:2707  d1 */\n      dup3\n        /* \"Contracts/csamm.sol\":2694:2702  reserve1 */\n      sload(0x01)\n        /* \"Contracts/csamm.sol\":2694:2707  reserve1 - d1 */\n      tag_63\n      swap2\n      swap1\n      tag_62\n      jump\t// in\n    tag_63:\n        /* \"Contracts/csamm.sol\":2672:2678  update */\n      tag_64\n        /* \"Contracts/csamm.sol\":2672:2708  update(reserve0 - d0, reserve1 - d1) */\n      jump\t// in\n    tag_60:\n        /* \"Contracts/csamm.sol\":2727:2728  0 */\n      0x00\n        /* \"Contracts/csamm.sol\":2722:2724  d0 */\n      dup3\n        /* \"Contracts/csamm.sol\":2722:2728  d0 > 0 */\n      gt\n        /* \"Contracts/csamm.sol\":2719:2849  if(d0 > 0){... */\n      iszero\n      tag_65\n      jumpi\n        /* \"Contracts/csamm.sol\":2744:2750  token0 */\n      immutable(\"0x57014f1e5f1d53e43fa40624186159531d6372d1ab8f40ec7882845ca66de31d\")\n        /* \"Contracts/csamm.sol\":2744:2759  token0.transfer */\n      0xffffffffffffffffffffffffffffffffffffffff\n      and\n      0xa9059cbb\n        /* \"Contracts/csamm.sol\":2760:2770  msg.sender */\n      caller\n        /* \"Contracts/csamm.sol\":2772:2774  d0 */\n      dup5\n        /* \"Contracts/csamm.sol\":2744:2775  token0.transfer(msg.sender, d0) */\n      mload(0x40)\n      dup4\n      0xffffffff\n      and\n      0xe0\n      shl\n      dup2\n      mstore\n      0x04\n      add\n      tag_66\n      swap3\n      swap2\n      swap1\n      tag_67\n      jump\t// in\n    tag_66:\n      0x20\n      mload(0x40)\n      dup1\n      dup4\n      sub\n      dup2\n      0x00\n      dup8\n      gas\n      call\n      iszero\n      dup1\n      iszero\n      tag_69\n      jumpi\n      returndatasize\n      0x00\n      dup1\n      returndatacopy\n      revert(0x00, returndatasize)\n    tag_69:\n      pop\n      pop\n      pop\n      pop\n      mload(0x40)\n      returndatasize\n      not(0x1f)\n      0x1f\n      dup3\n      add\n      and\n      dup3\n      add\n      dup1\n      0x40\n      mstore\n      pop\n      dup2\n      add\n      swap1\n      tag_70\n      swap2\n      swap1\n      tag_71\n      jump\t// in\n    tag_70:\n      pop\n        /* \"Contracts/csamm.sol\":2719:2849  if(d0 > 0){... */\n      jump(tag_72)\n    tag_65:\n        /* \"Contracts/csamm.sol\":2806:2812  token1 */\n      immutable(\"0x7fe86492ed9171487feeb17b76d71244c5fb104d897816bb03a924e5871f3fa3\")\n        /* \"Contracts/csamm.sol\":2806:2821  token1.transfer */\n      0xffffffffffffffffffffffffffffffffffffffff\n      and\n      0xa9059cbb\n        /* \"Contracts/csamm.sol\":2822:2832  msg.sender */\n      caller\n        /* \"Contracts/csamm.sol\":2834:2836  d1 */\n      dup4\n        /* \"Contracts/csamm.sol\":2806:2837  token1.transfer(msg.sender, d1) */\n      mload(0x40)\n      dup4\n      0xffffffff\n      and\n      0xe0\n      shl\n      dup2\n      mstore\n      0x04\n      add\n      tag_73\n      swap3\n      swap2\n      swap1\n      tag_67\n      jump\t// in\n    tag_73:\n      0x20\n      mload(0x40)\n      dup1\n      dup4\n      sub\n      dup2\n      0x00\n      dup8\n      gas\n      call\n      iszero\n      dup1\n      iszero\n      tag_75\n      jumpi\n      returndatasize\n      0x00\n      dup1\n      returndatacopy\n      revert(0x00, returndatasize)\n    tag_75:\n      pop\n      pop\n      pop\n      pop\n      mload(0x40)\n      returndatasize\n      not(0x1f)\n      0x1f\n      dup3\n      add\n      and\n      dup3\n      add\n      dup1\n      0x40\n      mstore\n      pop\n      dup2\n      add\n      swap1\n      tag_76\n      swap2\n      swap1\n      tag_71\n      jump\t// in\n    tag_76:\n      pop\n        /* \"Contracts/csamm.sol\":2719:2849  if(d0 > 0){... */\n    tag_72:\n        /* \"Contracts/csamm.sol\":2456:2856  function RemoveLiquidity(uint shares) external returns(uint d0, uint d1){... */\n      swap2\n      pop\n      swap2\n      jump\t// out\n        /* \"Contracts/csamm.sol\":1714:2450  function AddLiquidity(uint _amount0, uint _amount1) external returns(uint shares){... */\n    tag_41:\n        /* \"Contracts/csamm.sol\":1783:1794  uint shares */\n      0x00\n        /* \"Contracts/csamm.sol\":1806:1812  token0 */\n      immutable(\"0x57014f1e5f1d53e43fa40624186159531d6372d1ab8f40ec7882845ca66de31d\")\n        /* \"Contracts/csamm.sol\":1806:1825  token0.transferFrom */\n      0xffffffffffffffffffffffffffffffffffffffff\n      and\n      0x23b872dd\n        /* \"Contracts/csamm.sol\":1826:1836  msg.sender */\n      caller\n        /* \"Contracts/csamm.sol\":1846:1850  this */\n      address\n        /* \"Contracts/csamm.sol\":1853:1861  _amount0 */\n      dup7\n        /* \"Contracts/csamm.sol\":1806:1862  token0.transferFrom(msg.sender, address(this), _amount0) */\n      mload(0x40)\n      dup5\n      0xffffffff\n      and\n      0xe0\n      shl\n      dup2\n      mstore\n      0x04\n      add\n      tag_78\n      swap4\n      swap3\n      swap2\n      swap1\n      tag_79\n      jump\t// in\n    tag_78:\n      0x20\n      mload(0x40)\n      dup1\n      dup4\n      sub\n      dup2\n      0x00\n      dup8\n      gas\n      call\n      iszero\n      dup1\n      iszero\n      tag_81\n      jumpi\n      returndatasize\n      0x00\n      dup1\n      returndatacopy\n      revert(0x00, returndatasize)\n    tag_81:\n      pop\n      pop\n      pop\n      pop\n      mload(0x40)\n      returndatasize\n      not(0x1f)\n      0x1f\n      dup3\n      add\n      and\n      dup3\n      add\n      dup1\n      0x40\n      mstore\n      pop\n      dup2\n      add\n      swap1\n      tag_82\n      swap2\n      swap1\n      tag_71\n      jump\t// in\n    tag_82:\n      pop\n        /* \"Contracts/csamm.sol\":1873:1879  token1 */\n      immutable(\"0x7fe86492ed9171487feeb17b76d71244c5fb104d897816bb03a924e5871f3fa3\")\n        /* \"Contracts/csamm.sol\":1873:1892  token1.transferFrom */\n      0xffffffffffffffffffffffffffffffffffffffff\n      and\n      0x23b872dd\n        /* \"Contracts/csamm.sol\":1893:1903  msg.sender */\n      caller\n        /* \"Contracts/csamm.sol\":1913:1917  this */\n      address\n        /* \"Contracts/csamm.sol\":1920:1928  _amount1 */\n      dup6\n        /* \"Contracts/csamm.sol\":1873:1929  token1.transferFrom(msg.sender, address(this), _amount1) */\n      mload(0x40)\n      dup5\n      0xffffffff\n      and\n      0xe0\n      shl\n      dup2\n      mstore\n      0x04\n      add\n      tag_83\n      swap4\n      swap3\n      swap2\n      swap1\n      tag_79\n      jump\t// in\n    tag_83:\n      0x20\n      mload(0x40)\n      dup1\n      dup4\n      sub\n      dup2\n      0x00\n      dup8\n      gas\n      call\n      iszero\n      dup1\n      iszero\n      tag_85\n      jumpi\n      returndatasize\n      0x00\n      dup1\n      returndatacopy\n      revert(0x00, returndatasize)\n    tag_85:\n      pop\n      pop\n      pop\n      pop\n      mload(0x40)\n      returndatasize\n      not(0x1f)\n      0x1f\n      dup3\n      add\n      and\n      dup3\n      add\n      dup1\n      0x40\n      mstore\n      pop\n      dup2\n      add\n      swap1\n      tag_86\n      swap2\n      swap1\n      tag_71\n      jump\t// in\n    tag_86:\n      pop\n        /* \"Contracts/csamm.sol\":1940:1949  uint bal0 */\n      0x00\n        /* \"Contracts/csamm.sol\":1952:1958  token0 */\n      immutable(\"0x57014f1e5f1d53e43fa40624186159531d6372d1ab8f40ec7882845ca66de31d\")\n        /* \"Contracts/csamm.sol\":1952:1968  token0.balanceOf */\n      0xffffffffffffffffffffffffffffffffffffffff\n      and\n      0x70a08231\n        /* \"Contracts/csamm.sol\":1977:1981  this */\n      address\n        /* \"Contracts/csamm.sol\":1952:1983  token0.balanceOf(address(this)) */\n      mload(0x40)\n      dup3\n      0xffffffff\n      and\n      0xe0\n      shl\n      dup2\n      mstore\n      0x04\n      add\n      tag_87\n      swap2\n      swap1\n      tag_88\n      jump\t// in\n    tag_87:\n      0x20\n      mload(0x40)\n      dup1\n      dup4\n      sub\n      dup2\n      dup7\n      gas\n      staticcall\n      iszero\n      dup1\n      iszero\n      tag_90\n      jumpi\n      returndatasize\n      0x00\n      dup1\n      returndatacopy\n      revert(0x00, returndatasize)\n    tag_90:\n      pop\n      pop\n      pop\n      pop\n      mload(0x40)\n      returndatasize\n      not(0x1f)\n      0x1f\n      dup3\n      add\n      and\n      dup3\n      add\n      dup1\n      0x40\n      mstore\n      pop\n      dup2\n      add\n      swap1\n      tag_91\n      swap2\n      swap1\n      tag_92\n      jump\t// in\n    tag_91:\n        /* \"Contracts/csamm.sol\":1940:1983  uint bal0 = token0.balanceOf(address(this)) */\n      swap1\n      pop\n        /* \"Contracts/csamm.sol\":1994:2003  uint bal1 */\n      0x00\n        /* \"Contracts/csamm.sol\":2006:2012  token1 */\n      immutable(\"0x7fe86492ed9171487feeb17b76d71244c5fb104d897816bb03a924e5871f3fa3\")\n        /* \"Contracts/csamm.sol\":2006:2022  token1.balanceOf */\n      0xffffffffffffffffffffffffffffffffffffffff\n      and\n      0x70a08231\n        /* \"Contracts/csamm.sol\":2031:2035  this */\n      address\n        /* \"Contracts/csamm.sol\":2006:2037  token1.balanceOf(address(this)) */\n      mload(0x40)\n      dup3\n      0xffffffff\n      and\n      0xe0\n      shl\n      dup2\n      mstore\n      0x04\n      add\n      tag_93\n      swap2\n      swap1\n      tag_88\n      jump\t// in\n    tag_93:\n      0x20\n      mload(0x40)\n      dup1\n      dup4\n      sub\n      dup2\n      dup7\n      gas\n      staticcall\n      iszero\n      dup1\n      iszero\n      tag_95\n      jumpi\n      returndatasize\n      0x00\n      dup1\n      returndatacopy\n      revert(0x00, returndatasize)\n    tag_95:\n      pop\n      pop\n      pop\n      pop\n      mload(0x40)\n      returndatasize\n      not(0x1f)\n      0x1f\n      dup3\n      add\n      and\n      dup3\n      add\n      dup1\n      0x40\n      mstore\n      pop\n      dup2\n      add\n      swap1\n      tag_96\n      swap2\n      swap1\n      tag_92\n      jump\t// in\n    tag_96:\n        /* \"Contracts/csamm.sol\":1994:2037  uint bal1 = token1.balanceOf(address(this)) */\n      swap1\n      pop\n        /* \"Contracts/csamm.sol\":2101:2108  uint d0 */\n      0x00\n        /* \"Contracts/csamm.sol\":2118:2126  reserve0 */\n      dup1\n      sload\n        /* \"Contracts/csamm.sol\":2111:2115  bal0 */\n      dup4\n        /* \"Contracts/csamm.sol\":2111:2126  bal0 - reserve0 */\n      tag_97\n      swap2\n      swap1\n      tag_62\n      jump\t// in\n    tag_97:\n        /* \"Contracts/csamm.sol\":2101:2126  uint d0 = bal0 - reserve0 */\n      swap1\n      pop\n        /* \"Contracts/csamm.sol\":2137:2144  uint d1 */\n      0x00\n        /* \"Contracts/csamm.sol\":2154:2162  reserve1 */\n      sload(0x01)\n        /* \"Contracts/csamm.sol\":2147:2151  bal1 */\n      dup4\n        /* \"Contracts/csamm.sol\":2147:2162  bal1 - reserve1 */\n      tag_98\n      swap2\n      swap1\n      tag_62\n      jump\t// in\n    tag_98:\n        /* \"Contracts/csamm.sol\":2137:2162  uint d1 = bal1 - reserve1 */\n      swap1\n      pop\n        /* \"Contracts/csamm.sol\":2191:2192  0 */\n      0x00\n        /* \"Contracts/csamm.sol\":2176:2187  totalSupply */\n      sload(0x02)\n        /* \"Contracts/csamm.sol\":2176:2192  totalSupply == 0 */\n      sub\n        /* \"Contracts/csamm.sol\":2173:2335  if(totalSupply == 0){... */\n      tag_99\n      jumpi\n        /* \"Contracts/csamm.sol\":2222:2224  d1 */\n      dup1\n        /* \"Contracts/csamm.sol\":2217:2219  d0 */\n      dup3\n        /* \"Contracts/csamm.sol\":2217:2224  d0 + d1 */\n      tag_100\n      swap2\n      swap1\n      tag_101\n      jump\t// in\n    tag_100:\n        /* \"Contracts/csamm.sol\":2208:2224  shares = d0 + d1 */\n      swap5\n      pop\n        /* \"Contracts/csamm.sol\":2173:2335  if(totalSupply == 0){... */\n      jump(tag_102)\n    tag_99:\n        /* \"Contracts/csamm.sol\":2313:2321  reserve1 */\n      sload(0x01)\n        /* \"Contracts/csamm.sol\":2302:2310  reserve0 */\n      sload(0x00)\n        /* \"Contracts/csamm.sol\":2302:2321  reserve0 + reserve1 */\n      tag_103\n      swap2\n      swap1\n      tag_101\n      jump\t// in\n    tag_103:\n        /* \"Contracts/csamm.sol\":2287:2298  totalSupply */\n      sload(0x02)\n        /* \"Contracts/csamm.sol\":2281:2283  d1 */\n      dup3\n        /* \"Contracts/csamm.sol\":2276:2278  d0 */\n      dup5\n        /* \"Contracts/csamm.sol\":2276:2283  d0 + d1 */\n      tag_104\n      swap2\n      swap1\n      tag_101\n      jump\t// in\n    tag_104:\n        /* \"Contracts/csamm.sol\":2275:2298  (d0 + d1) * totalSupply */\n      tag_105\n      swap2\n      swap1\n      tag_53\n      jump\t// in\n    tag_105:\n        /* \"Contracts/csamm.sol\":2275:2322  (d0 + d1) * totalSupply / (reserve0 + reserve1) */\n      tag_106\n      swap2\n      swap1\n      tag_55\n      jump\t// in\n    tag_106:\n        /* \"Contracts/csamm.sol\":2265:2323  shares = ((d0 + d1) * totalSupply / (reserve0 + reserve1)) */\n      swap5\n      pop\n        /* \"Contracts/csamm.sol\":2173:2335  if(totalSupply == 0){... */\n    tag_102:\n        /* \"Contracts/csamm.sol\":2362:2363  0 */\n      0x00\n        /* \"Contracts/csamm.sol\":2353:2359  shares */\n      dup6\n        /* \"Contracts/csamm.sol\":2353:2363  shares > 0 */\n      gt\n        /* \"Contracts/csamm.sol\":2345:2377  require(shares > 0, \"Share = 0\") */\n      tag_107\n      jumpi\n      mload(0x40)\n      0x08c379a000000000000000000000000000000000000000000000000000000000\n      dup2\n      mstore\n      0x04\n      add\n      tag_108\n      swap1\n      tag_109\n      jump\t// in\n    tag_108:\n      mload(0x40)\n      dup1\n      swap2\n      sub\n      swap1\n      revert\n    tag_107:\n        /* \"Contracts/csamm.sol\":2388:2413  _mint(msg.sender, shares) */\n      tag_110\n        /* \"Contracts/csamm.sol\":2394:2404  msg.sender */\n      caller\n        /* \"Contracts/csamm.sol\":2406:2412  shares */\n      dup7\n        /* \"Contracts/csamm.sol\":2388:2393  _mint */\n      tag_111\n        /* \"Contracts/csamm.sol\":2388:2413  _mint(msg.sender, shares) */\n      jump\t// in\n    tag_110:\n        /* \"Contracts/csamm.sol\":2424:2442  update(bal0, bal1) */\n      tag_112\n        /* \"Contracts/csamm.sol\":2431:2435  bal0 */\n      dup5\n        /* \"Contracts/csamm.sol\":2437:2441  bal1 */\n      dup5\n        /* \"Contracts/csamm.sol\":2424:2430  update */\n      tag_64\n        /* \"Contracts/csamm.sol\":2424:2442  update(bal0, bal1) */\n      jump\t// in\n    tag_112:\n        /* \"Contracts/csamm.sol\":1795:2450  {... */\n      pop\n      pop\n      pop\n      pop\n        /* \"Contracts/csamm.sol\":1714:2450  function AddLiquidity(uint _amount0, uint _amount1) external returns(uint shares){... */\n      swap3\n      swap2\n      pop\n      pop\n      jump\t// out\n        /* \"Contracts/csamm.sol\":794:1708  function swap(address _tokenIn, uint _amountIn) external returns(uint _amountOut){... */\n    tag_46:\n        /* \"Contracts/csamm.sol\":859:874  uint _amountOut */\n      0x00\n        /* \"Contracts/csamm.sol\":914:920  token0 */\n      immutable(\"0x57014f1e5f1d53e43fa40624186159531d6372d1ab8f40ec7882845ca66de31d\")\n        /* \"Contracts/csamm.sol\":894:921  _tokenIn == address(token0) */\n      0xffffffffffffffffffffffffffffffffffffffff\n      and\n        /* \"Contracts/csamm.sol\":894:902  _tokenIn */\n      dup4\n        /* \"Contracts/csamm.sol\":894:921  _tokenIn == address(token0) */\n      0xffffffffffffffffffffffffffffffffffffffff\n      and\n      eq\n        /* \"Contracts/csamm.sol\":894:952  _tokenIn == address(token0) || _tokenIn == address(token1) */\n      dup1\n      tag_114\n      jumpi\n      pop\n        /* \"Contracts/csamm.sol\":945:951  token1 */\n      immutable(\"0x7fe86492ed9171487feeb17b76d71244c5fb104d897816bb03a924e5871f3fa3\")\n        /* \"Contracts/csamm.sol\":925:952  _tokenIn == address(token1) */\n      0xffffffffffffffffffffffffffffffffffffffff\n      and\n        /* \"Contracts/csamm.sol\":925:933  _tokenIn */\n      dup4\n        /* \"Contracts/csamm.sol\":925:952  _tokenIn == address(token1) */\n      0xffffffffffffffffffffffffffffffffffffffff\n      and\n      eq\n        /* \"Contracts/csamm.sol\":894:952  _tokenIn == address(token0) || _tokenIn == address(token1) */\n    tag_114:\n        /* \"Contracts/csamm.sol\":886:970  require(_tokenIn == address(token0) || _tokenIn == address(token1), \"Invalid Token\") */\n      tag_115\n      jumpi\n      mload(0x40)\n      0x08c379a000000000000000000000000000000000000000000000000000000000\n      dup2\n      mstore\n      0x04\n      add\n      tag_116\n      swap1\n      tag_117\n      jump\t// in\n    tag_116:\n      mload(0x40)\n      dup1\n      swap2\n      sub\n      swap1\n      revert\n    tag_115:\n        /* \"Contracts/csamm.sol\":981:994  bool isToken0 */\n      0x00\n        /* \"Contracts/csamm.sol\":1017:1023  token0 */\n      immutable(\"0x57014f1e5f1d53e43fa40624186159531d6372d1ab8f40ec7882845ca66de31d\")\n        /* \"Contracts/csamm.sol\":997:1024  _tokenIn == address(token0) */\n      0xffffffffffffffffffffffffffffffffffffffff\n      and\n        /* \"Contracts/csamm.sol\":997:1005  _tokenIn */\n      dup5\n        /* \"Contracts/csamm.sol\":997:1024  _tokenIn == address(token0) */\n      0xffffffffffffffffffffffffffffffffffffffff\n      and\n      eq\n        /* \"Contracts/csamm.sol\":981:1024  bool isToken0 = _tokenIn == address(token0) */\n      swap1\n      pop\n        /* \"Contracts/csamm.sol\":1036:1050  IERC20 tokenIn */\n      0x00\n        /* \"Contracts/csamm.sol\":1052:1067  IERC20 tokenOut */\n      dup1\n        /* \"Contracts/csamm.sol\":1069:1083  uint reserveIn */\n      0x00\n        /* \"Contracts/csamm.sol\":1085:1100  uint reserveOut */\n      dup1\n        /* \"Contracts/csamm.sol\":1104:1112  isToken0 */\n      dup5\n        /* \"Contracts/csamm.sol\":1104:1212  isToken0 ... */\n      tag_118\n      jumpi\n        /* \"Contracts/csamm.sol\":1177:1183  token1 */\n      immutable(\"0x7fe86492ed9171487feeb17b76d71244c5fb104d897816bb03a924e5871f3fa3\")\n        /* \"Contracts/csamm.sol\":1185:1191  token0 */\n      immutable(\"0x57014f1e5f1d53e43fa40624186159531d6372d1ab8f40ec7882845ca66de31d\")\n        /* \"Contracts/csamm.sol\":1193:1201  reserve1 */\n      sload(0x01)\n        /* \"Contracts/csamm.sol\":1203:1211  reserve0 */\n      sload(0x00)\n        /* \"Contracts/csamm.sol\":1104:1212  isToken0 ... */\n      jump(tag_119)\n    tag_118:\n        /* \"Contracts/csamm.sol\":1127:1133  token0 */\n      immutable(\"0x57014f1e5f1d53e43fa40624186159531d6372d1ab8f40ec7882845ca66de31d\")\n        /* \"Contracts/csamm.sol\":1135:1141  token1 */\n      immutable(\"0x7fe86492ed9171487feeb17b76d71244c5fb104d897816bb03a924e5871f3fa3\")\n        /* \"Contracts/csamm.sol\":1143:1151  reserve0 */\n      sload(0x00)\n        /* \"Contracts/csamm.sol\":1153:1161  reserve1 */\n      sload(0x01)\n        /* \"Contracts/csamm.sol\":1104:1212  isToken0 ... */\n    tag_119:\n        /* \"Contracts/csamm.sol\":1035:1212  (IERC20 tokenIn, IERC20 tokenOut, uint reserveIn, uint reserveOut) = isToken0 ... */\n      swap4\n      pop\n      swap4\n      pop\n      swap4\n      pop\n      swap4\n      pop\n        /* \"Contracts/csamm.sol\":1252:1259  tokenIn */\n      dup4\n        /* \"Contracts/csamm.sol\":1252:1272  tokenIn.transferFrom */\n      0xffffffffffffffffffffffffffffffffffffffff\n      and\n      0x23b872dd\n        /* \"Contracts/csamm.sol\":1273:1283  msg.sender */\n      caller\n        /* \"Contracts/csamm.sol\":1293:1297  this */\n      address\n        /* \"Contracts/csamm.sol\":1300:1309  _amountIn */\n      dup11\n        /* \"Contracts/csamm.sol\":1252:1310  tokenIn.transferFrom(msg.sender, address(this), _amountIn) */\n      mload(0x40)\n      dup5\n      0xffffffff\n      and\n      0xe0\n      shl\n      dup2\n      mstore\n      0x04\n      add\n      tag_120\n      swap4\n      swap3\n      swap2\n      swap1\n      tag_79\n      jump\t// in\n    tag_120:\n      0x20\n      mload(0x40)\n      dup1\n      dup4\n      sub\n      dup2\n      0x00\n      dup8\n      gas\n      call\n      iszero\n      dup1\n      iszero\n      tag_122\n      jumpi\n      returndatasize\n      0x00\n      dup1\n      returndatacopy\n      revert(0x00, returndatasize)\n    tag_122:\n      pop\n      pop\n      pop\n      pop\n      mload(0x40)\n      returndatasize\n      not(0x1f)\n      0x1f\n      dup3\n      add\n      and\n      dup3\n      add\n      dup1\n      0x40\n      mstore\n      pop\n      dup2\n      add\n      swap1\n      tag_123\n      swap2\n      swap1\n      tag_71\n      jump\t// in\n    tag_123:\n      pop\n        /* \"Contracts/csamm.sol\":1321:1334  uint amountIn */\n      0x00\n        /* \"Contracts/csamm.sol\":1372:1381  reserveIn */\n      dup3\n        /* \"Contracts/csamm.sol\":1337:1344  tokenIn */\n      dup6\n        /* \"Contracts/csamm.sol\":1337:1354  tokenIn.balanceOf */\n      0xffffffffffffffffffffffffffffffffffffffff\n      and\n      0x70a08231\n        /* \"Contracts/csamm.sol\":1363:1367  this */\n      address\n        /* \"Contracts/csamm.sol\":1337:1369  tokenIn.balanceOf(address(this)) */\n      mload(0x40)\n      dup3\n      0xffffffff\n      and\n      0xe0\n      shl\n      dup2\n      mstore\n      0x04\n      add\n      tag_124\n      swap2\n      swap1\n      tag_88\n      jump\t// in\n    tag_124:\n      0x20\n      mload(0x40)\n      dup1\n      dup4\n      sub\n      dup2\n      dup7\n      gas\n      staticcall\n      iszero\n      dup1\n      iszero\n      tag_126\n      jumpi\n      returndatasize\n      0x00\n      dup1\n      returndatacopy\n      revert(0x00, returndatasize)\n    tag_126:\n      pop\n      pop\n      pop\n      pop\n      mload(0x40)\n      returndatasize\n      not(0x1f)\n      0x1f\n      dup3\n      add\n      and\n      dup3\n      add\n      dup1\n      0x40\n      mstore\n      pop\n      dup2\n      add\n      swap1\n      tag_127\n      swap2\n      swap1\n      tag_92\n      jump\t// in\n    tag_127:\n        /* \"Contracts/csamm.sol\":1337:1381  tokenIn.balanceOf(address(this)) - reserveIn */\n      tag_128\n      swap2\n      swap1\n      tag_62\n      jump\t// in\n    tag_128:\n        /* \"Contracts/csamm.sol\":1321:1381  uint amountIn = tokenIn.balanceOf(address(this)) - reserveIn */\n      swap1\n      pop\n        /* \"Contracts/csamm.sol\":1422:1426  1000 */\n      0x03e8\n        /* \"Contracts/csamm.sol\":1417:1420  997 */\n      0x03e5\n        /* \"Contracts/csamm.sol\":1406:1414  amountIn */\n      dup3\n        /* \"Contracts/csamm.sol\":1406:1420  amountIn * 997 */\n      tag_129\n      swap2\n      swap1\n      tag_53\n      jump\t// in\n    tag_129:\n        /* \"Contracts/csamm.sol\":1405:1426  (amountIn * 997)/1000 */\n      tag_130\n      swap2\n      swap1\n      tag_55\n      jump\t// in\n    tag_130:\n        /* \"Contracts/csamm.sol\":1392:1426  _amountOut = (amountIn * 997)/1000 */\n      swap7\n      pop\n        /* \"Contracts/csamm.sol\":1467:1476  uint res0 */\n      0x00\n        /* \"Contracts/csamm.sol\":1478:1487  uint res1 */\n      dup1\n        /* \"Contracts/csamm.sol\":1491:1499  isToken0 */\n      dup8\n        /* \"Contracts/csamm.sol\":1491:1619  isToken0 ... */\n      tag_131\n      jumpi\n        /* \"Contracts/csamm.sol\":1586:1596  _amountOut */\n      dup9\n        /* \"Contracts/csamm.sol\":1573:1583  reserveOut */\n      dup5\n        /* \"Contracts/csamm.sol\":1573:1596  reserveOut - _amountOut */\n      tag_132\n      swap2\n      swap1\n      tag_62\n      jump\t// in\n    tag_132:\n        /* \"Contracts/csamm.sol\":1610:1618  amountIn */\n      dup4\n        /* \"Contracts/csamm.sol\":1598:1607  reserveIn */\n      dup7\n        /* \"Contracts/csamm.sol\":1598:1618  reserveIn + amountIn */\n      tag_133\n      swap2\n      swap1\n      tag_101\n      jump\t// in\n    tag_133:\n        /* \"Contracts/csamm.sol\":1491:1619  isToken0 ... */\n      jump(tag_134)\n    tag_131:\n        /* \"Contracts/csamm.sol\":1525:1534  _amountIn */\n      dup10\n        /* \"Contracts/csamm.sol\":1513:1522  reserveIn */\n      dup6\n        /* \"Contracts/csamm.sol\":1513:1534  reserveIn + _amountIn */\n      tag_135\n      swap2\n      swap1\n      tag_101\n      jump\t// in\n    tag_135:\n        /* \"Contracts/csamm.sol\":1549:1559  _amountOut */\n      dup10\n        /* \"Contracts/csamm.sol\":1536:1546  reserveOut */\n      dup6\n        /* \"Contracts/csamm.sol\":1536:1559  reserveOut - _amountOut */\n      tag_136\n      swap2\n      swap1\n      tag_62\n      jump\t// in\n    tag_136:\n        /* \"Contracts/csamm.sol\":1491:1619  isToken0 ... */\n    tag_134:\n        /* \"Contracts/csamm.sol\":1466:1619  (uint res0, uint res1) = isToken0 ... */\n      swap2\n      pop\n      swap2\n      pop\n        /* \"Contracts/csamm.sol\":1630:1648  update(res0, res1) */\n      tag_137\n        /* \"Contracts/csamm.sol\":1637:1641  res0 */\n      dup3\n        /* \"Contracts/csamm.sol\":1643:1647  res1 */\n      dup3\n        /* \"Contracts/csamm.sol\":1630:1636  update */\n      tag_64\n        /* \"Contracts/csamm.sol\":1630:1648  update(res0, res1) */\n      jump\t// in\n    tag_137:\n        /* \"Contracts/csamm.sol\":1659:1667  tokenOut */\n      dup6\n        /* \"Contracts/csamm.sol\":1659:1676  tokenOut.transfer */\n      0xffffffffffffffffffffffffffffffffffffffff\n      and\n      0xa9059cbb\n        /* \"Contracts/csamm.sol\":1677:1687  msg.sender */\n      caller\n        /* \"Contracts/csamm.sol\":1689:1699  _amountOut */\n      dup12\n        /* \"Contracts/csamm.sol\":1659:1700  tokenOut.transfer(msg.sender, _amountOut) */\n      mload(0x40)\n      dup4\n      0xffffffff\n      and\n      0xe0\n      shl\n      dup2\n      mstore\n      0x04\n      add\n      tag_138\n      swap3\n      swap2\n      swap1\n      tag_67\n      jump\t// in\n    tag_138:\n      0x20\n      mload(0x40)\n      dup1\n      dup4\n      sub\n      dup2\n      0x00\n      dup8\n      gas\n      call\n      iszero\n      dup1\n      iszero\n      tag_140\n      jumpi\n      returndatasize\n      0x00\n      dup1\n      returndatacopy\n      revert(0x00, returndatasize)\n    tag_140:\n      pop\n      pop\n      pop\n      pop\n      mload(0x40)\n      returndatasize\n      not(0x1f)\n      0x1f\n      dup3\n      add\n      and\n      dup3\n      add\n      dup1\n      0x40\n      mstore\n      pop\n      dup2\n      add\n      swap1\n      tag_141\n      swap2\n      swap1\n      tag_71\n      jump\t// in\n    tag_141:\n      pop\n        /* \"Contracts/csamm.sol\":875:1708  {... */\n      pop\n      pop\n      pop\n      pop\n      pop\n      pop\n      pop\n      pop\n        /* \"Contracts/csamm.sol\":794:1708  function swap(address _tokenIn, uint _amountIn) external returns(uint _amountOut){... */\n      swap3\n      swap2\n      pop\n      pop\n      jump\t// out\n        /* \"Contracts/csamm.sol\":119:149  IERC20 public immutable token1 */\n    tag_49:\n      immutable(\"0x7fe86492ed9171487feeb17b76d71244c5fb104d897816bb03a924e5871f3fa3\")\n      dup2\n      jump\t// out\n        /* \"Contracts/csamm.sol\":549:676  function _burn(address _from, uint amount) private{... */\n    tag_59:\n        /* \"Contracts/csamm.sol\":630:636  amount */\n      dup1\n        /* \"Contracts/csamm.sol\":610:619  balanceOf */\n      0x03\n        /* \"Contracts/csamm.sol\":610:626  balanceOf[_from] */\n      0x00\n        /* \"Contracts/csamm.sol\":620:625  _from */\n      dup5\n        /* \"Contracts/csamm.sol\":610:626  balanceOf[_from] */\n      0xffffffffffffffffffffffffffffffffffffffff\n      and\n      0xffffffffffffffffffffffffffffffffffffffff\n      and\n      dup2\n      mstore\n      0x20\n      add\n      swap1\n      dup2\n      mstore\n      0x20\n      add\n      0x00\n      keccak256\n      0x00\n        /* \"Contracts/csamm.sol\":610:636  balanceOf[_from] -= amount */\n      dup3\n      dup3\n      sload\n      tag_143\n      swap2\n      swap1\n      tag_62\n      jump\t// in\n    tag_143:\n      swap3\n      pop\n      pop\n      dup2\n      swap1\n      sstore\n      pop\n        /* \"Contracts/csamm.sol\":662:668  amount */\n      dup1\n        /* \"Contracts/csamm.sol\":647:658  totalSupply */\n      0x02\n      0x00\n        /* \"Contracts/csamm.sol\":647:668  totalSupply -= amount */\n      dup3\n      dup3\n      sload\n      tag_144\n      swap2\n      swap1\n      tag_62\n      jump\t// in\n    tag_144:\n      swap3\n      pop\n      pop\n      dup2\n      swap1\n      sstore\n      pop\n        /* \"Contracts/csamm.sol\":549:676  function _burn(address _from, uint amount) private{... */\n      pop\n      pop\n      jump\t// out\n        /* \"Contracts/csamm.sol\":682:788  function update (uint res0, uint res1) private{... */\n    tag_64:\n        /* \"Contracts/csamm.sol\":750:754  res0 */\n      dup2\n        /* \"Contracts/csamm.sol\":739:747  reserve0 */\n      0x00\n        /* \"Contracts/csamm.sol\":739:754  reserve0 = res0 */\n      dup2\n      swap1\n      sstore\n      pop\n        /* \"Contracts/csamm.sol\":776:780  res1 */\n      dup1\n        /* \"Contracts/csamm.sol\":765:773  reserve1 */\n      0x01\n        /* \"Contracts/csamm.sol\":765:780  reserve1 = res1 */\n      dup2\n      swap1\n      sstore\n      pop\n        /* \"Contracts/csamm.sol\":682:788  function update (uint res0, uint res1) private{... */\n      pop\n      pop\n      jump\t// out\n        /* \"Contracts/csamm.sol\":419:543  function _mint(address _to, uint amount) private {... */\n    tag_111:\n        /* \"Contracts/csamm.sol\":497:503  amount */\n      dup1\n        /* \"Contracts/csamm.sol\":479:488  balanceOf */\n      0x03\n        /* \"Contracts/csamm.sol\":479:493  balanceOf[_to] */\n      0x00\n        /* \"Contracts/csamm.sol\":489:492  _to */\n      dup5\n        /* \"Contracts/csamm.sol\":479:493  balanceOf[_to] */\n      0xffffffffffffffffffffffffffffffffffffffff\n      and\n      0xffffffffffffffffffffffffffffffffffffffff\n      and\n      dup2\n      mstore\n      0x20\n      add\n      swap1\n      dup2\n      mstore\n      0x20\n      add\n      0x00\n      keccak256\n      0x00\n        /* \"Contracts/csamm.sol\":479:503  balanceOf[_to] += amount */\n      dup3\n      dup3\n      sload\n      tag_147\n      swap2\n      swap1\n      tag_101\n      jump\t// in\n    tag_147:\n      swap3\n      pop\n      pop\n      dup2\n      swap1\n      sstore\n      pop\n        /* \"Contracts/csamm.sol\":529:535  amount */\n      dup1\n        /* \"Contracts/csamm.sol\":514:525  totalSupply */\n      0x02\n      0x00\n        /* \"Contracts/csamm.sol\":514:535  totalSupply += amount */\n      dup3\n      dup3\n      sload\n      tag_148\n      swap2\n      swap1\n      tag_101\n      jump\t// in\n    tag_148:\n      swap3\n      pop\n      pop\n      dup2\n      swap1\n      sstore\n      pop\n        /* \"Contracts/csamm.sol\":419:543  function _mint(address _to, uint amount) private {... */\n      pop\n      pop\n      jump\t// out\n        /* \"#utility.yul\":7:133   */\n    tag_149:\n        /* \"#utility.yul\":44:51   */\n      0x00\n        /* \"#utility.yul\":84:126   */\n      0xffffffffffffffffffffffffffffffffffffffff\n        /* \"#utility.yul\":77:82   */\n      dup3\n        /* \"#utility.yul\":73:127   */\n      and\n        /* \"#utility.yul\":62:127   */\n      swap1\n      pop\n        /* \"#utility.yul\":7:133   */\n      swap2\n      swap1\n      pop\n      jump\t// out\n        /* \"#utility.yul\":139:199   */\n    tag_150:\n        /* \"#utility.yul\":167:170   */\n      0x00\n        /* \"#utility.yul\":188:193   */\n      dup2\n        /* \"#utility.yul\":181:193   */\n      swap1\n      pop\n        /* \"#utility.yul\":139:199   */\n      swap2\n      swap1\n      pop\n      jump\t// out\n        /* \"#utility.yul\":205:347   */\n    tag_151:\n        /* \"#utility.yul\":255:264   */\n      0x00\n        /* \"#utility.yul\":288:341   */\n      tag_181\n        /* \"#utility.yul\":306:340   */\n      tag_182\n        /* \"#utility.yul\":315:339   */\n      tag_183\n        /* \"#utility.yul\":333:338   */\n      dup5\n        /* \"#utility.yul\":315:339   */\n      tag_149\n      jump\t// in\n    tag_183:\n        /* \"#utility.yul\":306:340   */\n      tag_150\n      jump\t// in\n    tag_182:\n        /* \"#utility.yul\":288:341   */\n      tag_149\n      jump\t// in\n    tag_181:\n        /* \"#utility.yul\":275:341   */\n      swap1\n      pop\n        /* \"#utility.yul\":205:347   */\n      swap2\n      swap1\n      pop\n      jump\t// out\n        /* \"#utility.yul\":353:479   */\n    tag_152:\n        /* \"#utility.yul\":403:412   */\n      0x00\n        /* \"#utility.yul\":436:473   */\n      tag_185\n        /* \"#utility.yul\":467:472   */\n      dup3\n        /* \"#utility.yul\":436:473   */\n      tag_151\n      jump\t// in\n    tag_185:\n        /* \"#utility.yul\":423:473   */\n      swap1\n      pop\n        /* \"#utility.yul\":353:479   */\n      swap2\n      swap1\n      pop\n      jump\t// out\n        /* \"#utility.yul\":485:624   */\n    tag_153:\n        /* \"#utility.yul\":548:557   */\n      0x00\n        /* \"#utility.yul\":581:618   */\n      tag_187\n        /* \"#utility.yul\":612:617   */\n      dup3\n        /* \"#utility.yul\":581:618   */\n      tag_152\n      jump\t// in\n    tag_187:\n        /* \"#utility.yul\":568:618   */\n      swap1\n      pop\n        /* \"#utility.yul\":485:624   */\n      swap2\n      swap1\n      pop\n      jump\t// out\n        /* \"#utility.yul\":630:787   */\n    tag_154:\n        /* \"#utility.yul\":730:780   */\n      tag_189\n        /* \"#utility.yul\":774:779   */\n      dup2\n        /* \"#utility.yul\":730:780   */\n      tag_153\n      jump\t// in\n    tag_189:\n        /* \"#utility.yul\":725:728   */\n      dup3\n        /* \"#utility.yul\":718:781   */\n      mstore\n        /* \"#utility.yul\":630:787   */\n      pop\n      pop\n      jump\t// out\n        /* \"#utility.yul\":793:1041   */\n    tag_16:\n        /* \"#utility.yul\":899:903   */\n      0x00\n        /* \"#utility.yul\":937:939   */\n      0x20\n        /* \"#utility.yul\":926:935   */\n      dup3\n        /* \"#utility.yul\":922:940   */\n      add\n        /* \"#utility.yul\":914:940   */\n      swap1\n      pop\n        /* \"#utility.yul\":950:1034   */\n      tag_191\n        /* \"#utility.yul\":1031:1032   */\n      0x00\n        /* \"#utility.yul\":1020:1029   */\n      dup4\n        /* \"#utility.yul\":1016:1033   */\n      add\n        /* \"#utility.yul\":1007:1013   */\n      dup5\n        /* \"#utility.yul\":950:1034   */\n      tag_154\n      jump\t// in\n    tag_191:\n        /* \"#utility.yul\":793:1041   */\n      swap3\n      swap2\n      pop\n      pop\n      jump\t// out\n        /* \"#utility.yul\":1047:1124   */\n    tag_155:\n        /* \"#utility.yul\":1084:1091   */\n      0x00\n        /* \"#utility.yul\":1113:1118   */\n      dup2\n        /* \"#utility.yul\":1102:1118   */\n      swap1\n      pop\n        /* \"#utility.yul\":1047:1124   */\n      swap2\n      swap1\n      pop\n      jump\t// out\n        /* \"#utility.yul\":1130:1248   */\n    tag_156:\n        /* \"#utility.yul\":1217:1241   */\n      tag_194\n        /* \"#utility.yul\":1235:1240   */\n      dup2\n        /* \"#utility.yul\":1217:1241   */\n      tag_155\n      jump\t// in\n    tag_194:\n        /* \"#utility.yul\":1212:1215   */\n      dup3\n        /* \"#utility.yul\":1205:1242   */\n      mstore\n        /* \"#utility.yul\":1130:1248   */\n      pop\n      pop\n      jump\t// out\n        /* \"#utility.yul\":1254:1476   */\n    tag_20:\n        /* \"#utility.yul\":1347:1351   */\n      0x00\n        /* \"#utility.yul\":1385:1387   */\n      0x20\n        /* \"#utility.yul\":1374:1383   */\n      dup3\n        /* \"#utility.yul\":1370:1388   */\n      add\n        /* \"#utility.yul\":1362:1388   */\n      swap1\n      pop\n        /* \"#utility.yul\":1398:1469   */\n      tag_196\n        /* \"#utility.yul\":1466:1467   */\n      0x00\n        /* \"#utility.yul\":1455:1464   */\n      dup4\n        /* \"#utility.yul\":1451:1468   */\n      add\n        /* \"#utility.yul\":1442:1448   */\n      dup5\n        /* \"#utility.yul\":1398:1469   */\n      tag_156\n      jump\t// in\n    tag_196:\n        /* \"#utility.yul\":1254:1476   */\n      swap3\n      swap2\n      pop\n      pop\n      jump\t// out\n        /* \"#utility.yul\":1563:1680   */\n    tag_158:\n        /* \"#utility.yul\":1672:1673   */\n      0x00\n        /* \"#utility.yul\":1669:1670   */\n      dup1\n        /* \"#utility.yul\":1662:1674   */\n      revert\n        /* \"#utility.yul\":1809:1905   */\n    tag_160:\n        /* \"#utility.yul\":1846:1853   */\n      0x00\n        /* \"#utility.yul\":1875:1899   */\n      tag_201\n        /* \"#utility.yul\":1893:1898   */\n      dup3\n        /* \"#utility.yul\":1875:1899   */\n      tag_149\n      jump\t// in\n    tag_201:\n        /* \"#utility.yul\":1864:1899   */\n      swap1\n      pop\n        /* \"#utility.yul\":1809:1905   */\n      swap2\n      swap1\n      pop\n      jump\t// out\n        /* \"#utility.yul\":1911:2033   */\n    tag_161:\n        /* \"#utility.yul\":1984:2008   */\n      tag_203\n        /* \"#utility.yul\":2002:2007   */\n      dup2\n        /* \"#utility.yul\":1984:2008   */\n      tag_160\n      jump\t// in\n    tag_203:\n        /* \"#utility.yul\":1977:1982   */\n      dup2\n        /* \"#utility.yul\":1974:2009   */\n      eq\n        /* \"#utility.yul\":1964:2027   */\n      tag_204\n      jumpi\n        /* \"#utility.yul\":2023:2024   */\n      0x00\n        /* \"#utility.yul\":2020:2021   */\n      dup1\n        /* \"#utility.yul\":2013:2025   */\n      revert\n        /* \"#utility.yul\":1964:2027   */\n    tag_204:\n        /* \"#utility.yul\":1911:2033   */\n      pop\n      jump\t// out\n        /* \"#utility.yul\":2039:2178   */\n    tag_162:\n        /* \"#utility.yul\":2085:2090   */\n      0x00\n        /* \"#utility.yul\":2123:2129   */\n      dup2\n        /* \"#utility.yul\":2110:2130   */\n      calldataload\n        /* \"#utility.yul\":2101:2130   */\n      swap1\n      pop\n        /* \"#utility.yul\":2139:2172   */\n      tag_206\n        /* \"#utility.yul\":2166:2171   */\n      dup2\n        /* \"#utility.yul\":2139:2172   */\n      tag_161\n      jump\t// in\n    tag_206:\n        /* \"#utility.yul\":2039:2178   */\n      swap3\n      swap2\n      pop\n      pop\n      jump\t// out\n        /* \"#utility.yul\":2184:2513   */\n    tag_29:\n        /* \"#utility.yul\":2243:2249   */\n      0x00\n        /* \"#utility.yul\":2292:2294   */\n      0x20\n        /* \"#utility.yul\":2280:2289   */\n      dup3\n        /* \"#utility.yul\":2271:2278   */\n      dup5\n        /* \"#utility.yul\":2267:2290   */\n      sub\n        /* \"#utility.yul\":2263:2295   */\n      slt\n        /* \"#utility.yul\":2260:2379   */\n      iszero\n      tag_208\n      jumpi\n        /* \"#utility.yul\":2298:2377   */\n      tag_209\n      tag_158\n      jump\t// in\n    tag_209:\n        /* \"#utility.yul\":2260:2379   */\n    tag_208:\n        /* \"#utility.yul\":2418:2419   */\n      0x00\n        /* \"#utility.yul\":2443:2496   */\n      tag_210\n        /* \"#utility.yul\":2488:2495   */\n      dup5\n        /* \"#utility.yul\":2479:2485   */\n      dup3\n        /* \"#utility.yul\":2468:2477   */\n      dup6\n        /* \"#utility.yul\":2464:2486   */\n      add\n        /* \"#utility.yul\":2443:2496   */\n      tag_162\n      jump\t// in\n    tag_210:\n        /* \"#utility.yul\":2433:2496   */\n      swap2\n      pop\n        /* \"#utility.yul\":2389:2506   */\n      pop\n        /* \"#utility.yul\":2184:2513   */\n      swap3\n      swap2\n      pop\n      pop\n      jump\t// out\n        /* \"#utility.yul\":2519:2641   */\n    tag_163:\n        /* \"#utility.yul\":2592:2616   */\n      tag_212\n        /* \"#utility.yul\":2610:2615   */\n      dup2\n        /* \"#utility.yul\":2592:2616   */\n      tag_155\n      jump\t// in\n    tag_212:\n        /* \"#utility.yul\":2585:2590   */\n      dup2\n        /* \"#utility.yul\":2582:2617   */\n      eq\n        /* \"#utility.yul\":2572:2635   */\n      tag_213\n      jumpi\n        /* \"#utility.yul\":2631:2632   */\n      0x00\n        /* \"#utility.yul\":2628:2629   */\n      dup1\n        /* \"#utility.yul\":2621:2633   */\n      revert\n        /* \"#utility.yul\":2572:2635   */\n    tag_213:\n        /* \"#utility.yul\":2519:2641   */\n      pop\n      jump\t// out\n        /* \"#utility.yul\":2647:2786   */\n    tag_164:\n        /* \"#utility.yul\":2693:2698   */\n      0x00\n        /* \"#utility.yul\":2731:2737   */\n      dup2\n        /* \"#utility.yul\":2718:2738   */\n      calldataload\n        /* \"#utility.yul\":2709:2738   */\n      swap1\n      pop\n        /* \"#utility.yul\":2747:2780   */\n      tag_215\n        /* \"#utility.yul\":2774:2779   */\n      dup2\n        /* \"#utility.yul\":2747:2780   */\n      tag_163\n      jump\t// in\n    tag_215:\n        /* \"#utility.yul\":2647:2786   */\n      swap3\n      swap2\n      pop\n      pop\n      jump\t// out\n        /* \"#utility.yul\":2792:3121   */\n    tag_34:\n        /* \"#utility.yul\":2851:2857   */\n      0x00\n        /* \"#utility.yul\":2900:2902   */\n      0x20\n        /* \"#utility.yul\":2888:2897   */\n      dup3\n        /* \"#utility.yul\":2879:2886   */\n      dup5\n        /* \"#utility.yul\":2875:2898   */\n      sub\n        /* \"#utility.yul\":2871:2903   */\n      slt\n        /* \"#utility.yul\":2868:2987   */\n      iszero\n      tag_217\n      jumpi\n        /* \"#utility.yul\":2906:2985   */\n      tag_218\n      tag_158\n      jump\t// in\n    tag_218:\n        /* \"#utility.yul\":2868:2987   */\n    tag_217:\n        /* \"#utility.yul\":3026:3027   */\n      0x00\n        /* \"#utility.yul\":3051:3104   */\n      tag_219\n        /* \"#utility.yul\":3096:3103   */\n      dup5\n        /* \"#utility.yul\":3087:3093   */\n      dup3\n        /* \"#utility.yul\":3076:3085   */\n      dup6\n        /* \"#utility.yul\":3072:3094   */\n      add\n        /* \"#utility.yul\":3051:3104   */\n      tag_164\n      jump\t// in\n    tag_219:\n        /* \"#utility.yul\":3041:3104   */\n      swap2\n      pop\n        /* \"#utility.yul\":2997:3114   */\n      pop\n        /* \"#utility.yul\":2792:3121   */\n      swap3\n      swap2\n      pop\n      pop\n      jump\t// out\n        /* \"#utility.yul\":3127:3459   */\n    tag_37:\n        /* \"#utility.yul\":3248:3252   */\n      0x00\n        /* \"#utility.yul\":3286:3288   */\n      0x40\n        /* \"#utility.yul\":3275:3284   */\n      dup3\n        /* \"#utility.yul\":3271:3289   */\n      add\n        /* \"#utility.yul\":3263:3289   */\n      swap1\n      pop\n        /* \"#utility.yul\":3299:3370   */\n      tag_221\n        /* \"#utility.yul\":3367:3368   */\n      0x00\n        /* \"#utility.yul\":3356:3365   */\n      dup4\n        /* \"#utility.yul\":3352:3369   */\n      add\n        /* \"#utility.yul\":3343:3349   */\n      dup6\n        /* \"#utility.yul\":3299:3370   */\n      tag_156\n      jump\t// in\n    tag_221:\n        /* \"#utility.yul\":3380:3452   */\n      tag_222\n        /* \"#utility.yul\":3448:3450   */\n      0x20\n        /* \"#utility.yul\":3437:3446   */\n      dup4\n        /* \"#utility.yul\":3433:3451   */\n      add\n        /* \"#utility.yul\":3424:3430   */\n      dup5\n        /* \"#utility.yul\":3380:3452   */\n      tag_156\n      jump\t// in\n    tag_222:\n        /* \"#utility.yul\":3127:3459   */\n      swap4\n      swap3\n      pop\n      pop\n      pop\n      jump\t// out\n        /* \"#utility.yul\":3465:3939   */\n    tag_40:\n        /* \"#utility.yul\":3533:3539   */\n      0x00\n        /* \"#utility.yul\":3541:3547   */\n      dup1\n        /* \"#utility.yul\":3590:3592   */\n      0x40\n        /* \"#utility.yul\":3578:3587   */\n      dup4\n        /* \"#utility.yul\":3569:3576   */\n      dup6\n        /* \"#utility.yul\":3565:3588   */\n      sub\n        /* \"#utility.yul\":3561:3593   */\n      slt\n        /* \"#utility.yul\":3558:3677   */\n      iszero\n      tag_224\n      jumpi\n        /* \"#utility.yul\":3596:3675   */\n      tag_225\n      tag_158\n      jump\t// in\n    tag_225:\n        /* \"#utility.yul\":3558:3677   */\n    tag_224:\n        /* \"#utility.yul\":3716:3717   */\n      0x00\n        /* \"#utility.yul\":3741:3794   */\n      tag_226\n        /* \"#utility.yul\":3786:3793   */\n      dup6\n        /* \"#utility.yul\":3777:3783   */\n      dup3\n        /* \"#utility.yul\":3766:3775   */\n      dup7\n        /* \"#utility.yul\":3762:3784   */\n      add\n        /* \"#utility.yul\":3741:3794   */\n      tag_164\n      jump\t// in\n    tag_226:\n        /* \"#utility.yul\":3731:3794   */\n      swap3\n      pop\n        /* \"#utility.yul\":3687:3804   */\n      pop\n        /* \"#utility.yul\":3843:3845   */\n      0x20\n        /* \"#utility.yul\":3869:3922   */\n      tag_227\n        /* \"#utility.yul\":3914:3921   */\n      dup6\n        /* \"#utility.yul\":3905:3911   */\n      dup3\n        /* \"#utility.yul\":3894:3903   */\n      dup7\n        /* \"#utility.yul\":3890:3912   */\n      add\n        /* \"#utility.yul\":3869:3922   */\n      tag_164\n      jump\t// in\n    tag_227:\n        /* \"#utility.yul\":3859:3922   */\n      swap2\n      pop\n        /* \"#utility.yul\":3814:3932   */\n      pop\n        /* \"#utility.yul\":3465:3939   */\n      swap3\n      pop\n      swap3\n      swap1\n      pop\n      jump\t// out\n        /* \"#utility.yul\":3945:4419   */\n    tag_45:\n        /* \"#utility.yul\":4013:4019   */\n      0x00\n        /* \"#utility.yul\":4021:4027   */\n      dup1\n        /* \"#utility.yul\":4070:4072   */\n      0x40\n        /* \"#utility.yul\":4058:4067   */\n      dup4\n        /* \"#utility.yul\":4049:4056   */\n      dup6\n        /* \"#utility.yul\":4045:4068   */\n      sub\n        /* \"#utility.yul\":4041:4073   */\n      slt\n        /* \"#utility.yul\":4038:4157   */\n      iszero\n      tag_229\n      jumpi\n        /* \"#utility.yul\":4076:4155   */\n      tag_230\n      tag_158\n      jump\t// in\n    tag_230:\n        /* \"#utility.yul\":4038:4157   */\n    tag_229:\n        /* \"#utility.yul\":4196:4197   */\n      0x00\n        /* \"#utility.yul\":4221:4274   */\n      tag_231\n        /* \"#utility.yul\":4266:4273   */\n      dup6\n        /* \"#utility.yul\":4257:4263   */\n      dup3\n        /* \"#utility.yul\":4246:4255   */\n      dup7\n        /* \"#utility.yul\":4242:4264   */\n      add\n        /* \"#utility.yul\":4221:4274   */\n      tag_162\n      jump\t// in\n    tag_231:\n        /* \"#utility.yul\":4211:4274   */\n      swap3\n      pop\n        /* \"#utility.yul\":4167:4284   */\n      pop\n        /* \"#utility.yul\":4323:4325   */\n      0x20\n        /* \"#utility.yul\":4349:4402   */\n      tag_232\n        /* \"#utility.yul\":4394:4401   */\n      dup6\n        /* \"#utility.yul\":4385:4391   */\n      dup3\n        /* \"#utility.yul\":4374:4383   */\n      dup7\n        /* \"#utility.yul\":4370:4392   */\n      add\n        /* \"#utility.yul\":4349:4402   */\n      tag_164\n      jump\t// in\n    tag_232:\n        /* \"#utility.yul\":4339:4402   */\n      swap2\n      pop\n        /* \"#utility.yul\":4294:4412   */\n      pop\n        /* \"#utility.yul\":3945:4419   */\n      swap3\n      pop\n      swap3\n      swap1\n      pop\n      jump\t// out\n        /* \"#utility.yul\":4425:4605   */\n    tag_165:\n        /* \"#utility.yul\":4473:4550   */\n      0x4e487b7100000000000000000000000000000000000000000000000000000000\n        /* \"#utility.yul\":4470:4471   */\n      0x00\n        /* \"#utility.yul\":4463:4551   */\n      mstore\n        /* \"#utility.yul\":4570:4574   */\n      0x11\n        /* \"#utility.yul\":4567:4568   */\n      0x04\n        /* \"#utility.yul\":4560:4575   */\n      mstore\n        /* \"#utility.yul\":4594:4598   */\n      0x24\n        /* \"#utility.yul\":4591:4592   */\n      0x00\n        /* \"#utility.yul\":4584:4599   */\n      revert\n        /* \"#utility.yul\":4611:5021   */\n    tag_53:\n        /* \"#utility.yul\":4651:4658   */\n      0x00\n        /* \"#utility.yul\":4674:4694   */\n      tag_235\n        /* \"#utility.yul\":4692:4693   */\n      dup3\n        /* \"#utility.yul\":4674:4694   */\n      tag_155\n      jump\t// in\n    tag_235:\n        /* \"#utility.yul\":4669:4694   */\n      swap2\n      pop\n        /* \"#utility.yul\":4708:4728   */\n      tag_236\n        /* \"#utility.yul\":4726:4727   */\n      dup4\n        /* \"#utility.yul\":4708:4728   */\n      tag_155\n      jump\t// in\n    tag_236:\n        /* \"#utility.yul\":4703:4728   */\n      swap3\n      pop\n        /* \"#utility.yul\":4763:4764   */\n      dup3\n        /* \"#utility.yul\":4760:4761   */\n      dup3\n        /* \"#utility.yul\":4756:4765   */\n      mul\n        /* \"#utility.yul\":4785:4815   */\n      tag_237\n        /* \"#utility.yul\":4803:4814   */\n      dup2\n        /* \"#utility.yul\":4785:4815   */\n      tag_155\n      jump\t// in\n    tag_237:\n        /* \"#utility.yul\":4774:4815   */\n      swap2\n      pop\n        /* \"#utility.yul\":4964:4965   */\n      dup3\n        /* \"#utility.yul\":4955:4962   */\n      dup3\n        /* \"#utility.yul\":4951:4966   */\n      div\n        /* \"#utility.yul\":4948:4949   */\n      dup5\n        /* \"#utility.yul\":4945:4967   */\n      eq\n        /* \"#utility.yul\":4925:4926   */\n      dup4\n        /* \"#utility.yul\":4918:4927   */\n      iszero\n        /* \"#utility.yul\":4898:4981   */\n      or\n        /* \"#utility.yul\":4875:5014   */\n      tag_238\n      jumpi\n        /* \"#utility.yul\":4994:5012   */\n      tag_239\n      tag_165\n      jump\t// in\n    tag_239:\n        /* \"#utility.yul\":4875:5014   */\n    tag_238:\n        /* \"#utility.yul\":4659:5021   */\n      pop\n        /* \"#utility.yul\":4611:5021   */\n      swap3\n      swap2\n      pop\n      pop\n      jump\t// out\n        /* \"#utility.yul\":5027:5207   */\n    tag_166:\n        /* \"#utility.yul\":5075:5152   */\n      0x4e487b7100000000000000000000000000000000000000000000000000000000\n        /* \"#utility.yul\":5072:5073   */\n      0x00\n        /* \"#utility.yul\":5065:5153   */\n      mstore\n        /* \"#utility.yul\":5172:5176   */\n      0x12\n        /* \"#utility.yul\":5169:5170   */\n      0x04\n        /* \"#utility.yul\":5162:5177   */\n      mstore\n        /* \"#utility.yul\":5196:5200   */\n      0x24\n        /* \"#utility.yul\":5193:5194   */\n      0x00\n        /* \"#utility.yul\":5186:5201   */\n      revert\n        /* \"#utility.yul\":5213:5398   */\n    tag_55:\n        /* \"#utility.yul\":5253:5254   */\n      0x00\n        /* \"#utility.yul\":5270:5290   */\n      tag_242\n        /* \"#utility.yul\":5288:5289   */\n      dup3\n        /* \"#utility.yul\":5270:5290   */\n      tag_155\n      jump\t// in\n    tag_242:\n        /* \"#utility.yul\":5265:5290   */\n      swap2\n      pop\n        /* \"#utility.yul\":5304:5324   */\n      tag_243\n        /* \"#utility.yul\":5322:5323   */\n      dup4\n        /* \"#utility.yul\":5304:5324   */\n      tag_155\n      jump\t// in\n    tag_243:\n        /* \"#utility.yul\":5299:5324   */\n      swap3\n      pop\n        /* \"#utility.yul\":5343:5344   */\n      dup3\n        /* \"#utility.yul\":5333:5368   */\n      tag_244\n      jumpi\n        /* \"#utility.yul\":5348:5366   */\n      tag_245\n      tag_166\n      jump\t// in\n    tag_245:\n        /* \"#utility.yul\":5333:5368   */\n    tag_244:\n        /* \"#utility.yul\":5390:5391   */\n      dup3\n        /* \"#utility.yul\":5387:5388   */\n      dup3\n        /* \"#utility.yul\":5383:5392   */\n      div\n        /* \"#utility.yul\":5378:5392   */\n      swap1\n      pop\n        /* \"#utility.yul\":5213:5398   */\n      swap3\n      swap2\n      pop\n      pop\n      jump\t// out\n        /* \"#utility.yul\":5404:5598   */\n    tag_62:\n        /* \"#utility.yul\":5444:5448   */\n      0x00\n        /* \"#utility.yul\":5464:5484   */\n      tag_247\n        /* \"#utility.yul\":5482:5483   */\n      dup3\n        /* \"#utility.yul\":5464:5484   */\n      tag_155\n      jump\t// in\n    tag_247:\n        /* \"#utility.yul\":5459:5484   */\n      swap2\n      pop\n        /* \"#utility.yul\":5498:5518   */\n      tag_248\n        /* \"#utility.yul\":5516:5517   */\n      dup4\n        /* \"#utility.yul\":5498:5518   */\n      tag_155\n      jump\t// in\n    tag_248:\n        /* \"#utility.yul\":5493:5518   */\n      swap3\n      pop\n        /* \"#utility.yul\":5542:5543   */\n      dup3\n        /* \"#utility.yul\":5539:5540   */\n      dup3\n        /* \"#utility.yul\":5535:5544   */\n      sub\n        /* \"#utility.yul\":5527:5544   */\n      swap1\n      pop\n        /* \"#utility.yul\":5566:5567   */\n      dup2\n        /* \"#utility.yul\":5560:5564   */\n      dup2\n        /* \"#utility.yul\":5557:5568   */\n      gt\n        /* \"#utility.yul\":5554:5591   */\n      iszero\n      tag_249\n      jumpi\n        /* \"#utility.yul\":5571:5589   */\n      tag_250\n      tag_165\n      jump\t// in\n    tag_250:\n        /* \"#utility.yul\":5554:5591   */\n    tag_249:\n        /* \"#utility.yul\":5404:5598   */\n      swap3\n      swap2\n      pop\n      pop\n      jump\t// out\n        /* \"#utility.yul\":5604:5722   */\n    tag_167:\n        /* \"#utility.yul\":5691:5715   */\n      tag_252\n        /* \"#utility.yul\":5709:5714   */\n      dup2\n        /* \"#utility.yul\":5691:5715   */\n      tag_160\n      jump\t// in\n    tag_252:\n        /* \"#utility.yul\":5686:5689   */\n      dup3\n        /* \"#utility.yul\":5679:5716   */\n      mstore\n        /* \"#utility.yul\":5604:5722   */\n      pop\n      pop\n      jump\t// out\n        /* \"#utility.yul\":5728:6060   */\n    tag_67:\n        /* \"#utility.yul\":5849:5853   */\n      0x00\n        /* \"#utility.yul\":5887:5889   */\n      0x40\n        /* \"#utility.yul\":5876:5885   */\n      dup3\n        /* \"#utility.yul\":5872:5890   */\n      add\n        /* \"#utility.yul\":5864:5890   */\n      swap1\n      pop\n        /* \"#utility.yul\":5900:5971   */\n      tag_254\n        /* \"#utility.yul\":5968:5969   */\n      0x00\n        /* \"#utility.yul\":5957:5966   */\n      dup4\n        /* \"#utility.yul\":5953:5970   */\n      add\n        /* \"#utility.yul\":5944:5950   */\n      dup6\n        /* \"#utility.yul\":5900:5971   */\n      tag_167\n      jump\t// in\n    tag_254:\n        /* \"#utility.yul\":5981:6053   */\n      tag_255\n        /* \"#utility.yul\":6049:6051   */\n      0x20\n        /* \"#utility.yul\":6038:6047   */\n      dup4\n        /* \"#utility.yul\":6034:6052   */\n      add\n        /* \"#utility.yul\":6025:6031   */\n      dup5\n        /* \"#utility.yul\":5981:6053   */\n      tag_156\n      jump\t// in\n    tag_255:\n        /* \"#utility.yul\":5728:6060   */\n      swap4\n      swap3\n      pop\n      pop\n      pop\n      jump\t// out\n        /* \"#utility.yul\":6066:6156   */\n    tag_168:\n        /* \"#utility.yul\":6100:6107   */\n      0x00\n        /* \"#utility.yul\":6143:6148   */\n      dup2\n        /* \"#utility.yul\":6136:6149   */\n      iszero\n        /* \"#utility.yul\":6129:6150   */\n      iszero\n        /* \"#utility.yul\":6118:6150   */\n      swap1\n      pop\n        /* \"#utility.yul\":6066:6156   */\n      swap2\n      swap1\n      pop\n      jump\t// out\n        /* \"#utility.yul\":6162:6278   */\n    tag_169:\n        /* \"#utility.yul\":6232:6253   */\n      tag_258\n        /* \"#utility.yul\":6247:6252   */\n      dup2\n        /* \"#utility.yul\":6232:6253   */\n      tag_168\n      jump\t// in\n    tag_258:\n        /* \"#utility.yul\":6225:6230   */\n      dup2\n        /* \"#utility.yul\":6222:6254   */\n      eq\n        /* \"#utility.yul\":6212:6272   */\n      tag_259\n      jumpi\n        /* \"#utility.yul\":6268:6269   */\n      0x00\n        /* \"#utility.yul\":6265:6266   */\n      dup1\n        /* \"#utility.yul\":6258:6270   */\n      revert\n        /* \"#utility.yul\":6212:6272   */\n    tag_259:\n        /* \"#utility.yul\":6162:6278   */\n      pop\n      jump\t// out\n        /* \"#utility.yul\":6284:6421   */\n    tag_170:\n        /* \"#utility.yul\":6338:6343   */\n      0x00\n        /* \"#utility.yul\":6369:6375   */\n      dup2\n        /* \"#utility.yul\":6363:6376   */\n      mload\n        /* \"#utility.yul\":6354:6376   */\n      swap1\n      pop\n        /* \"#utility.yul\":6385:6415   */\n      tag_261\n        /* \"#utility.yul\":6409:6414   */\n      dup2\n        /* \"#utility.yul\":6385:6415   */\n      tag_169\n      jump\t// in\n    tag_261:\n        /* \"#utility.yul\":6284:6421   */\n      swap3\n      swap2\n      pop\n      pop\n      jump\t// out\n        /* \"#utility.yul\":6427:6772   */\n    tag_71:\n        /* \"#utility.yul\":6494:6500   */\n      0x00\n        /* \"#utility.yul\":6543:6545   */\n      0x20\n        /* \"#utility.yul\":6531:6540   */\n      dup3\n        /* \"#utility.yul\":6522:6529   */\n      dup5\n        /* \"#utility.yul\":6518:6541   */\n      sub\n        /* \"#utility.yul\":6514:6546   */\n      slt\n        /* \"#utility.yul\":6511:6630   */\n      iszero\n      tag_263\n      jumpi\n        /* \"#utility.yul\":6549:6628   */\n      tag_264\n      tag_158\n      jump\t// in\n    tag_264:\n        /* \"#utility.yul\":6511:6630   */\n    tag_263:\n        /* \"#utility.yul\":6669:6670   */\n      0x00\n        /* \"#utility.yul\":6694:6755   */\n      tag_265\n        /* \"#utility.yul\":6747:6754   */\n      dup5\n        /* \"#utility.yul\":6738:6744   */\n      dup3\n        /* \"#utility.yul\":6727:6736   */\n      dup6\n        /* \"#utility.yul\":6723:6745   */\n      add\n        /* \"#utility.yul\":6694:6755   */\n      tag_170\n      jump\t// in\n    tag_265:\n        /* \"#utility.yul\":6684:6755   */\n      swap2\n      pop\n        /* \"#utility.yul\":6640:6765   */\n      pop\n        /* \"#utility.yul\":6427:6772   */\n      swap3\n      swap2\n      pop\n      pop\n      jump\t// out\n        /* \"#utility.yul\":6778:7220   */\n    tag_79:\n        /* \"#utility.yul\":6927:6931   */\n      0x00\n        /* \"#utility.yul\":6965:6967   */\n      0x60\n        /* \"#utility.yul\":6954:6963   */\n      dup3\n        /* \"#utility.yul\":6950:6968   */\n      add\n        /* \"#utility.yul\":6942:6968   */\n      swap1\n      pop\n        /* \"#utility.yul\":6978:7049   */\n      tag_267\n        /* \"#utility.yul\":7046:7047   */\n      0x00\n        /* \"#utility.yul\":7035:7044   */\n      dup4\n        /* \"#utility.yul\":7031:7048   */\n      add\n        /* \"#utility.yul\":7022:7028   */\n      dup7\n        /* \"#utility.yul\":6978:7049   */\n      tag_167\n      jump\t// in\n    tag_267:\n        /* \"#utility.yul\":7059:7131   */\n      tag_268\n        /* \"#utility.yul\":7127:7129   */\n      0x20\n        /* \"#utility.yul\":7116:7125   */\n      dup4\n        /* \"#utility.yul\":7112:7130   */\n      add\n        /* \"#utility.yul\":7103:7109   */\n      dup6\n        /* \"#utility.yul\":7059:7131   */\n      tag_167\n      jump\t// in\n    tag_268:\n        /* \"#utility.yul\":7141:7213   */\n      tag_269\n        /* \"#utility.yul\":7209:7211   */\n      0x40\n        /* \"#utility.yul\":7198:7207   */\n      dup4\n        /* \"#utility.yul\":7194:7212   */\n      add\n        /* \"#utility.yul\":7185:7191   */\n      dup5\n        /* \"#utility.yul\":7141:7213   */\n      tag_156\n      jump\t// in\n    tag_269:\n        /* \"#utility.yul\":6778:7220   */\n      swap5\n      swap4\n      pop\n      pop\n      pop\n      pop\n      jump\t// out\n        /* \"#utility.yul\":7226:7448   */\n    tag_88:\n        /* \"#utility.yul\":7319:7323   */\n      0x00\n        /* \"#utility.yul\":7357:7359   */\n      0x20\n        /* \"#utility.yul\":7346:7355   */\n      dup3\n        /* \"#utility.yul\":7342:7360   */\n      add\n        /* \"#utility.yul\":7334:7360   */\n      swap1\n      pop\n        /* \"#utility.yul\":7370:7441   */\n      tag_271\n        /* \"#utility.yul\":7438:7439   */\n      0x00\n        /* \"#utility.yul\":7427:7436   */\n      dup4\n        /* \"#utility.yul\":7423:7440   */\n      add\n        /* \"#utility.yul\":7414:7420   */\n      dup5\n        /* \"#utility.yul\":7370:7441   */\n      tag_167\n      jump\t// in\n    tag_271:\n        /* \"#utility.yul\":7226:7448   */\n      swap3\n      swap2\n      pop\n      pop\n      jump\t// out\n        /* \"#utility.yul\":7454:7597   */\n    tag_171:\n        /* \"#utility.yul\":7511:7516   */\n      0x00\n        /* \"#utility.yul\":7542:7548   */\n      dup2\n        /* \"#utility.yul\":7536:7549   */\n      mload\n        /* \"#utility.yul\":7527:7549   */\n      swap1\n      pop\n        /* \"#utility.yul\":7558:7591   */\n      tag_273\n        /* \"#utility.yul\":7585:7590   */\n      dup2\n        /* \"#utility.yul\":7558:7591   */\n      tag_163\n      jump\t// in\n    tag_273:\n        /* \"#utility.yul\":7454:7597   */\n      swap3\n      swap2\n      pop\n      pop\n      jump\t// out\n        /* \"#utility.yul\":7603:7954   */\n    tag_92:\n        /* \"#utility.yul\":7673:7679   */\n      0x00\n        /* \"#utility.yul\":7722:7724   */\n      0x20\n        /* \"#utility.yul\":7710:7719   */\n      dup3\n        /* \"#utility.yul\":7701:7708   */\n      dup5\n        /* \"#utility.yul\":7697:7720   */\n      sub\n        /* \"#utility.yul\":7693:7725   */\n      slt\n        /* \"#utility.yul\":7690:7809   */\n      iszero\n      tag_275\n      jumpi\n        /* \"#utility.yul\":7728:7807   */\n      tag_276\n      tag_158\n      jump\t// in\n    tag_276:\n        /* \"#utility.yul\":7690:7809   */\n    tag_275:\n        /* \"#utility.yul\":7848:7849   */\n      0x00\n        /* \"#utility.yul\":7873:7937   */\n      tag_277\n        /* \"#utility.yul\":7929:7936   */\n      dup5\n        /* \"#utility.yul\":7920:7926   */\n      dup3\n        /* \"#utility.yul\":7909:7918   */\n      dup6\n        /* \"#utility.yul\":7905:7927   */\n      add\n        /* \"#utility.yul\":7873:7937   */\n      tag_171\n      jump\t// in\n    tag_277:\n        /* \"#utility.yul\":7863:7937   */\n      swap2\n      pop\n        /* \"#utility.yul\":7819:7947   */\n      pop\n        /* \"#utility.yul\":7603:7954   */\n      swap3\n      swap2\n      pop\n      pop\n      jump\t// out\n        /* \"#utility.yul\":7960:8151   */\n    tag_101:\n        /* \"#utility.yul\":8000:8003   */\n      0x00\n        /* \"#utility.yul\":8019:8039   */\n      tag_279\n        /* \"#utility.yul\":8037:8038   */\n      dup3\n        /* \"#utility.yul\":8019:8039   */\n      tag_155\n      jump\t// in\n    tag_279:\n        /* \"#utility.yul\":8014:8039   */\n      swap2\n      pop\n        /* \"#utility.yul\":8053:8073   */\n      tag_280\n        /* \"#utility.yul\":8071:8072   */\n      dup4\n        /* \"#utility.yul\":8053:8073   */\n      tag_155\n      jump\t// in\n    tag_280:\n        /* \"#utility.yul\":8048:8073   */\n      swap3\n      pop\n        /* \"#utility.yul\":8096:8097   */\n      dup3\n        /* \"#utility.yul\":8093:8094   */\n      dup3\n        /* \"#utility.yul\":8089:8098   */\n      add\n        /* \"#utility.yul\":8082:8098   */\n      swap1\n      pop\n        /* \"#utility.yul\":8117:8120   */\n      dup1\n        /* \"#utility.yul\":8114:8115   */\n      dup3\n        /* \"#utility.yul\":8111:8121   */\n      gt\n        /* \"#utility.yul\":8108:8144   */\n      iszero\n      tag_281\n      jumpi\n        /* \"#utility.yul\":8124:8142   */\n      tag_282\n      tag_165\n      jump\t// in\n    tag_282:\n        /* \"#utility.yul\":8108:8144   */\n    tag_281:\n        /* \"#utility.yul\":7960:8151   */\n      swap3\n      swap2\n      pop\n      pop\n      jump\t// out\n        /* \"#utility.yul\":8157:8326   */\n    tag_172:\n        /* \"#utility.yul\":8241:8252   */\n      0x00\n        /* \"#utility.yul\":8275:8281   */\n      dup3\n        /* \"#utility.yul\":8270:8273   */\n      dup3\n        /* \"#utility.yul\":8263:8282   */\n      mstore\n        /* \"#utility.yul\":8315:8319   */\n      0x20\n        /* \"#utility.yul\":8310:8313   */\n      dup3\n        /* \"#utility.yul\":8306:8320   */\n      add\n        /* \"#utility.yul\":8291:8320   */\n      swap1\n      pop\n        /* \"#utility.yul\":8157:8326   */\n      swap3\n      swap2\n      pop\n      pop\n      jump\t// out\n        /* \"#utility.yul\":8332:8491   */\n    tag_173:\n        /* \"#utility.yul\":8472:8483   */\n      0x5368617265203d20300000000000000000000000000000000000000000000000\n        /* \"#utility.yul\":8468:8469   */\n      0x00\n        /* \"#utility.yul\":8460:8466   */\n      dup3\n        /* \"#utility.yul\":8456:8470   */\n      add\n        /* \"#utility.yul\":8449:8484   */\n      mstore\n        /* \"#utility.yul\":8332:8491   */\n      pop\n      jump\t// out\n        /* \"#utility.yul\":8497:8862   */\n    tag_174:\n        /* \"#utility.yul\":8639:8642   */\n      0x00\n        /* \"#utility.yul\":8660:8726   */\n      tag_286\n        /* \"#utility.yul\":8724:8725   */\n      0x09\n        /* \"#utility.yul\":8719:8722   */\n      dup4\n        /* \"#utility.yul\":8660:8726   */\n      tag_172\n      jump\t// in\n    tag_286:\n        /* \"#utility.yul\":8653:8726   */\n      swap2\n      pop\n        /* \"#utility.yul\":8735:8828   */\n      tag_287\n        /* \"#utility.yul\":8824:8827   */\n      dup3\n        /* \"#utility.yul\":8735:8828   */\n      tag_173\n      jump\t// in\n    tag_287:\n        /* \"#utility.yul\":8853:8855   */\n      0x20\n        /* \"#utility.yul\":8848:8851   */\n      dup3\n        /* \"#utility.yul\":8844:8856   */\n      add\n        /* \"#utility.yul\":8837:8856   */\n      swap1\n      pop\n        /* \"#utility.yul\":8497:8862   */\n      swap2\n      swap1\n      pop\n      jump\t// out\n        /* \"#utility.yul\":8868:9287   */\n    tag_109:\n        /* \"#utility.yul\":9034:9038   */\n      0x00\n        /* \"#utility.yul\":9072:9074   */\n      0x20\n        /* \"#utility.yul\":9061:9070   */\n      dup3\n        /* \"#utility.yul\":9057:9075   */\n      add\n        /* \"#utility.yul\":9049:9075   */\n      swap1\n      pop\n        /* \"#utility.yul\":9121:9130   */\n      dup2\n        /* \"#utility.yul\":9115:9119   */\n      dup2\n        /* \"#utility.yul\":9111:9131   */\n      sub\n        /* \"#utility.yul\":9107:9108   */\n      0x00\n        /* \"#utility.yul\":9096:9105   */\n      dup4\n        /* \"#utility.yul\":9092:9109   */\n      add\n        /* \"#utility.yul\":9085:9132   */\n      mstore\n        /* \"#utility.yul\":9149:9280   */\n      tag_289\n        /* \"#utility.yul\":9275:9279   */\n      dup2\n        /* \"#utility.yul\":9149:9280   */\n      tag_174\n      jump\t// in\n    tag_289:\n        /* \"#utility.yul\":9141:9280   */\n      swap1\n      pop\n        /* \"#utility.yul\":8868:9287   */\n      swap2\n      swap1\n      pop\n      jump\t// out\n        /* \"#utility.yul\":9293:9456   */\n    tag_175:\n        /* \"#utility.yul\":9433:9448   */\n      0x496e76616c696420546f6b656e00000000000000000000000000000000000000\n        /* \"#utility.yul\":9429:9430   */\n      0x00\n        /* \"#utility.yul\":9421:9427   */\n      dup3\n        /* \"#utility.yul\":9417:9431   */\n      add\n        /* \"#utility.yul\":9410:9449   */\n      mstore\n        /* \"#utility.yul\":9293:9456   */\n      pop\n      jump\t// out\n        /* \"#utility.yul\":9462:9828   */\n    tag_176:\n        /* \"#utility.yul\":9604:9607   */\n      0x00\n        /* \"#utility.yul\":9625:9692   */\n      tag_292\n        /* \"#utility.yul\":9689:9691   */\n      0x0d\n        /* \"#utility.yul\":9684:9687   */\n      dup4\n        /* \"#utility.yul\":9625:9692   */\n      tag_172\n      jump\t// in\n    tag_292:\n        /* \"#utility.yul\":9618:9692   */\n      swap2\n      pop\n        /* \"#utility.yul\":9701:9794   */\n      tag_293\n        /* \"#utility.yul\":9790:9793   */\n      dup3\n        /* \"#utility.yul\":9701:9794   */\n      tag_175\n      jump\t// in\n    tag_293:\n        /* \"#utility.yul\":9819:9821   */\n      0x20\n        /* \"#utility.yul\":9814:9817   */\n      dup3\n        /* \"#utility.yul\":9810:9822   */\n      add\n        /* \"#utility.yul\":9803:9822   */\n      swap1\n      pop\n        /* \"#utility.yul\":9462:9828   */\n      swap2\n      swap1\n      pop\n      jump\t// out\n        /* \"#utility.yul\":9834:10253   */\n    tag_117:\n        /* \"#utility.yul\":10000:10004   */\n      0x00\n        /* \"#utility.yul\":10038:10040   */\n      0x20\n        /* \"#utility.yul\":10027:10036   */\n      dup3\n        /* \"#utility.yul\":10023:10041   */\n      add\n        /* \"#utility.yul\":10015:10041   */\n      swap1\n      pop\n        /* \"#utility.yul\":10087:10096   */\n      dup2\n        /* \"#utility.yul\":10081:10085   */\n      dup2\n        /* \"#utility.yul\":10077:10097   */\n      sub\n        /* \"#utility.yul\":10073:10074   */\n      0x00\n        /* \"#utility.yul\":10062:10071   */\n      dup4\n        /* \"#utility.yul\":10058:10075   */\n      add\n        /* \"#utility.yul\":10051:10098   */\n      mstore\n        /* \"#utility.yul\":10115:10246   */\n      tag_295\n        /* \"#utility.yul\":10241:10245   */\n      dup2\n        /* \"#utility.yul\":10115:10246   */\n      tag_176\n      jump\t// in\n    tag_295:\n        /* \"#utility.yul\":10107:10246   */\n      swap1\n      pop\n        /* \"#utility.yul\":9834:10253   */\n      swap2\n      swap1\n      pop\n      jump\t// out\n\n    auxdata: 0xa26469706673582212208f45b01b506f087325fb4aa9e221bf2f4c1d4a65023fcc992a57c332b0a810fc64736f6c63430008120033\n}\n",
				"bytecode": {
					"linkReferences": {},
					"object": "60c06040523480156200001157600080fd5b50604051620013f1380380620013f1833981810160405281019062000037919062000111565b8173ffffffffffffffffffffffffffffffffffffffff1660808173ffffffffffffffffffffffffffffffffffffffff16815250508073ffffffffffffffffffffffffffffffffffffffff1660a08173ffffffffffffffffffffffffffffffffffffffff1681525050505062000158565b600080fd5b600073ffffffffffffffffffffffffffffffffffffffff82169050919050565b6000620000d982620000ac565b9050919050565b620000eb81620000cc565b8114620000f757600080fd5b50565b6000815190506200010b81620000e0565b92915050565b600080604083850312156200012b576200012a620000a7565b5b60006200013b85828601620000fa565b92505060206200014e85828601620000fa565b9150509250929050565b60805160a051611218620001d9600039600081816103570152818161049f015281816105e0015281816107aa01528181610897015281816109050152610b350152600081816101f1015281816102b3015281816103fe01528181610542015281816107550152818161083b015281816108b801526108e401526112186000f3fe608060405234801561001057600080fd5b50600436106100935760003560e01c806370a082311161006657806370a08231146101105780639a5a8a3214610140578063cb1652de14610171578063d004f0f7146101a1578063d21220a7146101d157610093565b80630dfe16811461009857806318160ddd146100b6578063443cb4bc146100d45780635a76f25e146100f2575b600080fd5b6100a06101ef565b6040516100ad9190610cce565b60405180910390f35b6100be610213565b6040516100cb9190610d02565b60405180910390f35b6100dc610219565b6040516100e99190610d02565b60405180910390f35b6100fa61021f565b6040516101079190610d02565b60405180910390f35b61012a60048036038101906101259190610d60565b610225565b6040516101379190610d02565b60405180910390f35b61015a60048036038101906101559190610db9565b61023d565b604051610168929190610de6565b60405180910390f35b61018b60048036038101906101869190610e0f565b6103fa565b6040516101989190610d02565b60405180910390f35b6101bb60048036038101906101b69190610e4f565b610751565b6040516101c89190610d02565b60405180910390f35b6101d9610b33565b6040516101e69190610cce565b60405180910390f35b7f000000000000000000000000000000000000000000000000000000000000000081565b60025481565b60005481565b60015481565b60036020528060005260406000206000915090505481565b600080600254836000546102519190610ebe565b61025b9190610f2f565b91506002548360015461026e9190610ebe565b6102789190610f2f565b90506102843384610b57565b6102a8826000546102959190610f60565b826001546102a39190610f60565b610bca565b6000821115610355577f000000000000000000000000000000000000000000000000000000000000000073ffffffffffffffffffffffffffffffffffffffff1663a9059cbb33846040518363ffffffff1660e01b815260040161030c929190610fa3565b6020604051808303816000875af115801561032b573d6000803e3d6000fd5b505050506040513d601f19601f8201168201806040525081019061034f9190611004565b506103f5565b7f000000000000000000000000000000000000000000000000000000000000000073ffffffffffffffffffffffffffffffffffffffff1663a9059cbb33836040518363ffffffff1660e01b81526004016103b0929190610fa3565b6020604051808303816000875af11580156103cf573d6000803e3d6000fd5b505050506040513d601f19601f820116820180604052508101906103f39190611004565b505b915091565b60007f000000000000000000000000000000000000000000000000000000000000000073ffffffffffffffffffffffffffffffffffffffff166323b872dd3330866040518463ffffffff1660e01b815260040161045993929190611031565b6020604051808303816000875af1158015610478573d6000803e3d6000fd5b505050506040513d601f19601f8201168201806040525081019061049c9190611004565b507f000000000000000000000000000000000000000000000000000000000000000073ffffffffffffffffffffffffffffffffffffffff166323b872dd3330856040518463ffffffff1660e01b81526004016104fa93929190611031565b6020604051808303816000875af1158015610519573d6000803e3d6000fd5b505050506040513d601f19601f8201168201806040525081019061053d9190611004565b5060007f000000000000000000000000000000000000000000000000000000000000000073ffffffffffffffffffffffffffffffffffffffff166370a08231306040518263ffffffff1660e01b81526004016105999190611068565b602060405180830381865afa1580156105b6573d6000803e3d6000fd5b505050506040513d601f19601f820116820180604052508101906105da9190611098565b905060007f000000000000000000000000000000000000000000000000000000000000000073ffffffffffffffffffffffffffffffffffffffff166370a08231306040518263ffffffff1660e01b81526004016106379190611068565b602060405180830381865afa158015610654573d6000803e3d6000fd5b505050506040513d601f19601f820116820180604052508101906106789190611098565b905060008054836106899190610f60565b905060006001548361069b9190610f60565b90506000600254036106ba5780826106b391906110c5565b94506106f0565b6001546000546106ca91906110c5565b60025482846106d991906110c5565b6106e39190610ebe565b6106ed9190610f2f565b94505b60008511610733576040517f08c379a000000000000000000000000000000000000000000000000000000000815260040161072a90611156565b60405180910390fd5b61073d3386610bdc565b6107478484610bca565b5050505092915050565b60007f000000000000000000000000000000000000000000000000000000000000000073ffffffffffffffffffffffffffffffffffffffff168373ffffffffffffffffffffffffffffffffffffffff1614806107f857507f000000000000000000000000000000000000000000000000000000000000000073ffffffffffffffffffffffffffffffffffffffff168373ffffffffffffffffffffffffffffffffffffffff16145b610837576040517f08c379a000000000000000000000000000000000000000000000000000000000815260040161082e906111c2565b60405180910390fd5b60007f000000000000000000000000000000000000000000000000000000000000000073ffffffffffffffffffffffffffffffffffffffff168473ffffffffffffffffffffffffffffffffffffffff16149050600080600080846108e2577f00000000000000000000000000000000000000000000000000000000000000007f000000000000000000000000000000000000000000000000000000000000000060015460005461092b565b7f00000000000000000000000000000000000000000000000000000000000000007f00000000000000000000000000000000000000000000000000000000000000006000546001545b93509350935093508373ffffffffffffffffffffffffffffffffffffffff166323b872dd33308a6040518463ffffffff1660e01b815260040161097093929190611031565b6020604051808303816000875af115801561098f573d6000803e3d6000fd5b505050506040513d601f19601f820116820180604052508101906109b39190611004565b506000828573ffffffffffffffffffffffffffffffffffffffff166370a08231306040518263ffffffff1660e01b81526004016109f09190611068565b602060405180830381865afa158015610a0d573d6000803e3d6000fd5b505050506040513d601f19601f82011682018060405250810190610a319190611098565b610a3b9190610f60565b90506103e86103e582610a4e9190610ebe565b610a589190610f2f565b965060008087610a7f578884610a6e9190610f60565b8386610a7a91906110c5565b610a98565b8985610a8b91906110c5565b8985610a979190610f60565b5b91509150610aa68282610bca565b8573ffffffffffffffffffffffffffffffffffffffff1663a9059cbb338b6040518363ffffffff1660e01b8152600401610ae1929190610fa3565b6020604051808303816000875af1158015610b00573d6000803e3d6000fd5b505050506040513d601f19601f82011682018060405250810190610b249190611004565b50505050505050505092915050565b7f000000000000000000000000000000000000000000000000000000000000000081565b80600360008473ffffffffffffffffffffffffffffffffffffffff1673ffffffffffffffffffffffffffffffffffffffff1681526020019081526020016000206000828254610ba69190610f60565b925050819055508060026000828254610bbf9190610f60565b925050819055505050565b81600081905550806001819055505050565b80600360008473ffffffffffffffffffffffffffffffffffffffff1673ffffffffffffffffffffffffffffffffffffffff1681526020019081526020016000206000828254610c2b91906110c5565b925050819055508060026000828254610c4491906110c5565b925050819055505050565b600073ffffffffffffffffffffffffffffffffffffffff82169050919050565b6000819050919050565b6000610c94610c8f610c8a84610c4f565b610c6f565b610c4f565b9050919050565b6000610ca682610c79565b9050919050565b6000610cb882610c9b565b9050919050565b610cc881610cad565b82525050565b6000602082019050610ce36000830184610cbf565b92915050565b6000819050919050565b610cfc81610ce9565b82525050565b6000602082019050610d176000830184610cf3565b92915050565b600080fd5b6000610d2d82610c4f565b9050919050565b610d3d81610d22565b8114610d4857600080fd5b50565b600081359050610d5a81610d34565b92915050565b600060208284031215610d7657610d75610d1d565b5b6000610d8484828501610d4b565b91505092915050565b610d9681610ce9565b8114610da157600080fd5b50565b600081359050610db381610d8d565b92915050565b600060208284031215610dcf57610dce610d1d565b5b6000610ddd84828501610da4565b91505092915050565b6000604082019050610dfb6000830185610cf3565b610e086020830184610cf3565b9392505050565b60008060408385031215610e2657610e25610d1d565b5b6000610e3485828601610da4565b9250506020610e4585828601610da4565b9150509250929050565b60008060408385031215610e6657610e65610d1d565b5b6000610e7485828601610d4b565b9250506020610e8585828601610da4565b9150509250929050565b7f4e487b7100000000000000000000000000000000000000000000000000000000600052601160045260246000fd5b6000610ec982610ce9565b9150610ed483610ce9565b9250828202610ee281610ce9565b91508282048414831517610ef957610ef8610e8f565b5b5092915050565b7f4e487b7100000000000000000000000000000000000000000000000000000000600052601260045260246000fd5b6000610f3a82610ce9565b9150610f4583610ce9565b925082610f5557610f54610f00565b5b828204905092915050565b6000610f6b82610ce9565b9150610f7683610ce9565b9250828203905081811115610f8e57610f8d610e8f565b5b92915050565b610f9d81610d22565b82525050565b6000604082019050610fb86000830185610f94565b610fc56020830184610cf3565b9392505050565b60008115159050919050565b610fe181610fcc565b8114610fec57600080fd5b50565b600081519050610ffe81610fd8565b92915050565b60006020828403121561101a57611019610d1d565b5b600061102884828501610fef565b91505092915050565b60006060820190506110466000830186610f94565b6110536020830185610f94565b6110606040830184610cf3565b949350505050565b600060208201905061107d6000830184610f94565b92915050565b60008151905061109281610d8d565b92915050565b6000602082840312156110ae576110ad610d1d565b5b60006110bc84828501611083565b91505092915050565b60006110d082610ce9565b91506110db83610ce9565b92508282019050808211156110f3576110f2610e8f565b5b92915050565b600082825260208201905092915050565b7f5368617265203d20300000000000000000000000000000000000000000000000600082015250565b60006111406009836110f9565b915061114b8261110a565b602082019050919050565b6000602082019050818103600083015261116f81611133565b9050919050565b7f496e76616c696420546f6b656e00000000000000000000000000000000000000600082015250565b60006111ac600d836110f9565b91506111b782611176565b602082019050919050565b600060208201905081810360008301526111db8161119f565b905091905056fea26469706673582212208f45b01b506f087325fb4aa9e221bf2f4c1d4a65023fcc992a57c332b0a810fc64736f6c63430008120033",
					"opcodes": "PUSH1 0xC0 PUSH1 0x40 MSTORE CALLVALUE DUP1 ISZERO PUSH3 0x11 JUMPI PUSH1 0x0 DUP1 REVERT JUMPDEST POP PUSH1 0x40 MLOAD PUSH3 0x13F1 CODESIZE SUB DUP1 PUSH3 0x13F1 DUP4 CODECOPY DUP2 DUP2 ADD PUSH1 0x40 MSTORE DUP2 ADD SWAP1 PUSH3 0x37 SWAP2 SWAP1 PUSH3 0x111 JUMP JUMPDEST DUP2 PUSH20 0xFFFFFFFFFFFFFFFFFFFFFFFFFFFFFFFFFFFFFFFF AND PUSH1 0x80 DUP2 PUSH20 0xFFFFFFFFFFFFFFFFFFFFFFFFFFFFFFFFFFFFFFFF AND DUP2 MSTORE POP POP DUP1 PUSH20 0xFFFFFFFFFFFFFFFFFFFFFFFFFFFFFFFFFFFFFFFF AND PUSH1 0xA0 DUP2 PUSH20 0xFFFFFFFFFFFFFFFFFFFFFFFFFFFFFFFFFFFFFFFF AND DUP2 MSTORE POP POP POP POP PUSH3 0x158 JUMP JUMPDEST PUSH1 0x0 DUP1 REVERT JUMPDEST PUSH1 0x0 PUSH20 0xFFFFFFFFFFFFFFFFFFFFFFFFFFFFFFFFFFFFFFFF DUP3 AND SWAP1 POP SWAP2 SWAP1 POP JUMP JUMPDEST PUSH1 0x0 PUSH3 0xD9 DUP3 PUSH3 0xAC JUMP JUMPDEST SWAP1 POP SWAP2 SWAP1 POP JUMP JUMPDEST PUSH3 0xEB DUP2 PUSH3 0xCC JUMP JUMPDEST DUP2 EQ PUSH3 0xF7 JUMPI PUSH1 0x0 DUP1 REVERT JUMPDEST POP JUMP JUMPDEST PUSH1 0x0 DUP2 MLOAD SWAP1 POP PUSH3 0x10B DUP2 PUSH3 0xE0 JUMP JUMPDEST SWAP3 SWAP2 POP POP JUMP JUMPDEST PUSH1 0x0 DUP1 PUSH1 0x40 DUP4 DUP6 SUB SLT ISZERO PUSH3 0x12B JUMPI PUSH3 0x12A PUSH3 0xA7 JUMP JUMPDEST JUMPDEST PUSH1 0x0 PUSH3 0x13B DUP6 DUP3 DUP7 ADD PUSH3 0xFA JUMP JUMPDEST SWAP3 POP POP PUSH1 0x20 PUSH3 0x14E DUP6 DUP3 DUP7 ADD PUSH3 0xFA JUMP JUMPDEST SWAP2 POP POP SWAP3 POP SWAP3 SWAP1 POP JUMP JUMPDEST PUSH1 0x80 MLOAD PUSH1 0xA0 MLOAD PUSH2 0x1218 PUSH3 0x1D9 PUSH1 0x0 CODECOPY PUSH1 0x0 DUP2 DUP2 PUSH2 0x357 ADD MSTORE DUP2 DUP2 PUSH2 0x49F ADD MSTORE DUP2 DUP2 PUSH2 0x5E0 ADD MSTORE DUP2 DUP2 PUSH2 0x7AA ADD MSTORE DUP2 DUP2 PUSH2 0x897 ADD MSTORE DUP2 DUP2 PUSH2 0x905 ADD MSTORE PUSH2 0xB35 ADD MSTORE PUSH1 0x0 DUP2 DUP2 PUSH2 0x1F1 ADD MSTORE DUP2 DUP2 PUSH2 0x2B3 ADD MSTORE DUP2 DUP2 PUSH2 0x3FE ADD MSTORE DUP2 DUP2 PUSH2 0x542 ADD MSTORE DUP2 DUP2 PUSH2 0x755 ADD MSTORE DUP2 DUP2 PUSH2 0x83B ADD MSTORE DUP2 DUP2 PUSH2 0x8B8 ADD MSTORE PUSH2 0x8E4 ADD MSTORE PUSH2 0x1218 PUSH1 0x0 RETURN INVALID PUSH1 0x80 PUSH1 0x40 MSTORE CALLVALUE DUP1 ISZERO PUSH2 0x10 JUMPI PUSH1 0x0 DUP1 REVERT JUMPDEST POP PUSH1 0x4 CALLDATASIZE LT PUSH2 0x93 JUMPI PUSH1 0x0 CALLDATALOAD PUSH1 0xE0 SHR DUP1 PUSH4 0x70A08231 GT PUSH2 0x66 JUMPI DUP1 PUSH4 0x70A08231 EQ PUSH2 0x110 JUMPI DUP1 PUSH4 0x9A5A8A32 EQ PUSH2 0x140 JUMPI DUP1 PUSH4 0xCB1652DE EQ PUSH2 0x171 JUMPI DUP1 PUSH4 0xD004F0F7 EQ PUSH2 0x1A1 JUMPI DUP1 PUSH4 0xD21220A7 EQ PUSH2 0x1D1 JUMPI PUSH2 0x93 JUMP JUMPDEST DUP1 PUSH4 0xDFE1681 EQ PUSH2 0x98 JUMPI DUP1 PUSH4 0x18160DDD EQ PUSH2 0xB6 JUMPI DUP1 PUSH4 0x443CB4BC EQ PUSH2 0xD4 JUMPI DUP1 PUSH4 0x5A76F25E EQ PUSH2 0xF2 JUMPI JUMPDEST PUSH1 0x0 DUP1 REVERT JUMPDEST PUSH2 0xA0 PUSH2 0x1EF JUMP JUMPDEST PUSH1 0x40 MLOAD PUSH2 0xAD SWAP2 SWAP1 PUSH2 0xCCE JUMP JUMPDEST PUSH1 0x40 MLOAD DUP1 SWAP2 SUB SWAP1 RETURN JUMPDEST PUSH2 0xBE PUSH2 0x213 JUMP JUMPDEST PUSH1 0x40 MLOAD PUSH2 0xCB SWAP2 SWAP1 PUSH2 0xD02 JUMP JUMPDEST PUSH1 0x40 MLOAD DUP1 SWAP2 SUB SWAP1 RETURN JUMPDEST PUSH2 0xDC PUSH2 0x219 JUMP JUMPDEST PUSH1 0x40 MLOAD PUSH2 0xE9 SWAP2 SWAP1 PUSH2 0xD02 JUMP JUMPDEST PUSH1 0x40 MLOAD DUP1 SWAP2 SUB SWAP1 RETURN JUMPDEST PUSH2 0xFA PUSH2 0x21F JUMP JUMPDEST PUSH1 0x40 MLOAD PUSH2 0x107 SWAP2 SWAP1 PUSH2 0xD02 JUMP JUMPDEST PUSH1 0x40 MLOAD DUP1 SWAP2 SUB SWAP1 RETURN JUMPDEST PUSH2 0x12A PUSH1 0x4 DUP1 CALLDATASIZE SUB DUP2 ADD SWAP1 PUSH2 0x125 SWAP2 SWAP1 PUSH2 0xD60 JUMP JUMPDEST PUSH2 0x225 JUMP JUMPDEST PUSH1 0x40 MLOAD PUSH2 0x137 SWAP2 SWAP1 PUSH2 0xD02 JUMP JUMPDEST PUSH1 0x40 MLOAD DUP1 SWAP2 SUB SWAP1 RETURN JUMPDEST PUSH2 0x15A PUSH1 0x4 DUP1 CALLDATASIZE SUB DUP2 ADD SWAP1 PUSH2 0x155 SWAP2 SWAP1 PUSH2 0xDB9 JUMP JUMPDEST PUSH2 0x23D JUMP JUMPDEST PUSH1 0x40 MLOAD PUSH2 0x168 SWAP3 SWAP2 SWAP1 PUSH2 0xDE6 JUMP JUMPDEST PUSH1 0x40 MLOAD DUP1 SWAP2 SUB SWAP1 RETURN JUMPDEST PUSH2 0x18B PUSH1 0x4 DUP1 CALLDATASIZE SUB DUP2 ADD SWAP1 PUSH2 0x186 SWAP2 SWAP1 PUSH2 0xE0F JUMP JUMPDEST PUSH2 0x3FA JUMP JUMPDEST PUSH1 0x40 MLOAD PUSH2 0x198 SWAP2 SWAP1 PUSH2 0xD02 JUMP JUMPDEST PUSH1 0x40 MLOAD DUP1 SWAP2 SUB SWAP1 RETURN JUMPDEST PUSH2 0x1BB PUSH1 0x4 DUP1 CALLDATASIZE SUB DUP2 ADD SWAP1 PUSH2 0x1B6 SWAP2 SWAP1 PUSH2 0xE4F JUMP JUMPDEST PUSH2 0x751 JUMP JUMPDEST PUSH1 0x40 MLOAD PUSH2 0x1C8 SWAP2 SWAP1 PUSH2 0xD02 JUMP JUMPDEST PUSH1 0x40 MLOAD DUP1 SWAP2 SUB SWAP1 RETURN JUMPDEST PUSH2 0x1D9 PUSH2 0xB33 JUMP JUMPDEST PUSH1 0x40 MLOAD PUSH2 0x1E6 SWAP2 SWAP1 PUSH2 0xCCE JUMP JUMPDEST PUSH1 0x40 MLOAD DUP1 SWAP2 SUB SWAP1 RETURN JUMPDEST PUSH32 0x0 DUP2 JUMP JUMPDEST PUSH1 0x2 SLOAD DUP2 JUMP JUMPDEST PUSH1 0x0 SLOAD DUP2 JUMP JUMPDEST PUSH1 0x1 SLOAD DUP2 JUMP JUMPDEST PUSH1 0x3 PUSH1 0x20 MSTORE DUP1 PUSH1 0x0 MSTORE PUSH1 0x40 PUSH1 0x0 KECCAK256 PUSH1 0x0 SWAP2 POP SWAP1 POP SLOAD DUP2 JUMP JUMPDEST PUSH1 0x0 DUP1 PUSH1 0x2 SLOAD DUP4 PUSH1 0x0 SLOAD PUSH2 0x251 SWAP2 SWAP1 PUSH2 0xEBE JUMP JUMPDEST PUSH2 0x25B SWAP2 SWAP1 PUSH2 0xF2F JUMP JUMPDEST SWAP2 POP PUSH1 0x2 SLOAD DUP4 PUSH1 0x1 SLOAD PUSH2 0x26E SWAP2 SWAP1 PUSH2 0xEBE JUMP JUMPDEST PUSH2 0x278 SWAP2 SWAP1 PUSH2 0xF2F JUMP JUMPDEST SWAP1 POP PUSH2 0x284 CALLER DUP5 PUSH2 0xB57 JUMP JUMPDEST PUSH2 0x2A8 DUP3 PUSH1 0x0 SLOAD PUSH2 0x295 SWAP2 SWAP1 PUSH2 0xF60 JUMP JUMPDEST DUP3 PUSH1 0x1 SLOAD PUSH2 0x2A3 SWAP2 SWAP1 PUSH2 0xF60 JUMP JUMPDEST PUSH2 0xBCA JUMP JUMPDEST PUSH1 0x0 DUP3 GT ISZERO PUSH2 0x355 JUMPI PUSH32 0x0 PUSH20 0xFFFFFFFFFFFFFFFFFFFFFFFFFFFFFFFFFFFFFFFF AND PUSH4 0xA9059CBB CALLER DUP5 PUSH1 0x40 MLOAD DUP4 PUSH4 0xFFFFFFFF AND PUSH1 0xE0 SHL DUP2 MSTORE PUSH1 0x4 ADD PUSH2 0x30C SWAP3 SWAP2 SWAP1 PUSH2 0xFA3 JUMP JUMPDEST PUSH1 0x20 PUSH1 0x40 MLOAD DUP1 DUP4 SUB DUP2 PUSH1 0x0 DUP8 GAS CALL ISZERO DUP1 ISZERO PUSH2 0x32B JUMPI RETURNDATASIZE PUSH1 0x0 DUP1 RETURNDATACOPY RETURNDATASIZE PUSH1 0x0 REVERT JUMPDEST POP POP POP POP PUSH1 0x40 MLOAD RETURNDATASIZE PUSH1 0x1F NOT PUSH1 0x1F DUP3 ADD AND DUP3 ADD DUP1 PUSH1 0x40 MSTORE POP DUP2 ADD SWAP1 PUSH2 0x34F SWAP2 SWAP1 PUSH2 0x1004 JUMP JUMPDEST POP PUSH2 0x3F5 JUMP JUMPDEST PUSH32 0x0 PUSH20 0xFFFFFFFFFFFFFFFFFFFFFFFFFFFFFFFFFFFFFFFF AND PUSH4 0xA9059CBB CALLER DUP4 PUSH1 0x40 MLOAD DUP4 PUSH4 0xFFFFFFFF AND PUSH1 0xE0 SHL DUP2 MSTORE PUSH1 0x4 ADD PUSH2 0x3B0 SWAP3 SWAP2 SWAP1 PUSH2 0xFA3 JUMP JUMPDEST PUSH1 0x20 PUSH1 0x40 MLOAD DUP1 DUP4 SUB DUP2 PUSH1 0x0 DUP8 GAS CALL ISZERO DUP1 ISZERO PUSH2 0x3CF JUMPI RETURNDATASIZE PUSH1 0x0 DUP1 RETURNDATACOPY RETURNDATASIZE PUSH1 0x0 REVERT JUMPDEST POP POP POP POP PUSH1 0x40 MLOAD RETURNDATASIZE PUSH1 0x1F NOT PUSH1 0x1F DUP3 ADD AND DUP3 ADD DUP1 PUSH1 0x40 MSTORE POP DUP2 ADD SWAP1 PUSH2 0x3F3 SWAP2 SWAP1 PUSH2 0x1004 JUMP JUMPDEST POP JUMPDEST SWAP2 POP SWAP2 JUMP JUMPDEST PUSH1 0x0 PUSH32 0x0 PUSH20 0xFFFFFFFFFFFFFFFFFFFFFFFFFFFFFFFFFFFFFFFF AND PUSH4 0x23B872DD CALLER ADDRESS DUP7 PUSH1 0x40 MLOAD DUP5 PUSH4 0xFFFFFFFF AND PUSH1 0xE0 SHL DUP2 MSTORE PUSH1 0x4 ADD PUSH2 0x459 SWAP4 SWAP3 SWAP2 SWAP1 PUSH2 0x1031 JUMP JUMPDEST PUSH1 0x20 PUSH1 0x40 MLOAD DUP1 DUP4 SUB DUP2 PUSH1 0x0 DUP8 GAS CALL ISZERO DUP1 ISZERO PUSH2 0x478 JUMPI RETURNDATASIZE PUSH1 0x0 DUP1 RETURNDATACOPY RETURNDATASIZE PUSH1 0x0 REVERT JUMPDEST POP POP POP POP PUSH1 0x40 MLOAD RETURNDATASIZE PUSH1 0x1F NOT PUSH1 0x1F DUP3 ADD AND DUP3 ADD DUP1 PUSH1 0x40 MSTORE POP DUP2 ADD SWAP1 PUSH2 0x49C SWAP2 SWAP1 PUSH2 0x1004 JUMP JUMPDEST POP PUSH32 0x0 PUSH20 0xFFFFFFFFFFFFFFFFFFFFFFFFFFFFFFFFFFFFFFFF AND PUSH4 0x23B872DD CALLER ADDRESS DUP6 PUSH1 0x40 MLOAD DUP5 PUSH4 0xFFFFFFFF AND PUSH1 0xE0 SHL DUP2 MSTORE PUSH1 0x4 ADD PUSH2 0x4FA SWAP4 SWAP3 SWAP2 SWAP1 PUSH2 0x1031 JUMP JUMPDEST PUSH1 0x20 PUSH1 0x40 MLOAD DUP1 DUP4 SUB DUP2 PUSH1 0x0 DUP8 GAS CALL ISZERO DUP1 ISZERO PUSH2 0x519 JUMPI RETURNDATASIZE PUSH1 0x0 DUP1 RETURNDATACOPY RETURNDATASIZE PUSH1 0x0 REVERT JUMPDEST POP POP POP POP PUSH1 0x40 MLOAD RETURNDATASIZE PUSH1 0x1F NOT PUSH1 0x1F DUP3 ADD AND DUP3 ADD DUP1 PUSH1 0x40 MSTORE POP DUP2 ADD SWAP1 PUSH2 0x53D SWAP2 SWAP1 PUSH2 0x1004 JUMP JUMPDEST POP PUSH1 0x0 PUSH32 0x0 PUSH20 0xFFFFFFFFFFFFFFFFFFFFFFFFFFFFFFFFFFFFFFFF AND PUSH4 0x70A08231 ADDRESS PUSH1 0x40 MLOAD DUP3 PUSH4 0xFFFFFFFF AND PUSH1 0xE0 SHL DUP2 MSTORE PUSH1 0x4 ADD PUSH2 0x599 SWAP2 SWAP1 PUSH2 0x1068 JUMP JUMPDEST PUSH1 0x20 PUSH1 0x40 MLOAD DUP1 DUP4 SUB DUP2 DUP7 GAS STATICCALL ISZERO DUP1 ISZERO PUSH2 0x5B6 JUMPI RETURNDATASIZE PUSH1 0x0 DUP1 RETURNDATACOPY RETURNDATASIZE PUSH1 0x0 REVERT JUMPDEST POP POP POP POP PUSH1 0x40 MLOAD RETURNDATASIZE PUSH1 0x1F NOT PUSH1 0x1F DUP3 ADD AND DUP3 ADD DUP1 PUSH1 0x40 MSTORE POP DUP2 ADD SWAP1 PUSH2 0x5DA SWAP2 SWAP1 PUSH2 0x1098 JUMP JUMPDEST SWAP1 POP PUSH1 0x0 PUSH32 0x0 PUSH20 0xFFFFFFFFFFFFFFFFFFFFFFFFFFFFFFFFFFFFFFFF AND PUSH4 0x70A08231 ADDRESS PUSH1 0x40 MLOAD DUP3 PUSH4 0xFFFFFFFF AND PUSH1 0xE0 SHL DUP2 MSTORE PUSH1 0x4 ADD PUSH2 0x637 SWAP2 SWAP1 PUSH2 0x1068 JUMP JUMPDEST PUSH1 0x20 PUSH1 0x40 MLOAD DUP1 DUP4 SUB DUP2 DUP7 GAS STATICCALL ISZERO DUP1 ISZERO PUSH2 0x654 JUMPI RETURNDATASIZE PUSH1 0x0 DUP1 RETURNDATACOPY RETURNDATASIZE PUSH1 0x0 REVERT JUMPDEST POP POP POP POP PUSH1 0x40 MLOAD RETURNDATASIZE PUSH1 0x1F NOT PUSH1 0x1F DUP3 ADD AND DUP3 ADD DUP1 PUSH1 0x40 MSTORE POP DUP2 ADD SWAP1 PUSH2 0x678 SWAP2 SWAP1 PUSH2 0x1098 JUMP JUMPDEST SWAP1 POP PUSH1 0x0 DUP1 SLOAD DUP4 PUSH2 0x689 SWAP2 SWAP1 PUSH2 0xF60 JUMP JUMPDEST SWAP1 POP PUSH1 0x0 PUSH1 0x1 SLOAD DUP4 PUSH2 0x69B SWAP2 SWAP1 PUSH2 0xF60 JUMP JUMPDEST SWAP1 POP PUSH1 0x0 PUSH1 0x2 SLOAD SUB PUSH2 0x6BA JUMPI DUP1 DUP3 PUSH2 0x6B3 SWAP2 SWAP1 PUSH2 0x10C5 JUMP JUMPDEST SWAP5 POP PUSH2 0x6F0 JUMP JUMPDEST PUSH1 0x1 SLOAD PUSH1 0x0 SLOAD PUSH2 0x6CA SWAP2 SWAP1 PUSH2 0x10C5 JUMP JUMPDEST PUSH1 0x2 SLOAD DUP3 DUP5 PUSH2 0x6D9 SWAP2 SWAP1 PUSH2 0x10C5 JUMP JUMPDEST PUSH2 0x6E3 SWAP2 SWAP1 PUSH2 0xEBE JUMP JUMPDEST PUSH2 0x6ED SWAP2 SWAP1 PUSH2 0xF2F JUMP JUMPDEST SWAP5 POP JUMPDEST PUSH1 0x0 DUP6 GT PUSH2 0x733 JUMPI PUSH1 0x40 MLOAD PUSH32 0x8C379A000000000000000000000000000000000000000000000000000000000 DUP2 MSTORE PUSH1 0x4 ADD PUSH2 0x72A SWAP1 PUSH2 0x1156 JUMP JUMPDEST PUSH1 0x40 MLOAD DUP1 SWAP2 SUB SWAP1 REVERT JUMPDEST PUSH2 0x73D CALLER DUP7 PUSH2 0xBDC JUMP JUMPDEST PUSH2 0x747 DUP5 DUP5 PUSH2 0xBCA JUMP JUMPDEST POP POP POP POP SWAP3 SWAP2 POP POP JUMP JUMPDEST PUSH1 0x0 PUSH32 0x0 PUSH20 0xFFFFFFFFFFFFFFFFFFFFFFFFFFFFFFFFFFFFFFFF AND DUP4 PUSH20 0xFFFFFFFFFFFFFFFFFFFFFFFFFFFFFFFFFFFFFFFF AND EQ DUP1 PUSH2 0x7F8 JUMPI POP PUSH32 0x0 PUSH20 0xFFFFFFFFFFFFFFFFFFFFFFFFFFFFFFFFFFFFFFFF AND DUP4 PUSH20 0xFFFFFFFFFFFFFFFFFFFFFFFFFFFFFFFFFFFFFFFF AND EQ JUMPDEST PUSH2 0x837 JUMPI PUSH1 0x40 MLOAD PUSH32 0x8C379A000000000000000000000000000000000000000000000000000000000 DUP2 MSTORE PUSH1 0x4 ADD PUSH2 0x82E SWAP1 PUSH2 0x11C2 JUMP JUMPDEST PUSH1 0x40 MLOAD DUP1 SWAP2 SUB SWAP1 REVERT JUMPDEST PUSH1 0x0 PUSH32 0x0 PUSH20 0xFFFFFFFFFFFFFFFFFFFFFFFFFFFFFFFFFFFFFFFF AND DUP5 PUSH20 0xFFFFFFFFFFFFFFFFFFFFFFFFFFFFFFFFFFFFFFFF AND EQ SWAP1 POP PUSH1 0x0 DUP1 PUSH1 0x0 DUP1 DUP5 PUSH2 0x8E2 JUMPI PUSH32 0x0 PUSH32 0x0 PUSH1 0x1 SLOAD PUSH1 0x0 SLOAD PUSH2 0x92B JUMP JUMPDEST PUSH32 0x0 PUSH32 0x0 PUSH1 0x0 SLOAD PUSH1 0x1 SLOAD JUMPDEST SWAP4 POP SWAP4 POP SWAP4 POP SWAP4 POP DUP4 PUSH20 0xFFFFFFFFFFFFFFFFFFFFFFFFFFFFFFFFFFFFFFFF AND PUSH4 0x23B872DD CALLER ADDRESS DUP11 PUSH1 0x40 MLOAD DUP5 PUSH4 0xFFFFFFFF AND PUSH1 0xE0 SHL DUP2 MSTORE PUSH1 0x4 ADD PUSH2 0x970 SWAP4 SWAP3 SWAP2 SWAP1 PUSH2 0x1031 JUMP JUMPDEST PUSH1 0x20 PUSH1 0x40 MLOAD DUP1 DUP4 SUB DUP2 PUSH1 0x0 DUP8 GAS CALL ISZERO DUP1 ISZERO PUSH2 0x98F JUMPI RETURNDATASIZE PUSH1 0x0 DUP1 RETURNDATACOPY RETURNDATASIZE PUSH1 0x0 REVERT JUMPDEST POP POP POP POP PUSH1 0x40 MLOAD RETURNDATASIZE PUSH1 0x1F NOT PUSH1 0x1F DUP3 ADD AND DUP3 ADD DUP1 PUSH1 0x40 MSTORE POP DUP2 ADD SWAP1 PUSH2 0x9B3 SWAP2 SWAP1 PUSH2 0x1004 JUMP JUMPDEST POP PUSH1 0x0 DUP3 DUP6 PUSH20 0xFFFFFFFFFFFFFFFFFFFFFFFFFFFFFFFFFFFFFFFF AND PUSH4 0x70A08231 ADDRESS PUSH1 0x40 MLOAD DUP3 PUSH4 0xFFFFFFFF AND PUSH1 0xE0 SHL DUP2 MSTORE PUSH1 0x4 ADD PUSH2 0x9F0 SWAP2 SWAP1 PUSH2 0x1068 JUMP JUMPDEST PUSH1 0x20 PUSH1 0x40 MLOAD DUP1 DUP4 SUB DUP2 DUP7 GAS STATICCALL ISZERO DUP1 ISZERO PUSH2 0xA0D JUMPI RETURNDATASIZE PUSH1 0x0 DUP1 RETURNDATACOPY RETURNDATASIZE PUSH1 0x0 REVERT JUMPDEST POP POP POP POP PUSH1 0x40 MLOAD RETURNDATASIZE PUSH1 0x1F NOT PUSH1 0x1F DUP3 ADD AND DUP3 ADD DUP1 PUSH1 0x40 MSTORE POP DUP2 ADD SWAP1 PUSH2 0xA31 SWAP2 SWAP1 PUSH2 0x1098 JUMP JUMPDEST PUSH2 0xA3B SWAP2 SWAP1 PUSH2 0xF60 JUMP JUMPDEST SWAP1 POP PUSH2 0x3E8 PUSH2 0x3E5 DUP3 PUSH2 0xA4E SWAP2 SWAP1 PUSH2 0xEBE JUMP JUMPDEST PUSH2 0xA58 SWAP2 SWAP1 PUSH2 0xF2F JUMP JUMPDEST SWAP7 POP PUSH1 0x0 DUP1 DUP8 PUSH2 0xA7F JUMPI DUP9 DUP5 PUSH2 0xA6E SWAP2 SWAP1 PUSH2 0xF60 JUMP JUMPDEST DUP4 DUP7 PUSH2 0xA7A SWAP2 SWAP1 PUSH2 0x10C5 JUMP JUMPDEST PUSH2 0xA98 JUMP JUMPDEST DUP10 DUP6 PUSH2 0xA8B SWAP2 SWAP1 PUSH2 0x10C5 JUMP JUMPDEST DUP10 DUP6 PUSH2 0xA97 SWAP2 SWAP1 PUSH2 0xF60 JUMP JUMPDEST JUMPDEST SWAP2 POP SWAP2 POP PUSH2 0xAA6 DUP3 DUP3 PUSH2 0xBCA JUMP JUMPDEST DUP6 PUSH20 0xFFFFFFFFFFFFFFFFFFFFFFFFFFFFFFFFFFFFFFFF AND PUSH4 0xA9059CBB CALLER DUP12 PUSH1 0x40 MLOAD DUP4 PUSH4 0xFFFFFFFF AND PUSH1 0xE0 SHL DUP2 MSTORE PUSH1 0x4 ADD PUSH2 0xAE1 SWAP3 SWAP2 SWAP1 PUSH2 0xFA3 JUMP JUMPDEST PUSH1 0x20 PUSH1 0x40 MLOAD DUP1 DUP4 SUB DUP2 PUSH1 0x0 DUP8 GAS CALL ISZERO DUP1 ISZERO PUSH2 0xB00 JUMPI RETURNDATASIZE PUSH1 0x0 DUP1 RETURNDATACOPY RETURNDATASIZE PUSH1 0x0 REVERT JUMPDEST POP POP POP POP PUSH1 0x40 MLOAD RETURNDATASIZE PUSH1 0x1F NOT PUSH1 0x1F DUP3 ADD AND DUP3 ADD DUP1 PUSH1 0x40 MSTORE POP DUP2 ADD SWAP1 PUSH2 0xB24 SWAP2 SWAP1 PUSH2 0x1004 JUMP JUMPDEST POP POP POP POP POP POP POP POP POP SWAP3 SWAP2 POP POP JUMP JUMPDEST PUSH32 0x0 DUP2 JUMP JUMPDEST DUP1 PUSH1 0x3 PUSH1 0x0 DUP5 PUSH20 0xFFFFFFFFFFFFFFFFFFFFFFFFFFFFFFFFFFFFFFFF AND PUSH20 0xFFFFFFFFFFFFFFFFFFFFFFFFFFFFFFFFFFFFFFFF AND DUP2 MSTORE PUSH1 0x20 ADD SWAP1 DUP2 MSTORE PUSH1 0x20 ADD PUSH1 0x0 KECCAK256 PUSH1 0x0 DUP3 DUP3 SLOAD PUSH2 0xBA6 SWAP2 SWAP1 PUSH2 0xF60 JUMP JUMPDEST SWAP3 POP POP DUP2 SWAP1 SSTORE POP DUP1 PUSH1 0x2 PUSH1 0x0 DUP3 DUP3 SLOAD PUSH2 0xBBF SWAP2 SWAP1 PUSH2 0xF60 JUMP JUMPDEST SWAP3 POP POP DUP2 SWAP1 SSTORE POP POP POP JUMP JUMPDEST DUP2 PUSH1 0x0 DUP2 SWAP1 SSTORE POP DUP1 PUSH1 0x1 DUP2 SWAP1 SSTORE POP POP POP JUMP JUMPDEST DUP1 PUSH1 0x3 PUSH1 0x0 DUP5 PUSH20 0xFFFFFFFFFFFFFFFFFFFFFFFFFFFFFFFFFFFFFFFF AND PUSH20 0xFFFFFFFFFFFFFFFFFFFFFFFFFFFFFFFFFFFFFFFF AND DUP2 MSTORE PUSH1 0x20 ADD SWAP1 DUP2 MSTORE PUSH1 0x20 ADD PUSH1 0x0 KECCAK256 PUSH1 0x0 DUP3 DUP3 SLOAD PUSH2 0xC2B SWAP2 SWAP1 PUSH2 0x10C5 JUMP JUMPDEST SWAP3 POP POP DUP2 SWAP1 SSTORE POP DUP1 PUSH1 0x2 PUSH1 0x0 DUP3 DUP3 SLOAD PUSH2 0xC44 SWAP2 SWAP1 PUSH2 0x10C5 JUMP JUMPDEST SWAP3 POP POP DUP2 SWAP1 SSTORE POP POP POP JUMP JUMPDEST PUSH1 0x0 PUSH20 0xFFFFFFFFFFFFFFFFFFFFFFFFFFFFFFFFFFFFFFFF DUP3 AND SWAP1 POP SWAP2 SWAP1 POP JUMP JUMPDEST PUSH1 0x0 DUP2 SWAP1 POP SWAP2 SWAP1 POP JUMP JUMPDEST PUSH1 0x0 PUSH2 0xC94 PUSH2 0xC8F PUSH2 0xC8A DUP5 PUSH2 0xC4F JUMP JUMPDEST PUSH2 0xC6F JUMP JUMPDEST PUSH2 0xC4F JUMP JUMPDEST SWAP1 POP SWAP2 SWAP1 POP JUMP JUMPDEST PUSH1 0x0 PUSH2 0xCA6 DUP3 PUSH2 0xC79 JUMP JUMPDEST SWAP1 POP SWAP2 SWAP1 POP JUMP JUMPDEST PUSH1 0x0 PUSH2 0xCB8 DUP3 PUSH2 0xC9B JUMP JUMPDEST SWAP1 POP SWAP2 SWAP1 POP JUMP JUMPDEST PUSH2 0xCC8 DUP2 PUSH2 0xCAD JUMP JUMPDEST DUP3 MSTORE POP POP JUMP JUMPDEST PUSH1 0x0 PUSH1 0x20 DUP3 ADD SWAP1 POP PUSH2 0xCE3 PUSH1 0x0 DUP4 ADD DUP5 PUSH2 0xCBF JUMP JUMPDEST SWAP3 SWAP2 POP POP JUMP JUMPDEST PUSH1 0x0 DUP2 SWAP1 POP SWAP2 SWAP1 POP JUMP JUMPDEST PUSH2 0xCFC DUP2 PUSH2 0xCE9 JUMP JUMPDEST DUP3 MSTORE POP POP JUMP JUMPDEST PUSH1 0x0 PUSH1 0x20 DUP3 ADD SWAP1 POP PUSH2 0xD17 PUSH1 0x0 DUP4 ADD DUP5 PUSH2 0xCF3 JUMP JUMPDEST SWAP3 SWAP2 POP POP JUMP JUMPDEST PUSH1 0x0 DUP1 REVERT JUMPDEST PUSH1 0x0 PUSH2 0xD2D DUP3 PUSH2 0xC4F JUMP JUMPDEST SWAP1 POP SWAP2 SWAP1 POP JUMP JUMPDEST PUSH2 0xD3D DUP2 PUSH2 0xD22 JUMP JUMPDEST DUP2 EQ PUSH2 0xD48 JUMPI PUSH1 0x0 DUP1 REVERT JUMPDEST POP JUMP JUMPDEST PUSH1 0x0 DUP2 CALLDATALOAD SWAP1 POP PUSH2 0xD5A DUP2 PUSH2 0xD34 JUMP JUMPDEST SWAP3 SWAP2 POP POP JUMP JUMPDEST PUSH1 0x0 PUSH1 0x20 DUP3 DUP5 SUB SLT ISZERO PUSH2 0xD76 JUMPI PUSH2 0xD75 PUSH2 0xD1D JUMP JUMPDEST JUMPDEST PUSH1 0x0 PUSH2 0xD84 DUP5 DUP3 DUP6 ADD PUSH2 0xD4B JUMP JUMPDEST SWAP2 POP POP SWAP3 SWAP2 POP POP JUMP JUMPDEST PUSH2 0xD96 DUP2 PUSH2 0xCE9 JUMP JUMPDEST DUP2 EQ PUSH2 0xDA1 JUMPI PUSH1 0x0 DUP1 REVERT JUMPDEST POP JUMP JUMPDEST PUSH1 0x0 DUP2 CALLDATALOAD SWAP1 POP PUSH2 0xDB3 DUP2 PUSH2 0xD8D JUMP JUMPDEST SWAP3 SWAP2 POP POP JUMP JUMPDEST PUSH1 0x0 PUSH1 0x20 DUP3 DUP5 SUB SLT ISZERO PUSH2 0xDCF JUMPI PUSH2 0xDCE PUSH2 0xD1D JUMP JUMPDEST JUMPDEST PUSH1 0x0 PUSH2 0xDDD DUP5 DUP3 DUP6 ADD PUSH2 0xDA4 JUMP JUMPDEST SWAP2 POP POP SWAP3 SWAP2 POP POP JUMP JUMPDEST PUSH1 0x0 PUSH1 0x40 DUP3 ADD SWAP1 POP PUSH2 0xDFB PUSH1 0x0 DUP4 ADD DUP6 PUSH2 0xCF3 JUMP JUMPDEST PUSH2 0xE08 PUSH1 0x20 DUP4 ADD DUP5 PUSH2 0xCF3 JUMP JUMPDEST SWAP4 SWAP3 POP POP POP JUMP JUMPDEST PUSH1 0x0 DUP1 PUSH1 0x40 DUP4 DUP6 SUB SLT ISZERO PUSH2 0xE26 JUMPI PUSH2 0xE25 PUSH2 0xD1D JUMP JUMPDEST JUMPDEST PUSH1 0x0 PUSH2 0xE34 DUP6 DUP3 DUP7 ADD PUSH2 0xDA4 JUMP JUMPDEST SWAP3 POP POP PUSH1 0x20 PUSH2 0xE45 DUP6 DUP3 DUP7 ADD PUSH2 0xDA4 JUMP JUMPDEST SWAP2 POP POP SWAP3 POP SWAP3 SWAP1 POP JUMP JUMPDEST PUSH1 0x0 DUP1 PUSH1 0x40 DUP4 DUP6 SUB SLT ISZERO PUSH2 0xE66 JUMPI PUSH2 0xE65 PUSH2 0xD1D JUMP JUMPDEST JUMPDEST PUSH1 0x0 PUSH2 0xE74 DUP6 DUP3 DUP7 ADD PUSH2 0xD4B JUMP JUMPDEST SWAP3 POP POP PUSH1 0x20 PUSH2 0xE85 DUP6 DUP3 DUP7 ADD PUSH2 0xDA4 JUMP JUMPDEST SWAP2 POP POP SWAP3 POP SWAP3 SWAP1 POP JUMP JUMPDEST PUSH32 0x4E487B7100000000000000000000000000000000000000000000000000000000 PUSH1 0x0 MSTORE PUSH1 0x11 PUSH1 0x4 MSTORE PUSH1 0x24 PUSH1 0x0 REVERT JUMPDEST PUSH1 0x0 PUSH2 0xEC9 DUP3 PUSH2 0xCE9 JUMP JUMPDEST SWAP2 POP PUSH2 0xED4 DUP4 PUSH2 0xCE9 JUMP JUMPDEST SWAP3 POP DUP3 DUP3 MUL PUSH2 0xEE2 DUP2 PUSH2 0xCE9 JUMP JUMPDEST SWAP2 POP DUP3 DUP3 DIV DUP5 EQ DUP4 ISZERO OR PUSH2 0xEF9 JUMPI PUSH2 0xEF8 PUSH2 0xE8F JUMP JUMPDEST JUMPDEST POP SWAP3 SWAP2 POP POP JUMP JUMPDEST PUSH32 0x4E487B7100000000000000000000000000000000000000000000000000000000 PUSH1 0x0 MSTORE PUSH1 0x12 PUSH1 0x4 MSTORE PUSH1 0x24 PUSH1 0x0 REVERT JUMPDEST PUSH1 0x0 PUSH2 0xF3A DUP3 PUSH2 0xCE9 JUMP JUMPDEST SWAP2 POP PUSH2 0xF45 DUP4 PUSH2 0xCE9 JUMP JUMPDEST SWAP3 POP DUP3 PUSH2 0xF55 JUMPI PUSH2 0xF54 PUSH2 0xF00 JUMP JUMPDEST JUMPDEST DUP3 DUP3 DIV SWAP1 POP SWAP3 SWAP2 POP POP JUMP JUMPDEST PUSH1 0x0 PUSH2 0xF6B DUP3 PUSH2 0xCE9 JUMP JUMPDEST SWAP2 POP PUSH2 0xF76 DUP4 PUSH2 0xCE9 JUMP JUMPDEST SWAP3 POP DUP3 DUP3 SUB SWAP1 POP DUP2 DUP2 GT ISZERO PUSH2 0xF8E JUMPI PUSH2 0xF8D PUSH2 0xE8F JUMP JUMPDEST JUMPDEST SWAP3 SWAP2 POP POP JUMP JUMPDEST PUSH2 0xF9D DUP2 PUSH2 0xD22 JUMP JUMPDEST DUP3 MSTORE POP POP JUMP JUMPDEST PUSH1 0x0 PUSH1 0x40 DUP3 ADD SWAP1 POP PUSH2 0xFB8 PUSH1 0x0 DUP4 ADD DUP6 PUSH2 0xF94 JUMP JUMPDEST PUSH2 0xFC5 PUSH1 0x20 DUP4 ADD DUP5 PUSH2 0xCF3 JUMP JUMPDEST SWAP4 SWAP3 POP POP POP JUMP JUMPDEST PUSH1 0x0 DUP2 ISZERO ISZERO SWAP1 POP SWAP2 SWAP1 POP JUMP JUMPDEST PUSH2 0xFE1 DUP2 PUSH2 0xFCC JUMP JUMPDEST DUP2 EQ PUSH2 0xFEC JUMPI PUSH1 0x0 DUP1 REVERT JUMPDEST POP JUMP JUMPDEST PUSH1 0x0 DUP2 MLOAD SWAP1 POP PUSH2 0xFFE DUP2 PUSH2 0xFD8 JUMP JUMPDEST SWAP3 SWAP2 POP POP JUMP JUMPDEST PUSH1 0x0 PUSH1 0x20 DUP3 DUP5 SUB SLT ISZERO PUSH2 0x101A JUMPI PUSH2 0x1019 PUSH2 0xD1D JUMP JUMPDEST JUMPDEST PUSH1 0x0 PUSH2 0x1028 DUP5 DUP3 DUP6 ADD PUSH2 0xFEF JUMP JUMPDEST SWAP2 POP POP SWAP3 SWAP2 POP POP JUMP JUMPDEST PUSH1 0x0 PUSH1 0x60 DUP3 ADD SWAP1 POP PUSH2 0x1046 PUSH1 0x0 DUP4 ADD DUP7 PUSH2 0xF94 JUMP JUMPDEST PUSH2 0x1053 PUSH1 0x20 DUP4 ADD DUP6 PUSH2 0xF94 JUMP JUMPDEST PUSH2 0x1060 PUSH1 0x40 DUP4 ADD DUP5 PUSH2 0xCF3 JUMP JUMPDEST SWAP5 SWAP4 POP POP POP POP JUMP JUMPDEST PUSH1 0x0 PUSH1 0x20 DUP3 ADD SWAP1 POP PUSH2 0x107D PUSH1 0x0 DUP4 ADD DUP5 PUSH2 0xF94 JUMP JUMPDEST SWAP3 SWAP2 POP POP JUMP JUMPDEST PUSH1 0x0 DUP2 MLOAD SWAP1 POP PUSH2 0x1092 DUP2 PUSH2 0xD8D JUMP JUMPDEST SWAP3 SWAP2 POP POP JUMP JUMPDEST PUSH1 0x0 PUSH1 0x20 DUP3 DUP5 SUB SLT ISZERO PUSH2 0x10AE JUMPI PUSH2 0x10AD PUSH2 0xD1D JUMP JUMPDEST JUMPDEST PUSH1 0x0 PUSH2 0x10BC DUP5 DUP3 DUP6 ADD PUSH2 0x1083 JUMP JUMPDEST SWAP2 POP POP SWAP3 SWAP2 POP POP JUMP JUMPDEST PUSH1 0x0 PUSH2 0x10D0 DUP3 PUSH2 0xCE9 JUMP JUMPDEST SWAP2 POP PUSH2 0x10DB DUP4 PUSH2 0xCE9 JUMP JUMPDEST SWAP3 POP DUP3 DUP3 ADD SWAP1 POP DUP1 DUP3 GT ISZERO PUSH2 0x10F3 JUMPI PUSH2 0x10F2 PUSH2 0xE8F JUMP JUMPDEST JUMPDEST SWAP3 SWAP2 POP POP JUMP JUMPDEST PUSH1 0x0 DUP3 DUP3 MSTORE PUSH1 0x20 DUP3 ADD SWAP1 POP SWAP3 SWAP2 POP POP JUMP JUMPDEST PUSH32 0x5368617265203D20300000000000000000000000000000000000000000000000 PUSH1 0x0 DUP3 ADD MSTORE POP JUMP JUMPDEST PUSH1 0x0 PUSH2 0x1140 PUSH1 0x9 DUP4 PUSH2 0x10F9 JUMP JUMPDEST SWAP2 POP PUSH2 0x114B DUP3 PUSH2 0x110A JUMP JUMPDEST PUSH1 0x20 DUP3 ADD SWAP1 POP SWAP2 SWAP1 POP JUMP JUMPDEST PUSH1 0x0 PUSH1 0x20 DUP3 ADD SWAP1 POP DUP2 DUP2 SUB PUSH1 0x0 DUP4 ADD MSTORE PUSH2 0x116F DUP2 PUSH2 0x1133 JUMP JUMPDEST SWAP1 POP SWAP2 SWAP1 POP JUMP JUMPDEST PUSH32 0x496E76616C696420546F6B656E00000000000000000000000000000000000000 PUSH1 0x0 DUP3 ADD MSTORE POP JUMP JUMPDEST PUSH1 0x0 PUSH2 0x11AC PUSH1 0xD DUP4 PUSH2 0x10F9 JUMP JUMPDEST SWAP2 POP PUSH2 0x11B7 DUP3 PUSH2 0x1176 JUMP JUMPDEST PUSH1 0x20 DUP3 ADD SWAP1 POP SWAP2 SWAP1 POP JUMP JUMPDEST PUSH1 0x0 PUSH1 0x20 DUP3 ADD SWAP1 POP DUP2 DUP2 SUB PUSH1 0x0 DUP4 ADD MSTORE PUSH2 0x11DB DUP2 PUSH2 0x119F JUMP JUMPDEST SWAP1 POP SWAP2 SWAP1 POP JUMP INVALID LOG2 PUSH5 0x6970667358 0x22 SLT KECCAK256 DUP16 GASLIMIT 0xB0 SHL POP PUSH16 0x87325FB4AA9E221BF2F4C1D4A65023F 0xCC SWAP10 0x2A JUMPI 0xC3 ORIGIN 0xB0 0xA8 LT 0xFC PUSH5 0x736F6C6343 STOP ADDMOD SLT STOP CALLER "
				},
				"gasEstimates": {
					"creation": {
						"codeDepositCost": "926400",
						"executionCost": "infinite",
						"totalCost": "infinite"
					},
					"external": {
						"AddLiquidity(uint256,uint256)": "infinite",
						"RemoveLiquidity(uint256)": "infinite",
						"balanceOf(address)": "2814",
						"reserve0()": "2474",
						"reserve1()": "2496",
						"swap(address,uint256)": "infinite",
						"token0()": "infinite",
						"token1()": "infinite",
						"totalSupply()": "2452"
					},
					"internal": {
						"_burn(address,uint256)": "infinite",
						"_mint(address,uint256)": "infinite",
						"update(uint256,uint256)": "44241"
					}
				},
				"methodIdentifiers": {
					"AddLiquidity(uint256,uint256)": "cb1652de",
					"RemoveLiquidity(uint256)": "9a5a8a32",
					"balanceOf(address)": "70a08231",
					"reserve0()": "443cb4bc",
					"reserve1()": "5a76f25e",
					"swap(address,uint256)": "d004f0f7",
					"token0()": "0dfe1681",
					"token1()": "d21220a7",
					"totalSupply()": "18160ddd"
				}
			},
			"storageLayout": {
				"storage": [
					{
						"astId": 79,
						"contract": "Contracts/csamm.sol:CSAMM",
						"label": "reserve0",
						"offset": 0,
						"slot": "0",
						"type": "t_uint256"
					},
					{
						"astId": 81,
						"contract": "Contracts/csamm.sol:CSAMM",
						"label": "reserve1",
						"offset": 0,
						"slot": "1",
						"type": "t_uint256"
					},
					{
						"astId": 83,
						"contract": "Contracts/csamm.sol:CSAMM",
						"label": "totalSupply",
						"offset": 0,
						"slot": "2",
						"type": "t_uint256"
					},
					{
						"astId": 87,
						"contract": "Contracts/csamm.sol:CSAMM",
						"label": "balanceOf",
						"offset": 0,
						"slot": "3",
						"type": "t_mapping(t_address,t_uint256)"
					}
				],
				"types": {
					"t_address": {
						"encoding": "inplace",
						"label": "address",
						"numberOfBytes": "20"
					},
					"t_mapping(t_address,t_uint256)": {
						"encoding": "mapping",
						"key": "t_address",
						"label": "mapping(address => uint256)",
						"numberOfBytes": "32",
						"value": "t_uint256"
					},
					"t_uint256": {
						"encoding": "inplace",
						"label": "uint256",
						"numberOfBytes": "32"
					}
				}
			},
			"userdoc": {
				"kind": "user",
				"methods": {},
				"version": 1
			}
		}
	}
}