{
	"data": {
		"bytecode": {
			"linkReferences": {},
			"object": "608060405234801561001057600080fd5b50610106806100206000396000f3fe608060405260043610601c5760003560e01c8063edcbe76c146021575b600080fd5b6037600480360381019060339190604f565b6039565b005b50565b60008135905060498160bc565b92915050565b600060208284031215606257606160b7565b5b6000606e84828501603c565b91505092915050565b60006080826097565b9050919050565b60006090826077565b9050919050565b600073ffffffffffffffffffffffffffffffffffffffff82169050919050565b600080fd5b60c3816087565b811460cd57600080fd5b5056fea2646970667358221220c5b308140fc0e167ea6fe4142c6e68df42a60fec41dd869013c9b35b29947d1f64736f6c63430008070033",
			"opcodes": "PUSH1 0x80 PUSH1 0x40 MSTORE CALLVALUE DUP1 ISZERO PUSH2 0x10 JUMPI PUSH1 0x0 DUP1 REVERT JUMPDEST POP PUSH2 0x106 DUP1 PUSH2 0x20 PUSH1 0x0 CODECOPY PUSH1 0x0 RETURN INVALID PUSH1 0x80 PUSH1 0x40 MSTORE PUSH1 0x4 CALLDATASIZE LT PUSH1 0x1C JUMPI PUSH1 0x0 CALLDATALOAD PUSH1 0xE0 SHR DUP1 PUSH4 0xEDCBE76C EQ PUSH1 0x21 JUMPI JUMPDEST PUSH1 0x0 DUP1 REVERT JUMPDEST PUSH1 0x37 PUSH1 0x4 DUP1 CALLDATASIZE SUB DUP2 ADD SWAP1 PUSH1 0x33 SWAP2 SWAP1 PUSH1 0x4F JUMP JUMPDEST PUSH1 0x39 JUMP JUMPDEST STOP JUMPDEST POP JUMP JUMPDEST PUSH1 0x0 DUP2 CALLDATALOAD SWAP1 POP PUSH1 0x49 DUP2 PUSH1 0xBC JUMP JUMPDEST SWAP3 SWAP2 POP POP JUMP JUMPDEST PUSH1 0x0 PUSH1 0x20 DUP3 DUP5 SUB SLT ISZERO PUSH1 0x62 JUMPI PUSH1 0x61 PUSH1 0xB7 JUMP JUMPDEST JUMPDEST PUSH1 0x0 PUSH1 0x6E DUP5 DUP3 DUP6 ADD PUSH1 0x3C JUMP JUMPDEST SWAP2 POP POP SWAP3 SWAP2 POP POP JUMP JUMPDEST PUSH1 0x0 PUSH1 0x80 DUP3 PUSH1 0x97 JUMP JUMPDEST SWAP1 POP SWAP2 SWAP1 POP JUMP JUMPDEST PUSH1 0x0 PUSH1 0x90 DUP3 PUSH1 0x77 JUMP JUMPDEST SWAP1 POP SWAP2 SWAP1 POP JUMP JUMPDEST PUSH1 0x0 PUSH20 0xFFFFFFFFFFFFFFFFFFFFFFFFFFFFFFFFFFFFFFFF DUP3 AND SWAP1 POP SWAP2 SWAP1 POP JUMP JUMPDEST PUSH1 0x0 DUP1 REVERT JUMPDEST PUSH1 0xC3 DUP2 PUSH1 0x87 JUMP JUMPDEST DUP2 EQ PUSH1 0xCD JUMPI PUSH1 0x0 DUP1 REVERT JUMPDEST POP JUMP INVALID LOG2 PUSH5 0x6970667358 0x22 SLT KECCAK256 0xC5 0xB3 ADDMOD EQ 0xF 0xC0 0xE1 PUSH8 0xEA6FE4142C6E68DF TIMESTAMP 0xA6 0xF 0xEC COINBASE 0xDD DUP7 SWAP1 SGT 0xC9 0xB3 JUMPDEST 0x29 SWAP5 PUSH30 0x1F64736F6C63430008070033000000000000000000000000000000000000 "
		},
		"gasEstimates": {
			"creation": {
				"codeDepositCost": "52400",
				"executionCost": "105",
				"totalCost": "52505"
			},
			"external": {
				"callFoo(address)": "452"
			}
		},
		"methodIdentifiers": {
			"callFoo(address)": "edcbe76c"
		}
	},
	"abi": [
		{
			"inputs": [
				{
					"internalType": "contract TestContract",
					"name": "_test",
					"type": "address"
				}
			],
			"name": "callFoo",
			"outputs": [],
			"stateMutability": "payable",
			"type": "function"
		}
	]
}