{
	"data": {
		"bytecode": {
			"linkReferences": {},
			"object": "608060405234801561001057600080fd5b50336000806101000a81548173ffffffffffffffffffffffffffffffffffffffff021916908373ffffffffffffffffffffffffffffffffffffffff160217905550610fe0806100606000396000f3fe6080604052600436106100865760003560e01c80638da5cb5b116100595780638da5cb5b146101595780639f81aed714610184578063b0f8b142146101af578063c1a287e2146101df578063c4d252f51461020a57610086565b8063228250c91461008b5780634125ff90146100c85780634b9915a5146100f35780638a1ce0b61461011c575b600080fd5b34801561009757600080fd5b506100b260048036038101906100ad9190610a7e565b610233565b6040516100bf9190610cc1565b60405180910390f35b3480156100d457600080fd5b506100dd610253565b6040516100ea9190610d19565b60405180910390f35b3480156100ff57600080fd5b5061011a600480360381019061011591906109c2565b610259565b005b34801561012857600080fd5b50610143600480360381019061013e91906109c2565b61043f565b6040516101509190610cdc565b60405180910390f35b34801561016557600080fd5b5061016e610481565b60405161017b9190610c41565b60405180910390f35b34801561019057600080fd5b506101996104a5565b6040516101a69190610d19565b60405180910390f35b6101c960048036038101906101c491906109c2565b6104aa565b6040516101d69190610cf7565b60405180910390f35b3480156101eb57600080fd5b506101f4610784565b6040516102019190610d19565b60405180910390f35b34801561021657600080fd5b50610231600480360381019061022c9190610a7e565b61078a565b005b60016020528060005260406000206000915054906101000a900460ff1681565b6103e881565b60008054906101000a900473ffffffffffffffffffffffffffffffffffffffff1673ffffffffffffffffffffffffffffffffffffffff163373ffffffffffffffffffffffffffffffffffffffff16146102de576040517f74a2152700000000000000000000000000000000000000000000000000000000815260040160405180910390fd5b60006102ef8888888888888861043f565b90506001600082815260200190815260200160002060009054906101000a900460ff161561035457806040517f995042be00000000000000000000000000000000000000000000000000000000815260040161034b9190610cdc565b60405180910390fd5b600a426103619190610dec565b82108061037a57506103e8426103779190610dec565b82115b156103b1576040517f58f7e23400000000000000000000000000000000000000000000000000000000815260040160405180910390fd5b600180600083815260200190815260200160002060006101000a81548160ff0219169083151502179055508773ffffffffffffffffffffffffffffffffffffffff16817f3c22f47140594040d205a5533cfedd86c9ab8622c39ead03affb2d97052c794c89898989898960405161042d96959493929190610d34565b60405180910390a35050505050505050565b60008787878787878760405160200161045e9796959493929190610c5c565b604051602081830303815290604052805190602001209050979650505050505050565b60008054906101000a900473ffffffffffffffffffffffffffffffffffffffff1681565b600a81565b606060008054906101000a900473ffffffffffffffffffffffffffffffffffffffff1673ffffffffffffffffffffffffffffffffffffffff163373ffffffffffffffffffffffffffffffffffffffff1614610531576040517f74a2152700000000000000000000000000000000000000000000000000000000815260040160405180910390fd5b60006105428989898989898961043f565b90506001600082815260200190815260200160002060009054906101000a900460ff166105a657806040517f0995c9d500000000000000000000000000000000000000000000000000000000815260040161059d9190610cdc565b60405180910390fd5b6103e8836105b49190610dec565b42101561060757426103e8846105ca9190610dec565b6040517f431c9fb30000000000000000000000000000000000000000000000000000000081526004016105fe929190610d8b565b60405180910390fd5b60006001600083815260200190815260200160002060006101000a81548160ff02191690831515021790555060606000888890501115610683578787604051610651929190610c11565b6040518091039020868660405160200161066d93929190610be7565b60405160208183030381529060405290506106cb565b85858080601f016020809104026020016040519081016040528093929190818152602001838380828437600081840152601f19601f8201169050808301925050505050505090505b6000808b73ffffffffffffffffffffffffffffffffffffffff168b846040516106f49190610c2a565b60006040518083038185875af1925050503d8060008114610731576040519150601f19603f3d011682016040523d82523d6000602084013e610736565b606091505b509150915081610772576040517fd9b4f81e00000000000000000000000000000000000000000000000000000000815260040160405180910390fd5b80945050505050979650505050505050565b6103e881565b60008054906101000a900473ffffffffffffffffffffffffffffffffffffffff1673ffffffffffffffffffffffffffffffffffffffff163373ffffffffffffffffffffffffffffffffffffffff161461080f576040517f74a2152700000000000000000000000000000000000000000000000000000000815260040160405180910390fd5b6001600082815260200190815260200160002060009054906101000a900460ff1661087157806040517f0995c9d50000000000000000000000000000000000000000000000000000000081526004016108689190610cdc565b60405180910390fd5b60006001600083815260200190815260200160002060006101000a81548160ff0219169083151502179055507fe8d9861dbc9c663ed3accd261bbe2fe01e0d3d9e5f51fa38523b265c7757a93a816040516108cc9190610cdc565b60405180910390a150565b6000813590506108e681610f65565b92915050565b6000813590506108fb81610f7c565b92915050565b60008083601f84011261091757610916610f40565b5b8235905067ffffffffffffffff81111561093457610933610f3b565b5b6020830191508360018202830111156109505761094f610f45565b5b9250929050565b60008083601f84011261096d5761096c610f40565b5b8235905067ffffffffffffffff81111561098a57610989610f3b565b5b6020830191508360018202830111156109a6576109a5610f45565b5b9250929050565b6000813590506109bc81610f93565b92915050565b600080600080600080600060a0888a0312156109e1576109e0610f4f565b5b60006109ef8a828b016108d7565b9750506020610a008a828b016109ad565b965050604088013567ffffffffffffffff811115610a2157610a20610f4a565b5b610a2d8a828b01610957565b9550955050606088013567ffffffffffffffff811115610a5057610a4f610f4a565b5b610a5c8a828b01610901565b93509350506080610a6f8a828b016109ad565b91505092959891949750929550565b600060208284031215610a9457610a93610f4f565b5b6000610aa2848285016108ec565b91505092915050565b610ab481610e42565b82525050565b610ac381610e54565b82525050565b610ad281610e60565b82525050565b610ae9610ae482610e6a565b610f02565b82525050565b6000610afb8385610dbf565b9350610b08838584610ec0565b610b1183610f54565b840190509392505050565b6000610b288385610dd0565b9350610b35838584610ec0565b82840190509392505050565b6000610b4c82610db4565b610b568185610dbf565b9350610b66818560208601610ecf565b610b6f81610f54565b840191505092915050565b6000610b8582610db4565b610b8f8185610dd0565b9350610b9f818560208601610ecf565b80840191505092915050565b6000610bb78385610ddb565b9350610bc4838584610ec0565b610bcd83610f54565b840190509392505050565b610be181610eb6565b82525050565b6000610bf38286610ad8565b600482019150610c04828486610b1c565b9150819050949350505050565b6000610c1e828486610b1c565b91508190509392505050565b6000610c368284610b7a565b915081905092915050565b6000602082019050610c566000830184610aab565b92915050565b600060a082019050610c71600083018a610aab565b610c7e6020830189610bd8565b8181036040830152610c91818789610bab565b90508181036060830152610ca6818587610aef565b9050610cb56080830184610bd8565b98975050505050505050565b6000602082019050610cd66000830184610aba565b92915050565b6000602082019050610cf16000830184610ac9565b92915050565b60006020820190508181036000830152610d118184610b41565b905092915050565b6000602082019050610d2e6000830184610bd8565b92915050565b6000608082019050610d496000830189610bd8565b8181036020830152610d5c818789610bab565b90508181036040830152610d71818587610aef565b9050610d806060830184610bd8565b979650505050505050565b6000604082019050610da06000830185610bd8565b610dad6020830184610bd8565b9392505050565b600081519050919050565b600082825260208201905092915050565b600081905092915050565b600082825260208201905092915050565b6000610df782610eb6565b9150610e0283610eb6565b9250827fffffffffffffffffffffffffffffffffffffffffffffffffffffffffffffffff03821115610e3757610e36610f0c565b5b828201905092915050565b6000610e4d82610e96565b9050919050565b60008115159050919050565b6000819050919050565b60007fffffffff0000000000000000000000000000000000000000000000000000000082169050919050565b600073ffffffffffffffffffffffffffffffffffffffff82169050919050565b6000819050919050565b82818337600083830152505050565b60005b83811015610eed578082015181840152602081019050610ed2565b83811115610efc576000848401525b50505050565b6000819050919050565b7f4e487b7100000000000000000000000000000000000000000000000000000000600052601160045260246000fd5b600080fd5b600080fd5b600080fd5b600080fd5b600080fd5b6000601f19601f8301169050919050565b610f6e81610e42565b8114610f7957600080fd5b50565b610f8581610e60565b8114610f9057600080fd5b50565b610f9c81610eb6565b8114610fa757600080fd5b5056fea2646970667358221220311355612d8ec09232ea3f6b2145225df4b72f2c91ebce6d629cabe2d494887d64736f6c63430008070033",
			"opcodes": "PUSH1 0x80 PUSH1 0x40 MSTORE CALLVALUE DUP1 ISZERO PUSH2 0x10 JUMPI PUSH1 0x0 DUP1 REVERT JUMPDEST POP CALLER PUSH1 0x0 DUP1 PUSH2 0x100 EXP DUP2 SLOAD DUP2 PUSH20 0xFFFFFFFFFFFFFFFFFFFFFFFFFFFFFFFFFFFFFFFF MUL NOT AND SWAP1 DUP4 PUSH20 0xFFFFFFFFFFFFFFFFFFFFFFFFFFFFFFFFFFFFFFFF AND MUL OR SWAP1 SSTORE POP PUSH2 0xFE0 DUP1 PUSH2 0x60 PUSH1 0x0 CODECOPY PUSH1 0x0 RETURN INVALID PUSH1 0x80 PUSH1 0x40 MSTORE PUSH1 0x4 CALLDATASIZE LT PUSH2 0x86 JUMPI PUSH1 0x0 CALLDATALOAD PUSH1 0xE0 SHR DUP1 PUSH4 0x8DA5CB5B GT PUSH2 0x59 JUMPI DUP1 PUSH4 0x8DA5CB5B EQ PUSH2 0x159 JUMPI DUP1 PUSH4 0x9F81AED7 EQ PUSH2 0x184 JUMPI DUP1 PUSH4 0xB0F8B142 EQ PUSH2 0x1AF JUMPI DUP1 PUSH4 0xC1A287E2 EQ PUSH2 0x1DF JUMPI DUP1 PUSH4 0xC4D252F5 EQ PUSH2 0x20A JUMPI PUSH2 0x86 JUMP JUMPDEST DUP1 PUSH4 0x228250C9 EQ PUSH2 0x8B JUMPI DUP1 PUSH4 0x4125FF90 EQ PUSH2 0xC8 JUMPI DUP1 PUSH4 0x4B9915A5 EQ PUSH2 0xF3 JUMPI DUP1 PUSH4 0x8A1CE0B6 EQ PUSH2 0x11C JUMPI JUMPDEST PUSH1 0x0 DUP1 REVERT JUMPDEST CALLVALUE DUP1 ISZERO PUSH2 0x97 JUMPI PUSH1 0x0 DUP1 REVERT JUMPDEST POP PUSH2 0xB2 PUSH1 0x4 DUP1 CALLDATASIZE SUB DUP2 ADD SWAP1 PUSH2 0xAD SWAP2 SWAP1 PUSH2 0xA7E JUMP JUMPDEST PUSH2 0x233 JUMP JUMPDEST PUSH1 0x40 MLOAD PUSH2 0xBF SWAP2 SWAP1 PUSH2 0xCC1 JUMP JUMPDEST PUSH1 0x40 MLOAD DUP1 SWAP2 SUB SWAP1 RETURN JUMPDEST CALLVALUE DUP1 ISZERO PUSH2 0xD4 JUMPI PUSH1 0x0 DUP1 REVERT JUMPDEST POP PUSH2 0xDD PUSH2 0x253 JUMP JUMPDEST PUSH1 0x40 MLOAD PUSH2 0xEA SWAP2 SWAP1 PUSH2 0xD19 JUMP JUMPDEST PUSH1 0x40 MLOAD DUP1 SWAP2 SUB SWAP1 RETURN JUMPDEST CALLVALUE DUP1 ISZERO PUSH2 0xFF JUMPI PUSH1 0x0 DUP1 REVERT JUMPDEST POP PUSH2 0x11A PUSH1 0x4 DUP1 CALLDATASIZE SUB DUP2 ADD SWAP1 PUSH2 0x115 SWAP2 SWAP1 PUSH2 0x9C2 JUMP JUMPDEST PUSH2 0x259 JUMP JUMPDEST STOP JUMPDEST CALLVALUE DUP1 ISZERO PUSH2 0x128 JUMPI PUSH1 0x0 DUP1 REVERT JUMPDEST POP PUSH2 0x143 PUSH1 0x4 DUP1 CALLDATASIZE SUB DUP2 ADD SWAP1 PUSH2 0x13E SWAP2 SWAP1 PUSH2 0x9C2 JUMP JUMPDEST PUSH2 0x43F JUMP JUMPDEST PUSH1 0x40 MLOAD PUSH2 0x150 SWAP2 SWAP1 PUSH2 0xCDC JUMP JUMPDEST PUSH1 0x40 MLOAD DUP1 SWAP2 SUB SWAP1 RETURN JUMPDEST CALLVALUE DUP1 ISZERO PUSH2 0x165 JUMPI PUSH1 0x0 DUP1 REVERT JUMPDEST POP PUSH2 0x16E PUSH2 0x481 JUMP JUMPDEST PUSH1 0x40 MLOAD PUSH2 0x17B SWAP2 SWAP1 PUSH2 0xC41 JUMP JUMPDEST PUSH1 0x40 MLOAD DUP1 SWAP2 SUB SWAP1 RETURN JUMPDEST CALLVALUE DUP1 ISZERO PUSH2 0x190 JUMPI PUSH1 0x0 DUP1 REVERT JUMPDEST POP PUSH2 0x199 PUSH2 0x4A5 JUMP JUMPDEST PUSH1 0x40 MLOAD PUSH2 0x1A6 SWAP2 SWAP1 PUSH2 0xD19 JUMP JUMPDEST PUSH1 0x40 MLOAD DUP1 SWAP2 SUB SWAP1 RETURN JUMPDEST PUSH2 0x1C9 PUSH1 0x4 DUP1 CALLDATASIZE SUB DUP2 ADD SWAP1 PUSH2 0x1C4 SWAP2 SWAP1 PUSH2 0x9C2 JUMP JUMPDEST PUSH2 0x4AA JUMP JUMPDEST PUSH1 0x40 MLOAD PUSH2 0x1D6 SWAP2 SWAP1 PUSH2 0xCF7 JUMP JUMPDEST PUSH1 0x40 MLOAD DUP1 SWAP2 SUB SWAP1 RETURN JUMPDEST CALLVALUE DUP1 ISZERO PUSH2 0x1EB JUMPI PUSH1 0x0 DUP1 REVERT JUMPDEST POP PUSH2 0x1F4 PUSH2 0x784 JUMP JUMPDEST PUSH1 0x40 MLOAD PUSH2 0x201 SWAP2 SWAP1 PUSH2 0xD19 JUMP JUMPDEST PUSH1 0x40 MLOAD DUP1 SWAP2 SUB SWAP1 RETURN JUMPDEST CALLVALUE DUP1 ISZERO PUSH2 0x216 JUMPI PUSH1 0x0 DUP1 REVERT JUMPDEST POP PUSH2 0x231 PUSH1 0x4 DUP1 CALLDATASIZE SUB DUP2 ADD SWAP1 PUSH2 0x22C SWAP2 SWAP1 PUSH2 0xA7E JUMP JUMPDEST PUSH2 0x78A JUMP JUMPDEST STOP JUMPDEST PUSH1 0x1 PUSH1 0x20 MSTORE DUP1 PUSH1 0x0 MSTORE PUSH1 0x40 PUSH1 0x0 KECCAK256 PUSH1 0x0 SWAP2 POP SLOAD SWAP1 PUSH2 0x100 EXP SWAP1 DIV PUSH1 0xFF AND DUP2 JUMP JUMPDEST PUSH2 0x3E8 DUP2 JUMP JUMPDEST PUSH1 0x0 DUP1 SLOAD SWAP1 PUSH2 0x100 EXP SWAP1 DIV PUSH20 0xFFFFFFFFFFFFFFFFFFFFFFFFFFFFFFFFFFFFFFFF AND PUSH20 0xFFFFFFFFFFFFFFFFFFFFFFFFFFFFFFFFFFFFFFFF AND CALLER PUSH20 0xFFFFFFFFFFFFFFFFFFFFFFFFFFFFFFFFFFFFFFFF AND EQ PUSH2 0x2DE JUMPI PUSH1 0x40 MLOAD PUSH32 0x74A2152700000000000000000000000000000000000000000000000000000000 DUP2 MSTORE PUSH1 0x4 ADD PUSH1 0x40 MLOAD DUP1 SWAP2 SUB SWAP1 REVERT JUMPDEST PUSH1 0x0 PUSH2 0x2EF DUP9 DUP9 DUP9 DUP9 DUP9 DUP9 DUP9 PUSH2 0x43F JUMP JUMPDEST SWAP1 POP PUSH1 0x1 PUSH1 0x0 DUP3 DUP2 MSTORE PUSH1 0x20 ADD SWAP1 DUP2 MSTORE PUSH1 0x20 ADD PUSH1 0x0 KECCAK256 PUSH1 0x0 SWAP1 SLOAD SWAP1 PUSH2 0x100 EXP SWAP1 DIV PUSH1 0xFF AND ISZERO PUSH2 0x354 JUMPI DUP1 PUSH1 0x40 MLOAD PUSH32 0x995042BE00000000000000000000000000000000000000000000000000000000 DUP2 MSTORE PUSH1 0x4 ADD PUSH2 0x34B SWAP2 SWAP1 PUSH2 0xCDC JUMP JUMPDEST PUSH1 0x40 MLOAD DUP1 SWAP2 SUB SWAP1 REVERT JUMPDEST PUSH1 0xA TIMESTAMP PUSH2 0x361 SWAP2 SWAP1 PUSH2 0xDEC JUMP JUMPDEST DUP3 LT DUP1 PUSH2 0x37A JUMPI POP PUSH2 0x3E8 TIMESTAMP PUSH2 0x377 SWAP2 SWAP1 PUSH2 0xDEC JUMP JUMPDEST DUP3 GT JUMPDEST ISZERO PUSH2 0x3B1 JUMPI PUSH1 0x40 MLOAD PUSH32 0x58F7E23400000000000000000000000000000000000000000000000000000000 DUP2 MSTORE PUSH1 0x4 ADD PUSH1 0x40 MLOAD DUP1 SWAP2 SUB SWAP1 REVERT JUMPDEST PUSH1 0x1 DUP1 PUSH1 0x0 DUP4 DUP2 MSTORE PUSH1 0x20 ADD SWAP1 DUP2 MSTORE PUSH1 0x20 ADD PUSH1 0x0 KECCAK256 PUSH1 0x0 PUSH2 0x100 EXP DUP2 SLOAD DUP2 PUSH1 0xFF MUL NOT AND SWAP1 DUP4 ISZERO ISZERO MUL OR SWAP1 SSTORE POP DUP8 PUSH20 0xFFFFFFFFFFFFFFFFFFFFFFFFFFFFFFFFFFFFFFFF AND DUP2 PUSH32 0x3C22F47140594040D205A5533CFEDD86C9AB8622C39EAD03AFFB2D97052C794C DUP10 DUP10 DUP10 DUP10 DUP10 DUP10 PUSH1 0x40 MLOAD PUSH2 0x42D SWAP7 SWAP6 SWAP5 SWAP4 SWAP3 SWAP2 SWAP1 PUSH2 0xD34 JUMP JUMPDEST PUSH1 0x40 MLOAD DUP1 SWAP2 SUB SWAP1 LOG3 POP POP POP POP POP POP POP POP JUMP JUMPDEST PUSH1 0x0 DUP8 DUP8 DUP8 DUP8 DUP8 DUP8 DUP8 PUSH1 0x40 MLOAD PUSH1 0x20 ADD PUSH2 0x45E SWAP8 SWAP7 SWAP6 SWAP5 SWAP4 SWAP3 SWAP2 SWAP1 PUSH2 0xC5C JUMP JUMPDEST PUSH1 0x40 MLOAD PUSH1 0x20 DUP2 DUP4 SUB SUB DUP2 MSTORE SWAP1 PUSH1 0x40 MSTORE DUP1 MLOAD SWAP1 PUSH1 0x20 ADD KECCAK256 SWAP1 POP SWAP8 SWAP7 POP POP POP POP POP POP POP JUMP JUMPDEST PUSH1 0x0 DUP1 SLOAD SWAP1 PUSH2 0x100 EXP SWAP1 DIV PUSH20 0xFFFFFFFFFFFFFFFFFFFFFFFFFFFFFFFFFFFFFFFF AND DUP2 JUMP JUMPDEST PUSH1 0xA DUP2 JUMP JUMPDEST PUSH1 0x60 PUSH1 0x0 DUP1 SLOAD SWAP1 PUSH2 0x100 EXP SWAP1 DIV PUSH20 0xFFFFFFFFFFFFFFFFFFFFFFFFFFFFFFFFFFFFFFFF AND PUSH20 0xFFFFFFFFFFFFFFFFFFFFFFFFFFFFFFFFFFFFFFFF AND CALLER PUSH20 0xFFFFFFFFFFFFFFFFFFFFFFFFFFFFFFFFFFFFFFFF AND EQ PUSH2 0x531 JUMPI PUSH1 0x40 MLOAD PUSH32 0x74A2152700000000000000000000000000000000000000000000000000000000 DUP2 MSTORE PUSH1 0x4 ADD PUSH1 0x40 MLOAD DUP1 SWAP2 SUB SWAP1 REVERT JUMPDEST PUSH1 0x0 PUSH2 0x542 DUP10 DUP10 DUP10 DUP10 DUP10 DUP10 DUP10 PUSH2 0x43F JUMP JUMPDEST SWAP1 POP PUSH1 0x1 PUSH1 0x0 DUP3 DUP2 MSTORE PUSH1 0x20 ADD SWAP1 DUP2 MSTORE PUSH1 0x20 ADD PUSH1 0x0 KECCAK256 PUSH1 0x0 SWAP1 SLOAD SWAP1 PUSH2 0x100 EXP SWAP1 DIV PUSH1 0xFF AND PUSH2 0x5A6 JUMPI DUP1 PUSH1 0x40 MLOAD PUSH32 0x995C9D500000000000000000000000000000000000000000000000000000000 DUP2 MSTORE PUSH1 0x4 ADD PUSH2 0x59D SWAP2 SWAP1 PUSH2 0xCDC JUMP JUMPDEST PUSH1 0x40 MLOAD DUP1 SWAP2 SUB SWAP1 REVERT JUMPDEST PUSH2 0x3E8 DUP4 PUSH2 0x5B4 SWAP2 SWAP1 PUSH2 0xDEC JUMP JUMPDEST TIMESTAMP LT ISZERO PUSH2 0x607 JUMPI TIMESTAMP PUSH2 0x3E8 DUP5 PUSH2 0x5CA SWAP2 SWAP1 PUSH2 0xDEC JUMP JUMPDEST PUSH1 0x40 MLOAD PUSH32 0x431C9FB300000000000000000000000000000000000000000000000000000000 DUP2 MSTORE PUSH1 0x4 ADD PUSH2 0x5FE SWAP3 SWAP2 SWAP1 PUSH2 0xD8B JUMP JUMPDEST PUSH1 0x40 MLOAD DUP1 SWAP2 SUB SWAP1 REVERT JUMPDEST PUSH1 0x0 PUSH1 0x1 PUSH1 0x0 DUP4 DUP2 MSTORE PUSH1 0x20 ADD SWAP1 DUP2 MSTORE PUSH1 0x20 ADD PUSH1 0x0 KECCAK256 PUSH1 0x0 PUSH2 0x100 EXP DUP2 SLOAD DUP2 PUSH1 0xFF MUL NOT AND SWAP1 DUP4 ISZERO ISZERO MUL OR SWAP1 SSTORE POP PUSH1 0x60 PUSH1 0x0 DUP9 DUP9 SWAP1 POP GT ISZERO PUSH2 0x683 JUMPI DUP8 DUP8 PUSH1 0x40 MLOAD PUSH2 0x651 SWAP3 SWAP2 SWAP1 PUSH2 0xC11 JUMP JUMPDEST PUSH1 0x40 MLOAD DUP1 SWAP2 SUB SWAP1 KECCAK256 DUP7 DUP7 PUSH1 0x40 MLOAD PUSH1 0x20 ADD PUSH2 0x66D SWAP4 SWAP3 SWAP2 SWAP1 PUSH2 0xBE7 JUMP JUMPDEST PUSH1 0x40 MLOAD PUSH1 0x20 DUP2 DUP4 SUB SUB DUP2 MSTORE SWAP1 PUSH1 0x40 MSTORE SWAP1 POP PUSH2 0x6CB JUMP JUMPDEST DUP6 DUP6 DUP1 DUP1 PUSH1 0x1F ADD PUSH1 0x20 DUP1 SWAP2 DIV MUL PUSH1 0x20 ADD PUSH1 0x40 MLOAD SWAP1 DUP2 ADD PUSH1 0x40 MSTORE DUP1 SWAP4 SWAP3 SWAP2 SWAP1 DUP2 DUP2 MSTORE PUSH1 0x20 ADD DUP4 DUP4 DUP1 DUP3 DUP5 CALLDATACOPY PUSH1 0x0 DUP2 DUP5 ADD MSTORE PUSH1 0x1F NOT PUSH1 0x1F DUP3 ADD AND SWAP1 POP DUP1 DUP4 ADD SWAP3 POP POP POP POP POP POP POP SWAP1 POP JUMPDEST PUSH1 0x0 DUP1 DUP12 PUSH20 0xFFFFFFFFFFFFFFFFFFFFFFFFFFFFFFFFFFFFFFFF AND DUP12 DUP5 PUSH1 0x40 MLOAD PUSH2 0x6F4 SWAP2 SWAP1 PUSH2 0xC2A JUMP JUMPDEST PUSH1 0x0 PUSH1 0x40 MLOAD DUP1 DUP4 SUB DUP2 DUP6 DUP8 GAS CALL SWAP3 POP POP POP RETURNDATASIZE DUP1 PUSH1 0x0 DUP2 EQ PUSH2 0x731 JUMPI PUSH1 0x40 MLOAD SWAP2 POP PUSH1 0x1F NOT PUSH1 0x3F RETURNDATASIZE ADD AND DUP3 ADD PUSH1 0x40 MSTORE RETURNDATASIZE DUP3 MSTORE RETURNDATASIZE PUSH1 0x0 PUSH1 0x20 DUP5 ADD RETURNDATACOPY PUSH2 0x736 JUMP JUMPDEST PUSH1 0x60 SWAP2 POP JUMPDEST POP SWAP2 POP SWAP2 POP DUP2 PUSH2 0x772 JUMPI PUSH1 0x40 MLOAD PUSH32 0xD9B4F81E00000000000000000000000000000000000000000000000000000000 DUP2 MSTORE PUSH1 0x4 ADD PUSH1 0x40 MLOAD DUP1 SWAP2 SUB SWAP1 REVERT JUMPDEST DUP1 SWAP5 POP POP POP POP POP SWAP8 SWAP7 POP POP POP POP POP POP POP JUMP JUMPDEST PUSH2 0x3E8 DUP2 JUMP JUMPDEST PUSH1 0x0 DUP1 SLOAD SWAP1 PUSH2 0x100 EXP SWAP1 DIV PUSH20 0xFFFFFFFFFFFFFFFFFFFFFFFFFFFFFFFFFFFFFFFF AND PUSH20 0xFFFFFFFFFFFFFFFFFFFFFFFFFFFFFFFFFFFFFFFF AND CALLER PUSH20 0xFFFFFFFFFFFFFFFFFFFFFFFFFFFFFFFFFFFFFFFF AND EQ PUSH2 0x80F JUMPI PUSH1 0x40 MLOAD PUSH32 0x74A2152700000000000000000000000000000000000000000000000000000000 DUP2 MSTORE PUSH1 0x4 ADD PUSH1 0x40 MLOAD DUP1 SWAP2 SUB SWAP1 REVERT JUMPDEST PUSH1 0x1 PUSH1 0x0 DUP3 DUP2 MSTORE PUSH1 0x20 ADD SWAP1 DUP2 MSTORE PUSH1 0x20 ADD PUSH1 0x0 KECCAK256 PUSH1 0x0 SWAP1 SLOAD SWAP1 PUSH2 0x100 EXP SWAP1 DIV PUSH1 0xFF AND PUSH2 0x871 JUMPI DUP1 PUSH1 0x40 MLOAD PUSH32 0x995C9D500000000000000000000000000000000000000000000000000000000 DUP2 MSTORE PUSH1 0x4 ADD PUSH2 0x868 SWAP2 SWAP1 PUSH2 0xCDC JUMP JUMPDEST PUSH1 0x40 MLOAD DUP1 SWAP2 SUB SWAP1 REVERT JUMPDEST PUSH1 0x0 PUSH1 0x1 PUSH1 0x0 DUP4 DUP2 MSTORE PUSH1 0x20 ADD SWAP1 DUP2 MSTORE PUSH1 0x20 ADD PUSH1 0x0 KECCAK256 PUSH1 0x0 PUSH2 0x100 EXP DUP2 SLOAD DUP2 PUSH1 0xFF MUL NOT AND SWAP1 DUP4 ISZERO ISZERO MUL OR SWAP1 SSTORE POP PUSH32 0xE8D9861DBC9C663ED3ACCD261BBE2FE01E0D3D9E5F51FA38523B265C7757A93A DUP2 PUSH1 0x40 MLOAD PUSH2 0x8CC SWAP2 SWAP1 PUSH2 0xCDC JUMP JUMPDEST PUSH1 0x40 MLOAD DUP1 SWAP2 SUB SWAP1 LOG1 POP JUMP JUMPDEST PUSH1 0x0 DUP2 CALLDATALOAD SWAP1 POP PUSH2 0x8E6 DUP2 PUSH2 0xF65 JUMP JUMPDEST SWAP3 SWAP2 POP POP JUMP JUMPDEST PUSH1 0x0 DUP2 CALLDATALOAD SWAP1 POP PUSH2 0x8FB DUP2 PUSH2 0xF7C JUMP JUMPDEST SWAP3 SWAP2 POP POP JUMP JUMPDEST PUSH1 0x0 DUP1 DUP4 PUSH1 0x1F DUP5 ADD SLT PUSH2 0x917 JUMPI PUSH2 0x916 PUSH2 0xF40 JUMP JUMPDEST JUMPDEST DUP3 CALLDATALOAD SWAP1 POP PUSH8 0xFFFFFFFFFFFFFFFF DUP2 GT ISZERO PUSH2 0x934 JUMPI PUSH2 0x933 PUSH2 0xF3B JUMP JUMPDEST JUMPDEST PUSH1 0x20 DUP4 ADD SWAP2 POP DUP4 PUSH1 0x1 DUP3 MUL DUP4 ADD GT ISZERO PUSH2 0x950 JUMPI PUSH2 0x94F PUSH2 0xF45 JUMP JUMPDEST JUMPDEST SWAP3 POP SWAP3 SWAP1 POP JUMP JUMPDEST PUSH1 0x0 DUP1 DUP4 PUSH1 0x1F DUP5 ADD SLT PUSH2 0x96D JUMPI PUSH2 0x96C PUSH2 0xF40 JUMP JUMPDEST JUMPDEST DUP3 CALLDATALOAD SWAP1 POP PUSH8 0xFFFFFFFFFFFFFFFF DUP2 GT ISZERO PUSH2 0x98A JUMPI PUSH2 0x989 PUSH2 0xF3B JUMP JUMPDEST JUMPDEST PUSH1 0x20 DUP4 ADD SWAP2 POP DUP4 PUSH1 0x1 DUP3 MUL DUP4 ADD GT ISZERO PUSH2 0x9A6 JUMPI PUSH2 0x9A5 PUSH2 0xF45 JUMP JUMPDEST JUMPDEST SWAP3 POP SWAP3 SWAP1 POP JUMP JUMPDEST PUSH1 0x0 DUP2 CALLDATALOAD SWAP1 POP PUSH2 0x9BC DUP2 PUSH2 0xF93 JUMP JUMPDEST SWAP3 SWAP2 POP POP JUMP JUMPDEST PUSH1 0x0 DUP1 PUSH1 0x0 DUP1 PUSH1 0x0 DUP1 PUSH1 0x0 PUSH1 0xA0 DUP9 DUP11 SUB SLT ISZERO PUSH2 0x9E1 JUMPI PUSH2 0x9E0 PUSH2 0xF4F JUMP JUMPDEST JUMPDEST PUSH1 0x0 PUSH2 0x9EF DUP11 DUP3 DUP12 ADD PUSH2 0x8D7 JUMP JUMPDEST SWAP8 POP POP PUSH1 0x20 PUSH2 0xA00 DUP11 DUP3 DUP12 ADD PUSH2 0x9AD JUMP JUMPDEST SWAP7 POP POP PUSH1 0x40 DUP9 ADD CALLDATALOAD PUSH8 0xFFFFFFFFFFFFFFFF DUP2 GT ISZERO PUSH2 0xA21 JUMPI PUSH2 0xA20 PUSH2 0xF4A JUMP JUMPDEST JUMPDEST PUSH2 0xA2D DUP11 DUP3 DUP12 ADD PUSH2 0x957 JUMP JUMPDEST SWAP6 POP SWAP6 POP POP PUSH1 0x60 DUP9 ADD CALLDATALOAD PUSH8 0xFFFFFFFFFFFFFFFF DUP2 GT ISZERO PUSH2 0xA50 JUMPI PUSH2 0xA4F PUSH2 0xF4A JUMP JUMPDEST JUMPDEST PUSH2 0xA5C DUP11 DUP3 DUP12 ADD PUSH2 0x901 JUMP JUMPDEST SWAP4 POP SWAP4 POP POP PUSH1 0x80 PUSH2 0xA6F DUP11 DUP3 DUP12 ADD PUSH2 0x9AD JUMP JUMPDEST SWAP2 POP POP SWAP3 SWAP6 SWAP9 SWAP2 SWAP5 SWAP8 POP SWAP3 SWAP6 POP JUMP JUMPDEST PUSH1 0x0 PUSH1 0x20 DUP3 DUP5 SUB SLT ISZERO PUSH2 0xA94 JUMPI PUSH2 0xA93 PUSH2 0xF4F JUMP JUMPDEST JUMPDEST PUSH1 0x0 PUSH2 0xAA2 DUP5 DUP3 DUP6 ADD PUSH2 0x8EC JUMP JUMPDEST SWAP2 POP POP SWAP3 SWAP2 POP POP JUMP JUMPDEST PUSH2 0xAB4 DUP2 PUSH2 0xE42 JUMP JUMPDEST DUP3 MSTORE POP POP JUMP JUMPDEST PUSH2 0xAC3 DUP2 PUSH2 0xE54 JUMP JUMPDEST DUP3 MSTORE POP POP JUMP JUMPDEST PUSH2 0xAD2 DUP2 PUSH2 0xE60 JUMP JUMPDEST DUP3 MSTORE POP POP JUMP JUMPDEST PUSH2 0xAE9 PUSH2 0xAE4 DUP3 PUSH2 0xE6A JUMP JUMPDEST PUSH2 0xF02 JUMP JUMPDEST DUP3 MSTORE POP POP JUMP JUMPDEST PUSH1 0x0 PUSH2 0xAFB DUP4 DUP6 PUSH2 0xDBF JUMP JUMPDEST SWAP4 POP PUSH2 0xB08 DUP4 DUP6 DUP5 PUSH2 0xEC0 JUMP JUMPDEST PUSH2 0xB11 DUP4 PUSH2 0xF54 JUMP JUMPDEST DUP5 ADD SWAP1 POP SWAP4 SWAP3 POP POP POP JUMP JUMPDEST PUSH1 0x0 PUSH2 0xB28 DUP4 DUP6 PUSH2 0xDD0 JUMP JUMPDEST SWAP4 POP PUSH2 0xB35 DUP4 DUP6 DUP5 PUSH2 0xEC0 JUMP JUMPDEST DUP3 DUP5 ADD SWAP1 POP SWAP4 SWAP3 POP POP POP JUMP JUMPDEST PUSH1 0x0 PUSH2 0xB4C DUP3 PUSH2 0xDB4 JUMP JUMPDEST PUSH2 0xB56 DUP2 DUP6 PUSH2 0xDBF JUMP JUMPDEST SWAP4 POP PUSH2 0xB66 DUP2 DUP6 PUSH1 0x20 DUP7 ADD PUSH2 0xECF JUMP JUMPDEST PUSH2 0xB6F DUP2 PUSH2 0xF54 JUMP JUMPDEST DUP5 ADD SWAP2 POP POP SWAP3 SWAP2 POP POP JUMP JUMPDEST PUSH1 0x0 PUSH2 0xB85 DUP3 PUSH2 0xDB4 JUMP JUMPDEST PUSH2 0xB8F DUP2 DUP6 PUSH2 0xDD0 JUMP JUMPDEST SWAP4 POP PUSH2 0xB9F DUP2 DUP6 PUSH1 0x20 DUP7 ADD PUSH2 0xECF JUMP JUMPDEST DUP1 DUP5 ADD SWAP2 POP POP SWAP3 SWAP2 POP POP JUMP JUMPDEST PUSH1 0x0 PUSH2 0xBB7 DUP4 DUP6 PUSH2 0xDDB JUMP JUMPDEST SWAP4 POP PUSH2 0xBC4 DUP4 DUP6 DUP5 PUSH2 0xEC0 JUMP JUMPDEST PUSH2 0xBCD DUP4 PUSH2 0xF54 JUMP JUMPDEST DUP5 ADD SWAP1 POP SWAP4 SWAP3 POP POP POP JUMP JUMPDEST PUSH2 0xBE1 DUP2 PUSH2 0xEB6 JUMP JUMPDEST DUP3 MSTORE POP POP JUMP JUMPDEST PUSH1 0x0 PUSH2 0xBF3 DUP3 DUP7 PUSH2 0xAD8 JUMP JUMPDEST PUSH1 0x4 DUP3 ADD SWAP2 POP PUSH2 0xC04 DUP3 DUP5 DUP7 PUSH2 0xB1C JUMP JUMPDEST SWAP2 POP DUP2 SWAP1 POP SWAP5 SWAP4 POP POP POP POP JUMP JUMPDEST PUSH1 0x0 PUSH2 0xC1E DUP3 DUP5 DUP7 PUSH2 0xB1C JUMP JUMPDEST SWAP2 POP DUP2 SWAP1 POP SWAP4 SWAP3 POP POP POP JUMP JUMPDEST PUSH1 0x0 PUSH2 0xC36 DUP3 DUP5 PUSH2 0xB7A JUMP JUMPDEST SWAP2 POP DUP2 SWAP1 POP SWAP3 SWAP2 POP POP JUMP JUMPDEST PUSH1 0x0 PUSH1 0x20 DUP3 ADD SWAP1 POP PUSH2 0xC56 PUSH1 0x0 DUP4 ADD DUP5 PUSH2 0xAAB JUMP JUMPDEST SWAP3 SWAP2 POP POP JUMP JUMPDEST PUSH1 0x0 PUSH1 0xA0 DUP3 ADD SWAP1 POP PUSH2 0xC71 PUSH1 0x0 DUP4 ADD DUP11 PUSH2 0xAAB JUMP JUMPDEST PUSH2 0xC7E PUSH1 0x20 DUP4 ADD DUP10 PUSH2 0xBD8 JUMP JUMPDEST DUP2 DUP2 SUB PUSH1 0x40 DUP4 ADD MSTORE PUSH2 0xC91 DUP2 DUP8 DUP10 PUSH2 0xBAB JUMP JUMPDEST SWAP1 POP DUP2 DUP2 SUB PUSH1 0x60 DUP4 ADD MSTORE PUSH2 0xCA6 DUP2 DUP6 DUP8 PUSH2 0xAEF JUMP JUMPDEST SWAP1 POP PUSH2 0xCB5 PUSH1 0x80 DUP4 ADD DUP5 PUSH2 0xBD8 JUMP JUMPDEST SWAP9 SWAP8 POP POP POP POP POP POP POP POP JUMP JUMPDEST PUSH1 0x0 PUSH1 0x20 DUP3 ADD SWAP1 POP PUSH2 0xCD6 PUSH1 0x0 DUP4 ADD DUP5 PUSH2 0xABA JUMP JUMPDEST SWAP3 SWAP2 POP POP JUMP JUMPDEST PUSH1 0x0 PUSH1 0x20 DUP3 ADD SWAP1 POP PUSH2 0xCF1 PUSH1 0x0 DUP4 ADD DUP5 PUSH2 0xAC9 JUMP JUMPDEST SWAP3 SWAP2 POP POP JUMP JUMPDEST PUSH1 0x0 PUSH1 0x20 DUP3 ADD SWAP1 POP DUP2 DUP2 SUB PUSH1 0x0 DUP4 ADD MSTORE PUSH2 0xD11 DUP2 DUP5 PUSH2 0xB41 JUMP JUMPDEST SWAP1 POP SWAP3 SWAP2 POP POP JUMP JUMPDEST PUSH1 0x0 PUSH1 0x20 DUP3 ADD SWAP1 POP PUSH2 0xD2E PUSH1 0x0 DUP4 ADD DUP5 PUSH2 0xBD8 JUMP JUMPDEST SWAP3 SWAP2 POP POP JUMP JUMPDEST PUSH1 0x0 PUSH1 0x80 DUP3 ADD SWAP1 POP PUSH2 0xD49 PUSH1 0x0 DUP4 ADD DUP10 PUSH2 0xBD8 JUMP JUMPDEST DUP2 DUP2 SUB PUSH1 0x20 DUP4 ADD MSTORE PUSH2 0xD5C DUP2 DUP8 DUP10 PUSH2 0xBAB JUMP JUMPDEST SWAP1 POP DUP2 DUP2 SUB PUSH1 0x40 DUP4 ADD MSTORE PUSH2 0xD71 DUP2 DUP6 DUP8 PUSH2 0xAEF JUMP JUMPDEST SWAP1 POP PUSH2 0xD80 PUSH1 0x60 DUP4 ADD DUP5 PUSH2 0xBD8 JUMP JUMPDEST SWAP8 SWAP7 POP POP POP POP POP POP POP JUMP JUMPDEST PUSH1 0x0 PUSH1 0x40 DUP3 ADD SWAP1 POP PUSH2 0xDA0 PUSH1 0x0 DUP4 ADD DUP6 PUSH2 0xBD8 JUMP JUMPDEST PUSH2 0xDAD PUSH1 0x20 DUP4 ADD DUP5 PUSH2 0xBD8 JUMP JUMPDEST SWAP4 SWAP3 POP POP POP JUMP JUMPDEST PUSH1 0x0 DUP2 MLOAD SWAP1 POP SWAP2 SWAP1 POP JUMP JUMPDEST PUSH1 0x0 DUP3 DUP3 MSTORE PUSH1 0x20 DUP3 ADD SWAP1 POP SWAP3 SWAP2 POP POP JUMP JUMPDEST PUSH1 0x0 DUP2 SWAP1 POP SWAP3 SWAP2 POP POP JUMP JUMPDEST PUSH1 0x0 DUP3 DUP3 MSTORE PUSH1 0x20 DUP3 ADD SWAP1 POP SWAP3 SWAP2 POP POP JUMP JUMPDEST PUSH1 0x0 PUSH2 0xDF7 DUP3 PUSH2 0xEB6 JUMP JUMPDEST SWAP2 POP PUSH2 0xE02 DUP4 PUSH2 0xEB6 JUMP JUMPDEST SWAP3 POP DUP3 PUSH32 0xFFFFFFFFFFFFFFFFFFFFFFFFFFFFFFFFFFFFFFFFFFFFFFFFFFFFFFFFFFFFFFFF SUB DUP3 GT ISZERO PUSH2 0xE37 JUMPI PUSH2 0xE36 PUSH2 0xF0C JUMP JUMPDEST JUMPDEST DUP3 DUP3 ADD SWAP1 POP SWAP3 SWAP2 POP POP JUMP JUMPDEST PUSH1 0x0 PUSH2 0xE4D DUP3 PUSH2 0xE96 JUMP JUMPDEST SWAP1 POP SWAP2 SWAP1 POP JUMP JUMPDEST PUSH1 0x0 DUP2 ISZERO ISZERO SWAP1 POP SWAP2 SWAP1 POP JUMP JUMPDEST PUSH1 0x0 DUP2 SWAP1 POP SWAP2 SWAP1 POP JUMP JUMPDEST PUSH1 0x0 PUSH32 0xFFFFFFFF00000000000000000000000000000000000000000000000000000000 DUP3 AND SWAP1 POP SWAP2 SWAP1 POP JUMP JUMPDEST PUSH1 0x0 PUSH20 0xFFFFFFFFFFFFFFFFFFFFFFFFFFFFFFFFFFFFFFFF DUP3 AND SWAP1 POP SWAP2 SWAP1 POP JUMP JUMPDEST PUSH1 0x0 DUP2 SWAP1 POP SWAP2 SWAP1 POP JUMP JUMPDEST DUP3 DUP2 DUP4 CALLDATACOPY PUSH1 0x0 DUP4 DUP4 ADD MSTORE POP POP POP JUMP JUMPDEST PUSH1 0x0 JUMPDEST DUP4 DUP2 LT ISZERO PUSH2 0xEED JUMPI DUP1 DUP3 ADD MLOAD DUP2 DUP5 ADD MSTORE PUSH1 0x20 DUP2 ADD SWAP1 POP PUSH2 0xED2 JUMP JUMPDEST DUP4 DUP2 GT ISZERO PUSH2 0xEFC JUMPI PUSH1 0x0 DUP5 DUP5 ADD MSTORE JUMPDEST POP POP POP POP JUMP JUMPDEST PUSH1 0x0 DUP2 SWAP1 POP SWAP2 SWAP1 POP JUMP JUMPDEST PUSH32 0x4E487B7100000000000000000000000000000000000000000000000000000000 PUSH1 0x0 MSTORE PUSH1 0x11 PUSH1 0x4 MSTORE PUSH1 0x24 PUSH1 0x0 REVERT JUMPDEST PUSH1 0x0 DUP1 REVERT JUMPDEST PUSH1 0x0 DUP1 REVERT JUMPDEST PUSH1 0x0 DUP1 REVERT JUMPDEST PUSH1 0x0 DUP1 REVERT JUMPDEST PUSH1 0x0 DUP1 REVERT JUMPDEST PUSH1 0x0 PUSH1 0x1F NOT PUSH1 0x1F DUP4 ADD AND SWAP1 POP SWAP2 SWAP1 POP JUMP JUMPDEST PUSH2 0xF6E DUP2 PUSH2 0xE42 JUMP JUMPDEST DUP2 EQ PUSH2 0xF79 JUMPI PUSH1 0x0 DUP1 REVERT JUMPDEST POP JUMP JUMPDEST PUSH2 0xF85 DUP2 PUSH2 0xE60 JUMP JUMPDEST DUP2 EQ PUSH2 0xF90 JUMPI PUSH1 0x0 DUP1 REVERT JUMPDEST POP JUMP JUMPDEST PUSH2 0xF9C DUP2 PUSH2 0xEB6 JUMP JUMPDEST DUP2 EQ PUSH2 0xFA7 JUMPI PUSH1 0x0 DUP1 REVERT JUMPDEST POP JUMP INVALID LOG2 PUSH5 0x6970667358 0x22 SLT KECCAK256 BALANCE SGT SSTORE PUSH2 0x2D8E 0xC0 SWAP3 ORIGIN 0xEA EXTCODEHASH PUSH12 0x2145225DF4B72F2C91EBCE6D PUSH3 0x9CABE2 0xD4 SWAP5 DUP9 PUSH30 0x64736F6C6343000807003300000000000000000000000000000000000000 "
		},
		"gasEstimates": {
			"creation": {
				"codeDepositCost": "812800",
				"executionCost": "25110",
				"totalCost": "837910"
			},
			"external": {
				"GRACE_PERIOD()": "395",
				"MAX_DELAY()": "352",
				"MIN_DELAY()": "351",
				"cancel(bytes32)": "infinite",
				"execute(address,uint256,string,bytes,uint256)": "infinite",
				"getTxId(address,uint256,string,bytes,uint256)": "infinite",
				"owner()": "2511",
				"queue(address,uint256,string,bytes,uint256)": "infinite",
				"queued(bytes32)": "2797"
			}
		},
		"methodIdentifiers": {
			"GRACE_PERIOD()": "c1a287e2",
			"MAX_DELAY()": "4125ff90",
			"MIN_DELAY()": "9f81aed7",
			"cancel(bytes32)": "c4d252f5",
			"execute(address,uint256,string,bytes,uint256)": "b0f8b142",
			"getTxId(address,uint256,string,bytes,uint256)": "8a1ce0b6",
			"owner()": "8da5cb5b",
			"queue(address,uint256,string,bytes,uint256)": "4b9915a5",
			"queued(bytes32)": "228250c9"
		}
	},
	"abi": [
		{
			"inputs": [],
			"stateMutability": "nonpayable",
			"type": "constructor"
		},
		{
			"inputs": [
				{
					"internalType": "bytes32",
					"name": "txId",
					"type": "bytes32"
				}
			],
			"name": "AlreadyQueuedError",
			"type": "error"
		},
		{
			"inputs": [],
			"name": "NotOwnerError",
			"type": "error"
		},
		{
			"inputs": [
				{
					"internalType": "bytes32",
					"name": "txId",
					"type": "bytes32"
				}
			],
			"name": "NotQueuedError",
			"type": "error"
		},
		{
			"inputs": [
				{
					"internalType": "uint256",
					"name": "timestamp",
					"type": "uint256"
				},
				{
					"internalType": "uint256",
					"name": "expiresAt",
					"type": "uint256"
				}
			],
			"name": "TImestampElapsedError",
			"type": "error"
		},
		{
			"inputs": [],
			"name": "TimeStampNotInRangeError",
			"type": "error"
		},
		{
			"inputs": [],
			"name": "TxFailedError",
			"type": "error"
		},
		{
			"anonymous": false,
			"inputs": [
				{
					"indexed": false,
					"internalType": "bytes32",
					"name": "txId",
					"type": "bytes32"
				}
			],
			"name": "Cancel",
			"type": "event"
		},
		{
			"anonymous": false,
			"inputs": [
				{
					"indexed": true,
					"internalType": "bytes32",
					"name": "txId",
					"type": "bytes32"
				},
				{
					"indexed": true,
					"internalType": "address",
					"name": "target",
					"type": "address"
				},
				{
					"indexed": false,
					"internalType": "uint256",
					"name": "_value",
					"type": "uint256"
				},
				{
					"indexed": false,
					"internalType": "string",
					"name": "func",
					"type": "string"
				},
				{
					"indexed": false,
					"internalType": "bytes",
					"name": "data",
					"type": "bytes"
				},
				{
					"indexed": false,
					"internalType": "uint256",
					"name": "timestamp",
					"type": "uint256"
				}
			],
			"name": "Execute",
			"type": "event"
		},
		{
			"anonymous": false,
			"inputs": [
				{
					"indexed": true,
					"internalType": "bytes32",
					"name": "txId",
					"type": "bytes32"
				},
				{
					"indexed": true,
					"internalType": "address",
					"name": "target",
					"type": "address"
				},
				{
					"indexed": false,
					"internalType": "uint256",
					"name": "_value",
					"type": "uint256"
				},
				{
					"indexed": false,
					"internalType": "string",
					"name": "func",
					"type": "string"
				},
				{
					"indexed": false,
					"internalType": "bytes",
					"name": "data",
					"type": "bytes"
				},
				{
					"indexed": false,
					"internalType": "uint256",
					"name": "timestamp",
					"type": "uint256"
				}
			],
			"name": "Queue",
			"type": "event"
		},
		{
			"inputs": [],
			"name": "GRACE_PERIOD",
			"outputs": [
				{
					"internalType": "uint256",
					"name": "",
					"type": "uint256"
				}
			],
			"stateMutability": "view",
			"type": "function"
		},
		{
			"inputs": [],
			"name": "MAX_DELAY",
			"outputs": [
				{
					"internalType": "uint256",
					"name": "",
					"type": "uint256"
				}
			],
			"stateMutability": "view",
			"type": "function"
		},
		{
			"inputs": [],
			"name": "MIN_DELAY",
			"outputs": [
				{
					"internalType": "uint256",
					"name": "",
					"type": "uint256"
				}
			],
			"stateMutability": "view",
			"type": "function"
		},
		{
			"inputs": [
				{
					"internalType": "bytes32",
					"name": "_txId",
					"type": "bytes32"
				}
			],
			"name": "cancel",
			"outputs": [],
			"stateMutability": "nonpayable",
			"type": "function"
		},
		{
			"inputs": [
				{
					"internalType": "address",
					"name": "_target",
					"type": "address"
				},
				{
					"internalType": "uint256",
					"name": "_value",
					"type": "uint256"
				},
				{
					"internalType": "string",
					"name": "_func",
					"type": "string"
				},
				{
					"internalType": "bytes",
					"name": "_data",
					"type": "bytes"
				},
				{
					"internalType": "uint256",
					"name": "_timestamp",
					"type": "uint256"
				}
			],
			"name": "execute",
			"outputs": [
				{
					"internalType": "bytes",
					"name": "",
					"type": "bytes"
				}
			],
			"stateMutability": "payable",
			"type": "function"
		},
		{
			"inputs": [
				{
					"internalType": "address",
					"name": "_target",
					"type": "address"
				},
				{
					"internalType": "uint256",
					"name": "_value",
					"type": "uint256"
				},
				{
					"internalType": "string",
					"name": "_func",
					"type": "string"
				},
				{
					"internalType": "bytes",
					"name": "_data",
					"type": "bytes"
				},
				{
					"internalType": "uint256",
					"name": "_timestamp",
					"type": "uint256"
				}
			],
			"name": "getTxId",
			"outputs": [
				{
					"internalType": "bytes32",
					"name": "txId",
					"type": "bytes32"
				}
			],
			"stateMutability": "pure",
			"type": "function"
		},
		{
			"inputs": [],
			"name": "owner",
			"outputs": [
				{
					"internalType": "address",
					"name": "",
					"type": "address"
				}
			],
			"stateMutability": "view",
			"type": "function"
		},
		{
			"inputs": [
				{
					"internalType": "address",
					"name": "_target",
					"type": "address"
				},
				{
					"internalType": "uint256",
					"name": "_value",
					"type": "uint256"
				},
				{
					"internalType": "string",
					"name": "_func",
					"type": "string"
				},
				{
					"internalType": "bytes",
					"name": "_data",
					"type": "bytes"
				},
				{
					"internalType": "uint256",
					"name": "_timestamp",
					"type": "uint256"
				}
			],
			"name": "queue",
			"outputs": [],
			"stateMutability": "nonpayable",
			"type": "function"
		},
		{
			"inputs": [
				{
					"internalType": "bytes32",
					"name": "",
					"type": "bytes32"
				}
			],
			"name": "queued",
			"outputs": [
				{
					"internalType": "bool",
					"name": "",
					"type": "bool"
				}
			],
			"stateMutability": "view",
			"type": "function"
		}
	]
}