{
	"data": {
		"bytecode": {
			"linkReferences": {},
			"object": "608060405234801561001057600080fd5b5061029d806100206000396000f3fe608060405234801561001057600080fd5b506004361061002b5760003560e01c8063de6f24bb14610030575b600080fd5b61004a60048036038101906100459190610123565b61004c565b005b8273ffffffffffffffffffffffffffffffffffffffff163373ffffffffffffffffffffffffffffffffffffffff167fb3dbe9e9894ca2c11cb6c80bd0b0bccb9f5b41d612dbeeda0d5474de40b874fe84846040516100ab9291906101b0565b60405180910390a3505050565b6000813590506100c781610250565b92915050565b60008083601f8401126100e3576100e261022b565b5b8235905067ffffffffffffffff811115610100576100ff610226565b5b60208301915083600182028301111561011c5761011b610230565b5b9250929050565b60008060006040848603121561013c5761013b61023a565b5b600061014a868287016100b8565b935050602084013567ffffffffffffffff81111561016b5761016a610235565b5b610177868287016100cd565b92509250509250925092565b600061018f83856101d4565b935061019c838584610217565b6101a58361023f565b840190509392505050565b600060208201905081810360008301526101cb818486610183565b90509392505050565b600082825260208201905092915050565b60006101f0826101f7565b9050919050565b600073ffffffffffffffffffffffffffffffffffffffff82169050919050565b82818337600083830152505050565b600080fd5b600080fd5b600080fd5b600080fd5b600080fd5b6000601f19601f8301169050919050565b610259816101e5565b811461026457600080fd5b5056fea26469706673582212205707eaa2aa4e16ec449f01fef55c949a008a30de4fe8afda71c692d0aa3195bc64736f6c63430008070033",
			"opcodes": "PUSH1 0x80 PUSH1 0x40 MSTORE CALLVALUE DUP1 ISZERO PUSH2 0x10 JUMPI PUSH1 0x0 DUP1 REVERT JUMPDEST POP PUSH2 0x29D DUP1 PUSH2 0x20 PUSH1 0x0 CODECOPY PUSH1 0x0 RETURN INVALID PUSH1 0x80 PUSH1 0x40 MSTORE CALLVALUE DUP1 ISZERO PUSH2 0x10 JUMPI PUSH1 0x0 DUP1 REVERT JUMPDEST POP PUSH1 0x4 CALLDATASIZE LT PUSH2 0x2B JUMPI PUSH1 0x0 CALLDATALOAD PUSH1 0xE0 SHR DUP1 PUSH4 0xDE6F24BB EQ PUSH2 0x30 JUMPI JUMPDEST PUSH1 0x0 DUP1 REVERT JUMPDEST PUSH2 0x4A PUSH1 0x4 DUP1 CALLDATASIZE SUB DUP2 ADD SWAP1 PUSH2 0x45 SWAP2 SWAP1 PUSH2 0x123 JUMP JUMPDEST PUSH2 0x4C JUMP JUMPDEST STOP JUMPDEST DUP3 PUSH20 0xFFFFFFFFFFFFFFFFFFFFFFFFFFFFFFFFFFFFFFFF AND CALLER PUSH20 0xFFFFFFFFFFFFFFFFFFFFFFFFFFFFFFFFFFFFFFFF AND PUSH32 0xB3DBE9E9894CA2C11CB6C80BD0B0BCCB9F5B41D612DBEEDA0D5474DE40B874FE DUP5 DUP5 PUSH1 0x40 MLOAD PUSH2 0xAB SWAP3 SWAP2 SWAP1 PUSH2 0x1B0 JUMP JUMPDEST PUSH1 0x40 MLOAD DUP1 SWAP2 SUB SWAP1 LOG3 POP POP POP JUMP JUMPDEST PUSH1 0x0 DUP2 CALLDATALOAD SWAP1 POP PUSH2 0xC7 DUP2 PUSH2 0x250 JUMP JUMPDEST SWAP3 SWAP2 POP POP JUMP JUMPDEST PUSH1 0x0 DUP1 DUP4 PUSH1 0x1F DUP5 ADD SLT PUSH2 0xE3 JUMPI PUSH2 0xE2 PUSH2 0x22B JUMP JUMPDEST JUMPDEST DUP3 CALLDATALOAD SWAP1 POP PUSH8 0xFFFFFFFFFFFFFFFF DUP2 GT ISZERO PUSH2 0x100 JUMPI PUSH2 0xFF PUSH2 0x226 JUMP JUMPDEST JUMPDEST PUSH1 0x20 DUP4 ADD SWAP2 POP DUP4 PUSH1 0x1 DUP3 MUL DUP4 ADD GT ISZERO PUSH2 0x11C JUMPI PUSH2 0x11B PUSH2 0x230 JUMP JUMPDEST JUMPDEST SWAP3 POP SWAP3 SWAP1 POP JUMP JUMPDEST PUSH1 0x0 DUP1 PUSH1 0x0 PUSH1 0x40 DUP5 DUP7 SUB SLT ISZERO PUSH2 0x13C JUMPI PUSH2 0x13B PUSH2 0x23A JUMP JUMPDEST JUMPDEST PUSH1 0x0 PUSH2 0x14A DUP7 DUP3 DUP8 ADD PUSH2 0xB8 JUMP JUMPDEST SWAP4 POP POP PUSH1 0x20 DUP5 ADD CALLDATALOAD PUSH8 0xFFFFFFFFFFFFFFFF DUP2 GT ISZERO PUSH2 0x16B JUMPI PUSH2 0x16A PUSH2 0x235 JUMP JUMPDEST JUMPDEST PUSH2 0x177 DUP7 DUP3 DUP8 ADD PUSH2 0xCD JUMP JUMPDEST SWAP3 POP SWAP3 POP POP SWAP3 POP SWAP3 POP SWAP3 JUMP JUMPDEST PUSH1 0x0 PUSH2 0x18F DUP4 DUP6 PUSH2 0x1D4 JUMP JUMPDEST SWAP4 POP PUSH2 0x19C DUP4 DUP6 DUP5 PUSH2 0x217 JUMP JUMPDEST PUSH2 0x1A5 DUP4 PUSH2 0x23F JUMP JUMPDEST DUP5 ADD SWAP1 POP SWAP4 SWAP3 POP POP POP JUMP JUMPDEST PUSH1 0x0 PUSH1 0x20 DUP3 ADD SWAP1 POP DUP2 DUP2 SUB PUSH1 0x0 DUP4 ADD MSTORE PUSH2 0x1CB DUP2 DUP5 DUP7 PUSH2 0x183 JUMP JUMPDEST SWAP1 POP SWAP4 SWAP3 POP POP POP JUMP JUMPDEST PUSH1 0x0 DUP3 DUP3 MSTORE PUSH1 0x20 DUP3 ADD SWAP1 POP SWAP3 SWAP2 POP POP JUMP JUMPDEST PUSH1 0x0 PUSH2 0x1F0 DUP3 PUSH2 0x1F7 JUMP JUMPDEST SWAP1 POP SWAP2 SWAP1 POP JUMP JUMPDEST PUSH1 0x0 PUSH20 0xFFFFFFFFFFFFFFFFFFFFFFFFFFFFFFFFFFFFFFFF DUP3 AND SWAP1 POP SWAP2 SWAP1 POP JUMP JUMPDEST DUP3 DUP2 DUP4 CALLDATACOPY PUSH1 0x0 DUP4 DUP4 ADD MSTORE POP POP POP JUMP JUMPDEST PUSH1 0x0 DUP1 REVERT JUMPDEST PUSH1 0x0 DUP1 REVERT JUMPDEST PUSH1 0x0 DUP1 REVERT JUMPDEST PUSH1 0x0 DUP1 REVERT JUMPDEST PUSH1 0x0 DUP1 REVERT JUMPDEST PUSH1 0x0 PUSH1 0x1F NOT PUSH1 0x1F DUP4 ADD AND SWAP1 POP SWAP2 SWAP1 POP JUMP JUMPDEST PUSH2 0x259 DUP2 PUSH2 0x1E5 JUMP JUMPDEST DUP2 EQ PUSH2 0x264 JUMPI PUSH1 0x0 DUP1 REVERT JUMPDEST POP JUMP INVALID LOG2 PUSH5 0x6970667358 0x22 SLT KECCAK256 JUMPI SMOD 0xEA LOG2 0xAA 0x4E AND 0xEC DIFFICULTY SWAP16 ADD INVALID CREATE2 0x5C SWAP5 SWAP11 STOP DUP11 ADDRESS 0xDE 0x4F 0xE8 0xAF 0xDA PUSH18 0xC692D0AA3195BC64736F6C63430008070033 "
		},
		"gasEstimates": {
			"creation": {
				"codeDepositCost": "133800",
				"executionCost": "177",
				"totalCost": "133977"
			},
			"external": {
				"sendMessage(address,string)": "infinite"
			}
		},
		"methodIdentifiers": {
			"sendMessage(address,string)": "de6f24bb"
		}
	},
	"abi": [
		{
			"anonymous": false,
			"inputs": [
				{
					"indexed": true,
					"internalType": "address",
					"name": "from",
					"type": "address"
				},
				{
					"indexed": true,
					"internalType": "address",
					"name": "to",
					"type": "address"
				},
				{
					"indexed": false,
					"internalType": "string",
					"name": "Message",
					"type": "string"
				}
			],
			"name": "Message",
			"type": "event"
		},
		{
			"inputs": [
				{
					"internalType": "address",
					"name": "_to",
					"type": "address"
				},
				{
					"internalType": "string",
					"name": "message",
					"type": "string"
				}
			],
			"name": "sendMessage",
			"outputs": [],
			"stateMutability": "nonpayable",
			"type": "function"
		}
	]
}